:020000040000FA
:100000000080002071180000010000207B18000013
:1000100000000000000000000000000000000000E0
:100020000000000000000000000000007B1800003D
:1000300000000000000000007D1800007F18000094
:10004000811800008118000081180000811800004C
:10005000811800008118000081180000811800003C
:10006000811800008118000081180000811800002C
:10007000811800008118000081180000811800001C
:10008000811800008118000081180000811800000C
:100090000348854603F032F800480047B7000000E7
:1000A0000080002010B5002804D001464DA003F0C8
:1000B00059F8FEE710BD022000F00DFA10210120D2
:1000C00001F028FB052000F047FE4A498A6A4C15DA
:1000D00022438A620121080200F030FD03212046FC
:1000E00000F02CFD01F0B3FA42484038417842A2BA
:1000F00044A003F037F84A4948480860494940306D
:10010000086001F09BF800F0ADF9474D0020474E24
:100110002870474900208A79D20705D001248C71C4
:1001200000F03BFE152803D02978002904D101E016
:100130002C7001E015284ED100202870C82000F056
:100140000BFE01F0B3F8002845D13A4F0420387077
:10015000002439A003F006F802F0CCFA010009D01F
:1001600039A002F0FFFF322000F0F6FD641CE4B27B
:100170000A2CEED1387805282DD335A002F0F2FFF5
:1001800035A12A4802F06EFF02F0AFFBFFF78AFFAD
:1001900035A002F0E7FF21483649803002F0F2FF37
:1001A000C7B200241D4837808030706002F012FE14
:1001B000FFF778FF214630A002F0D4FF641CE4B2C0
:1001C0000A2CEFD331A002F0CDFF0120307002F0F5
:1001D00023FBFFF767FF642000F0BEFD012000F065
:1001E00009FE96E74572726F723A20253032580A3E
:1001F000000000008010004030303A34373A303987
:1002000000000000537461727420404368697049B3
:10021000443D25303258202573200A0098020020E2
:100220002402002028020020210200207C0300205C
:10023000008000402D0200205761697420446973DA
:100240006B52656164790A00253032780A0000003B
:100250004372656174650A002F4E455746494C4507
:100260002E54585400000000427974655772697426
:10027000650A0000AC360000B3C9B9A6D0B4C8EB1B
:100280002025303258B4CE0A00000000436C6F7352
:10029000650A0000F3B57D4C06460025204681B076
:1002A00008307B4F00907B493046097888400099A0
:1002B00002F0EBFE80202073774800210078607305
:1002C0000A20A0732820E073744821740068020E8D
:1002D0006274020CA274020AE27420756175A17541
:1002E000E6752176029801F0FAFC3878002807D0EC
:1002F000284601F05CFE38703878002801D0387844
:10030000FEBD6D1CEDB2032DCDD31F203870FEBD98
:10031000F3B55E4C06460025204681B008305C4FA0
:1003200000905C49304609788840009902F0ADFEA3
:10033000002159482173007860730A20A0732A2095
:10034000E073564821740068020E6274020CA274B5
:10035000020AE27420756175A175E675217602982E
:1003600001F0BDFC3878002808D0284601F01FFEB7
:1003700038703878002806D03878FEBDC82000F0E4
:10038000DBFC0020FEBD6D1CEDB2032DC9D31F2088
:100390003870FEBDF8B5424EF0784006400EF07061
:1003A000F07802273F4D02280CD0F078032809D0BE
:1003B000F078102802D9F078142814D9F078202881
:1003C0000ED809E0F0787078C0073FD1F0787079E6
:1003D000C00701D02F7039E0012028701620F8BD29
:1003E000F0782428F8D8F0787078C007F07832D008
:1003F000264C2034E077F0780009401CF070E07F54
:100400000007000F01F048F821490870087800281B
:1004100007D0E07FF07008781628DDD02F700878BC
:10042000F8BD1A488078C00707D001202870E07F07
:1004300010210007000F01F060F8E07FF070134812
:100440000078C00704D028780228C3D30020F8BD64
:100450002F708420F8BD7079C007BBD101202870AF
:10046000F8BD704710B502F043F9102801D2FF2003
:1004700010BD0C4900200870064A092111700121A5
:10048000094A490211800949086010BDD8020020BC
:100490002C020020300200203102002060020020E7
:1004A000008000402D0200203E0200204402002077
:1004B00010B5FF4857210170A8210170FC4A88211E
:1004C000403A1181002101700A2000F035FC012022
:1004D00001F071F910BDF0B5F54EF54D0427572226
:1004E000A824203E403DF249030002F05FFE0D08C3
:1004F0000E161B1F24282C32373C41462F000A7051
:100500000C70F07BFB22104003E00A700C70F07B53
:100510003843F073C820288118E00A700C7051200D
:10052000C000F8E70A700C70E248F4E70A700C703B
:1005300081208000EFE70A700C708820EBE70A70DA
:100540000C700220E7E70A700C702F810020087001
:10055000F0BD0A700C7093208000DCE70A700C700C
:10056000D4484D30D7E70A700C7095208000D2E750
:100570000A700C704B20C000CDE70A700C70CD489B
:100580005C30C8E7CA4810B540380089C1B20B06D4
:100590009A0FC948022A05D0012A04D09A0F06D022
:1005A0007D20000210BDC906C90EC44801E0C9067D
:1005B000C90E02F02DFD10BDBD4A57211170A821B2
:1005C0001170BB4940394B150028088904D01843E5
:1005D00008810020107070479843F9E7B44A57210A
:1005E0001170A8211170B24920390028C87B05D0AC
:1005F00004231843C873002010707047FB23184071
:10060000F8E7AB498A7B800792089200800F02438B
:1006100057200870A82008708A730020087070475F
:10062000A3498A7B8F231A40000102435720087098
:10063000A82008708A730020087070479C4A203AEE
:10064000917B800789088900800F014398485723D0
:100650000370A82303709173002101707047944ABE
:10066000203A917B0907090F000101439048572365
:100670000370A82303709173002101707047FEB5C9
:100680008B48002740380089C0B201068A0F022A31
:100690004CD00124A403012A4CD0890F56D0052444
:1006A000002000902005000D0190814820388489A9
:1006B00000267F49572230460A70A8220A7001237B
:1006C0008B747B4957220A70A8220A70784A203A14
:1006D000948100220A708A7C9207FCD50A8A8A7C5F
:1006E0009207FCD48A7C9207FCD5098A019A7F1C68
:1006F000891A0DB2FFB2002D37D02946714305D5B6
:10070000012834D0411C32D0002830D02E4602942B
:100710003046009902F092FC00B2211A8CB2029984
:100720008C4249D1002D45DD641C44E00220644C1C
:10073000C043B6E7C506ED0E2946624802F068FCE4
:100740000019C40B2320C043401B09E0C506ED0E71
:1007500029465D4802F05CFC0019C40BA81C40420D
:10076000294602F06BFC00B29BE70020FEBD002E84
:1007700003DA761EF04306B202E06D1EE84305B2CE
:10078000B5420FDD4A4857210170A8210170484A3F
:100790000299203A9181002101707D20C0007043B0
:1007A000019903E07D20C0006843114602F046FC39
:1007B00080B2FEBD641EA4B2142F82D3FF20FEBD02
:1007C000FFB581B00C460746054600261AE0FF211A
:1007D0009131681E02F032FC00290AD06421681EA3
:1007E00002F02CFC002907D00320A9078007C14292
:1007F00002D1FF206F3001E0FF206E3080196D1EA6
:1008000086B2ADB231488542E1D80025012C25D908
:10081000032C05D0A01E062816DDE00718D115E030
:10082000FF219131384602F0F3FB00290AD0642100
:10083000384602F0EDFB002901D0B80702D00020B5
:100840001C3006E00120FBE7E00701D01F2000E09C
:100850001E208019641E86B2A4B2D7E7039818211F
:100860003018401E84B2049802F0D2FBE120C00090
:1008700041430A981E22504309180B984008081853
:1008800081B20B98C00701D00120C0030A040243C3
:10089000074957200870A8200870054E403E746331
:1008A00003482038437C80242343437472630FE061
:1008B00040100040020200000048E80100389C1C83
:1008C0001313000000180D8F00688909E407000069
:1008D000427C40231A4342740D7005B0F0BDFFB551
:1008E0000746934883B0C06B0E4684049048A40C1E
:1008F0002030418B008B01224900D203904201D36A
:10090000012000E00020081800908A48388010E09C
:100910000199002925D06421284602F079FB00299D
:1009200001D0A8071DD0FF206E30201A6D1C84B2A4
:100930003D803D88FF219131284602F069FB0191FD
:10094000002911D06421284602F062FB002901D061
:10095000A80709D0FF206E30A042D9D900203080EE
:1009600049E0FF206F30E0E7FF206F30F4E7358883
:10097000012D04D0062D18D9E8071AD117E03888C0
:10098000FF219131019002F043FB00290BD064213B
:10099000019802F03DFB002902D00198800702D0A7
:1009A00000201C3006E00120FBE7E80701D01F20F3
:1009B00000E01E20201A84B26D1CA8B230800128ED
:1009C00004D0062817D9C0071AD117E03888FF21AC
:1009D0000546913102F01CFB00290AD0642128460B
:1009E00002F016FB002901D0A80702D000201C301D
:1009F00007E00120FBE73078C00701D01F2000E0AE
:100A00001E20A042B3D93088641C401C3080059859
:100A1000E12104800901009802F0FAFA069A108098
:100A200008463C2102F0F4FA0C9908803C21009819
:100A300002F0EEFA0D98018007B0F0BD3C49572254
:100A400040310A70A8220A70394A50633848203071
:100A5000427C40231A434274002008707047344996
:100A6000886B8A6B8242FBD17047314A10B557219F
:100A700040321170A82111702D4920314B7CE8249F
:100A800023404B744B7C1024204303434B740020C1
:100A9000107010BD00B50346FFF7E1FF2649C018EE
:100AA000884201D9494240180104090C02D00121B1
:100AB000090440181E49572240310A70A8220A70C2
:100AC0001B4A50631A482030427C20231A43427448
:100AD0000020087000BD0021002802D0012802D0AB
:100AE00002E0202100E0102111485722403002701E
:100AF000A82202700E4A2032537C8B43537400218B
:100B0000017070470A4920310028087C02D040213A
:100B100008407047C009C0017047054920310028CE
:100B200004D0012801D11020087470472020FBE771
:100B300000100040E40700000000C0A800B5524AC1
:100B40000B0002F033FB0504071016191F00516B50
:100B500081430AE0516B81435163116B014311637F
:100B6000116A81430DE0516B01435163116B814365
:100B7000F5E7516B814301E0516B01435163116A09
:100B80000143116200BD404A00B540320B0002F043
:100B90000DFB0504071016191F00516981430AE077
:100BA00051698143516111690143116111688143A8
:100BB0000DE051690143516111698143F5E75169C4
:100BC000814301E0516901435161116801431160A2
:100BD00000BD2D4A002906D0012907D0022908D0DE
:100BE000032913D10CE0918A814304E0918A814367
:100BF00008E0918A01439182D16A0143D16205E004
:100C0000918A01439182916A014391629083118A92
:100C10000143118270471C4B1B4A4033002906D008
:100C2000012907D0022908D0032913D10CE0D18A69
:100C3000814304E0D18A814308E0D18A0143D18213
:100C4000D9680143D96005E0D18A0143D18299680E
:100C500001439960D083518A0143518270470A4A07
:100C6000803A0028108B01D0084300E088431083AD
:100C70007047054A803A0028508B01D0084300E0B5
:100C80008843508370470000801000403C4906288C
:100C900005D0497901228240114008467047087802
:100CA000082108407047364857210170A82101707B
:100CB000817901221143817100210170704731490E
:100CC0000968016000202F49C043803108607047E7
:100CD0002C49086070472C48806970472849572282
:100CE0000A70A8220A700028887905D004221043CF
:100CF0008871002008707047FB221040F8E72049F7
:100D000057220A70A8220A700028887905D002228A
:100D100010438871002008707047FD221040F8E7EA
:100D2000174857210170A8210170817910221143C1
:100D3000817100210170704700220AE0022101E068
:100D400000BF00BF0B46491E89B2002BF8D1521CD0
:100D500092B28242F2D3704770B500247D260546D8
:100D6000F60004E03046FFF7E7FF641CA4B2AC4293
:100D7000F8D370BD0549CA7A082AFCD008727047BA
:100D80004010004000E100E000E000E000340040DE
:100D9000F948002101704170704710B5F74A0020F2
:100DA0005179F54BCC07197812D0002902D051782F
:100DB000C9070CD1FFF7ECFF50798007C017401C22
:100DC000987001201870EEA002F0CCF9152010BD2B
:100DD0000029FCD0FFF7DCFFECA002F0C3F91620DD
:100DE00010BDE649CA784006D209D201400E02433E
:100DF000CA707047E1490028087809D0BF22104026
:100E00000870DE48203081794906490E81717047AB
:100E1000402210430870704710B5E0490820087060
:100E20000020FFF7DEFFD54C60784008400060707E
:100E30000120FFF7DFFF6078FB2108400221084313
:100E400060700F20FFF788FF6078FD210840607018
:100E5000FA20FFF771FF0120A07110BDC64A0123DF
:100E60001078002800D11370C4494879C00711D008
:100E70004878C00709D148798007C017401C907096
:100E800003D14878042210434870487818434870CA
:100E9000002070471620704719204001B74903E031
:100EA000401E0004000C02D08A799207F8D5887998
:100EB000800701D500207047FE207047F8B5064630
:100EC000AE481546203081738172AC4F0024AB4987
:100ED00020310E720220B8711920400103E0401E3B
:100EE0000004000C02D0BA799207F8D500200872ED
:100EF000B87980072ED5B879C00711D00120B87114
:100F0000FFF74BFF152802D1A449012048709A48E9
:100F1000007800280CD001280CD0C820FFF70CFF67
:100F2000B87980072ED5F879400605D50020F8BDA0
:100F30001620F8BD1520F8BDF8790007000F0E281F
:100F40000AD00A280AD03109012911D0092914D060
:100F50000D290DD0FE20F8BD2E20F8BD002D05D0A6
:100F6000681C00D06D1E641EE4B20DE02A20F8BD9E
:100F7000002809D020210843F8BD032804D00B28FD
:100F800002D0F5E7FF20B8710F20FFF7D5FE641CF3
:100F9000E4B2032C9BD32020F8BDF8B505460E46DD
:100FA000C820FFF7C9FE002E01D000203070734C1E
:100FB0000820203420737A4A0021D020FFF77EFFDA
:100FC000002878D1D02021468873887201200873C8
:100FD00072498868C279837914021C4361D0002D5C
:100FE0005FD00078000634D5C820FFF7A5FE63481F
:100FF0002030817A6A4A9020FFF760FF00286AD18A
:101000005E4A107AA04201D2107A00E02046C1B2B6
:10101000601A84B2002E02D0307840183070002060
:101020005E4B05E05F683F5C401C2F70C0B26D1CDA
:101030008842F7D1107A002806D0107A1978491E14
:10104000084201D1002CCFD14C4900202031087337
:1010500027E04A4F2037C820FFF76EFE4F49087837
:10106000844200D220463873002005E08B682A783D
:101070001A54401CC0B26D1C3A7B8242F6D1B97B37
:10108000474A1020FFF71AFF002824D1387B201A86
:1010900084B2002E03D03078397B40183070002C99
:1010A000D9D1C820FFF748FE344C2034207B0028DB
:1010B00002D0902001E00EE01020394AC021FFF755
:1010C000FDFE002807D1207B002804D02B48007AA1
:1010D000002800D01720F8BD304A0021926803781C
:1010E0005354491CC9B2401C0829F8D1704738B57F
:1010F0002A4C082020702B48FFF7EEFF69462A484B
:10110000FFF74BFF002809D127486946C0792070B6
:1011100024480978C088884201D9172038BD0020AA
:1011200038BD204808B50830FFF7D6FF69461E488D
:10113000FFF733FF002807D11A4869460830C088F6
:101140000978884201D9172008BD1748C1788278EC
:10115000080210436946087012480830FFF7BCFFC8
:10116000694608780D4989688871000AC87169461E
:101170000D48FFF712FF08BD9C03002000800040CF
:101180005553422064657620696E0A00555342200B
:10119000646576206F75740A00000000200200204C
:1011A0001027000064360000AC03002010B5044690
:1011B0003148FFF791FF3148210A80688470C1707F
:1011C00000210846FFF7E9FE002806D12046FFF778
:1011D00008FE0A20FFF7C0FD002010BD10B5044630
:1011E00025480830FFF778FF2448210A806884707A
:1011F000C17000210846FFF7D0FE10BD10B50446AF
:101200001D481830FFF768FF1C48210A80680471E8
:10121000417100210846FFF7C0FE10BD10B504461D
:1012200015481030FFF758FF1448210A8068847071
:10123000C17000210846FFF7B0FE10BD10B5104A7E
:101240008020107000235370D370482050730B4CD3
:10125000A08810832089908309482030837283738B
:101260008921117040218171FF209071FFF790FD5D
:1012700003209070637010BD7436000020020020BF
:101280000080004008B5A748FFF726FF6946A6483A
:10129000FFF783FE002806D1A2486946C088097876
:1012A000884201D9172008BD002008BDF8B59FA0CD
:1012B00001F058FFFFF7B0FD00273C460120FFF783
:1012C0004BFDFFF7CBFD002804D1641C0027E4B2DE
:1012D000642C0CD87F1CFFB2642FEFD3002F06D0F4
:1012E000FFF756FD96A001F03DFF1620F8BD9F4E7A
:1012F000B078FFF77FFD9EA001F034FFFFF7F7FE07
:1013000004002DD1884D9E4C05E0E95D9DA001F0C3
:1013100029FF7F1CFFB2E079A17900020843B8429F
:10132000F3D89AA001F01EFF2889B0806889F08068
:101330002879974F0090F878B97800020843C0B236
:10134000FFF734FF040076D1F878B978000208433B
:10135000707090A001F006FFFFF7E3FE040006D0D6
:1013600069E0295D87A001F0FDFE641CE4B2688895
:10137000A042F6D885A001F0F5FE6B4800994579AA
:10138000807B0327002902D009293CD04EE00828A1
:1013900004D007280CD003281AD047E02846FFF7CE
:1013A0001DFF040047D137700820F0707DA00CE0CD
:1013B0005D48C07B012839D12846FFF70FFF0400A4
:1013C00039D137700720F0707AA001F0CBFE40E0F1
:1013D0005548C17B012929D8007C00902846FFF799
:1013E000FDFE040027D137700098012803D00228A1
:1013F00005D0FB241FE02320F07073A0E5E7332025
:10140000F07076A0E1E7FFF73DFF040013D14648F6
:10141000817877A001F0A6FE2846FFF7DFFE0400E2
:1014200009D137700920F07075A0CEE72846FFF784
:10143000D5FE04000AD0214675A001F093FE0220DB
:1014400030700120FFF7D6FC2046F8BD3770FF2032
:10145000F0700120FFF7CEFC0020F8BD38B504463F
:1014600030481038FFF738FE6F4D210A28680471A4
:10147000417169462C48FFF790FD00280BD129489F
:101480000838FFF729FE2868210A0471417169466E
:101490002548FFF782FD38BD08B56349A3220968D6
:1014A0000A7000224A708A70CA700871000A487176
:1014B00004208871CA7169461B48FFF76EFD002839
:1014C00004D168460078042801D2172008BD002006
:1014D00008BD10B5544A23231268137003235370B8
:1014E0009170090AD1701071000A5071002090713A
:1014F000D0710146FFF751FD10BD10B54A4A2323B4
:1015000012681370012353709170090AD170107121
:10151000000A507100209071D0710146FFF73DFD27
:1015200010BD0000A4360000AC03002052657365B6
:101530007420686F737420706F72740A000000006A
:1015400044697361626C6520686F737420706F7298
:10155000742062656361757365206F6620646973CA
:10156000636F6E6E6563740A000000009C030020C8
:1015700047657444657644657363723A20000000E1
:101580006436000078253032582000000A00000040
:101590007436000047657443666744657363723A46
:1015A000200000005553422D4469736B2052656141
:1015B00064790A005553422D5072696E7420526549
:1015C0006164790A000000005553422D4B65796231
:1015D0006F6172642052656164790A005553422D2F
:1015E0004D6F7573652052656164790A00000000D3
:1015F0004D617820506F72743A25303258200000C7
:101600005553422D4855422052656164790A0000C5
:10161000496E6974526F6F7444657620457272200A
:101620003D20253032580A002802002010B504461B
:10163000FEF7A8FF0A214843C008214601F0E8FC54
:101640000A21401D01F0E4FC2249888110BD10B53B
:10165000E1204002FFF7EAFF1E4887218170032145
:10166000C170402141700121817310BD19498A78F0
:101670009206920E800102438A707047154A002834
:10168000507806D008435070107808210843107035
:1016900070478843507070470E49802048707047EB
:1016A0000C4A07E0D37A082B04D003781372491E42
:1016B00089B2401C0029F5D1704701460020054A37
:1016C00004E0137A401C0B7080B2491C937A002B03
:1016D000F7D1704700340040F8B5624D5726614C91
:1016E000A827203D00282670277028880ED02115B5
:1016F000084328800A20FFF71FFB267027702888E0
:1017000061150843288000202070F8BD032149029C
:101710008843F7E7F0B5534C57261C228B07514DF1
:10172000A8270A409B0F403C00282E702F7010D035
:10173000080603D5E07BFD210840E073A07A104342
:10174000A07248482038C17B1943C173002028701B
:10175000F0BD080603D5E07B02210843E073A07AC0
:101760009043A0723F482038C17B9943EDE730B5E4
:101770003C4C57233B4AA825403C00281370157069
:10178000E06804D08843E0600020107030BD08435A
:10179000F9E730B5334C5723324AA825403C00289E
:1017A00013701570A07B04D00843A0730020107044
:1017B00030BD8843F9E7F8B52A4D5726294C00215A
:1017C000A827203D0028267027700ED001206871C0
:1017D0002871002020700120FFF7AEFA26702770D4
:1017E0000D20287100202070F8BD29712170F8BDEE
:1017F0001D48016904229143016130BF7047194BB4
:1018000057241C70A8251D7016494039887B082272
:10181000104388730920134E0003203E30800027B8
:101820001F70886B8A6B8242FBD1104A0A3090424B
:1018300001D9524280180204120C02D00122120473
:101840008018302232741C701D7048632F20707411
:101850001F701C701D70052008811F7040BF20BFC5
:1018600020BFFEE74010004000ED00E00000C0A8EF
:101870000448804704480047FEE7FEE7FEE7FEE72E
:10188000FEE70000B1040000910000000020F949CB
:10189000C0430864486400208873704710B5F54C55
:1018A000616C606B88420FD06064A26BE16B914207
:1018B00000D120640120FEF7EDFC2070002801D04B
:1018C000FFF7E4FF207810BD002010BD10B5E94CF3
:1018D000216C606B88420FD02064E26BA16B914257
:1018E00000D160640120FEF7D5FC2070002801D0F3
:1018F000FFF7CCFF207810BD002010BD10B5DD4CE7
:10190000606B6064A26BE16B914200D120640120A6
:10191000FEF7FEFC2070002801D0FFF7B7FF20780B
:1019200010BD10B5D34C606B2064E26BA16B91428B
:1019300000D160640120FEF7EBFC2070002801D08C
:10194000FFF7A4FF207810BD10B5CA4C606C60632F
:10195000FFF7D4FF002814D1A06C002812D0616BCF
:10196000081860630120E16BFEF7D2FC2070A16CC7
:10197000606B401A60632078002803D0FFF786FF71
:10198000207810BD0020A07310BDF8B5B94E0446F4
:10199000B1783046806D022957D0032957D00025F1
:1019A000C10700D0012541080818718AF26B491E51
:1019B0000140891871663179C840F16C4018B065F2
:1019C000716C88420CD0B07B002803D0FFF7BCFFBD
:1019D00000286ED1B06D7063FFF760FF002868D1FA
:1019E00000210127002C06D0042C32D0012C33D04A
:1019F000706DB065B77371733046B1789D4E6036C7
:101A000002292BD003293BD09A48406E0178B1704F
:101A10000A079849120F896D0B071B0E1A43327083
:101A200094460A097270934AD36B528A9A18521ECE
:101A3000824248D04278F270002C6DD0002D39D00F
:101A4000614601707178417068E04000ADE7800048
:101A5000ABE70020C043CCE7B165CBE7416E864DD4
:101A60000A8832603388AB4200D34773002C02D01F
:101A7000806D088065E0417B002962D1426560E0AD
:101A8000426E836D11681B010D0F1B092D072B433F
:101A900009010909794D83653160A94200D3477373
:101AA000002C01D013604CE0427B002A49D14165F3
:101AB00047E047E00170F1787278090909011209DD
:101AC000114341702DE0002C05D0002D01D061465E
:101AD00000E0C9B201706748807B204303D0FFF764
:101AE00033FF00282ED16348416C491C4163FFF746
:101AF000D5FE002826D15F4A002CD16B0878F07003
:101B00000AD0002D01D0707804E00009737800013C
:101B10001B09184308709773002D02D070880009C4
:101B200002E070880005000D7080554980B288423F
:101B300001D350494F734F4930604A7B144300D161
:101B400048650020F8BD70B54A4D2E4660366C6D74
:101B5000286D844254D8641C0020AC65FFF715FF43
:101B60006C6500284DD1306800284FD0FF212A6DC8
:101B7000204608430A439042E9D0A8780128E6D0DD
:101B8000E96B69660228688A11D08008401E81B21C
:101B900031807180686E001D6866006800011FD08A
:101BA0003088401E0004000C3080F3D110E0400863
:101BB000401E81B231807180686E801C686600882A
:101BC000002808D03088401E0004000C3080F3D17B
:101BD00021436965BBE70020696EC043088005E0CA
:101BE000686E264A01680832114301607088696D89
:101BF00008433188401A401C6865296D884201D924
:101C0000B12070BD0120A873002070BD0420AC6518
:101C1000FFF7BBFE70BD10B5FFF795FFB12804D1EB
:101C2000144900204865FFF78EFF10BD10B5114B19
:101C30005A78824201D30A4659708A4201D1002063
:101C400010BD01205870FEF7A5FB0028F8D18320B5
:101C500010BD08490878162803D0152806D00020A2
:101C6000704701224A7000228A61704702224A703E
:101C7000704700002C020020F7FF0000F7FFFF0F65
:101C8000F70F000010B50220FFF766F8FB4C207834
:101C9000A072FEF77FFB002803D16078042801D2F0
:101CA000832010BDF6A0FFF717FAF749607A087194
:101CB00000210846FFF771F920701628F1D0207B2B
:101CC0000007000FFFF79AFAE07A0007000F803054
:101CD000FFF794FAA07A20700021A17210BDF8B528
:101CE0000446E949E94801F0D0F9E9491F200873A1
:101CF000E24D01225204A97A287BFFF7DFF8287011
:101D0000162870D000281AD0DF480021026802622D
:101D1000491C001DC9B20829F8D1FFF7B3FFDA4802
:101D20000021026A491C04C0C9B20829F9D18A03FA
:101D3000A97A287BFFF7C2F8287000287ED1CF4807
:101D40004021827A4A408272CF48083001F093F9EC
:101D500000283FD085B2CC48CB49007B8EB200062C
:101D600000287FDACB48012786B22FE0402D03D32D
:101D7000C7482038048303E0C5480027203806837D
:101D8000BE480122817A5204C07AFFF797F8BB4916
:101D9000087000280CD0BE4920390E832E2822D18D
:101DA000B648C07A0007000F8030FFF727FA0FE02F
:101DB000B2488022817A51408172B748002F0AD000
:101DC000007A402804D1403DADB24034002DCDD141
:101DD000B14806834AE0017AE8B2884200D2E9B20B
:101DE0000020AC4A05E05DE0135C2370641C401CDD
:101DF000C0B28842F8D1EBE7A748402D07D38483CF
:101E0000403D4034A2484021ADB201730EE08683CC
:101E10009F48EAB2027300209B4904E02378641CC7
:101E20000B54401CC0B28242F8D10025934F0122CE
:101E30005204B97A387BFFF741F801E030E011E055
:101E4000387000280AD094498E832E282AD138462B
:101E5000007B0007000FFFF7D1F905E0B87A4021B9
:101E60004840B872002DC7D18B488683834C01222D
:101E70005204A17AE07AFFF721F82070002811D1EE
:101E8000A07A80214840A0721F2020708248007AEA
:101E90000D280BD17F48007B002804D0022805D3F1
:101EA000FFF7F0FEF8BD00202070F8BD2078F8BDE7
:101EB00070B50C46744905460831204601F0E5F836
:101EC000002C01D0802300E000236F4A6B4813737D
:101ED0004079507306209073D573002313745374A4
:101EE0009374D474137553759375D375137670BD4D
:101EF00010B50A20FEF730FF12210320FFF7D8FFAC
:101F000061482030FFF7EBFE0520FEF725FF5B4818
:101F10000078002801D0FFF79CFE10BDF8B5574DA2
:101F2000092028712C460F206034574E20700A2754
:101F300030462030009008212520FFF7B9FFB77305
:101F40000020F0740098FFF7CAFE287800280FD010
:101F5000162826D0152824D0132822D06070FFF729
:101F6000C7FF607828702078000711D5402010E066
:101F700000988079042804D0082804D0102804D0C0
:101F80000FE02F710DE00B2000E00C20287108E01D
:101F9000C820FEF7E1FE2078401E0006000E2070EB
:101FA000C9D129790120884068826078F8BD012173
:101FB00010B54903384B0A465C79A40903D1521E77
:101FC0001204120CF8D10A465C79A40903D0521EFF
:101FD0001204120CF8D15A79920903D1491E09044E
:101FE000090CF8D1254A022806D35178122914D0B9
:101FF000102901D9102151701178002807D0162915
:1020000005D0152903D0FFF773FF002804D0022064
:10201000FEF7A2FEFFF71DFE10BD0521EBE7F8B5A8
:10202000FEF7B8F9002804D1144D6878042801D2CD
:102030008320F8BD04206870FFF773F8287000282B
:10204000F7D1114EB07B082831D10020A871F17B67
:10205000062901D10121A971084CF17A0020697289
:1020600060342070707FF77E8446B07D317D864677
:102070002278002A12D0384611E000002C020020FD
:1020800021FF000000000000D80200205553424309
:1020900020800040980200200080004008466070C8
:1020A000002A01D0634600E07346402B02D01F2077
:1020B000287026E0030604D50007000F9030E87270
:1020C00003E00007000F10302873521CD0B22070BC
:1020D0000228CDD17079FFF781F828700028A8D1A7
:1020E00000272770F9A0FEF7F7FF687A3071611CAE
:1020F000A86BFEF752FF2870002804D028782E28FD
:1021000008D02878F8BD6178012906D1A96B097833
:10211000217002E00020FFF771F80520FEF71CFE99
:10212000FFF7B4FBAF726F71012624211220FFF775
:10213000BFFEA86BFFF7D3FD28780028207807D0D2
:10214000002815D06879032812D2401C6871ECE78A
:10215000002806D06879002803D1A86B00780528EC
:1021600004D005210420FFF761FDF8BD6E71DCE7A6
:102170006F710120FFF71BFFF8BDF8B5D54E7078E1
:10218000052805D2FFF74BFF002834D1FFF7C6FE24
:10219000FFF77CFBB069CF4DCF4A010900276435BA
:1021A000914203D10007000F687000E06F70C94CC6
:1021B0006034F7703772B7627763FFF787FB0028E8
:1021C00007D0FFF75FFDFFF7A9FEFFF77FFB0028B1
:1021D00011D16878002805D1B06BFD210078084046
:1021E000E92809D0B06B0246FF30E130C18BBB4813
:1021F000814203D09120F8BD706B29E0F07843E074
:102200001146FF31C73141180B7823704B7863704A
:102210008B78A370C978E170216871631146FF3132
:10222000C331415C217005291FD00F291DD00B0639
:1022300002D58906890E21700906090E23D00F29BF
:1022400021D2697801291CD8316C706B40187063F9
:10225000B061FFF73BFB0028CDD1B06BFD230178C7
:1022600032461940E92923D11CE0B16A706B40184D
:102270007063317A0029A0D1297810313172B062AF
:102280009BE7491E697010302870C0B24028B7D152
:10229000307A002802D0F278002A01D09220F8BDCE
:1022A000F07088E7FF21FF310B5A8C498B4201D037
:1022B000A120F8BD417BD1700723D3710A0609D450
:1022C000F2794906521E090E1206120EF271F5D16C
:1022D0000121F170C18AB164002901D1416AB16460
:1022E000027D411CC37C12021A43F26201D1026AD0
:1022F000F2624A7C097C12020A43718A4909491E2A
:1023000051183279521F1141F161C289F264B36CE4
:1023100051189C46CB182360017C8E46022913D0AD
:10232000B7642368716B59183162F16ACB1AF1797D
:10233000CB406B4933658B421BD299B2694BB78254
:10234000994205D2012104E0614659182160E8E76D
:102350000221B170002A15D0F169002912D071460E
:10236000012902D0B16C00290CD0C17A002909D111
:1023700005E0018EB182C16AF1610321E9E7007BCA
:10238000022807D26978002901D0A320F8BD0121D5
:1023900069700EE7716B5018F06410210520FFF78B
:1023A00045FCF8BDF8B54B4C6078102803D2FFF718
:1023B000E4FE00286FD110210846FFF737FC002803
:1023C00069D14949E0730878002864D05C2805D0B9
:1023D0002F2803D04A783A2A03D02BE04248401CE9
:1023E00003E0432826D34048C01CE065A0780328BA
:1023F00006D000216162E16D0978002902D01AE05F
:10240000E169F7E70021C943A16203280AD002204D
:102410006062E069C0B2E070216A091A2162217924
:102420008840A062606A60650020E062207212202D
:10243000607093E0E165274F6037606A002807D03D
:10244000E1782172E179801E8840216A401804E019
:10245000E069C0B22072216A081A2063BDE0206BD7
:102460006063FFF733FA002879D1AAE0A16B0A185C
:1024700062661078002873D0E52872D0052800D154
:10248000E520E36D1978814201D02A2969D1814282
:1024900002D1012001E062E00020B8702FE0BE7898
:1024A000155C995D8D4226D0002906D05C2904D0A8
:1024B0002F2902D02E2919D023E0202D21D1082840
:1024C00002D2117A20291CD10B201AE0A1FE0000B3
:1024D000000001002C0200206745230155AA0000DE
:1024E000F5FF0000F50F00007C030020082E01D04E
:1024F000202D06D10720401C761CC0B2BE700B28D0
:10250000CDD3B9780B28595CF97043D3D07A000742
:1025100040D400206073606E418B6162A278032A10
:1025200003D1828A12040A436262FA78002A02D036
:10253000627B002A28D0616A0022E2626165227211
:10254000C37ADB060ED5501EA06213211020FFF7C0
:102550006DFB002803D1607B002813D14120F8BD1A
:102560004CE02CE0C069A062002902D1FF2020725B
:10257000A26214211020FFF759FB0028EFD1607BE5
:102580000028ECD04320EAE7E16DBA78491C5118E5
:10259000E16552E72A2912D1D07A00070FD4FD480D
:1025A00040780009072801D01120D8E7A06A002848
:1025B00033D001DAFDF755FFA06A401EA062208AE1
:1025C00020302082618A80B2884200D24EE7206BA0
:1025D000401C2063207A401E2072207A002800D000
:1025E0003DE7606A2546002808D0A8650020FFF76F
:1025F000CCF90028B3D1687B002839D0E26D0021E6
:10260000505C491CC9B2002835D02A2833D05C2838
:1026100001D02F28F4D1B320A1E700203870616EDB
:10262000095C202919D0082806D13A78E56D2E21B9
:10263000A9543978491C3970616E3A78E56D095CA6
:10264000A95439783E46002904D11978052901D1C9
:10265000E52119703178491C3970401CC0B20B2833
:10266000DDD33A78E36D002199540121617352E77B
:1026700038686862E1E6422071E7C748416DC27977
:10268000891E9140026A8918027A8918416370474D
:1026900070B5C14DC14C6A6A002A16D029796068AC
:1026A000C840297A401A2168814201D3081A14E0EF
:1026B00008466A6512E0686DA8650020FFF765F9B5
:1026C000002814D1687B002804D0FF202872002045
:1026D000C0430AE0E9782068401A2060E97888421F
:1026E000E9D22872FFF7C9FF686B2060002070BD37
:1026F0001020704770B5A94D00202860FDF74AFEF4
:10270000002813D1A44C6078052813D2FFF787FC6A
:10271000002806D04020FEF71FFBFFF780FC0028B2
:1027200004D1FFF7FBFB002801D0207870BD9C4846
:10273000006A286000210846FFF7BAFB984820305D
:10274000FFF7CDFA20780028F0D02078924D603540
:102750002870FFF7CDFB2878207070BD10B5FFF70B
:10276000F2F98D4C002807D0B12820D100206065F7
:10277000FFF7E9F900281AD1FFF7E6F8002816D18B
:10278000606D6062206B6063FFF7A0F800280ED1D7
:10279000218AA06B401801216066C161616E606A88
:1027A0004883606A616E000C8882FFF7BAF810BD3A
:1027B00070B5794C784D60342060A88A00280FD01D
:1027C000A96940186863FFF781F8002808D1A86B51
:1027D0002268FF30C130816A89188162FFF7A1F851
:1027E00070BD10B56C4C0020E0736078142811D3D4
:1027F000206B6063FFF76AF800280AD1218AA06B7A
:1028000040186066C17AC90604D4A16AC161FFF7A5
:1028100088F810BD002010BD10B55F48417812291E
:1028200001D2B42010BD12290BD18178032908D020
:10283000C27901219140C170C169026AC9B2891887
:1028400001624178132911D9142903D15349097818
:1028500000290BD0C07B002803D0FFF7C2FF00285F
:10286000E0D110210846FFF7E1F910BD0021C17346
:10287000F7E770B5484C6078132803D2FFF792FD54
:10288000002831D110210846FFF7D0F900282BD1BC
:10289000206B6063FFF71AF8002825D1228AA16B0C
:1028A000E5208854FFF73DF800281DD13A4D606AB5
:1028B00060352860002817D0401E606200206065E7
:1028C0002868A0650120FFF760F800280CD1606D32
:1028D000401C6065607B0028F2D0FFF735F80028C7
:1028E00002D1606DFFF764FF70BDF8B5FFF75AFDC8
:1028F000294C0027FF4300252072002824D04228BD
:102900006DD1208A618A88426AD3606A002849D0E2
:10291000A0650020FFF739F8002860D1607B00280F
:102920005ED0606A6065FFF776F9002857D1606A6B
:10293000A0650220FFF729F8002850D1FFF704F81E
:1029400000284CD1A16B05E0FFF793FF1FE00D506D
:10295000001D80B2628A9042F9D12572FFF78DFE88
:102960002582606B0C4E2063E078603608E0FEF74D
:10297000D8FF002833D1606B401C60633078401E64
:1029800030700006000EF2D13846FFF711FF002824
:1029900025D125E0401000402C0200207C030020BF
:1029A000D8020020E0692072206B401E2063606323
:1029B000FEF78CFF002812D12582638AA26B04E007
:1029C000565CE52E0CD020312182218A9942F7D322
:1029D000207A401E0006000E2072E5D1B220BEE52E
:1029E000606A606585488078042801D01120B6E5CA
:1029F000FFF711F90028F2D1FEF7A6FF0028EED16B
:102A0000606D60623846FFF7D3FE0028E7D1206B87
:102A10006063FEF75BFF0028E1D1218AA06B4118BB
:102A20000020616601E00B2801D2202200E0002294
:102A30000A54401CC0B22028F5D3714808830120F5
:102A4000C8610020E26D1378002B0DD02E2B02D12F
:102A50000820521CE26512780A54E26D401C521C98
:102A6000C0B2E2650B28EDD3606A4883000C88820F
:102A7000FEF757FF0028B2D1606AA562E562606583
:102A8000257214211020FFF7D1F868E570B55D4D6F
:102A90000120E8736A8AE879A96A824054182A7981
:102AA000641E1218E86AD440D0402A46A865526ACB
:102AB000844201D9241A00E06A65002A02D0002964
:102AC00009D009E0002904D0FFF748FE002801D111
:102AD00002E0002070BD01244B4E686D3060686DCF
:102AE000A8657060641E0020FEF74FFF0028F1D13A
:102AF000687B00281BD0002C16D06042FFF758FEE0
:102B00000028E7D1686D7060FFF785F80028E1D1F3
:102B10007068A8650220FEF738FF0028DAD1641E2D
:102B2000F0D1306868651CE030686865D1E7002C3A
:102B3000D5D17068334E60363060A8650120FEF74D
:102B400024FF0028C6D1687B641C00280CD02046D6
:102B5000FFF72EFE0028BDD1686A68650020E86294
:102B60002872FEF7F1FE70BD3068E6E7F8B5254C37
:102B70006078132801D2B420F1E4206B6063FEF783
:102B8000A5FE0028F8D1228AA16B1F4D8918616625
:102B90002A7ACB7A2B72FF2A01D0CA720120194EF1
:102BA000E98860363180626E184FD38AEB80B94273
:102BB00001D0D1820120A9883180626EB942138B85
:102BC000AB8001D01183012029683160626ED36926
:102BD0002B604B1C04D0A1620020D161E07301E0A6
:102BE0000028C9D0FEF79DFEB9E40020064AFF2167
:102BF0001154401CC0B20D28FAD1B7E74010004074
:102C0000213000002C0200207C030020FFFF000088
:102C100010B5EE480078142801D0B42010BDEC485F
:102C2000EC49006808600021EB4A0028116001D0DF
:102C3000002000E0FF20E949087015211420FEF76C
:102C4000F5FF10BD10B5E1480078152803D0FFF757
:102C5000DFFF002812D1E04AE14B10685860196884
:102C6000E04811600068814201D8084600E0106029
:102C7000DD490978C8401860FFF70AFD10BDF8B5B6
:102C8000D2480078152803D0FFF7C2FF00287DD175
:102C9000D34DD24F28882881002028803878CE4E06
:102CA000FF2874D090E0CF4C3168206888426ED9FC
:102CB000FFF7E3FC012120680904884201D34C1E80
:102CC00000E084B22889A04200D20446C748326896
:102CD0000088411E0A4092B2844212D3002A10D1C9
:102CE000C1493B780978CC40C1490978C91AC9B2B1
:102CF0008C4200D90C462B886968C9188B0716D0FE
:102D00000446801A80B2844200D90446FEF7DEFDF4
:102D100000285ED1B548316800882A88401E0140ED
:102D2000B448006809186868821820461CE0E0B2C0
:102D3000FDF7B0FA00284CD13878AB490019C0B281
:102D40003870097832688C40A1B2521832602A89F2
:102D5000521A2A812A88511829801CE00B78137096
:102D6000491C521C401E80B20028F7D1306800195F
:102D700030602989091B29812988091929809B49E3
:102D80000988491E08421FD1387801E021E01FE080
:102D9000401CC0B2387096490978884214D38D48D7
:102DA0009549006808600020FEF7EFFD002810D16B
:102DB00092480078002805D0FF2038708948316893
:102DC000016005E0002038702889002800D06AE7FB
:102DD0000020F8BDF8B57D480078152803D0FFF72E
:102DE00017FF00280AD17E4E30883081002806D196
:102DF00083480078002802D0FFF7F3FCF8BD0020DC
:102E00003080754F754DD3E02878FF2831D1704858
:102E10000068002848D06D480078122805D179480C
:102E20000078032801D0B120F8BD6A4800683860F6
:102E3000FEF7F1FE0028F7D16F48396801600220E3
:102E4000FEF7A3FD0028EFD16F48016869480068CC
:102E5000814203D1FEF778FD0028E5D10020C04370
:102E6000FFF7A6FC0028DFD15E480068386000202C
:102E70002870FFF702FC5D48396802888C46501EB6
:102E8000014088B25A492B780978CB1A56490978FB
:102E90008E468B4031891C1AA14200D20C469442C6
:102EA0000BD3002803D008E0FFF758FCD4E73388A1
:102EB0007168C9188B0708D01446111A89B28C4260
:102EC00000D90C46002828D123E07046C440E0B267
:102ED000FDF71EFA0028A7D12878424B0019C1B28D
:102EE0004148297000788440386800193860328978
:102EF000121B32813288121932801A68824203D240
:102F000018603F48012202703948007881424FD34F
:102F10003FE034480068604503D9FEF7D7FC00283D
:102F200082D13249386809883288491E08403149BF
:102F30000968411870688218A0B205E013780B7018
:102F4000521C491C401E80B20028F7D13868001975
:102F500038603089001B3081308800193080FEF7DE
:102F6000E0FC0028B7D11F4A38681168814203D2BB
:102F70001060234901220A701C490988491E084231
:102F800016D128781A49401CC0B2287009788842A6
:102F90000ED310480168184801600020FEF7F5FCC8
:102FA000002898D115480078002800D0FF2028700C
:102FB0003089002800D027E714480078002803D083
:102FC000FEF7C2FC002886D10020F8BD2D020020AB
:102FD000500200208002002058020020340200200D
:102FE0007C03002054020020300200203E0200201A
:102FF0002F020020640200208402002039020020F9
:103000003B0200202E020020680200203A0200202D
:1030100030B50B46014600202022012409E00D4670
:10302000D5409D4205D31D469540491B25469540F8
:1030300040191546521E002DF1DC30BD70B500243C
:103040002546002801DA01244042002901DA012541
:103050004942FFF7DDFFAC4200D04042002C00D0D7
:10306000494270BD03460A780270401C491C002A80
:10307000F9D1184670470321001D401E0378120243
:103080001A43491EF9D510467047034603220870BB
:10309000000A491C521EFAD518467047F0B51FB4F5
:1030A0000646002082B005464024019100901BE0B6
:1030B000019922460F46304600F042F8049A059BDB
:1030C000801A994110D310461946224600F028F87C
:1030D000361A8F410197224601200021009F00F0FF
:1030E0001FF838184D4100902046641E0028DFDC90
:1030F000019B00982946324607B0F0BD064C0125D9
:10310000064E05E0E36807CC2B430C3C984710348F
:10311000B442F7D3FCF7C0FFF036000020370000C0
:1031200010B5202A04DB0146203A9140002010BD52
:10313000914020239C1A0346E3401943904010BD60
:1031400010B5202A04DB0846203AD040002110BDEB
:103150000B46D340D0402024A21A91400843194680
:1031600010BD00000FB410B503A9044B044A029827
:1031700000F038F810BC08BC04B01847750D00000A
:10318000940200200FB410B504A9074B02AA0398BB
:1031900000F028F8044602A9002000F05DFA20465D
:1031A00010BC08BC04B018475936000030B474464F
:1031B000641E2578641CAB4200D21D46635D5B0033
:1031C000E31830BC184702E008C8121F08C1002AE3
:1031D000FAD170477047002001E001C1121F002A98
:1031E000FBD17047FFB591B00F460546002606E0BB
:1031F00025280AD0149A139990476D1C761C2878BC
:103200000028F5D1304615B0F0BD0024009401210E
:10321000F34A029400E004436D1C2B780846203BDF
:1032200098401042F7D128782A280ED00221287819
:103230000246303A092A15D8009A0A235A43303AEE
:1032400080180C436D1C0090F1E701CF009000281E
:1032500005DA012040030443009840420090022018
:1032600004436D1C28782E2815D104200443687867
:103270006D1C2A280AD101CF6D1C02900BE0029927
:103280000A225143303940186D1C029028780146BB
:1032900030390929F3D928786C2810D006DC4C285D
:1032A0001AD068280ED06A2817D104E0742813D0E9
:1032B0007A2812D110E00120400504430CE00121DE
:1032C000090501E0032109050C436978814203D116
:1032D0000120000524186D1C6D1C287803906E28B1
:1032E0001ED00CDC632831D004DC00288AD058289A
:1032F00011D1B2E064287BD069280CD178E0732822
:103300002DD004DC6F2870D0702804D1A7E0752878
:103310006CD078286BD0149A13999047761C62E091
:103320006002400F022807D003280AD0042838681A
:103330000AD006603F1D56E03868F117066041600C
:10334000F8E738680680F5E70670F3E738786946ED
:1033500008740020487404A80390012003E0386832
:1033600003900020C0433F1D61070FD5002101E0FD
:103370000199491C029A0191914213DA8142F7DBCB
:10338000019A0399895C0029F2D10BE0002101E048
:103390000199491C01918142FADB019A0399895CE8
:1033A0000029F5D101990098139A401A00902146FE
:1033B000149B00F03BF901998019461807E0039827
:1033C00003990078491C0391149A13999047019826
:1033D000401E0190401CF2D12146149B139A009884
:1033E00000F014F986196D1C09E741E033E034E080
:1033F0000A200021049005916002410F022905D0A6
:1034000001CFC2179446032905D007E0FF1DFF082E
:10341000FF0003CF06E000B2C2179446042902D190
:1034200040B2C1178C4600226146944506DA0A462E
:103430000021404291418C462D2102E0210504D516
:103440002B216A461176012103E0E10701D02021FA
:10345000F7E7019154E00A200BE0102009E010206A
:10346000049000210420044308200591029003E009
:1034700008200021059104906002410F022905D027
:1034800001CF00229446032906D006E0FF1DFF0865
:10349000FF0003CF8C4603E080B2042900D1C0B204
:1034A0000021019121072BD50399702906D0049A98
:1034B0001021059B4A401A4305D00EE040216A4680
:1034C0001176012108E06146014306D030216A46A9
:1034D00011760399517602210191049A0821059BE6
:1034E0004A401A430CD16146014301D1610707D517
:1034F00030216A461176012101910299491E0291FB
:103500000399582904D037A103910FA90F910DE019
:1035100039A1F9E76146059B049AFFF7BFFD039BBC
:103520008C469B5C0F9A521E0F92137061460143AA
:10353000F0D10F9807A9081A20300390600704D52E
:10354000012000048443029801E0012002900399C5
:10355000884201DD401A00E00020411802900198E5
:1035600009180098401A0090E00306D42146149BE5
:10357000139A009800F05AF886190020049008E089
:1035800006A9085C149A139990470498401C761C6D
:10359000049001998842F3DBE0030CD52146149B8B
:1035A000139A009800F042F8861904E0149A30202B
:1035B00013999047761C0299481E02900029F5DC69
:1035C00008E00F980F990078491C0F91149A1399ED
:1035D0009047761C0399481E03900029F1DCFBE616
:1035E00009280100303132333435363738396162D9
:1035F000636465660000000030313233343536379D
:10360000383941424344454600000000F8B50446BD
:1036100000251E461746880404D405E039462020BC
:10362000B0476D1C641EF9D52846F8BDFFB50446A9
:10363000002581B01E46C80301D5302700E02027B1
:10364000880404D505E038460399B0476D1C641E14
:10365000F9D5284605B0F0BD0A68531C0B60107000
:103660007047000080060001000012008006000282
:103670000000040000050200000000000009000036
:1036800000000000010B000000000000020100002B
:1036900000000000210A0000000000008106002256
:1036A00000004100A0060029000009004E6F74656B
:1036B0003A200D0AD5E2B8F6B3CCD0F2CAC7D2D4BC
:1036C000D7D6BDDACEAAB5A5CEBBBDF8D0D055C5EC
:1036D000CCCEC4BCFEB6C1D0B42C353739BCF2B5A3
:1036E000A5D1DDCABEB9A6C4DCA1A30D0A000000A5
:1036F000203700000000002020020000C63100003A
:10370000403900002002002078000000C63100008F
:10371000B83900009802002094010000D631000062
:10372000804A0020917A57250B077E49A826403110
:10373000002B05DB0D700E70937A082423439372DF
:103740000D700E7005231381764F20373B880324BC
:103750006402A3433B80937A102423439372002294
:103760000A700123BC79E40701D00020FAE77D2428
:103770002401401CA042F5D90D700E708B710A70A7
:10378000F0E770B5674D2035A87B664940318C7BEA
:10379000032214432A8B644B9A4202D9800880008A
:1037A000401C57220A70A8220A705E4AD37BF72673
:1037B0003340D37300232B71A8738C7305201081C1
:1037C0000B705A48026904242243026130BF0B7017
:1037D000012000F0AFF870BDF0B5524A2032917B65
:1037E00050484030877B0323128B1F434E4B9A4235
:1037F00002D989088900491C57240470A82505703E
:10380000484EF27B08231A43F273464A00232032C3
:1038100013719173877305213181037043490E69D8
:1038200004273E430E6130BF037004700570012110
:1038300051711171037000BF00BF047005700D213C
:1038400011710370F0BDF0B5364B20339A7B3549CA
:1038500040318E7B032426431C8B334DAC4202D96E
:1038600092089200521C57240C70A8250D70304FFE
:1038700038431880002008700C700D7018719A730E
:103880008E73284E052232810870284A1669042753
:103890003E43166130BF08700C700D7001225A71E2
:1038A0001A71087000BF00BF0C700D700D221A71E4
:1038B0000870F0BDF0B51B4B20339A7B194940319D
:1038C0008E7B032426431C8B174DAC4202D99208F1
:1038D0009200521C57240C70A8250D7009273F0335
:1038E000C0191880002008700C700D7018719A7340
:1038F0008E730C4E0522328108700C4A166904271B
:103900003E43166130BF08700C700D7001225A7171
:103910001A71087000BF00BF0C700D700D221A7173
:103920000870F0BD00100040FF3F000000ED00E017
:103930000490000003B40148019001BDB7170000D6
:103940000000000000000000000000000000000077
:103950000000000000000000000000000000000067
:103960000000000000000000000000000000000057
:103970000000000000000000000000000000000047
:103980000000000000000000000000000000000037
:103990000000000000000000000000000000000027
:1039A0000000000000000000000000000000000017
:0839B00000000000000000000F
:040000050000009166
:00000001FF
