:1000000000800020DD4A000049460000594B0000F6
:1000100000000000000000000000000000000000E0
:10002000000000000000000000000000594B00002C
:100030000000000000000000594B0000594B000078
:10004000594B0000594B0000594B0000594B000020
:10005000594B0000594B0000DD1C0000594B0000BB
:10006000594B0000594B000055410000594B00000E
:10007000594B0000594B0000594B0000594B0000F0
:10008000594B0000594B0000594B0000594B0000E0
:1000900002B4714649084900095C49008E4402BC1B
:1000A0007047C046002243088B4274D303098B4239
:1000B0005FD3030A8B4244D3030B8B4228D3030C38
:1000C0008B420DD3FF22090212BA030C8B4202D3DA
:1000D0001212090265D0030B8B4219D300E0090A02
:1000E000C30B8B4201D3CB03C01A5241830B8B420B
:1000F00001D38B03C01A5241430B8B4201D34B03F4
:10010000C01A5241030B8B4201D30B03C01A524158
:10011000C30A8B4201D3CB02C01A5241830A8B42DD
:1001200001D38B02C01A5241430A8B4201D34B02C6
:10013000C01A5241030A8B4201D30B02C01A52412A
:10014000CDD2C3098B4201D3CB01C01A52418309DE
:100150008B4201D38B01C01A524143098B4201D318
:100160004B01C01A524103098B4201D30B01C01A43
:100170005241C3088B4201D3CB00C01A52418308BD
:100180008B4201D38B00C01A524143088B4201D3EA
:100190004B00C01A5241411A00D20146524110464A
:1001A0007047FFE701B5002000F0F0F802BDC0463F
:1001B0000029F7D076E7704703460B437FD400222F
:1001C00043088B4274D303098B425FD3030A8B42EB
:1001D00044D3030B8B4228D3030C8B420DD3FF2255
:1001E000090212BA030C8B4202D31212090265D023
:1001F000030B8B4219D300E0090AC30B8B4201D3D6
:10020000CB03C01A5241830B8B4201D38B03C01A1C
:100210005241430B8B4201D34B03C01A5241030B93
:100220008B4201D30B03C01A5241C30A8B4201D344
:10023000CB02C01A5241830A8B4201D38B02C01AEF
:100240005241430A8B4201D34B02C01A5241030A66
:100250008B4201D30B02C01A5241CDD2C3098B424B
:1002600001D3CB01C01A524183098B4201D38B01C8
:10027000C01A524143098B4201D34B01C01A52416B
:1002800003098B4201D30B01C01A5241C3088B42B0
:1002900001D3CB00C01A524183088B4201D38B009B
:1002A000C01A524143088B4201D34B00C01A52413D
:1002B000411A00D201465241104670475DE0CA0F14
:1002C00000D04942031000D34042534000229C46D4
:1002D00003098B422DD3030A8B4212D3FC228901DE
:1002E00012BA030A8B420CD3890192118B4208D3B4
:1002F000890192118B4204D389013AD0921100E016
:100300008909C3098B4201D3CB01C01A5241830929
:100310008B4201D38B01C01A524143098B4201D356
:100320004B01C01A524103098B4201D30B01C01A81
:100330005241C3088B4201D3CB00C01A52418308FB
:100340008B4201D38B00C01A5241D9D243088B4251
:1003500001D34B00C01A5241411A00D201466346F4
:1003600052415B10104601D34042002B00D5494258
:10037000704763465B1000D3404201B5002000F097
:1003800005F802BD0029F8D016E770477047C0464F
:1003900002780B78002A03D0013001319A42F7D05D
:1003A000D01A704702000A4810B50368002B02D02B
:1003B0001C68A24207D0436801204042002B05D0B0
:1003C0001C68A24202D108785B6A984710BDC046FB
:1003D00034420020094910B50B680200002B02D0FE
:1003E0001868824207D001204B684042002B04D09D
:1003F00019688A4201D11B6A984710BD3442002017
:10040000094910B50B680200002B02D0186882421F
:1004100007D001204B684042002B04D019688A4263
:1004200001D1DB69984710BD3442002070B5104CF3
:1004300005002068002805D004302900FFF7A8FF38
:1004400000280CD0606800280ED004302900FFF787
:100450009FFF030001204042002B04D102308000A6
:1004600023589B69984770BD01204042FBE7C04676
:1004700034420020F0B5050085B000281FD0234F7E
:10048000031D3C680393224E002C06D03368291DBF
:10049000181DFFF77DFF002809D07B68002B11D0C5
:1004A0007368291D181DFFF773FF00282BD1039BCC
:1004B000184A009318495723012000F09BFC0120A3
:1004C00040421EE0631E9C41A30024200393F5508C
:1004D00004F044FB0400039B1422291DF85004F08F
:1004E00047FB0E4B200063610D4BE3610D4BA36195
:1004F0000D4B236200F092FA039B2860F3581868B2
:10050000C01705B0F0BD002CD9D1DDE72C4200208A
:10051000344200202B5A0000355A00002D04000000
:10052000A5030000D5030000010400000200012023
:10053000064B10B51B684042002B05D01C68944246
:1005400002D108785B6A984710BDC046404200203F
:1005500002000120054B10B51B684042002B04D05F
:100560001968914201D11B6A984710BD4042002092
:1005700002000120054B10B51B684042002B04D03F
:100580001968914201D1DB69984710BD40420020B3
:10059000084B10B51C680100002C05D0231D180065
:1005A000FFF7F6FE002802D00120404210BDA369EB
:1005B0009847FBE740420020F0B5050085B00028D1
:1005C00016D10124644210E03068039904300124FC
:1005D000FFF7DEFE6442002807D1039B154A009313
:1005E00015495723013000F005FC200005B0F0BD8F
:1005F000124F031D03933B68114E002BE4D1306072
:10060000242004F0ABFA04001422291D386004F001
:10061000AFFA0C4B200063610B4BE3610B4BA36102
:100620000B4B236200F0FAF9336828601C68E4176A
:10063000DBE7C0466B5A0000355A00003C42002000
:1006400040420020910500002D05000051050000EA
:100650007105000037B503000120084A40421468C4
:10066000002C0AD022689A4207D1CD680B8A0A89E9
:1006700008780095646A4968A0473EBD484200205A
:1006800037B503000120084A40421468002C0AD004
:1006900022689A4207D1CD680B8A0A8908780095AA
:1006A000246A4968A0473EBD48420020020001205C
:1006B000054B10B51B684042002B04D019689142CD
:1006C00001D1DB69984710BD48420020084B10B5A6
:1006D0001C680100002C05D0231D1800FFF758FEF0
:1006E000002802D00120404210BDA3699847FBE7D3
:1006F00048420020F0B5050085B0002816D101243D
:10070000644210E03068039904300124FFF740FE92
:100710006442002807D1039B154A009315495723CB
:10072000013000F067FB200005B0F0BD124F031D43
:1007300003933B68114E002BE4D13060242004F079
:100740000DFA04001422291D386004F011FA0C4B34
:10075000200063610B4BE3610B4BA3610B4B2362E6
:1007600000F05CF9336828601C68E417DBE7C046DA
:100770007C5A0000355A00004442002048420020C4
:10078000CD0600005506000081060000AD06000001
:1007900073B5041E0D4D05D14C232A000C490120D0
:1007A00000F028FB002623682A00009309494E2305
:1007B000042000F01FFB2368A66100932A00292370
:1007C0000549012000F016FB300076BDB65A000046
:1007D000C35A0000F25A00001F5B000037B5051E27
:1007E000084C05D1592322000749012000F002FBE3
:1007F00000955A2322000549042000F0FBFA00204E
:100800003EBDC046B65A0000C35A0000865A0000DA
:1008100070B504000D001600002805D18623084A93
:100820000849012000F0E6FA63685B69002B04D0F8
:10083000320029002000984770BD01204042FBE7AC
:10084000B65A0000C35A000010B5041E05D19E23FD
:10085000074A0849012000F0CDFA63681B68002BA5
:1008600002D02000984710BD01204042FBE7C0465F
:10087000B65A0000C35A00000A000B4910B50B68B5
:100880000400002B02D01868844207D001204B6876
:100890004042002B06D019688C4203D191885B6AD4
:1008A0001068984710BDC046544200200A000B490A
:1008B00010B50B680400002B02D01868844207D0E2
:1008C00001204B684042002B06D019688C4203D1AE
:1008D00091881B6A1068984710BDC046544200209A
:1008E000094910B50B680200002B02D0186882423B
:1008F00007D001204B684042002B04D019688A427F
:1009000001D1DB69984710BD5442002070B5104CEE
:1009100005002068002805D004302900FFF738FDC5
:1009200000280CD0606800280ED004302900FFF7A2
:100930002FFD030001204042002B04D10230800033
:1009400023589B69984770BD01204042FBE7C04691
:1009500054420020F7B5051E17D01F4F031D3C68F9
:1009600001931E4E002C06D03368291D181DFFF779
:100970000FFD002809D07B68002B09D07368291D62
:10098000181DFFF705FD002822D1012040421EE07E
:10099000631E9C41A30024200193F55004F0DEF86F
:1009A0000400019B1422291DF85004F0E1F80C4BBF
:1009B000200063610B4BE3610B4BA3610B4B236284
:1009C00000F02CF8019B2860F3581868C017FEBD92
:1009D000002CDAD1DEE7C0464C4200205442002011
:1009E0000D09000079080000AD080000E1080000D2
:1009F00070B505000024084EA3009859002804D0C3
:100A00002900FFF7C5FC002803D001340A2CF3D1DC
:100A10000B3C200070BDC0465C420020002310B596
:100A2000064A99008C58002C02D18850180010BD3D
:100A300001330A2BF5D10B3BF8E7C0465C4200209E
:100A400070B505000E00FFF7D3FF041E06DB044B54
:100A50008200D35831005B6928009847200070BDA0
:100A60005C42002010B5034B8400E358DB699847D3
:100A700010BDC0465C42002010B5034B8400E35813
:100A80009B69984710BDC0465C420020014B1B6823
:100A900018407047A4100040002904D0034A13688E
:100AA000184310607047024AF9E7C046A81000409A
:100AB000AC10004010B503F04FFD10BD70B5041E22
:100AC00005D149230F4A1049012000F093F9256808
:100AD0000E4C28002168FFF75BFC002808D0616BF2
:100AE0002800FFF755FC01235B42002808D10130A4
:100AF000342358432418E368217A60689847002318
:100B0000180070BDA25B0000C35A00001C4000200A
:100B1000F0B5040085B00E00204D002805D15D23FE
:100B20002A001F49012000F065F92369012B05D037
:100B30005E232A001B49012000F05CF9019623681E
:100B4000194900932A005F23042000F053F9276815
:100B5000164C38002168FFF71BFC002808D0616B99
:100B60003800FFF715FC01235B42002812D1013049
:100B700034235843241863682A0003930A496723DF
:100B800001960097042000F035F92369310003989D
:100B900098470023180005B0F0BDC046A25B0000D6
:100BA000C35A0000415B00006E5B00001C40002047
:100BB00010B54020032103F0CFFC002010BD002021
:100BC00070470000002805D14023084A11680B43F4
:100BD00013607047012806D14023054A00201168A0
:100BE0000B431360F5E701204042F2E7A8100040F4
:100BF000AC100040024B1868402318407047C046B4
:100C0000A410004073B5184C184E20002368E6610C
:100C1000A3611830FFF7BCFD154D002819D0002343
:100C20002A000120134900937E3300F0E3F82000EE
:100C3000636B2665E3644C30FFF7AAFD03000120D7
:100C40000090002B0BD07E232A000A4900F0D2F836
:100C500073BD00907C232A0007490420E5E77C232C
:100C60002A0005490420F1E71C4000200040002034
:100C7000A25B0000AC5B0000E15B0000014B1B6865
:100C800018407047C4100040002904D0034A13687C
:100C9000184310607047024AF9E7C046A8100040A8
:100CA000AC10004010B503F093FC10BD70B5051EEC
:100CB00005D12A230B4A0C49012000F09BF80B4C6C
:100CC00028682168FFF764FB051E02D001256D42EC
:100CD00005E00123217AA3626068E3689847280051
:100CE00070BDC046555C0000C35A0000A040002003
:100CF00070B5041E05D13C230D4A0E49012000F0B9
:100D000079F82369012B05D03D23094A0A490120BE
:100D100000F070F8094D20682968FFF739FB0028BA
:100D200002D00120404202E06B696868984770BDBC
:100D3000555C0000C35A0000415B0000A040002049
:100D4000802010B50121C00303F042FC0B23034AAD
:100D50000349042000F04EF8002010BD555C00004F
:100D6000265C000000207047002806D18023094A35
:100D7000DB0311680B4313607047012807D1802300
:100D8000054ADB03116800200B431360F4E70120E0
:100D90004042F1E7C8100040CC100040024B1868F8
:100DA0008023DB0318407047C410004007B50C488F
:100DB0000368183003600B4B4360FFF7E9FC0A4AF5
:100DC000002806D1552309490090043000F012F89C
:100DD00007BD00230649009301205733F6E7C046BC
:100DE000A040002084400020555C00005F5C0000B3
:100DF000915C00000EB403B503A901C9019103F091
:100E000083FF02B008BC03B018470000E02010B513
:100E10000C4CC001236803210343236003F09CFBB7
:100E200080202368000203432360012103F094FB28
:100E300003F0A4FC032003F0CBFC042003F0B6FC79
:100E400010BDC046A810004070470000F8B51E0055
:100E500080231500114A0F0011685B010B431360DA
:100E600003F0DCFC0024A5420DDC069B002B03D024
:100E70003100180003F0E6FC8023094A5B01116889
:100E80000B431360F8BD3800064BEB181B1BDB004F
:100E9000D840C0B203F0C2FC0134E4E7AC1000401B
:100EA000A8100040FFFFFF1FF8B51D0080231600AB
:100EB000134A0F0011685B010B43136003F0AEFC93
:100EC0000024A64209DC0024A54211D180230D4A4A
:100ED0005B0111680B431360F8BD38000A4BF3182F
:100EE0001B1BDB00D840C0B203F098FC0134E8E7DC
:100EF000069B002B02D0185D03F090FC0134E3E761
:100F0000AC100040A8100040FFFFFF1F802010B56C
:100F10000E4C032123680343236003F059FB102088
:100F2000236801210343236003F052FB03F010FD0B
:100F3000002003F027FD0521012003F02FFD802272
:100F4000034BD20000201A6010BDC046C8100040FC
:100F500000E100E010B503F035FD10BD10B503F061
:100F600045FD10BD00207047052310B586B001A9CE
:100F70000B706B46DC1C012300220B82044B4A6081
:100F800018680A81CC60FFF777FD207806B010BDA5
:100F9000D440002010B50124FFF7E6FF2042FBD12A
:100FA00010BD00007FB50623002201A90B70054B80
:100FB0004A6018680A81CA600A82FFF753FD07B0C9
:100FC00000BDC046D440002010B586B00400FFF735
:100FD000E9FFFFF7DFFF2023002201A90B701D3B73
:100FE0000B81054B4C601868CA600A82FFF73AFD16
:100FF000FFF7D0FF06B010BDD44000207FB5FFF74B
:10100000D1FFFFF7C7FFC723002201A90B70064BD2
:101010004A6018680A81CA600A82FFF723FDFFF759
:10102000B9FF07B000BDC046D44000208023F0B512
:101030005B001700C2B29B1A1C1C9BB287B0060053
:101040000D008B4200D90C1CFFF7ACFF022301A955
:101050000B7003230B810D4BA4B2002218684E6065
:10106000CF600C82FFF7FEFCFFF794FFA5420AD089
:1010700080232D1BADB23F1936195B002C1C9D42FD
:10108000E2D91C1CE0E707B0F0BDC046D440002008
:101090008023F0B55B001700C2B29B1A1C1C9BB2E8
:1010A00087B006000D008B4200D90C1C032301A958
:1010B0000B700B810C4BA4B2002218684E60CF60FD
:1010C0000C82FFF7D9FCA5420BD080232D1BADB2BB
:1010D0003F1936195B002C1C9D42E7D9034B1C8835
:1010E000E4E707B0F0BDC046D4400020CC5C00006F
:1010F0007FB5902301A90B708D3B0B816B46CB60B4
:10110000022300220B82064B4A601868FFF7B4FCEA
:101110006B466A461B7850781B02184307B000BD27
:10112000D440002013B51748FFF7E4FA164C002806
:1011300018D19C23220015495B000330FFF75AFEAB
:1011400000211348FFF77CFC124B186000280FDBCE
:10115000A12300905B0022000F490320FFF74AFE05
:10116000002016BD3C232200FF330C490320E5E795
:1011700048232200FF330A490120FFF73BFE0120EC
:101180004042EEE7D8400020D55C0000E15C000062
:10119000445D0000D4400020495D0000115D000066
:1011A000825D000037B53248FFF764F93148FFF738
:1011B00015FB314D2860002805D116232F4A3049F0
:1011C0000130FFF717FE2F48FFF708FB2E4C206079
:1011D000002805D11823294A29490130FFF70AFEC2
:1011E0002868FFF731FB002809D02868FFF72CFB9F
:1011F0001A230090214A25490120FFF7FBFD2068B2
:10120000FFF722FB002809D02068FFF71DFB1B23F6
:1012100000901A4A1D490120FFF7ECFD00222868C2
:101220001100FFF7F5FA00280BD000222868110002
:10123000FFF7EEFA1D230090104A14490120FFF732
:10124000D9FD002220681100FFF7E2FA00280BD038
:10125000002220681100FFF7DBFA1E230090074AE6
:101260000A490120FFF7C6FD012040423EBDC046AD
:10127000044100201C5C000088420020BC5D00008E
:10128000C35A0000135C000084420020C65D0000C9
:1012900030B5174885B0FFF78FF9164D04002800C8
:1012A000FFF79CFA144B1860002C1DD12800210078
:1012B000FFF7C6FB114D124A286000280FDB009093
:1012C0001D2310490320FFF795FD012303A92200E8
:1012D00028680B70FFF7C6FB200005B030BD28233F
:1012E00009490120FFF786FD01246442F4E7C04666
:1012F00034410020C65C00008C42002030410020B8
:10130000005E00000A5E0000825D000013B50F4819
:10131000FFF720FB041E15D101000D48FFF790FBDD
:101320000C4B0D4A1860002807DB00901A230B496C
:101330000320FFF75FFD200016BD1F230849012091
:10134000FFF758FD01246442F5E7C04664410020E0
:10135000425E0000604100204F5E0000495D0000D9
:101360005A5E000000B50F280CD8184BFEF790FE0F
:1013700008080B0B2A2A080B0B151E15081E1E2A1F
:1013800000221A7000BD03221149087802430A7036
:101390000121104A11700222F3E70C220C4908784F
:1013A00002430A7001220B490A70EAE70321084A46
:1013B0001078014301201170064908700C21107843
:1013C0000143E7E7024903220878E9E79042002059
:1013D00026800040584300200022084B10B51A70A8
:1013E000074B05321A70074B1B321A70064B1F3A17
:1013F0000F201A70FFF7B6FF10BDC04692420020C2
:10140000EA430020E943002090420020084B1A687C
:10141000082A01D908221A60064B074A1A600023DD
:10142000064A1370064A1370064A13707047C04686
:101430005C430020F04300208E5E000090420020BC
:10144000EA430020E9430020084B094A1A60094B8F
:101450001A68242A01D924221A600023064A13702C
:10146000064A1370064A13707047C046F0430020C6
:10147000965E00005C43002090420020EA4300207A
:10148000E9430020104A1149D38A5BBA9BB21B037F
:101490000B601100537C927C12021A43CB7C1B041C
:1014A0001A430B7D1B0613431BBA094A1B03136027
:1014B0000023084A1370084A1370084A1370012267
:1014C000074B1A707047C046644300205C430020FD
:1014D0006043002090420020EA430020E9430020BE
:1014E000F443002010B50C4B5B7C3F2B10D10B4B11
:1014F0001A680C2A01D90C221A60094B094A1A6091
:101500000023094A1370094A1370094A137010BD69
:10151000FFF762FFFBE7C046644300205C43002006
:10152000F04300201B5F000090420020EA430020AF
:10153000E943002070B51849184D0E782A78184BE9
:101540003243184C18481CD000220A7070211980B0
:1015500016492E700978DA7099700A21D9711449E8
:101560001A7109785A719A711A725A729A72DA72E9
:1015700019735A739A73DA731A745A742360027067
:1015800070BD0A7070211960A021090559609A6028
:10159000DA601A82F2E7C04658430020E843002090
:1015A00064430020F043002090420020EA430020E2
:1015B000E94300200023054A1370054A1370054AC9
:1015C0001370054A1370054A13707047914200204A
:1015D0009242002090420020EA430020E94300208C
:1015E0000023034A1370034A1370034A13707047B1
:1015F00090420020EA430020E9430020154A70B5DC
:10160000D38A15495BBA9BB21B03D47D0B601100D2
:101610000026537C927C114D12021A43CB7C1B0492
:101620001A430B7D1B0613431BBA1B032B60F3B23B
:10163000A34207D300230A4A13700A4A13700A4AC6
:10164000137070BD2B683003C018FFF7BDFC013666
:10165000EDE7C046644300205C4300206043002067
:1016600090420020EA430020E943002010B50C4BD3
:101670005B7C3F2B10D10B4B1A68102A01D910222A
:101680001A60094B094A1A600023094A1370094A73
:101690001370094A137010BDFFF79EFEFBE7C046AA
:1016A000644300205C430020F04300200B5F0000F7
:1016B00090420020EA430020E943002010B5234B6C
:1016C000DB7B1E2B3BD01DD8122B2CD013D8002B2C
:1016D00015D0032B2DD005221D4B0E201A701D4B4B
:1016E0001B321A701C4B1F3A1A7000221B4B1A70C7
:1016F000FFF738FE19E01A2B24D01B2BEBD1FFF794
:1017000059FF12E02A2B11D006D8252B14D0282BF4
:10171000E1D1FFF7B7FE08E02F2B10D05A2BDAD11A
:10172000FFF7A4FF01E0FFF78FFE10BDFFF766FF94
:10173000FBE7FFF7FFFEF8E7FFF768FEF5E7FFF7C7
:101740004FFFF2E7FFF7CEFEEFE7C046644300200D
:10175000EA430020E943002090420020924200200A
:101760001B4B10B51A78552A2CD15A78532A29D1F7
:101770009A78422A26D1DA78432A23D1154A197A4F
:10178000D170597A9170997A5170D97A117018790B
:101790001149126808705879487098798870D8791A
:1017A000C870002A08D01A7B0C49D343DBB2DB098E
:1017B0000B700B4BD2091A7001220A4B1A70FFF7FB
:1017C0007DFF10BD0323084A11780B431370F8E71F
:1017D000644300205C430020EB4300209142002042
:1017E00092420020934200202680004000231749A7
:1017F00030B50B701649174A0B701749174811601E
:10180000174902600C7814714C7854718C7894717B
:10181000C9781381D17113494C7809789472D172C7
:101820001149124C0978117319000268403115787A
:1018300001330132655402600D2BF5D103210C4AAE
:1018400013700C4A13788B43137030BD9342002001
:10185000924200206443002055534253F04300203D
:10186000EB4300205C43002090420020D84200203F
:101870002480004026800040F8B51A4D2C68402C8A
:1018800015D9403C2C6040240023174E32789A42F0
:1018900013D116491648DAB294421BD91D000A68C2
:1018A00040351678013246550A600133F3E70023CC
:1018B000104AE4B22B601370E6E70F4FA1B20F4A53
:1018C0003868FFF7E5FB3B681B193B602B68002B72
:1018D00000D1337003210A4B0A4A1C7013788B43E2
:1018E0001370F8BD5C430020F4430020F043002057
:1018F000D84200209242002060430020184300207C
:10190000248000402680004070B500240E4B0F4A12
:1019100019780F48C9B2E3B2994211D10D4D89B27D
:101920002868FFF783FB2B681B192B600A4B1A688A
:10193000141B1C6003D1094B1C70FFF757FF70BDCF
:10194000035D13550134E6E708800040A8430020FA
:10195000D8420020604300205C43002091420020D8
:10196000F0B5B44B02211A7885B0D2B214000C4005
:1019700000D193E13F20B04A13780340202B00D1DF
:10198000E4E00AD8002B00D113E1012B00D113E1D0
:101990000223A84A137005B0F0BD212B00D139E114
:1019A000302BF5D1C222A54B1A70A54A12780393A9
:1019B000082A6CD1A349A44C0B68A44DDA79987914
:1019C000120202432280587828701D780195602504
:1019D000019E2E422CD0FE2817D19D4F9D4D3D607B
:1019E000012A01D9012323802688331C402E00D9E7
:1019F00040239BB21A0029009748029303F0B8F8DD
:101A0000029BF61AED1826803D606B4600211B797B
:101A10005BB28B4208DA23881A1C402B00D9402283
:101A200092B29B1AD1B223808C4B1970C0232FE045
:101A30000A282CD8FEF72CFB805C2B2B2B4D062B79
:101A400050587E00DD7899782D020D43290A804E8A
:101A5000022920D0032923D0FF25012929D180493B
:101A600000253160122189B28A4200D92180228862
:101A7000171C402A00D94027BFB23A00180031682D
:101A800003F076F83368DF193760FF2DBDD1CF231F
:101A9000039A13707CE77349002531602021E2E747
:101AA000FF210D40012D06D0002D0ED0022D07D0B4
:101AB0000D000021D7E76C49002531600E21D2E7E7
:101AC0006A49002531600C21CDE769493160042164
:101AD000C9E79B78238098E7664A12781A702388B2
:101AE000012B92D90123F5E79A78624B1A708CE7A3
:101AF0001F2201990A40022AC9D11B79012B13D058
:101B0000812BC4D143205C490B7883431A430A706C
:101B10005A4B1B78002B01D0FFF768FE584B594AEF
:101B2000197811700022E1E77321534A13780B40B2
:101B30001370EDE70022D1E700221A700B685A708B
:101B40002388022B00D860E70223C3E73F4B3B4DBD
:101B50001B78052B20D0062B28D13B4F3B881C1C23
:101B6000402B00D94024A4B2E3B2394E0193354B47
:101B700022001868316802F0FBFF6A463B88127940
:101B80001B1B3B8033681C19344B34601A70402394
:101B90002A7853402B70FBE67F203B4A137883431F
:101BA00029480078034313702970F1E600232B4A7B
:101BB000F9E7224B1970EBE613785B0600D4E7E6F1
:101BC000324C2378002B02D0FFF79EFEE0E61C4A41
:101BD0001278D2B2002A00D1DAE62D482D4DE95C08
:101BE00019540133D9B28A42F9D1FFF7B9FD2378EC
:101BF000002B00D0CCE6284B1B78002B02D0FFF73F
:101C00003BFEC5E61E4B1B78002B00D0C0E6FFF75D
:101C1000EDFDBDE6204B1B78002BF0D1174B1B7858
:101C2000002BF4D10320144A137883431943117015
:101C3000AEE6C0460680004007800040228000409B
:101C40000880004088680020A6430020A4430020AC
:101C5000F8430020BA5E0000984200202080004037
:101C6000DB5E0000BB5E0000F15E0000FF5E000076
:101C7000ED5E000094420020268000409342002048
:101C800058430020E8430020038000409142002098
:101C900064430020D84200209242002001200242EA
:101CA0000AD00A4A14700A4A11701221094A1170A6
:101CB0001A78104318706EE604210A4203D0064ACF
:101CC0001278197067E61A7065E6C0460380004016
:101CD00022800040268000400580004010B5FFF7BC
:101CE0003FFE10BD10B5002807D1FFF701FA044BE5
:101CF000C018431E9841C0B210BD0120FCE7C04689
:101D0000EA10FFFF10B5002809D1FFF70BFAFFF723
:101D1000EFF9044BC018431E9841C0B210BD01201A
:101D2000FCE7C046EA10FFFF10B504000420002CB9
:101D300007D11B039BB210030A001900FFF7A8F993
:101D4000200010BD00280FD1022907D0032909D097
:101D5000012906D180231B01136002E080235B016F
:101D6000138070470123F7E70420FAE70B0010B552
:101D7000110002001800FFF759F9142002F0B1FD1C
:101D800010BDF8B504000F001D000420002C0AD17E
:101D9000160330002D03FFF717F93800AAB23100FF
:101DA000FFF7E4FF2000F8BDC37882781B021343DD
:101DB00042781B02134300781B02184370470B0A3A
:101DC000017043700B0C090E8370C170704782184C
:101DD000017001309042FBD1704730B500230500FF
:101DE000013AEC5CC85C201A9A4202D00133002808
:101DF000F7D030BD82690239023A030000208A42DE
:101E000003D958894143D86A081870470100002354
:101E10000B315A08DB011343027801309B18DBB207
:101E20008842F6D118007047036810B5002B10D017
:101E30001A0000215156541CCAB21F2A12D922007E
:101E40003A29F6D100241C5721003039C9B209299A
:101E500002D90120404206E002339A42F9D1302CE7
:101E6000F7D10260002010BD70B505000C000028FD
:101E700003D109200023236070BD0368002BF8D034
:101E80001A78002AF5D08188DA889142F1D1587801
:101E9000FFF728FF01231840EBD12B68EBE7002365
:101EA00010B5CC5CC45401339A42FAD110BDCA7E3D
:101EB00010B50400887E12021043032C05D14A7D20
:101EC0000B7D120213431B04184310BD93B21B0A6F
:101ED0008A76CB760378032B03D1120C0A75120A8B
:101EE0004A75704770B5C3780400002B02D10023F7
:101EF000180070BD0600343601234078226B310093
:101F0000FFF73FFF0123051EF2D1E070226B616AEB
:101F1000E069511A8142EAD2A1780229E7D1121868
:101F200031006078FFF72DFF2B00E1E7036B70B500
:101F300004000E0000258B4210D0FFF7D3FF051ED2
:101F40000CD121006078012332003431FFF7ECFE20
:101F5000002802D00126013576422663280070BD94
:101F6000002310B5C370013B03630400FFF7DEFFDD
:101F70000423002827D1154B154AE35CA25C1B0201
:101F80001A43144912B203238A421CD1230034336A
:101F90001B78EB2B04D01833DAB20223012A12D8B3
:101FA000200003220C496A30FFF717FF00239842F4
:101FB00009D02000052286300849FFF70EFF0300F4
:101FC000581E83415B00180010BDC046330200005C
:101FD0003202000055AAFFFFB45F0000B85F0000A6
:101FE0000023F0B50B608BB00D001700FFF71CFF4E
:101FF0000B23061E16DBA74B8200D4580C23002CA3
:1020000010D02C6001252378AF43002B0DD06078D1
:10201000FFF768FE054008D12B00002F02D04207D1
:1020200000D50A2318000BB0F0BD0023F0B22370D6
:102030006070FFF767FE0323C207F3D4002F01D0BF
:102040004307EED400212000FFF78AFF022829D1A0
:1020500026000025FB36FF362B011A000020F73240
:10206000FF32A25C824202D0F018FFF79DFEAB0067
:1020700006AA01359850042DEED100250326AB00A9
:1020800006AAD7583000002F05D039002000FFF7EE
:1020900067FF01280ED90135042DF0D10123042852
:1020A00006D1BFE701230428BCD00027984201D9FC
:1020B0000D23B7E7230040331A78013B1B78120247
:1020C000134380221BB252019342F1D123004B33C0
:1020D0001A78013B1B781202134300D1C1E002932E
:1020E000029BE361230044331E78731EA670012B0C
:1020F000DED8230041331D78ABB26381002BD7D0EB
:102100006B1E1D42D4D12300220046331B7845327A
:1021100012781B021A436B4601929B88238113009D
:102120005B06C5D12300220048331B784732107864
:102130001B02184303D120005430FFF735FE230063
:10214000220043331B78423212781B021A43049256
:10215000AED0029B73430593019BDB099B18059A44
:102160009B1803939842A3D3C01A2900FDF79AFF46
:1021700000289DD0484B98429AD8484B0326984255
:1021800004D8474E8642B64176420136049B039AF4
:10219000851CDB19BA18A56127626362E262032E0F
:1021A00065D123005F331A78013B1B781202134379
:1021B00000D07DE7019B002B00D079E72000603044
:1021C000FFF7F2FDAD00A062364BED18029B2D0B20
:1021D0009D4200D96CE701235B4263612361813337
:1021E0002371032E34D1230065331A78013B1B7809
:1021F00012021343012B2BD1791C2000FFF796FE0E
:10220000002825D1284B2071E25C284B1202E35CA8
:102210001343274A1BB293421AD120003430FFF7F0
:10222000C3FD244B984213D186239B00E018FFF78F
:10223000BBFD214B98420BD187239B00E018FFF791
:10224000B3FD88239B006061E018FFF7ADFD2061BE
:102250001A4A2670138801339BB21380E38000234F
:10226000E0E620005830FFF79FFD029038E7019A22
:10227000002A00D11CE7059A9B18A362022E01D107
:102280006D00A1E70320012368431D404008451964
:102290009AE7C046FC430020F5FFFF0FF5FF000062
:1022A000F50F0000FF0F00003302000032020000B3
:1022B00055AAFFFF525261417272416100440020F1
:1022C000F0B5060085B00D0014000227012946D99B
:1022D00083698B4243D903780093BB4249D0032BD7
:1022E00059D00227012B3AD14B085B180193190BE7
:1022F000436AC918FFF71AFE071E30D13300343382
:102300000293019B029A01330393019B1B051B0D52
:10231000D318009A1540E2B2002D08D00F21FF20FB
:102320001A7800010A40210101400A43D2B21A7012
:102330000123F370039B3000190B736AC918FFF770
:10234000F5FD071E0BD1039B1A05029B120D9A186F
:10235000002D07D02409E4B214700123F370380073
:1023600005B0F0BD0F211378240A8B430C401C43A9
:10237000F2E7436AC90AC918FFF7D8FD071EEED174
:102380003300114A6D00343315405D192C70A4B22E
:10239000240A6C70E1E7436A890AC918FFF7C6FD91
:1023A000071EDCD13300094AAD00343315405D19F6
:1023B0002800FFF7F9FC2101000F0007090901437C
:1023C0002800FFF7FCFCC8E7FE0F0000FC0F000030
:1023D000F7B5012604000D00B14214D98369994272
:1023E00011D20378022B2ED0032B3DD0B3420AD159
:1023F0004F087F18436A390BC918FFF797FD00286B
:1024000003D0012676423000FEBD7B1C3F05190B30
:1024100001933F0D636AE7193437C91820003F78EC
:10242000FFF784FD0028ECD1019B1805000D24184E
:102430003434207800020743354201D03E09E2E7F8
:102440003F053E0DDFE7436AC90AC918FFF76EFD75
:102450000028D6D10D486D000540343464196678E3
:10246000207836020643CEE7436A890AC918FFF787
:102470005DFD0028C5D12000054CAD00343025405D
:102480004019FFF791FC06013609BCE7FE0F00007A
:10249000FC0F0000234BF7B506000C00994201D950
:1024A0000220FEBDCB06FBD1876805683161002F95
:1024B00019D12B78022B02D9AB6A002B14D12A89AF
:1024C00063099342ECD2AB6AB361B2697761002AC7
:1024D000E6D0230B24053435240D9B182C19B36149
:1024E000F4610020DDE73B001F006A8912030192BE
:1024F000019B39009C4204D22800FFF77BFCB061AD
:10250000E3E73068FFF764FF0700431C07D00128AA
:10251000C6D9AB698342C3D9019BE41AE8E701201D
:10252000BFE7C046FFFF1F00F7B50F1E019005680B
:102530000AD12E69002E18D0AB69B34215D96B6948
:10254000002B14D1002409E02800FFF741FF04000C
:1025500001285CD9431C03D1012464422000FEBD44
:10256000AB693E008342EAD9F8E70126E7E7BE42BD
:1025700015D1AB69741C9C4200D30224019B21003D
:102580001868FFF725FF012841D0431CE4D000283C
:102590001BD02B69012B02D9AA6993422CD334009A
:1025A000AB690134A34202D8012ECBD90224019B8E
:1025B00021001868FFF70CFF002808D0012826D05A
:1025C000431CC9D0B442EBD1BCE7002CE7D00122B8
:1025D000210052422800FFF773FE002815D1002F7A
:1025E0000CD1AA696B69023A2C61934211D901237B
:1025F0002A7913432B71B1E71E00D0E7220039007E
:102600002800FFF75DFE0028EBD00128A4D00124AC
:10261000A4E7013B6B61EAE7F8B50D000700110084
:10262000012D2ED90468A369AB422AD9002A06D00D
:10263000012220005242FFF743FE002806D1290064
:102640003868FFF7C5FE061E01D10020F8BD01283D
:1026500017D0431C17D0002229002000FFF730FEBE
:102660000028F3D1A2696369911E8B4205D2012132
:102670000133636123790B4323713500B242DED805
:10268000E3E70220E2E70120E0E7F7B504000E00EF
:10269000FFF728FC05000120002D1AD13100200091
:1026A000FFF7A8FB270080220600343720632900AB
:1026B00052013800FFF78BFB3500AB1B0193638998
:1026C000AA1B934206D8019B6089C01A431E9841F9
:1026D000C0B2FEBD2A00607801233900FFF751FB2C
:1026E00001350028E9D0EEE7F7B5836904000191D0
:1026F0000420002B15D02769254A2037974210D88F
:102700003A05120D256800923BD161690133A3613E
:10271000002907D12A897B09934232D30023042060
:10272000A361FEBD6B893A0B013B1A4229D12800F7
:10273000FFF74EFE0600012801D80220F1E7431CF6
:1027400001D10120EDE7AB69834214D8019B002B36
:10275000E4D061692000FFF7E7FE06000720002EA5
:10276000DFD0012EE9D0731CEBD031002800FFF739
:102770008CFF0028E5D1666131002800FFF73AFBA5
:10278000A061009B3435ED182761E5610020C8E7A2
:10279000FFFF1F00F0B5036889B000210400049317
:1027A000FFF778FE071E00D09FE0FF2201231600EE
:1027B0005B42E36202920593A1690498FFF7B6FBBE
:1027C000071E00D091E0E5692B780093002B00D123
:1027D0008EE03F23EA7A00991340A371E52903D0E4
:1027E000120704D50F2B04D0059BE36261E00F2B89
:1027F00065D123002B331A7840231A424FD1009A17
:102800001A4253D06A7B0292009A9A43236900923B
:10281000E3626B7B029AFF26934240D1EA7EAB7E55
:10282000120213431BB2002B39D13F210D27049A0A
:102830000193D26803922A780A40013A5743012251
:102840002C4B0199CB5CEB185E781B7836021E434B
:10285000002A30D0FE2F2CD8300001F017FA7B1C54
:102860000793039B7F000690F85A01F00FFA069B2E
:1028700083421ED13200079F019B013301930D2B30
:10288000DED12B785B0607D5002A05D0039A7B00A2
:102890009B5AFF26002B02D1009E013EF6B200217A
:1028A0002000FFF721FF071E86D01EE0009B9E42FE
:1028B000AFD0FF26F3E7104B9E42DDD0F9E7002EA4
:1028C00005D12800FFF7A2FA029B98420DD0230001
:1028D0002B331B78DB0787D421000B222031280003
:1028E000FFF77BFA002800D07EE7380009B0F0BD82
:1028F0000427FAE7A75F0000FFFF00000300F0B520
:102900002B338BB002931F785F2306009F4306246E
:10291000002F50D10368DA6800937B00D35A002B54
:102920004CD133000125203307AC19000C222000C4
:102930000193FFF7B4FAE37A2B4200D168E0402319
:10294000029A1370009B0B2207A90198DC68FFF71D
:10295000A6FA2B00052D44D80F2107228C4605A886
:1029600064461C4021003031392900D90731013A31
:10297000841861701B09F3D17E2181549A4204D0DE
:102980000199581CC95C20292FD120218C4605AC07
:102990006146072A01D8A15C01320198C154013374
:1029A000072BF5D93000FFF7F5FE041E29D10135BC
:1029B000642DC7D1072420000BB0F0BD0137ACE770
:1029C0001021023401201040844680205B006344C3
:1029D00040025208034201D05948434001390029BE
:1029E000F0D12288002AEBD1B6E70300C6E7070042
:1029F00001213000FFF778FE041E1DD0042CD9D031
:102A0000D9E70428D7D107ABDA7A33002B331A7011
:102A100007ABDB7A01259B0705D538000D210C306B
:102A2000FDF740FB45193368002130000293FFF7A2
:102A300031FD041EE2D10700B1690298FFF776FA72
:102A4000041EDBD1F3691B78E52B01D0002BCED11E
:102A50000137BD42CCD1013D002D56D0336969010B
:102A6000591A3000FFF716FD041EA4D10198FFF794
:102A7000CDF90390B1690098FFF758FA041E00D011
:102A800099E7009BF269DB680D219C46EBB202934B
:102A90006B461B7B107353730F23D372FF232B40A2
:102AA000013B4B4301009076D076264CA04203D0E8
:102AB00064465800005B0133234C0C5D1419270059
:102AC0002070040A7C70002800D11E4801310D29B5
:102AD000EBD11C49884204D061465B005B5A002B55
:102AE00003D140230299194302916B461B7A0021BE
:102AF00013700123009A3000D370FFF7F5FD041E18
:102B000000D058E7013D002DB4D1B1690098FFF71E
:102B10000DFA041E00D04EE701002022F069FFF7F5
:102B200056F90B220199F069FFF7B9F91821F269FA
:102B30002B3633780B4013730123009AD3703AE796
:102B400021100100FFFF0000A75F0000F8B504009E
:102B5000FFF7C8F9061E45D12378032B3AD1277910
:102B6000012F37D125008022343501005201280081
:102B7000FFF72DF955221C4B4121E2541B4B9218B3
:102B8000E2542200E23BFF3B35322B7013702300EE
:102B90006122363386201A705970722380002354C4
:102BA00013482354134BE154134BE2540133E01800
:102BB0006169FFF704F988239B00E0182169FFF79A
:102BC000FEF8236A60785A1C22633B002900FFF755
:102BD000D8F82671002260781100FFF7B3F8431E81
:102BE0009841C0B2F8BDC046320200003302000076
:102BF000190200001A0200001B020000F0B50B00D1
:102C00000600026889B0079200229A562F2A10D037
:102C10005C2A0ED00021B1601A781F2A00D917E172
:102C2000330080222B331A703000FFF733FC09B0D9
:102C3000F0BD0133E8E7FF2D00D12FE1049A6B00CE
:102C4000D0520135069B07E1069A01320692069A98
:102C5000127852B22F2AF7D05C2AF5D000241F2B0D
:102C600000D804346B00002D38D10027049AD752C5
:102C7000BD4200D112E1049A7B00D35A7A1C202B6A
:102C800035D0002F01D12E2B02D103231C43E4B2F7
:102C90006B00049A023BD35A2E2B02D0013D002D2B
:102CA000F6D120210B227018FFF791F80823039327
:102CB0000023029301937B1C0593049B7F00F85A29
:102CC000002829D0202804D02E2812D1059BAB4201
:102CD00016D003231C43E4B2059FECE704999A1E27
:102CE0008A5A202A01D02E2ABFD1013DBAE7170007
:102CF000C1E7029B039A934206D2059BAB4258D18F
:102D0000039B0B2B4BD102E0039B0B2B3ED10323E8
:102D10001C430833E4B20393731CDA7FE52A01D124
:102D2000E03ADA77039B082B03D1019B9B00DBB2CF
:102D300001930C23019A13400C2B04D0130003229F
:102D40001340934202D102231C43E4B2A3070CD4E4
:102D5000019BDB0702D510231C43E4B20422019B34
:102D6000134202D008231C43E4B235002B352C70EB
:102D70003000FFF70FFD2B78002856D0042800D034
:102D800055E7034200D052E7052050E7059BAB42D0
:102D900005D003231C43059BE4B2AB42BCD8019B86
:102DA00005959B00DBB201930B230393033B029336
:102DB00092E727007F280ED90223B6211F43FF3157
:102DC000FFB200F02FFF030612D57F2318403F4BC0
:102DD000185C002807D000233D49CA56002A5FD05E
:102DE00001339042F9D103231F43FFB25F2013E068
:102DF000FF28EED9039B029A013B9A4204D3032396
:102E00001C43E4B2039BD2E7029B020AF31801338E
:102E1000DA77029B01330293029B3C00F3180133E3
:102E2000D877029B0133029356E70422134200D065
:102E3000FDE6B379DB06A7D5336907991B051B0DA2
:102E40003431C918079B1878FFF731F8069BB0603A
:102E500000253268D26804925A1C1B780692002B17
:102E600000D1F4E6B62198B2FF3100F0FBFE031E5C
:102E700014D01F2800D8EAE62F2800D1E7E65C2806
:102E800000D1E4E67F2800D9D5E600231149CA56CF
:102E9000002A00D1CFE601339042F8D10620C6E6E1
:102EA0000300413B9BB2192B03D80223019A1A431A
:102EB00001920300613B9BB2192BADD80123019A0B
:102EC00020381A43019280B2A6E7C046275F00006F
:102ED000176000000E6000001FB5019003A800916C
:102EE00014000391FEF7A0FF03000B20002B14DB5E
:102EF0000B4A98008358002B01D000211970019BC8
:102F0000002B01D00021197013500020844204D0FE
:102F1000020001A96846FFF763F804B010BDC0467F
:102F2000FC430020F0B5684C0500A5440391170050
:102F30000924002800D195E03F261640320005A95B
:102F400003A8FFF74DF8041E56D1059B12AADA60BC
:102F5000039906A80693FFF751FE041E06D13B23F2
:102F600002AA9B181B787F2B00D906341C231F4212
:102F70004ED0002C43D0042C3ED106A8FFF7BEFC57
:102F8000041E39D108231E4333074BD50D9F059BE3
:102F9000390018780193FEF78AFF212300243B743F
:102FA0002B33BC73FC737B740D9B00900293202326
:102FB000029A0198D3720D992200FEF787FF012231
:102FC0000D9B1C775C779C77DC77059BDA70009A09
:102FD000A24227D02200009906A81F6BFFF71CFB16
:102FE000041E09D139000598FEF7A0FF009B059A41
:102FF000013B041E136115D000232B6032E002ABAD
:103000009A7D11231A425BD17B07BDD50824F3E7D3
:10301000002CF1D102AB9B7DDA064FD4BA0701D563
:10302000DB074DD4330701D540231E43059C0D9F7C
:10303000236B6F622B6220783900FEF738FF009017
:10304000A86038001C30FEF7AFFE2C60E860E38813
:103050000700AB8000232E746B74EB616B61B306C9
:1030600005D40024200093239B009D44F0BD00283C
:10307000F7D0686164892403BC4210D30024009B0C
:10308000AB61002CB8D13B05EBD000990598FEF759
:10309000B1FE002816D03B0B1818E861E2E7009952
:1030A0002868FFF795F93F1B00900300012803D91A
:1030B0000133E1D10124E2E70224E0E704249BE7A5
:1030C000072499E7022497E7B4FDFFFFF0B51F003E
:1030D000002389B002913B6007A904001600FEF7A7
:1030E000C3FE0190002821D1637C0193002B1DD1E8
:1030F000237CDB0700D47FE0E36862699D1AB54258
:1031000000D93500002D11D063691A0559D1079AED
:1031100056891A0B013E3240039214D1002B08D17C
:10312000A06801280AD8022565740195019809B0A4
:10313000F0BDA1692068FFF74BF9F2E7431C01D10C
:103140000125F1E7A061079BA16918000493FEF730
:1031500051FE0028E7D0039B2E0B1B180593002E71
:103160002DD0049B039A5B8992199A4201D9039A44
:103170009E1A049B059A587802993300FEF7D4FDF5
:103180000028DDD10799CB78002B0CD00B6B059A6A
:10319000981AB04207D28022029B000334311818DB
:1031A0005201FEF77CFE36033B68AD1B9B193B606A
:1031B000029B9B19029363699E196661A2E7059BB6
:1031C000E3618022636952011B051B0DD31A2E0097
:1031D0009D4200D91E00E1690798FEF7A7FE00286E
:1031E000AED1636907991B051B0D3431C918320034
:1031F0000298FEF754FED7E70723019396E7F0B550
:1032000089B0059300231700059A0291136007A95E
:103210000400FEF729FE019000282DD1637C019364
:10322000002B29D1237C9B0700D4A5E06369DA1920
:10323000934200D9DF43002F1AD063691A0500D0EA
:103240007CE0079A56891A0B013E164020D1002BCC
:1032500008D1A068011E06D0012810D10223637492
:10326000019309E0A1692000FFF75EF90028F3D17E
:103270004023227C13432374019809B0F0BD431C02
:1032800001D10123EBE7A368A061002B00D1A0606E
:103290000798E269036B934203D1FEF723FE0028EF
:1032A000EFD1079BA16918000393FEF7A3FD002847
:1032B000D4D0331804933D0B32D0039B72195B8931
:1032C0009A4200D99D1B039B049A587802992B00BF
:1032D000FEF757FD061ED4D10798049A036B991A7E
:1032E000A94209D28022029B0903591834305201A5
:1032F000FEF7D5FD079BDE702D03059B059A1B6825
:103300007F1B03935B191360029B5B190293636934
:10331000ED18E3686561AB4200D22B00E3608AE7F9
:103320006369E268934207D30398FEF7DBFD002848
:10333000A7D1079B049A1A63049BE3618022636907
:1033400052011B051B0DD31A3D009F4200D91D00E1
:10335000E1690798FEF7EAFD002892D163690798B2
:103360001B051B0D3430C0182A000299FEF797FD8B
:103370000122079BDA70C0E7072371E7436873B542
:103380000400002B14DB5D1CC318866819733B2DE9
:103390000BDD010001AB2A000C310068FFF72FFFA5
:1033A000019B5D1B6B1E9D416D4201366560A660F1
:1033B00073BD426813B50400002A02DA01204042BE
:1033C00016BD010001AB0C310068FFF718FF0028A3
:1033D000F4D16368019A9342F0D1A068F0E7F7B5A1
:1033E00001A90600FEF740FD051E29D14027337CC8
:1033F0003B4225D0316A0198FEF798FD051E1FD18A
:103400002023746AE27A21001343E372B2683068C1
:10341000FEF75CFD2000F1681C30FEF7D0FC212394
:10342000019823762B3363764B3BA575E575A57420
:10343000E574C370FFF78AFB0500337CBB4333742C
:103440002800FEBD13B50400FFF7C9FF002806D110
:1034500001A92000FEF708FD002800D1206016BD5C
:10346000F0B58FB00B900BA81C000F001500FEF7F5
:10347000DBFC0B23002829DBA34B8200D358002B55
:1034800001D000221A70C3B218000393FEF73AFC71
:103490000323C2071AD40733420717D40CAA032107
:1034A0000398FEF74FFC002806D10C9B97495A1E43
:1034B0008A4201D81A4201D001230C93002D08D072
:1034C000934B944AEB18934203D9132318000FB07F
:1034D000F0BD6B1E1D42F8D1149B1B0B08931123EA
:1034E000002CF3D0089A002AF0D00DAA01210398ED
:1034F000FEF728FC01230028E8D108223A40079271
:1035000051424A413F2152420D9E114002918E424A
:1035100001D20E23DAE7029AB21A06920D927F2A9E
:10352000F7D92D0B802DD0D802223A400A9207D02D
:1035300007223A40022A00D105E21F4200D102E2EE
:10354000FB07C2D50195002D0AD10122069B190B5C
:10355000714B01921A88002A02D002338A4214D990
:1035600001990698FCF79EFD6C4A030090420FD922
:103570000226023040006A4B0127C018030B00935B
:103580000423059302E26D00E3E1019A5200E0E7B3
:10359000032058430130400803300126EBE7009B2D
:1035A0009B18009307E2022E1DD15E4B099A9A42A6
:1035B0000ED9002D00D0C2E1019B5D00402DC1D984
:1035C0000A9B002B00D0C0E10195802DC8D9A0E74F
:1035D000524B099A9A420BD8002D9AD1019B5D005B
:1035E000802DAFD995E74D4B099A9A4291D8012683
:1035F0008022002152012000FEF7E9FB4A490B22FC
:103600002000FEF74CFC102323736B461B7900222D
:10361000637301232374F31E591E8B415B00A77350
:10362000A374BFB20D99414B3F0AE272E773627413
:10363000994249D8E17489B2090A2175F823002515
:1036400020006375B93B2376C033A3766576E576B3
:1036500002991C30FEF7B3FB2300032E39D121223F
:10366000200043339A702B32DA701D705D70009920
:103670002430FEF7A4FB2300022220002C331A7012
:10368000013A1A7105329A717A321A752849573AF5
:103690009A755D709D70DD705D71DD71163A473011
:1036A000FEF7FDFBFF2355225B00E254214F553B03
:1036B000FF3BE355029A012321000398FEF761FBCB
:1036C000051E3BD0012301E720002030FEF777FBE9
:1036D000B4E721220833DD7720335A702B321D7076
:1036E0009A706B461B782000A3756B461B8834329A
:1036F0001B0AE375631DDA77573AE31DDA770E4943
:10370000163A2B30CCE7C046FC430020FF7F000078
:1037100000F0FFFF00F0FF00BE5F0000F50F0000AB
:10372000FF0F0000F5FF0000DA5F0000FFFF000060
:10373000E65F0000FF010000FA5F0000032E47D1A2
:10374000029B21009A1D03980123FEF71AFB802299
:10375000290052012000FEF73AFB5223F2204122B9
:1037600072212370637040000F33A370E270215404
:10377000E620FF3021547531FF3162542000E822E9
:103780000999FF32E930A3540139FF30FEF717FBE6
:10379000F62302225B00E254EE23FF33E5540133AB
:1037A000E554F023FF33E55453320F33E254553BD5
:1037B000FF3BE355029B2100DA1D03980123FEF72E
:1037C000E0FA029B21005A1C03980123FEF7D9FA64
:1037D000149B00211A0B12032000FEF7F8FA032EA7
:1037E0005AD1F823237007336370A370E3702371F9
:1037F0006371A371E37123726372A372F03BE3728E
:10380000009D089A954200D9150021002B00049ACA
:103810000398FEF7B6FA011E00D053E7802220007D
:103820005201FEF7D4FA049B5B190493009B5B1BC7
:103830000093E5D1032E01D1019B0593059D089AC4
:10384000954200D915002B00049A21000398FEF739
:1038500098FA002800D035E7049B5B190493059B78
:103860005B1B0593EAD10C25032E09D00D9B063D69
:103870001A00624B9A4203D8053D022E00D103354F
:10388000079B002B13D0002203981100FEF75AFA71
:10389000431E9841C3B219E6711E4B1E9941584B05
:1038A00049420906C9182000FEF789FAA8E78022D4
:1038B000079952012000FEF78AFAFF2355225B0088
:1038C000E2546A46553BFF3BE355127F1533FF3305
:1038D000E254C0230126FF33E6546A469B19E6549E
:1038E000C223127FFF33E2549B190D9AE554029BC9
:1038F00044499818FCF7D6FBC423FE22FF33E25458
:10390000853B8208FF3B1343E2225200A354C623A7
:10391000FF33E0542000C730FF300299FEF74FFA22
:103920002000CB30FF300D99FEF749FA3300079A9B
:1039300021000398FEF725FA0028A4D0C2E60A9BCE
:10394000002B00D1E5E5002D55D10125069B5A0C31
:103950002D4B1F88002F04D00233974200D812E667
:10396000002729000698FCF79DFB284A83009B1836
:103970001B0B0093264BC018264B984200D9C8E574
:103980000023019503263D0020270593029B059AFD
:10399000FB180493009B9918049B0C9AC918531E9A
:1039A0005B1852421A40521A032E00D0F7E5049BCE
:1039B000BF189B180493019B029A1B019B1A069A3D
:1039C0005B189A4200D2A4E5009BD01BC01A059B4D
:1039D0000199C01AFCF766FB0990032E00D0E2E5BE
:1039E0000D4B984200D903E6002D00D091E5019BD4
:1039F0005D0800D18DE52F00B3E7C046FFFF000052
:103A0000F8FFFF00C13E0000CC5F0000071000007F
:103A10000A00FFFFFFFFFE0FF5FF00000EB4F0B538
:103A20000500A0B025AC80CC4C2200210DA8FEF7EB
:103A3000CEF90D95049400217956002900D1E8E0D3
:103A4000252904D001370DA8FFF798FCF3E70121E1
:103A50007956302917D1022101257956FB1C2A29D4
:103A60001BD000220A2001920A00303AD2B21F0075
:103A7000092A1AD8019A424351183039019100217C
:103A800059560133F0E72D2902D0BB1C0025E6E78B
:103A90000221FB1C79560225E1E7049A5F1C111DE7
:103AA000049100211268019259560B002022934381
:103AB0004C2B04D10021483B79561D430137002986
:103AC00000D1A6E0CAB2100061380B00192802D854
:103AD0001300203B5BB24F2B00D187E049DC432B26
:103AE0007CD0442B6CD002220292422BABD1049AA0
:103AF000101D04901268442B04D1002A02DA082316
:103B000052421D430723782900D127230026DBB228
:103B1000039310000299FCF74BFB0200092969D8B6
:103B200049B2303105AB741C9955002802D0202CC5
:103B30005ED11F262B0703D52D2305AA1355B41CD0
:103B40002026EB0700D51036AB0760D52500013CD9
:103B500005AB19570DA8FFF711FC002CF7D1019BFD
:103B6000AB4200D867E731000DA8FFF707FC01352D
:103B7000F5E7552B24D0582B36D0532B00D062E7D5
:103B8000049B1E681A1D3300049200229A569C1B47
:103B90000133002AF9D1AB0704D4019B651C9C4278
:103BA00011D32C0000217156002912D1019BA34290
:103BB00000D840E720210DA8FFF7E0FB0134F5E72E
:103BC0000A22029293E720210DA8FFF7D7FB2C00D1
:103BD000E3E70DA80136FFF7D1FBE3E70021049BE3
:103BE0001A1D049259562EE71022EAE70822E8E748
:103BF00026008EE7039B591892E731000DA8FFF7C6
:103C0000BDFB2B00019A5D1C9342F6D39FE7230076
:103C1000F8E70DA8FFF7CDFB20B0F0BC08BC03B05F
:103C20001847000010B583B27F2810D90B4A002333
:103C300090420CD8B622FF32914208D1084C59006C
:103C4000615A9AB2814204D113008033DBB218006A
:103C500010BD0133802BF2D11A00F5E7FFFF000001
:103C6000CC6200007F280AD9B623FF33994207D1DE
:103C7000FF2805D8034BC018034B4000185A704763
:103C80000020FCE780FFFF7FCC620000204BF0B5F6
:103C90000400984220D81F4A83B21F49904200D99D
:103CA0001E49FF260A88002A15D0934213D30431F7
:103CB000881E0588280A3540AF18BC4223DA082838
:103CC00009D8FCF7E5F9050B11131517191B1D0091
:103CD000A21A5200535A1C002000F0BD01219A1A6A
:103CE0000A409B1A9BB2F6E7103BFBE7203BF9E743
:103CF000303BF7E71A3BF5E70833F3E7503BF1E7D2
:103D0000074A9B18EEE70028CCD16D004919C9E796
:103D1000FFFF0000FF0F00001E60000010620000A7
:103D2000A0E3FFFFF0B5022087B000F043FB1021B5
:103D3000012000F0C9FC052000F0D3FDFDF7E6FAF4
:103D4000FCF760FFFDF732F8FDF72CFAFDF7A0FA5B
:103D50000021CC48FCF774FE0021CB48FCF770FE34
:103D600000210390C948FCF76BFE1D22C84B02904E
:103D7000049304AB9A80C74BC74C1B782200009376
:103D8000C6495B230320FDF735F8C54E01223100FB
:103D9000C448FFF7A1F8C44D28700D2800D01AE1DF
:103DA00063232200C1490A38FDF724F880235B0110
:103DB00000930022BE4B01213000FFF751FB672327
:103DC000287022000090BB490320FDF713F82F78DC
:103DD000002F00D0F8E06B232200B7490320FDF745
:103DE00009F8012231003800FFF776F80122287027
:103DF0003100AC48FFF770F82870A74C87232200E9
:103E0000AE490320FCF7F6FFAD4F0A22AD4938005A
:103E1000FFF788F8A44B1870002800D0F9E08B2336
:103E20002200A9490330FCF7E5FFA84EA84D330056
:103E30001A2229003800FFF7E2F99B4B187000287E
:103E400000D0E1E0336822000093A24990230330C0
:103E5000FCF7D0FF912322009F4900950320FCF737
:103E6000C9FF9748FFF7EEFAA02322009B490320E1
:103E7000FCF7C0FF924D012292492800FFF752F84B
:103E8000894F3870002800D0CFE0A4232200944945
:103E90000330FCF7AFFF80228C4ED20033009149F3
:103EA0002800FFF713F93870002800D0B8E0336815
:103EB000220000938C49A8230330FCF79BFF894B19
:103EC00022000093A92389490320FCF793FF2800CF
:103ED000FFF7B8FA012272490020FEF7FDFF844B7C
:103EE000844AFF261A60844B844A1A6000F090FDD1
:103EF0004022834B1A60002202981100FCF7BCFD9F
:103F0000041EF8D1142000F0ECFC220021000298DD
:103F1000FCF7B2FD021EEED104A90398FCF7A2FD46
:103F200001225F495F48FEF7D7FF5F4D28700028E8
:103F300005D1CB23584A73490330FCF75BFF604F30
:103F40000A2271493800FEF7EDFF2870002815D1CC
:103F5000514CD02322006D490330FCF74BFF6C4AD3
:103F60006C493800FFF75AFDC3B22B70002B63D1A8
:103F7000D433220068490320FCF73CFF674C2578C6
:103F8000012D69D14E4F664A66493800FFF746FD5C
:103F9000454BC0B21870404A002856D05E49E22313
:103FA0000320FCF727FF3800FFF74CFA2A003C49B2
:103FB0000020FEF791FF5C4D5948297800F002FD82
:103FC00000232B70237096E77323220057490320A8
:103FD000FCF710FFFEE700280FD07A232200544997
:103FE00000900120FCF706FFFDF708F87C23220073
:103FF00050490120FCF7FEFEFEE7822322004E49D5
:104000000320FCF7F7FEF8E60090952322004B49C9
:1040100024E79C2322004A490320FCF7EBFE23E718
:104020000090AD23220047494EE7B22322004649C3
:104030000320FCF7DFFE4AE730400090D82322003F
:1040400042490120FCF7D6FE98E70090E8233F495B
:104050002800FCF7CFFEAEE7142000F042FC3C4AFB
:1040600013780133DBB213700A2B87D900252C4853
:10407000157029001F2200F084FD2B4B25701D7048
:104080007CE7C046FA630000425E0000C65C0000A8
:10409000AA4100204110004006640000186400009E
:1040A0004964000030480020645800204C6400003F
:1040B00087580020B0640000DD6400003A6600000C
:1040C0000448002095660000A06600002C480020EF
:1040D00090410020156700005C670000FF6700004A
:1040E000456800000244002071680000C7680000B5
:1040F00088680020984200208C680020D842002068
:1041000000E100E078690000A7690000B1690000E3
:10411000DF690000E5690000E869000084580020BC
:1041200065580020586A0000855800201965000075
:104130004B6500009B650000E4650000906700008F
:10414000C96700001169000049690000186A000091
:10415000865800200F2210B5114B1B781340042BFA
:104160000BD0062B08D10F4B0F4A1B7884230F4925
:104170005B000320FCF73EFE10BD0D4A0D4912788E
:104180000D480B78D2B2C2540C480478002CF3D1FD
:104190000A2A02D101230370EEE701330B70EBE72B
:1041A000043000400530004006640000CC6300008D
:1041B00008300040855800206558002084580020B1
:1041C000024B18784007C00F7047C0460A100040E5
:1041D000572288210A4B10B51A7051321A70094AB9
:1041E000118004220849088802430A8000220A201C
:1041F0001A7000F04BFB012000F09EFA10BDC04683
:1042000040100040081000404810004057220A4B60
:104210000A491A7051321A700878A43A02430A7097
:1042200000221A709623DB00C046C046C046C04636
:10423000013B002BF8D17047401000400A100040AD
:104240005722084B08491A7051321A700878A03A60
:1042500002430A7000221A70C046C046C046C046DB
:104260007047C046401000400A10004057220A4BD9
:104270000A491A7051321A700878983A02430A7043
:1042800000221A70064BC046C046C046C046013BDD
:10429000002BF8D17047C046401000400A10004083
:1042A000B80B00000D4B10B51988C02389B20B4024
:1042B000802B0DD0402B05D1213B09481940FBF73D
:1042C0007BFF10BD002B05D11F3319400548F6E7D1
:1042D0000448F6E7FA20C001F3E7C04608100040A2
:1042E00000389C1C0048E80110B5002926D0214A5E
:1042F000002816D15721204B1970513119701478AC
:10430000A6392143117018707F2013781178DBB221
:104310001C0081438443A142F7D15BB2002BF4DA45
:1043200010BD0128F0D15721134B1970513119706C
:1043300011780843002110701970E5E700280BD1AF
:10434000572202240C4B0B491A7051321A700A780A
:10435000A2430A701870E3E70128E1D15722064B07
:10436000044C1A7051321A702278824322701970EC
:10437000D6E7C0462F1000404010004010B5012184
:104380000400FFF7B1FF5722084B04211A70513285
:104390001A70074A1078002C04D18843107000224C
:1043A0001A7010BD01431170F9E7C046401000407B
:1043B0002F10004070B5624C0C284AD85726614D2A
:1043C000FBF766FE0710121F2B374A566476889A51
:1043D000AC000020FFF7D2FFA82326702370203303
:1043E0002B8036E00120F5E7FFF7EAFE002801D137
:1043F000FFF70CFF5723237051332370E133FF3352
:10440000EEE7FFF7DDFE002801D1FFF7FFFE57239F
:104410002370513323704C4BE2E7FFF7D1FE0028A5
:1044200001D1FFF7F3FE57232370513323705D331F
:10443000E5E7464E33781B0701D4FFF701FF57230A
:10444000237051332370203B04222B803378934315
:1044500033700023237070BD3C4E33781B0701D4AA
:10446000FFF7EEFE5723237051332370A63BEBE793
:10447000364E33781B0701D4FFF7E2FE57230422A0
:104480002370513323702A803378E0E7FFF798FEDA
:10449000002801D1FFF7BAFE2C4B1B78DB0601D4B4
:1044A000FFF7E4FE5723237051332370A533A6E7AB
:1044B000FFF786FE002801D1FFF7A8FE234B1B78EB
:1044C000DB0601D4FFF7D2FE57232370513323704C
:1044D0001F4B85E7FFF774FE002801D1FFF796FE1A
:1044E0001A4B1B78DB0601D4FFF7C0FE572323705D
:1044F00051332370AD3382E7FFF762FE002801D10C
:10450000FFF784FE114B1B78DB0601D4FFF7AEFEEC
:104510005723237051332370B13370E7FFF750FEF8
:10452000002801D1FFF772FE084B1B78DB0601D48F
:10453000FFF79CFE5723237051332370054B4FE741
:104540004010004008100040020200000A10004025
:104550004F0200005E02000010B5030004291DD8C0
:104560000800184A1849FBF793FD030E1A23290087
:10457000D8430C6804400C6014490B6803400B607E
:104580001368034009E0DC430868204008600F48D6
:1045900001680B43036013682340136010BD086873
:1045A0000A4C18430860D843216801402160E7E7BE
:1045B00008689843086011680B43EEE708681843E1
:1045C000F8E7C046A0100040B4100040B010004012
:1045D00010B5030004291DD80800184A1849FBF734
:1045E00057FD030E1A232900D8430C6804400C60C1
:1045F00014490B6803400B601368034009E0DC4377
:104600000868204008600F4801680B430360136886
:104610002340136010BD08680A4C18430860D84353
:10462000216801402160E7E7086898430860116845
:104630000B43EEE708681843F8E7C046C010004097
:10464000D4100040D01000400821F0B5174A184B94
:104650001078084206D15720187051301870107821
:104660000143117005255720A827124C18701F70A0
:104670002580114D114E2C8834402C801024157843
:10468000FA262C431470002201241A70F6000C4DF7
:104690002978214008D10132B242F8D9094D187069
:1046A0001F702C701970F2E70022F1E70A10004029
:1046B000401000400810004020100040FFF9FFFFAC
:1046C0002610004046100040F0B55727A826164A8D
:1046D0004BB21770154D164C1670002813D1002BD5
:1046E00004DA022313480678334303701C202B7826
:1046F0000840834303202B70237801408B432370B1
:1047000000231370F0BD002B04DA0226094801785B
:10471000B14301701C2128781940014303202970FE
:10472000217803400B43EAE7401000400A100040A4
:104730002F1000400F100040F8B55727A8260C4C4A
:104740000C4D27702670002802D128702070F8BD0B
:104750000120094B187000232870237000F096F890
:104760000D23277026702B7000232370EFE7C046BF
:104770004010004024100040251000400422084B47
:104780001A70084B023A1A705E321A70064B503A91
:1047900019780A4301211A701A788A431A707047EF
:1047A000034000400040004001400040064B4022D2
:1047B0001978022804D10A431A70044B1870704704
:1047C00091431970F9E7C0460140004003400040A2
:1047D00000B503280DD80F4A08210F4BFBF758FCF2
:1047E000020A1115107888431070202219780A43A4
:1047F0001A7000BD10788843107020211A788A43FF
:10480000F6E7107801431170EFE71078014311705B
:10481000F3E7C04600400040014000401021064A36
:1048200013788B431370054B0549187040230A78A1
:104830001A42FCD07047C04600400040044000408F
:1048400006400040102310B50B4A14782343137020
:1048500001220A4B19800A4B1A700A4B0A4A002996
:1048600000D110BD1C78002CF9D0147801390470E7
:1048700089B20130F3E7C046004000400C400040E0
:1048800006400040074000401040004080B584B022
:1048900000AF0200BB1D1A800C23FB1800221A80F7
:1048A00014E00E23FB1802221A8001E0C046C04625
:1048B0000E22BB181B88BA18591E1180002BF5D187
:1048C0000C217B181A887B1801321A800C23FA18E5
:1048D000BB1D12881B889A42E3D3C046BD4604B074
:1048E00080BD70B5FA2605000024B600AC4200D1A8
:1048F00070BD30000134FFF7C9FFA4B2F6E7000035
:104900000B0030B5064C074D581A824201DC1000EE
:1049100030BD20780828FCD0187801332870F3E7E0
:104920000B3000400830004070B505000A24FFF746
:10493000B9FC60432900C008FBF7B4FB2100053037
:10494000FBF7B0FB014B80B2188070BD0C3000400B
:10495000E12010B54002FFF7E7FF8722054B1A70F0
:10496000054B843A1A70054B3D321A70044B3F3A9E
:104970001A7010BD0230004003300040013000408A
:104980000E3000403F21044A800113780B40184349
:10499000C0B210707047C04602300040074B1A7812
:1049A000002807D0114319700823054A11780B43DA
:1049B000137070478A431A70FBE7C046013000400D
:1049C0000030004010B5074B074A002900D110BD48
:1049D0001C78082CF9D004780139147089B20130A0
:1049E000F3E7C0460B30004008300040002330B5EC
:1049F000054C064D21789AB2002901D1100030BD36
:104A00002A78C2540133F5E70A30004008300040EC
:104A10000021CC231C4A1D4810B5117003701C489E
:104A20001C4C03701C4B1D481B689BB203801C4B25
:104A30001C481B689BB203801B4B1C481B689BB225
:104A400003801B4B1B481B689BB2038002201A4B40
:104A5000187012232370194C2370194C2370194BB2
:104A60001870194B197029231370FF22174B1A70F5
:104A70008023174A11880B4313808122154B1A702B
:104A8000154B7A3A1A7010BD008000400C8000402F
:104A90000D80004026800040886800201080004083
:104AA0008C6800201480004090680020188000402E
:104AB000946800201C800040228000402A80004032
:104AC0002E8000403280004003800040068000407D
:104AD0001A100040018000400280004012488546C4
:104AE00012480168090E124A914205D11148124933
:104AF0000160124812490160002103E0114B5B582C
:104B0000435004311048114B42189A42F6D3104AD0
:104B100002E00023136004320E4B9A42F9D3FFF7F0
:104B200057FBFFF7FFF8FEE70080002004000000BD
:104B30001F000000181002400100000000000140AA
:104B400000000000F46A0000004000202C42002019
:104B50002C420020A8680020FEE7000010B5034B9F
:104B60000100186800F060F810BDC046C841002080
:104B7000002310B59A4200D110BDCC5CC45401335F
:104B8000F8E703001218934200D1704719700133FF
:104B9000F9E7000070B50500002910D00C1F23684C
:104BA000002B00DAE418280000F099F91D4A136878
:104BB000002B05D163601460280000F091F970BDEE
:104BC000A34209D9216860188342F3D118685B6851
:104BD00041182160EEE713005A68002A01D0A24272
:104BE000F9D919685818A0420BD12068091858182B
:104BF00019608242E0D110685268411819605A6009
:104C0000DAE7A04202D90C232B60D5E721686018AF
:104C1000824203D1106852684118216062605C6072
:104C2000CAE7C04698680020032370B5CD1C9D4399
:104C3000083506000C2D1ED20C25A9421DD83000C7
:104C400000F04DF9254A14682100002919D1244C9F
:104C50002368002B03D1300000F044F820602900C5
:104C6000300000F03FF8431C2BD10C2330003360A0
:104C700000F036F903E0002DDFDA0C23336000206A
:104C800070BD0B685B1B19D40B2B03D90B60CC18C0
:104C9000256003E04B688C420DD11360300000F0BA
:104CA0001FF9200007220B30231D9043C31AE7D0C1
:104CB0005A42E250E4E763600C00EFE70C004968F9
:104CC000C3E70323C41C9C43A042E1D0211A300057
:104CD00000F008F8431CDBD1C7E7C0469868002005
:104CE0009C680020002370B5064C05000800236076
:104CF00000F08AFE431C03D12368002B00D02B60F8
:104D000070BDC046A4680020094B70B51C68050042
:104D10000E00002C05D0A369002B02D1200000F06A
:104D20004BF833002A00A168200000F001F970BDA3
:104D3000C8410020002310B5040003604360836075
:104D400081814366C2810361436183611900082246
:104D50005C30FFF716FF054B24626362044BA362CD
:104D6000044BE362044B236310BDC046495400006A
:104D700071540000A9540000D554000010B5024938
:104D800000F08CF810BDC046D957000070B56825FA
:104D90004A1E55430E0029007431FFF745FF041EDB
:104DA00008D000212A00016046600C30A060683203
:104DB000FFF7E7FE200070BD836913B50400002BE8
:104DC00028D18364C3640365134B144A1B68826251
:104DD0000193984201D101238361200000F020F863
:104DE0006060200000F01CF8A060200000F018F8BF
:104DF0000022E06004216068FFF79CFF0122092186
:104E0000A068FFF797FF02221221E068FFF792FFE8
:104E10000123A36113BDC046BC6A00007D4D0000A4
:104E2000F8B51C4B07001E68B369002B02D1300097
:104E3000FFF7C2FF4836B4687368013B04D5336896
:104E4000002B07D03668F6E70C22A55E002D0DD0AA
:104E50006834F2E704213800FFF798FF306000283B
:104E6000F0D10C2304003B602000F8BD20000A4B69
:104E7000656625606560A560E36025616561A56183
:104E8000082229005C30FFF77CFE6563A563A564FA
:104E9000E564E9E7BC6A00000100FFFFF7B5040024
:104EA0000700002601914834002C01D13000FEBDDE
:104EB0006368A5680093009B013B009301D52468BB
:104EC000F2E7AB89012B08D90E22AB5E013304D087
:104ED00029003800019B984706436835EBE7704787
:104EE0007047936810B5013B9360002B04DA946916
:104EF000A34207DB0A2905D01368581C10601970FB
:104F0000080010BD00F0ECFA0100F9E7F8B5060062
:104F10000F001400D518AC4201D1002007E0217821
:104F20003A003000FFF7DDFF0134431CF3D1F8BD38
:104F3000F0B59FB002900F0016000593002805D031
:104F400083690493002B01D1FFF736FF7B4B9F420F
:104F50005BD1029B5F68BB891B0762D53B69002B55
:104F60005FD0002306AC6361203363761033A376F1
:104F700035002B78002B01D0252B5CD1AB1B049383
:104F80000CD0320039000298FFF7C0FF431C00D15B
:104F9000C4E06269049B9446634463612B78002BF0
:104FA00000D1BBE0012200235242626002A95432C8
:104FB00052186E1C2360E360A3601370A365317800
:104FC00005225F4800F0B4FC751C002835D122682A
:104FD000D30604D5532302A95B18202119701307A7
:104FE00004D5532302A95B182B21197033782A2B7F
:104FF0002CD0350000210A20E3682A786E1C303A54
:10500000092A64D900292ED026E04E4B9F4202D1B6
:10501000029B9F689FE74C4B9F429CD1029BDF689D
:1050200099E73900029800F0C5FA002899D00120CC
:1050300040421FB0F0BD01359BE7414B2268C01ACA
:1050400001238340134323602E00B8E7059B191DFD
:105050001B680591002B01DB099304E05B42E360D0
:105060000223134323602B782E2B0AD16B782A2B33
:1050700035D1059B02351A1D1B680592002B2BDBD1
:105080000793324E29780322300000F051FC0028AB
:1050900006D04023801B83402268013513432360E0
:1050A000297806222A486E1C217600F041FC00284F
:1050B0003AD0284B002B25D10722059B0733934379
:1050C000083305936369039A9B18636150E7434370
:1050D00001219B18350090E701235B42D0E70023B4
:1050E0000A201A000135636029786E1C30390929BD
:1050F00003D9002BC5D00792C3E7424301235218BE
:105100003500F1E705AB00933A00134B21000298FC
:1051100000E000BF0390039B0133D3D1BB895B0642
:1051200000D584E70B9884E705AB00933A000A4B5F
:105130002100029800F080F8ECE7C0467C6A00008D
:10514000C06A00009C6A00005C6A0000C66A000039
:10515000CA6A0000000000000D4F0000F7B51500FE
:1051600001938A680B6900900C00934200DA1300E7
:1051700022002B6043321278002A01D001332B60C9
:1051800023689B0602D52B6802332B600627236811
:105190001F4027D0230043331B785A1E93412268B7
:1051A000920630D42200019943320098089EB047FD
:1051B000431C25D0062320682A68E16803400025A7
:1051C000042B03D18D1AEB43DB171D40A368226922
:1051D000934201DD9B1AED180027BD4220D100202B
:1051E00010E00137E3682A689B1ABB42D2DD220037
:1051F0000123193201990098089EB047431CF0D151
:1052000001204042FEBD3020E118433108702100EA
:105210005A1C45310978A218433202331170C1E794
:10522000220001231A3201990098089EB047431CBE
:10523000E6D00137D1E70000F0B589B004920A004A
:1052400043320593039002920A7E0C000E9B6E2A55
:1052500000D186E01FD8632A33D008D8002A00D1B5
:105260008CE0582A4DD0250042352A7030E0642A5F
:1052700001D0692AF7D1196825680A1D280629D5A1
:1052800008681A60002803DA2D23029A404213703E
:105290006B4E0A274FE0732A74D008D86F2A1FD0AC
:1052A000702AE0D1202209680A43226003E0752AAF
:1052B00016D0782AD7D12200782145321170614E5C
:1052C00022E025001A684235111D196013682B7001
:1052D000012365E008681A606906D3D500B2D1E7FA
:1052E00019682568081D186008682E0605D5544EF3
:1052F00008276F2A1BD00A2719E06D06F7D580B260
:10530000F5E745314E4E0A7018682268011D0068A5
:105310001960150621D5D30702D520231A43226030
:105320001027002803D1202322689A4322602300FB
:10533000002243331A706368A360002B58DB0422F9
:10534000216891432160002854D1029D002B5AD03E
:105350002500337842352B7055E05506DBD580B2F9
:10536000D9E71A680D68101D4969186013682E0680
:1053700001D5196002E06D06FBD519800023029D5E
:1053800023614FE01A68111D1960156800216268D9
:10539000280000F0CDFA002801D0401B606063684F
:1053A00023610023029A13703CE023692A000499C8
:1053B0000398059DA847431C3ED023689B0715D43E
:1053C000079BE068984239DA180037E02200012391
:1053D000193204990398059EB047431C2CD001351F
:1053E000E368079A9B1AAB42F0DCE9E70025F7E790
:1053F0000028ADD0029D3900FAF7DAFE735C013D5A
:105400002B700028F7D1082F09D12368DB0706D5B8
:1054100063682269934202DC3023013D2B70029BBA
:105420005B1B2361059B07AA00932100049B039843
:10543000FFF794FE431CB8D10120404209B0F0BDF3
:10544000D16A0000E26A000070B50C000E25495FC9
:1054500000F07AFA002803DB636D1B18636570BDEA
:10546000A389024A1340A381F9E7C046FFEFFFFF7B
:10547000F8B51F008B8905000C001600DB0505D56B
:105480000E23C95E0022022300F0D2F9A389054A47
:1054900028001340A38132000E23E15E3B0000F0A0
:1054A00075F8F8BDFFEFFFFF70B50C000E25495FE2
:1054B00000F0BEF9A389421C03D1054A1340A38121
:1054C00070BD802252011343A3816065F8E7C04696
:1054D000FFEFFFFF10B50E23C95E00F0E1F810BD2D
:1054E000F8B505000E001400002804D08369002BD5
:1054F00001D1FFF761FC224B9C422DD16C68A3695E
:10550000A360A3891B0731D52369002B2ED0236804
:105510002269F7B2981A6369F6B2834205DC21006A
:10552000280000F059F9002826D1A3680130013B7A
:10553000A36023685A1C22601F706369834204D0F1
:10554000A389DB071AD50A2E18D12100280000F004
:1055500043F9002812D00FE00A4B9C4201D1AC68FD
:10556000CDE7094B9C42CAD1EC68C8E7210028006E
:1055700000F020F80028CAD0012676423000F8BD9D
:105580007C6A00009C6A00005C6A000070B505003F
:10559000080011000022064C22601A00FFF7B0F943
:1055A000431C03D12368002B00D02B6070BDC04684
:1055B000A4680020364B70B51D6806000C00002D55
:1055C00005D0AB69002B02D12800FFF7F5FB314B6A
:1055D0009C420FD16C680C23E25E93B219072DD464
:1055E000D90611D409230120336037331343A38133
:1055F000404270BD284B9C4201D1AC68EBE7274B81
:105600009C42E8D1EC68E6E75B0713D5616B0029A3
:1056100008D023004433994202D03000FFF7BAFA91
:10562000002363632422A3899343A381002363603F
:10563000236923600823A2891343A3812369002BD4
:105640000BD1A0218022A389890092000B409342B4
:1056500003D02100300000F027F90123A289134074
:1056600011D00023A36063695B42A361002023691A
:105670008342BED10C23E25E1306BAD54023134306
:10568000A3810138B5E7920700D46369A360EDE711
:10569000C84100207C6A00009C6A00005C6A00002F
:1056A000002370B5064C05000800236000F084F963
:1056B000431C03D12368002B00D02B6070BDC04673
:1056C000A4680020F7B58A8905000C00130760D490
:1056D0004B68002B04DC0B6C002B01DC0020FEBDB2
:1056E000E76A002FFAD000232E682B6080235B012D
:1056F000216A1A4034D0606DA3895B0706D56368C0
:10570000C01A636B002B01D0236CC01A0200216AFF
:1057100000232800E76AB847A189431C06D12B68FB
:105720001D2B30D82B4ADA40D3072CD500236360D9
:1057300023692360CB0405D5431C02D12B68002BC1
:1057400000D16065616B2E600029C7D0230044330F
:10575000994202D02800FFF71DFA00206063BEE7DF
:1057600001232800B847431CC6D12B68002BC3D0A7
:105770001D2B01D0162B01D12E60AFE74023A2894B
:105780001343A381ABE740230B430120A381404295
:10579000A5E70F69002FA1D00B680F60DB1B0193F9
:1057A0000023920700D14B69A360019B002B00DC12
:1057B00094E7019B3A00216A2800A66AB0470028B6
:1057C00003DC4023A2891343DFE7019B3F181B1A28
:1057D0000193EAE7010040200B6970B505000C0059
:1057E000002B01D1002070BD002804D08369002B5C
:1057F00001D1FFF7E1FA0B4B9C4209D16C680C22F6
:10580000A35E002BEED021002800FFF75BFFEAE744
:10581000054B9C4201D1AC68F1E7044B9C42EED1B0
:10582000EC68ECE77C6A00009C6A00005C6A00009F
:1058300070B50500080011000022064C22601A0015
:1058400000F0D2F8431C03D12368002B00D02B605A
:1058500070BDC046A468002070B50E001D000E2368
:10586000C95E96B01400002907DA00232B60B389C3
:105870001B0611D48023DB000FE06A4600F078F8A5
:105880000028F2DBF022019B12021340054A9B180C
:105890005A4253412B60EDE740230020236016B0AD
:1058A00070BDC04600E0FFFFF7B502268B890500FA
:1058B0000C00334206D023004733236023610123C9
:1058C0006361F7BD01AB6A46FFF7C6FF00990700A9
:1058D0002800FFF7A9F9002808D10C22A35E9A0539
:1058E000EFD4032293431E43A681E4E70F4BAB6240
:1058F0008023A28920601343A381009B2061636100
:10590000019B002B0DD00E23E15E280000F042F831
:10591000002806D00322A38993431A0001231343CE
:10592000A381A0893843A081CBE7C0467D4D00000C
:10593000C9B28218904201D10020704703788B428F
:10594000FBD00130F6E7000070B50500080011003B
:105950000022064C22601A0000F04EF8431C03D1CE
:105960002368002B00D02B6070BDC046A4680020C7
:10597000002370B5064C050008001100236000F0FC
:1059800023F8431C03D12368002B00D02B6070BD8B
:10599000A4680020002370B5064C050008002360B1
:1059A00000F01AF8431C03D12368002B00D02B60B1
:1059B00070BDC046A468002058220120014B40421F
:1059C0001A607047A468002058220120014B404211
:1059D0001A607047A46800205822024B00201A6009
:1059E0007047C046A468002058220120014B404265
:1059F0001A607047A468002058220120014B4042E1
:105A00001A607047A4680020044A1368002B00D174
:105A1000034B1818106018007047C046A06800209B
:045A2000A868002052
:105A24002E2E2F68616C2F68616C5F6C65642E6329
:105A3400001B5B303B33316D5B4552524F525D204E
:105A4400252D313773282564293A2573207265641E
:105A54006566696E6974696F6E210A1B5B306D003F
:105A64002E2E2F68616C2F68616C5F6B65792E63D5
:105A7400002E2E2F68616C2F68616C5F7370692E25
:105A840063001B5B303B33346D5B44454255475DDB
:105A940020252D313773282564293A66696E6420E0
:105AA4003A2025730D0A1B5B306D002E2E2F686182
:105AB4006C2F68616C5F6465766963652E63001B97
:105AC4005B303B33316D5B4552524F525D20252D87
:105AD400313773282564293A48414C2050415241BA
