:1000000000800020DD380000713500005939000003
:1000100000000000000000000000000000000000E0
:10002000000000000000000000000000593900003E
:10003000000000000000000059390000593900009C
:100040005939000059390000593900005939000068
:100050005939000059390000ED0C000059390000F1
:100060005939000059390000593900005939000048
:100070005939000059390000593900005939000038
:100080005939000059390000593900005939000028
:1000900002B4714649084900095649008E4402BC21
:1000A0007047C04602B4714649084900095C4900DE
:1000B0008E4402BC7047C04603B4714649084000F4
:1000C0004900095E49008E4403BC70470022430882
:1000D0008B4274D303098B425FD3030A8B4244D310
:1000E000030B8B4228D3030C8B420DD3FF22090252
:1000F00012BA030C8B4202D31212090265D0030B11
:100100008B4219D300E0090AC30B8B4201D3CB0306
:10011000C01A5241830B8B4201D38B03C01A524148
:10012000430B8B4201D34B03C01A5241030B8B424A
:1001300001D30B03C01A5241C30A8B4201D3CB0235
:10014000C01A5241830A8B4201D38B02C01A52411A
:10015000430A8B4201D34B02C01A5241030A8B421D
:1001600001D30B02C01A5241CDD2C3098B4201D335
:10017000CB01C01A524183098B4201D38B01C01AB3
:10018000524143098B4201D34B01C01A524103092A
:100190008B4201D30B01C01A5241C3088B4201D3D9
:1001A000CB00C01A524183088B4201D38B00C01A86
:1001B000524143088B4201D34B00C01A5241411AAD
:1001C00000D20146524110467047FFE701B50020BA
:1001D00000F0F0F802BDC0460029F7D076E770477E
:1001E00003460B437FD4002243088B4274D3030998
:1001F0008B425FD3030A8B4244D3030B8B4228D339
:10020000030C8B420DD3FF22090212BA030C8B425E
:1002100002D31212090265D0030B8B4219D300E0FE
:10022000090AC30B8B4201D3CB03C01A5241830B83
:100230008B4201D38B03C01A5241430B8B4201D333
:100240004B03C01A5241030B8B4201D30B03C01A5C
:100250005241C30A8B4201D3CB02C01A5241830AD6
:100260008B4201D38B02C01A5241430A8B4201D305
:100270004B02C01A5241030A8B4201D30B02C01A2F
:100280005241CDD2C3098B4201D3CB01C01A524196
:1002900083098B4201D38B01C01A524143098B421F
:1002A00001D34B01C01A524103098B4201D30B0108
:1002B000C01A5241C3088B4201D3CB00C01A52412D
:1002C00083088B4201D38B00C01A524143088B42F2
:1002D00001D34B00C01A5241411A00D2014652418B
:1002E000104670475DE0CA0F00D04942031000D3AA
:1002F0004042534000229C4603098B422DD3030AFF
:100300008B4212D3FC22890112BA030A8B420CD30E
:10031000890192118B4208D3890192118B4204D337
:1003200089013AD0921100E08909C3098B4201D3B7
:10033000CB01C01A524183098B4201D38B01C01AF1
:10034000524143098B4201D34B01C01A5241030968
:100350008B4201D30B01C01A5241C3088B4201D317
:10036000CB00C01A524183088B4201D38B00C01AC4
:100370005241D9D243088B4201D34B00C01A52419B
:10038000411A00D20146634652415B10104601D328
:100390004042002B00D54942704763465B1000D3B2
:1003A000404201B5002000F005F802BD0029F8D058
:1003B00016E770477047C04600B50F280CD8184B99
:1003C000FFF770FE08080B0B2A2A080B0B151E15E9
:1003D000081E1E2A00221A7000BD03221149087847
:1003E00002430A700121104A11700222F3E70C2225
:1003F0000C49087802430A7001220B490A70EAE7A7
:100400000321084A10780143012011700649087041
:100410000C2110780143E7E7024903220878E9E755
:100420008040002026800040484100200022084BE8
:1004300010B51A70074B05321A70074B1B321A7031
:10044000064B1F3A0F201A70FFF7B6FF10BDC046CB
:1004500082400020DA410020D94100208040002065
:10046000084B1A68082A01D908221A60064B074A65
:100470001A600023064A1370064A1370064A137066
:100480007047C0464C410020E0410020484A00002F
:1004900080400020DA410020D9410020084B094A61
:1004A0001A60094B1A68242A01D924221A600023F1
:1004B000064A1370064A1370064A13707047C04606
:1004C000E0410020504A00004C41002080400020C4
:1004D000DA410020D94100200F49104ACB8A5BBA8B
:1004E0009BB21B0313608A7C4B7C12021A43CB7CA9
:1004F0001B041A430B7D1B0613431BBA084A1B033C
:1005000013600023074A1370074A1370074A1370D9
:100510000122074B1A707047544100204C410020C3
:100520005041002080400020DA410020D9410020C5
:10053000E441002010B50C4B5B7C3F2B10D10B4BE2
:100540001A680C2A01D90C221A60094B094A1A6050
:100550000023094A1370094A1370094A137010BD29
:10056000FFF764FFFBE7C046544100204C410020E8
:10057000E0410020D54A000080400020DA41002000
:10058000D941002070B5134C134D26782A78134BAF
:1005900013481449324315D00022227070241C8065
:1005A000114C2E702478DA709C70A02424055C60B5
:1005B0000E4C9A6024785A731C73DA811A82036095
:1005C0000A7070BD70241C60A02424055C609A60D1
:1005D000DA60F3E748410020D84100205441002070
:1005E000E041002080400020DA410020D941002075
:1005F0000023054A1370054A1370054A1370054A13
:100600001370054A1370704781400020824000201B
:1006100080400020DA410020D94100200023034A15
:100620001370034A1370034A137070478040002010
:10063000DA410020D941002070B50026134A144940
:10064000D38AD47D5BBA9BB21B030B60917C537C35
:1006500009021943D37C0F4D1B041943137D1B065C
:100660000B431BBA1B032B60F3B2A34207D3002337
:10067000094A1370094A1370094A137070BD2B6838
:100680003003C01802F032FC0136EDE7544100207F
:100690004C4100205041002080400020DA410020E1
:1006A000D941002010B50C4B5B7C3F2B10D10B4B7C
:1006B0001A68102A01D910221A60094B094A1A60D7
:1006C0000023094A1370094A1370094A137010BDB8
:1006D000FFF7ACFEFBE7C046544100204C41002030
:1006E000E0410020C54A000080400020DA4100209F
:1006F000D941002010B5244BD87B2A2825D81928A9
:1007000015D8032834D0122826D000282AD0052254
:100710001E4B0E201A701E4B1B321A701D4B1F3AB7
:100720001A7000221C4B1A70FFF746FE16E01A38AA
:100730001028ECD8FFF7ACFC2516EBEB22EBEBEB2B
:10074000EBEBEB1FEBEB19EB13002F2816D05A281D
:10075000DDD1FFF7A7FF01E0FFF7A0FE10BDFFF717
:100760006BFFFBE7FFF744FFF8E7FFF7B5FEF5E7A0
:10077000FFF708FFF2E7FFF773FEEFE7FFF74EFF23
:10078000ECE7FFF7D7FEE9E754410020DA4100200B
:10079000D94100208040002082400020184B10B535
:1007A0001A78552A26D15A78532A23D19A78422A80
:1007B00020D1DA78432A1DD19A68124912BA0A6008
:1007C0001879114908705879487098798870D879E3
:1007D000C870002A08D01A7B0C49D343DBB2DB096E
:1007E0000B700B4BD2091A7001220A4B1A70FFF7DB
:1007F00081FF10BD0323084A11780B431370F8E7FB
:10080000544100204C410020DB4100208140002069
:1008100082400020834000202680004000231649AB
:1008200010B50B701549164A0B7016491648116021
:10083000164902600C7814714C7854718C7894715C
:10084000C9781381D1711249098849BA5181114976
:10085000097811731049026814780132CC540133BD
:1008600002600D2BF7D103210C4A13700C4A137848
:100870008B43137010BDC04683400020824000208F
:100880005441002055534253E0410020DB410020F9
:100890004C4100208040002008410020248000407E
:1008A00026800040F8B5194D2C68402C13D9403CE7
:1008B0002C6040240023164E32789A4211D11549FB
:1008C0001548DAB2944219D90A6815780132C5542C
:1008D0000A600133F5E70023104AE4B22B6013707D
:1008E000E8E70F4F0C4A3868A1B202F0A1FB3B6861
:1008F0001B193B602B68002B00D133700321094B7F
:10090000094A1C7013788B431370F8BD4C410020CA
:10091000E4410020E0410020084100208240002006
:1009200050410020248000402680004070B50F4BCD
:100930000F4A1C7800230F48E4B2D9B28C4211D17F
:100940000D4DA1B2286802F025FB2B681B192B6006
:100950000A4B1A68141B1C6003D1094B1C70FFF76B
:100960005DFF70BDC15CD1540133E6E708800040F3
:1009700098410020C8400020504100204C410020F8
:1009800081400020F7B5AF4B022219780C00C8B2A5
:100990001440114200D189E13F20AB490B7803405C
:1009A000202B00D1DCE009D8002B00D10AE1012B7B
:1009B00000D10AE10223A34A1370F7BD212B00D115
:1009C00031E1302BF6D1C222A04B1A70A04A127826
:1009D0000193082A68D19F4A9F4C13689F4DD9798B
:1009E0009879090201432180587828701D78009574
:1009F0006025009F009E2F402E4228D0FE2814D153
:100A0000012901D9012323802688351C402E00D9D5
:100A10004025934FADB22A003900924802F0B2FF50
:100A2000914B761B7D1926801D606B4600211B783B
:100A30005BB28B4207DA23881A1C402B00D9402274
:100A40009B1AD1B22380894B1970C0232DE00A284C
:100A50002AD8FFF727FB7B572929294806294B531A
:100A60007900DA789878120210437F4D120A022A30
:100A70001ED0032A20D0012A26D17D4A2A601222C4
:100A800090B2914200D920802288161C402A00D9B9
:100A90004026B6B232001800296802F073FF2B68B6
:100AA0009E192E60FF2FC0D1CF23019A137081E7CA
:100AB000704A2A602022E3E7FF263040012806D052
:100AC000022808D000280AD00022FF27D8E76A4A67
:100AD0002A600E22D4E7694A2A600C22D0E7684ACD
:100AE0002A600422CCE79B7823809EE7654A12782F
:100AF0001A702388012B98D90123F5E79A78614B66
:100B00001A7092E71F2200990A40022ACCD11B7961
:100B1000012B13D0812BC7D143205B490B78834332
:100B20001A430A70594B1B78002B01D0FFF776FE51
:100B3000574B584A197811700022E1E77321524A45
:100B400013780B401370EDE70022D1E700211970F4
:100B5000136859702388022B00D866E70223C3E785
:100B60003E4B3A4C1B78052B1FD0062B27D13A4F12
:100B70003A88131C402A00D940239EB2DBB23A4D7A
:100B80000093344B32001868296802F0FBFE3B8862
:100B9000009A9B1B3B802B689E19344B2E601A7069
:100BA000402322785340237004E77F203A490B7892
:100BB00083432948007803430B702270FAE6002330
:100BC0002A49F9E7214B1A70F4E60B785B0600D44A
:100BD000F0E6324C2378002B02D0FFF7A7FEE9E6BF
:100BE0001B4A1278D1B2002A00D1E3E62C482D4DE1
:100BF000EA5C1A540133DAB29142F9D1FFF7CEFD23
:100C00002378002B00D0D5E6274B1B78002B02D091
:100C1000FFF748FECEE61E4B1B78002B00D0C9E63E
:100C2000FFF7FCFDC6E6204B1B78002BF0D1174BDD
:100C30001B78002BF4D1032013490B7883431A430C
:100C40000A70B7E60680004007800040228000401E
:100C50000880004058560020964100209441002012
:100C6000744A000088400020E841002020800040B5
:100C7000954A0000754A0000AB4A0000B94A0000DE
:100C8000A74A0000844000202680004083400020C6
:100C900048410020D84100200380004081400020CE
:100CA00054410020C8400020824000200121084219
:100CB0000AD00A4804700A4802701220094A1070CB
:100CC0001A781143197078E60422104203D00649BD
:100CD00009781A7071E618706FE6C046038000400C
:100CE00022800040268000400580004010B5FFF7BC
:100CF00049FE10BD10B50400064802F081FF012036
:100D0000002C06D102F0B6F9034BC018431E9841DF
:100D1000C0B210BDE14A0000EA10FFFF10B50400A8
:100D2000074802F06DFF0120002C07D1054802F0B2
:100D300067FF02F0C9F92000FFF7DCFF10BDC046D5
:100D4000ED4A0000FD4A000070B505000C480C009B
:100D5000160002F0C9FE002D10D1022C07D0032C82
:100D60000AD0012C06D1C023DB00336002E08023CF
:100D70005B013380280070BD0123F6E70425F9E705
:100D8000104B000070B5150006000C00054802F07D
:100D9000ABFE32002900200002F04AF9024802F0BE
:100DA0002FFF70BD244B0000494B0000F8B5050033
:100DB00008480F0016001C0002F022FF002D07D18A
:100DC00024033800A2B23103FFF7DCFF2800F8BD8E
:100DD0000425FBE7524B000070B5150006000C001F
:100DE000074802F081FE32002900200002F0D2F80C
:100DF000044802F005FF142002F020FD70BDC0463B
:100E00005C4B0000824B000010B504000100054857
:100E100002F06AFE200002F069F8034802F0F0FEDA
:100E200010BDC0468C4B0000A74B0000F8B5060073
:100E30000A480F0015001C0002F0E2FE002E0BD144
:100E40002D0328002403FFF7DFFF29003800A2B29A
:100E5000FFF7C2FF3000F8BD0426FBE7B14B0000EE
:100E6000C37882781B02134342781B020078134335
:100E70001B02184370470B0A017043700B0C090EDC
:100E80008370C17070478218017001309042FBD1AD
:100E9000704730B500230500013AEC5CC85C201AAD
:100EA0009A4202D001330028F7D030BD826902395E
:100EB000023A030000208A4203D958894143D86A84
:100EC000081870470100030000200B314208C001E0
:100ED00010431A7801338018C0B28B42F6D17047A4
:100EE000026810B5002A0BD013001978013349B2FB
:100EF000CCB21F2C0CD93A29F7D1911C8B4202D0CD
:100F00000120404205E0127852B2302AF8D1036045
:100F1000002010BD70B504000D00002804D1092385
:100F2000002218002A6070BD0368002BF7D01A78E1
:100F3000002AF4D08188DA889142F0D15878FFF7FE
:100F4000D9FE0122030013401042E8D12268E8E7ED
:100F5000002310B5CC5CC45401339A42FAD110BDC1
:100F6000CA7E10B50400887E12021043032C05D1FE
:100F70004A7D0B7D120213431B04184310BD93B22C
:100F80001B0A8A76CB760378032B03D1120C0A75E1
:100F9000120A4A75704770B5C3780400002B02D15D
:100FA0000025280070BD060034360123310040784A
:100FB000226BFFF73BFF051E10D1226B636AE169CC
:100FC000E070D31A8B42EBD2A378022BE8D15218EF
:100FD00060783100013BFFF729FFE2E70125E0E7F8
:100FE00070B50400236B0D0000208B4211D020004F
:100FF000FFF7D1FF00280CD1210001232A006078DF
:101000003431FFF7D3FE002802D0012501206D42C4
:10101000256370BD002370B5C370013B03630400FA
:10102000FFF7DEFF051E24D1154BE25C154B1202C3
:10103000E35C1343144A1BB293421CD123003433A4
:101040001B78EB2B03D01833DBB2012B15D8200013
:1010500003220E496A30FFF71CFF002807D020004A
:1010600005220B498630FFF714FF002805D1280020
:1010700070BD0425FBE70325F9E70225F7E7C04625
:10108000330200003202000055AAFFFFBC4B0000F3
:10109000C04B00000023F0B50B608DB00E00019234
:1010A000FFF71EFF0B24051E19DBAC4B8200D7583F
:1010B0000134002F13D037600126019C3B78B443E4
:1010C000002B0FD07878FFF715FE30420AD1002CA4
:1010D00005D0042304001C40184200D00A2420003C
:1010E0000DB0F0BD0023E8B23B707870FFF716FE3C
:1010F000C30700D529E1002C01D04307EED400211D
:101100003800FFF787FF022828D13C0008AD2E00E9
:10111000934BF734FB18FF3401930020237883426C
:1011200002D0201DFFF79CFE019B103401C5A34295
:10113000F3D100240325A300F35828000193002BCA
:1011400005D019003800FFF765FF01280FD90134D9
:10115000042CF0D10124042807D1C0E7012404287D
:10116000BDD000230193A04201D90D24B7E73B0075
:1011700040331A78013B1B781202134380221BB2C2
:1011800052019342F1D13B003A004B331B784A3273
:1011900010781B02184300D1C0E00290029BFB6153
:1011A0003B0044331C78631EBC70012BDDD83B0030
:1011B00041331E78B3B27B81002BD6D0731E1E4202
:1011C000D3D13B0046331A78013B1B7812021343FC
:1011D0001AB2079203933B815B06C6D13B004833AA
:1011E0001D78013B18782D02284303D13800543074
:1011F000FFF736FE3B003A0043331B784232127849
:101200001B021A430592B0D0029B63430693039BD3
:10121000DB099B18069A9B1804939842A5D3C51A1C
:1012200031002800FEF752FF0400B5429DD34D4B1C
:1012300098429AD84C4B984200D888E00325019AEE
:10124000019B94463B62049A059B023463446244CA
:10125000BC617B62FA62032D65D13B005F331A7873
:10126000013B1B7812021343079A1A4313B2002B57
:1012700000D07AE738006030FFF7F2FDA400B862D2
:101280003A4BE418029B240B9C4200D96DE70123E2
:101290005B427B613B6181333B71032D35D13B0068
:1012A00065331A78013B1B7812021343012B2CD1B2
:1012B000019938000131FFF793FE002825D12C4B0E
:1012C0003871FA5C2B4B1202FB5C13432A4A1BB2A7
:1012D00093421AD138003430FFF7C2FD274B9842B1
:1012E00013D186239B00F818FFF7BAFD244B9842D0
:1012F0000BD187239B00F818FFF7B2FD88239B00D2
:101300007861F818FFF7ACFD38611E4A0024138895
:101310003D7001339BB21380FB80E0E6380058300B
:10132000FFF79EFD39E7039A002A00D11DE7069AD0
:101330009B18BB62022D01D16400A1E703200123A9
:1013400060431C40400804199AE70324C7E60E4D89
:101350008542AD416D42013571E7C046EC41002048
:1013600036020000F5FFFF0FF5FF0000FF0F000041
:10137000330200003202000055AAFFFF52526141C1
:1013800072724161F0410020F50F0000F0B50700D6
:101390000D001400022685B0012948D983698B42CB
:1013A00045D903780093B3424BD0032B5BD0012B7C
:1013B0003DD14B085B180193190B436AC918FFF71D
:1013C0000FFE061E33D13B0034330293019B029A79
:1013D00001330393019B00991B051B0DD318009A41
:1013E0002A400192E2B20D4208D00F21FF201A7864
:1013F00000010A40210101400A43D2B21A700123C0
:10140000FB70039B3800190B7B6AC918FFF7E8FDD6
:10141000061E0CD1039B1805029B000D1818019B9A
:10142000002B07D02409E4B204700123FB703000C4
:1014300005B0F0BD0F220378240A934314401C43E7
:10144000F2E7436AC90AC918FFF7CAFD061EEED1C2
:101450003B0011496D0034330D405D192C70A4B26E
:10146000240A6C70E1E7436A890AC918FFF7B8FDDE
:10147000061EDCD13B000949AD0034330D405D1937
:101480002800FFF7EDFC2401010F240909072800BB
:101490002143FFF7F0FCC8E7FE0F0000FC0F00003F
:1014A000F7B5012604000D00B14214D983699942B1
:1014B00011D20378022B2ED0032B3DD0B3420AD198
:1014C0004F08436A7F18390BC918FFF789FD0028B8
:1014D00003D0012676423000FEBD7B1C3F05190B70
:1014E00001933F0D636AE71934372000C9183F782C
:1014F000FFF776FD0028ECD1019B1805000D24189C
:101500003434207800020743354201D03E09E2E737
:101510003F053E0DDFE7436AC90AC918FFF760FDC2
:101520000028D6D10D496D0034340D406419667819
:10153000207836020643CEE7436A890AC918FFF7C6
:101540004FFD0028C5D12000054CAD0034302540AA
:101550004019FFF785FC06013609BCE7FE0F0000C5
:10156000FC0F00008023F7B59B0305000C00994297
:1015700001D30220FEBDCB06FBD18768066801615E
:10158000002F1AD13378022B02D9B36A002B13D162
:10159000328963099342ECD2B36AAB61AA696F6185
:1015A000002AE6D0230B24053436240D9B18341969
:1015B0000020AB61EC61DDE71F0073891B03019321
:1015C000019B39009C4204D23000FFF76FFCA861F8
:1015D000E4E72868FFF764FF0700431C07D00128F1
:1015E000C7D9B3698342C4D9019BE41AE8E7012053
:1015F000C0E7F7B50F1E0568019007D12E69002ED0
:1016000002D0AB69B34210D801260EE02800FFF7E4
:1016100047FF0400012802D801242000FEBD431C1E
:1016200057D0AB693E008342F7D86B69002B01D1DC
:101630000024F2E7BE4216D1AB69741CA34200D865
:101640000224019B21001868FFF72AFF0128E3D03C
:10165000431C3ED000281CD02B69012B03D9AA695A
:10166000934200D21E003400AB690134A34202D879
:10167000012EDDD90224019B21001868FFF710FF1D
:10168000002808D00128C7D0431C22D0B442EBD197
:10169000CEE7002CE7D00122210028005242FFF7BC
:1016A00075FE002813D1002F0AD1AA696B69023A8E
:1016B0002C61934210D901232A7913432B71ACE793
:1016C000220039002800FFF761FE0028EDD0012834
:1016D000A2D101246442A0E7013B6B61EBE7F8B5BE
:1016E0000C00060011000568012C2DD9AB69A3423E
:1016F0002AD9002A06D0012228005242FFF746FECE
:10170000002807D121003068FFF7CAFE2700041E19
:1017100001D10020F8BD012816D0431C16D00022AC
:1017200039002800FFF732FE0028F3D1AA696B695F
:10173000911E8B4205D2012101336B612B790B4342
:101740002B71A242DED8E4E70220E3E70120E1E7C3
:10175000F7B504000D00FFF71EFC06000120002E67
:101760003BD1290020002700FFF7A0FB802234375F
:1017700001902063310038005201FFF784FB802381
:1017800065891B022D039D4200D31D0080235B0150
:101790009D4231D9280001F001FA061E06D02A0028
:1017A00000212F0BFFF76FFB00250BE06D08EDE725
:1017B000019B31005A1960783B00FFF737FB002886
:1017C00003D1ED1963899D42F2D3300001F0EAF9AB
:1017D0006089451B681E8541E8B2FEBD01356389FD
:1017E0009D42F5D2019B39005A1960780123FFF719
:1017F0001DFB0028F2D0EBE70025F0E7F7B5836981
:1018000007690400019104202037002B15D08022A5
:101810009203974211D23A05110D26680091002AD1
:101820003BD161690133A361002907D132897B096A
:10183000934232D300230420A361FEBD73893A0B87
:10184000013B1A4229D13000FFF72AFE050001288A
:1018500001D80220F1E7431C01D10120EDE7B36973
:10186000834214D8019B002BE4D020006169FFF76C
:10187000C0FE05000720002DDFD0012DE9D06B1C34
:10188000EBD029003000FFF763FF0028E5D12900E5
:1018900030006561FFF70AFBA061009B3436F61843
:1018A00000202761E661C8E7F0B5036889B0002130
:1018B00004000493FFF756FE061E00D0A2E0FF22AC
:1018C000012317005B42E36202920593A169049829
:1018D000FFF786FB061E00D094E0E5692B780093A5
:1018E000002B00D191E03F23EA7A00991340A371C5
:1018F000E52903D0120704D50F2B04D0059BE36222
:1019000061E00F2B65D123002B331A7840231A4254
:101910004FD1009A1A4253D06A7B0292009A9A439E
:1019200023690092E3626B7B029AFF27934240D1C6
:10193000EA7EAB7E120213431AB2002B39D13F214B
:10194000049BF23FDB68019203932B780B40013B31
:101950005F433E392E4B019AD35CEB185E781B78BF
:1019600036021E43002930D0FE2F2CD8300001F063
:101970004DF97B1C0793039B7F000690F85A01F0FA
:1019800045F9069B83421ED13100079F019B01331D
:1019900001930D2BDED12B785B0607D5002905D0EE
:1019A000039A7B009B5AFF27002B02D1009F013F27
:1019B000FFB200212000FFF721FF061E86D021E0A4
:1019C000009B9F42AFD0FF27F3E7124B9E42DDD032
:1019D000F9E7002F05D12800FFF774FA029B98421F
:1019E00010D023002B331A78012316001E401A4210
:1019F00084D121000B2228002031FFF74AFA002869
:101A000000D07BE7300009B0F0BD0426FAE7C046FD
:101A10008A4C0000FFFF0000F0B506005F232B3664
:101A2000327807009A43130006248BB0002A53D162
:101A300002680092D2680293029B5B00D35A002B8B
:101A40004DD13B000125203307AC19000C222000AA
:101A50000193FFF77DFAE37A2B4200D16CE040233B
:101A60003370009B0B22019807A9DC68FFF770FA1E
:101A70002B00052D49D807220F2605A81C0034404D
:101A800021003031392900D90731013A1418617029
:101A900019090F2B3BD87E233C00835400231F34AD
:101AA0009A4203D0591C605C202832D1380020248F
:101AB00005AE1F302100072A01D8B15C0132013385
:101AC000C154072BF6D93800FFF7EEFE041E2CD1C7
:101AD0000135642DC5D1072420000BB0F0BD029B59
:101AE0000133A8E71021023401265B001640F318E9
:101AF000802676025208334200D043400139002943
:101B0000F2D12288002AEDD1B5E75648F9E70B005B
:101B1000B4E70B00C4E7060001213800FFF76EFEB2
:101B2000041E1DD0042CD6D0D6E70428D4D107AB90
:101B3000DA7A3B002B331A7007ABDB7A01259B075F
:101B400005D502980D210C30FEF7C0FA45193B6807
:101B5000002138000293FFF705FD041EE2D10600C4
:101B6000B9690298FFF73CFA041EDBD1FB691B78C8
:101B7000E52B01D0002BCED10136B542CCD16E1E63
:101B8000012D54D03B6971013800591AFFF7EAFC66
:101B9000041EA1D10198FFF795F90390B969009847
:101BA000FFF71EFA041E00D096E7009BFA69DB6877
:101BB0000D219C46F3B20293039B107353730F23C2
:101BC000D372F0333340013B4B4301009076D07623
:101BD000254CA04203D064465800005B0133234CDF
:101BE0000C5D141925002070040A6C70002800D1C7
:101BF0001D4801310D29EBD11B49884204D06146B3
:101C00005B005B5A002B03D14023029919430291D8
:101C1000029B002113700123009A3800D370FFF754
:101C2000EDFD041E00D057E7013E002EB6D1B96984
:101C30000098FFF7D5F9041E00D04DE701002022DF
:101C4000F869FFF720F90B220199F869FFF780F98D
:101C50001821FA692B373B780B4013730123009A44
:101C6000D37039E721100100FFFF00008A4C00000B
:101C7000F8B50400FFF78FF9051E45D12378032B33
:101C80003AD12779012F37D126008022343601003E
:101C900052013000FFF7F7F855221C4B4121E25466
:101CA0001B4B9218E2542200E23BFF3B353233706B
:101CB000137023006122363386201A705970722304
:101CC0008000235413482354134BE154134BE25424
:101CD0000133E0186169FFF7CEF888239B00E01814
:101CE0002169FFF7C8F8236A31005A1C60783B006D
:101CF0002263FFF79BF82571002260781100FFF73F
:101D000023F8431E9841C0B2F8BDC046320200001D
:101D100033020000190200001A0200001B0200003A
:101D2000F0B50600036889B004910793049B1B7803
:101D30005BB22F2B11D05C2B0FD00021049BB16024
:101D40001B781F2B00D9E8E0330080222B333000B2
:101D50001A70FFF707FC09B0F0BD049B0133049330
:101D6000E4E77F280AD8A54B00E0013300229A5609
:101D7000002A03D09042F8D10620ECE7FF2DFBD0DB
:101D8000059A6B00D0520135CBE0049A01320492DF
:101D9000DDE08B5A202B02D02E2B00D0EAE0013D53
:101DA000E4E0029B039A934206D2069BAB4253D1D6
:101DB000039B0B2B46D102E0039B0B2B3AD1032351
:101DC0001C4308330393731CDA7FE52A01D1E03A00
:101DD000DA77039B082B03D1019B9B00DBB20193B5
:101DE0000C23019A13400C2B04D013000322134040
:101DF000934201D102231C43A3070AD4019BDB07B2
:101E000001D510231C430422019B134201D0082357
:101E10001C4335002B3530002C70FFF745FD2B7827
:101E2000002868D0042800D095E7034200D092E74C
:101E3000013090E7069BAB4204D003231C43069B72
:101E4000AB42C0D8019B06959B00DBB201930B23EC
:101E50000393033B0293C5E07F280ED9B6210227E6
:101E6000FF31274300F0A2FE030611D57F2318405F
:101E7000634B185C3C00002806D0624B00229A5647
:101E8000002A22D090421ED103235F201C4313E07E
:101E9000FF28EFD9039B029A013B9A4203D3032305
:101EA0001C43039BD6E73C00029B020AF318013354
:101EB000DA77029B01330293029BF3180133D87740
:101EC000029B0133C6E70133D8E70300413B9BB2D5
:101ED000192B04D80223019A1A430192ECE703005C
:101EE000613B9BB2192BE7D80123019A20381A4392
:101EF000019280B2E0E70422134200D02BE7B379CD
:101F0000DB0671D5336907991B051B0D3431C918E0
:101F1000079B1878FFF724F8B06000253368DB686A
:101F20000593049B5C1C5B5D6419002B0ED0B621ED
:101F300098B2FF3100F056FE031E00D11CE71F28A7
:101F400004D92F2802D05C2800D00AE70494049A10
:101F5000127852B22F2A00D117E75C2A00D114E779
:101F600004241F2B00D90024059B991E6A00002D14
:101F700000D00EE7002305998B529D4200D1FBE66D
:101F800005995A008A5A1F000133202AF8D0002FE1
:101F900001D12E2A01D103231C43059B9A1E6B00FD
:101FA000D35A2E2B02D0013D002DF8D120210B2237
:101FB0007018FEF768FF0823039300230293019330
:101FC0007B1C0693059B7F00F85A002800D1FAE697
:101FD000202805D02E2800D0E3E6069BAB4205D092
:101FE00003231C43069FEBE70520B4E6029B039AFC
:101FF000934200D2DCE61300DBE6C046C64B00008D
:102000000A4C0000CF4B00001FB5019003A814003C
:1020100000910391FEF764FF002817DB0C4A800053
:102020008358002B01D000211970019B002B01D097
:10203000002119701350002C05D00022684601A918
:10204000FFF728F80400200004B010BD0B24FAE7C5
:10205000EC410020F0B595B005001600092405916B
:1020600000286ED03F2717403A0007A905A8FFF7C0
:1020700011F8041E63D18020079B8000089300F0B4
:102080008DFD1134029000285BD0079B0599D86024
:1020900008A8FFF745FE041E06D13B2304AA9B189F
:1020A0001B787F2B00D906341C231E4200D178E018
:1020B000002C49D0042C3DD108A8FFF7ADFC041E2C
:1020C00038D108231F430F9E079B310018780393D4
:1020D000FEF746FF2123002433742B33B473F473CB
:1020E00073740F9B019004932023049A0398D37276
:1020F0000F992200FEF743FF01220F9B1C775C77AC
:102100009C77DC77079BDA70019AA24227D02200E5
:10211000019908A81E6BFFF7E2FA041E0AD13100EC
:102120000798FEF75DFF04000198079B01381861CE
:10213000002C14D0029800F035FD002C01D00023B3
:102140002B60200015B0F0BD04AB9A7D112307244D
:102150001A42EFD101347307ECD42642B3D13B07C6
:1021600001D540231F43079C236B2B620F9B6B629F
:10217000207819000193FEF7F3FEA860060001988D
:102180001C30FEF76DFE2C600190E860E3882F7430
:10219000AB8000236B74EB616B61BB060ED4002433
:1021A000C8E7002CC6D104AB9B7D0434DA06C1D449
:1021B000B207D4D50334DB07BCD4D0E7019B002B96
:1021C000EDD06B6164892403019B9C4211D30024F0
:1021D000AE61002CAED1019B1B05E0D03100079809
:1021E000FEF764FE031E14D0019A100BC018E861BC
:1021F000A0E731002868FFF753F9019B06001B1B7D
:102200000193012803D9431CDED10124E0E7022415
:10221000DEE702248EE7F0B51F00002389B00191AC
:102220003B6007A904001500FEF774FE009000282B
:1022300027D1637C0093002B23D1227C0133110032
:10224000194005911A4200D186E0E36862699E1A3E
:10225000AE4200D92E00002E13D06269130560D162
:10226000110B0800079B5B89013B18400390194242
:1022700017D1002A08D1A06801280AD8022060746A
:102280000090009809B0F0BDA1692068FFF708F937
:10229000F2E7431C04D101236374059B0093F0E72C
:1022A000A061079BA16918000293FEF7FFFD0028BB
:1022B000E4D0039B1B18049380235B019E422ED322
:1022C000029B039A350B5B8952199A4201D9039AF2
:1022D0009D1A029B049A587801992B00FEF766FD1F
:1022E0000028D8D10799CB78002B0CD00B6B049A1F
:1022F000981AA84207D28022019B00033431181893
:102300005201FEF725FE2D033B68761B5B193B60EF
:10231000019B5B19019363695D1965619BE7049BF0
:10232000E3618022636952011B051B0D3500D31A3E
:102330009E4200D91D00E1690798FEF751FE002872
:10234000A9D1636907991B051B0D34312A00019837
:10235000C918FEF7FDFDD7E707239FE7F0B589B061
:10236000059300231700059A0291136007A9040042
:10237000FEF7D0FD0190002829D1637C0193002B4A
:1023800025D1237C9B0700D4ADE06369DA19934221
:1023900000D9DF43002F16D06269130500D084E016
:1023A000110B0800079B5B89013B18400490194200
:1023B00021D1002A0ED1A16800290DD12000FFF7FC
:1023C00018F9011E08D14023227C1343237401987D
:1023D00009B0F0BDA169F1E7012903D102206074C1
:1023E0000190F4E74B1C01D10120F8E7A368A1613B
:1023F000002B00D1A1600798E269036B934203D1DF
:10240000FEF7C9FD0028EFD1079BA16918000393CF
:10241000FEF74CFD0028E1D0049B1E1880235B01D1
:102420009F4236D3039B049A3D0B5B8952199A4213
:1024300001D9049A9D1A039B3200587802992B0007
:10244000FEF7F4FC03900028CED10798036B9E1B87
:10245000AE420AD28022029B3603991952013430CF
:10246000FEF776FD079B039ADA702D03059B059A0C
:102470001B687F1B03935B191360029B5B1902931C
:102480006369ED18E3686561AB4200D22B00E3603D
:1024900080E76369E268934206D30398FEF77BFD09
:1024A0000028A1D1079B1E63E66180226369520167
:1024B0001B051B0D3D00D31A9F4200D91D00E16989
:1024C0000798FEF78DFD00288ED1636907981B05DC
:1024D0001B0D34302A00C0180299FEF739FD012285
:1024E000079BDA70C2E70723019370E7F7B501A9EC
:1024F0000500FEF70FFD041E2BD12B7C40271C008E
:102500003C403B4225D0296A0198FEF769FD041E34
:102510001FD120236E6AF27A31001343F372AA6846
:102520002868FEF72CFD3000E9681C30FEF7A3FC9C
:102530002123019833762B3373764B3BB475F475B6
:10254000B474F474C370FFF793FB04002B7CBB439B
:102550002B742000FEBD13B50400FFF7C7FF002851
:1025600006D1200001A9FEF7D5FC002800D120608B
:1025700016BD0000F0B591B00D900DA80F0015002C
:102580000093FEF7ADFC0B26002852DB984B82002F
:10259000D358002B01D000221A70C3B21800049344
:1025A000FEF7BCFB0326C30743D40736430740D4DA
:1025B000032104980EAAFEF7C7FB002807D180214B
:1025C0000E9B09025A1E8A4201D21A4201D00123EF
:1025D0000E93002D09D0874B874AEB18934201D9FF
:1025E000132626E06B1E1D42FAD1009B002B23D13F
:1025F000802304261B020893089800F0CFFA089B5A
:10260000041E10D01B0B0793079B002B10D0012139
:1026100004980FAAFEF798FB002814D00126009B0F
:10262000002B06D185E25B08013E0893002EE3D122
:102630001126300011B0F0BD169B009C1B0B0793B8
:102640001B030893E0E708233A001A40099203901D
:102650001F4201D1373303930F9E039B9E4207D243
:10266000009B002B02D1200000F09CFA0E26E0E730
:10267000039BF31A06930F937F2BF1D981231B033E
:102680009D4206D3009B002BAAD1200000F08AFABD
:10269000A6E702233A001A402D0B0C921F4279D074
:1026A00005333B40022B51D0FB074FD52E1E09D1DD
:1026B0000126069B190B514B1A88002A02D00233BF
:1026C0008A426CD931000698FDF700FD4C4A0300A0
:1026D000904266D90223023040000193494B012702
:1026E000C018030B029304230B93039B0B9AFB1854
:1026F0000593029B9918059B0E9AC918531E5B18E7
:1027000052421A40019B521A032B51D1059BBF180C
:102710009B180593039A33019B1A069A5B189A42F9
:102720009ED3069B0B9A3100981A029BC01BC01ABD
:10273000FDF7CCFC019B0A90032B3DD1324B984214
:1027400073D8002D8CD17508012E89D92F1E0AD17E
:102750000125069B5A0C2D4B1F88002F03D00233F6
:1027600097421AD9002729000698FDF7AFFC284A9E
:1027700083009B181B0B0293264BC018264B9842D4
:1027800000D96DE700230B9303332E0001933D0026
:102790002027AAE7FB0789D474E76D00DCE7760001
:1027A0008AE703205843013040080123033094E7AF
:1027B000029B9B180293ADE7019B022B2ED1124B7B
:1027C0000A9A9A4208D9002D00D0D6E17600402E10
:1027D00000D9C9E1350069E7094B0A9A9A4224D821
:1027E000002D00D03CE77500802D00D85EE737E76C
:1027F000EC41002000F0FFFF00F0FF00984C0000CB
:10280000F50F0000FF0F0000F5FF0000A64C0000D0
:10281000071000000A00FFFFFFFFFE0F0122D94B47
:1028200001920A9A9A4200D91AE7802200212000D8
:102830005201FEF728FBD4490B222000FEF788FB4B
:10284000102323730F3B2374019B0022033B591E6B
:102850008B415B00A3748023A7730F99BFB23F0A1B
:10286000E2726673E77362745B02994252D2E1745A
:1028700089B2090A2175F823002520006375B93B48
:102880002376C033A37603996576E5761C30FEF790
:10289000F2FA019B032B42D1230021222000433373
:1028A0009A702B32DA7002991D705D702430FEF739
:1028B000E2FA2300022220002C331A70013A1A7126
:1028C00005329A717A321A75B049573A9A755D7025
:1028D0009D70DD705D71DD71163A4730FEF738FB93
:1028E000FF235522AA275B00E254A94B2100E7549D
:1028F000FF3BFF3B039A0498FEF798FAA44B051E92
:10290000069326D0009B002B02D1200000F04AF94C
:1029100001268EE620002030FEF7ADFAABE723005B
:1029200021220833DD7720335A702B329A701D70C4
:10293000029B2000A3756B461B8934321B0AE3758A
:10294000631DDA77573AE31DDA779249163A2B304E
:10295000C4E7019B032B46D1039B21009A1D0498D9
:102960000123FEF763FA8022290020005201FEF7BE
:102970008AFA5223F22041227221237063704000B0
:102980000F33A370E2702154E620FF3021547531DB
:10299000FF3162542000E8220A99FF32E930A35443
:1029A0000139FF30FEF767FAF62302225B00E2549A
:1029B000EE23FF33E5540133E554F023FF33E554B0
:1029C00053320F33E254724B2100E754039B0498B7
:1029D000DA1D0123FEF72AFA039B21005A1C0498F2
:1029E0000123FEF723FA00212000089AFEF74BFA94
:1029F000019B032B00D0A0E0F533237007336370F5
:102A0000A370E37023716371A371E3712372637226
:102A1000A372F03BE37280277F01029D079A9542E3
:102A200000D9150021002B00059A0498FEF7FEF945
:102A3000011E00D066E73A002000FEF724FA059B4D
:102A40005B190593029B5B1B0293E6D1019B032B51
:102A500000D00B9E079B35009E4200D91D002B0025
:102A60002100059A0498FEF7E1F9002800D049E713
:102A7000059B761B5B190593002EEBD1019B0C2562
:102A8000032B0AD080230F9A5B02063D9A4204D2A0
:102A9000019B023D022B00D0033D099B002B59D125
:102AA0008022190020005201FEF7EDF9FF23552284
:102AB0005B00E254069A553BFF3BA354099A153339
:102AC000FF33E254C0230126FF33E6549B19E6543A
:102AD000C223FF33E2549B190F9AE554039B2E49FE
:102AE0009818FDF7F3FAC423FE22FF33E254853B26
:102AF0008208FF3B1343E2225200A354C623FF3354
:102B0000E0542000C7300399FF30FEF7B4F92000ED
:102B1000CB300F99FF30FEF7AEF933002100099A50
:102B20000498FEF783F9002814D0009B002B00D0F6
:102B3000EEE6200000F036F87BE5019B2000591EF0
:102B40004B425941802349425B0419400839FEF742
:102B500092F960E7002204981100FEF7F5F8009B57
:102B6000061E00D15CE5CEE60C9B002B00D0EFE505
:102B70003500802E00D8A5E572E50C9B002B00D017
:102B8000E4E56DE5F50F0000D64B0000E24B0000D8
:102B9000FF010000F64B0000C13E000010B500F040
:102BA000DDFE10BD10B500F0E3FE10BD030080B2E5
:102BB0007F2B13D980220020520293420ED2B622DC
:102BC000FF3291420AD1064A1188994204D001305D
:102BD00080B202328028F7D18030C0B27047C04640
:102BE000624F00007F280AD9B623FF33994207D1EC
:102BF000FF2805D8034BC018034B4000185A7047F4
:102C00000020FCE780FFFF7F624F00008023F0B5CB
:102C10005B020400984221D280221E4983B25201F5
:102C2000904200D31C49FF260A880800002A14D0CD
:102C3000934212D345880431280A3540AF18BC426C
:102C400023DA082809D8FDF72DFA050B11131517FB
:102C5000191B1D00A21A5200535A1C002000F0BD7F
:102C600001209A1A02409B1A9BB2F6E7103BFBE741
:102C7000203BF9E7303BF7E71A3BF5E70833F3E78A
:102C8000503BF1E7054A9B18EEE70028CCD16D00D8
:102C90004919C9E7B44C0000A64E0000A0E3FFFFAD
:102CA0008020054A10B5136803210343136000F028
:102CB0002DFC00F0F9FD10BDC8100040F7B5022052
:102CC00000F020FB1021012000F096FCFA204000CB
:102CD00000F0B4FDFFF7E4FF4E4B4F481978C9B23E
:102CE00000F002FF4D4D4E4E290001223000FFF74B
:102CF0008BF94C4C010020700D2875D14A4800F02A
:102D00007FFF002128000B000A000091FFF732FC32
:102D100001002070454800F0E7FE2778002F5FD1C2
:102D2000434800F06DFF012229003800FFF76CF9DD
:102D30000122207029003000FFF766F920703D481D
:102D400000F05EFF3C4F0A2238003C49FFF782F951
:102D50002070002855D13A4800F052FF394E3A49C8
:102D600033001A223800FFF7F9FA011E20703748A5
:102D700005D13168364800F0B7FE3349354800F0D8
:102D8000B3FE2D48FFF7E7FB334800F039FF2A4E2A
:102D9000012230002949FFF75DF92070002834D165
:102DA0002E4800F02DFF8022264F2D493B00300099
:102DB000D200FFF730FA011E20702A4805D1396889
:102DC000294800F091FE2649284800F08DFE300089
:102DD000FFF7C1FB012229000020FFF715F9FEE7EC
:102DE000234800F00DFFFEE7002806D0214800F040
:102DF0007BFE214800F004FFFEE7204800F000FFC2
:102E00009DE71F4800F0FCFEBEE71E4800F0F8FEFC
:102E1000DDE7C046411000406250000076500000DF
:102E2000204600205456002079500000B350000086
:102E3000C3500000AE510000F4450020E1510000F5
:102E4000EC5100001C460020004000209952000078
:102E50004052000071520000DE5200000F5300008B
:102E6000F241002082530000295300005953000012
:102E7000EE5000000E51000041510000765100005C
:102E8000BA520000A353000010B58024074A640121
:102E9000136805202343136000F058FC00F06AFC1F
:102EA000034B1A6814431C6010BDC046AC100040B0
:102EB000A810004010B50124FFF7E6FF2042FBD127
:102EC00010BD000010B58024064A64011368062076
:102ED0002343136000F03AFC034B1A6814431C6050
:102EE00010BDC046AC100040A810004070B5802551
:102EF0000400FFF7E7FFFFF7DDFF0D4A6D011368E0
:102F000020202B43136000F021FC200CC0B200F005
:102F10001DFC200AC0B200F019FCE0B200F016FC63
:102F2000044B1A6815431D60FFF7C4FF70BDC0460F
:102F3000AC100040A8100040F8B5802504000E0039
:102F40001700FFF7BFFF114A6D01136802202B43E2
:102F5000136000F0FBFB200CC0B200F0F7FB200A6E
:102F6000C0B200F0F3FBE0B200F0F0FBBE19B742D4
:102F700006D1074B1A6815431D60FFF79BFFF8BD8C
:102F8000387800F0E3FB0137F1E7C046AC100040B1
:102F9000A8100040F8B5802317005B00C2B29B1A4E
:102FA0009BB206000D001C1C8B4200D90C1CA4B265
:102FB0003A0021003000FFF7BFFFA5420AD080236E
:102FC0002D1BADB23F1936195B002C1C9D42EED96A
:102FD0001C1CECE7F8BD0000F8B5802504000E00CD
:102FE00017000A0001000F4800F07EFD0E4A6D0137
:102FF000136803202B43136000F0A8FB200CC0B221
:1030000000F0A4FB200AC0B200F0A0FBE0B200F088
:103010009DFB3100380000F0C3FB044B1A681543D8
:103020001D60F8BD244B0000AC100040A81000400B
:10303000F8B5802317005B00C2B29B1A9BB2060052
:103040000D001C1C8B4200D90C1CA4B23A002100BC
:103050003000FFF7C1FFA5420AD080232D1BADB27F
:103060003F1936195B002C1C9D42EED91C1CECE765
:10307000F8BD000070B58025104800F0C1FD104A71
:103080006D01136890202B43136000F05FFB00205C
:1030900000F05CFB002000F059FB002000F056FB24
:1030A00000F068FB84B200F065FB064B24021A684E
:1030B000A4B2154320431D6080B270BDC053000010
:1030C000AC100040A8100040E02010B50F4CC0012B
:1030D000236803210343236000F0E6F9802023687E
:1030E000000203432360012100F0DEF900F0DEFA64
:1030F000032000F005FB042000F0F0FAFFF7BAFF10
:103100000100034800F0F0FC10BDC046A8100040CC
:10311000D0530000024B18784007C00F7047C046DC
:103120000A100040572288210A4B10B51A705132FC
:103130001A70094A118004220849088802430A804B
:1031400000220A201A7000F04DFB012000F08CFADA
:1031500010BDC0464010004008100040481000401C
:1031600057220A4B0A491A7051321A700878A43A49
:1031700002430A7000221A709623DB00C046C04644
:10318000C046C046013B002BF8D1704740100040BC
:103190000A1000405722084B08491A7051321A7021
:1031A0000878A03A02430A7000221A70C046C0464E
:1031B000C046C0467047C046401000400A1000405C
:1031C00057220A4B0A491A7051321A700878983AF5
:1031D00002430A7000221A70064BC046C046C04621
:1031E000C046013B002BF8D17047C046401000405C
:1031F0000A100040B80B0000C0220D4B10B51B8810
:1032000099B21340802B0DD0402B05D1213B0948AA
:103210001940FCF7E5FF10BD002B05D11F33064810
:103220001940F6E70448F6E7FA20C001F3E7C04684
:103230000810004000389C1C0048E80110B5002927
:1032400025D0204B002815D157211F4A117051312C
:1032500011701C78A6392143197010707F241A78D8
:103260001878D1B2A043A2439042F8D149B20029C4
:10327000F5DA10BD0128F1D15721134A11705131EF
:10328000117019780843002118701170E6E70028C2
:103290000BD1572202240C4B0A491A7051321A7072
:1032A0000A78A2430A701870E3E70128E1D1572297
:1032B000054B044C1A7051321A70227882432270E6
:1032C0001970D6E72F10004040100040012110B5C2
:1032D0000400FFF7B3FF5722084B04211A70513244
:1032E0001A70074A1078002C04D18843107000220D
:1032F0001A7010BD01431170F9E7C046401000403C
:103300002F10004070B5624C0C284AD85726614DEA
:10331000FCF7C8FE0710121F2B374A566476889AAE
:10332000AC000020FFF7D2FFA823267023702033C3
:103330002B8036E00120F5E7FFF7ECFE002801D1F5
:10334000FFF70EFF5723237051332370E133FF3310
:10335000EEE7FFF7DFFE002801D1FFF701FF57235B
:103360002370513323704C4BE2E7FFF7D3FE002864
:1033700001D1FFF7F5FE57232370513323705D33DE
:10338000E5E7464E33781B0701D4FFF703FF5723C9
:10339000237051332370203B04222B8033789343D6
:1033A00033700023237070BD3C4E33781B0701D46B
:1033B000FFF7F0FE5723237051332370A63BEBE752
:1033C000364E33781B0701D4FFF7E4FE572304225F
:1033D0002370513323702A803378E0E7FFF79AFE99
:1033E000002801D1FFF7BCFE2C4B1B78DB0601D473
:1033F000FFF7E6FE5723237051332370A533A6E76A
:10340000FFF788FE002801D1FFF7AAFE234B1B78A7
:10341000DB0601D4FFF7D4FE57232370513323700A
:103420001F4B85E7FFF776FE002801D1FFF798FED6
:103430001A4B1B78DB0601D4FFF7C2FE572323701B
:1034400051332370AD3382E7FFF764FE002801D1CA
:10345000FFF786FE114B1B78DB0601D4FFF7B0FEA9
:103460005723237051332370B13370E7FFF752FEB7
:10347000002801D1FFF774FE084B1B78DB0601D44E
:10348000FFF79EFE5723237051332370054B4FE700
:103490004010004008100040020200000A100040E6
:1034A0004F0200005E020000030000B5080004297E
:1034B00017D81349134AFCF7F5FD030A15181F0026
:1034C00008689843086010480168994305E0086857
:1034D000984308600C4801681943016011689943DA
:1034E000116000BD08681843ECE70868984308605D
:1034F000106803431360F4E708681843F7E7C04611
:10350000B4100040A0100040B0100040030000B50F
:103510000800042917D81349134AFCF7C3FD030A0E
:1035200015181F00086898430860104801689943FF
:1035300005E00868984308600C4801681943016079
:1035400011689943116000BD08681843ECE70868EA
:1035500098430860106803431360F4E70868184351
:10356000F7E7C046D4100040C0100040D010004023
:103570000821F0B5194A1A4B1078084206D1572095
:1035800018705130187010780143117005255720BC
:10359000A821144C187019702580134D134E2C88D7
:1035A000FA2734402C8010241578FF002C43147027
:1035B000002201241A700E4DAC4665462D782E006F
:1035C0002640254208D10132BA42F4D9094D18707B
:1035D00019702C701E70EEE70022EEE70A10004012
:1035E000401000400810004020100040FFF9FFFF8D
:1035F0002610004046100040F0B55727A826164A6E
:10360000164D1770164C4BB21670002813D1002BB4
:1036100004DA022313480678334303701C202B7806
:103620000840834303202B70237801408B43237091
:1036300000231370F0BD002B04DA0226094801783C
:10364000B14301701C2128781940014303202970DF
:10365000217803400B43EAE7401000400A10004085
:103660002F1000400F100040F8B55727A8260C4C2B
:103670000C4D27702670002802D128702070F8BDEC
:103680000120094B187000232870237000F0AAF85D
:103690000D23277026702B7000232370EFE7C046A0
:1036A0004010004024100040251000400422084B28
:1036B0001A70084B023A1A705E321A70064B503A72
:1036C00019780A4301211A701A788A431A707047D0
:1036D000034000400040004001400040064B4022B3
:1036E0001978022804D10A431A70044B18707047E5
:1036F00091431970F9E7C046014000400340004083
:1037000000B503280DD808210E4A0F4BFCF7CAFC60
:10371000020A1115107888431070202219780A4384
:103720001A7000BD10788843107020211A788A43DF
:10373000F6E7107801431170EFE71078014311703C
:10374000F3E7C04600400040014000401021064A17
:1037500013788B431370054B0549187040230A7882
:103760001A42FCD07047C046004000400440004070
:10377000064000401021074A074813788B43137016
:10378000FF22064B1A70BF3A01781142FCD018781C
:10379000C0B2704700400040064000400440004076
:1037A000102310B50A4A1478234313700122094BE1
:1037B0001980094B41181A70084B094A884200D1F8
:1037C00010BD1C78002CF9D0147804700130F5E796
:1037D000004000400C4000400640004007400040D0
:1037E0001040004080B584B000AF0200BB1D1A80BD
:1037F0000C23FB1800221A8014E00E23FB1802226F
:103800001A8001E0C046C0460E22BB181B88BA18B9
:10381000591E1180002BF5D10C217B181A887B18BA
:1038200001321A800C23FA18BB1D12881B889A4299
:10383000E3D3C046C046BD4604B080BD70B5FA268D
:1038400005000024B600AC4200D170BD3000013448
:10385000FFF7C8FFA4B2F6E70023100030B5064A10
:10386000064C834200DB30BD1578082DFCD0CD5CC2
:1038700001332570F5E7C0460B30004008300040AA
:1038800070B50A250400FFF7B7FC68432100C008A3
:10389000FCF71CFC29000530FCF718FC014B80B23A
:1038A000188070BD0C300040E12010B54002FFF7D9
:1038B000E7FF8722054B1A70054B843A1A70054BB7
:1038C0003D321A70044B3F3A1A7010BD023000406E
:1038D00003300040013000400E3000401248854661
:1038E00012480168090E124A914205D11148124945
:1038F0000160124812490160002103E0114B5B583E
:10390000435004311048114B42189A42F6D3104AE2
:1039100002E00023136004320E4B9A42F9D3FFF702
:1039200001FCFFF7CBF9FEE7008000200400000057
:103930001F000000181002400100000000000140BC
:10394000000000007454000000400020804000206F
:103950008040002078560020FEE7000010B5034BA1
:103960000100186800F062F810BDC0461C4000203D
:1039700010B5034B0100186800F00EF810BDC046EA
:103980001C400020002310B59A4200D110BDCC5C31
:10399000C4540133F8E7000070B50500002910D0C9
:1039A0000C1F2368002B00DAE418280000F058FCF4
:1039B0001D4A1368002B05D163601460280000F0D5
:1039C00057FC70BDA34208D9216860188342F3D127
:1039D00018685B6841182160EEE71A005B68002BED
:1039E00001D0A342F9D911685018A0420BD1206828
:1039F0000918501811608342E0D118685B684118BB
:103A000011605360DAE7A04202D90C232B60D5E79E
:103A100021686018834203D118685B6841182160EF
:103A200063605460CAE7C0465C560020F8B50323C3
:103A3000CD1C9D43083506000C2D1FD20C25A94234
:103A40001ED8300000F00CFC25490A681400002C38
:103A50001AD1244F3B68002B04D12100300000F024
:103A6000D9F838602900300000F0D4F8431C2BD17D
:103A70000C233000336000F0FBFB03E0002DDEDAA6
:103A80000C2333600020F8BD23685B1B19D40B2B7B
:103A900003D92360E418256003E06368A2420ED1D5
:103AA0000B60300000F0E4FB200007220B30231DE8
:103AB0009043C21A9842E6D01B1AA350E3E7536022
:103AC000EFE722006468C2E70323C41C9C43A042C2
:103AD000E1D0211A300000F09DF8431CDBD1C7E78C
:103AE0005C560020605600200FB40B4B13B51C68C9
:103AF000002C05D0A369002B02D1200000F098FA19
:103B000005AB2000049AA168019300F0E1FB16BC0C
:103B100008BC04B01847C0461C40002070B5050022
:103B20000E00002804D08369002B01D100F080FA38
:103B3000AB69AC68002B02D1280000F079FA2D4B5C
:103B40009C4222D16C68636EDB0705D4A3899B0578
:103B500002D4A06D00F00DFBA3891B0702D52369D9
:103B6000002B29D12100280000F0BCF8002823D028
:103B700001256D42636EDB0705D4A3899B0502D442
:103B8000A06D00F0F7FA280070BD1B4B9C4201D1DC
:103B9000AC68D8E7194B9C42D5D1EC68D3E7013625
:103BA000A360002B04DAA2699A4216DC0A2914D019
:103BB00023685A1C22601970A3683178013B0029E0
:103BC000EDD1A360002B0FDA280022000A3100F0AB
:103BD00033F80A25431CCDD1CAE72200280000F0A3
:103BE0002BF8431CE8D1C3E70A2523685A1C22603E
:103BF0001D70BFE7FC5300001C540000DC530000A4
:103C000010B5034B01001868FFF788FF10BDC046D0
:103C10001C400020002370B5064D040008002B60F6
:103C200000F004FF431C03D12B68002B00D023605D
:103C300070BDC04674560020F8B505000E00140093
:103C4000002804D08369002B01D100F0F1F9224B48
:103C50009C422ED16C68A369A360A3891B0732D54F
:103C60002369002B2FD023682269F7B2981A636961
:103C7000F6B2834205DC2100280000F037F9002865
:103C800027D1A3680130013BA36023685A1C22603E
:103C90001F706369834204D0A389DB0707D50A2E0E
:103CA00005D12100280000F021F9002811D13000B1
:103CB000F8BD0A4B9C4201D1AC68CCE7084B9C4252
:103CC000C9D1EC68C7E72100280000F00BF80028F4
:103CD000C9D001267642EAE7FC5300001C540000DC
:103CE000DC530000374B70B51D6806000C00002D3A
:103CF00005D0AB69002B02D1280000F099F9324BB6
:103D00009C420FD16C680C23E25E93B211072DD454
:103D1000D90611D409230120336037331343A3811B
:103D2000404270BD294B9C4201D1AC68EBE7284B67
:103D30009C42E8D1EC68E6E75B0713D5616B00298C
:103D400008D023004433994202D03000FFF724FE0C
:103D5000002363632422A3899343A3810023636028
:103D6000236923600823A2891343A3812369002BBD
:103D70000BD1A0218022A389890092000B4093429D
:103D800003D02100300000F01FFA0C22A35E0120B6
:103D90001A0099B2024003420FD00022A260626969
:103DA0005242A261002022698242BAD10A06B8D5E5
:103DB00040221343A3810138B3E7880700D4626926
:103DC000A260EFE71C400020FC5300001C540000E0
:103DD000DC530000F7B58B8905000C001A075FD48F
:103DE0004A68002A04DC0A6C002A01DC0020FEBDBF
:103DF000E76A002FFAD0002280212E682A601A007C
:103E000049010A400B4234D0606DA3895B0706D597
:103E10006368C01A636B002B01D0236CC01A0200C8
:103E2000216A00232800E76AB847A189431C06D10C
:103E30002B681D2B31D82C4ADA40D3072DD500230F
:103E4000636023692360CB0405D5431C02D12B6832
:103E5000002B00D16065616B2E600029C6D0230065
:103E60004433994202D02800FFF796FD002060639A
:103E7000BDE701232800216AB847431CC5D12B6840
:103E8000002BC2D01D2B01D0162B01D12E60ADE727
:103E90004023A2891343A381A9E740230B43FAE7F8
:103EA0000F69002FA2D00A680F60D21B0192002276
:103EB0009B0700D14A69A260019B002B00DC95E7BB
:103EC0003A002800019B216AA66AB047002806DC58
:103ED00040230120A28940421343A38187E7019B2D
:103EE0003F181B1A0193E7E7010040200B6970B5EA
:103EF00005000C00002B02D10025280070BD002811
:103F000004D08369002B01D100F092F8144B9C423D
:103F10001BD16C680C22A35E002BEDD0626ED20721
:103F200004D49B0502D4A06D00F023F928002100E1
:103F3000FFF750FF636E0500DB07DED4A3899B0506
:103F4000DBD4A06D00F016F9D7E7064B9C4201D1F7
:103F5000AC68DFE7044B9C42DCD1EC68DAE7C04692
:103F6000FC5300001C540000DC530000002310B57B
:103F70000400036043608360818143661900C2814D
:103F800003614361836108225C3000F061F9054BF5
:103F90006362054B2462A362044BE362044B236318
:103FA00010BDC0464948000071480000A948000003
:103FB000D548000010B5024900F0BAF810BDC0465F
:103FC000ED3E000070B568254A1E55430E002900DD
:103FD0007431FFF72BFD041E08D000212A00016078
:103FE00046600C30A060683200F032F9200070BDED
:103FF00010B5024800F0BDF810BDC0467056002054
:1040000010B5024800F0B6F810BDC046705600204A
:1040100010B5024800F0ADF810BDC0466B56002048
:1040200010B5024800F0A6F810BDC0466B5600203F
:1040300013B50400FFF7ECFFA369002B02D0FFF7D4
:10404000EFFF13BDA364E3642365134B134A1B689E
:10405000A2620193A34201D10123A361200000F0D9
:104060001FF86060200000F01BF8A060200000F046
:1040700017F800220421E0606068FFF777FF012253
:104080000921A068FFF772FF02221221E068FFF702
:104090006DFF0123A361D2E73C540000B53F00004F
:1040A000F8B50700FFF7A4FF1F4B1E68B369002B8C
:1040B00002D13000FFF7BCFF4836B4687368013B9B
:1040C00004D53368002B22D03668F6E70C22A55EB3
:1040D000002D1AD12000154B5830E360656600F0C2
:1040E00047F8FFF78DFF2000082229002560A56012
:1040F000656025616561A5615C3000F0A9F86563C4
:10410000A563A564E5642000F8BD6834D7E7042101
:104110003800FFF757FF041E3060D5D1FFF770FF5E
:104120000C233B60EFE7C0463C5400000100FFFF5A
:10413000F7B5040006000027019148346368A568BC
:104140000093009B013B009304D52468002CF5D11B
:104150003800FEBDAB89012B08D90E22AB5E0133BE
:1041600004D029003000019B984707436835E8E7F1
:10417000704770477047000070B50E001D000E2399
:10418000C95E140096B0002907DA00232B60B389BA
:104190001B0611D48023DB000FE06A4600F0C6FB4B
:1041A0000028F2DBF02301991B021940054BC918C6
:1041B0004B4259412960EDE740230020236016B0AF
:1041C00070BDC04600E0FFFFF7B502268B890500F1
:1041D0000C00334206D023004733236023610123C0
:1041E0006361F7BD6A4601ABFFF7C6FF00990700A0
:1041F0002800FFF71BFC002808D10C22A35E9A05BB
:10420000EFD4032293431E43A681E4E70F4BAB6236
:104210008023A28920601343A381009B20616361F6
:10422000019B002B0DD028000E23E15E00F090FBD7
:10423000002806D00322A38993431A0001231343C5
:10424000A381A0890743A781CBE7C046B53F000003
:1042500003008218934200D1704719700133F9E7C7
:1042600010B50248FFF785FF10BDC0466C56002010
:1042700010B50248FFF77EFF10BDC0466C56002007
:10428000936810B5013B9360002B04DA9469A34254
:1042900007DB0A2905D01368581C10601970080044
:1042A00010BDFFF7C9FC0100F9E7F8B506000F00E3
:1042B0001400D518AC4201D1002007E021783A0063
:1042C0003000FFF7DDFF0134431CF3D1F8BD0000DF
:1042D000F0B5A1B006000C001F000392002804D026
:1042E0008369002B01D1FFF7A3FE8E4B9C421CD1AA
:1042F0007468636EDB0705D4A3899B0502D4A06DA7
:10430000FFF737FFA3891B0702D52369002B1DD1B7
:1043100021003000FFF7E6FC002817D0636EDB07B2
:104320000DD50120404221B0F0BD7F4B9C4201D110
:10433000B468DEE77D4B9C42DBD1F468D9E7A38902
:104340009B05EED4A06DFFF715FFEAE7002308AD4B
:104350006B6120336B761033AB760797039F3B7806
:10436000002B01D0252B4ED1039BFB1A0593039BF9
:104370009F420DD0059B21003000039AFFF795FF67
:10438000431C00D1B5E06A69059B944663446B61A8
:104390003B78002B00D1ACE001227B1C039300236F
:1043A00052426A6004A9543252182B60EB60AB6031
:1043B0001370AB65039B052219785D4800F0EEFA97
:1043C000039B5F1C002820D12A68D30604D5532301
:1043D00004A95B1820211970130704D5532304A9DD
:1043E0005B182B211970039B1B782A2B16D00021F8
:1043F000EB68039F3A78781C303A8446092A4FD9F3
:10440000002911D117E00137A9E7494B2A68C01AE2
:104410000123834013432B600397CBE7079B191DB0
:104420001B680791002B01DB0B9304E05B42EB6000
:10443000022313432B603B782E2B0AD17B782A2B47
:1044400037D1079B02371A1D1B680792002B2DDB03
:10445000099303223978374800F0A0FA002807D0E2
:10446000344B2A68C01A40238340134301372B6022
:1044700039787B1C062230480393297600F08EFAA7
:10448000002845D02D4B002B27D10722079B07334F
:104490009343083307936B69049A9B186B615DE73C
:1044A0000A214B4367469B180939A3E701235B4266
:1044B000CEE700231A0001376B603978781C303959
:1044C0008446092903D9002BC3D00992C1E70A23E6
:1044D0005A4367465218093BEFE707AB00932200A7
:1044E00029003000164B00E000BF0490049B01330C
:1044F000D1D1636EDB0705D4A3899B0502D4A06DDF
:10450000FFF738FEA3895B0600D50AE70D980AE796
:1045100007AB0093220029003000094B00F082F81D
:10452000E3E7C046FC5300001C540000DC530000CD
:1045300040540000465400004A54000000000000AF
:10454000AB420000F7B5150001938A680B690C00B7
:104550000090934200DA130022002B60433212785D
:10456000002A01D001332B6023689B0602D52B68FB
:1045700002332B602268062317001F401A4227D0FF
:10458000230043331B785A1E93412268920630D48D
:10459000220001990098089E4332B047431C25D061
:1045A000062320682A68E16800250340042B03D114
:1045B0008D1AEB43DB171D40A3682269934201DD8E
:1045C0009B1AED180027BD4220D1002010E00137D2
:1045D000E3682A689B1ABB42D2DD220001230199BD
:1045E0000098089E1932B047431CF0D10120404288
:1045F000FEBD3020E1184331087021005A1C4531BE
:104600000978A218433202331170C1E72200012356
:1046100001990098089E1A32B047431CE6D0013732
:10462000D1E70000F0B58BB006920A004332079341
:10463000059004920A7E0C00109B782A06D8622A04
:1046400008D8002A00D1C0E0582A52D026004236AD
:10465000327022E0100063381528F7D8FBF72CFDE4
:1046600016001F00F6FFF6FFF6FFF6FF1F00F6FF2D
:10467000F6FFF6FFF6FFA80036009A00F6FFF6FFF9
:10468000B900F6FF3600F6FFF6FF9E0026001A6816
:104690004236111D1960136833700123A7E00868C2
:1046A00019680A1D05060BD50D681A60002D03DA7E
:1046B0002D23049A6D421370614B0A27039332E055
:1046C0000D681A604106F1D52DB2EFE70D68196843
:1046D000081D18602E0601D50D6803E06D06FBD598
:1046E0000D68ADB2564B0A2703936F2A17D10827DE
:1046F00015E045310A70524A03921A68216820CAAF
:104700001A60080650D5CB0702D520231943216033
:104710001027002D03D1202322689A432260230012
:10472000002243331A706368A360002B03DB04226A
:10473000216891432160002D02D1049E002B0CD0F2
:10474000049E28003900FBF747FD039B013E5B5C9C
:1047500033702B0005009F42F3D9082F09D123683D
:10476000DB0706D563682269934202DC3023013EF1
:104770003370049B9B1B2361079B210000930598CA
:10478000069B09AAFFF7DEFE431C35D101204042FB
:104790000BB0F0BD202209680A4322602200782174
:1047A00045321170274AA7E74806ACD5ADB2AAE753
:1047B0001A680D68101D4969186013682E0601D526
:1047C000196002E06D06FBD519800023049E236169
:1047D000D2E71A68111D196016680021300062685E
:1047E00000F0DCF8002801D0801B60606368236162
:1047F0000023049A1370BFE72369320006990598D5
:10480000079DA847431CC1D023689B0715D4099B6B
:10481000E0689842BCDA1800BAE722000123069942
:104820000598079E1932B047431CAFD00135E368A5
:10483000099A9B1AAB42F0DCE9E70025F7E7C0468E
:10484000515400006254000070B50C000E25495F01
:1048500000F0B0F8002803DB636D1B18636570BDC2
:10486000A389024A1340A381F9E7C046FFEFFFFF87
:10487000F8B51F008B8905000C001600DB0505D577
:104880000E23C95E0022022300F074F8A389054AB2
:1048900028001340A38132000E23E15E3B0000F0AC
:1048A0001FF8F8BDFFEFFFFF70B50C000E25495F44
:1048B00000F060F8A389421C03D1054A1340A3818C
:1048C00070BD802252011343A3816065F8E7C046A2
:1048D000FFEFFFFF10B50E23C95E00F015F810BD05
:1048E00070B50400080011001A000023054D2B606C
:1048F000FEF7B2FF431C03D12B68002B00D02360CE
:1049000070BDC04674560020002370B5064D0400EB
:1049100008002B6000F062F8431C03D12B68002BC9
:1049200000D0236070BDC04674560020002370B5CF
:10493000064D0400080011002B6000F057F8431CDE
:1049400003D12B68002B00D0236070BD745600206B
:10495000002370B5064D040008002B6000F04EF8EF
:10496000431C03D12B68002B00D0236070BDC046D0
:104970007456002070B50400080011001A000023CE
:10498000054D2B6000F042F8431C03D12B68002B2F
:1049900000D0236070BDC04674560020C9B2821892
:1049A000904201D10020704703788B42FBD0013048
:1049B000F6E7000070B50400080011001A0000239B
:1049C000054D2B6000F02AF8431C03D12B68002B07
:1049D00000D0236070BDC0467456002058220120CC
:1049E000014B40421A607047745600205822012043
:1049F000014B40421A607047745600205822024B07
:104A000000201A607047C0467456002058220120CA
:104A1000014B40421A607047745600205822012012
:104A2000014B40421A60704774560020044A03004C
:104A30001068002802D0C318136070470148FAE7D5
:084A40006456002078560020A6
:104A4800000007FF00001000008002021F000000A5
:104A58007763682E636E2020C7DFBAE3B5E7D7D344
:104A680055C5CCB7BDB0B800312E31300009022091
:104A78000001010080320904000002080650000706
:104A880005010240000007058102400000120110E4
:104A980001000000404433333500010102000104E5
:104AA8000309040E037700630068002E0063006E9C
:104AB800000C03430048003500370078000006006A
:104AC800000800000800000800000002000B0000B9
:104AD8000800000800000002006469736B5F7374CB
:104AE80061747573006469736B5F696E6974696179
:104AF8006C697A65007370695F666C6173685F6979
:104B08006E697420656E64006469736B5F696F63B6
:104B1800746C20636D643A2025640A007370695FC1
:104B28006469736B5F7265616420736563746F7227
:104B38003A2025642C20636F756E743A2025640A28
:104B4800007265616420656E64006469736B5F72EE
:104B5800656164007370695F6469736B5F7772691C
:104B6800746520736563746F723A2025642C206322
:104B78006F756E743A2025640A007772697465202F
:104B8800656E64007370695F6469736B5F657261F9
:104B9800736520736563746F723A2025640A006533
:104BA8007261736520656E64006469736B5F777208
:104BB8006974650046415400464154333200222A44
:104BC8003A3C3E3F7C7F002B2C3B3D5B5D00EBFE7F
:104BD800904D53444F53352E30004E4F204E414D8B
:104BE80045202020204641543332202020004E4FBB
:104BF800204E414D45202020204641542020202091
:104C08002000809A45418E418F8045454549494954
:104C18008E8F9092924F994F555559999A9B9C9D7A
:104C28009E9F41494F55A5A5A6A7A8A9AAABACAD7B
:104C3800AEAFB0B1B2B3B4B5B6B7B8B9BABBBCBD14
:104C4800BEBFC0C1C2C3C4C5C6C7C8C9CACBCCCD04
:104C5800CECFD0D1D2D3D4D5D6D7D8D9DADBDCDDF4
:104C6800DEDFE0E1E2E3E4E5E6E7E8E9EAEBECEDE4
:104C7800EEEFF0F1F2F3F4F5F6F7F8F9FAFBFCFDD4
:104C8800FEFF01030507090E10121416181C1E005A
:104C980001000400100040000001000200000100B3
:104CA80002000400080010002000000061001A0340
:104CB800E0001703F8000703FF0001007801000176
:104CC800300132010601390110014A012E01790132
:104CD800060180014D0043028101820182018401A5
:104CE800840186018701870189018A018B018B0173
:104CF8008D018E018F019001910191019301940121
:104D0800F60196019701980198013D029B019C01CB
:104D18009D0120029F01A001A001A201A201A401FE
:104D2800A401A601A701A701A901AA01AB01AC0131
:104D3800AC01AE01AF01AF01B101B201B301B301E2
:104D4800B501B501B701B801B801BA01BB01BC0191
:104D5800BC01BE01F701C001C101C201C301C40108
:104D6800C501C401C701C801C701CA01CB01CA01F5
:104D7800CD011001DD0101008E01DE011201F301F8
:104D88000300F101F401F401F801280122021201E3
:104D98003A020900652C3B023B023D02662C3F02A9
:104DA80040024102410246020A01530240008101C9
:104DB8008601550289018A0158028F015A02900121
:104DC8005C025D025E025F0293016102620294016D
:104DD8006402650266026702970196016A02622C04
:104DE8006C026D026E029C01700271029D017302D9
:104DF80074029F0176027702780279027A027B02B6
:104E08007C02642C7E027F02A60181028202A90133
:104E18008402850286028702AE014402B101B20112
:104E280045028D028E028F0290029102B7017B0328
:104E38000300FD03FE03FF03AC030400860388039D
:104E480089038A03B1031103C2030200A303A30366
:104E5800C4030803CC0303008C038E038F03D80319
:104E68001801F2030A00F903F303F403F503F60348
:104E7800F703F703F903FA03FA0330042003500495
:104E88001007600422018A043601C1040E01CF0410
:104E98000100C004D00444016105260400007D1D02
:104EA8000100632C001E9601A01E5A01001F08066F
:104EB800101F0606201F0806301F0806401F06069A
:104EC800511F0700591F521F5B1F541F5D1F561F9C
:104ED8005F1F601F0806701F0E00BA1FBB1FC81F88
:104EE800C91FCA1FCB1FDA1FDB1FF81FF91FEA1FD4
:104EF800EB1FFA1FFB1F801F0806901F0806A01F44
:104F08000806B01F0400B81FB91FB21FBC1FCC1F72
:104F18000100C31FD01F0206E01F0206E51F0100A3
:104F2800EC1FF31F0100FC1F4E21010032217021EC
:104F38001002842101008321D0241A05302C2F046B
:104F4800602C0201672C0601752C0201802C64017B
:104F5800002D260841FF1A030000C700FC00E900E5
:104F6800E200E400E000E500E700EA00EB00E8000A
:104F7800EF00EE00EC00C400C500C900E600C60062
:104F8800F400F600F200FB00F900FF00D600DC0098
:104F9800A200A300A500A7209201E100ED00F30004
:104FA800FA00F100D100AA00BA00BF001023AC003B
:104FB800BD00BC00A100AB00BB0091259225932544
:104FC8000225242561256225562555256325512569
:104FD80057255D255C255B251025142534252C25B2
:104FE8001C2500253C255E255F255A255425692565
:104FF8006625602550256C25672568256425652567
:1050080059255825522553256B256A2518250C2521
:10501800882584258C2590258025B103DF009303FE
:10502800C003A303C303B500C403A6039803A903DD
:10503800B4031E22C603B50329226122B1006522EA
:10504800642220232123F7004822B0001922B70048
:105058001A227F20B200A025A00053746172742028
:10506800404368697049443D253032580A00303A57
:1050780000E3808B464C415348E8BF98E6B2A1E66E
:105088009C89E69687E4BBB6E7B3BBE7BB9FEFBC5A
:105098008CE58DB3E5B086E8BF9BE8A18CE6A0BCA3
:1050A800E5BC8FE58C962E2E2E0D00665F6D6B6627
:1050B80073207265743A2025640A00E3808B464C9D
:1050C800415348E5B7B2E68890E58A9FE6A0BCE57B
:1050D800BC8FE58C96E69687E4BBB6E7B3BBE7BB27
:1050E8009FE380820D00E3808AE3808AE6A0BCE526
:1050F800BC8FE58C96E5A4B1E8B4A5E38082E38093
:105108008BE3808B0D00EFBC81EFBC81E5A496E9B1
:1051180083A8466C617368E68C82E8BDBDE6968715
:10512800E4BBB6E7B3BBE7BB9FE5A4B1E8B4A5E32E
:105138008082282564290D0A00EFBC81EFBC81E537
:105148008FAFE883BDE58E9FE59BA0EFBC9A5350D7
:105158004920466C617368E5889DE5A78BE58C96C8
:10516800E4B88DE68890E58A9FE380820D00E380AD
:105178008BE69687E4BBB6E7B3BBE7BB9FE68C82BA
:10518800E8BDBDE68890E58A9FEFBC8CE58FAFE46B
:10519800BBA5E8BF9BE8A18CE8AFBBE58699E6B55F
:1051A8008BE8AF950D000D0A2A2A2A2A2A2A20E51B
:1051B8008DB3E5B086E8BF9BE8A18CE69687E4BB93
:1051C800B6E58699E585A5E6B58BE8AF952E2E2E32
:1051D800202A2A2A2A2A2A0D00303A746573742E46
:1051E80074787400E3808BE68993E5BC802FE588AA
:1051F8009BE5BBBA4661744673E8AFBBE58699E6A2
:10520800B58BE8AF95E69687E4BBB62E747874E65E
:105218009687E4BBB6E68890E58A9FEFBC8CE5905C
:1052280091E69687E4BBB6E58699E585A5E695B04F
:10523800E68DAEE380820D00E3808BE69687E4BBC3
:10524800B6E58699E585A5E68890E58A9FEFBC8C4A
:10525800E58699E585A5E5AD97E88A82E695B0E605
:105268008DAEEFBC9A25640A00E3808BE59091E649
:105278009687E4BBB6E58699E585A5E79A84E69521
:10528800B0E68DAEE4B8BAEFBC9A0D0A25730D0AE4
:1052980000EFBC81EFBC81E69687E4BBB6E5869952
:1052A800E585A5E5A4B1E8B4A5EFBC9A282564294D
:1052B8000A00EFBC81EFBC81E68993E5BC802FE54D
:1052C800889BE5BBBAE69687E4BBB6E5A4B1E8B42B
:1052D800A5E380820D002A2A2A2A2A2A20E58DB3EE
:1052E800E5B086E8BF9BE8A18CE69687E4BBB6E804
:1052F800AFBBE58F96E6B58BE8AF952E2E2E202A0C
:105308002A2A2A2A2A0D00E3808BE68993E5BC80A5
:10531800E69687E4BBB6E68890E58A9FE380820D2F
:1053280000E3808BE69687E4BBB6E8AFBBE58F96D3
:10533800E68890E58A9F2CE8AFBBE588B0E5AD9795
:10534800E88A82E695B0E68DAEEFBC9A25640D0A30
:1053580000E3808BE8AFBBE58F96E5BE97E79A84BC
:10536800E69687E4BBB6E695B0E68DAEE4B8BAEF4C
:10537800BC9A0D0A2573200D0A00EFBC81EFBC8191
:10538800E69687E4BBB6E8AFBBE58F96E5A4B1E83F
:10539800B4A5EFBC9A282564290A00EFBC81EFBCAC
:1053A80081E68993E5BC80E69687E4BBB6E5A4B1BF
:1053B800E8B4A5E380820D00535049466C617368D8
:1053C8005F5265616449440069643A307825303435
:1053D800780A000000000000000000000000000043
:1053E80000000000000000000000000000000000B5
:1053F80000000000000000000000000000000000A5
:105408000000000000000000000000000000000094
:105418000000000000000000000000000000000084
:105428000000000000000000000000000000000074
:105438000000000020400020232D302B2000686C45
:105448004C0065666745464700303132333435369F
:1054580037383941424344454600303132333435D8
:0C54680036373839616263646566000005
:10547400666174667320746573742021212121216F
:10548400212121212121210D0A000000204000209A
:1054940000000000FC5300001C540000DC5300001A
:1054A40000000000000000000000000000000000F8
:1054B40000000000000000000000000000000000E8
:1054C40000000000000000000000000000000000D8
:1054D40000000000000000000000000000000000C8
:1054E40000000000000000000000000000000000B8
:04000003000038DDE4
:00000001FF
