:100000000080002085470000F14200000148000008
:1000100000000000000000000000000000000000E0
:100020000000000000000000000000000148000087
:10003000000000000000000001480000014800002E
:10004000014800000148000001480000014800008C
:100050000148000001480000F518000001480000B8
:100060000148000001480000293E0000014800004E
:10007000014800000148000001480000014800005C
:10008000014800000148000001480000014800004C
:1000900002B4714649084900095649008E4402BC21
:1000A0007047C04602B4714649084900095C4900DE
:1000B0008E4402BC7047C04603B4714649084000F4
:1000C0004900095E49008E4403BC70470022430882
:1000D0008B4274D303098B425FD3030A8B4244D310
:1000E000030B8B4228D3030C8B420DD3FF22090252
:1000F00012BA030C8B4202D31212090265D0030B11
:100100008B4219D300E0090AC30B8B4201D3CB0306
:10011000C01A5241830B8B4201D38B03C01A524148
:10012000430B8B4201D34B03C01A5241030B8B424A
:1001300001D30B03C01A5241C30A8B4201D3CB0235
:10014000C01A5241830A8B4201D38B02C01A52411A
:10015000430A8B4201D34B02C01A5241030A8B421D
:1001600001D30B02C01A5241CDD2C3098B4201D335
:10017000CB01C01A524183098B4201D38B01C01AB3
:10018000524143098B4201D34B01C01A524103092A
:100190008B4201D30B01C01A5241C3088B4201D3D9
:1001A000CB00C01A524183088B4201D38B00C01A86
:1001B000524143088B4201D34B00C01A5241411AAD
:1001C00000D20146524110467047FFE701B50020BA
:1001D00000F0F0F802BDC0460029F7D076E770477E
:1001E00003460B437FD4002243088B4274D3030998
:1001F0008B425FD3030A8B4244D3030B8B4228D339
:10020000030C8B420DD3FF22090212BA030C8B425E
:1002100002D31212090265D0030B8B4219D300E0FE
:10022000090AC30B8B4201D3CB03C01A5241830B83
:100230008B4201D38B03C01A5241430B8B4201D333
:100240004B03C01A5241030B8B4201D30B03C01A5C
:100250005241C30A8B4201D3CB02C01A5241830AD6
:100260008B4201D38B02C01A5241430A8B4201D305
:100270004B02C01A5241030A8B4201D30B02C01A2F
:100280005241CDD2C3098B4201D3CB01C01A524196
:1002900083098B4201D38B01C01A524143098B421F
:1002A00001D34B01C01A524103098B4201D30B0108
:1002B000C01A5241C3088B4201D3CB00C01A52412D
:1002C00083088B4201D38B00C01A524143088B42F2
:1002D00001D34B00C01A5241411A00D2014652418B
:1002E000104670475DE0CA0F00D04942031000D3AA
:1002F0004042534000229C4603098B422DD3030AFF
:100300008B4212D3FC22890112BA030A8B420CD30E
:10031000890192118B4208D3890192118B4204D337
:1003200089013AD0921100E08909C3098B4201D3B7
:10033000CB01C01A524183098B4201D38B01C01AF1
:10034000524143098B4201D34B01C01A5241030968
:100350008B4201D30B01C01A5241C3088B4201D317
:10036000CB00C01A524183088B4201D38B00C01AC4
:100370005241D9D243088B4201D34B00C01A52419B
:10038000411A00D20146634652415B10104601D328
:100390004042002B00D54942704763465B1000D3B2
:1003A000404201B5002000F005F802BD0029F8D058
:1003B00016E770477047C04602780B78002A03D0D2
:1003C000013001319A42F7D0D01A704702000A4832
:1003D00010B50368002B02D01C68A24207D0436806
:1003E00001204042002B05D01C68A24202D10878AF
:1003F0005B6A984710BDC04664410020094902006D
:100400000B6810B5002B02D01868824207D001207B
:100410004B684042002B04D019688A4201D11B6A04
:10042000984710BD64410020094902000B6810B5CF
:10043000002B02D01868824207D001204B6840424E
:10044000002B04D019688A4201D1DB69984710BD9E
:100450006441002070B5104C05002068002805D0CC
:1004600029000430FFF7A8FF00280CD0606800289E
:100470000ED029000430FFF79FFF03000120404207
:10048000002B04D10230800023589B69984770BD2F
:1004900001204042FBE7C04664410020F0B585B032
:1004A000029000281DD0234F234E3C68051D002CD0
:1004B00006D033682900181DFFF77EFF002809D0F9
:1004C0007B68002B10D073682900181DFFF774FF9C
:1004D00000282CD157230120184A1949009500F013
:1004E000EDFA0120404220E0631E9C41029AA300E5
:1004F0002420F250039304F085F90400039B142296
:100500002900F85004F088F90E4B200063610E4B6F
:10051000E3610E4BA3610E4B236200F037FA029B9E
:100520001860039BF3581868C01705B0F0BD002C85
:10053000D7D1DBE75C41002064410020EB5700008D
:10054000F557000055040000CD030000FD03000036
:100550002904000002000120064B10B51B68404230
:10056000002B05D01C68944202D108785B6A98473A
:1005700010BDC0467041002002000120054B10B59F
:100580001B684042002B04D01968914201D11B6ABC
:10059000984710BD7041002002000120054B10B5A6
:1005A0001B684042002B04D01968914201D1DB69DD
:1005B000984710BD70410020084B10B51C68010021
:1005C000002C04D0201DFFF7F7FE002802D00120E8
:1005D000404210BDA3699847FBE7C0467041002028
:1005E000F0B5050085B0002834D01C4F031D0393DF
:1005F0003B681B4E002B13D0306803990430012454
:10060000FFF7DAFE6442002807D1039B154A0093E6
:1006100015495723013000F051FA200005B0F0BD14
:100620003060242004F0EEF804001422291D386004
:1006300004F0F2F80D4B200063610D4BE3610D4BAC
:10064000A3610D4B236200F0A1F9336828601C6898
:10065000E417E2E701246442DFE7C0466C41002072
:100660007041002020580000F5570000B905000037
:1006700055050000790500009905000037B5030015
:100680000120084A40421468002C0AD022689A428D
:1006900007D1CD680B8A0A8908780095646A496891
:1006A000A0473EBD7841002037B503000120084A2D
:1006B00040421468002C0AD022689A4207D1CD68C3
:1006C0000B8A0A8908780095246A4968A0473EBDCC
:1006D0007841002002000120054B10B51B68404204
:1006E000002B04D01968914201D1DB69984710BDF5
:1006F00078410020084B10B51C680100002C04D084
:10070000201DFFF759FE002802D00120404210BDF5
:10071000A3699847FBE7C04678410020F0B5050083
:1007200085B0002834D01C4F031D03933B681B4E3B
:10073000002B13D03068039904300124FFF73CFEEE
:100740006442002807D1039B154A0093154957239B
:10075000013000F0B3F9200005B0F0BD3060242076
:1007600004F050F804001422291D386004F054F8F5
:100770000D4B200063610D4BE3610D4BA3610D4BED
:10078000236200F003F9336828601C68E417E2E78D
:1007900001246442DFE7C046744100207841002014
:1007A00031580000F5570000F50600007D060000F6
:1007B000A9060000D506000070B5051E0DD0084B37
:1007C0001C68002C01D1200070BD29002068FFF7B3
:1007D000F3FD0028F7D0A469F3E701246442F2E7AF
:1007E0007C4100200A000B4910B50B680400002B67
:1007F00002D01868844207D001204B684042002B89
:1008000006D019688C4203D191885B6A10689847BA
:1008100010BDC046884100200A000B4910B50B6886
:100820000400002B02D01868844207D001204B68D6
:100830004042002B06D019688C4203D191881B6A74
:100840001068984710BDC046884100200949020041
:100850000B6810B5002B02D01868824207D0012027
:100860004B684042002B04D019688A4201D1DB69F1
:10087000984710BD8841002070B5104C05002068D5
:10088000002805D029000430FFF796FD00280CD081
:10089000606800280ED029000430FFF78DFD0300AA
:1008A00001204042002B04D10230800023589B6974
:1008B000984770BD01204042FBE7C04688410020B8
:1008C000F7B50090002816D01F4F204D3C68061D3C
:1008D000002C06D02B683100181DFFF76DFD002895
:1008E00009D07B68002B09D06B683100181DFFF719
:1008F00063FD002824D10120404220E0631E9C417A
:10090000009AA3002420EA50019303F07BFF040027
:10091000019B14223100F85003F07EFF0C4B2000A5
:1009200063610C4BE3610C4BA3610C4B236200F041
:100930002DF8009B1860019BEB581868C017FEBD8E
:10094000002CD8D1DCE7C04680410020884100203F
:1009500079080000E5070000190800004D080000B4
:1009600070B505000024084EA3009859002804D053
:100970002900FFF721FD002803D001340A2CF3D110
:100980000B3C200070BDC0469041002003000020B9
:1009900010B5064A81008C58002C01D18B5010BD37
:1009A00001300A28F6D10B38F9E7C0469041002003
:1009B00070B505000E00FFF7D3FF041E06DB044BE5
:1009C0008200D358310028005B699847200070BD31
:1009D0009041002010B5034B8400E358DB69984731
:1009E00010BDC0469041002010B5034B8400E35871
:1009F0009B69984710BDC0469041002010B540202B
:100A0000032103F011FC002010BD002070470000FE
:100A1000002805D14023084A11680B431360704732
:100A2000012806D14023054A002011680B431360BA
:100A3000F5E701204042F2E7A8100040AC1000406A
:100A4000024B1868402318407047C046A41000406D
:100A5000802010B50121C00303F018FC0B230420F3
:100A6000024A034900F02AF8002010BD4258000055
:100A70004C58000000207047002806D18023094A06
:100A8000DB0311680B4313607047012807D18023F3
:100A9000054ADB03116800200B431360F4E70120D3
:100AA0004042F1E7C8100040CC100040024B1868EB
:100AB0008023DB0318407047C41000400EB403B518
:100AC00003A901C9019103F073FF02B008BC03B090
:100AD00018470000E02010B50C4CC001236803212A
:100AE0000343236003F0A0FB80202368000203433C
:100AF0000121236003F098FB03F098FC032003F02E
:100B0000BFFC042003F0AAFC10BDC046A8100040A2
:100B10007047000070B51D0080231400104A0E00BD
:100B200011685B010B43136003F0D0FCE400083C48
:100B3000230008330DD1049B002B03D0290018009B
:100B400003F0D8FC8023074A5B0111680B43136054
:100B500070BD3000E040C0B203F0B8FCE7E7C0462B
:100B6000AC100040A8100040F8B51D008023140010
:100B7000124A0F0011685B010B43069E136003F0DD
:100B8000A5FCE400083C2300083309D10024A54259
:100B90000CD180230A4A5B0111680B431360F8BD36
:100BA0003800E040C0B203F091FCEBE7002E02D029
:100BB000305D03F08BFC0134E9E7C046AC10004027
:100BC000A8100040802010B50E4C03212368034379
:100BD000236003F05BFB10202368012103432360A3
:100BE00003F054FB03F00AFD002003F021FD052172
:100BF000012003F029FD8022034BD20000201A605F
:100C000010BDC046C810004000E100E010B503F080
:100C10002FFD10BD10B503F03DFD10BD0020704745
:100C2000052310B586B001A90B706B46DC1C0123AF
:100C300000220B82044B4A6018680A81CC60FFF7DF
:100C4000D3FE207806B010BD0040002010B501246E
:100C5000FFF7E6FF2042FBD110BD00007FB5062361
:100C6000002201A90B70054B0A8118680A824A60AC
:100C7000CA60FFF7AFFE07B000BDC04600400020CD
:100C800010B586B00400FFF7E9FFFFF7DFFF202370
:100C9000002201A90B701D3B0B81054B0A821868CD
:100CA0004C60CA60FFF796FEFFF7D0FF06B010BD9C
:100CB000004000207FB5FFF7D1FFFFF7C7FFC72334
:100CC000002201A90B70064B0A8118680A824A604B
:100CD000CA60FFF77FFEFFF7B9FF07B000BDC0464F
:100CE000004000208023F0B55B001700C2B29B1AC1
:100CF0009BB206000D0087B01C1C8B4200D90C1C57
:100D0000FFF7ACFF022301A90B7001330B810D4BE0
:100D1000A4B2002218680C824E60CF60FFF75AFE22
:100D2000FFF794FFA5420AD080232D1BADB23F19D7
:100D300036195B002C1C9D42E2D91C1CE0E707B071
:100D4000F0BDC046004000208023F0B55B001700D6
:100D5000C2B29B1A9BB206000D0087B01C1C8B42CE
:100D600000D90C1C032301A90B700B810C4BA4B2FE
:100D7000002218680C824E60CF60FFF735FEA54256
:100D80000BD080232D1BADB23F1936195B002C1CF4
:100D90009D42E7D9034B1C88E4E707B0F0BDC0468D
:100DA000004000206A5800007FB5902301A90B7015
:100DB0008D3B0B816B46CB60022300220B82064BDE
:100DC0004A601868FFF710FE6B466A461B78507839
:100DD0001B02184307B000BD0040002013B51748A0
:100DE000FFF79CFC164C002818D19C2322001549C3
:100DF0005B000330FFF762FE00211348FFF7D8FDC8
:100E0000124B186000280FDBA12300902200032062
:100E10000F495B00FFF752FE002016BD3C23220065
:100E200003200C49FF33E5E74823220001200A494B
:100E3000FF33FFF743FE01204042EEE7044000206D
:100E4000735800007F580000CC580000004000207C
:100E5000D1580000A4580000FF58000030B51948D0
:100E600085B0FFF71BFB04001748FFF7A5FC174BE5
:100E700018601748FFF7A0FC164B1860002C1DD116
:100E800021001548FFF794FD144D154A28600028ED
:100E90000FDB2123134900900320FFF70FFE0123EE
:100EA00003A9220028680B70FFF794FD200005B00D
:100EB00030BD2C2301200C49FFF700FE01246442C1
:100EC000F4E7C0463440002027590000BC41002010
:100ED00031590000B84100203A590000304000204C
:100EE0004659000050590000FF58000030B517481F
:100EF00085B0FFF775FB164D04002800FFF75CFC7A
:100F0000144B1860002C1DD128002100FFF750FD64
:100F1000114D124A286000280FDB1D231049009054
:100F20000320FFF7CBFD012303A9220028680B70E3
:100F3000FFF750FD200005B030BD282301200949EE
:100F4000FFF7BCFD01246442F4E7C0466440002082
:100F50007D590000C04100206040002089590000F8
:100F600050590000FF58000013B50F48FFF7A8FCC8
:100F7000041E15D101000D48FFF71AFD0C4B0D4A58
:100F80001860002807DB00901A2303200A49FFF7A6
:100F900095FD200016BD1F2301200849FFF78EFD97
:100FA00001246442F5E7C0469440002093590000B4
:100FB00090400020A059000050590000FF58000048
:100FC00000B50F280CD8184BFFF76CF808080B0B6E
:100FD0002A2A080B0B151E15081E1E2A00221A703D
:100FE00000BD03221149087802430A700121104A0A
:100FF00011700222F3E70C220C49087802430A70B0
:1010000001220B490A70EAE70321084A10780143DC
:1010100001201170064908700C2110780143E7E7A0
:10102000024903220878E9E7C441002026800040F5
:101030008C4200200022084B10B51A70074B053275
:101040001A70074B1B321A70064B1F3A0F201A708A
:10105000FFF7B6FF10BDC046C64100201E4300206A
:101060001D430020C4410020084B1A68082A01D9FA
:1010700008221A60064B074A1A600023064A1370BA
:10108000064A1370064A13707047C046904200200B
:1010900024430020AB590000C44100201E4300201F
:1010A0001D430020084B094A1A60094B1A68242A7C
:1010B00001D924221A600023064A1370064A1370CD
:1010C000064A13707047C04624430020B3590000FD
:1010D00090420020C44100201E4300201D430020F8
:1010E0000F49104ACB8A5BBA9BB21B0313608A7C00
:1010F0004B7C12021A43CB7C1B041A430B7D1B064C
:1011000013431BBA084A1B0313600023074A1370DA
:10111000074A1370074A13700122074B1A70704771
:10112000984200209042002094420020C4410020B8
:101130001E4300201D4300202843002010B50C4B07
:101140005B7C3F2B10D10B4B1A680C2A01D90C2267
:101150001A60094B094A1A600023094A1370094AA8
:101160001370094A137010BDFFF764FFFBE7C04618
:10117000984200209042002024430020385A00006A
:10118000C44100201E4300201D43002070B5134CB5
:10119000134D26782A78134B13481449324315D03F
:1011A0000022227070241C80114C2E702478DA707A
:1011B0009C70A02424055C600E4C9A6024785A73BD
:1011C0001C73DA811A8203600A7070BD70241C607F
:1011D000A02424055C609A60DA60F3E78C4200206A
:1011E0001C4300209842002024430020C4410020DA
:1011F0001E4300201D4300200023054A1370054AAA
:101200001370054A1370054A1370054A137070472E
:10121000C5410020C6410020C44100201E430020DB
:101220001D4300200023034A1370034A1370034A2E
:1012300013707047C44100201E4300201D4300204E
:1012400070B50026134A1449D38AD47D5BBA9BB289
:101250001B030B60917C537C09021943D37C0F4D17
:101260001B041943137D1B060B431BBA1B032B6086
:10127000F3B2A34207D30023094A1370094A13703B
:10128000094A137070BD2B683003C018FFF7F8FCD3
:101290000136EDE798420020904200209442002061
:1012A000C44100201E4300201D43002010B50C4BFC
:1012B0005B7C3F2B10D10B4B1A68102A01D91022EE
:1012C0001A60094B094A1A600023094A1370094A37
:1012D0001370094A137010BDFFF7ACFEFBE7C04660
:1012E000984200209042002024430020285A000009
:1012F000C44100201E4300201D43002010B5244B94
:10130000D87B2A2825D8192815D8032834D01228A4
:1013100026D000282AD005221E4B0E201A701E4B04
:101320001B321A701D4B1F3A1A7000221C4B1A7088
:10133000FFF746FE16E01A381028ECD8FEF7A8FE94
:101340002516EBEB22EBEBEBEBEBEB1FEBEB19EBEF
:1013500013002F2816D05A28DDD1FFF7A7FF01E090
:10136000FFF7A0FE10BDFFF76BFFFBE7FFF744FFA1
:10137000F8E7FFF7B5FEF5E7FFF708FFF2E7FFF73D
:1013800073FEEFE7FFF74EFFECE7FFF7D7FEE9E765
:10139000984200201E4300201D430020C44100202D
:1013A000C6410020184B10B51A78552A26D15A7814
:1013B000532A23D19A78422A20D1DA78432A1DD1A0
:1013C0009A68124912BA0A60187911490870587956
:1013D000487098798870D879C870002A08D01A7B2C
:1013E0000C49D343DBB2DB090B700B4BD2091A70EB
:1013F00001220A4B1A70FFF781FF10BD0323084A30
:1014000011780B431370F8E79842002090420020B7
:101410001F430020C5410020C6410020C7410020D5
:10142000268000400023164910B50B701549164A56
:101430000B70164916481160164902600C78147139
:101440004C7854718C789471C9781381D171124998
:10145000098849BA51811149097811731049026804
:1014600014780132CC54013302600D2BF7D10321E3
:101470000C4A13700C4A13788B43137010BDC0468E
:10148000C7410020C64100209842002055534253D6
:10149000244300201F43002090420020C44100202C
:1014A0004C4200202480004026800040F8B5194DB1
:1014B0002C68402C13D9403C2C6040240023164E4D
:1014C00032789A4211D115491548DAB2944219D9A5
:1014D0000A6815780132C5540A600133F5E7002324
:1014E000104AE4B22B601370E8E70F4F0C4A3868DB
:1014F000A1B2FFF729FC3B681B193B602B68002B4E
:1015000000D133700321094B094A1C7013788B43B7
:101510001370F8BD9042002028430020244300208F
:101520004C420020C641002094420020248000400C
:101530002680004070B50F4B0F4A1C7800230F48DF
:10154000E4B2D9B28C4211D10D4DA1B22868FFF797
:10155000C9FB2B681B192B600A4B1A68141B1C60F3
:1015600003D1094B1C70FFF75DFF70BDC15CD15406
:101570000133E6E708800040DC4200200C420020F6
:101580009442002090420020C5410020F7B5AF4BA7
:10159000022219780C00C8B21440114200D189E12E
:1015A0003F20AB490B780340202B00D1DCE009D869
:1015B000002B00D10AE1012B00D10AE10223A34A4A
:1015C0001370F7BD212B00D131E1302BF6D1C222AF
:1015D000A04B1A70A04A12780193082A68D19F4A3A
:1015E0009F4C13689F4DD979987909020143218056
:1015F000587828701D7800956025009F009E2F4028
:101600002E4228D0FE2814D1012901D9012323809C
:101610002688351C402E00D94025934FADB22A00B4
:101620003900924803F0F8F8914B761B7D1926801B
:101630001D606B4600211B785BB28B4207DA238862
:101640001A1C402B00D940229B1AD1B22380894B0F
:101650001970C0232DE00A282AD8FEF723FD7B57F6
:101660002929294806294B537900DA7898781202FB
:1016700010437F4D120A022A1ED0032A20D0012ACD
:1016800026D17D4A2A60122290B2914200D9208050
:101690002288161C402A00D94026B6B23200180013
:1016A000296803F0B9F82B689E192E60FF2FC0D16E
:1016B000CF23019A137081E7704A2A602022E3E762
:1016C000FF263040012806D0022808D000280AD082
:1016D0000022FF27D8E76A4A2A600E22D4E7694A27
:1016E0002A600C22D0E7684A2A600422CCE79B7863
:1016F00023809EE7654A12781A702388012B98D9B7
:101700000123F5E79A78614B1A7092E71F2200993E
:101710000A40022ACCD11B79012B13D0812BC7D1CF
:1017200043205B490B7883431A430A70594B1B785B
:10173000002B01D0FFF776FE574B584A19781170ED
:101740000022E1E77321524A13780B401370EDE752
:101750000022D1E700211970136859702388022BE9
:1017600000D866E70223C3E73E4B3A4C1B78052BB3
:101770001FD0062B27D13A4F3A88131C402A00D994
:1017800040239EB2DBB23A4D0093344B32001868CE
:10179000296803F041F83B88009A9B1B3B802B682B
:1017A0009E19344B2E601A704023227853402370C8
:1017B00004E77F203A490B788343294800780343A4
:1017C0000B702270FAE600232A49F9E7214B1A70C0
:1017D000F4E60B785B0600D4F0E6324C2378002B5D
:1017E00002D0FFF7A7FEE9E61B4A1278D1B2002A21
:1017F00000D1E3E62C482D4DEA5C1A540133DAB2ED
:101800009142F9D1FFF7CEFD2378002B00D0D5E629
:10181000274B1B78002B02D0FFF748FECEE61E4B6D
:101820001B78002B00D0C9E6FFF7FCFDC6E6204B75
:101830001B78002BF0D1174B1B78002BF4D1032021
:1018400013490B7883431A430A70B7E606800040B9
:10185000078000402280004008800040BC670020D4
:10186000DA420020D8420020D7590000CC410020A5
:101870002C43002020800040F8590000D859000077
:101880000E5A00001C5A00000A5A0000C8410020ED
:1018900026800040C74100208C4200201C430020CD
:1018A00003800040C5410020984200200C420020E7
:1018B000C6410020012108420AD00A4804700A48A3
:1018C00002701220094A10701A781143197078E6D4
:1018D0000422104203D0064909781A7071E6187084
:1018E0006FE6C04603800040228000402680004012
:1018F0000580004010B5FFF749FE10BD030010B58C
:101900000120002B06D1FFF74FFA034BC018431EEE
:101910009841C0B210BDC046EA10FFFF030010B5E9
:101920000120002B08D1FFF759FAFFF73DFA034BCE
:10193000C018431E9841C0B210BDC046EA10FFFF58
:1019400070B504000D00002C07D11B03100399B2E1
:101950002A00FFF7F9F9200070BD0424FBE70028F6
:101960000FD1022907D0032909D0012906D18023EC
:101970001B01136002E080235B0113807047012389
:10198000F7E70420FAE7030010B5080011001A0079
:10199000FFF7A8F9142002F0FBFD10BDF8B5060012
:1019A0000F001C0000280BD1150328002403FFF7AB
:1019B00067F929003800A2B2FFF7E5FF3000F8BD53
:1019C0000426FBE7C37882781B02134342781B028C
:1019D000007813431B02184370470B0A01704370D1
:1019E0000B0C090E8370C1707047821801700130B2
:1019F0009042FBD1704730B500230500013AEC5C02
:101A0000C85C201A9A4202D001330028F7D030BDBA
:101A100082690239023A030000208A4203D95889B8
:101A20004143D86A081870470100030000200B31B9
:101A30004208C00110431A7801338018C0B28B42AB
:101A4000F6D17047026810B5002A0BD01300197840
:101A5000013349B2CCB21F2C0CD93A29F7D1911CD1
:101A60008B4202D00120404205E0127852B2302A67
:101A7000F8D10360002010BD70B504000D000028EF
:101A800004D10923002218002A6070BD0368002BCE
:101A9000F7D01A78002AF4D08188DA889142F0D100
:101AA0005878FFF72BFF0122030013401042E8D1C2
:101AB0002268E8E7002310B5CC5CC45401339A4295
:101AC000FAD110BDCA7E10B50400887E1202104300
:101AD000032C05D14A7D0B7D120213431B041843CE
:101AE00010BD93B21B0A8A76CB760378032B03D101
:101AF000120C0A75120A4A75704770B5C378040053
:101B0000002B02D10025280070BD060034360123C9
:101B100031004078226BFFF741FF051E10D1226B88
:101B2000636AE169E070D31A8B42EBD2A378022B8F
:101B3000E8D1521860783100013BFFF72FFFE2E750
:101B40000125E0E770B50400236B0D0000208B42F7
:101B500011D02000FFF7D1FF00280CD12100012374
:101B60002A0060783431FFF7EBFE002802D001250F
:101B700001206D42256370BD002370B5C370013B29
:101B800003630400FFF7DEFF051E24D1154BE25C62
:101B9000154B1202E35C1343144A1BB293421CD14F
:101BA000230034331B78EB2B03D01833DBB2012B2B
:101BB00015D8200003220E496A30FFF71CFF0028C9
:101BC00007D0200005220B498630FFF714FF0028BC
:101BD00005D1280070BD0425FBE70325F9E70225A0
:101BE000F7E7C046330200003202000055AAFFFFAB
:101BF000445A0000485A00000023F0B50B608DB035
:101C00000E000192FFF71EFF0B24051E19DBAC4BE3
:101C10008200D7580134002F13D037600126019C71
:101C20003B78B443002B0FD07878FFF767FE304243
:101C30000AD1002C05D0042304001C40184200D017
:101C40000A2420000DB0F0BD0023E8B23B7078708C
:101C5000FFF764FEC30700D529E1002C01D043073C
:101C6000EED400213800FFF787FF022828D13C007E
:101C700008AD2E00934BF734FB18FF34019300207E
:101C80002378834202D0201DFFF79CFE019B103475
:101C900001C5A342F3D100240325A300F358280073
:101CA0000193002B05D019003800FFF765FF0128CC
:101CB0000FD90134042CF0D10124042807D1C0E746
:101CC00001240428BDD000230193A04201D90D2492
:101CD000B7E73B0040331A78013B1B7812021343ED
:101CE00080221BB252019342F1D13B003A004B33A8
:101CF0001B784A3210781B02184300D1C0E00290D2
:101D0000029BFB613B0044331C78631EBC70012BBB
:101D1000DDD83B0041331E78B3B27B81002BD6D097
:101D2000731E1E42D3D13B0046331A78013B1B7809
:101D3000120213431AB2079203933B815B06C6D18A
:101D40003B0048331D78013B18782D02284303D10E
:101D500038005430FFF736FE3B003A0043331B781F
:101D6000423212781B021A430592B0D0029B6343A1
:101D70000693039BDB099B18069A9B1804939842D1
:101D8000A5D3C51A31002800FEF7A0F90400B5421A
:101D90009DD34D4B98429AD84C4B984200D888E03E
:101DA0000325019A019B94463B62049A059B0234E9
:101DB00063446244BC617B62FA62032D65D13B00DF
:101DC0005F331A78013B1B7812021343079A1A43B8
:101DD00013B2002B00D07AE738006030FFF7F2FD35
:101DE000A400B8623A4BE418029B240B9C4200D931
:101DF0006DE701235B427B613B6181333B71032DC6
:101E000035D13B0065331A78013B1B78120213432E
:101E1000012B2CD1019938000131FFF793FE0028E6
:101E200025D12C4B3871FA5C2B4B1202FB5C13430F
:101E30002A4A1BB293421AD138003430FFF7C2FD50
:101E4000274B984213D186239B00F818FFF7BAFD61
:101E5000244B98420BD187239B00F818FFF7B2FD63
:101E600088239B007861F818FFF7ACFD38611E4AA3
:101E7000002413883D7001339BB21380FB80E0E6A1
:101E800038005830FFF79EFD39E7039A002A00D149
:101E90001DE7069A9B18BB62022D01D16400A1E7E1
:101EA0000320012360431C40400804199AE70324DF
:101EB000C7E60E4D8542AD416D42013571E7C04622
:101EC0003043002036020000F5FFFF0FF5FF000051
:101ED000FF0F0000330200003202000055AAFFFF8E
:101EE000525261417272416134430020F50F00008B
:101EF000F0B507000D001400022685B0012948D96D
:101F000083698B4245D903780093B3424BD0032BAE
:101F10005BD0012B3DD14B085B180193190B436A31
:101F2000C918FFF70FFE061E33D13B00343302936E
:101F3000019B029A01330393019B00991B051B0D22
:101F4000D318009A2A400192E2B20D4208D00F2124
:101F5000FF201A7800010A40210101400A43D2B251
:101F60001A700123FB70039B3800190B7B6AC91898
:101F7000FFF7E8FD061E0CD1039B1805029B000D20
:101F80001818019B002B07D02409E4B20470012328
:101F9000FB70300005B0F0BD0F220378240A934394
:101FA00014401C43F2E7436AC90AC918FFF7CAFD87
:101FB000061EEED13B0011496D0034330D405D1912
:101FC0002C70A4B2240A6C70E1E7436A890AC9182C
:101FD000FFF7B8FD061EDCD13B000949AD003433E4
:101FE0000D405D192800FFF7EDFC2401010F2409C5
:101FF000090728002143FFF7F0FCC8E7FE0F0000A7
:10200000FC0F0000F7B5012604000D00B14214D901
:102010008369994211D20378022B2ED0032B3DD035
:10202000B3420AD14F08436A7F18390BC918FFF72A
:1020300089FD002803D0012676423000FEBD7B1CBE
:102040003F05190B01933F0D636AE71934372000F0
:10205000C9183F78FFF776FD0028ECD1019B1805E1
:10206000000D24183434207800020743354201D093
:102070003E09E2E73F053E0DDFE7436AC90AC9189A
:10208000FFF760FD0028D6D10D496D0034340D40B6
:1020900064196678207836020643CEE7436A890AD7
:1020A000C918FFF74FFD0028C5D12000054CAD0031
:1020B000343025404019FFF785FC06013609BCE79E
:1020C000FE0F0000FC0F00008023F7B59B03050006
:1020D0000C00994201D30220FEBDCB06FBD18768DC
:1020E00006680161002F1AD13378022B02D9B36A36
:1020F000002B13D1328963099342ECD2B36AAB61EE
:10210000AA696F61002AE6D0230B24053436240D1A
:102110009B1834190020AB61EC61DDE71F00738967
:102120001B030193019B39009C4204D23000FFF74E
:102130006FFCA861E4E72868FFF764FF0700431C11
:1021400007D00128C7D9B3698342C4D9019BE41AD7
:10215000E8E70120C0E7F7B50F1E0568019007D139
:102160002E69002E02D0AB69B34210D801260EE0D2
:102170002800FFF747FF0400012802D801242000AF
:10218000FEBD431C57D0AB693E008342F7D86B6954
:10219000002B01D10024F2E7BE4216D1AB69741CBA
:1021A000A34200D80224019B21001868FFF72AFFF0
:1021B0000128E3D0431C3ED000281CD02B69012B02
:1021C00003D9AA69934200D21E003400AB690134DE
:1021D000A34202D8012EDDD90224019B21001868F8
:1021E000FFF710FF002808D00128C7D0431C22D0D9
:1021F000B442EBD1CEE7002CE7D001222100280029
:102200005242FFF775FE002813D1002F0AD1AA69A8
:102210006B69023A2C61934210D901232A79134346
:102220002B71ACE7220039002800FFF761FE00287F
:10223000EDD00128A2D101246442A0E7013B6B61EB
:10224000EBE7F8B50C00060011000568012C2DD94C
:10225000AB69A3422AD9002A06D0012228005242A3
:10226000FFF746FE002807D121003068FFF7CAFEBD
:102270002700041E01D10020F8BD012816D0431C00
:1022800016D0002239002800FFF732FE0028F3D1D3
:10229000AA696B69911E8B4205D2012101336B61E2
:1022A0002B790B432B71A242DED8E4E70220E3E74F
:1022B0000120E1E7F8B505000E00FFF71EFC040061
:1022C0000120002C15D1310028002F00FFF7A0FBC2
:1022D0008022343706002863210038005201FFF7BE
:1022E00084FB6B899C4205D36889001B441EA04176
:1022F000C0B2F8BD0123390068783219FFF74EFBF0
:102300000028F1D10134ECE7F7B5836907690400CF
:10231000019104202037002B15D080229203974290
:1023200011D23A05110D26680091002A3BD161694E
:102330000133A361002907D132897B09934232D34B
:1023400000230420A361FEBD73893A0B013B1A42AE
:1023500029D13000FFF756FE0500012801D80220E0
:10236000F1E7431C01D10120EDE7B369834214D8A2
:10237000019B002BE4D020006169FFF7ECFE050013
:102380000720002DDFD0012DE9D06B1CEBD02900F8
:102390003000FFF78FFF0028E5D12900300065618C
:1023A000FFF736FBA061009B3436F618002027614A
:1023B000E661C8E7F0B5036889B000210400049322
:1023C000FFF782FE061E00D0A2E0FF2201231700C5
:1023D0005B42E36202920593A1690498FFF7B2FBA6
:1023E000061E00D094E0E5692B780093002B00D105
:1023F00091E03F23EA7A00991340A371E52903D0C5
:10240000120704D50F2B04D0059BE36261E00F2B6C
:1024100065D123002B331A7840231A424FD1009AFA
:102420001A4253D06A7B0292009A9A43236900921F
:10243000E3626B7B029AFF27934240D1EA7EAB7E38
:10244000120213431AB2002B39D13F21049BF23FF1
:10245000DB68019203932B780B40013B5F433E39CD
:102460002E4B019AD35CEB185E781B7836021E4324
:10247000002930D0FE2F2CD8300001F069FA7B1CE7
:102480000793039B7F000690F85A01F061FA069BC0
:1024900083421ED13100079F019B013301930D2B15
:1024A000DED12B785B0607D5002905D0039A7B0087
:1024B0009B5AFF27002B02D1009F013FFFB2002152
:1024C0002000FFF721FF061E86D021E0009B9F42DF
:1024D000AFD0FF27F3E7124B9E42DDD0F9E7002F84
:1024E00005D12800FFF7A0FA029B984210D02300E4
:1024F0002B331A78012316001E401A4284D1210082
:102500000B2228002031FFF776FA002800D07BE765
:10251000300009B0F0BD0426FAE7C046125B0000A7
:10252000FFFF0000F0B506005F232B36327807006E
:102530009A43130006248BB0002A53D102680092FC
:10254000D2680293029B5B00D35A002B4DD13B0013
:102550000125203307AC19000C2220000193FFF75E
:10256000A9FAE37A2B4200D16CE040233370009B40
:102570000B22019807A9DC68FFF79CFA2B00052DB8
:1025800049D807220F2605A81C003440210030310D
:10259000392900D90731013A1418617019090F2B34
:1025A0003BD87E233C00835400231F349A4203D03F
:1025B000591C605C202832D13800202405AE1F3021
:1025C0002100072A01D8B15C01320133C154072B25
:1025D000F6D93800FFF7EEFE041E2CD10135642D2C
:1025E000C5D1072420000BB0F0BD029B0133A8E742
:1025F0001021023401265B001640F3188026760273
:102600005208334200D0434001390029F2D12288D8
:10261000002AEDD1B5E75648F9E70B00B4E70B0007
:10262000C4E7060001213800FFF76EFE041E1DD02E
:10263000042CD6D0D6E70428D4D107ABDA7A3B00F5
:102640002B331A7007ABDB7A01259B0705D502985F
:102650000D210C30FDF73AFD45193B68002138008B
:102660000293FFF731FD041EE2D10600B96902981A
:10267000FFF768FA041EDBD1FB691B78E52B01D05C
:10268000002BCED10136B542CCD16E1E012D54D0D7
:102690003B6971013800591AFFF716FD041EA1D1DC
:1026A0000198FFF7C1F90390B9690098FFF74AFA5A
:1026B000041E00D096E7009BFA69DB680D219C465A
:1026C000F3B20293039B107353730F23D372F0334F
:1026D0003340013B4B4301009076D076254CA0421D
:1026E00003D064465800005B0133234C0C5D141981
:1026F00025002070040A6C70002800D11D480131AB
:102700000D29EBD11B49884204D061465B005B5A1E
:10271000002B03D14023029919430291029B00210F
:1027200013700123009A3800D370FFF7EDFD041EEB
:1027300000D057E7013E002EB6D1B9690098FFF7E7
:1027400001FA041E00D04DE701002022F869FFF7CE
:102750004CF90B220199F869FFF7ACF91821FA69D5
:102760002B373B780B4013730123009AD37039E762
:1027700021100100FFFF0000125B0000F8B504000B
:10278000FFF7BBF9051E45D12378032B3AD12779F2
:10279000012F37D12600802234360100520130004B
:1027A000FFF723F955221C4B4121E2541B4B921891
:1027B000E2542200E23BFF3B3532337013702300BA
:1027C0006122363386201A70597072238000235498
:1027D00013482354134BE154134BE2540133E018D4
:1027E0006169FFF7FAF888239B00E0182169FFF779
:1027F000F4F8236A31005A1C60783B002263FFF72B
:10280000CDF82571002260781100FFF7A8F8431E6B
:102810009841C0B2F8BDC046320200003302000049
:10282000190200001A0200001B020000F0B50600A9
:10283000036889B004910793049B1B785BB22F2B2C
:1028400011D05C2B0FD00021049BB1601B781F2B93
:1028500000D9E8E0330080222B3330001A70FFF7F4
:1028600033FC09B0F0BD049B01330493E4E77F28F7
:102870000AD8A54B00E0013300229A56002A03D063
:102880009042F8D10620ECE7FF2DFBD0059A6B00B3
:10289000D0520135CBE0049A01320492DDE08B5A2C
:1028A000202B02D02E2B00D0EAE0013DE4E0029B79
:1028B000039A934206D2069BAB4253D1039B0B2B48
:1028C00046D102E0039B0B2B3AD103231C43083370
:1028D0000393731CDA7FE52A01D1E03ADA77039B90
:1028E000082B03D1019B9B00DBB201930C23019ABF
:1028F00013400C2B04D0130003221340934201D148
:1029000002231C43A3070AD4019BDB0701D5102334
:102910001C430422019B134201D008231C433500B1
:102920002B3530002C70FFF745FD2B78002868D040
:10293000042800D095E7034200D092E7013090E7E9
:10294000069BAB4204D003231C43069BAB42C0D87A
:10295000019B06959B00DBB201930B230393033B82
:102960000293C5E07F280ED9B6210227FF31274305
:1029700000F0BEFF030611D57F231840634B185C9F
:102980003C00002806D0624B00229A56002A22D032
:1029900090421ED103235F201C4313E0FF28EFD990
:1029A000039B029A013B9A4203D303231C43039BDC
:1029B000D6E73C00029B020AF3180133DA77029B48
:1029C00001330293029BF3180133D877029B013342
:1029D000C6E70133D8E70300413B9BB2192B04D86B
:1029E0000223019A1A430192ECE70300613B9BB278
:1029F000192BE7D80123019A20381A43019280B29B
:102A0000E0E70422134200D02BE7B379DB0671D54F
:102A1000336907991B051B0D3431C918079B1878BA
:102A2000FFF750F8B06000253368DB680593049B1E
:102A30005C1C5B5D6419002B0ED0B62198B2FF318F
:102A400000F072FF031E00D11CE71F2804D92F28B5
:102A500002D05C2800D00AE70494049A127852B29B
:102A60002F2A00D117E75C2A00D114E704241F2B7A
:102A700000D90024059B991E6A00002D00D00EE7A6
:102A8000002305998B529D4200D1FBE605995A001F
:102A90008A5A1F000133202AF8D0002F01D12E2A94
:102AA00001D103231C43059B9A1E6B00D35A2E2B86
:102AB00002D0013D002DF8D120210B227018FEF725
:102AC00094FF082303930023029301937B1C069336
:102AD000059B7F00F85A002800D1FAE6202805D08F
:102AE0002E2800D0E3E6069BAB4205D003231C430F
:102AF000069FEBE70520B4E6029B039A934200D2BF
:102B0000DCE61300DBE6C0464E5A0000925A000095
:102B1000575A00001FB5019003A8140000910391BB
:102B2000FEF790FF002817DB0C4A80008358002B2B
:102B300001D000211970019B002B01D000211970D8
:102B40001350002C05D00022684601A9FFF754F865
:102B50000400200004B010BD0B24FAE7304300202D
:102B6000F0B56B4C0500A54416000924039100281C
:102B700000D18DE03F2717403A0005A903A8FFF7D1
:102B80003BF8041E56D1059B12AA0399DA6006A8E9
:102B90000693FFF74BFE041E06D13B2302AA9B18A7
:102BA0001B787F2B00D906341C231E4200D174E011
:102BB000002C42D0042C3DD106A8FFF7B3FC041E24
:102BC00038D108231F430D9E059B310018780193CF
:102BD000FEF778FF2123002433742B33B473F4738E
:102BE00073740D9B009002932023029A0198D37274
:102BF0000D992200FEF775FF01220D9B1C775C7773
:102C00009C77DC77059BDA70009AA2421FD02200E5
:102C1000009906A81E6BFFF714FB041E0AD13100B1
:102C20000598FEF78FFF04000098059B0138186196
:102C3000002C0CD000232B602AE002AB9A7D1123DC
:102C40001A4234D108247307F4D42642BBD13B077F
:102C500001D540231F43059C236B2B620D9B6B62A8
:102C6000207819000093FEF72DFFA8600600009859
:102C70001C30FEF7A7FE2C600090E860E3882F74FC
:102C8000AB8000236B74EB616B61BB0611D4002435
:102C9000200093239B009D44F0BD002CCAD102ABC1
:102CA0009B7DDA0630D4B207D1D5DB07CFD5072418
:102CB000C0E7009B002BEAD06B6164892403009B72
:102CC0009C4211D30024AE61002CB3D1009B1B05A4
:102CD000DDD031000598FEF79BFE031E16D0009A4A
:102CE000100BC018E861D3E731002868FFF78AF9B4
:102CF000009B06001B1B0093012803D9431CDED157
:102D00000124E0E70224DEE7042493E7022491E7AC
:102D1000B4FDFFFFF0B51F00002389B001913B60B7
:102D200007A904001500FEF7A7FE0090002827D190
:102D3000637C0093002B23D1227C013311001940C6
:102D400005911A4200D186E0E36862699E1AAE429C
:102D500000D92E00002E13D06269130560D1110B2B
:102D60000800079B5B89013B18400390194217D16B
:102D7000002A08D1A06801280AD8022060740090B7
:102D8000009809B0F0BDA1692068FFF73BF9F2E7B0
:102D9000431C04D101236374059B0093F0E7A061F9
:102DA000079BA16918000293FEF732FE0028E4D0C9
:102DB000039B1B18049380235B019E422ED3029B2E
:102DC000039A350B5B8952199A4201D9039A9D1ACD
:102DD000029B049A587801992B00FEF7B1FD002858
:102DE000D8D10799CB78002B0CD00B6B049A981A8A
:102DF000A84207D28022019B0003343118185201E7
:102E0000FEF758FE2D033B68761B5B193B60019B68
:102E10005B19019363695D1965619BE7049BE3613D
:102E20008022636952011B051B0D3500D31A9E4297
:102E300000D91D00E1690798FEF784FE0028A9D19A
:102E4000636907991B051B0D34312A000198C918C5
:102E5000FEF730FED7E707239FE7F0B589B005936B
:102E600000231700059A0291136007A90400FEF7DA
:102E700003FE0190002829D1637C0193002B25D10A
:102E8000237C9B0700D4ADE06369DA19934200D933
:102E9000DF43002F16D06269130500D084E0110BC8
:102EA0000800079B5B89013B18400490194221D11F
:102EB000002A0ED1A16800290DD12000FFF74BF99F
:102EC000011E08D14023227C13432374019809B0CA
:102ED000F0BDA169F1E7012903D1022060740190DE
:102EE000F4E74B1C01D10120F8E7A368A161002B96
:102EF00000D1A1600798E269036B934203D1FEF70A
:102F0000FCFD0028EFD1079BA16918000393FEF791
:102F10007FFD0028E1D0049B1E1880235B019F42A7
:102F200036D3039B049A3D0B5B8952199A4201D90F
:102F3000049A9D1A039B3200587802992B00FEF7E1
:102F40002DFD03900028CED10798036B9E1BAE4247
:102F50000AD28022029B3603991952013430FEF7BF
:102F6000A9FD079B039ADA702D03059B059A1B6840
:102F70007F1B03935B191360029B5B1902936369C8
:102F8000ED18E3686561AB4200D22B00E36080E797
:102F90006369E268934206D30398FEF7AEFD00280A
:102FA000A1D1079B1E63E6618022636952011B0564
:102FB0001B0D3D00D31A9F4200D91D00E1690798FF
:102FC000FEF7C0FD00288ED1636907981B051B0D15
:102FD00034302A00C0180299FEF76CFD0122079BCD
:102FE000DA70C2E70723019370E7436873B5040002
:102FF000002B14DB5D1CC318866819733B2D0BDD99
:1030000001002A0001AB00680C31FFF726FF019B8D
:103010005D1B6B1E9D416D4201366560A66073BDF0
:10302000426813B50400002A02DA0120404216BDAE
:10303000010001AB00680C31FFF70FFF0028F4D14D
:103040006368019A9342F0D1A068F0E7F7B501A94F
:103050000500FEF711FD041E2BD12B7C40271C0020
:103060003C403B4225D0296A0198FEF76BFD041EC7
:103070001FD120236E6AF27A31001343F372AA68DB
:103080002868FEF72EFD3000E9681C30FEF7A5FC2D
:103090002123019833762B3373764B3BB475F4754B
:1030A000B474F474C370FFF769FB04002B7CBB435A
:1030B0002B742000FEBD13B50400FFF7C7FF0028E6
:1030C00006D1200001A9FEF7D7FC002800D120601E
:1030D00016BD0000F0B58FB00B900BA81C000F00C0
:1030E0001500FEF7AFFC03000B20002B2BDBA64ADC
:1030F00099008A58002A01D000211170DBB2180013
:103100000493FEF70BFC03000320DA071BD40730FF
:103110005B0718D4032104980CAAFEF720FC0028B2
:1031200007D180210C9B09025A1E8A4201D21A4201
:1031300001D001230C93002D0AD0944B944AEB1834
:10314000934202D913200FB0F0BD6B1E1D42F9D17E
:103150001120002CF7D08023149A5B019A42F2D3FD
:10316000012104980DAAFEF7FAFB03000120002BB1
:10317000E9D108223900114007910393174201D188
:103180003F3303930D9E039B9E4201D20E20DAE74C
:10319000039BF61A0D967F2EF8D981231B039D42BF
:1031A000D0D202233A001A402D0B0A921F4227D098
:1031B00005333B40022B00D102E2FB0700D4FFE1C4
:1031C0002F1E08D10127734B310B1A88002A02D019
:1031D00002338A421BD939003000FCF777FF6E4A70
:1031E0000300904215D902230230400001936B4B3B
:1031F000C018030B029304230993033B069306E2D2
:10320000FB07DDD49EE76D00E0E10197E8E17F0078
:10321000DBE7032058430130400801230330E5E792
:10322000029B9B1802930CE2019B022B16D15C4B74
:10323000089A9A4208D9002D00D0BDE17F00402FA6
:1032400000D91EE23D00BBE7534B089A9A420BD8C7
:10325000002D9BD17D00802DB2D997E74E4B089A67
:103260009A4293D801230193802200212000520129
:10327000FEF7BBFB4B490B222000FEF71BFC102383
:103280002373069B0022A3736B461B8BE2721B0AFF
:10329000E37301232374019B6773033B591E8B4126
:1032A0005B00A37480230D9962745B0299424BD238
:1032B000E17489B2090A2175F8230025200063759D
:1032C000B93B2376C033A37603996576E5761C3047
:1032D000FEF783FB019B032B3BD12300212220001F
:1032E00043339A702B32DA7002991D705D7024306E
:1032F000FEF773FB2300022220002C331A70013AE0
:103300001A7105329A717A321A752749573A9A75A5
:103310005D709D70DD705D71DD71163A4730FEF7AE
:10332000C9FBFF2355225B00E254204E553BFF3B77
:10333000A3552100039A0498A93BFEF72FFB06969C
:10334000051E37D00120FEE620002030FEF745FBA9
:10335000B2E7230021220833DD7720335A702B3265
:103360009A701D70029B2000A3756B461B89343236
:103370001B0AE375631DDA77573AE31DDA770C49C8
:10338000163A2B30CBE7C0463043002000F0FFFF59
:1033900000F0FF00205B0000F50F0000FF0F0000B1
:1033A000F5FF00005E5A00006A5A0000FF010000AD
:1033B0007E5A0000019B032B47D1039B21009A1DDD
:1033C00004980123FEF7EAFA802229002000520126
:1033D000FEF70BFB5223F22041227221237063700F
:1033E00040000F33A370E2702154E620FF302154D7
:1033F0007531FF3162542000E8220899FF32E9302C
:10340000A3540139FF30FEF7E8FAF62302225B00ED
:10341000E254EE23FF33E5540133E554F023FF3348
:10342000E55453320F33E254069B5532E254039B6A
:103430002100DA1D04980123FEF7B0FA039B210056
:103440005A1C04980123FEF7A9FA149B00211D0BB6
:1034500020002A03FEF7C9FA019B032B59D1F5334B
:10346000237007336370A370E37023716371A371DA
:10347000E37123726372A372F03BE372029EAE4269
:1034800000D92E0021003300059A0498FEF786FA31
:10349000011E00D056E7802220005201FEF7A5FA57
:1034A000059B9B190593029B9B1B0293E6D1019BF5
:1034B000032B00D0099F3E00AF4200D92E003300FD
:1034C0002100059A0498FEF769FA002800D039E730
:1034D000059BBF1B9B190593002FECD1019B0C256D
:1034E000032B0AD080230D9A5B02063D9A4204D238
:1034F000019B023D022B00D0033D079B002B15D002
:10350000002204981100FEF72AFA431E9841C0B227
:1035100019E6019B2000591E4B4259418023494224
:103520005B0419400839FEF758FAA7E7802220000B
:1035300007995201FEF759FAFF2355225B00E25426
:10354000069A553BFF3BA354079A1533FF33E254C9
:10355000C0230126FF33E6549B19E654C223FF33F0
:10356000E2549B190D9AE554039B4A499818FCF7BD
:10357000ADFDC423FE22FF33E254853B8208FF3BAE
:103580001343E2225200A354C623FF33E054200029
:10359000C7300399FF30FEF720FA2000CB300D9999
:1035A000FF30FEF71AFA33002100079A0498FEF75D
:1035B000F5F90028A4D0C5E60A9B002B00D1E5E56B
:1035C0000195002D0CD10125334B720C1F88002F63
:1035D00000D11AE60233974200D814E60023019383
:1035E00029003000FCF772FD2C4A83009B181B0B4E
:1035F00002932B4BC0182B4B984200D9C6E50023F1
:103600000993203306931D3B2F00019D0193039ADC
:10361000069B94466344029A0593099B9918059B5F
:103620000C9AC918531E5B1852421A40019B521A39
:10363000032B00D0F4E5069B9B180693059B9B1873
:103640000593039A3B019B1A5B189E4200D29DE5AD
:10365000099B3900F01A069BC01A029BC01AFCF79E
:1036600035FD019B0890032B00D0DDE50E4B984201
:1036700000D9F9E5002D00D088E57D08012F9FD8FD
:1036800084E50A9B002B9ED13D00802F00D8A2E547
:103690007CE5C046C13E00002E5B00000710000024
:1036A0000A00FFFFFFFFFE0FF5FF00000EB4F0B5AC
:1036B0000500A0B025AC80CC4C2200210DA8FEF75F
:1036C00094F90D95049400217956002900D107E161
:1036D000252904D001370DA8FFF787FCF3E7012166
:1036E0007956302917D1022101257956FB1C2A2948
:1036F0001BD000220A2000920A00303AD2B21F00EA
:10370000092A1AD8009A42435118303900910021F1
:1037100059560133F0E72D2902D00025BB1CE6E7FE
:10372000022102257956FB1CE1E7049A5F1C111D5A
:10373000049100211268009259560B0020229343F5
:103740004C2B04D10021483B79561D4301370029F9
:1037500000D1C5E0CAB2100061380B00192802D8A8
:103760001300203B5BB2582BB5DC4E2B54DC432BB3
:1037700000D195E00A220192442B03D0083A01922D
:10378000422BA8D1049A101D04901668442B04D132
:10379000002E02DA082376421D430723782900D140
:1037A0002723DBB203930023029330000199FCF737
:1037B00013FD33000600092900D97DE0029A029822
:1037C00049B2541C303105AA1154019A9A4203D8C7
:1037D000202C6FD11F2302932B0704D52D2305AA7C
:1037E0001355029C02343026EB0700D4103EAB0781
:1037F00074D52500013C05AB19570DA8FFF7F5FB63
:10380000002CF7D1009BAB4200D85CE731000DA83B
:10381000FFF7EBFB0135F5E718004F38092800D911
:1038200059E7FCF749FC0A0058FF58FF58FF0D0004
:1038300058FF450058FF58FF430008220192A1E7B6
:10384000049B1A1D1E6800230492F2561C000133CB
:10385000002AFAD1AB0710D4250004E020210DA8DE
:10386000FFF7C3FB0135009BAB42F7D8009A00235A
:10387000944200D8131B0134E4180021715600292A
:1038800009D1009BA34200D81DE720210DA8FFF716
:10389000ACFB0134F5E70DA80136FFF7A6FBECE71A
:1038A0000021049B1A1D5956049214E71022C5E703
:1038B0000A22C3E7029478E7039A51187EE73100A1
:1038C0000DA8FFF792FB0135009BAB42F7D800250E
:1038D0009C4200D81D1B631CED188BE72500F3E705
:1038E0000DA8FFF79DFB20B0F0BC08BC03B0184743
:1038F000030080B27F2B13D9802200205202934212
:103900000ED2B622FF3291420AD1064A118899425C
:1039100004D0013080B202328028F7D18030C0B2AA
:103920007047C046EA5D00007F280AD9B623FF33FE
:10393000994207D1FF2805D8034BC018034B40001C
:10394000185A70470020FCE780FFFF7FEA5D000007
:103950008023F0B55B020400984221D280221E49E8
:1039600083B25201904200D31C49FF260A88080006
:10397000002A14D0934212D345880431280A3540D6
:10398000AF18BC4223DA082809D8FCF78BFB050BDB
:1039900011131517191B1D00A21A5200535A1C00AF
:1039A0002000F0BD01209A1A02409B1A9BB2F6E754
:1039B000103BFBE7203BF9E7303BF7E71A3BF5E725
:1039C0000833F3E7503BF1E7054A9B18EEE7002880
:1039D000CCD16D004919C9E73C5B00002E5D0000A9
:1039E000A0E3FFFFF0B502208BB000F04BFB1021ED
:1039F000012000F0C1FC052000F0CAFDFDF7B4FA7B
:103A0000FDF72CFAFDF772FA0021D348FCF7D0FF3E
:103A100000210600D148FCF7CBFF00210390D048DD
:103A2000FCF7C6FF08AC0125220007A9CD4B049086
:103A30000D7081CB81C200223000FCF7CBFF21004A
:103A400000220398FCF7C6FFC74BC84C1B78220026
:103A5000C749009303205323FDF730F8C54E2A00D1
:103A60003100C548FFF756F8C44F38700D2800D014
:103A70001CE15B232200C2490A38FDF71FF88023AE
:103A80005B010022290000933000BE4BFFF722FBB0
:103A90005F23387022000090BB490320FDF70EF829
:103AA0003B780593002B00D0F9E063332200B7493F
:103AB0000320FDF703F82A0031000598FFF72AF8E4
:103AC0002A0038703100AC48FFF724F83870A74C52
:103AD0007F232200AE490320FCF7F0FFAD4F0A22FE
:103AE0003800AD49FFF73CF8A44B1870002800D00F
:103AF000FAE083232200A9490330FCF7DFFFA84E38
:103B0000A84D33001A2229003800FFF7A6F99B4B75
:103B10001870002800D0E2E033682200A249009328
:103B200003308823FCF7CAFF892322009F490095B0
:103B30000320FCF7C3FF9748FFF7BDFA9823220044
:103B40009B490320FCF7BAFF924D012228009249BD
:103B5000FFF706F8894B1870002800D0D0E09C23AE
:103B6000220094490330FCF7A9FF80228C4F924E2B
:103B70003B0031002800D200FFF7CCF87F4B1870D3
:103B8000002800D0B7E03B6822008C490093033046
:103B9000A023FCF793FFA12322008949009603206C
:103BA000FCF78CFF2800FFF786FA012271490020FC
:103BB000FEF7B0FF834B844AFF261A60834B844A8A
:103BC0001A6000F079FD4022824B1A6000220498AE
:103BD0001100FCF709FF041EF8D1142000F0D8FCF6
:103BE000220021000498FCF7FFFE021EEED108A976
:103BF0000398FCF7EFFE01225E495F48FEF78AFF5B
:103C00005E4D2870002805D1C323584A72490330FD
:103C1000FCF754FF5F4F0A2238007049FEF7A0FFFF
:103C20002870002815D1514CC82322006C4903305C
:103C3000FCF744FF38006B4A6B49FFF737FDC3B20E
:103C40002B70002B63D1220003206849CC33FCF792
:103C500035FF674C2578012D69D14E4F654A3800F4
:103C60006549FFF723FD454BC0B2404A1870002854
:103C700056D05E49DA230320FCF720FF3800FFF717
:103C80001AFA2A0000203B49FEF744FF5B4D5948D1
:103C9000297800F0EDFC00232B70237096E76B234E
:103CA000220003205649FCF709FFFEE700280FD049
:103CB00072232200534900902800FCF7FFFEFCF716
:103CC000F9FF7423220028004F49FCF7F7FEFEE7B6
:103CD0007A2322004D490320FCF7F0FEF7E68D23FE
:103CE00022004B49009023E79423220049490320F6
:103CF000FCF7E4FE22E7A5232200474900904EE7A7
:103D0000AA23220045490320FCF7D8FE4AE73040A9
:103D10000090D023220042490120FCF7CFFE98E713
:103D20000090E02328003E49FCF7C8FEAEE71420CF
:103D300000F02EFC3B4A13780133DBB213700A2BE0
:103D400087D900252B48157029001F2200F06DFD32
:103D50002A4B25701D707CE73A59000093590000EA
:103D60007D590000DC57000041100040F15E00006A
:103D7000035F0000295F000064470020985700207F
:103D80002C5F0000BB570020855F0000A75F00008C
:103D9000CD600000384700201D6100002861000050
:103DA00060470020C040002092610000CE6100000A
:103DB000506200008B62000036430020AC620000BD
:103DC000F7620000BC670020CC410020C0670020E3
:103DD0000C42002000E100E087630000AB630000BC
:103DE000B5630000D8630000DE630000E1630000FB
:103DF000B8570020995700203B640000B9570020B5
:103E0000D85F0000FF5F0000446000008260000097
:103E1000F761000025620000366300006363000064
:103E200006640000BA5700200F2210B5114B1B7812
:103E30001340042B0BD0062B08D10F4B03201B780B
:103E400080230E4A0E495B00FCF738FE10BD0D4A78
:103E50000D4912780D480B78D2B2C2540C48047840
:103E6000002CF3D10A2A02D101230370EEE70133BB
:103E70000B70EBE70430004005300040F15E0000BD
:103E80003F64000008300040B957002099570020D7
:103E9000B8570020024B18784007C00F7047C04643
:103EA0000A100040572288210A4B10B51A7051326F
:103EB0001A70094A118004220849088802430A80BE
:103EC00000220A201A7000F037FB012000F08CFA63
:103ED00010BDC0464010004008100040481000408F
:103EE00057220A4B0A491A7051321A700878A43ABC
:103EF00002430A7000221A709623DB00C046C046B7
:103F0000C046C046013B002BF8D17047401000402E
:103F10000A1000405722084B08491A7051321A7093
:103F20000878A03A02430A7000221A70C046C046C0
:103F3000C046C0467047C046401000400A100040CE
:103F400057220A4B0A491A7051321A700878983A67
:103F500002430A7000221A70064BC046C046C04693
:103F6000C046013B002BF8D17047C04640100040CE
:103F70000A100040B80B0000C0220D4B10B51B8882
:103F800099B21340802B0DD0402B05D1213B09481D
:103F90001940FCF725F910BD002B05D11F33064849
:103FA0001940F6E70448F6E7FA20C001F3E7C046F7
:103FB0000810004000389C1C0048E80110B500299A
:103FC00025D0204B002815D157211F4A117051319F
:103FD00011701C78A6392143197010707F241A784B
:103FE0001878D1B2A043A2439042F8D149B2002937
:103FF000F5DA10BD0128F1D15721134A1170513162
:10400000117019780843002118701170E6E7002834
:104010000BD1572202240C4B0A491A7051321A70E4
:104020000A78A2430A701870E3E70128E1D1572209
:10403000054B044C1A7051321A7022788243227058
:104040001970D6E72F10004040100040012110B534
:104050000400FFF7B3FF5722084B04211A705132B6
:104060001A70074A1078002C04D18843107000227F
:104070001A7010BD01431170F9E7C04640100040AE
:104080002F10004070B5624C0C284AD85726614D5D
:10409000FCF708F80710121F2B374A566476889AE7
:1040A000AC000020FFF7D2FFA82326702370203336
:1040B0002B8036E00120F5E7FFF7ECFE002801D168
:1040C000FFF70EFF5723237051332370E133FF3383
:1040D000EEE7FFF7DFFE002801D1FFF701FF5723CE
:1040E0002370513323704C4BE2E7FFF7D3FE0028D7
:1040F00001D1FFF7F5FE57232370513323705D3351
:10410000E5E7464E33781B0701D4FFF703FF57233B
:10411000237051332370203B04222B803378934348
:1041200033700023237070BD3C4E33781B0701D4DD
:10413000FFF7F0FE5723237051332370A63BEBE7C4
:10414000364E33781B0701D4FFF7E4FE57230422D1
:104150002370513323702A803378E0E7FFF79AFE0B
:10416000002801D1FFF7BCFE2C4B1B78DB0601D4E5
:10417000FFF7E6FE5723237051332370A533A6E7DC
:10418000FFF788FE002801D1FFF7AAFE234B1B781A
:10419000DB0601D4FFF7D4FE57232370513323707D
:1041A0001F4B85E7FFF776FE002801D1FFF798FE49
:1041B0001A4B1B78DB0601D4FFF7C2FE572323708E
:1041C00051332370AD3382E7FFF764FE002801D13D
:1041D000FFF786FE114B1B78DB0601D4FFF7B0FE1C
:1041E0005723237051332370B13370E7FFF752FE2A
:1041F000002801D1FFF774FE084B1B78DB0601D4C1
:10420000FFF79EFE5723237051332370054B4FE772
:104210004010004008100040020200000A10004058
:104220004F0200005E020000030000B508000429F0
:1042300017D81349134AFBF735FF030A15181F0057
:1042400008689843086010480168994305E00868C9
:10425000984308600C48016819430160116899434C
:10426000116000BD08681843ECE7086898430860CF
:10427000106803431360F4E708681843F7E7C04683
:10428000B4100040A0100040B0100040030000B582
:104290000800042917D81349134AFBF703FF030A40
:1042A00015181F0008689843086010480168994372
:1042B00005E00868984308600C48016819430160EC
:1042C00011689943116000BD08681843ECE708685D
:1042D00098430860106803431360F4E708681843C4
:1042E000F7E7C046D4100040C0100040D010004096
:1042F0000821F0B5194A1A4B1078084206D1572008
:10430000187051301870107801431170052557202E
:10431000A821144C187019702580134D134E2C8849
:10432000FA2734402C8010241578FF002C43147099
:10433000002201241A700E4DAC4665462D782E00E1
:104340002640254208D10132BA42F4D9094D1870ED
:1043500019702C701E70EEE70022EEE70A10004084
:10436000401000400810004020100040FFF9FFFFFF
:104370002610004046100040F0B55727A826164AE0
:10438000164D1770164C4BB21670002813D1002B27
:1043900004DA022313480678334303701C202B7879
:1043A0000840834303202B70237801408B43237004
:1043B00000231370F0BD002B04DA022609480178AF
:1043C000B14301701C212878194001430320297052
:1043D000217803400B43EAE7401000400A100040F8
:1043E0002F1000400F100040F8B55727A8260C4C9E
:1043F0000C4D27702670002802D128702070F8BD5F
:104400000120094B187000232870237000F094F8E5
:104410000D23277026702B7000232370EFE7C04612
:104420004010004024100040251000400422084B9A
:104430001A70084B023A1A705E321A70064B503AE4
:1044400019780A4301211A701A788A431A70704742
:10445000034000400040004001400040064B402225
:104460001978022804D10A431A70044B1870704757
:1044700091431970F9E7C0460140004003400040F5
:1044800000B503280DD808210E4A0F4BFBF70AFE92
:10449000020A1115107888431070202219780A43F7
:1044A0001A7000BD10788843107020211A788A4352
:1044B000F6E7107801431170EFE7107801431170AF
:1044C000F3E7C04600400040014000401021064A8A
:1044D00013788B431370054B0549187040230A78F5
:1044E0001A42FCD07047C0460040004004400040E3
:1044F00006400040102310B50A4A14782343137075
:104500000122094B1980094B41181A70084B094ABE
:10451000884200D110BD1C78002CF9D014780470AA
:104520000130F5E7004000400C40004006400040EC
:10453000074000401040004080B584B000AF02004A
:10454000BB1D1A800C23FB1800221A8014E00E23D6
:10455000FB1802221A8001E0C046C0460E22BB189A
:104560001B88BA18591E1180002BF5D10C217B181D
:104570001A887B1801321A800C23FA18BB1D128886
:104580001B889A42E3D3C046C046BD4604B080BDF6
:1045900070B5FA2605000024B600AC4200D170BD0B
:1045A00030000134FFF7C8FFA4B2F6E70023100083
:1045B00030B5064A064C834200DB30BD1578082D25
:1045C000FCD0CD5C01332570F5E7C0460B300040D0
:1045D0000830004070B50A250400FFF7CDFC6843A1
:1045E0002100C008FBF772FD29000530FBF76EFDC6
:1045F000014B80B2188070BD0C300040E12010B536
:104600004002FFF7E7FF8722054B1A70054B843AFB
:104610001A70054B3D321A70044B3F3A1A7010BDA8
:104620000230004003300040013000400E300040B6
:104630003F21044A800113780B400343DBB213701F
:104640007047C04602300040074B1A78002807D058
:10465000114319700823054A11780B4313707047F2
:104660008A431A70FBE7C04601300040003000402A
:1046700010B5064B064A4118884200D110BD1C787F
:10468000082CF9D0047801301470F5E70B300040A5
:10469000083000400200002330B5054C054D21785C
:1046A00098B2002900D130BD2978D1540133F6E702
:1046B0000A300040083000400021CC231C4A1D482D
:1046C00010B5117003701C481C4C03701C4B1D4826
:1046D0001B689BB203801C4B1C481B689BB2038069
:1046E0001B4B1C481B689BB203801B4B1B481B6861
:1046F0009BB2038002201A4B187012232370194CAE
:104700002370194C2370194B1870194B19702923F9
:104710001370FF22174B1A708023174A11880B431E
:1047200013808122154B1A70154B7A3A1A7010BDFE
:10473000008000400C8000400D800040268000403A
:10474000BC67002010800040C0670020148000403B
:10475000C467002018800040C86700201C8000400B
:10476000228000402A8000402E800040328000409D
:1047700003800040068000401A1000400180004085
:10478000028000401248854612480168090E124A0C
:10479000914205D111481249016012481249016045
:1047A000002103E0114B5B58435004311048114B7A
:1047B00042189A42F6D3104A02E0002313600432F2
:1047C0000E4B9A42F9D3FFF76DFBFFF70BF9FEE7AB
:1047D00000800020040000001F00000018100240AC
:1047E000010000000000014000000000FC64000027
:1047F000004000205C4100205C410020E867002070
:10480000FEE7000010B5034B0100186800F060F8E7
:1048100010BDC046F8400020002310B59A4200D1D8
:1048200010BDCC5CC4540133F8E7030082189342F6
:1048300000D1704719700133F9E7000070B5050029
:10484000002910D00C1F2368002B00DAE418280080
:1048500000F0CAF91D4A1368002B05D1636014608B
:10486000280000F0C9F970BDA34208D9216860187A
:104870008342F3D118685B6841182160EEE71A00A3
:104880005B68002B01D0A342F9D911685018A042EF
:104890000BD120680918501811608342E0D11868C4
:1048A0005B68411811605360DAE7A04202D90C231B
:1048B0002B60D5E721686018834203D118685B68D4
:1048C0004118216063605460CAE7C046CC6700208D
:1048D000F8B50323CD1C9D43083506000C2D1FD2CF
:1048E0000C25A9421ED8300000F07EF925490A683F
:1048F0001400002C1AD1244F3B68002B04D1210056
:10490000300000F043F838602900300000F03EF835
:10491000431C2BD10C233000336000F06DF903E011
:10492000002DDEDA0C2333600020F8BD23685B1B0A
:1049300019D40B2B03D92360E418256003E06368C6
:10494000A2420ED10B60300000F056F92000072281
:104950000B30231D9043C21A9842E6D01B1AA35075
:10496000E3E75360EFE722006468C2E70323C41C57
:104970009C43A042E1D0211A300000F007F8431C0C
:10498000DBD1C7E7CC670020D0670020002370B5DB
:10499000064D040008002B6000F012FF431C03D1F9
:1049A0002B68002B00D0236070BDC046E467002058
:1049B000094B70B51C6805000E00002C05D0A369DA
:1049C000002B02D1200000F06BF833002A002000F9
:1049D000A16800F041F970BDF8400020002310B537
:1049E0000400036043608360818143661900C281D3
:1049F00003614361836108225C30FFF716FF054BBA
:104A00006362054B2462A362044BE362044B23639D
:104A100010BDC046D1510000F951000031520000D4
:104A20005D52000010B5024900F0BAF810BDC04652
:104A30006955000070B568254A1E55430E002900CF
:104A40007431FFF745FF041E08D000212A000160E1
:104A500046600C30A0606832FFF7E7FE200070BDB2
:104A600010B5024800F0BDF810BDC046E067002058
:104A700010B5024800F0B6F810BDC046E06700204F
:104A800010B5024800F0ADF810BDC046DB6700204D
:104A900010B5024800F0A6F810BDC046DB67002044
:104AA00013B50400FFF7ECFFA369002B02D0FFF75A
:104AB000EFFF13BDA364E3642365134B134A1B6824
:104AC000A2620193A34201D10123A361200000F05F
:104AD0001FF86060200000F01BF8A060200000F0CC
:104AE00017F800220421E0606068FFF777FF0122D9
:104AF0000921A068FFF772FF02221221E068FFF788
:104B00006DFF0123A361D2E7C4640000254A0000C1
:104B1000F8B50700FFF7A4FF1F4B1E68B369002B11
:104B200002D13000FFF7BCFF4836B4687368013B20
:104B300004D53368002B22D03668F6E70C22A55E38
:104B4000002D1AD12000154B5830E360656600F047
:104B500047F8FFF78DFF2000082229002560A56097
:104B6000656025616561A5615C30FFF75EFE656388
:104B7000A563A564E5642000F8BD6834D7E7042187
:104B80003800FFF757FF041E3060D5D1FFF770FFE4
:104B90000C233B60EFE7C046C46400000100FFFF48
:104BA000F7B5040006000027019148346368A56842
:104BB0000093009B013B009304D52468002CF5D1A1
:104BC0003800FEBDAB89012B08D90E22AB5E013344
:104BD00004D029003000019B984707436835E8E777
:104BE000704770477047000010B50248FFF7F9FFA3
:104BF00010BDC046DC67002010B50248FFF7F2FF89
:104C000010BDC046DC670020936810B5013B93607F
:104C1000002B04DA9469A34207DB0A2905D0136844
:104C2000581C10601970080010BD00F01DFB010039
:104C3000F9E7F8B506000F001400D518AC4201D111
:104C4000002007E021783A003000FFF7DDFF013453
:104C5000431CF3D1F8BD0000F0B5A1B006000C0074
:104C60001F000392002804D08369002B01D1FFF7B5
:104C700017FF8E4B9C421CD17468636EDB0705D412
:104C8000A3899B0502D4A06DFFF7ABFFA3891B0787
:104C900002D52369002B1DD12100300000F04EFB0E
:104CA000002817D0636EDB070DD50120404221B0EC
:104CB000F0BD7F4B9C4201D1B468DEE77D4B9C4246
:104CC000DBD1F468D9E7A3899B05EED4A06DFFF78B
:104CD00089FFEAE7002308AD6B6120336B76103360
:104CE000AB760797039F3B78002B01D0252B4ED145
:104CF000039BFB1A0593039B9F420DD0059B21004C
:104D00003000039AFFF795FF431C00D1B5E06A69B4
:104D1000059B944663446B613B78002B00D1ACE06B
:104D200001227B1C0393002352426A6004A954327F
:104D300052182B60EB60AB601370AB65039B0522D0
:104D400019785D4800F0D0FC039B5F1C002820D13F
:104D50002A68D30604D5532304A95B1820211970AF
:104D6000130704D5532304A95B182B211970039B47
:104D70001B782A2B16D00021EB68039F3A78781C09
:104D8000303A8446092A4FD9002911D117E001375A
:104D9000A9E7494B2A68C01A0123834013432B60BB
:104DA0000397CBE7079B191D1B680791002B01DBBD
:104DB0000B9304E05B42EB60022313432B603B78D0
:104DC0002E2B0AD17B782A2B37D1079B02371A1D4D
:104DD0001B680792002B2DDB099303223978374893
:104DE00000F082FC002807D0344B2A68C01A402308
:104DF0008340134301372B6039787B1C06223048EF
:104E00000393297600F070FC002845D02D4B002B31
:104E100027D10722079B07339343083307936B6916
:104E2000049A9B186B615DE70A214B4367469B1808
:104E30000939A3E701235B42CEE700231A000137BB
:104E40006B603978781C30398446092903D9002BE6
:104E5000C3D00992C1E70A235A4367465218093B57
:104E6000EFE707AB0093220029003000164B00E06B
:104E700000BF0490049B0133D1D1636EDB0705D4DE
:104E8000A3899B0502D4A06DFFF7ACFEA3895B0646
:104E900000D50AE70D980AE707AB00932200290026
:104EA0003000094B00F082F8E3E7C046846400005C
:104EB000A464000064640000C8640000CE640000C4
:104EC000D264000000000000334C0000F7B515006C
:104ED00001938A680B690C000090934200DA13007A
:104EE00022002B6043321278002A01D001332B605C
:104EF00023689B0602D52B6802332B6022680623A9
:104F000017001F401A4227D0230043331B785A1E34
:104F100093412268920630D4220001990098089E9D
:104F20004332B047431C25D0062320682A68E16835
:104F300000250340042B03D18D1AEB43DB171D40E2
:104F4000A3682269934201DD9B1AED180027BD4238
:104F500020D1002010E00137E3682A689B1ABB4289
:104F6000D2DD2200012301990098089E1932B04732
:104F7000431CF0D101204042FEBD3020E1184331F6
:104F8000087021005A1C45310978A21843320233B7
:104F90001170C1E72200012301990098089E1A327E
:104FA000B047431CE6D00137D1E70000F0B58BB025
:104FB00006920A0043320793059004920A7E0C0081
:104FC000109B782A06D8622A08D8002A00D1C0E0AF
:104FD000582A52D026004236327022E01000633840
:104FE0001528F7D8FBF768F816001F00F6FFF6FF44
:104FF000F6FFF6FF1F00F6FFF6FFF6FFF6FFA8002C
:1050000036009A00F6FFF6FFB900F6FF3600F6FF0D
:10501000F6FF9E0026001A684236111D19601368BB
:1050200033700123A7E0086819680A1D05060BD52F
:105030000D681A60002D03DA2D23049A6D42137057
:10504000614B0A27039332E00D681A604106F1D5DF
:105050002DB2EFE70D681968081D18602E0601D5FE
:105060000D6803E06D06FBD50D68ADB2564B0A27FF
:1050700003936F2A17D1082715E045310A70524A69
:1050800003921A68216820CA1A60080650D5CB0717
:1050900002D52023194321601027002D03D120239E
:1050A00022689A4322602300002243331A70636807
:1050B000A360002B03DB0422216891432160002DB3
:1050C00002D1049E002B0CD0049E28003900FBF76F
:1050D00083F8039B013E5B5C33702B0005009F420D
:1050E000F3D9082F09D12368DB0706D56368226945
:1050F000934202DC3023013E3370049B9B1B2361EF
:10510000079B210000930598069B09AAFFF7DEFE86
:10511000431C35D1012040420BB0F0BD202209686C
:105120000A4322602200782145321170274AA7E7FE
:105130004806ACD5ADB2AAE71A680D68101D4969DA
:10514000186013682E0601D5196002E06D06FBD5C4
:1051500019800023049E2361D2E71A68111D19608B
:10516000166800213000626800F0BEFA002801D005
:10517000801B6060636823610023049A1370BFE79B
:105180002369320006990598079DA847431CC1D0A2
:1051900023689B0715D4099BE0689842BCDA180085
:1051A000BAE72200012306990598079E1932B047F5
:1051B000431CAFD00135E368099A9B1AAB42F0DC7F
:1051C000E9E70025F7E7C046D9640000EA6400007B
:1051D00070B50C000E25495F00F092FA002803DB41
:1051E000636D1B18636570BDA389024A1340A381D8
:1051F000F9E7C046FFEFFFFFF8B51F008B890500F8
:105200000C001600DB0505D50E23C95E0022022323
:1052100000F0EAF9A389054A28001340A38132006F
:105220000E23E15E3B0000F075F8F8BDFFEFFFFFD5
:1052300070B50C000E25495F00F0D6F9A389421C19
:1052400003D1054A1340A38170BD8022520113434C
:10525000A3816065F8E7C046FFEFFFFF10B50E239E
:10526000C95E00F0E3F810BDF8B505000E001400AB
:10527000002804D08369002B01D1FFF711FC224BD9
:105280009C422ED16C68A369A360A3891B0732D509
:105290002369002B2FD023682269F7B2981A63691B
:1052A000F6B2834205DC2100280000F05DF90028F9
:1052B00027D1A3680130013BA36023685A1C2260F8
:1052C0001F706369834204D0A389DB0707D50A2EC8
:1052D00005D12100280000F047F9002811D1300045
:1052E000F8BD0A4B9C4201D1AC68CCE7084B9C420C
:1052F000C9D1EC68C7E72100280000F01FF800289A
:10530000C9D001267642EAE784640000A464000064
:105310006464000070B50400080011001A00002346
:10532000054D2B60FFF742F9431C03D12B68002B7E
:1053300000D0236070BDC046E4670020374B70B5D5
:105340001D6806000C00002D05D0AB69002B02D1B2
:105350002800FFF7A5FB324B9C420FD16C680C2351
:10536000E25E93B211072DD4D90611D4092301208E
:10537000336037331343A381404270BD294B9C42B5
:1053800001D1AC68EBE7284B9C42E8D1EC68E6E73A
:105390005B0713D5616B002908D023004433994281
:1053A00002D03000FFF74AFA002363632422A38966
:1053B0009343A38100236360236923600823A289A8
:1053C0001343A3812369002B0BD1A0218022A38941
:1053D000890092000B40934203D02100300000F07E
:1053E0003FF90C22A35E01201A0099B20240034249
:1053F0000FD00022A26062695242A261002022699D
:105400008242BAD10A06B8D540221343A38101389B
:10541000B3E7880700D46269A260EFE7F840002094
:1054200084640000A464000064640000002370B57C
:10543000064D040008002B6000F09AF9431C03D1CC
:105440002B68002B00D0236070BDC046E4670020AD
:10545000F7B58B8905000C001A075FD44A68002A4B
:1054600004DC0A6C002A01DC0020FEBDE76A002F84
:10547000FAD0002280212E682A601A0049010A40D1
:105480000B4234D0606DA3895B0706D56368C01AF0
:10549000636B002B01D0236CC01A0200216A002329
:1054A0002800E76AB847A189431C06D12B681D2B49
:1054B00031D82C4ADA40D3072DD500236360236905
:1054C0002360CB0405D5431C02D12B68002B00D1EF
:1054D0006065616B2E600029C6D023004433994279
:1054E00002D02800FFF7AAF900206063BDE701237E
:1054F0002800216AB847431CC5D12B68002BC2D0B5
:105500001D2B01D0162B01D12E60ADE74023A289BF
:105510001343A381A9E740230B43FAE70F69002F48
:10552000A2D00A680F60D21B019200229B0700D113
:105530004A69A260019B002B00DC95E73A00280035
:10554000019B216AA66AB047002806DC402301209F
:10555000A28940421343A38187E7019B3F181B1A8E
:105560000193E7E7010040200B6970B505000C00CE
:10557000002B02D10025280070BD002804D08369CB
:10558000002B01D1FFF78CFA144B9C421BD16C68A5
:105590000C22A35E002BEDD0626ED20704D49B05D3
:1055A00002D4A06DFFF71DFB28002100FFF750FF7C
:1055B000636E0500DB07DED4A3899B05DBD4A06DF9
:1055C000FFF710FBD7E7064B9C4201D1AC68DFE741
:1055D000044B9C42DCD1EC68DAE7C04684640000EE
:1055E000A46400006464000070B5040008001100A9
:1055F0001A000023054D2B6000F0D2F8431C03D1A4
:105600002B68002B00D0236070BDC046E4670020EB
:1056100070B50E001D000E23C95E140096B000295F
:1056200007DA00232B60B3891B0611D48023DB002B
:105630000FE06A4600F078F80028F2DBF0230199C9
:105640001B021940054BC9184B4259412960EDE72F
:1056500040230020236016B070BDC04600E0FFFF6D
:10566000F7B502268B8905000C00334206D02300D3
:1056700047332360236101236361F7BD6A4601ABB1
:10568000FFF7C6FF009907002800FFF721F900285F
:1056900008D10C22A35E9A05EFD4032293431E4344
:1056A000A681E4E70F4BAB628023A28920601343FD
:1056B000A381009B20616361019B002B0DD028001A
:1056C0000E23E15E00F042F8002806D00322A389F1
:1056D00093431A0001231343A381A0890743A781A1
:1056E000CBE7C046254A0000C9B28218904201D1DA
:1056F0000020704703788B42FBD00130F6E70000B2
:1057000070B50400080011001A000023054D2B603D
:1057100000F04EF8431C03D12B68002B00D023600F
:1057200070BDC046E4670020002370B5064D04003C
:10573000080011002B6000F023F8431C03D12B68F4
:10574000002B00D0236070BDE4670020002370B5FB
:10575000064D040008002B6000F01AF8431C03D12A
:105760002B68002B00D0236070BDC046E46700208A
:1057700058220120014B40421A607047E467002024
:1057800058220120014B40421A607047E467002014
:105790005822024B00201A607047C046E467002080
:1057A00058220120014B40421A607047E4670020F4
:1057B00058220120014B40421A607047E4670020E4
:1057C000044A03001068002802D0C3181360704711
:0C57D0000148FAE7D4670020E8670020D9
:1057DC00DA4000201D0000002E2E2F68616C2F680F
:1057EC00616C5F6C65642E63005B4552524F525D79
:1057FC0020252D313773282564293A2573207265AD
:10580C00646566696E6974696F6E210A002E2E2FAD
:10581C0068616C2F68616C5F6B65792E63002E2E4E
:10582C002F68616C2F68616C5F7370692E63002E3A
:10583C002E2F6273702F6273705F6B65792E63000D
:10584C005B44454255475D20252D3137732825642F
:10585C00293A6B65793120696E69740A0000000180
:10586C002E2E2F6170702F6170705F666C61736883
:10587C002E63005B494E464F205D20252D3137733A
:10588C00282564293A61707020666C617368206900
:10589C006E6974206F6B0A005B494E464F205D2089
:1058AC00252D313773282564293A61707020666C78
:1058BC0061736820696E6974206572726F720A0078
:1058CC0073706930005B494E464F205D20252D31A9
:1058DC003773282564293A61707020666C6173688F
:1058EC00206F70656E206F6B2C2066643A202564E7
:1058FC000D0A005B4552524F525D20252D313773F6
:10590C00282564293A61707020666C61736820697F
:10591C006E6974206572726F720A006C65645F67E1
:10592C007265656E006C65645F626C7565006C65B4
:10593C006431002E2E2F6170702F6170705F6C655A
:10594C00642E63005B494E464F205D20252D313778
:10595C0073282564293A61707020666C6173682025
:10596C006F70656E206F6B2C2066643A2025640A7C
:10597C00006B657931002E2E2F6170702F61707065
:10598C005F6B65792E63007561727430002E2E2F5B
:10599C006170702F6170705F756172742E6300009E
:1059AC000007FF00001000008002021F00000077BB
:1059BC0063682E636E2020C7DFBAE3B5E7D7D355F3
:1059CC00C5CCB7BDB0B800312E3130000902200073
:1059DC00010100803209040000020806500007058E
:1059EC000102400000070581024000001201100175
:1059FC000000004044333335000101020001040370
:105A0C0009040E037700630068002E0063006E002B
:105A1C000C034300480035003700780000060000F6
:105A2C000800000800000800000002000B0000083D
:105A3C000000080000000200464154004641543367
:105A4C003200222A3A3C3E3F7C7F002B2C3B3D5BB4
:105A5C005D00EBFE904D53444F53352E30004E4FAE
:105A6C00204E414D452020202046415433322020E9
:105A7C0020004E4F204E414D4520202020464154C1
:105A8C00202020202000809A45418E418F80454562
:105A9C00454949498E8F9092924F994F5555599936
:105AAC009A9B9C9D9E9F41494F55A5A5A6A7A8A929
:105ABC00AAABACADAEAFB0B1B2B3B4B5B6B7B8B9C2
:105ACC00BABBBCBDBEBFC0C1C2C3C4C5C6C7C8C9B2
