:1000000000800020693A0000CD350000E53A00008C
:1000100000000000000000000000000000000000E0
:10002000000000000000000000000000E53A0000B1
:100030000000000000000000E53A0000E53A000082
:10004000E53A0000E53A0000E53A0000E53A000034
:10005000E53A0000E53A0000ED0C0000E53A00004A
:10006000E53A0000E53A0000912E0000E53A000074
:10007000E53A0000E53A0000E53A0000E53A000004
:10008000E53A0000E53A0000E53A0000E53A0000F4
:1000900002B4714649084900095649008E4402BC21
:1000A0007047C04602B4714649084900095C4900DE
:1000B0008E4402BC7047C04603B4714649084000F4
:1000C0004900095E49008E4403BC70470022430882
:1000D0008B4274D303098B425FD3030A8B4244D310
:1000E000030B8B4228D3030C8B420DD3FF22090252
:1000F00012BA030C8B4202D31212090265D0030B11
:100100008B4219D300E0090AC30B8B4201D3CB0306
:10011000C01A5241830B8B4201D38B03C01A524148
:10012000430B8B4201D34B03C01A5241030B8B424A
:1001300001D30B03C01A5241C30A8B4201D3CB0235
:10014000C01A5241830A8B4201D38B02C01A52411A
:10015000430A8B4201D34B02C01A5241030A8B421D
:1001600001D30B02C01A5241CDD2C3098B4201D335
:10017000CB01C01A524183098B4201D38B01C01AB3
:10018000524143098B4201D34B01C01A524103092A
:100190008B4201D30B01C01A5241C3088B4201D3D9
:1001A000CB00C01A524183088B4201D38B00C01A86
:1001B000524143088B4201D34B00C01A5241411AAD
:1001C00000D20146524110467047FFE701B50020BA
:1001D00000F0F0F802BDC0460029F7D076E770477E
:1001E00003460B437FD4002243088B4274D3030998
:1001F0008B425FD3030A8B4244D3030B8B4228D339
:10020000030C8B420DD3FF22090212BA030C8B425E
:1002100002D31212090265D0030B8B4219D300E0FE
:10022000090AC30B8B4201D3CB03C01A5241830B83
:100230008B4201D38B03C01A5241430B8B4201D333
:100240004B03C01A5241030B8B4201D30B03C01A5C
:100250005241C30A8B4201D3CB02C01A5241830AD6
:100260008B4201D38B02C01A5241430A8B4201D305
:100270004B02C01A5241030A8B4201D30B02C01A2F
:100280005241CDD2C3098B4201D3CB01C01A524196
:1002900083098B4201D38B01C01A524143098B421F
:1002A00001D34B01C01A524103098B4201D30B0108
:1002B000C01A5241C3088B4201D3CB00C01A52412D
:1002C00083088B4201D38B00C01A524143088B42F2
:1002D00001D34B00C01A5241411A00D2014652418B
:1002E000104670475DE0CA0F00D04942031000D3AA
:1002F0004042534000229C4603098B422DD3030AFF
:100300008B4212D3FC22890112BA030A8B420CD30E
:10031000890192118B4208D3890192118B4204D337
:1003200089013AD0921100E08909C3098B4201D3B7
:10033000CB01C01A524183098B4201D38B01C01AF1
:10034000524143098B4201D34B01C01A5241030968
:100350008B4201D30B01C01A5241C3088B4201D317
:10036000CB00C01A524183088B4201D38B00C01AC4
:100370005241D9D243088B4201D34B00C01A52419B
:10038000411A00D20146634652415B10104601D328
:100390004042002B00D54942704763465B1000D3B2
:1003A000404201B5002000F005F802BD0029F8D058
:1003B00016E770477047C04600B50F280CD8184B99
:1003C000FFF770FE08080B0B2A2A080B0B151E15E9
:1003D000081E1E2A00221A7000BD03221149087847
:1003E00002430A700121104A11700222F3E70C2225
:1003F0000C49087802430A7001220B490A70EAE7A7
:100400000321084A10780143012011700649087041
:100410000C2110780143E7E7024903220878E9E755
:100420009C40002026800040644100200022084BB0
:1004300010B51A70074B05321A70074B1B321A7031
:10044000064B1F3A0F201A70FFF7B6FF10BDC046CB
:100450009E400020F6410020F54100209C400020F5
:10046000084B1A68082A01D908221A60064B074A65
:100470001A600023064A1370064A1370064A137066
:100480007047C04668410020FC410020C44B00007A
:100490009C400020F6410020F5410020084B094A0D
:1004A0001A60094B1A68242A01D924221A600023F1
:1004B000064A1370064A1370064A13707047C04606
:1004C000FC410020CC4B0000684100209C400020F3
:1004D000F6410020F54100200F49104ACB8A5BBA53
:1004E0009BB21B0313608A7C4B7C12021A43CB7CA9
:1004F0001B041A430B7D1B0613431BBA084A1B033C
:1005000013600023074A1370074A1370074A1370D9
:100510000122074B1A70704770410020684100208B
:100520006C4100209C400020F6410020F541002055
:100530000042002010B50C4B5B7C3F2B10D10B4BC5
:100540001A680C2A01D90C221A60094B094A1A6050
:100550000023094A1370094A1370094A137010BD29
:10056000FFF764FFFBE7C0467041002068410020B0
:10057000FC410020514C00009C400020F64100202E
:10058000F541002070B5134C134D26782A78134B93
:1005900013481449324315D00022227070241C8065
:1005A000114C2E702478DA709C70A02424055C60B5
:1005B0000E4C9A6024785A731C73DA811A82036095
:1005C0000A7070BD70241C60A02424055C609A60D1
:1005D000DA60F3E764410020F4410020704100201C
:1005E000FC4100209C400020F6410020F541002005
:1005F0000023054A1370054A1370054A1370054A13
:100600001370054A137070479D4000209E400020E3
:100610009C400020F6410020F54100200023034AC1
:100620001370034A1370034A137070479C400020F4
:10063000F6410020F541002070B50026134A144908
:10064000D38AD47D5BBA9BB21B030B60917C537C35
:1006500009021943D37C0F4D1B041943137D1B065C
:100660000B431BBA1B032B60F3B2A34207D3002337
:10067000094A1370094A1370094A137070BD2B6838
:100680003003C01802F066FC0136EDE7704100202F
:10069000684100206C4100209C400020F641002071
:1006A000F541002010B50C4B5B7C3F2B10D10B4B60
:1006B0001A68102A01D910221A60094B094A1A60D7
:1006C0000023094A1370094A1370094A137010BDB8
:1006D000FFF7ACFEFBE7C0467041002068410020F8
:1006E000FC410020414C00009C400020F6410020CD
:1006F000F541002010B5244BD87B2A2825D819288D
:1007000015D8032834D0122826D000282AD0052254
:100710001E4B0E201A701E4B1B321A701D4B1F3AB7
:100720001A7000221C4B1A70FFF746FE16E01A38AA
:100730001028ECD8FFF7ACFC2516EBEB22EBEBEB2B
:10074000EBEBEB1FEBEB19EB13002F2816D05A281D
:10075000DDD1FFF7A7FF01E0FFF7A0FE10BDFFF717
:100760006BFFFBE7FFF744FFF8E7FFF7B5FEF5E7A0
:10077000FFF708FFF2E7FFF773FEEFE7FFF74EFF23
:10078000ECE7FFF7D7FEE9E770410020F6410020D3
:10079000F54100209C4000209E400020184B10B5E1
:1007A0001A78552A26D15A78532A23D19A78422A80
:1007B00020D1DA78432A1DD19A68124912BA0A6008
:1007C0001879114908705879487098798870D879E3
:1007D000C870002A08D01A7B0C49D343DBB2DB096E
:1007E0000B700B4BD2091A7001220A4B1A70FFF7DB
:1007F00081FF10BD0323084A11780B431370F8E7FB
:100800007041002068410020F74100209D400020F9
:100810009E4000209F400020268000400023164973
:1008200010B50B701549164A0B7016491648116021
:10083000164902600C7814714C7854718C7894715C
:10084000C9781381D1711249098849BA5181114976
:10085000097811731049026814780132CC540133BD
:1008600002600D2BF7D103210C4A13700C4A137848
:100870008B43137010BDC0469F4000209E40002057
:100880007041002055534253FC410020F7410020A5
:10089000684100209C40002024410020248000402A
:1008A00026800040F8B5194D2C68402C13D9403CE7
:1008B0002C6040240023164E32789A4211D11549FB
:1008C0001548DAB2944219D90A6815780132C5542C
:1008D0000A600133F5E70023104AE4B22B6013707D
:1008E000E8E70F4F0C4A3868A1B202F0CFFB3B6833
:1008F0001B193B602B68002B00D133700321094B7F
:10090000094A1C7013788B431370F8BD68410020AE
:1009100000420020FC410020244100209E40002095
:100920006C410020248000402680004070B50F4BB1
:100930000F4A1C7800230F48E4B2D9B28C4211D17F
:100940000D4DA1B2286802F059FB2B681B192B60D2
:100950000A4B1A68141B1C6003D1094B1C70FFF76B
:100960005DFF70BDC15CD1540133E6E708800040F3
:10097000B4410020E44000206C4100206841002088
:100980009D400020F7B5AF4B022219780C00C8B289
:100990001440114200D189E13F20AB490B7803405C
:1009A000202B00D1DCE009D8002B00D10AE1012B7B
:1009B00000D10AE10223A34A1370F7BD212B00D115
:1009C00031E1302BF6D1C222A04B1A70A04A127826
:1009D0000193082A68D19F4A9F4C13689F4DD9798B
:1009E0009879090201432180587828701D78009574
:1009F0006025009F009E2F402E4228D0FE2814D153
:100A0000012901D9012323802688351C402E00D9D5
:100A10004025934FADB22A003900924803F071F897
:100A2000914B761B7D1926801D606B4600211B783B
:100A30005BB28B4207DA23881A1C402B00D9402274
:100A40009B1AD1B22380894B1970C0232DE00A284C
:100A50002AD8FFF727FB7B572929294806294B531A
:100A60007900DA789878120210437F4D120A022A30
:100A70001ED0032A20D0012A26D17D4A2A601222C4
:100A800090B2914200D920802288161C402A00D9B9
:100A90004026B6B232001800296803F032F82B68FD
:100AA0009E192E60FF2FC0D1CF23019A137081E7CA
:100AB000704A2A602022E3E7FF263040012806D052
:100AC000022808D000280AD00022FF27D8E76A4A67
:100AD0002A600E22D4E7694A2A600C22D0E7684ACD
:100AE0002A600422CCE79B7823809EE7654A12782F
:100AF0001A702388012B98D90123F5E79A78614B66
:100B00001A7092E71F2200990A40022ACCD11B7961
:100B1000012B13D0812BC7D143205B490B78834332
:100B20001A430A70594B1B78002B01D0FFF776FE51
:100B3000574B584A197811700022E1E77321524A45
:100B400013780B401370EDE70022D1E700211970F4
:100B5000136859702388022B00D866E70223C3E785
:100B60003E4B3A4C1B78052B1FD0062B27D13A4F12
:100B70003A88131C402A00D940239EB2DBB23A4D7A
:100B80000093344B32001868296802F0BAFF3B88A2
:100B9000009A9B1B3B802B689E19344B2E601A7069
:100BA000402322785340237004E77F203A490B7892
:100BB00083432948007803430B702270FAE6002330
:100BC0002A49F9E7214B1A70F4E60B785B0600D44A
:100BD000F0E6324C2378002B02D0FFF7A7FEE9E6BF
:100BE0001B4A1278D1B2002A00D1E3E62C482D4DE1
:100BF000EA5C1A540133DAB29142F9D1FFF7CEFD23
:100C00002378002B00D0D5E6274B1B78002B02D091
:100C1000FFF748FECEE61E4B1B78002B00D0C9E63E
:100C2000FFF7FCFDC6E6204B1B78002BF0D1174BDD
:100C30001B78002BF4D1032013490B7883431A430C
:100C40000A70B7E60680004007800040228000401E
:100C500008800040746A0020B2410020B0410020AA
:100C6000F04B0000A44000200442002020800040FF
:100C7000114C0000F14B0000274C0000354C0000E7
:100C8000234C0000A0400020268000409F40002010
:100C900064410020F4410020038000409D4000207A
:100CA00070410020E44000209E40002001210842C5
:100CB0000AD00A4804700A4802701220094A1070CB
:100CC0001A781143197078E60422104203D00649BD
:100CD00009781A7071E618706FE6C046038000400C
:100CE00022800040268000400580004010B5FFF7BC
:100CF00049FE10BD030010B50120002B06D102F003
:100D0000E7F9034BC018431E9841C0B210BDC0465E
:100D1000EA10FFFF030010B50120002B08D102F0FC
:100D200001FA02F0D5F9034BC018431E9841C0B236
:100D300010BDC046EA10FFFF70B504000D00002C86
:100D400007D11B03100399B22A0002F09FF920007B
:100D500070BD0424FBE700280FD1022907D0032926
:100D600009D0012906D180231B01136002E08023F2
:100D70005B01138070470123F7E70420FAE70300C3
:100D800010B5080011001A0002F038F9142002F022
:100D900083FD10BDF8B506000F001C0000280BD124
:100DA00015032800240302F0D5F829003800A2B268
:100DB000FFF7E5FF3000F8BD0426FBE7C378827833
:100DC0001B02134342781B02007813431B02184393
:100DD00070470B0A017043700B0C090E8370C170D1
:100DE00070478218017001309042FBD1704730B5D6
:100DF00000230500013AEC5CC85C201A9A4202D03C
:100E000001330028F7D030BD82690239023A03006D
:100E100000208A4203D958894143D86A081870478C
:100E20000100030000200B314208C00110431A7872
:100E300001338018C0B28B42F6D17047026810B5FA
:100E4000002A0BD013001978013349B2CCB21F2C01
:100E50000CD93A29F7D1911C8B4202D00120404293
:100E600005E0127852B2302AF8D10360002010BD9C
:100E700070B504000D00002804D1092300221800D9
:100E80002A6070BD0368002BF7D01A78002AF4D0CE
:100E90008188DA889142F0D15878FFF72BFF012240
:100EA000030013401042E8D12268E8E7002310B5A0
:100EB000CC5CC45401339A42FAD110BDCA7E10B53D
:100EC0000400887E12021043032C05D14A7D0B7D5D
:100ED000120213431B04184310BD93B21B0A8A76F7
:100EE000CB760378032B03D1120C0A75120A4A75CC
:100EF000704770B5C3780400002B02D1002528008C
:100F000070BD06003436012331004078226BFFF7B4
:100F100041FF051E10D1226B636AE169E070D31AAC
:100F20008B42EBD2A378022BE8D1521860783100C3
:100F3000013BFFF72FFFE2E70125E0E770B5040072
:100F4000236B0D0000208B4211D02000FFF7D1FF52
:100F500000280CD1210001232A0060783431FFF7EA
:100F6000EBFE002802D0012501206D42256370BDF3
:100F7000002370B5C370013B03630400FFF7DEFF7D
:100F8000051E24D1154BE25C154B1202E35C1343A2
:100F9000144A1BB293421CD1230034331B78EB2B31
:100FA00003D01833DBB2012B15D8200003220E49E1
:100FB0006A30FFF71CFF002807D0200005220B49EC
:100FC0008630FFF714FF002805D1280070BD0425E6
:100FD000FBE70325F9E70225F7E7C04633020000E7
:100FE0003202000055AAFFFF5D4C0000614C00007A
:100FF0000023F0B50B608DB00E000192FFF71EFFCD
:101000000B24051E19DBAC4B8200D7580134002F8E
:1010100013D037600126019C3B78B443002B0FD0DE
:101020007878FFF767FE30420AD1002C05D0042300
:1010300004001C40184200D00A2420000DB0F0BD6E
:101040000023E8B23B707870FFF764FEC30700D559
:1010500029E1002C01D04307EED400213800FFF72E
:1010600087FF022828D13C0008AD2E00934BF734AF
:10107000FB18FF34019300202378834202D0201D07
:10108000FFF79CFE019B103401C5A342F3D100245D
:101090000325A300F35828000193002B05D0190065
:1010A0003800FFF765FF01280FD90134042CF0D177
:1010B0000124042807D1C0E701240428BDD000235F
:1010C0000193A04201D90D24B7E73B0040331A78C1
:1010D000013B1B781202134380221BB25201934240
:1010E000F1D13B003A004B331B784A3210781B0297
:1010F000184300D1C0E00290029BFB613B004433E7
:101100001C78631EBC70012BDDD83B0041331E7878
:10111000B3B27B81002BD6D0731E1E42D3D13B00CD
:1011200046331A78013B1B78120213431AB2079216
:1011300003933B815B06C6D13B0048331D78013BDE
:1011400018782D02284303D138005430FFF736FEBB
:101150003B003A0043331B78423212781B021A4399
:101160000592B0D0029B63430693039BDB099B1857
:10117000069A9B1804939842A5D3C51A31002800FB
:10118000FEF7A4FF0400B5429DD34D4B98429AD878
:101190004C4B984200D888E00325019A019B944665
:1011A0003B62049A059B023463446244BC617B62E7
:1011B000FA62032D65D13B005F331A78013B1B783F
:1011C00012021343079A1A4313B2002B00D07AE796
:1011D00038006030FFF7F2FDA400B8623A4BE41823
:1011E000029B240B9C4200D96DE701235B427B618B
:1011F0003B6181333B71032D35D13B0065331A7858
:10120000013B1B7812021343012B2CD101993800AA
:101210000131FFF793FE002825D12C4B3871FA5C81
:101220002B4B1202FB5C13432A4A1BB293421AD186
:1012300038003430FFF7C2FD274B984213D1862384
:101240009B00F818FFF7BAFD244B98420BD1872377
:101250009B00F818FFF7B2FD88239B007861F8180F
:10126000FFF7ACFD38611E4A002413883D7001333E
:101270009BB21380FB80E0E638005830FFF79EFDFC
:1012800039E7039A002A00D11DE7069A9B18BB6232
:10129000022D01D16400A1E70320012360431C401B
:1012A000400804199AE70324C7E60E4D8542AD4174
:1012B0006D42013571E7C046084200203602000049
:1012C000F5FFFF0FF5FF0000FF0F000033020000E5
:1012D0003202000055AAFFFF525261417272416111
:1012E0000C420020F50F0000F0B507000D001400BF
:1012F000022685B0012948D983698B4245D90378F4
:101300000093B3424BD0032B5BD0012B3DD14B0854
:101310005B180193190B436AC918FFF70FFE061EED
:1013200033D13B0034330293019B029A0133039380
:10133000019B00991B051B0DD318009A2A400192AE
:10134000E2B20D4208D00F21FF201A7800010A40B6
:10135000210101400A43D2B21A700123FB70039BA2
:101360003800190B7B6AC918FFF7E8FD061E0CD17F
:10137000039B1805029B000D1818019B002B07D03A
:101380002409E4B204700123FB70300005B0F0BD05
:101390000F220378240A934314401C43F2E7436A64
:1013A000C90AC918FFF7CAFD061EEED13B00114954
:1013B0006D0034330D405D192C70A4B2240A6C709A
:1013C000E1E7436A890AC918FFF7B8FD061EDCD1B8
:1013D0003B000949AD0034330D405D192800FFF78B
:1013E000EDFC2401010F2409090728002143FFF720
:1013F000F0FCC8E7FE0F0000FC0F0000F7B5012667
:1014000004000D00B14214D98369994211D20378C6
:10141000022B2ED0032B3DD0B3420AD14F08436A92
:101420007F18390BC918FFF789FD002803D0012662
:1014300076423000FEBD7B1C3F05190B01933F0D2A
:10144000636AE71934372000C9183F78FFF776FD43
:101450000028ECD1019B1805000D241834342078A5
:1014600000020743354201D03E09E2E73F053E0D49
:10147000DFE7436AC90AC918FFF760FD0028D6D123
:101480000D496D0034340D406419667820783602B9
:101490000643CEE7436A890AC918FFF74FFD0028C3
:1014A000C5D12000054CAD00343025404019FFF770
:1014B00085FC06013609BCE7FE0F0000FC0F0000AA
:1014C0008023F7B59B0305000C00994201D302204D
:1014D000FEBDCB06FBD1876806680161002F1AD1DB
:1014E0003378022B02D9B36A002B13D132896309F6
:1014F0009342ECD2B36AAB61AA696F61002AE6D06D
:10150000230B24053436240D9B1834190020AB61BD
:10151000EC61DDE71F0073891B030193019B390018
:101520009C4204D23000FFF76FFCA861E4E7286812
:10153000FFF764FF0700431C07D00128C7D9B36930
:101540008342C4D9019BE41AE8E70120C0E7F7B55C
:101550000F1E0568019007D12E69002E02D0AB69DD
:10156000B34210D801260EE02800FFF747FF040021
:10157000012802D801242000FEBD431C57D0AB69CE
:101580003E008342F7D86B69002B01D10024F2E7BB
:10159000BE4216D1AB69741CA34200D80224019B41
:1015A00021001868FFF72AFF0128E3D0431C3ED032
:1015B00000281CD02B69012B03D9AA69934200D2C1
:1015C0001E003400AB690134A34202D8012EDDD9DC
:1015D0000224019B21001868FFF710FF002808D0A3
:1015E0000128C7D0431C22D0B442EBD1CEE7002C57
:1015F000E7D00122210028005242FFF775FE0028A3
:1016000013D1002F0AD1AA696B69023A2C61934267
:1016100010D901232A7913432B71ACE7220039003A
:101620002800FFF761FE0028EDD00128A2D1012497
:101630006442A0E7013B6B61EBE7F8B50C000600E4
:1016400011000568012C2DD9AB69A3422AD9002AC3
:1016500006D0012228005242FFF746FE002807D19B
:1016600021003068FFF7CAFE2700041E01D10020C8
:10167000F8BD012816D0431C16D0002239002800DE
:10168000FFF732FE0028F3D1AA696B69911E8B42E5
:1016900005D2012101336B612B790B432B71A242DF
:1016A000DED8E4E70220E3E70120E1E7F8B5050032
:1016B0000E00FFF71EFC04000120002C15D13100A4
:1016C00028002F00FFF7A0FB802234370600286394
:1016D000210038005201FFF784FB6B899C4205D33F
:1016E0006889001B441EA041C0B2F8BD0123390027
:1016F00068783219FFF74EFB0028F1D10134ECE78E
:10170000F7B5836907690400019104202037002B95
:1017100015D080229203974211D23A05110D266806
:101720000091002A3BD161690133A361002907D1EF
:1017300032897B09934232D300230420A361FEBD8A
:1017400073893A0B013B1A4229D13000FFF756FE4C
:101750000500012801D80220F1E7431C01D1012036
:10176000EDE7B369834214D8019B002BE4D020003D
:101770006169FFF7ECFE05000720002DDFD0012D89
:10178000E9D06B1CEBD029003000FFF78FFF002859
:10179000E5D1290030006561FFF736FBA061009BB1
:1017A0003436F61800202761E661C8E7F0B5036813
:1017B00089B0002104000493FFF782FE061E00D0CA
:1017C000A2E0FF22012317005B42E362029205932D
:1017D000A1690498FFF7B2FB061E00D094E0E5690A
:1017E0002B780093002B00D191E03F23EA7A0099F7
:1017F0001340A371E52903D0120704D50F2B04D0A1
:10180000059BE36261E00F2B65D123002B331A782F
:1018100040231A424FD1009A1A4253D06A7B029257
:10182000009A9A4323690092E3626B7B029AFF2736
:10183000934240D1EA7EAB7E120213431AB2002BD0
:1018400039D13F21049BF23FDB68019203932B784F
:101850000B40013B5F433E392E4B019AD35CEB18A2
:101860005E781B7836021E43002930D0FE2F2CD81C
:10187000300001F015F97B1C0793039B7F00069055
:10188000F85A01F00DF9069B83421ED13100079FE3
:10189000019B013301930D2BDED12B785B0607D51D
:1018A000002905D0039A7B009B5AFF27002B02D109
:1018B000009F013FFFB200212000FFF721FF061E1D
:1018C00086D021E0009B9F42AFD0FF27F3E7124B69
:1018D0009E42DDD0F9E7002F05D12800FFF7A0FADE
:1018E000029B984210D023002B331A780123160054
:1018F0001E401A4284D121000B2228002031FFF71C
:1019000076FA002800D07BE7300009B0F0BD04264D
:10191000FAE7C0462B4D0000FFFF0000F0B50600BF
:101920005F232B36327807009A43130006248BB0CE
:10193000002A53D102680092D2680293029B5B0096
:10194000D35A002B4DD13B000125203307AC1900A1
:101950000C2220000193FFF7A9FAE37A2B4200D171
:101960006CE040233370009B0B22019807A9DC68D0
:10197000FFF79CFA2B00052D49D807220F2605A852
:101980001C00344021003031392900D90731013A97
:101990001418617019090F2B3BD87E233C00835427
:1019A00000231F349A4203D0591C605C202832D196
:1019B0003800202405AE1F302100072A01D8B15C71
:1019C00001320133C154072BF6D93800FFF7EEFE80
:1019D000041E2CD10135642DC5D1072420000BB085
:1019E000F0BD029B0133A8E71021023401265B0001
:1019F0001640F318802676025208334200D0434046
:101A000001390029F2D12288002AEDD1B5E75648E4
:101A1000F9E70B00B4E70B00C4E70600012138002A
:101A2000FFF76EFE041E1DD0042CD6D0D6E7042886
:101A3000D4D107ABDA7A3B002B331A7007ABDB7AD1
:101A400001259B0705D502980D210C30FEF73EFBC2
:101A500045193B68002138000293FFF731FD041E51
:101A6000E2D10600B9690298FFF768FA041EDBD1DB
:101A7000FB691B78E52B01D0002BCED10136B54296
:101A8000CCD16E1E012D54D03B6971013800591A1A
:101A9000FFF716FD041EA1D10198FFF7C1F90390CD
:101AA000B9690098FFF74AFA041E00D096E7009B38
:101AB000FA69DB680D219C46F3B20293039B107315
:101AC00053730F23D372F0333340013B4B43010078
:101AD0009076D076254CA04203D064465800005B37
:101AE0000133234C0C5D141925002070040A6C701E
:101AF000002800D11D4801310D29EBD11B49884236
:101B000004D061465B005B5A002B03D1402302994D
:101B100019430291029B002113700123009A38009F
:101B2000D370FFF7EDFD041E00D057E7013E002EF5
:101B3000B6D1B9690098FFF701FA041E00D04DE74D
:101B400001002022F869FFF74CF90B220199F8698E
:101B5000FFF7ACF91821FA692B373B780B40137368
:101B60000123009AD37039E721100100FFFF000024
:101B70002B4D0000F8B50400FFF7BBF9051E45D159
:101B80002378032B3AD12779012F37D126008022E1
:101B90003436010052013000FFF723F955221C4B67
:101BA0004121E2541B4B9218E2542200E23BFF3BDE
:101BB00035323370137023006122363386201A7059
:101BC000597072238000235413482354134BE1545B
:101BD000134BE2540133E0186169FFF7FAF88823E8
:101BE0009B00E0182169FFF7F4F8236A31005A1CC2
:101BF00060783B002263FFF7CDF825710022607802
:101C00001100FFF7A8F8431E9841C0B2F8BDC046C6
:101C10003202000033020000190200001A02000024
:101C20001B020000F0B50600036889B00491079319
:101C3000049B1B785BB22F2B11D05C2B0FD00021A3
:101C4000049BB1601B781F2B00D9E8E03300802291
:101C50002B3330001A70FFF733FC09B0F0BD049B42
:101C600001330493E4E77F280AD8A54B00E0013351
:101C700000229A56002A03D09042F8D10620ECE7C1
:101C8000FF2DFBD0059A6B00D0520135CBE0049AB2
:101C900001320492DDE08B5A202B02D02E2B00D093
:101CA000EAE0013DE4E0029B039A934206D2069BE0
:101CB000AB4253D1039B0B2B46D102E0039B0B2B72
:101CC0003AD103231C4308330393731CDA7FE52ABC
:101CD00001D1E03ADA77039B082B03D1019B9B00EB
:101CE000DBB201930C23019A13400C2B04D0130098
:101CF00003221340934201D102231C43A3070AD4B9
:101D0000019BDB0701D510231C430422019B1342D6
:101D100001D008231C4335002B3530002C70FFF711
:101D200045FD2B78002868D0042800D095E70342B1
:101D300000D092E7013090E7069BAB4204D003232A
:101D40001C43069BAB42C0D8019B06959B00DBB2AF
:101D500001930B230393033B0293C5E07F280ED925
:101D6000B6210227FF31274300F06AFE030611D592
:101D70007F231840634B185C3C00002806D0624B60
:101D800000229A56002A22D090421ED103235F20BF
:101D90001C4313E0FF28EFD9039B029A013B9A42B0
:101DA00003D303231C43039BD6E73C00029B020A98
:101DB000F3180133DA77029B01330293029BF31885
:101DC0000133D877029B0133C6E70133D8E703001C
:101DD000413B9BB2192B04D80223019A1A4301926A
:101DE000ECE70300613B9BB2192BE7D80123019A72
:101DF00020381A43019280B2E0E70422134200D057
:101E00002BE7B379DB0671D5336907991B051B0DE9
:101E10003431C918079B1878FFF750F8B0600025D7
:101E20003368DB680593049B5C1C5B5D6419002BC5
:101E30000ED0B62198B2FF3100F01EFE031E00D175
:101E40001CE71F2804D92F2802D05C2800D00AE7FD
:101E50000494049A127852B22F2A00D117E75C2A10
:101E600000D114E704241F2B00D90024059B991EE0
:101E70006A00002D00D00EE7002305998B529D4289
:101E800000D1FBE605995A008A5A1F000133202A27
:101E9000F8D0002F01D12E2A01D103231C43059B2A
:101EA0009A1E6B00D35A2E2B02D0013D002DF8D183
:101EB00020210B227018FEF794FF082303930023C0
:101EC000029301937B1C0693059B7F00F85A002820
:101ED00000D1FAE6202805D02E2800D0E3E6069BA4
:101EE000AB4205D003231C43069FEBE70520B4E675
:101EF000029B039A934200D2DCE61300DBE6C04665
:101F0000674C0000AB4C0000704C00001FB5019006
:101F100003A8140000910391FEF790FF002817DB3F
:101F20000C4A80008358002B01D000211970019BBE
:101F3000002B01D0002119701350002C05D0002275
:101F4000684601A9FFF754F80400200004B010BD52
:101F50000B24FAE708420020F0B56B4C0500A544BD
:101F6000160009240391002800D18DE03F27174077
:101F70003A0005A903A8FFF73BF8041E56D1059BBC
:101F800012AA0399DA6006A80693FFF74BFE041E17
:101F900006D13B2302AA9B181B787F2B00D906345D
:101FA0001C231E4200D174E0002C42D0042C3DD1F1
:101FB00006A8FFF7B3FC041E38D108231F430D9E6B
:101FC000059B310018780193FEF778FF2123002448
:101FD00033742B33B473F47373740D9B00900293BA
:101FE0002023029A0198D3720D992200FEF775FF03
:101FF00001220D9B1C775C779C77DC77059BDA7060
:10200000009AA2421FD02200009906A81E6BFFF77B
:1020100014FB041E0AD131000598FEF78FFF04005F
:102020000098059B01381861002C0CD000232B6010
:102030002AE002AB9A7D11231A4234D10824730797
:10204000F4D42642BBD13B0701D540231F43059C56
:10205000236B2B620D9B6B62207819000093FEF7B7
:102060002DFFA860060000981C30FEF7A7FE2C602C
:102070000090E860E3882F74AB8000236B74EB6101
:102080006B61BB0611D40024200093239B009D4468
:10209000F0BD002CCAD102AB9B7DDA0630D4B2076A
:1020A000D1D5DB07CFD50724C0E7009B002BEAD0B2
:1020B0006B6164892403009B9C4211D30024AE61B0
:1020C000002CB3D1009B1B05DDD031000598FEF735
:1020D0009BFE031E16D0009A100BC018E861D3E7D0
:1020E00031002868FFF78AF9009B06001B1B00934C
:1020F000012803D9431CDED10124E0E70224DEE7F6
:10210000042493E7022491E7B4FDFFFFF0B51F001C
:10211000002389B001913B6007A904001500FEF778
:10212000A7FE0090002827D1637C0093002B23D1C9
:10213000227C01331100194005911A4200D186E03A
:10214000E36862699E1AAE4200D92E00002E13D0B9
:102150006269130560D1110B0800079B5B89013B85
:1021600018400390194217D1002A08D1A06801280D
:102170000AD8022060740090009809B0F0BDA169EF
:102180002068FFF73BF9F2E7431C04D10123637495
:10219000059B0093F0E7A061079BA16918000293DB
:1021A000FEF732FE0028E4D0039B1B180493802323
:1021B0005B019E422ED3029B039A350B5B89521919
:1021C0009A4201D9039A9D1A029B049A5878019960
:1021D0002B00FEF7B1FD0028D8D10799CB78002B52
:1021E0000CD00B6B049A981AA84207D28022019B4C
:1021F0000003343118185201FEF758FE2D033B68D6
:10220000761B5B193B60019B5B19019363695D1948
:1022100065619BE7049BE3618022636952011B05B2
:102220001B0D3500D31A9E4200D91D00E1690798A5
:10223000FEF784FE0028A9D1636907991B051B0DD1
:1022400034312A000198C918FEF730FED7E707237A
:102250009FE7F0B589B0059300231700059A029116
:10226000136007A90400FEF703FE0190002829D19E
:10227000637C0193002B25D1237C9B0700D4ADE028
:102280006369DA19934200D9DF43002F16D06269DF
:10229000130500D084E0110B0800079B5B89013B0C
:1022A00018400490194221D1002A0ED1A1680029BA
:1022B0000DD12000FFF74BF9011E08D14023227CED
:1022C00013432374019809B0F0BDA169F1E7012916
:1022D00003D1022060740190F4E74B1C01D101206E
:1022E000F8E7A368A161002B00D1A1600798E2691B
:1022F000036B934203D1FEF7FCFD0028EFD1079B4F
:10230000A16918000393FEF77FFD0028E1D0049B2C
:102310001E1880235B019F4236D3039B049A3D0B1A
:102320005B8952199A4201D9049A9D1A039B320083
:10233000587802992B00FEF72DFD03900028CED18E
:102340000798036B9E1BAE420AD28022029B360383
:10235000991952013430FEF7A9FD079B039ADA70F0
:102360002D03059B059A1B687F1B03935B19136064
:10237000029B5B1902936369ED18E3686561AB42E8
:1023800000D22B00E36080E76369E268934206D3E2
:102390000398FEF7AEFD0028A1D1079B1E63E661FE
:1023A0008022636952011B051B0D3D00D31A9F4219
:1023B00000D91D00E1690798FEF7C0FD00288ED105
:1023C000636907981B051B0D34302A00C018029959
:1023D000FEF76CFD0122079BDA70C2E70723019329
:1023E00070E7F7B501A90500FEF742FD041E2BD1E9
:1023F0002B7C40271C003C403B4225D0296A019899
:10240000FEF79CFD041E1FD120236E6AF27A310074
:102410001343F372AA682868FEF75FFD3000E9688D
:102420001C30FEF7D6FC2123019833762B337376CC
:102430004B3BB475F475B474F474C370FFF79AFB36
:1024400004002B7CBB432B742000FEBD13B504009D
:10245000FFF7C7FF002806D1200001A9FEF708FDFD
:10246000002800D1206016BDF0B58FB00B900BA8EE
:102470001C000F001500FEF7E1FC03000B20002BF1
:102480002BDBA64A99008A58002A01D0002111703E
:10249000DBB218000493FEF73DFC03000320DA07CB
:1024A0001BD407305B0718D4032104980CAAFEF74D
:1024B00052FC002807D180210C9B09025A1E8A4237
:1024C00001D21A4201D001230C93002D0AD0944B63
:1024D000944AEB18934202D913200FB0F0BD6B1E43
:1024E0001D42F9D11120002CF7D08023149A5B01F2
:1024F0009A42F2D3012104980DAAFEF72CFC0300A6
:102500000120002BE9D108223900114007910393E3
:10251000174201D13F3303930D9E039B9E4201D28C
:102520000E20DAE7039BF61A0D967F2EF8D9812349
:102530001B039D42D0D202233A001A402D0B0A926F
:102540001F4227D005333B40022B00D102E2FB079C
:1025500000D4FFE12F1E08D10127734B310B1A88DD
:10256000002A02D002338A421BD939003000FDF71D
:10257000ADFD6E4A0300904215D90223023040009F
:1025800001936B4BC018030B029304230993033B85
:10259000069306E2FB07DDD49EE76D00E0E10197BC
:1025A000E8E17F00DBE703205843013040080123C6
:1025B0000330E5E7029B9B1802930CE2019B022B80
:1025C00016D15C4B089A9A4208D9002D00D0BDE183
:1025D0007F00402F00D91EE23D00BBE7534B089A15
:1025E0009A420BD8002D9BD17D00802DB2D997E760
:1025F0004E4B089A9A4293D80123019380220021DE
:1026000020005201FEF7EDFB4B490B222000FEF7A4
:102610004DFC10232373069B0022A3736B461B8B78
:10262000E2721B0AE37301232374019B6773033B6C
:10263000591E8B415B00A37480230D9962745B0269
:1026400099424BD2E17489B2090A2175F823002519
:1026500020006375B93B2376C033A3760399657672
:10266000E5761C30FEF7B5FB019B032B3BD1230025
:102670002122200043339A702B32DA7002991D70A8
:102680005D702430FEF7A5FB2300022220002C33CE
:102690001A70013A1A7105329A717A321A752749FD
:1026A000573A9A755D709D70DD705D71DD71163AF7
:1026B0004730FEF7FBFBFF2355225B00E254204E20
:1026C000553BFF3BA3552100039A0498A93BFEF715
:1026D00061FB0696051E37D00120FEE62000203063
:1026E000FEF777FBB2E7230021220833DD772033A2
:1026F0005A702B329A701D70029B2000A3756B4696
:102700001B8934321B0AE375631DDA77573AE31DE0
:10271000DA770C49163A2B30CBE7C0460842002046
:1027200000F0FFFF00F0FF00384D0000F50F000043
:10273000FF0F0000F5FF0000774C0000834C000005
:10274000FF010000974C0000019B032B47D1039B26
:1027500021009A1D04980123FEF71CFB802229000A
:1027600020005201FEF73DFB5223F220412272214C
:102770002370637040000F33A370E2702154E62091
:10278000FF3021547531FF3162542000E82208994E
:10279000FF32E930A3540139FF30FEF71AFBF6236C
:1027A00002225B00E254EE23FF33E5540133E5548B
:1027B000F023FF33E55453320F33E254069B553276
:1027C000E254039B2100DA1D04980123FEF7E2FA8C
:1027D000039B21005A1C04980123FEF7DBFA149B8B
:1027E00000211D0B20002A03FEF7FBFA019B032B9F
:1027F00059D1F533237007336370A370E3702371ED
:102800006371A371E37123726372A372F03BE3728D
:10281000029EAE4200D92E0021003300059A049892
:10282000FEF7B8FA011E00D056E7802220005201C0
:10283000FEF7D7FA059B9B190593029B9B1B0293FE
:10284000E6D1019B032B00D0099F3E00AF4200D987
:102850002E0033002100059A0498FEF79BFA002809
:1028600000D039E7059BBF1B9B190593002FECD1C6
:10287000019B0C25032B0AD080230D9A5B02063D99
:102880009A4204D2019B023D022B00D0033D079BDC
:10289000002B15D0002204981100FEF75CFA431EAD
:1028A0009841C0B219E6019B2000591E4B42594184
:1028B000802349425B0419400839FEF78AFAA7E7EA
:1028C0008022200007995201FEF78BFAFF23552240
:1028D0005B00E254069A553BFF3BA354079A15331D
:1028E000FF33E254C0230126FF33E6549B19E6541C
:1028F000C223FF33E2549B190D9AE554039B4A49C6
:102900009818FDF7E3FBC423FE22FF33E254853B16
:102910008208FF3B1343E2225200A354C623FF3335
:10292000E0542000C7300399FF30FEF752FA200030
:10293000CB300D99FF30FEF74CFA33002100079A97
:102940000498FEF727FA0028A4D0C5E60A9B002BBE
:1029500000D1E5E50195002D0CD10125334B720C1A
:102960001F88002F00D11AE60233974200D814E6E0
:102970000023019329003000FDF7A8FB2C4A8300B7
:102980009B181B0B02932B4BC0182B4B984200D962
:10299000C6E500230993203306931D3B2F00019DBC
:1029A0000193039A069B94466344029A0593099BFC
:1029B0009918059B0C9AC918531E5B1852421A406D
:1029C000019B521A032B00D0F4E5069B9B1806933B
:1029D000059B9B180593039A3B019B1A5B189E422B
:1029E00000D29DE5099B3900F01A069BC01A029B94
:1029F000C01AFDF76BFB019B0890032B00D0DDE5AF
:102A00000E4B984200D9F9E5002D00D088E57D08ED
:102A1000012F9FD884E50A9B002B9ED13D00802F7B
:102A200000D8A2E57CE5C046C13E0000464D00004E
:102A3000071000000A00FFFFFFFFFE0FF5FF000078
:102A4000030080B27F2B13D98022002052029342D0
:102A50000ED2B622FF3291420AD1064A118899421B
:102A600004D0013080B202328028F7D18030C0B269
:102A70007047C046025000007F280AD9B623FF33B2
:102A8000994207D1FF2805D8034BC018034B4000DB
:102A9000185A70470020FCE780FFFF7F02500000BB
:102AA0008023F0B55B020400984221D280221E49A7
:102AB00083B25201904200D31C49FF260A880800C5
:102AC000002A14D0934212D345880431280A354095
:102AD000AF18BC4223DA082809D8FDF7E3FA050B42
:102AE00011131517191B1D00A21A5200535A1C006E
:102AF0002000F0BD01209A1A02409B1A9BB2F6E713
:102B0000103BFBE7203BF9E7303BF7E71A3BF5E7E3
:102B10000833F3E7503BF1E7054A9B18EEE700283E
:102B2000CCD16D004919C9E7544D0000464F000053
:102B3000A0E3FFFF802010B50D4C03212368034361
:102B4000236000F011FD102023680121034323605E
:102B500000F00AFD00F0D6FE002000F0EDFE052199
:102B6000012000F0F5FE8022024BD2001A6010BD59
:102B7000C810004000E100E070B54D1E2A00214958
:102B8000040000F0B0FF00280BD101221E491F48AD
:102B9000FFF7BCF91E4B1870002802D11D4801F048
:102BA0004DF82A0020001C4900F09DFF00280BD1A1
:102BB0000A221A491A48FFF7CFF9154B1870002856
:102BC00002D1184801F03AF82A002000164900F016
:102BD0008AFF002815D1154D114C2B001D22200015
:102BE0001349FFF736FB0A4B1870002806D111482D
:102BF00001F024F82968104800F094FF2000FFF746
:102C000025FC70BD02510000085100003C46002028
:102C1000705600200B5100001451000019510000A3
:102C200010460020245100002C510000384600209E
:102C30001A400020325100003B510000F7B502203D
:102C400000F08EFB1021012000F004FD052000F0B3
:102C500023FEFFF76FFF684B68481978C9B200F090
:102C600061FF674D674E290001223000FFF74EF9E2
:102C7000654C010020700D2800D095E0634800F0FD
:102C8000DDFF80235B010022012100932800604BBF
:102C9000FFF7EAFB010020705E4800F043FF277851
:102CA000002F7DD15C4800F0C9FF012229003800C7
:102CB000FFF72CF90122207029003000FFF726F9D8
:102CC0002070564800F0BAFF0A2255495548FFF7D0
:102CD00043F92070002871D1534800F0AFFF534FE3
:102CE000534E3B0031001A224E48FFF7B2FA011E44
:102CF0002070504805D139684F4800F013FF31006B
:102D00004E4800F00FFF4748FFF7A0FB4C4800F08B
:102D100095FF444F012238004149FFF71DF920700B
:102D200000284FD1474800F089FF80223F4E464996
:102D300033003800D200FFF7E9F9011E2070434844
:102D400005D13168424800F0EDFE3F49414800F0AE
:102D5000E9FE3448FFF77AFB290001220020FFF743
:102D6000D5F83D4B3D4A80251A603D4B3D4AED006C
:102D70001A6000F013FE40223B4B1A603B4C237854
:102D8000012B25D13A4E3B4F3178380000F0F4FD4D
:102D900038003178FFF7F0FE002333702370EDE741
:102DA000354800F04BFFFEE7002803D0334800F021
:102DB000B9FEFEE7324800F0B5FE82E7314800F088
:102DC0003DFFA3E7304800F039FFC2E71370D5E7B5
:102DD000142000F061FD2D4A13780133DBB20A2B79
:102DE000F4D900262348167031002A0000F092FE24
:102DF0001F4B26701E70C1E7411000406551000056
:102E0000085100003C460020705600207951000017
:102E1000745A0020BF510000CF5100006D520000D5
:102E2000AA52000010460020B5520000384600208B
:102E300000400020235300003B5100000C530000D1
:102E4000575300007F5300000E420020F353000050
:102E50008D530000C6530000746A0020A440002077
:102E6000786A0020E440002000E100E0715A002070
:102E7000725A002071560020ED51000001520000EE
:102E8000345200003F5300000E540000735A0020DB
:102E90000F2210B50F4B1B781340042B07D0062BC5
:102EA00004D10D4B0D481B7800F03CFE10BD0C4AC0
:102EB0000C4912780C480B78D2B2C2540B480478F3
:102EC000002CF3D10A2A02D101230370EEE701336B
:102ED0000B70EBE704300040053000401F54000049
:102EE00008300040725A002071560020715A0020AC
:102EF00010B58024074A640113680520234313603A
:102F000000F052FC00F064FC034B1A6814431C6090
:102F100010BDC046AC100040A810004010B5012400
:102F2000FFF7E6FF2042FBD110BD000010B5802462
:102F3000064A6401136806202343136000F034FC42
:102F4000034B1A6814431C6010BDC046AC1000400F
:102F5000A810004070B580250400FFF7E7FFFFF7D9
:102F6000DDFF0D4A6D01136820202B43136000F034
:102F70001BFC200CC0B200F017FC200AC0B200F00D
:102F800013FCE0B200F010FC044B1A6815431D60FE
:102F9000FFF7C4FF70BDC046AC100040A810004051
:102FA000F8B5802504000E001700FFF7BFFF114A97
:102FB0006D01136802202B43136000F0F5FB200C19
:102FC000C0B200F0F1FB200AC0B200F0EDFBE0B2AD
:102FD00000F0EAFBBE19B74206D1074B1A68154349
:102FE0001D60FFF79BFFF8BD387800F0DDFB01376F
:102FF000F1E7C046AC100040A8100040F8B58023AF
:1030000017005B00C2B29B1A9BB206000D001C1C8D
:103010008B4200D90C1CA4B23A0021003000FFF70B
:10302000BFFFA5420AD080232D1BADB23F19361930
:103030005B002C1C9D42EED91C1CECE7F8BD000087
:10304000F8B5802504000F0016000E4A6D011368C4
:1030500003202B43136000F0A7FB200CC0B200F04C
:10306000A3FB200AC0B200F09FFBE0B200F09CFB83
:103070003900300000F0C2FB034B1A6815431D6095
:10308000F8BDC046AC100040A8100040F8B5802341
:1030900017005B00C2B29B1A9BB206000D001C1CFD
:1030A0008B4200D90C1CA4B23A0021003000FFF77B
:1030B000C7FFA5420AD080232D1BADB23F19361998
:1030C0005B002C1C9D42EED91C1CECE7F8BD0000F7
:1030D00070B58025104800F0B1FD104A6D011368ED
:1030E00090202B43136000F05FFB002000F05CFB9E
:1030F000002000F059FB002000F056FB00F068FBB8
:1031000084B200F065FB064B24021A68A4B2154392
:1031100020431D6080B270BD30540000AC100040F0
:10312000A8100040E02010B50F4CC0012368032117
:103130000343236000F0E6F9802023680002034384
:103140002360012100F0DEF900F0DEFA032000F038
:1031500005FB042000F0F0FAFFF7BAFF0100034876
:1031600000F0E0FC10BDC046A81000404054000034
:10317000024B18784007C00F7047C0460A10004045
:10318000572288210A4B10B51A7051321A70094A19
:10319000118004220849088802430A8000220A207C
:1031A0001A7000F04DFB012000F08CFA10BDC046F3
:1031B00040100040081000404810004057220A4BC1
:1031C0000A491A7051321A700878A43A02430A70F8
:1031D00000221A709623DB00C046C046C046C04697
:1031E000013B002BF8D17047401000400A1000400E
:1031F0005722084B08491A7051321A700878A03AC1
:1032000002430A7000221A70C046C046C046C0463B
:103210007047C046401000400A10004057220A4B39
:103220000A491A7051321A700878983A02430A70A3
:1032300000221A70064BC046C046C046C046013B3D
:10324000002BF8D17047C046401000400A100040E3
:10325000B80B0000C0220D4B10B51B8899B213406B
:10326000802B0DD0402B05D1213B09481940FCF79C
:10327000B7FF10BD002B05D11F3306481940F6E7F4
:103280000448F6E7FA20C001F3E7C0460810004002
:1032900000389C1C0048E80110B5002925D0204BBF
:1032A000002815D157211F4A1170513111701C7817
:1032B000A6392143197010707F241A781878D1B27A
:1032C000A043A2439042F8D149B20029F5DA10BDDB
:1032D0000128F1D15721134A117051311170197819
:1032E0000843002118701170E6E700280BD157221F
:1032F00002240C4B0A491A7051321A700A78A24300
:103300000A701870E3E70128E1D15722054B044CFD
:103310001A7051321A702278824322701970D6E7DF
:103320002F10004040100040012110B50400FFF7AD
:10333000B3FF5722084B04211A7051321A70074A02
:103340001078002C04D18843107000221A7010BD30
:1033500001431170F9E7C046401000402F100040B3
:1033600070B5624C0C284AD85726614DFCF79AFE7E
:103370000710121F2B374A566476889AAC0000203B
:10338000FFF7D2FFA8232670237020332B8036E06E
:103390000120F5E7FFF7ECFE002801D1FFF70EFF53
:1033A0005723237051332370E133FF33EEE7FFF7E8
:1033B000DFFE002801D1FFF701FF572323705133AF
:1033C00023704C4BE2E7FFF7D3FE002801D1FFF753
:1033D000F5FE57232370513323705D33E5E7464EE6
:1033E00033781B0701D4FFF703FF572323705133B2
:1033F0002370203B04222B803378934333700023C7
:10340000237070BD3C4E33781B0701D4FFF7F0FEEC
:103410005723237051332370A63BEBE7364E3378A6
:103420001B0701D4FFF7E4FE572304222370513316
:1034300023702A803378E0E7FFF79AFE002801D155
:10344000FFF7BCFE2C4B1B78DB0601D4FFF7E6FE32
:103450005723237051332370A533A6E7FFF788FE67
:10346000002801D1FFF7AAFE234B1B78DB0601D40D
:10347000FFF7D4FE57232370513323701F4B85E78A
:10348000FFF776FE002801D1FFF798FE1A4B1B7854
:10349000DB0601D4FFF7C2FE57232370513323709C
:1034A000AD3382E7FFF764FE002801D1FFF786FE07
:1034B000114B1B78DB0601D4FFF7B0FE57232370B6
:1034C00051332370B13370E7FFF752FE002801D16A
:1034D000FFF774FE084B1B78DB0601D4FFF79EFE56
:1034E0005723237051332370054B4FE740100040A2
:1034F00008100040020200000A1000404F020000C5
:103500005E020000030000B50800042917D8134923
:10351000134AFCF7C7FD030A15181F0008689843F3
:10352000086010480168994305E0086898430860FE
:103530000C4801681943016011689943116000BD8E
:1035400008681843ECE7086898430860106803436C
:103550001360F4E708681843F7E7C046B41000406A
:10356000A0100040B0100040030000B5080004297E
:1035700017D81349134AFCF795FD030A15181F00C5
:1035800008689843086010480168994305E0086896
:10359000984308600C480168194301601168994319
:1035A000116000BD08681843ECE70868984308609C
:1035B000106803431360F4E708681843F7E7C04650
:1035C000D4100040C0100040D01000400821F0B5D9
:1035D000194A1A4B1078084206D1572018705130FA
:1035E000187010780143117005255720A821144C3C
:1035F000187019702580134D134E2C88FA2734400B
:103600002C8010241578FF002C4314700022012414
:103610001A700E4DAC4665462D782E002640254288
:1036200008D10132BA42F4D9094D187019702C70C2
:103630001E70EEE70022EEE70A1000404010004046
:103640000810004020100040FFF9FFFF2610004046
:1036500046100040F0B55727A826164A164D177099
:10366000164C4BB21670002813D1002B04DA02233B
:1036700013480678334303701C202B78084083439B
:1036800003202B70237801408B4323700023137099
:10369000F0BD002B04DA022609480178B14301701D
:1036A0001C21287819400143032029702178034008
:1036B0000B43EAE7401000400A1000402F10004082
:1036C0000F100040F8B55727A8260C4C0C4D27705A
:1036D0002670002802D128702070F8BD0120094B07
:1036E000187000232870237000F0AAF80D232770AB
:1036F00026702B7000232370EFE7C0464010004077
:1037000024100040251000400422084B1A70084B7A
:10371000023A1A705E321A70064B503A19780A4310
:1037200001211A701A788A431A70704703400040CA
:103730000040004001400040064B4022197802281A
:1037400004D10A431A70044B1870704791431970E2
:10375000F9E7C046014000400340004000B503289F
:103760000DD808210E4A0F4BFCF79CFC020A1115DC
:10377000107888431070202219780A431A7000BD0F
:1037800010788843107020211A788A43F6E7107861
:1037900001431170EFE7107801431170F3E7C04661
:1037A00000400040014000401021064A13788B433E
:1037B0001370054B0549187040230A781A42FCD053
:1037C0007047C046004000400440004006400040B2
:1037D0001021074A074813788B431370FF22064BCA
:1037E0001A70BF3A01781142FCD01878C0B2704705
:1037F000004000400640004004400040102310B547
:103800000A4A1478234313700122094B1980094B8B
:1038100041181A70084B094A884200D110BD1C7823
:10382000002CF9D0147804700130F5E70040004016
:103830000C4000400640004007400040104000405F
:1038400080B584B000AF0200BB1D1A800C23FB18AA
:1038500000221A8014E00E23FB1802221A8001E0D5
:10386000C046C0460E22BB181B88BA18591E1180CC
:10387000002BF5D10C217B181A887B1801321A8095
:103880000C23FA18BB1D12881B889A42E3D3C0464A
:10389000C046BD4604B080BD70B5FA2605000024C0
:1038A000B600AC4200D170BD30000134FFF7C8FF54
:1038B000A4B2F6E70023100030B5064A064C834256
:1038C00000DB30BD1578082DFCD0CD5C01332570B0
:1038D000F5E7C0460B3000400830004070B50A25BF
:1038E0000400FFF7B7FC68432100C008FCF7EEFBBB
:1038F00029000530FCF7EAFB014B80B2188070BD4F
:103900000C300040E12010B54002FFF7E7FF8722AE
:10391000054B1A70054B843A1A70054B3D321A70EC
:10392000044B3F3A1A7010BD023000400330004093
:10393000013000400E3000403F21044A80011378DE
:103940000B400343DBB213707047C04602300040A7
:10395000074B1A78002807D0114319700823054A2D
:1039600011780B43137070478A431A70FBE7C04607
:10397000013000400030004010B5064B064A4118A7
:10398000884200D110BD1C78082CF9D00478013091
:103990001470F5E70B300040083000400021CC23C4
:1039A0001C4A1D4810B5117003701C481C4C037054
:1039B0001C4B1D481B689BB203801C4B1C481B689A
:1039C0009BB203801B4B1C481B689BB203801B4BA4
:1039D0001B481B689BB2038002201A4B18701223ED
:1039E0002370194C2370194C2370194B1870194B04
:1039F000197029231370FF22174B1A708023174A5E
:103A000011880B4313808122154B1A70154B7A3A9B
:103A10001A7010BD008000400C8000400D800040F6
:103A200026800040746A002010800040786A0020E0
:103A3000148000407C6A002018800040806A0020CA
:103A40001C800040228000402A8000402E800040E0
:103A50003280004003800040068000401A10004081
:103A600001800040028000401248854612480168EB
:103A7000090E124A914205D11148124901601248BB
:103A800012490160002103E0114B5B58435004319F
:103A90001048114B42189A42F6D3104A02E0002314
:103AA000136004320E4B9A42F9D3FFF769FBFFF71C
:103AB000C5F8FEE700800020040000001F000000A1
:103AC000181002400100000000000140000000004A
:103AD000E4540000004000209C4000209C40002056
:103AE000A06A0020FEE730B500240139A24201D1CE
:103AF000002005E0035D01340D5DAB42F6D0581B9C
:103B000030BD002310B59A4200D110BDCC5CC45426
:103B10000133F8E703008218934200D1704719700F
:103B20000133F9E70FB40B4B13B51C68002C05D01B
:103B3000A369002B02D1200000F086FA05AB20001B
:103B4000049AA168019300F05FFC16BC08BC04B0A5
:103B50001847C0463840002070B505000E00002808
:103B600004D08369002B01D100F06EFAAB69AC6818
:103B7000002B02D1280000F067FA2D4B9C4222D185
:103B80006C68636EDB0705D4A3899B0502D4A06D26
:103B900000F0FBFAA3891B0702D52369002B29D16A
:103BA0002100280000F0AAF8002823D001256D424A
:103BB000636EDB0705D4A3899B0502D4A06D00F0DA
:103BC000E5FA280070BD1B4B9C4201D1AC68D8E7D8
:103BD000194B9C42D5D1EC68D3E70136A360002B8A
:103BE00004DAA2699A4216DC0A2914D023685A1C06
:103BF00022601970A3683178013B0029EDD1A360E0
:103C0000002B0FDA280022000A3100F021F80A25E3
:103C1000431CCDD1CAE72200280000F019F8431C4C
:103C2000E8D1C3E70A2523685A1C22601D70BFE74C
:103C30006C5400008C5400004C54000010B5034B31
:103C400001001868FFF788FF10BDC046384000200B
:103C5000F8B505000E001400002804D08369002B7D
:103C600001D100F0F1F9224B9C422ED16C68A3697E
:103C7000A360A3891B0732D52369002B2FD02368AB
:103C80002269F7B2981A6369F6B2834205DC210013
:103C9000280000F037F9002827D1A3680130013B44
:103CA000A36023685A1C22601F706369834204D09A
:103CB000A389DB0707D50A2E05D12100280000F0D3
:103CC00021F9002811D13000F8BD0A4B9C4201D1E6
:103CD000AC68CCE7084B9C42C9D1EC68C7E721002F
:103CE000280000F00BF80028C9D001267642EAE748
:103CF0006C5400008C5400004C540000374B70B5DD
:103D00001D6806000C00002D05D0AB69002B02D108
:103D1000280000F099F9324B9C420FD16C680C23BB
:103D2000E25E93B211072DD4D90611D409230120E4
:103D3000336037331343A381404270BD294B9C420B
:103D400001D1AC68EBE7284B9C42E8D1EC68E6E790
:103D50005B0713D5616B002908D0230044339942D7
:103D600002D0300000F080FA002363632422A3898C
:103D70009343A38100236360236923600823A289FE
:103D80001343A3812369002B0BD1A0218022A38997
:103D9000890092000B40934203D02100300000F0D4
:103DA0001FFA0C22A35E01201A0099B202400342BE
:103DB0000FD00022A26062695242A26100202269F3
:103DC0008242BAD10A06B8D540221343A3810138F2
:103DD000B3E7880700D46269A260EFE738400020AB
:103DE0006C5400008C5400004C540000F7B58B89D3
:103DF00005000C001A075FD44A68002A04DC0A6C2C
:103E0000002A01DC0020FEBDE76A002FFAD0002264
:103E100080212E682A601A0049010A400B4234D0E2
:103E2000606DA3895B0706D56368C01A636B002BBE
:103E300001D0236CC01A0200216A00232800E76A1F
:103E4000B847A189431C06D12B681D2B31D82C4AB9
:103E5000DA40D3072DD50023636023692360CB04A8
:103E600005D5431C02D12B68002B00D16065616B26
:103E70002E600029C6D023004433994202D0280086
:103E800000F0F2F900206063BDE701232800216AF9
:103E9000B847431CC5D12B68002BC2D01D2B01D0C5
:103EA000162B01D12E60ADE74023A2891343A381D5
:103EB000A9E740230B43FAE70F69002FA2D00A6855
:103EC0000F60D21B019200229B0700D14A69A260B9
:103ED000019B002B00DC95E73A002800019B216A3A
:103EE000A66AB047002806DC40230120A289404290
:103EF0001343A38187E7019B3F181B1A0193E7E750
:103F0000010040200B6970B505000C00002B02D1A8
:103F10000025280070BD002804D08369002B01D142
:103F200000F092F8144B9C421BD16C680C22A35EEB
:103F3000002BEDD0626ED20704D49B0502D4A06D95
:103F400000F023F928002100FFF750FF636E050001
:103F5000DB07DED4A3899B05DBD4A06D00F016F946
:103F6000D7E7064B9C4201D1AC68DFE7044B9C428B
:103F7000DCD1EC68DAE7C0466C5400008C540000D9
:103F80004C540000002310B50400036043608360BC
:103F9000818143661900C281036143618361082204
:103FA0005C30FFF7B7FD054B6362054B2462A362EB
:103FB000044BE362044B236310BDC046A5490000D7
:103FC000CD490000054A0000314A000010B5024901
:103FD00000F0BAF810BDC046053F000070B5682576
:103FE0004A1E55430E002900743100F087F9041E63
:103FF00008D000212A00016046600C30A0606832C1
:10400000FFF788FD200070BD10B5024800F0BDF834
:1040100010BDC046986A002010B5024800F0B6F8FE
:1040200010BDC046986A002010B5024800F0ADF8F7
:1040300010BDC046936A002010B5024800F0A6F8F3
:1040400010BDC046936A002013B50400FFF7ECFFD3
:10405000A369002B02D0FFF7EFFF13BDA364E36455
:104060002365134B134A1B68A2620193A34201D13B
:104070000123A361200000F01FF86060200000F021
:104080001BF8A060200000F017F800220421E06077
:104090006068FFF777FF01220921A068FFF772FF30
:1040A00002221221E068FFF76DFF0123A361D2E72E
:1040B000AC540000CD3F0000F8B50700FFF7A4FFA7
:1040C0001F4B1E68B369002B02D13000FFF7BCFF05
:1040D0004836B4687368013B04D53368002B22D09E
:1040E0003668F6E70C22A55E002D1AD12000154B8C
:1040F0005830E360656600F047F8FFF78DFF200059
:10410000082229002560A560656025616561A561BB
:104110005C30FFF7FFFC6563A563A564E5642000E0
:10412000F8BD6834D7E704213800FFF757FF041EB5
:104130003060D5D1FFF770FF0C233B60EFE7C0463E
:10414000AC5400000100FFFFF7B504000600002793
:10415000019148346368A5680093009B013B00937C
:1041600004D52468002CF5D13800FEBDAB89012BA5
:1041700008D90E22AB5E013304D029003000019B28
:10418000984707436835E8E7704770477047000075
:1041900070B50E001D000E23C95E140096B00029F4
:1041A00007DA00232B60B3891B0611D48023DB00C0
:1041B0000FE06A4600F068FC0028F2DBF02301996A
:1041C0001B021940054BC9184B4259412960EDE7C4
:1041D00040230020236016B070BDC04600E0FFFF02
:1041E000F7B502268B8905000C00334206D0230068
:1041F00047332360236101236361F7BD6A4601AB46
:10420000FFF7C6FF00990700280000F077F80028A4
:1042100008D10C22A35E9A05EFD4032293431E43D8
:10422000A681E4E70F4BAB628023A2892060134391
:10423000A381009B20616361019B002B0DD02800AE
:104240000E23E15E00F032FC002806D00322A38991
:1042500093431A0001231343A381A0890743A78135
:10426000CBE7C046CD3F000070B50500002910D057
:104270000C1F2368002B00DAE418280000F048FC2B
:104280001D4A1368002B05D163601460280000F0FC
:1042900047FC70BDA34208D9216860188342F3D15E
:1042A00018685B6841182160EEE71A005B68002B14
:1042B00001D0A342F9D911685018A0420BD120684F
:1042C0000918501811608342E0D118685B684118E2
:1042D00011605360DAE7A04202D90C232B60D5E7C6
:1042E00021686018834203D118685B684118216017
:1042F00063605460CAE7C046846A0020F8B50323AF
:10430000CD1C9D43083506000C2D1FD20C25A9425B
:104310001ED8300000F0FCFB25490A681400002C70
:104320001AD1244F3B68002B04D12100300000F04B
:1043300027FB38602900300000F022FB431C2BD102
:104340000C233000336000F0EBFB03E0002DDEDADD
:104350000C2333600020F8BD23685B1B19D40B2BA2
:1043600003D92360E418256003E06368A2420ED1FC
:104370000B60300000F0D4FB200007220B30231D1F
:104380009043C21A9842E6D01B1AA350E3E7536049
:10439000EFE722006468C2E70323C41C9C43A042E9
:1043A000E1D0211A300000F0EBFA431CDBD1C7E763
:1043B000846A0020886A0020936810B5013B9360EE
:1043C000002B04DA9469A34207DB0A2905D013689D
:1043D000581C10601970080010BDFFF739FC01006F
:1043E000F9E7F8B506000F001400D518AC4201D16A
:1043F000002007E021783A003000FFF7DDFF0134AC
:10440000431CF3D1F8BD0000F0B5A1B006000C00CC
:104410001F000392002804D08369002B01D1FFF70D
:1044200013FE8E4B9C421CD17468636EDB0705D46F
:10443000A3899B0502D4A06DFFF7A7FEA3891B07E4
:1044400002D52369002B1DD121003000FFF756FC57
:10445000002817D0636EDB070DD50120404221B044
:10446000F0BD7F4B9C4201D1B468DEE77D4B9C429E
:10447000DBD1F468D9E7A3899B05EED4A06DFFF7E3
:1044800085FEEAE7002308AD6B6120336B761033BD
:10449000AB760797039F3B78002B01D0252B4ED19D
:1044A000039BFB1A0593039B9F420DD0059B2100A4
:1044B0003000039AFFF795FF431C00D1B5E06A690D
:1044C000059B944663446B613B78002B00D1ACE0C4
:1044D00001227B1C0393002352426A6004A95432D8
:1044E00052182B60EB60AB601370AB65039B052229
:1044F00019785D4800F000FB039B5F1C002820D169
:104500002A68D30604D5532304A95B182021197007
:10451000130704D5532304A95B182B211970039B9F
:104520001B782A2B16D00021EB68039F3A78781C61
:10453000303A8446092A4FD9002911D117E00137B2
:10454000A9E7494B2A68C01A0123834013432B6013
:104550000397CBE7079B191D1B680791002B01DB15
:104560000B9304E05B42EB60022313432B603B7828
:104570002E2B0AD17B782A2B37D1079B02371A1DA5
:104580001B680792002B2DDB0993032239783748EB
:1045900000F0B2FA002807D0344B2A68C01A402332
:1045A0008340134301372B6039787B1C0622304847
:1045B0000393297600F0A0FA002845D02D4B002B5C
:1045C00027D10722079B07339343083307936B696F
:1045D000049A9B186B615DE70A214B4367469B1861
:1045E0000939A3E701235B42CEE700231A00013714
:1045F0006B603978781C30398446092903D9002B3F
:10460000C3D00992C1E70A235A4367465218093BAF
:10461000EFE707AB0093220029003000164B00E0C3
:1046200000BF0490049B0133D1D1636EDB0705D436
:10463000A3899B0502D4A06DFFF7A8FDA3895B06A3
:1046400000D50AE70D980AE707AB0093220029007E
:104650003000094B00F082F8E3E7C0466C540000DC
:104660008C5400004C540000B0540000B6540000BC
:10467000BA54000000000000E3430000F7B5150045
:1046800001938A680B690C000090934200DA1300D2
:1046900022002B6043321278002A01D001332B60B4
:1046A00023689B0602D52B6802332B602268062301
:1046B00017001F401A4227D0230043331B785A1E8D
:1046C00093412268920630D4220001990098089EF6
:1046D0004332B047431C25D0062320682A68E1688E
:1046E00000250340042B03D18D1AEB43DB171D403B
:1046F000A3682269934201DD9B1AED180027BD4291
:1047000020D1002010E00137E3682A689B1ABB42E1
:10471000D2DD2200012301990098089E1932B0478A
:10472000431CF0D101204042FEBD3020E11843314E
:10473000087021005A1C45310978A218433202330F
:104740001170C1E72200012301990098089E1A32D6
:10475000B047431CE6D00137D1E70000F0B58BB07D
:1047600006920A0043320793059004920A7E0C00D9
:10477000109B782A06D8622A08D8002A00D1C0E007
:10478000582A52D026004236327022E01000633898
:104790001528F7D8FBF790FC16001F00F6FFF6FF70
:1047A000F6FFF6FF1F00F6FFF6FFF6FFF6FFA80084
:1047B00036009A00F6FFF6FFB900F6FF3600F6FF66
:1047C000F6FF9E0026001A684236111D1960136814
:1047D00033700123A7E0086819680A1D05060BD588
:1047E0000D681A60002D03DA2D23049A6D421370B0
:1047F000614B0A27039332E00D681A604106F1D538
:104800002DB2EFE70D681968081D18602E0601D556
:104810000D6803E06D06FBD50D68ADB2564B0A2757
:1048200003936F2A17D1082715E045310A70524AC1
:1048300003921A68216820CA1A60080650D5CB076F
:1048400002D52023194321601027002D03D12023F6
:1048500022689A4322602300002243331A7063685F
:10486000A360002B03DB0422216891432160002D0B
:1048700002D1049E002B0CD0049E28003900FBF7C7
:10488000ABFC039B013E5B5C33702B0005009F4239
:10489000F3D9082F09D12368DB0706D5636822699D
:1048A000934202DC3023013E3370049B9B1B236147
:1048B000079B210000930598069B09AAFFF7DEFEDF
:1048C000431C35D1012040420BB0F0BD20220968C5
:1048D0000A4322602200782145321170274AA7E757
:1048E0004806ACD5ADB2AAE71A680D68101D496933
:1048F000186013682E0601D5196002E06D06FBD51D
:1049000019800023049E2361D2E71A68111D1960E3
:10491000166800213000626800F0EEF8002801D02F
:10492000801B6060636823610023049A1370BFE7F3
:104930002369320006990598079DA847431CC1D0FA
:1049400023689B0715D4099BE0689842BCDA1800DD
:10495000BAE72200012306990598079E1932B0474D
:10496000431CAFD00135E368099A9B1AAB42F0DCD7
:10497000E9E70025F7E7C046C1540000D254000023
:10498000002370B5064D040008002B6000F00CF900
:10499000431C03D12B68002B00D0236070BDC046A0
:1049A0009C6A002070B50C000E25495F00F0C0F82D
:1049B000002803DB636D1B18636570BDA389024A81
:1049C0001340A381F9E7C046FFEFFFFFF8B51F00D2
:1049D0008B8905000C001600DB0505D50E23C95E8A
:1049E0000022022300F074F8A389054A280013402E
:1049F000A38132000E23E15E3B0000F01FF8F8BDFA
:104A0000FFEFFFFF70B50C000E25495F00F060F866
:104A1000A389421C03D1054A1340A38170BD8022A3
:104A200052011343A3816065F8E7C046FFEFFFFF23
:104A300010B50E23C95E00F015F810BD70B5040066
:104A4000080011001A000023054D2B60FEF732FF0D
:104A5000431C03D12B68002B00D0236070BDC046DF
:104A60009C6A0020002370B5064D040008002B60EE
:104A700000F072F8431C03D12B68002B00D0236098
:104A800070BDC0469C6A0020002370B5064D04002E
:104A9000080011002B6000F067F8431C03D12B685D
:104AA000002B00D0236070BD9C6A0020002370B5ED
:104AB000064D040008002B6000F05EF8431C03D193
:104AC0002B68002B00D0236070BDC0469C6A00207C
:104AD00070B50400080011001A000023054D2B607A
:104AE00000F052F8431C03D12B68002B00D0236048
:104AF00070BDC0469C6A0020C9B28218904201D1A4
:104B00000020704703788B42FBD00130F6E70000AD
:104B100010B50248FFF739FB10BDC046946A00206B
:104B200010B50248FFF732FB10BDC046946A002062
:104B300070B50400080011001A000023054D2B6019
:104B400000F02AF8431C03D12B68002B00D023600F
:104B500070BDC0469C6A002058220120014B404293
:104B60001A6070479C6A002058220120014B404285
:104B70001A6070479C6A00205822024B00201A607D
:104B80007047C0469C6A002058220120014B4042D9
:104B90001A6070479C6A002058220120014B404255
:104BA0001A6070479C6A0020044A030010680028BD
:104BB00002D0C318136070470148FAE78C6A0020DE
:044BC000A06A0020C7
:104BC400000007FF00001000008002021F00000028
:104BD4007763682E636E2020C7DFBAE3B5E7D7D3C7
:104BE40055C5CCB7BDB0B800312E31300009022014
:104BF4000001010080320904000002080650000789
:104C04000501024000000705810240000012011066
:104C14000100000040443333350001010200010467
:104C24000309040E037700630068002E0063006E1E
:104C3400000C0343004800350037007800000600EC
:104C4400000800000800000800000002000B00003B
:104C54000800000800000002004641540046415488
:104C6400333200222A3A3C3E3F7C7F002B2C3B3DD2
:104C74005B5D00EBFE904D53444F53352E30004E98
:104C84004F204E414D4520202020464154333220B0
:104C94002020004E4F204E414D45202020204641EB
:104CA40054202020202000809A45418E418F804549
:104CB40045454949498E8F9092924F994F55555980
:104CC400999A9B9C9D9E9F41494F55A5A5A6A7A82F
:104CD400A9AAABACADAEAFB0B1B2B3B4B5B6B7B8C8
:104CE400B9BABBBCBDBEBFC0C1C2C3C4C5C6C7C8B8
:104CF400C9CACBCCCDCECFD0D1D2D3D4D5D6D7D8A8
:104D0400D9DADBDCDDDEDFE0E1E2E3E4E5E6E7E897
:104D1400E9EAEBECEDEEEFF0F1F2F3F4F5F6F7F887
:104D2400F9FAFBFCFDFEFF01030507090E1012143E
:104D340016181C1E010004001000400000010002AF
:104D44000000010002000400080010002000000020
:104D540061001A03E0001703F8000703FF000100D5
:104D640078010001300132010601390110014A01C4
:104D74002E017901060180014D0043028101820167
:104D840082018401840186018701870189018A01E6
:104D94008B018B018D018E018F0190019101910195
:104DA40093019401F60196019701980198013D023F
:104DB4009B019C019D0120029F01A001A001A20171
:104DC400A201A401A401A601A701A701A901AA01A6
:104DD400AB01AC01AC01AE01AF01AF01B101B20155
:104DE400B301B301B501B501B701B801B801BA0106
:104DF400BB01BC01BC01BE01F701C001C101C2017C
:104E0400C301C401C501C401C701C801C701CA0166
:104E1400CB01CA01CD011001DD0101008E01DE01CB
:104E24001201F3010300F101F401F401F801280176
:104E3400220212013A020900652C3B023B023D02A8
:104E4400662C3F0240024102410246020A0153021B
:104E5400400081018601550289018A0158028F01AF
:104E64005A0290015C025D025E025F0293016102DC
:104E74006202940164026502660267029701960168
:104E84006A02622C6C026D026E029C017002710255
:104E94009D01730274029F017602770278027902FF
:104EA4007A027B027C02642C7E027F02A6018102CC
:104EB4008202A9018402850286028702AE014402AD
:104EC400B101B20145028D028E028F02900291025D
:104ED400B7017B030300FD03FE03FF03AC030400DF
:104EE4008603880389038A03B1031103C203020002
:104EF400A303A303C4030803CC0303008C038E039E
:104F04008F03D8031801F2030A00F903F303F4032F
:104F1400F503F603F703F703F903FA03FA0330047E
:104F2400200350041007600422018A043601C104DE
:104F34000E01CF040100C004D0044401610526041D
:104F440000007D1D0100632C001E9601A01E5A0165
:104F5400001F0806101F0606201F0806301F08063B
:104F6400401F0606511F0700591F521F5B1F541F85
:104F74005D1F561F5F1F601F0806701F0E00BA1FBB
:104F8400BB1FC81FC91FCA1FCB1FDA1FDB1FF81F97
:104F9400F91FEA1FEB1FFA1FFB1F801F0806901F53
:104FA4000806A01F0806B01F0400B81FB91FB21FCF
:104FB400BC1FCC1F0100C31FD01F0206E01F020646
:104FC400E51F0100EC1FF31F0100FC1F4E2101002F
:104FD400322170211002842101008321D0241A057A
:104FE400302C2F04602C0201672C0601752C020161
:104FF400802C6401002D260841FF1A030000C7001D
:10500400FC00E900E200E400E000E500E700EA005B
:10501400EB00E800EF00EE00EC00C400C500C9009E
:10502400E600C600F400F600F200FB00F900FF0001
:10503400D600DC00A200A300A500A7209201E10095
:10504400ED00F300FA00F100D100AA00BA00BF009D
:105054001023AC00BD00BC00A100AB00BB00912537
:10506400922593250225242561256225562555255B
:105074006325512557255D255C255B2510251425C1
:1050840034252C251C2500253C255E255F255A2525
:10509400542569256625602550256C2567256825D6
:1050A4006425652559255825522553256B256A25E0
:1050B40018250C25882584258C2590258025B10369
:1050C400DF009303C003A303C303B500C403A60313
:1050D4009803A903B4031E22C603B503292261223F
:1050E400B1006522642220232123F7004822B00066
:1050F4001922B7001A227F20B200A025A0006D6FEC
:10510400756E7400303A006D6F756E74206F6B00AD
:105114006F70656E00303A6F70656E2E747874002F
:105124006F70656E206F6B007772697465007772BB
:10513400697465206F6B00746869732066696C65B7
:10514400207772697474656E206F6B2C206E756D98
:10515400626572206F6620646174613A2025640A76
:1051640000537461727420404368697049443D255A
:105174003032580A00464C41534820646F6573200E
:105184006E6F74206861766520612066696C6520A5
:1051940073797374656D207965742C206974207734
:1051A400696C6C20626520666F726D6174746564ED
:1051B40020736F6F6E202E2E2E0D00665F6D6B6652
:1051C40073207265743A2025640A00464C415348A2
:1051D400206861766520612066696C652073797347
:1051E40074656D207965740D00464C415348206602
:1051F4006F726D6174206572726F720D00657874E0
:1052040065726E616C20464C415348206D6F756E1B
:10521400742066696C652073797374656D2065729A
:10522400726F722C20636F6465203A25640D0A0046
:1052340066696C652073797374656D206D6F756E26
:1052440074206F6B2C205265616420616E6420773A
:10525400726974652074657374732061726520616A
:105264007661696C61626C65000D0A2A2A2A2A2A11
:105274002A2046696C6520777269746520746573A9
:10528400742069732061626F757420746F20626585
:1052940020706572666F726D65642E2E2E202A2A28
:1052A4002A2A2A2A0D00303A746573742E7478748D
:1052B400006F70656E2F637265617465204661745A
:1052C400467320726561642F777269746520746512
:1052D40073742066696C652C2022746573742E7453
:1052E40078742220637265617465206F6B2C20775B
:1052F40072697465206461746520746F20746869D0
:10530400732066696C650D00777269746564206446
:105314006174612061733A200D0A25730D0A0077C8
:10532400726974652066696C65206572726F722C8F
:1053340020636F64653A2025640A006F70656E2FE0
:105344006372656174652066696C65206572726F4D
:10535400720D002A2A2A2A2A2A2046696C6520729C
:10536400656164207465737420636F6D696E672E64
:105374002E2E202A2A2A2A2A2A0D006F70656E20D2
:1053840066696C65206F6B0D005468652066696CF6
:10539400652077617320726561642073756363654A
:1053A400737366756C6C792E204279746520646120
:1053B40074612077617320726561643A2025640DFD
:1053C4000A005468652066696C6520646174612014
:1053D4006F627461696E65642062792072656164CC
:1053E400696E672069733A0D0A2573200D0A0072ED
:1053F4006561642066696C65206572726F722C2029
:10540400636F64653A2025640A006F70656E2066D8
:10541400696C65206572726F720D0055415254308B
:10542400204C494E45204552524F52005350494654
:105434006C6173685F5265616449440069643A3021
:1054440078253034780A00000000000000000000D5
:105454000000000000000000000000000000000048
:105464000000000000000000000000000000000038
:105474000000000000000000000000000000000028
:105484000000000000000000000000000000000018
:105494000000000000000000000000000000000008
:1054A40000000000000000003C400020232D302BB1
:1054B4002000686C4C006566674546470030313211
:1054C4003334353637383941424344454600303168
:1054D40032333435363738396162636465660000C7
:1054E40066617466732074657374202121212121FF
:1054F400212121212121210D0A006173646667683D
:105504006A6B6C7A786376626E6D717765727479A2
:1055140075696F700D0A00003C4000200000000017
:105524006C5400008C5400004C5400000000000037
:105534000000000000000000000000000000000067
:105544000000000000000000000000000000000057
:105554000000000000000000000000000000000047
:105564000000000000000000000000000000000037
:0C5574000000000000000000000000002B
:0400000300003A6956
:00000001FF
