:020000040000FA
:1000000000800020F90000000140002003010000F2
:1000100000000000000000000000000000000000E0
:1000200000000000000000000000000003010000CC
:1000300000000000000000000501000007010000B2
:100040000901000009010000090100000901000088
:10005000090100004914000013100000090100000C
:100060000901000009010000090100000901000068
:10007000B514000009010000090100000901000099
:100080000901000009010000090100000901000048
:100090000348854602F0A2FE00480047A500000084
:1000A00000800020022000F048F81021012000F01C
:1000B0003DFC01F042F901F0B7F904F0F7FC0D48FE
:1000C000417910221143417101F02AFE002000F015
:1000D000BCFD002000F0BAFD01F00AF8C82000F0D5
:1000E00039FD00F097FF00F0B9FD01F0EEF80AF0DD
:1000F000B7FAFCE740100040044880470448004736
:10010000FEE7FEE7FEE7FEE7FEE700001501000060
:100110009100000010B5FF4857210170A82101701F
:10012000FC4A8821403A1181002101700A2000F028
:1001300001FD012000F04BFC10BDF0B5F54EF54D72
:1001400004275722A824203E403DF24903000AF02C
:100150000BFC0D080E161B1F24282C32373C414681
:100160002F000A700C70F07BFB22104003E00A7035
:100170000C70F07B3843F073C820288118E00A70B7
:100180000C705120C000F8E70A700C70E248F4E7E8
:100190000A700C7081208000EFE70A700C708820D4
:1001A000EBE70A700C700220E7E70A700C702F81F1
:1001B00000200870F0BD0A700C7093208000DCE70E
:1001C0000A700C70D4484D30D7E70A700C70952037
:1001D0008000D2E70A700C704B20C000CDE70A7097
:1001E0000C70CD485C30C8E7CA4810B5403800896B
:1001F000C1B20B069A0FC948022A05D0012A04D0C1
:100200009A0F06D07D20000210BDC906C90EC44851
:1002100001E0C906C90E02F04DFD10BDBD4A5721CF
:100220001170A8211170BB4940394B15002808896D
:1002300004D0184308810020107070479843F9E7F4
:10024000B44A57211170A8211170B24920390028F1
:10025000C87B05D004231843C87300201070704772
:10026000FB231840F8E7AB498A7B8007920892008D
:10027000800F024357200870A82008708A7300205E
:1002800008707047A3498A7B8F231A4000010243FC
:1002900057200870A82008708A73002008707047E3
:1002A0009C4A203A917B800789088900800F01438E
:1002B000984857230370A82303709173002101709D
:1002C0007047944A203A917B0907090F00010143C6
:1002D000904857230370A823037091730021017085
:1002E0007047FEB58B48002740380089C0B2010630
:1002F0008A0F022A4CD00124A403012A4CD0890F72
:1003000056D00524002000902005000D0190814862
:100310002038848900267F49572230460A70A82257
:100320000A7001238B747B4957220A70A8220A7035
:10033000784A203A948100220A708A7C9207FCD580
:100340000A8A8A7C9207FCD48A7C9207FCD5098AA7
:10035000019A7F1C891A0DB2FFB2002D37D02946B1
:10036000714305D5012834D0411C32D0002830D04B
:100370002E4602943046009902F0B2FC00B2211AD7
:100380008CB202998C4249D1002D45DD641C44E0B9
:100390000220644CC043B6E7C506ED0E294662480C
:1003A00002F088FC0019C40B2320C043401B09E065
:1003B000C506ED0E29465D4802F07CFC0019C40B11
:1003C000A81C4042294602F08BFC00B29BE70020AB
:1003D000FEBD002E03DA761EF04306B202E06D1E6B
:1003E000E84305B2B5420FDD4A4857210170A82104
:1003F0000170484A0299203A9181002101707D20C4
:10040000C0007043019903E07D20C000684311469D
:1004100002F066FC80B2FEBD641EA4B2142F82D32B
:10042000FF20FEBDFFB581B00C46074605460026FD
:100430001AE0FF219131681E02F052FC00290AD017
:100440006421681E02F04CFC002907D00320A90794
:100450008007C14202D1FF206F3001E0FF206E30E3
:1004600080196D1E86B2ADB231488542E1D80025B3
:10047000012C25D9032C05D0A01E062816DDE00787
:1004800018D115E0FF219131384602F013FC002904
:100490000AD06421384602F00DFC002901D0B807CB
:1004A00002D000201C3006E00120FBE7E00701D06D
:1004B0001F2000E01E208019641E86B2A4B2D7E778
:1004C000039818213018401E84B2049802F0F2FB01
:1004D000E120C00041430A981E22504309180B989E
:1004E0004008081881B20B98C00701D00120C00352
:1004F0000A040243074957200870A8200870054ED7
:10050000403E746303482038437C80242343437473
:1005100072630FE040100040020200000048E80152
:1005200000389C1C1313000000180D8F0068890907
:10053000E4070000427C40231A4342740D7005B06A
:10054000F0BDFFB50746934883B0C06B0E468404E8
:100550009048A40C2030418B008B01224900D2032B
:10056000904201D3012000E00020081800908A4842
:10057000388010E00199002925D06421284602F036
:1005800099FB002901D0A8071DD0FF206E30201A4A
:100590006D1C84B23D803D88FF219131284602F0D8
:1005A00089FB0191002911D06421284602F082FBC9
:1005B000002901D0A80709D0FF206E30A042D9D968
:1005C0000020308049E0FF206F30E0E7FF206F30EF
:1005D000F4E73588012D04D0062D18D9E8071AD183
:1005E00017E03888FF219131019002F063FB002968
:1005F0000BD06421019802F05DFB002902D0019824
:10060000800702D000201C3006E00120FBE7E8074D
:1006100001D01F2000E01E20201A84B26D1CA8B259
:100620003080012804D0062817D9C0071AD117E056
:100630003888FF210546913102F03CFB00290AD0A1
:100640006421284602F036FB002901D0A80702D019
:1006500000201C3007E00120FBE73078C00701D004
:100660001F2000E01E20A042B3D93088641C401C2B
:1006700030800598E12104800901009802F01AFBFE
:10068000069A108008463C2102F014FB0C99088061
:100690003C21009802F00EFB0D98018007B0F0BDE0
:1006A0003C49572240310A70A8220A70394A5063E7
:1006B00038482030427C40231A434274002008709E
:1006C00070473449886B8A6B8242FBD17047314A4C
:1006D00010B5572140321170A82111702D492031D9
:1006E0004B7CE82423404B744B7C10242043034371
:1006F0004B740020107010BD00B50346FFF7E1FFFA
:100700002649C018884201D9494240180104090C01
:1007100002D00121090440181E49572240310A70B5
:10072000A8220A701B4A50631A482030427C2023BA
:100730001A4342740020087000BD0021002802D036
:10074000012802D002E0202100E0102111485722A8
:1007500040300270A82202700E4A2032537C8B4334
:1007600053740021017070470A4920310028087C29
:1007700002D0402108407047C009C00170470549B8
:100780002031002804D0012801D1102008747047BE
:100790002020FBE700100040E40700000000C0A894
:1007A00000B5524A0B000AF0DFF8050407101619CD
:1007B0001F00516B81430AE0516B81435163116B00
:1007C00001431163116A81430DE0516B0143516391
:1007D000116B8143F5E7516B814301E0516B01439C
:1007E0005163116A0143116200BD404A00B54032B5
:1007F0000B000AF0B9F80504071016191F0051691B
:1008000081430AE0516981435161116901431161DA
:10081000116881430DE051690143516111698143C0
:10082000F5E75169814301E0516901435161116864
:100830000143116000BD2D4A002906D0012907D0CF
:10084000022908D0032913D10CE0918A814304E0E6
:10085000918A814308E0918A01439182D16A0143E0
:10086000D16205E0918A01439182916A01439162CC
:100870009083118A0143118270471C4B1B4A4033FD
:10088000002906D0012907D0022908D0032913D155
:100890000CE0D18A814304E0D18A814308E0D18A07
:1008A0000143D182D9680143D96005E0D18A01436F
:1008B000D182996801439960D083518A0143518262
:1008C00070470A4A803A0028108B01D0084300E0A4
:1008D000884310837047054A803A0028508B01D026
:1008E000084300E0884350837047000080100040B8
:1008F000F8B5624D5726614CA827203D0028267088
:10090000277028880ED02115084328800A2000F07F
:1009100011F9267027702888611508432880002067
:100920002070F8BD032149028843F7E7F0B5534C26
:1009300057261C228B07514DA8270A409B0F403C8D
:1009400000282E702F7010D0080603D5E07BFD2103
:100950000840E073A07A1043A07248482038C17B59
:100960001943C17300202870F0BD080603D5E07B51
:1009700002210843E073A07A9043A0723F482038D8
:10098000C17B9943EDE730B53C4C57233B4AA82542
:10099000403C002813701570E06804D08843E06084
:1009A0000020107030BD0843F9E730B5334C5723B1
:1009B000324AA825403C002813701570A07B04D053
:1009C0000843A0730020107030BD8843F9E7F8B5E4
:1009D0002A4D5726294C0021A827203D00282670A3
:1009E00027700ED00120687128710020207001202E
:1009F00000F0A0F8267027700D20287100202070CC
:100A0000F8BD29712170F8BD1D4801690422914388
:100A1000016130BF7047194B57241C70A8251D7009
:100A200016494039887B0822104388730920134EE9
:100A30000003203E308000271F70886B8A6B824243
:100A4000FBD1104A0A30904201D952428018020468
:100A5000120C02D0012212048018302232741C7051
:100A60001D7048632F2070741F701C701D7005204E
:100A700008811F7040BF20BF20BFFEE7401000402C
:100A800000ED00E00000C0A83949062805D04979EA
:100A9000012282401140084670470878082108402A
:100AA0007047334857210170A821017081790122D4
:100AB000114381710021017070472E49096801605E
:100AC00000202C49C04380310860704729490860E4
:100AD0007047294880697047254957220A70A82223
:100AE0000A700028887905D00422104388710020FC
:100AF00008707047FB221040F8E71D4957220A7022
:100B0000A8220A700028887905D002221043887133
:100B1000002008707047FD221040F8E71448572164
:100B20000170A82101708179102211438171002187
:100B30000170704700220AE0022101E000BF00BFFF
:100B40000B46491E89B2002BF8D1521C92B2824248
:100B5000F2D3704770B500247D260546F60004E008
:100B60003046FFF7E7FF641CA4B2AC42F8D370BD77
:100B70004010004000E100E000E000E010B5234834
:100B800000230370CC210173417321490A8802823A
:100B90008A8882820A890283898981831B49022487
:100BA00020318C7012228A718A728A738C74C3709D
:100BB00029210170FF21817116494A8B80231A4334
:100BC0004A83812141700721817010BD0F49203176
:100BD0000871887980088000887170470B4920313E
:100BE0000872887A8008800088727047074920312F
:100BF0000873887B80088000887370470349203120
:100C00000874887C800880008874704700800040E9
:100C100024420020001000401A490020086070475C
:100C200010B5014610468847002010BD15490A68D6
:100C30000242FCD00A680B6883430B601046704781
:100C4000104802680A43026070477047704710B549
:100C500011469AB2812000F0F0F910BD10B50321C1
:100C60000220FFF79DFD03214020FFF799FD064874
:100C7000C16A02221143C162C16A40221143C162AA
:100C800010BD0000344200208010004010B5FC4A26
:100C90000021146807E0621840239B5C8032DB432C
:100CA000491C1370C9B28142F5D3FFF7A7FF10BDED
:100CB00010B5F44A0021126805E05318545C403323
:100CC000491C1C70C9B28142F7D310BD10B5EE4A61
:100CD0000021126806E0535C5418DB434034491C81
:100CE0002370C9B28142F6D3FFF778FF10BD08B573
:100CF00040200090E548002203681146912000F052
:100D00002BFA08BDFEB5E24F0025B879E14E810708
:100D100079D5F879E04C8106D948890E00682029F8
:100D200072D006DC0B0009F01FFE05F2F1F0EFEEC9
:100D30007E00232969D004DC212967D0222972D1C1
:100D40002AE1242970D03029F9D1C221B170397A31
:100D500008296AD1C179827909021143618002911F
:100D60004378637002780092019200215206920F3C
:100D70005BD11A46130009F0F7FD0BB6899D9D9DC6
:100D800079079D7F83AF9D00C37882781B02134350
:100D90001A0A032A2AD004DC012A07D0022A4FD1DA
:100DA00007E0212A16D0222A4AD107E0BA492C317D
:100DB00026E0B9494031A160897842E0427903795F
:100DC00012021A431206120E3AD1B3490C31A16035
:100DD000202136E04279037912021A431206120EDC
:100DE0002ED1AD496C31A16009212AE0DAB213009D
:100DF00009F0BAFD06040D0F14211C26A649091D91
:100E0000A16009781DE0F0E08BE0D2E0B7E0A349F3
:100E100001E0A2491431A160142112E09E49783109
:100E2000A1601A210DE0A9E0D4E043E09B492831FC
:100E3000A1601E2105E099494631A160242100E00E
:100E4000FF25029A8A4200D961806188402900D337
:100E50004021C9B20A460091A16801F0A2FFA06832
:100E600000994018A060FF2D24D044E0C17882781A
:100E700008021043C0B201E021782EE060803AE021
:100E8000C178827808021043207034E00099C906C6
:100E9000C90E02290ED14179027908021043C0B26D
:100EA0007321012814D002280AD0BC2181280BD03C
:100EB000822801D0CF2057E0B07A0840801C01E0A2
:100EC000B07A0840B07216E0B0790840801C01E0AA
:100ED000B0790840B0710EE00021017060880128EF
:100EE00009D90120CAE700210170417060880228F9
:100EF00001D90220C2E7019800060ED56188402979
:100F000006D9402005E05AE04CE03EE030E02DE01C
:100F10000846C0B2091A618000E000203070C0208D
:100F200022E05D4962784988052A17D0062A02D056
:100F30000020307017E0402900D34021CDB22A466E
:100F4000A16801F02EFF6088401B6080A0684019F6
:100F5000A0603570B0784021484005E0F878C009BD
:100F6000C0010843F8700220B0703CE0387A3AE0E3
:100F7000F879400637D5387AFFF7B9FE33E0B07913
:100F800080088000801CB0712DE0F87940062AD5D9
:100F9000387AFFF79BFE26E0B07A80088000801C3C
:100FA000B07220E0F87940061DD5387AFFF780FE50
:100FB00019E0B07B80088000801CB07313E0F879E2
:100FC000400610D5B07C80214840B074387AFFF7D5
:100FD0005DFE08E0B07C40214840B074B07C8008E1
:100FE0008000801CB07402200CE0C1070CD00020EF
:100FF000F8700220B0701220B071B072B073B8797E
:1010000001210843B871FEBD4107FBD57879042062
:10101000F8E777E610B51A49214808601B49C03047
:1010200008601949803008601649803008601D4901
:1010300040200860FFF7A2FD10BD10B514468128BE
:1010400007D0822832D0832839D0842840D001208C
:1010500010BD0E480068403001F0A3FEE0B2FFF77B
:10106000B5FD114B00220321812000F04EF803044E
:101070001B0C35D000210C4A0846FFF7E8FD2FE095
:1010800024420020304200202C4200202842002030
:101090000080004020800040384200200E4E0100B9
:1010A000B065002000E100E0F06700200D48006816
:1010B000403001F076FEE0B2FFF790FD10E00A4804
:1010C0000068403001F06DFEE0B2FFF78FFD07E0F1
:1010D00006480068803001F064FEE0B2FFF78EFD44
:1010E000002010BD2C42002030420020244200206D
:1010F0007B48002141808180C180018141818181C3
:10110000C181018201210170704710B5812821D170
:1011100001291FD002291DD003291BD1704CE08961
:10112000218A884214D0A0896E498001411840224A
:10113000184601F036FEA089401CA081A089042831
:1011400001D10020A081208A401C2082402010BDB7
:1011500001202070002010BD70B5049A1946912816
:1011600028D1002A26D00878072814D05C4CE088C3
:1011700023895D4DC01A80B2042810D060885B4B73
:101180008001C01801F00DFE6088401C60806088FE
:10119000042806D007E05649012008700AE08021A3
:1011A00005E000206080E088401CE0800121286884
:1011B000FFF746FD012070BD08B5402000230090D8
:1011C0001A4619469120FFF7C7FF08BD10B5002346
:1011D0001A4603218120FFF798FF002805DD002231
:1011E000034611461046FFF732FD10BD3F4F3C4EFF
:1011F0000025002211468120FFF718FD4DE0B4883C
:101200000FE07F21641C3954042C00D10024708825
:10121000844206D1002211468120FFF707FD000617
:1012200003D4A001395C7E29EBD070892D4C80015C
:101230000119B0888001C01900F04AFDB088401C37
:10124000B080B088042800D1B5803089401C30813E
:101250007089401C70817089042800D17581F089E3
:10126000401CF0813078002817D0F089318A8842FC
:1012700013D0B0890146401CB0810846B1890429C9
:1012800000D1B581318A491C318235708001021943
:10129000002140230846FFF7DAFCF08831898842B4
:1012A000A7D0ACE710B50C46090409D513F01CFB18
:1012B000002801D013F0F0FA0120C003604010BDF7
:1012C000E007FCD00020FFF791FF10B5094809F0B6
:1012D000A9F9034920224870012113F0E1FC10BD57
:1012E000CA420020306900202042002030680020DF
:1012F000E4420020A512000010B5FEF7F2FF02281C
:1013000001D9FEF7EEFF10BD30B55149CC7E0B7E02
:101310004A7EC87E80252843C8760F200876212083
:101320004876887E012528438876887EC007FCD1D0
:10133000888BCC760B764A7630BD30B58DB01222D4
:1013400044A1494813F088F900283ED0404857216D
:101350000170A821017051213D4AC900403A118114
:10136000002101704248414A4261424A0724D36940
:101370001B021B0A45042B43D3618161046101698F
:1013800002229143016134220021684613F068FA79
:101390003948009001204003694688801B20C873AB
:1013A000052008740120487414208874FB208002F2
:1013B00002900D2008773148089031480A9008467D
:1013C00002F062FC002801D0FEE7FEE70DB030BD60
:1013D00070B50C4609040AD513F086FA002801D02E
:1013E00013F05AFA01212046C903484070BDE007B6
:1013F00002D00120604070BD224DA00405D502F04E
:10140000BFFC0126204A760305E060040AD57D2250
:10141000D2010126B6033146287813F041FC20465C
:10142000704070BD002070BD10B5184809F0FAF882
:10143000144C207000F046F862B6134A01214903AB
:10144000207813F02DFC10BD10B502F061FB10BD2B
:101450004010004043483537785F424C455F4C4967
:10146000425F56312E3700007E4E0100FEFFFF0026
:1014700000E000E004ED00E0B0450020D30A0000E9
:1014800009130000DC42002000EE0200D11300002E
:101490000104090C02D00121090440181649572201
:1014A0000A70A8220A701449403948631349002081
:1014B0000860704710493020203908740F49012016
:1014C000086070471CB50C4857210170A8210170B5
:1014D00009492039CA7B07231A43CA7300210170C6
:1014E00000910B460122019111460548FEF79AFF33
:1014F000002009F0CBF91CBD40100040E042002064
:10150000E4070000F7494843401EFDD17047F3B59A
:1015100006460578447881B0801C01F054FC71794E
:101520000002000A090608430090E0070127EE4E7A
:10153000002810D0E80707D003210120FFF730F979
:10154000B06A3843B06206E003210120FFF728F9B2
:10155000F06A3843F062A00712D5A80708D5032126
:101560000420FFF71DF9B06A04210843B06207E0C8
:1015700003210420FFF714F9F06A04210843F06204
:1015800060070BD5A808C00704D0B06A80210843C3
:10159000B06203E0F06A80210843F06220060ED5B5
:1015A000E809C107D14804D0B16A0143B162002102
:1015B00003E0F16A0143F1620321FFF7F1F80098BB
:1015C0000021002831D0012084460246E00708D0DF
:1015D000706AC007C00F01D0384600E00846A84234
:1015E00020D1A00709D5706A0423184201D03846DB
:1015F00000E008466B08984214D1600709D5706A6C
:101600008023184201D0384600E00846AB089842D3
:1016100008D1A00601D5680904D1200605D5706A55
:10162000E80902D0B81A6045D0D3706AC007C00F6D
:1016300001D0384600E00846726A04231A4201D0FD
:101640003A4600E00A4652001043726A80231A426A
:1016500000D0394689000843716A716A029908709E
:10166000A348FEBDF0B589B00890044600208D1C4B
:101670000391A04902900870049005906678A41C1C
:10168000002E6FD02778641CB9076CD50499002907
:1016900035D09948008A01901120384001280FD197
:1016A0006946384601F0F6FA02281AD10199491E16
:1016B0000191491C03D08F4909780029F0D01EE11F
:1016C00069460E2001F0E6FA022808D10199491E68
:1016D0000191491C03D0874909780029F0D00021E5
:1016E00004910128EBD1009929700099090A6970C9
:1016F0000099090CA9700099090EE9702D1DF906D1
:1017000058D5204601F05FFBE1780002000A090687
:10171000084307907848241D408A0690F80715D0A2
:101720007548008A01900021384601F0B3FA02287A
:1017300002D00128C3D109E00199491E0191491C39
:10174000BDD06C4909780029EDD0D8E06A48008AFC
:1017500001906946384601F09DFA022804D001281C
:101760001CD10BE0ECE064E00199491E0191491C99
:1017700014D0604909780029EBD00FE05E49009A47
:1017800049691140079A914208D00699491E06916D
:10179000491C03D0574909780029D7D05649009AE7
:1017A00049691140079A914201D01021084301284C
:1017B0001AD13CE05049098A0191F90718D00499DF
:1017C000002934D10021384601F064FA022802D001
:1017D000012809D109E00199491E0191491C03D052
:1017E000444909780029EDD089E0012104911EE0E7
:1017F0006946384601F04EFA022802D001287ED10F
:1018000009E00199491E0191491C78D039490978AC
:101810000029EDD073E0009929700099090A6970D8
:101820000099090CA9700099090EE9702D1D00217D
:101830004DE00498002823D02F48008A0190694683
:101840000E2001F027FA022802D0012857D109E022
:101850000199491E0191491C51D026490978002956
:10186000EDD04CE0009828700098000A687000984D
:10187000000CA8700098000EE87000202D1D049048
:10188000204601F0A0FAE1780002000A09060843A8
:10189000241D0090B90603D517494861012017E0BF
:1018A0001548008A01906946384601F0F3F902288C
:1018B00002D0012823D109E00199491E0191491C58
:1018C0001DD00C4909780029EDD018E001210591BF
:1018D0000299491C02910749097800290FD1761E07
:1018E0000CD0CFE6AB290000801000400080000043
:1018F00001000600E4420020306A00200AE0002EC9
:1019000008D02178641C8A0701D5C90600D5241D9A
:10191000761EF4E7012832D1049900291ED0FA4836
:10192000FA4F068A69460E2001F0B4F9022802D067
:10193000012824D105E0761E21D339780029F1D081
:101940001DE0009929700099090A69700099090C35
:10195000A9700099090EE9702D1D10E00599002964
:101960000DD0E948E94F068A00210E2001F092F9D6
:10197000022804D1761E02D339780029F4D0039AC4
:10198000029911700399487008980399201A00046D
:10199000691A084309B0F0BDF3B583B00025CE1C29
:1019A0000291DA49024628460D70917853780C026C
:1019B000D21C1C4373D01178521C009103928907EA
:1019C0005DD50099C90737D0CF48078A0021009814
:1019D00001F060F9022802D0012860D12CE07F1EBE
:1019E0005DD3CA4909780029F0D058E0002C04D111
:1019F0000098C00701D00E200090C348078A01A9B3
:101A0000009801F047F9022802D0012847D106E0EA
:101A10007F1E44D3BD4909780029F0D03FE00199E9
:101A2000317001996D1C090A71700199090CB1702E
:101A30000199090EF170361D641ED7D22FE003986C
:101A400001F0C1F903990002C978000A09060843A8
:101A500001900398001D0390AB48078A01A90098E4
:101A600001F018F9022802D0012818D106E07F1EE3
:101A700015D3A64909780029F0D010E06D1C641E2A
:101A8000DDD2A148A14F048A00210E2001F002F905
:101A9000022804D1641E02D339780029F4D00299B7
:101AA0000D70029A290A5170029988700298301AB2
:101AB00005B0F0BDFF20087095487047F8B5027872
:101AC0001346803B1F2B02D800F058FAF8BD0A706D
:101AD00007784C1C421C00258B48FF218C4E3B0094
:101AE00008F042FF1E10181D2295A2BFF2DA414DE8
:101AF000F2F2F2F2F251565B6A798F92F2F2F2F25E
:101B0000F2F274F21078611C00F046F981492070FD
:101B10004018F8BD2146104600F06AF9C1E02146A0
:101B2000104600F083F9BCE0057000210120FEF7AB
:101B300037FE00210420FEF733FE00218020FEF74F
:101B40002FFE012000214003FEF72AFE0120002184
:101B5000C003FEF725FE01200021C002FEF720FE93
:101B6000257001209DE050781178000208430B2178
:101B70004843401EFDD167482570401E91E06570C6
:101B8000257002208DE021461046FFF7C0FC88E05A
:101B90002146104600F07EF983E01778511C002F93
:101BA00001D1FF270137384600F0F0F9FF1D2570FD
:101BB000F8080004801974E011788A07920F521C0B
:101BC00049070276C90F417625701EE0214610466E
:101BD00000F087F965E02170012113780C46521C52
:101BE0000AE01078521C8006800E00D14020C01DF3
:101BF000C00812180918491C5B1EF2D208042043C1
:101C00004FE010782170D4E72170304649E0117818
:101C10000173937857781902394301821179D27888
:101C20000902114341824CE000782146012814D07A
:101C30001346521C1078521C002808D01778521CEA
:101C4000BC0701D5FC0600D5121D401EF6D1D01AE6
:101C50000D7000044D70801C23E01046FFF702FD5C
:101C60001FE0007817462146012809D00D704D70FD
:101C7000A5700320F978284A890705D5104310E09C
:101C80001046FFF789FEF5E7B9787B78090219431A
:101C900089048918084304E00078012803D02170E2
:101CA0001E488019F8BD1746501C01F08CF8397990
:101CB0000002000A0906084300906946002000F06F
:101CC000E9FF2570ECE7FFE7203CE1773046F8BDFF
:101CD000F8B502787F2A02D0FFF7F0FEF8BD0A704F
:101CE0004478861C4C708D1C0A4F08E0294630460B
:101CF000FFF7E4FE010C3F188E1980B24519641EEF
:101D0000F4D23846F8BD0000306A0020E4420020DA
:101D100001000100020002000000040001000500B3
:101D200070B58E480021017041700E22426001732F
:101D30006422028241820122416102764176884911
:101D4000886A10438862886A042210438862886A1D
:101D5000802210438862886A4C14204388628A6A11
:101D6000CD132A438A6203210120FEF719FD0321C6
:101D70000420FEF715FD03218020FEF711FD03214D
:101D80002046FEF70DFD03212846FEF709FD002140
:101D9000A010FEF705FD70BD70B500240D4621466C
:101DA000062823D006DC030008F0DEFD05202020F5
:101DB000200F2000FD2819D002DCF02816D10BE0FE
:101DC000FE2810D0FF2811D108E0062422466549DC
:101DD000284600F0E6FF09E0112005E040202870C9
:101DE0006970022402E0042028700124204670BD9E
:101DF00010B502785A4B5C4C002A03D0012A05D05A
:101E0000FF2010E04078C007022202E04078C007BF
:101E10004022002803D0D86A1043D86202E0986AB2
:101E20001043986200200870204610BD70B50478F9
:101E30000D46002C05D0012C04D000242C704B48FA
:101E400070BD012445490120454A0870916A01434B
:101E50009162906A042108439062906A4E03304375
:101E6000906203210120FEF79BFC03210420FEF772
:101E700097FC03213046FEF793FC00218020FEF7FB
:101E80008FFC0021B010FEF78BFC00213011FEF713
:101E900087FCD3E7F8B50C46054600F094FF010235
:101EA000E878090A0006324F014307D0314800267E
:101EB0002A4D814205D3012068700EE0FF2020707A
:101EC0000DE02D486E70081800F0F4FE022803D9CA
:101ED000032100F0EFFE00E0012068602670384624
:101EE00010E7F3B583B000220A70491C0125009564
:101EF00004910178441C019127E02778641CB806FE
:101F0000800E00D14020C01DC608380601D5002132
:101F100000E003210420FEF743FC21463846049AE2
:101F200000F073F80198002803D103210420FEF784
:101F300037FC380606D5049880190490009880195B
:101F4000009001E0A419AD196D1C0198401E01908C
:101F5000401CD2D1009928040843A9E5306A00202A
:101F600080100040784E01000100020001000100D5
:101F70000100040000127A00FF23F400024A0078F6
:101F8000087010467047000001000100F8B50025F8
:101F90000E4607462C4635E0002C02D13578082441
:101FA000761CE80709D003210420FEF7F9FBFE4860
:101FB000816A04221143816208E003210420FEF7B4
:101FC000EFFBF949CA6A04200243CA6203210120D7
:101FD000FEF7E6FBF448C26A01210A43C262F348F5
:101FE0004068401EFDD103210120FEF7D9FBEE48D9
:101FF000816A012211438162EC484068401EFDD194
:102000006D08641E7F1EC7D2F8BDF7B5840682B086
:102010000F46A40E00D14024000632D466E000260C
:10202000082526E003210120FEF7BAFBDE49C86A35
:1020300001273843C862DD484068401EFDD1DA48B8
:10204000406A0421084000D0384600900321012056
:10205000FEF7A6FBD448816A39438162D3484068C1
:10206000401EFDD100997008CE010643641E6D1E0E
:1020700001D0002CD6D10498EE4006700498401C84
:102080000490002CCBD105B0F0BD3D7808267F1C14
:1020900029E0E807C44804D0816A04221143816220
:1020A00003E0C26A04210A43C26203210120FEF751
:1020B00077FBBD48C16A01221143C162BB48406839
:1020C000401EFDD103210120FEF76AFBB648816A5C
:1020D000012211438162B5484068401EFDD16D0860
:1020E000641E761E02D0002CD3D1CCE7002CCCD1BC
:1020F000C9E7F3B5AC4E0446B06A83B00425284363
:10210000B06203210120FEF74BFBF06A0127384340
:10211000F06203213846FEF743FBB06A3843B062F1
:10212000E00703D0B06A2843B06202E0F06A2843B7
:10213000F06203210120FEF733FBF06A01273843E8
:10214000F06203213846FEF72BFBB06A3843B062D9
:1021500067080094F80703D0B06A2843B06202E031
:10216000F06A2843F06203210120FEF719FBF06AB0
:1021700001210843F06203210120FEF711FBB06A40
:1021800001210843B0620098C019A7080090F80721
:1021900003D0B06A2843B06202E0F06A2843F062DC
:1021A00003210120FEF7FCFAF06A01210843F062E6
:1021B00003210120FEF7F4FAB06A01210843B0625E
:1021C0000098C019E7080090F80703D0B06A2843C8
:1021D000B06202E0F06A2843F06203210120FEF7BA
:1021E000DFFAF06A01210843F06203210120FEF7C3
:1021F000D7FAB16A01200143B1620098C019C00743
:1022000003D0B06A2843B06202E0F06A2843F0626B
:1022100003210120FEF7C4FAF06A01273843F06277
:1022200003213846FEF7BCFAB06A3843B062F06A60
:102230002843F06203210120FEF7B2FAF06A384326
:10224000F06203210120FEF7ABFAB06A3843B062B6
:10225000B06A04210843B06203210120FEF7A0FA0E
:10226000F06A3843F06203210120FEF799FAB06A60
:102270003843B06200210420FEF792FA4B48057EF5
:10228000002D0FD003210120FEF78AFAF06A3843AF
:10229000F06203210120FEF783FAB06A3843B0628E
:1022A0006D1EEFD103210120FEF77AFAF06A384360
:1022B000F062706A0421084201D03D4600E000252A
:1022C00003210120FEF76CFAB06A3843B0620321A3
:1022D0000120FEF765FAF06A3843F062706A042163
:1022E000084000D03846019003210120FEF758FA3B
:1022F000B06A3843B062019803214000284300903F
:102300000120FEF74DFAF06A3843F062706A04214A
:10231000084201D03D4600E0002503210120FEF7E0
:102320003FFA2148816A0122114381620098AD0081
:102330000543012D1ED0022D7ED0042DFCD01B485C
:10234000047E213411D0184E012703210120FEF70D
:1023500027FAF06A3843F06203210120FEF720FAE1
:10236000B06A3843B062641EEFD103210420FEF747
:1023700017FAEBE0A00768D5002620270096032176
:102380000120FEF70DFA0848C16A01221143C1621B
:10239000406A0421084000D001200190032101205F
:1023A000FEF7FEF9004803E080100040306A00208C
:1023B000816A0122114381620099019808180090F6
:1023C00001987108C6070E437F1ED8D10321012052
:1023D000FEF7E6F9FE48C16A01273943C162406A47
:1023E0000421084000D03846019003210120FEF767
:1023F000D7F9F749886A38438862009A01984240C1
:10240000D00700D008250498002800D00660F148C5
:10241000077E002F14D00E4603210120FEF7C0F9DD
:10242000F06A01210843F06203210120FEF7B8F9A8
:10243000B06A0121084300E08EE0B0627F1EEBD15C
:1024400003210420FEF7ACF961E0E248067E002E8D
:1024500012D0DF4F03210120FEF7A2F9F86A012113
:102460000843F86203210120FEF79AF9B86A0121B6
:102470000843B862761EEDD103210420FEF790F9DF
:1024800004980668002020270090F007D04804D068
:10249000816A04221143816203E0C16A042211436C
:1024A000C16203210120FEF77BF9C948C06A0121FE
:1024B0000843C749C86203210120FEF771F9C448E7
:1024C000806A01210843C249886200988019760811
:1024D00000907F1ED9D1C007084604D0826A04212B
:1024E0000A43826203E0C26A04210A43C2620321F2
:1024F0000120FEF755F9B64EF06A01273843F06225
:1025000003213846FEF74CF9B06A3843B062200622
:1025100002D5B04901208860AE48047B002C15D05C
:10252000AB4EF16A04200143F1620127032101202F
:10253000FEF736F9F06A3843F06203210120FEF716
:102540002FF9B06A3843B062641EEFD1A048816AA7
:1025500004221143816256E09E48407E002815D037
:10256000A00713D59A4F212603210120FEF718F961
:10257000F86A01210843F86203210120FEF710F9EF
:10258000B86A01210843B862761EEDD19148067EF3
:10259000002E12D08E4F03210120FEF701F9F86AB8
:1025A00001210843F86203210120FEF7F9F8B86A17
:1025B00001210843B862761EEDD103210420FEF705
:1025C000EFF88448407E002818D0A00716D4804E2B
:1025D000F06A04210843F06221240127032101202D
:1025E000FEF7DEF8F06A3843F06203210120FEF7BF
:1025F000D7F8B06A3843B062641EEFD17449886A74
:1026000004221043886228463DE5F3B5704E044627
:10261000B06A83B0002704252843B062032101205B
:10262000FEF7BEF8F06A01210843F062694840688D
:10263000401EFDD103210120FEF7B2F8B06A01214E
:102640000843B06263484068401EFDD1E00703D0F4
:10265000B06A2843B06202E0F06A2843F0620321C6
:102660000120FEF79DF8F06A01210843F062594805
:102670004068401EFDD103210120FEF791F8B06AA9
:1026800001210843B06253484068401EFDD138190B
:1026900067080090F80703D0B06A2843B06202E0F0
:1026A000F06A2843F06203210120FEF779F8F06A0E
:1026B00001210843F06247484068401EFDD10321D4
:1026C0000120FEF76DF8B06A01210843B06241486D
:1026D0004068401EFDD10098C019A7080090F80777
:1026E00003D0B06A2843B06202E0F06A2843F06287
:1026F00003210120FEF754F8F06A01210843F0623B
:1027000034484068401EFDD103210120FEF748F8FF
:10271000B06A01210843B0622E484068401EFDD1D6
:102720000098C019E7080090F80703D0B06A284362
:10273000B06202E0F06A2843F06203210120FEF754
:102740002FF8F06A01210843F06222484068401ED9
:10275000FDD103210120FEF723F8B06A01210843CF
:10276000B0621C484068401EFDD10098C019C007E7
:1027700003D0B06A2843B06202E0F06A2843F062F6
:1027800003210120FEF70CF81148C16A01273943E3
:10279000C162104E7068401EFDD103210120FDF77B
:1027A000FFFF0B48816A394381620A494968491E23
:1027B000FDD1C16A064604200143F16203210120D4
:1027C000FDF7EEFFF06A3843F062024D686803E0FF
:1027D00080100040306A0020401EF8D10321012003
:1027E000FDF7DEFFB06A3843B0626868401EFDD175
:1027F000B06A04210843B06203210120FDF7D0FF35
:10280000F06A3843F0626868401EFDD10321012060
:10281000FDF7C6FFB06A3843B0626868401EFDD15C
:1028200000210420FDF7BCFFFE48057E002D17D0D7
:1028300003210120FDF7B4FFF06A3843F062F94844
:102840004068401EFDD103210120FDF7A9FFB06AB9
:102850003843B062F3484068401EFDD16D1EE7D199
:1028600003210120FDF79CFFF06A3843F062ED4838
:102870004068401EFDD1706A0421084201D03D46E7
:1028800000E0002503210120FDF78AFFB06A3843EC
:10289000B062E4484068401EFDD103210120FDF7ED
:1028A0007FFFF06A3843F062DE484068401EFDD189
:1028B000DD48406A0421084201D03E4600E000267F
:1028C00003210120FDF76CFFD748816A39438162FB
:1028D000D4484068401EFDD176002E4303210120DC
:1028E000FDF75EFFD049C86A3843C862CD484068EA
:1028F000401EFDD1CC48406A0421084201D03D462B
:1029000000E0002503210120FDF74AFFC649886A3F
:10291000012210438862C3484068401EFDD1AD00CB
:102920003543012D25D0022D7ED0042DFCD0BD4F86
:102930003C7E213418D0BC4E03210120FDF730FF2E
:10294000F16A01200143F1627868401EFDD1032144
:102950000120FDF725FFB06A01210843B0627868C5
:10296000401EFDD1641EE7D103210420FDF718FFAE
:1029700089E1A0077ED500262027009603210120AB
:10298000FDF70EFFA849CA6A01200243CA62A548A2
:102990004068401EFDD1A448406A0421084000D090
:1029A0000120019003210120FDF7FAFE9E48816A73
:1029B0000122114381629B484068401EFDD100996D
:1029C00001980818009001997008CE0706437F1EF1
:1029D000D4D103210120FDF7E3FE9349C86A012702
:1029E0003843C8628F484068401EFDD18E48406A17
:1029F0000421084000D03846019003210120FDF752
:102A0000CFFE89498A6A012002438A62854A50685A
:102A1000401EFDD1009B01984340D80700D00825F7
:102A20000498002802D000E0C3E00660177E002F63
:102A30001AD00E4603210120FDF7B2FEF16A0120F3
:102A40000143F16277484068401EFDD10321012017
:102A5000FDF7A6FEB06A01210843B06271484068E4
:102A6000401EFDD17F1EE5D103210420FDF798FE15
:102A700078E0FFE76B48067E002E1AD06A4F0321EC
:102A80000120FDF78DFEF86A01210843F8626548D0
:102A90004068401EFDD103210120FDF781FEB86A88
:102AA00001210843B8625F484068401EFDD1761E90
:102AB000E5D103210420FDF773FE04980668002089
:102AC00020270090F007584804D0826A04210A4366
:102AD000826203E0C16A04221143C1620321012022
:102AE000FDF75EFE5048C26A01210A43C2624D48AA
:102AF0004068401EFDD103210120FDF751FE4A48E8
:102B0000816A01221143816246484068401EFDD11E
:102B100000988019760800907F1ED3D14249C007E3
:102B200004D08A6A042002438A6203E0CA6A04204D
:102B30000243CA6203210120FDF732FE3A4EF06AD9
:102B400001273843F06237484068401EFDD1032119
:102B50000120FDF725FEB06A3843B0623148406875
:102B6000401EFDD1200602D52E48012181602D4F47
:102B70003C7B002C1CD02C4EF06A04210843F062F0
:102B800003210120FDF70CFEF06A01210843F062E9
:102B90007868401EFDD103210120FDF701FEB16AD6
:102BA00001200143B1627868401EFDD1641EE7D167
:102BB00069E01C4E707E00281CD0A0071AD5212782
:102BC00003210120FDF7ECFD1749CA6A01200243E9
:102BD000CA627068401EFDD103210120FDF7E0FDAF
:102BE000114A906A0121084390627068401EFDD12D
:102BF0007F1EE5D1377E002F1ED003210120FDF777
:102C0000CFFD0948C16A01221143C1627068401EAC
:102C1000FDD103210120FDF7C3FD034A906A012184
:102C2000084303E0306A0020801000409062706822
:102C3000401EFDD17F1EE0D103210420FDF7B0FD31
:102C4000707E00281FD0A0071DD4184FF86A0421F9
:102C50000843F862212403210120FDF7A1FDF86A51
:102C600001210843F8627068401EFDD10321012054
:102C7000FDF796FDB86A01210843B8627068401EEE
:102C8000FDD1641EE7D10948816A042211438162A3
:102C90002846B9E410B5064A5278002A02D0FFF758
:102CA00028FA10BDFFF7B1FC10BD000080100040F5
:102CB000306A002030B50B46014600202022012456
:102CC00009E00D46D5409D4205D31D469540491B60
:102CD0002546954040191546521E002DF1DC30BDA9
:102CE00070B500242546002801DA0124404200295D
:102CF00001DA01254942FFF7DDFFAC4200D0404236
:102D0000002C00D0494270BDF0B51FB486B0002041
:102D10000090019002900698069980B2049007985E
:102D2000090C02040014114307900027089D09981C
:102D300006913E463C4603900398A9B20204000C5B
:102D4000039004982D0C154348430021224600F0BF
:102D500018F8C719714110340E46402CECDB384688
:102D6000029A00F00EF8009A019B801800905941D9
:102D700002980191103002904028CCDB00980BB0F3
:102D8000F0BD10B5202A04DB0146203A9140002016
:102D900010BD914020239C1A0346E3401943904004
:102DA00010BD03460B439B0703D009E008C9121F5F
:102DB00008C0042AFAD203E00B780370401C491CB7
:102DC000521EF9D270470321001D401E03781202E3
:102DD0001A43491EF9D5104670470000064C0125DC
:102DE000064E05E0E36807CC2B430C3C98471034B3
:102DF000B442F7D3FDF750F9784F0100A84F010016
:102E000070B58C180578401C6B075B0F01D10378F7
:102E1000401C2A1106D10278401C03E006780E708F
:102E2000401C491C5B1EF9D12B0705D40023521E00
:102E30000DD40B70491CFAE70378401CCB1A921C86
:102E400003E01D780D70491C5B1C521EF9D5A14290
:102E5000D8D3002070BD000010B5124C2068C0050A
:102E60001FD50320206000200821401C2268C0B22A
:102E70000A4322600EE02268920510D4222807D966
:102E80000948026B002A0AD001210320904706E07E
:102E9000401CC0B22268D205EDD50028E5D1002043
:102EA000206010BD80C30040686A002070B51446E1
:102EB0000D460646FFF7D0FF2D4803681968062225
:102EC00091431960316899627168D962B168196378
:102ED000F1685963296899616968D961A9681962BB
:102EE000E968596259680222914359605D6801217D
:102EF0000D435D601D680D431D6000E000BF596813
:102F00008907FBD559689143596099692170016817
:102F10008969090A617001688969090CA1700168F1
:102F20008969090EE1700068C1692171C169090AE6
:102F30006171C169090CA171C169090EE171016A70
:102F40002172016A090A6172016A090CA172016A9F
:102F5000090EE172416A2173416A090A6173416A8B
:102F6000090CA173406A000EE073002070BD0000E0
:102F7000F443002070B50C460546FFF76DFF284866
:102F80000268106820218843E907890E0843106011
:102F90008034E06C1061206D5061E0699061206ABE
:102FA000D061606A1062A06A5062E06A9062206B31
:102FB000D062606B1063A06B5063E06B9060206C1C
:102FC000D060D168236C1748994204D0026B002A64
:102FD0001ED0202107E0916AE36A994206D0026B75
:102FE000002A15D021210320904711E0D169236ADE
:102FF000994204D0026B002A0AD02221F3E711691A
:10300000E36C994206D0026B002A01D02321EAE743
:10301000012070BD1068402108431060002070BD81
:10302000F4430020686A002070B50C460546FFF79F
:1030300013FF28480268106820218843E907890E99
:10304000084310608034606C1061A06C5061E069CE
:103050009061206AD061606A1062A06A5062E06A82
:103060009062206BD062606B1063A06B5063E06B6A
:103070009060206CD060D168236C1748994204D0CE
:10308000026B002A1ED0102107E0916AE36A994280
:1030900006D0026B002A15D011210320904711E0C1
:1030A000D169236A994204D0026B002A0AD0122106
:1030B000F3E71169636C994206D0026B002A01D0D4
:1030C0001321EAE7012070BD106840210843106019
:1030D000002070BDF4430020686A002010B504F0A1
:1030E000D5F9024902F013FF002010BD06040000CC
:1030F00008B5002808D0002906D0002A04D010887E
:10310000002801D0002008BD1220694608706A46D8
:103110000121034802F0F7FE6946087808BD000067
:10312000350C000008B503F0B9FC694608706A4622
:103130000121034802F0E7FE6946087808BD000057
:103140002720000008B503F0F3FC694608706A46C2
:103150000121034802F0D7FE6946087808BD000047
:103160001120000008B503F038FE694608706A4671
:103170000121034802F0C7FE6946087808BD000037
:103180002920000008B503F02DFE694608706A4644
:103190000121034802F0B7FE6946087808BD000027
:1031A00010200000FEB508AF70CF6F4670C703F067
:1031B0003FFE0446024902F0AAFE2046FEBD000082
:1031C0001320000008B504F051F9694608706A46FA
:1031D0000121024802F097FE002008BD0E200000E9
:1031E00038B5044604F023FC694608704C70200A88
:1031F00088706A460321024802F085FE002038BD2F
:103200001B20000038B5044604F029FC694608700C
:103210004C70200A88706A460321024802F073FE4F
:10322000002038BD1A2000000EB500A8013005F0BE
:103230005EF8694608706A460921024802F063FE9A
:1032400000200EBD1820000008B500A8013004F0D1
:103250006FFB694608706A460421034802F053FE7A
:103260006946087808BD00000220000038B5044611
:1032700005F087F8694608704C70200A88706A4625
:103280000321024802F03FFE002038BD212000004B
:103290007FB5044608A861C80090029601952046B3
:1032A00005F088F8694608734C73200A887303AAEE
:1032B0000321034802F027FE002004B070BD000087
:1032C0002020000008B505F017FC694608706A4622
:1032D0000121034802F017FE6946087808BD000086
:1032E0002D20000008B505F02DFC694608706A46DF
:1032F0000121034802F007FE6946087808BD000076
:103300000A200000F0B585B00AACF0CC03976F46F8
:1033100070C705F08FFC6946087404AA01210348B0
:1033200002F0F1FD6946087C05B0F0BD0620000002
:1033300008B505F009FD694608706A460121034891
:1033400002F0E1FD6946087808BD00000520000094
:1033500008B505F037FD694608706A460121034843
:1033600002F0D1FD6946087808BD00002E2000005B
:1033700008B505F03DFD694608706A46012103481D
:1033800002F0C1FD6946087808BD00000C2000006D
:1033900010B505F07DFD024902F0B9FD002010BD19
:1033A0001920000010B504F09AFB10BD10B505F00F
:1033B000FBFA10BD0A7802708A7842704A88120AB5
:1033C00082700979C170042070470A7802700988F8
:1033D000090A41700220704708888004000C704779
:1033E0008A78027088780128088804D0122148431E
:1033F000401C80B270478000FAE70A7802700A88A1
:10340000120A42704888801C80B270470A780270A5
:103410000A88120A42708A7882704A88120AC27038
:103420008888001D80B27047088870478A780270CB
:10343000088849884843401C80B270478A780270E7
:10344000088849884843401C80B270470888704704
:10345000088870477FB515460446022901D0102917
:1034600003D1022B04D0102B02D0002004B070BD79
:10347000994202D10A46294607E01029694607D039
:1034800000F00EF810226946284611F0E5F8EDE745
:10349000104600F005F8102269462046F5E70000C6
:1034A00070B50C4605000CD0002C0AD0102206493D
:1034B000204611F0DFF828782073687860730120C7
:1034C00070BD002070BD0000924E010008B50022C2
:1034D0000B4600920122024907F0A6FA08BD00003F
:1034E000B533000008B50A88172A07D300220B4617
:1034F00000920322024907F097FA08BD022008BD96
:10350000CB33000008B500210B461922009107F0CB
:103510008BFA08BD38B5054608880C4600280DD042
:10352000606800280AD0012111F052F8009023466B
:1035300007220349284607F077FA38BD022038BD34
:10354000D933000038B5054688780C46012801D0EB
:10355000022810D1208800280DD0606800280AD0E9
:10356000022111F035F80090234605220349284630
:1035700007F05AFA38BD022038BD0000E1330000E0
:10358000064910B5884202D103F002F910BD0CF0D3
:10359000D7F90028FAD1172010BD0000FEFF000067
:1035A00038B505464A6800200C46002A03D003219E
:1035B000104611F00DF8009023461D2202492846BE
:1035C00007F0EEF938BD0000FB330000024800218F
:1035D0000160416070470000184400200098022BF1
:1035E00001D00420704751781278090211430180FC
:1035F000002070470098012B01D0042070471178FB
:1036000001700020704770B5049C1E461546062BBD
:103610001BD368782978000208432080E878A978CD
:10362000000208436080022020710246291D601DAF
:1036300011F020F8B01F2081062E03D0AD1DE560EB
:10364000002070BD0020E060FAE7042070BD009803
:10365000042B01D0042070475178137809021943D4
:103660000180D1789278090211434180002070478F
:10367000F8B584890D46002C2BD08668377839063A
:1036800001D4002010E00D2C23D30C3CA4B231193E
:103690000091408823463246012106F0CDFE0028E5
:1036A00001D0022000E0012079062870C90FBA0677
:1036B0006970920EAA70641E2204120CAA8002D0B5
:1036C000761CAE6001E00022AA60022803D1002926
:1036D00001D00120F8BD0020F8BD10B50298042BE0
:1036E00014D351781478090221430180D178947859
:1036F000090221434180191F8180042B02D0121D31
:10370000826001E000218160002010BD042010BD16
:103710000098042B01D004207047517813780902D7
:1037200019430180D1789278090211434180002029
:10373000704710B502981146062B03D0142B03D006
:10374000042010BD022200E0102202714A780B789A
:1037500012021A430280CA788B7812021A434280FE
:103760000279401D091D10F085FF002010BD009852
:10377000D90706D1022B04D05908818002600020AD
:103780007047042070470098022B01D00420704736
:10379000517812780902114301800020704710B55A
:1037A000029C022B11D320726172507811780002B2
:1037B00008432080981E6080022B02D0921C626019
:1037C00001E000206060002010BD042010BD00005A
:1037D00038B5054688680C46002802D0052110F04F
:1037E000F7FE0090234617220249284607F01CF9ED
:1037F00038BD00000D34000038B5054648680C4659
:10380000002802D0012110F0E3FE009023460D2293
:103810000249284607F008F938BD000029340000A5
:1038200038B5054608880C4600280DD06068002889
:103830000AD0022110F0CCFE009023461122034949
:10384000284607F0F1F838BD022038BD2D340000BD
:1038500038B5054608880C4600280DD06068002859
:103860000AD0022110F0B4FE009023460922034939
:10387000284607F0D9F838BD022038BD3D34000095
:1038800038B5054648680C4600280AD0012110F0DA
:103890009FFE009023460F220349284607F0C4F8F4
:1038A00038BD022038BD00004D34000038B5054653
:1038B0004A6800200C46002A03D00121104610F06F
:1038C00087FE009023460B220249284607F0ACF8F9
:1038D00038BD000051340000014908607047000005
:1038E0001844002070B5054608480C46854205D0AE
:1038F000172C03D302F04CFFA04201D2012070BD6F
:10390000214628460CF0C0F870BD0000FEFF000004
:1039100008B500210B461322009107F085F808BD79
:1039200004480349006801600349C1627047000010
:10393000A5220801F8430020784E010010B5074C7D
:103940005D202168086505F0D5FC2068002101652F
:1039500003484279521C4271C17110BD08430020D6
:10396000BC6A002070B500242546641C2406240E81
:1039700042D00021C943002007F0A9F800221146D7
:103980000346CB40DB07DB0F491CC9B20646CE40DD
:10399000F607F60F9E4203D0521CD2B2192A29D242
:1039A0002029EDD300210246CA409206920E21D072
:1039B0003F2A1FD0491CC9B21A29F4D9810E1F29E8
:1039C00018D03E2916D0012914D0202912D0104A2F
:1039D000014690420ED04A1E11420BD00204C1B2E1
:1039E000120E8A4210D10202120E8A420CD1020E2D
:1039F0008A4209D1294608E0F021102007F075F825
:103A000004490002084370BD01210029ADD070BDFA
:103A1000D6BE898EC700CD6A70B52C49002048609B
:103A20002B4800892B4CC0B28109022904D00129FE
:103A300008D0810916D026E0D020A0800820E080A0
:103A4000E8201FE0C506ED0E2D2029468001FFF776
:103A500031F9A08029467820FFF72CF9E08029462B
:103A60001D480DE0C506ED0E2946C020FFF722F9DE
:103A7000A08029460820FFF71DF9E0802946E820AC
:103A8000FFF718F9208116491448086016491548AF
:103A90000860174915480860174916480860184912
:103AA0001648184C0860184920680122D2020861A3
:103AB000801848610120487100F062F9607D00289B
:103AC00002D112492020086070BD00000C43002084
:103AD000001000409C6A0020980D000000C00040CB
:103AE000FC43002000C30040F443002000C200401B
:103AF0000843002000D000400044002000C10040E6
:103B0000F8430020686A0020BC6A002000E100E061
:103B1000F8B55648006881680127C9050025544C4E
:103B2000544E00292EDA81683A0291438160207850
:103B300040060CD5504851490068884206D150498A
:103B4000886BE0608A6B9042FAD100E08047207871
:103B5000384320706570E079062803D043495D2022
:103B600009680865306800280AD001690A68406958
:103B700002430A6031680868026889680A43026083
:103B80006571A560394B18688168890521D5816800
:103B90000122520291438160A0783843A070E57001
:103BA00038480068C16A89088900891CC1620168B7
:103BB000D20411430160306800280AD041680A68C5
:103BC000806802430A603168C868026849690A432C
:103BD000026018688168890717D5816802229143BD
:103BE0008160E770A5705D210165306800280AD00A
:103BF00001690A68406902430A603168086802681E
:103C000089680A4302606571A56018688168C90700
:103C100015D0816849084900816025706770306857
:103C200000280AD041680A68806802430A60316847
:103C3000C868026849690A4302606571A56018682E
:103C40008168C90603D5816810229143816081682B
:103C5000490703D58168042291438160816809077F
:103C600003D58168082291438160F8BD0843002094
:103C7000BC6A00201043002004430020ED9F000098
:103C800000100040F843002070B50446006800288A
:103C900028D00121000C4903884223D1A0880028A4
:103CA00020D020460622FF21163010F0C6FC012845
:103CB0001AD0A2880021206810F0D2FD3422002101
:103CC0002D4810F0CDFD342221462B4810F0D2FCB7
:103CD0002948062216300021054610F0AEFC0128C6
:103CE00004D008E0022070BD032070BD23490622E5
:103CF000284610F0BFFC20488189002902D101210B
:103D000049028181827B0121002A00D18173C27B1B
:103D1000002A01D11B22C273027C002A01D1052294
:103D20000274427C002A00D14174817C002901D1B7
:103D300014218174817F002901D128218177C17CE0
:103D4000002908D0827FE17C92088918C174617FC4
:103D5000002904D005E0817F89082D31F6E7022192
:103D60004177806A002803D0804703493431488175
:103D700006F010FC002070BD686A002008060400F0
:103D800010B500F065F802F06BFE05F04DFAFFF794
:103D9000C7FD0B4C5D202168086505F05DFB06F052
:103DA0001BF905F021FB05F0A5FA06480121417138
:103DB000226800211165C171FFF74EF810BD0000A7
:103DC00008430020BC6A002070B50E4B0020998982
:103DD000002901D10C4999810E210124A4039A895B
:103DE00015462540CD405204120C0543E8B2560456
:103DF000D50BF60F75401543491EC9B29D810629A2
:103E0000EDD870BDA06C0020FF7F000070B50E4B98
:103E100000205989002901D10C49598108214C0100
:103E20005A8915462540CD4005435200E8B2550A4F
:103E300056097540ED07ED0F1543491E09065D81D2
:103E4000090EEDD170BD0000A06C0020FF01000044
:103E50000A48094900680A6902610A6942614969B8
:103E60008161C1618268012149030A438260C2689D
:103E70000A43C26070470000BC6A0020FC43002077
:103E800030B5104A0346517AFD20842454720E4CFA
:103E9000A568002D07D0A57B002D04D0A489E51FBF
:103EA000FF3DFA3D02D05172FF2030BD7D24E40277
:103EB000A34205D35360A6201072907A4023584045
:103EC000517230BD00180040686A0020F8B5002427
:103ED0000F4E274613E0F06B250128180622FF211C
:103EE00010F0BEFCF06B06222818FF21801D10F098
:103EF000B7FCF06B28188781641C8773E4B2307EAE
:103F00008442E8D3002010F08BFD307E7076F8BD3F
:103F10004C43002070B50C460146012080020A1A6D
:103F200000252B48130006F01FFD20111316181A48
:103F30001D1F21232527292B32343648393B3D3F8D
:103F4000434848484848484848464148007800E0C7
:103F50004078207039E08078FBE7C078F9E71022DC
:103F60001C4910E00079F4E74079F2E7006A13E0B9
:103F70008079EEE7C079ECE7007AEAE7407AE8E793
:103F8000144910221031204610F074FB1DE0807A95
:103F9000DFE7C07ADDE7406A206016E0007BD8E703
:103FA000407BD6E7807BD4E7407CD2E7807CD0E7BB
:103FB00007F0B0FACDE7807DCBE7192904D2084697
:103FC00000F04CFF208000E00225284670BD000074
:103FD0004C430020686B002010B5044600F0D4F874
:103FE0000248C47507F0D0FB10BD00004C43002010
:103FF000FFB58FB0064600200C900D901F460CAA0E
:10400000304600F08DFA454D0446287E84425AD24F
:10401000204607F099FB0646042F04D0A879022811
:1040200003D0002002E02878F9E7012000903B4609
:1040300032462146119807F045FA1422002101A8C2
:1040400010F00EFC20460621484300902430C0B2F8
:1040500001AA102110F042FD002813D11022FF21E7
:1040600001A810F0EAFA00280CD1009805AA253022
:10407000C0B2042110F032FDF107C90F01AA119856
:1040800001F04EF87034E0B206AA182110F026FDB7
:10409000002811D106A807F069FB0024A10006A89A
:1040A00008180188002903D08278119801F0E2FAFB
:1040B000641CE4B2062CF1D3B00706D5E97D119853
:1040C00001F0C6FA01E0082F02D0042F13D021E03E
:1040D000A87902281ED100223146119807F02CF948
:1040E000A86A002816D04368002B13D0002211467E
:1040F000119898470EE0287802280BD12979119859
:10410000002900D001216A78002A00D0042211433E
:1041100000F0CCFF002013B0F0BD00004C430020A5
:10412000F8B500F0C3FE00282BD1164D0026E87C20
:10413000012801D000241CE007F038FAEE740020BA
:104140002A7EE96B04E003015B18401C9E73C0B239
:104150009042F8D310E0E86B27013818807B0128E3
:1041600005D1204607F034FAE86B38188673641CD2
:10417000E4B2287E8442EED3502010F073FC07F0A6
:1041800003FBF8BD4C430020F8B5354EFF20F07519
:1041900000273776334CF763A07B30214843422118
:1041A00010F084FAF063002825D02046807B41007F
:1041B00040183076002413E0F06B25012818062201
:1041C000FF2110F04DFBF06B06222818FF21801D07
:1041D00010F046FBF06B28188781641C8773E4B2EB
:1041E000307E8442E8D31F488068002801D0B7762B
:1041F00001E08020B076307E7076012477633470E1
:104200007770B770F77010220021174810F028FB64
:104210003771772575713762B471F771124837724B
:10422000777210220021103010F01AFBB772F5726D
:1042300077623773052070731020B073F773022014
:104240003074B762F76237637774F7743475044873
:104250007475B47505494830016005494160F8BD81
:104260004C430020686A0020686B002099BA000067
:1042700061BA000070B5264D0C4608040FD5E87DE4
:1042800010F032FB050006D007F024FB002802D016
:10429000284610F001FB0120C003604070BDA0075C
:1042A0000BD50021084606F0A9FF02214C4000284A
:1042B00025D1E87D10F0A2FB1FE0E00721D0686B5C
:1042C000808807F039FB01214C40002817D0A86AEC
:1042D00000280DD04368002B0AD0686B002280882C
:1042E0009847A96A686B00224B6880880321984729
:1042F000287D10F0D3FB06F073FF204670BD01212E
:10430000D7E7600702D50420484070BD002070BD8B
:104310004C4300207FB5044680787F4D801F03000A
:1043200006F022FB0AF4F7F7A41306F0F778B9F7C2
:10433000A96A2046002907D00C68002CFBD0437BDB
:10434000027B4189C01CA047E3E06078002600287A
:1043500047D1A079C00744D0686B002841D1102212
:104360000021684610F07CFA6169002903D006221A
:104370006846103107E0A0880BF00CFA0028E3D063
:10438000811D0622684610F075F969468889A17971
:104390004907C90F08436946888107F0BBF8297EA1
:1043A00088420BD1A87D002801D0FFF78FFD5B4824
:1043B000026B002A02D001210820904707F0AAF8DA
:1043C000297E8842A87E02D10121084301E04008ED
:1043D0004000A8762146684606F010FF002812D05B
:1043E0001526A86A002855D04368002B52D0627861
:1043F000A08801219847002E4CD0A96AA0884B685C
:104400003246032173E00221E87D10F0F7FA002024
:1044100004B070BD6078062817D1A0880BF0BAF9F7
:10442000060012D0287C012804D0022808D00328D6
:104430000BD114E07179A088002206F07DFF04E022
:10444000A1883078052200F0A3FEA86A002860D079
:104450004368002B5DD06278A088022147E00022EB
:1044600041201146000100F0F7F8E9E7E07800226A
:10447000211D00F055F8297E88424AD20621484382
:1044800025302246C0B20C32042110F06BFB287D8F
:1044900010F004FB3DE0287B002802D0A088697B57
:1044A00028E028780028A08823D00BF073F90600B4
:1044B0002FD0A07AC0070BD07079002808D0A1892E
:1044C000890505D46A46B11D00F02AF8002814D0E9
:1044D00022467179A088083206F02EFFA86A0028CB
:1044E00017D04368002B14D00022A08811469847AB
:1044F0000FE0052100F03CFE0BE0A0880321F9E766
:1045000000E003E0A08800F031FA02E0A088FFF7A5
:1045100007FE01207CE700004C430020686A002071
:10452000F0B52E4E85B0347E15460F46002806D0D5
:10453000012804D0022811D003284BD121E00846DD
:1045400007F0BAF8317E0446884243D2002D41D0AC
:1045500006223946284610F08DF83BE000240BE097
:10456000F16B2001401806223946801D10F074F8C6
:10457000002826D1641CE4B2307E8442F0D3C4B259
:104580001FE0002419E02046062148432330C0B232
:104590006A46102110F0A2FA00280CD11022FF2147
:1045A000684610F04AF8002805D13946684600F000
:1045B00079FD002805D0641CE4B2307E8442E2D349
:1045C000DDE7307E844205D2002D03D02946204607
:1045D00007F09AF8204605B0F0BD00004C430020DB
:1045E000F8B50E4619491525194F884214D10024F3
:1045F00009E032460221204606F0A6FF002800D03E
:104600000025641CE4B2387E8442F2D3002E1BD015
:1046100010480BF0DDF917E00BF0BCF8040012D0E5
:1046200060790022A11DFFF77BFF397E884204D20A
:104630003246022106F088FF0025002E04D02046D5
:1046400007F0E4F800E014252846F8BDFFFF00005D
:104650004C4300200DB80000F0B507460120800251
:104660001546381A89B00024BC4ABD4E030006F036
:104670007BF92011181F262D333A3F464D545B62BB
:104680006970757CEFEEEDECEBEA89E9E8AAAAF334
:10469000F6E5E4EB012971D1287802286ED8307054
:1046A00059E10129F7D128780128F7D8707052E133
:1046B0000129F0D128780428F0D8B0704BE1012905
:1046C000E9D128780128E9D8F07044E11029E2D135
:1046D00010222946A348ADE00129DCD12878012821
:1046E000DCD8307137E10129D5D12878707132E1F9
:1046F0000429D0D128689042D0D830622BE101291A
:10470000C9D128780228C9D8B07124E10129C2D1C1
:1047100028780128C2D8F0711DE10129BBD1287881
:104720000428BBD8307216E10129B4D128780128B9
:10473000B4D870720FE11029ADD18A4810222946F1
:10474000103077E00129A6D128780128A6D8B072C8
:1047500001E101299FD12878F072FCE004290DD1F4
:10476000286890420AD87062F5E0002906D100F06E
:104770009DFB002803D00120F074ECE074E006F00B
:1047800015FF1CE007296FD10622691C68460FF04F
:1047900071FF287800226946FFF7C2FE0546307E89
:1047A000854239D200F082FB002805D0F26B01204F
:1047B000290189188873CEE0284606F009FF5020A9
:1047C00010F050F996E007294ED10622691C07A87F
:1047D0000FF050FF2878002207A9FFF7A1FE317ED5
:1047E00088421BD20621484305462135E8B26A4675
:1047F0001C2110F073F900280ED15B48874201D1CB
:10480000012000E0FF206946C876E8B26A461C2114
:1048100010F0A8F9307D4BE002249CE0B07E002827
:10482000FAD05148874214D10120F0764C48072233
:10483000294640300FF01EFF8DE05EE07AE00EE08A
:104840000AE075E06FE067E07BE04AE041E039E0D4
:1048500031E00020F0767EE0002070757BE00027DC
:10486000012070753D461BE066E02846062148435E
:1048700006462136F0B26A461C2110F02FF90028B6
:104880000CD16846C07EFF2808D0FF206946C87654
:104890000127F0B26A461C2110F064F96D1CEDB2DC
:1048A0002F48007E8542E0D3002F54D02C48007D55
:1048B00010F0F4F84FE001293ED1287801283BD8C8
:1048C000307348E0012937D12878092834D870732B
:1048D00041E0012930D12878C11F09292CD8B073B3
:1048E00039E0012928D1717C28787074002932D1EF
:1048F000012830D106F048FF2DE001291CD1B17C00
:104900002878B074002903D1012801D106F03CFFBA
:10491000B07C01F09AFB1EE001290DD12878032814
:104920000AD8307417E0012906D12878307512E0D2
:104930000120BDE7012901D018240CE02878B075CA
:1049400009E0192F00D367E70229FCD129883846EE
:1049500000F0CCFB0446204609B0F0BD3F420F00FA
:104960004C430020686B00201A040000FEB5064688
:1049700000200190029030460AF00CFF040017D08E
:10498000144FB879022813D0607901AAA11DFFF74E
:10499000C7FD0546387E85420BD2284606F0D4FE78
:1049A00002460120009008232946304606F08AFD81
:1049B000FEBDB879002807D00128F9D1617900221D
:1049C000304606F0B9FCFEBD0521304600F0D0FBB4
:1049D000FEBD00004C430020F7B516491525164EC4
:1049E000174688420FD1002409E03A462046019933
:1049F00006F016FF002800D00025641CE4B2307ECB
:104A00008442F2D313E00AF0C5FE00280ED04379A9
:104A1000811D00221846FFF783FD317E884206D2B1
:104A20003A46019906F0FCFE002500E014252846D0
:104A3000FEBD0000FFFF00004C43002010B51448ED
:104A4000007F80080DD0134805F0ECFD124CFF28C4
:104A5000207006D000F014F910480078002802D029
:104A600013E0182010BD0E4A1021022010F036F875
:104A70000C4A1021032010F031F804210A4A08469C
:104A800010F02CF8207800F007FB002010BD00008B
:104A9000686A00201D4B00009C430020AA430020B0
:104AA000A76B0020B76B0020B843002010B503F0BF
:104AB0009DF813480078002801D0FF281DD1114827
:104AC00005F0B0FD01F076FE0F4805F0ABFD00F0FB
:104AD000D1F90E4805F0A6FD00F01CFF0C4805F0CA
:104AE000A1FD05F049FB0B4805F09CFDFFF774FAAA
:104AF000094805F097FD00F08FFBFFF79FFF10BD01
:104B0000A4430020F9680000B54F0000C959000017
:104B100069A20000754200009953000070B50C4670
:104B200008040DD50F4800780FF0DEFE050004D014
:104B300007F0E6F828460FF0AFFE0120C0030CE0B6
:104B400060040CD50421084A084610F00BF8074809
:104B500000780FF0A3FF01208003604070BD0020AB
:104B600070BD00009C430020B8430020604300203B
:104B700070B50C460146032000020A1A002525489C
:104B8000130005F0F1FE130B0D10171A1E21252935
:104B90002B2D3133393B3D3D35373D00407811E019
:104BA00010221D4902E01C491022103120460FF04E
:104BB00061FD2DE0406920602AE0164906221E3181
:104BC000F4E7C078207023E0124982782431EDE7C1
:104BD000114902791F39E9E7407AF3E7807AF1E772
:104BE0000C4906221831E1E7C07AEBE7007BE9E7E0
:104BF000C0890AE0008A08E0007AE3E74079E1E74B
:104C0000192904D2084600F029F9208000E0022585
:104C1000284670BDA4430020A76B0020F8B5164CB1
:104C2000FF202070002565700320A0700126E6702B
:104C3000062765611920E781C001208220461F22D6
:104C4000294624300FF00CFE20460221243001704A
:104C50004670877025711F22002108480FF000FE62
:104C600020460622002118300FF0FAFD6571A5716B
:104C7000FF20E071F8BD0000A4430020886B0020F5
:104C80000449C8710878FF2803D0012088710C20DE
:104C900048707047A4430020F8B50E46070048D07E
:104CA00038880AF077FD050041D0234AA96BD078F7
:104CB000022806D0012804D0287B082803D1002E22
:104CC00001D0122436E0002901D0112432E01B4922
:104CD0002C200FF0EBFC0446A863200025D02C22EA
:104CE00000210FF0BDFD388860801C22391D201D79
:104CF0000FF0C0FC022020700F483A880178287B12
:104D0000082810D00020231D05F04BFB0446002E80
:104D100003D0314628460EF0AFFA002C0AD02846C0
:104D200007F072F806E00120EDE7132402E01424F6
:104D300000E002242046F8BD0E4400201447000085
:104D4000FFB51F4881B0C0781E4617460D460228A1
:104D500018D0012816D0002F30D001980AF01AFD83
:104D6000040029D0E06A002801D00FF0F3FC1C21D8
:104D700038460FF08BFCE062011E1BD0207B082818
:104D800003D00DE0122005B0F0BD002E08D0887EC3
:104D900000900B4612330A8A01980EF0B5FD00E030
:104DA00000202179002D01D0062200E004221143C9
:104DB0002171E8E71320E6E71420E4E70220E2E7A8
:104DC0000E440020094900200870486088600948A6
:104DD0000749016008494160084981600348084962
:104DE0000C300160074941607047000020440020FA
:104DF0003DBC0000C86B002079C60000D5C500008E
:104E00001DBB000055BB000070B5104C2168002987
:104E100019D00978814214D10D4D022128780FF064
:104E20009DFF0C4800264680287804210FF096FF4D
:104E300009484671216803204870002001F009F9F3
:104E400070BD032070BD122070BD000028430020FB
:104E50000E44002034440020146B0020192801D394
:104E60000248704702494000085A7047FFFF00009F
:104E7000346B002010B5044600F01CF800F07AF8FE
:104E8000FFF7A0FFFFF7CAFE0649FF23CB70002201
:104E90008A700A710448052143700470204601F0AD
:104EA00073FD10BD146B00200E44002010B50AF0F5
:104EB00073FD10BD1A48002101704170416081608E
:104EC000C1600161416181611648B4220180428064
:104ED000012292038280A022C2800281102242819C
:104EE00082815023C381038242828282C2827D23D7
:104EF00002831B0143838183C18301840F23438485
:104F0000094B83840723C3840285012242857E22C4
:104F1000D2438285C1850186491E418670470000C3
:104F200014430020346B002080BB00007FB5044692
:104F30000D4608460AF02EFC002817D00C48844283
:104F400012D21022002168460FF08AFC69460C70CC
:104F5000200A4870200C8870200EC87029466846C8
:104F600005F040F904B070BD0220FBE71220F9E71C
:104F700040420F000948FF2101700021418041603B
:104F80008160C160074806490160074941600749DF
:104F9000816002490648103108607047344400209F
:104FA00075C10000D46B002005C20000EDCD0000EB
:104FB000E5C00000FEB5354F354D0C4608041FD541
:104FC00038780FF091FC061E17D03078A22806D052
:104FD0007D78304607F096FC00280AD102E02C4884
:104FE000C578F6E7FF2D04D0314628460FF0B4FC13
:104FF000E6E730460FF050FCE2E70120C00341E055
:10500000E0070126234900280AD04868002804D078
:105010004168002901D00020884720467040FEBD2D
:10502000A00709D5C868002804D04168002901D02C
:1050300001208847022025E0600725D568790028EF
:105040001FD0401E0006000E68711AD14869002862
:1050500008D02E71C868002804D04168002901D00A
:10506000012088476946E86805F013F8684607F0AC
:1050700033FA1120FFF7F2FE6871387804210FF03F
:105080006DFE04206040FEBD0020FEBD0E440020E9
:10509000146B002014430020014948707047000041
:1050A0000E44002010B505F01DF910BD7FB50C466B
:1050B00005460AF06FFB002814D0826B007B0428A1
:1050C00002D0122004B070BD002A00D0947D684642
:1050D00021460EF055FC044B6A46022128460EF08C
:1050E000D1FBEFE71420EDE7733E010070B50C46ED
:1050F0000546192802D20848844201D1022070BD19
:10510000112D04D13C20604380B200F0B5FF03496B
:1051100068000C52002070BDFFFF0000346B0020BF
:1051200070B50E4611491546CB78022B17D0012BCE
:1051300015D0002D17D00AF02DFB040011D0002E41
:1051400003D02079022108432071204610222946ED
:1051500018300FF08FFA2869A062002070BD12206D
:1051600070BD142070BD022070BD00000E440020F0
:1051700038B50C4605460AF00DFB002806D06846F7
:105180000470694628460EF06BFB38BD142038BD0C
:10519000F7B505461E4812261E4F0C46814208D11F
:1051A000B868002832D00268002A2FD028469047DD
:1051B000FEBD1748401C844219D1B868002806D0AB
:1051C0000268002A03D028469047002806D02846C7
:1051D000029905F0DBFF060005D017E07D7002980C
:1051E00038700020FEBD7D70029838700EE00846D1
:1051F0000AF0D0FA002809D00078A84201D0032094
:10520000FEBD2046029900F08AFEFEBD3046FEBD7E
:10521000FEFF000014430020F8B5044600F094FDA2
:1052200000F046F8114F134EFC701149304600F063
:1052300027F81149C0200FF039FA00221346B8614F
:1052400094010653002124180C254D436519AB80A9
:10525000491CEB600529F7DB521C032AF0DBF878C8
:10526000787006480AF0CCFBF8BD0000F844002036
:10527000226C0020FFFF000001470000C5D40000A1
:1052800070B50A4C0025A04208D1002082008C5243
:105290005218401C95700328F8DB70BD08F0E3F845
:1052A0000028FAD00480857070BD0000FFFF000068
:1052B000F0B51E4920200870FF2048708870C87023
:1052C0000126CE8000200881C86008610B460224B8
:1052D0001C3348611C70164A5A600A460871243211
:1052E0001470144D556016725081D3601474124FAF
:1052F00015466F612E766883E96120215454134668
:105300000E4D59185D6208725885D8623021545488
:105310000B4C0323511854630B725087094ACA601F
:105320000249094A643105C10860F0BDF844002013
:10533000374F0100394F01003F4F0100574F010027
:10534000454F0100226C00209DDF0000F8B50E469D
:105350000746069900240798002902D00B2420460E
:10536000F8BD022B01D00D24F9E7517812780D0217
:1053700015432946814301D08024F0E73846F1687F
:1053800000F042F9A842EAD02A463846F16800F017
:10539000B9F90446E3E7000070B50D4608041AD5D4
:1053A0000E48C0780FF0A0FA04000FD02078B02883
:1053B00009D1204608F01EFA002804D020462179A1
:1053C000083000F0B9FC20460FF066FA01212846AB
:1053D000C903484070BD002070BD0000F8440020A3
:1053E000FFB585B000200F9F0090087A0E9D1C46E7
:1053F0000E46C0060BD5079808F02EF803007DD0A6
:105400000A223146059898470090002816D1307836
:10541000022815D0079808F045F80028EFD000685A
:1054200084460028EBD011991098224600970291EB
:1054300001902B46314664460598A04709B0F0BD5F
:105440007068292241780078090201431202881A03
:1054500091427CD00BDC6948081A13D0012811D086
:10546000022817D00328D5D1002F53D09BE0012864
:105470007ED002286DD0032877D00428CAD1002F0F
:1054800068D090E0002F6FD1F06801782980027811
:10549000416884E0002F67D1F068417800780F02FE
:1054A000074304202880F06804A900782070F06881
:1054B00040786070384600F051F9060022D0684606
:1054C000028A03AB4E493046F76800F0A5F9002880
:1054D0000AD1337802214B487268FDF7BBFF0028E0
:1054E00002D1474869468881387802280CD10222C7
:1054F000201D79680FF0BEF8288800E07CE0801C51
:10550000288001E06846878168468089A070000A8B
:10551000E0706FE001202880F068002100782070A2
:105520007089401C80B200F019F9002813D0298836
:1055300002788918891C2980817A61704189090A59
:10554000A17002784168E01C0FF094F852E00CE082
:105550000EE026E03BE028880422001D2880002180
:10556000601C0FF07DF945E01DE0002F27D01AE008
:10557000F0680FF006FC80B2B84201D207205DE768
:10558000874201D1002006E01099C919814201D358
:10559000C01B00E01098288082B2F068C119204634
:1055A000D2E7002F01D00B2048E7F168059800F002
:1055B0002BF8022129802070000A60701AE0022076
:1055C0002880F06800782070F0684078F5E70721BF
:1055D000F068298001782170417861708178A1702C
:1055E0004188090AE1700179217181796171C0886E
:1055F000000AA071009821E70E201FE70028000094
:10560000FFFF00003B4F010010B507F02CFF002802
:1056100000D0807810BD0000F8B50C4C0746A0788B
:1056200015460E46FF280FD00A200FF021F9010081
:105630000AD0B12008704F80002048700871CE80D9
:105640000D81A0780FF088F9F8BD0000F844002023
:1056500070B50C4605460649FFF7D6FF800704D50E
:105660002146284600F02AFA70BD012070BD0000D6
:10567000226C00200EB56B461A81FE230022019396
:105680000092022302AA00F001F80EBDFFB583B01C
:10569000174602A90D9E049800F060F804002AD075
:1056A0006846008907F0FEFE002822D04568002DDC
:1056B0001FD00C98019600903A462146069B03980D
:1056C000A847050018D1FE2E16D02078022813D145
:1056D00060684178027808020949104388420BD17A
:1056E0007878397802020A4304990398FFF794FF07
:1056F00002E00E2500E00125284607B0F0BD0000BD
:105700000229000070B514460E46054607F0ABFEB0
:10571000002806D13146054807F0A5FE002803D031
:1057200005808470002070BD112070BDFFFF000057
:1057300010B50178B0290BD14178002908D1017941
:10574000122906D01B2903D14088012101F026F837
:1057500010BD417C0129F7D010BD0000F0B5104A02
:10576000536919E09C686589A84214D39E88721910
:10577000824210D900220CE017013F197F8987422D
:1057800005D1002900D00D8010010019F0BD521C78
:1057900092B2B242F0D31B68002BE3D10020F0BDDF
:1057A000F8440020FFB51B4883B0002345692DE075
:1057B000AE68002470890190A888009016E021014D
:1057C00088194289039FBA420ED3049FBA420BD86C
:1057D000069A002A0FD01346715C4068059AFDF7BF
:1057E00039FE002807D10023641CA4B2009884422B
:1057F000E5D3002B09D00C98002802D00C99019811
:1058000008802001801907B0F0BD2D68002DCFD190
:105810000020F8E7F8440020FEB5174600256A4648
:105820009580044640891D4A1E46904208D001AA30
:105830000092401C237880B26268FFF7B3FF0546F0
:105840002378022116486268FDF704FE002807D17C
:105850002378022113486268FDF7FCFD002801D07F
:1058600060890EE0237802210F486268FDF7F2FD9F
:1058700000280DD0002D03D068468088B84203D0A0
:10588000384608F0AFFC04E06889401E80B200E0B2
:105890006089002E00D030802846FEBDFFFF00004A
:1058A000394F01003B4F01003F4F0100FFB583B06E
:1058B0000E461D46174601A9039807F0EDFB0400AC
:1058C00022D1002F0FD0694608803088FFF746FFAD
:1058D0006946088800F02EF901460122039809F074
:1058E0002DFF002811D131460398FDF759FE040021
:1058F0000AD1FF2D08D0019B1E22194604489B1C8B
:1059000008F07BFC0198C570204607B0F0BD000090
:105910004DE0000010B50446FDF758FE0749FF2092
:10592000087048700020486088608C700421204610
:1059300001F02AF800F004F810BD000040430020F8
:1059400070B500200D4D0E4B0446FF220621414349
:105950005D52C918CA708A70401C0C710328F5DBAF
:105960000120C0431880074807F02CFD0648FDF7CA
:10597000B3FF06480AF044F8002070BDFFFF0000A6
:10598000106C002095E0000077E00000CDDF000003
:10599000F8B51C4615460E46074609F0FBFE0028E2
:1059A0000DD0017B074808292B4632463946009422
:1059B00003D0007807F086FBF8BD4078FAE70120B5
:1059C000F8BD000040430020F0B587B00F46080442
:1059D00070D5394EB0780EF087FF040064D020787F
:1059E000A0285ED10120694608732046FDF740FEDD
:1059F000050041D16846807800280BD0142809D0D2
:105A0000152807D01A2805D01C2803D001461F39B5
:105A100020290BD8B16800292ED069464978002981
:105A20002AD169460874062008751FE0C0070AD00D
:105A30007368002B05D0608803AA6946984705461D
:105A40001AE0062518E0B368002B06D0608803AA88
:105A500069469847050001D10EE006256846407862
:105A6000002809D16946887808740D75002048829D
:105A7000608804A9FDF72AFD6846007B002804D051
:105A8000A068002801D00EF065FE002D05D1684603
:105A90008078122805D01B2803D16088012100F0EE
:105AA0007DFE20460EF0F8FE0120C003784007B0CE
:105AB000F0BDFFE70020FAE740430020FEB50E46A8
:105AC000074600250223194A194901200095FFF7CE
:105AD00069FE040027D023200090002304221D210A
