:020000040000FA
:1000000000800020C10D000001400020CB0D000049
:1000100000000000000000000000000000000000E0
:10002000000000000000000000000000CB0D0000F8
:100030000000000000000000CD0D0000CF0D00000A
:10004000D10D0000D10D0000D10D0000D10D000038
:10005000D10D0000FF1A0000BD0D0000D10D000001
:10006000D10D0000D10D0000D10D0000D10D000018
:10007000A51B0000D10D0000D10D0000D10D000026
:10008000D10D0000D10D0000D10D0000D10D0000F8
:100090000348854602F040F800480047490900003F
:1000A00000800020F0B5FC4D0226E97887B00446B8
:1000B00001290CD0192228469201C079022932D098
:1000C00003292ED121790026092959D069E0207908
:1000D000072813D12089002820D0E06841780278D1
:1000E00009021143A981C278807812020243EA8191
:1000F000EAA00AF093FC207907280FD02079012884
:100100000FD1A88900280CD0EE7069460880E889D4
:1001100048800E71E1204871FF2027E060781A289E
:10012000EFD007B0F0BD2179092912D1218900292A
:1001300022D0E1684B780F781902394329822021B7
:1001400015F0DCFF298AE0A00AF068FC2079092874
:1001500012D020790128E4D10320E870A8896946EB
:100160000880E88948800E714E7129208871EA79EB
:10017000688905F0D7FBD4E760781A28ECD0D0E77F
:10018000218900290DD0E1684B780C7819022143B0
:100190006982AE71402115F0B1FF698AD4A00AF0DE
:1001A0003DFCEE70BDE770B5BB4D0446A878022853
:1001B00031D120790026032808D0012807D1207AE0
:1001C000022817D1217BD8A00AF028FCAE71207933
:1001D0007F2803D12189DAA00AF020FC20790B289E
:1001E0001DD0012806D0132822D0012805D01B28B5
:1001F00023D005E0207A0A280ED0207A122814D0C5
:10020000E878002802D02046FFF74CFF20462179ED
:10021000083005F0DFFC70BD217BCCA002E0E06877
:100220000178CEA00AF0FAFB05E0217BCFA0F9E728
:10023000D3A00AF0F3FBAE71E8E7E0680178D4A040
:100240000AF0ECFBE2E7F0B5934E85B0F3790C468B
:1002500008040FD5184615F075FD050007D0017884
:10026000B02901D1FFF79FFF284615F043FD01207B
:10027000C003AEE0E007012500280AD0864A1846F0
:1002800024321146083904F0ABF82046684005B026
:10029000F0BDE00505D5C34804F074F9FF20013036
:1002A00097E07D4821074089002700290CDABEA18C
:1002B000096800913782F781B781F570022269469B
:1002C00005F0F0F8082084E0E10609D54B21C900CB
:1002D000009100236422142104F062F9102078E0D8
:1002E0006D49A206897944D500293ED16A497279BF
:1002F000098A002A2BD06B465F731F739980DD80BB
:100300002A4600231221009705F01EFC02900028C7
:100310002BD0029930790870F27901A9708905F023
:100320000BFC002804D0122101A805F053FC1CE0AE
:10033000B5717079002808D00020707119229201DF
:100340002021F07915F0DAFE0FE00120F5E76A468A
:1003500011801A46694605F0E1FA002805D1B57109
:100360007079002803D000207071202031E0012036
:10037000FAE7620622D500291CD169464F730F7334
:10038000728A8A800222CA8000231221009705F017
:10039000DBFB029000280DD00570029801A9477080
:1003A000F279708905F0C8FB002805D0122101A858
:1003B00005F010FC40200CE0B571FBE721060AD5E2
:1003C00004F0D0F84B2252018021F07915F096FE0E
:1003D000802060405BE7002059E710B586B0734885
:1003E0000AF092F92C4C4B21E0714901022004F0F3
:1003F0001BFD1421072004F017FD6421082004F0E0
:1004000013FD64210D2004F00FFD00200490012055
:100410006A461072107303211170107104AA04212E
:10042000634803F03DFD812002AA0121C00003F0D2
:1004300037FD5F4803AA0121801F03F031FD5C48AE
:100440006A460121401F03F02BFD594801AA0121F2
:10045000801E03F025FD05F063F9E07905F06EFAE2
:100460000121E07915F0F8FC06B010BD10B5494245
:1004700050A00AF0D3FA10BD38B56946064D1446AF
:100480000A80EA7905F040F821464EA00AF0C6FA43
:100490000120A87138BD000020420020466F756E13
:1004A000642050726F66696C65205365727669636B
:1004B000652068616E646C65203A202578207E2076
:1004C0002578200A00000000466F756E642043689E
:1004D0006172616374657269737469632031206845
:1004E000616E646C65203A202578200A00000000C7
:1004F000466F756E6420636C69656E742063686115
:10050000726163746572697374696320636F6E6688
:10051000696775726174696F6E2068616E646C657D
:10052000203A202578200A0045786368616E676567
:10053000204D5455204572726F723A2025780A007A
:100540004D54553A2025780A000000005265616438
:10055000204572726F723A2025780A0052656164F4
:10056000207273703A2025780A000000577269746F
:1005700065204572726F723A2025780A00000000EB
:1005800057726974652073756363657373200A001D
:1005900052656365697665206E6F74693A202578C7
:1005A0000A000000FFFF0000E0FF0000470200001B
:1005B0000F04000052535349203A202D2564206433
:1005C00042200A0065786368616E6765206D747506
:1005D0003A25640A00000000F3B5824D85B0287A00
:1005E0000F460A282DD200247F4E0AE0E000811930
:1005F0000622891C059815F05DFA002821D1641C9B
:10060000E4B2287A8442F1D30006400D8019062214
:10061000801C059915F05CFA287AC10089194F7081
:10062000401CC1B2C800801929722038027FC57FE2
:10063000847F437F6E463CC6C37E827E6BA00AF0F9
:10064000EDF96EE5F8B5674D044681780026E87946
:1006500006297FD019DC002920D0012922D00529C4
:1006600012D1FF21013115F0A7FD617800294DD08D
:1006700068A00AF0D3F96EA00AF0D0F92E72002219
:100680000121032003F0D8FEF8BD072973D00D29FE
:10069000FAD12179601DFFF79FFFF8BD64A00AF031
:1006A000BDF9ECE70024504F0BE0E000C1194D48C4
:1006B00006221430891C15F0FDF9002804D1641CB1
:1006C000E4B2287A8442F0D3287A84420AD15CA02A
:1006D0000AF0A4F92E7200220121032003F0ACFEDF
:1006E00053A034E05CA00AF099F9E000C019831C23
:1006F00042780021084603F0FDFD1922FF21D201B6
:100700000131E87915F0FAFC58A020E00220A87029
:10071000608968810120A871192292010821E87975
:1007200015F0ECFC6878002805D01922D2011021C0
:10073000E87915F0E3FC2878002805D04B22520117
:100740008021E87915F0DAFC00E003E04BA00AF024
:1007500065F9F8BD0121AE70C9436981EE702E8242
:100760002E72AE71802115F027FDA17947A00AF005
:1007700055F993E7FFE74CA0E9E710B500290CD045
:1007800001290DD0022913D0032905D1002A13D045
:1007900011464AA00AF042F910BD11464DA0F9E7F2
:1007A000002A03D050A00AF039F910BD52A0FAE790
:1007B000002AFAD155A0F6E759A0F4E770B51C4617
:1007C0000D4615F023FB5B4901F014FA0E46002C90
:1007D00002D059A00AF022F932460021284603F03F
:1007E00055F970BD204200204445002044657669DB
:1007F0006365202564202D204164647220257820C3
:100800002578202578202578202578202578200A2D
:1008100000000000436F6E6E656374204661696C72
:1008200065642E2E2E526561736F6E3A25580A004C
:10083000446973636F766572696E672E2E2E0A00A7
:10084000446576696365206E6F7420666F756E64AB
:100850002E2E2E0A0000000044657669636520662E
:100860006F756E642E2E2E0A00000000436F6E6EB0
:10087000656374696E672E2E2E0A0000436F6E6EDC
:1008800065637465642E2E2E0A000000446973634C
:100890006F6E6E65637465642E2E2E526561736F84
:1008A0006E3A25780A000000506172616D20557023
:1008B000646174652E2E2E0A00000000426F6E6483
:1008C0002073617665206661696C65643A202564F1
:1008D0000A00000050616972696E6720737461726A
:1008E0007465643A25640A0050616972696E672014
:1008F0006661696C0A00000050616972696E672068
:10090000737563636573730A00000000426F6E6461
:10091000696E6720737563636573730A0000000076
:10092000426F6E64207361766520737563636573CF
:10093000730A000040420F0050617373636F646577
:100940003A25640A00000000022000F05AFA102143
:10095000012000F04FFE0D498A6A481502438A6261
:10096000032100F081FD00F086FF094909A00AF08B
:1009700055F801F034F801F0B2F803F0CFFC00F0C4
:10098000E0F9FFF72AFD09F0DDFEFCE780100040EA
:10099000DD62010025730A0010B5F84A00211468D1
:1009A00007E0621840239B5C8032DB43491C1370D4
:1009B000C9B28142F5D300F0E3FF10BD10B50C467B
:1009C00040290BDA0A460146ED480068403001F044
:1009D0009BF9E0B200F0CCFF002010BD0020C04326
:1009E00010BD0FB410B503AB4021E648029A0AF0DF
:1009F00025F80146E348FFF7E1FF10BC08BC04B04E
:100A0000184730B4DE4A0021126805E05318545CE0
:100A10004033491C1C70C9B28142F7D330BCDAA004
:100A2000DFE710B5DD4A0021126806E0535C541878
:100A3000DB434034491C2370C9B28142F6D300F035
:100A40008FFF10BD10B5D64A0021126806E0535C36
:100A50005418DB434034491C2370C9B28142F6D399
:100A600000F076FF10BDFEB5CE4D0027A879CE4C24
:100A7000810771D5E879CD4E8106C048890E00689E
:100A800020296AD006DC0B000AF01DF805F7F9F4FE
:100A9000F3F27A00232971D004DC21296FD02229B6
:100AA0006ED100E124296CD03029F9D1C221A17086
:100AB000297A082970D1C17982790902114371809C
:100AC00002914378737002780092019200215206DD
:100AD000920F76D11A46130009F0F5FF0B8C5F7365
:100AE00073734A07735458857300C37882781B0266
:100AF00013431A0A012A04D0022A06D0032A10D16D
:100B000008E0AB49716012210CE0A9491231716013
:100B1000432107E01A06120E25D0012A17D0022A17
:100B20001CD0FF27029A8A4200D97180718840291F
:100B300000D34021C9B20A460091716801F0E4F87F
:100B40007068009940187060FF2F3AD05AE09849B9
:100B5000553171600E21E5E7CEE064E094496331E0
:100B600071600C21DEE79249091F71600421D9E709
:100B7000C178827808021043C0B205E0A0E085E0A9
:100B800083E0AEE031782FE070803BE0C17882787E
:100B900008021043307035E013E00099C906C90E11
:100BA00002290ED14179027908021043C0B27321A3
:100BB000012814D002280AD0BC2181280BD0822819
:100BC00001D0CF2052E0A07A0840801C01E0A07A3A
:100BD0000840A07216E0A0790840801C01E0A079CE
:100BE0000840A0710EE0002101707088012809D929
:100BF0000120C9E70021017041707088022801D9E5
:100C00000220C1E70198000609D57188402901D961
:100C1000402000E00846C0B2091A718000E00020C0
:100C20002070C02022E0614972784988052A17D0D7
:100C3000062A02D00020207017E0402900D340216E
:100C4000CFB23A46716801F05FF87088C01B7080BF
:100C50007068C01970602770A0784021484005E096
:100C6000E878C009C0010843E8700220A07041E0A4
:100C70002CE01EE010E002E0FFE7287A3AE0E87995
:100C8000400637D5287AFFF7DDFE33E0A0798008EB
:100C90008000801CA0712DE0E87940062AD5287AD2
:100CA000FFF7BFFE26E0A07A80088000801CA072BB
:100CB00020E0E87940061DD5287AFFF7A2FE19E06A
:100CC000A07B80088000801CA07313E0E8794006B8
:100CD00010D5A07C80214840A074287AFFF75CFEE4
:100CE00008E0A07C40214840A074A07C80088000DF
:100CF000801CA07402200CE0C1070CD00020E8701A
:100D00000220A0701220A071A072A073A879012106
:100D10000843A871FEBD4107FBD568790420F8E7B8
:100D200010B524498A6A4C1522438A6201210802BF
:100D300000F09AFB0321204600F096FB00F09BFD9B
:100D400010BD104810B50D49403008601449C0303E
:100D5000086012498030086009498030086000F05E
:100D6000CFFD15494020086010BD10B50449096841
:100D700040310870012000F0FBFD10BD58420020FA
:100D800064420020946500204465764550335F4FEF
:100D900055545F4465616C0D0A00000060420020FC
:100DA0005C42002000800040208000405042002033
:100DB0006E6201008010004000E100E053E6000098
:100DC0000448804704480047FEE7FEE7FEE7FEE7E9
:100DD000FEE70000DD0D00009100000010B5FF48A7
:100DE00057210170A8210170FC4A8821403A1181E5
:100DF000002101700A2000F001FD012000F04BFCF1
:100E000010BDF0B5F54EF54D04275722A824203E1D
:100E1000403DF249030009F056FE0D080E161B1F57
:100E200024282C32373C41462F000A700C70F07B8E
:100E3000FB22104003E00A700C70F07B3843F07323
:100E4000C820288118E00A700C705120C000F8E713
:100E50000A700C70E248F4E70A700C708120800080
:100E6000EFE70A700C708820EBE70A700C70022024
:100E7000E7E70A700C702F8100200870F0BD0A703F
:100E80000C7093208000DCE70A700C70D4484D3061
:100E9000D7E70A700C7095208000D2E70A700C70BA
:100EA0004B20C000CDE70A700C70CD485C30C8E71D
:100EB000CA4810B540380089C1B20B069A0FC9481C
:100EC000022A05D0012A04D09A0F06D07D20000204
:100ED00010BDC906C90EC44801E0C906C90E00F01C
:100EE00089FE10BDBD4A57211170A8211170BB4960
:100EF00040394B150028088904D018430881002088
:100F0000107070479843F9E7B44A57211170A8212F
:100F10001170B24920390028C87B05D0042318433A
:100F2000C873002010707047FB231840F8E7AB49E6
:100F30008A7B800792089200800F02435720087036
:100F4000A82008708A73002008707047A3498A7B24
:100F50008F231A400001024357200870A820087010
:100F60008A730020087070479C4A203A917B800762
:100F700089088900800F0143984857230370A823EC
:100F800003709173002101707047944A203A917B5D
:100F90000907090F00010143904857230370A82354
:100FA00003709173002101707047FEB58B480027D4
:100FB00040380089C0B201068A0F022A4CD00124B1
:100FC000A403012A4CD0890F56D00524002000909C
:100FD0002005000D019081482038848900267F4932
:100FE000572230460A70A8220A7001238B747B496D
:100FF00057220A70A8220A70784A203A9481002267
:101000000A708A7C9207FCD50A8A8A7C9207FCD4F3
:101010008A7C9207FCD5098A019A7F1C891A0DB235
:10102000FFB2002D37D02946714305D5012834D0B1
:10103000411C32D0002830D02E4602943046009910
:1010400000F0EEFD00B2211A8CB202998C4249D117
:10105000002D45DD641C44E00220644CC043B6E72B
:10106000C506ED0E2946624800F0C4FD0019C40B08
:101070002320C043401B09E0C506ED0E29465D480C
:1010800000F0B8FD0019C40BA81C4042294600F02E
:10109000C7FD00B29BE70020FEBD002E03DA761EDE
:1010A000F04306B202E06D1EE84305B2B5420FDD23
:1010B0004A4857210170A8210170484A0299203AF4
:1010C0009181002101707D20C0007043019903E0EF
:1010D0007D20C0006843114600F0A2FD80B2FEBD35
:1010E000641EA4B2142F82D3FF20FEBDFFB581B0D1
:1010F0000C460746054600261AE0FF219131681E7E
:1011000000F08EFD00290AD06421681E00F088FDE1
:10111000002907D00320A9078007C14202D1FF2080
:101120006F3001E0FF206E3080196D1E86B2ADB2C7
:1011300031488542E1D80025012C25D9032C05D062
:10114000A01E062816DDE00718D115E0FF21913119
:10115000384600F04FFD00290AD06421384600F0DF
:1011600049FD002901D0B80702D000201C3006E05C
:101170000120FBE7E00701D01F2000E01E208019BE
:10118000641E86B2A4B2D7E7039818213018401E17
:1011900084B2049800F02EFDE120C00041430A987B
:1011A0001E22504309180B984008081881B20B986A
:1011B000C00701D00120C0030A0402430749572099
:1011C0000870A8200870054E403E7463034820381C
:1011D000437C80242343437472630FE0401000403B
:1011E000020200000048E80100389C1C13130000B4
:1011F00000180D8F00688909E4070000427C402335
:101200001A4342740D7005B0F0BDFFB50746934810
:1012100083B0C06B0E4684049048A40C2030418BF0
:10122000008B01224900D203904201D3012000E04B
:101230000020081800908A48388010E001990029A1
:1012400025D06421284600F0D5FC002901D0A8074C
:101250001DD0FF206E30201A6D1C84B23D803D8869
:10126000FF219131284600F0C5FC0191002911D0E1
:101270006421284600F0BEFC002901D0A80709D04F
:10128000FF206E30A042D9D90020308049E0FF20F5
:101290006F30E0E7FF206F30F4E73588012D04D090
:1012A000062D18D9E8071AD117E03888FF219131A7
:1012B000019000F09FFC00290BD06421019800F000
:1012C00099FC002902D00198800702D000201C3030
:1012D00006E00120FBE7E80701D01F2000E01E2008
:1012E000201A84B26D1CA8B23080012804D00628D0
:1012F00017D9C0071AD117E03888FF210546913168
:1013000000F078FC00290AD06421284600F072FC25
:10131000002901D0A80702D000201C3007E00120DE
:10132000FBE73078C00701D01F2000E01E20A0425C
:10133000B3D93088641C401C30800598E1210480BA
:101340000901009800F056FC069A108008463C21DE
:1013500000F050FC0C9908803C21009800F04AFCF9
:101360000D98018007B0F0BD3C49572240310A700A
:10137000A8220A70394A506338482030427C402302
:101380001A4342740020087070473449886B8A6B96
:101390008242FBD17047314A10B55721403211705B
:1013A000A82111702D4920314B7CE82423404B7437
:1013B0004B7C1024204303434B740020107010BD5D
:1013C00000B50346FFF7E1FF2649C018884201D95E
:1013D000494240180104090C02D0012109044018B7
:1013E0001E49572240310A70A8220A701B4A5063D6
:1013F0001A482030427C20231A434274002008708F
:1014000000BD0021002802D0012802D002E02021E6
:1014100000E010211148572240300270A8220270CB
:101420000E4A2032537C8B43537400210170704765
:101430000A4920310028087C02D04021084070472A
:10144000C009C001704705492031002804D0012897
:1014500001D11020087470472020FBE700100040E5
:10146000E40700000000C0A800B5524A0B0009F0D4
:101470002AFB0504071016191F00516B81430AE06F
:10148000516B81435163116B01431163116A8143B5
:101490000DE0516B01435163116B8143F5E7516BD3
:1014A000814301E0516B01435163116A01431162B1
:1014B00000BD404A00B540320B0009F004FB0504B2
:1014C000071016191F00516981430AE051698143D1
:1014D0005161116901431161116881430DE0516946
:1014E0000143516111698143F5E75169814301E08D
:1014F00051690143516111680143116000BD2D4ADA
:10150000002906D0012907D0022908D0032913D1C8
:101510000CE0918A814304E0918A814308E0918A3A
:1015200001439182D16A0143D16205E0918A01436E
:101530009182916A014391629083118A01431182E1
:1015400070471C4B1B4A4033002906D0012907D0A5
:10155000022908D0032913D10CE0D18A814304E089
:10156000D18A814308E0D18A0143D182D9680143FD
:10157000D96005E0D18A0143D1829968014399601D
:10158000D083518A0143518270470A4A803A002829
:10159000108B01D0084300E0884310837047054A50
:1015A000803A0028508B01D0084300E088435083E4
:1015B0007047000080100040F8B5624D5726614C1E
:1015C000A827203D00282670277028880ED02115D6
:1015D000084328800A2000F011F926702770288817
:1015E00061150843288000202070F8BD03214902BE
:1015F0008843F7E7F0B5534C57261C228B07514D13
:10160000A8270A409B0F403C00282E702F7010D056
:10161000080603D5E07BFD210840E073A07A104363
:10162000A07248482038C17B1943C173002028703C
:10163000F0BD080603D5E07B02210843E073A07AE1
:101640009043A0723F482038C17B9943EDE730B505
:101650003C4C57233B4AA825403C0028137015708A
:10166000E06804D08843E0600020107030BD08437B
:10167000F9E730B5334C5723324AA825403C0028BF
:1016800013701570A07B04D00843A0730020107065
:1016900030BD8843F9E7F8B52A4D5726294C00217B
:1016A000A827203D0028267027700ED001206871E1
:1016B000287100202070012000F0A0F8267027700B
:1016C0000D20287100202070F8BD29712170F8BD0F
:1016D0001D48016904229143016130BF7047194BD5
:1016E00057241C70A8251D7016494039887B082294
:1016F000104388730920134E0003203E30800027DA
:101700001F70886B8A6B8242FBD1104A0A3090426C
:1017100001D9524280180204120C02D00122120494
:101720008018302232741C701D7048632F20707432
:101730001F701C701D70052008811F7040BF20BFE6
:1017400020BFFEE74010004000ED00E00000C0A810
:101750003C49062805D049790122824011400846BB
:1017600070470878082108407047364857210170B3
:10177000A82101708179012211438171002101703A
:10178000704731490968016000202F49C04380310A
:10179000086070472C49086070472C488069704782
:1017A000284957220A70A8220A700028887905D093
:1017B000042210438871002008707047FB221040FB
:1017C000F8E7204957220A70A8220A700028887971
:1017D00005D0022210438871002008707047FD2256
:1017E0001040F8E7174857210170A821017081794E
:1017F00010221143817100210170704700220AE01C
:10180000022101E000BF00BF0B46491E89B2002B38
:10181000F8D1521C92B28242F2D3704770B50024C4
:101820007D260546F60004E03046FFF7E7FF641C1E
:10183000A4B2AC42F8D370BD0549CA7A082AFCD0DC
:10184000087270474010004000E100E000E000E056
:101850000034004010B50446FFF72AFB0A21484334
:10186000C008214600F0C6F90A21401D00F0C2F967
:101870002249888110BD10B5E1204002FFF7EAFF40
:101880001E48872181700321C170402141700121D0
:10189000817310BD19498A789206920E8001024325
:1018A0008A707047154A0028507806D00843507057
:1018B00010780821084310707047884350707047B3
:1018C0000E498020487070470C4A07E0D37A082BF5
:1018D00004D003781372491E89B2401C0029F5D147
:1018E000704701460020054A04E0137A401C0B7043
:1018F00080B2491C937A002BF7D170470034004026
:1019000010B5234800230370CC2101734173214992
:101910000A8802828A8882820A890283898981836D
:101920001B49022420318C7012228A718A728A73B8
:101930008C74C37029210170FF21817116494A8B73
:1019400080231A434A83812141700721817010BD91
:101950000F492031087188798008800088717047AC
:101960000B4920310872887A80088000887270479D
:10197000074920310873887B80088000887370478E
:10198000034920310874887C80088000887470477F
:1019900000800040584200200010004010B5FFF7C2
:1019A00004FB022801D9FFF700FB10BD30B55649F2
:1019B000CC7E0B7E4A7EC87E80252843C8760F20C9
:1019C000087621204876887E012528438876887EFF
:1019D000C007FCD1888BCC760B764A7630BD30B50B
:1019E0008DB0122249A14E4814F064F8002841D06D
:1019F000454857210170A82101705121424AC90070
:101A0000403A1181002101704748464A4261474AE5
:101A10000724D3691B021B0A45042B43D361816150
:101A20000461016902229143016134220021684668
:101A300014F044F93E480090012040036946888034
:101A40001B20C87305200874012048741420887472
:101A5000FB20800202900D20087736480890364817
:101A60000A90084601F00CFD010007D033A008F0F1
:101A7000D5FFFEE739A008F0D1FFFEE70DB030BD7D
:101A800070B50C4609040AD514F05CF9002801D0A1
:101A900014F030F901212046C903484070BDE00729
:101AA00002D00120604070BD314DA00405D501F089
:101AB00063FD01262F4A760308E060040DD52EA0B1
:101AC00008F0ACFF7D22D2010126B603314628780A
:101AD00014F014FB2046704070BD002070BD10B59E
:101AE000264808F011FE224C207000F063F862B620
:101AF000204A01214903207814F000FB10BD10B5E5
:101B000001F002FC10BD0000401000404348353792
:101B1000785F424C455F4C49425F56312E3700009A
:101B2000DD620100FEFFFF0000E000E004ED00E0E8
:101B3000944500209B170000AD1900004C4942203D
:101B4000696E6974206572726F7220636F64653AA2
:101B5000202578202E2E2E0A000000006865616482
:101B60002066696C65206572726F722E2E2E0A00D7
:101B70006842002000EE02002A200000811A0000C6
:101B80000104090C02D0012109044018164957220A
:101B90000A70A8220A70144940394863134900208A
:101BA0000860704710493020203908740F4901201F
:101BB000086070471CB50C4857210170A8210170BE
:101BC00009492039CA7B07231A43CA7300210170CF
:101BD00000910B460122019111460548FFF786FA54
:101BE000002008F0C5FE1CBD401000406C420020E3
:101BF000E407000030B50B460146002020220124F6
:101C000009E00D46D5409D4205D31D469540491B30
:101C10002546954040191546521E002DF1DC30BD79
:101C200070B500242546002801DA0124404200292D
:101C300001DA01254942FFF7DDFFAC4200D0404206
:101C4000002C00D0494270BDF0B51FB486B0002012
:101C50000090019002900698069980B2049007982F
:101C6000090C02040014114307900027089D0998ED
:101C700006913E463C4603900398A9B20204000C2C
:101C8000039004982D0C154348430021224600F090
:101C900018F8C719714110340E46402CECDB384659
:101CA000029A00F00EF8009A019B801800905941AA
:101CB00002980191103002904028CCDB00980BB0C4
:101CC000F0BD10B5202A04DB0146203A91400020E7
:101CD00010BD914020239C1A0346E34019439040D5
:101CE00010BD10B5202A06DBCB170846203A10415C
:101CF000C1170B4306E00B461341D0402024A21A23
:101D000091400843194610BD03460B439B0703D07F
:101D100009E008C9121F08C0042AFAD203E00B78B0
:101D20000370401C491C521EF9D27047F0B51FB415
:101D30000646002082B005464024019100901BE039
:101D4000019922460F46304600F0F8F9049A059BA7
:101D5000801A994110D3104619462246FFF7B1FF69
:101D6000361A8F410197224601200021009FFFF77C
:101D7000A8FF38184D4100902046641E0028DFDC83
:101D8000019B00982946324607B0F0BDF0B50746E2
:101D90000846584087B0C00F049048000E465900CE
:101DA00040084908BC1A884105D2384631461E46CB
:101DB00017460B4602465800400810434CD0300DE1
:101DC000039040055900400D490D0590401A0290BE
:101DD000402872DA18030121000B0905084301901D
:101DE00004980092002805D00199524200208841B1
:101DF00000920190029840210A1A01990098FFF779
:101E000060FF05460C466B4607CBFFF76AFFC0191B
:101E10007141039A0E0D0023D71756401A467A4097
:101E2000164344D0049A002A2DD0029A012A039A1C
:101E300015DC1205C01A914101263605001C7141BE
:101E4000D20F059ED2070093019202962A4623469E
:101E500000F092F907B0F0BD38463146FAE71605B2
:101E6000224A0F46B218C01AB74101210905001CC9
:101E70004F4100187F41114618187941E20F104375
:101E80006D19644113E0E2076D0815436408C20749
:101E90001443039A01261205C01A91413605001C0D
:101EA0007141CE07400830434908C01851412A46C5
:101EB000234600F054F9CDE7FFE7049801224000E3
:101EC000C117121A00238B4104983146C417381ADF
:101ED000A141EEE730B40124E407634030BC55E78C
:101EE00030B40124E407614030BC4FE70000E0FF5C
:101EF000F0B51FB488B00B9909980024484009999F
:101F0000C00F490049080991C0070B99009049008A
:101F100049080B9109990898A64608431CD00B99CB
:101F20000A98084318D0099801244000420D48003F
:101F3000410D099824050003000B204309900B98DC
:101F40000003000B20430B9050181C49401800223E
:101F500001901446104605E0002001460DB0F0BD8A
:101F6000032801DA034600E003239C46C11A0AAEA7
:101F70000AE05F0008ADED5B4F00F75B7D43002793
:101F8000AA187C41491C5B1E6145F2DD410004AB8F
:101F90005A522104120C0A43240C401C0828DFDB8F
:101FA000019802900099704601910090059B049A57
:101FB0000799069800F0E0F8D0E700000DFCFFFF5D
:101FC000F0B50C465C4085B0E40FE40703944C0088
:101FD00000266408590094464908024602962243A6
:101FE00021D062460A431ED06200570D4A000E03FC
:101FF0002303550D012402462C492405781B1B0B95
:10200000360B401823432643614600901C46501A65
:10201000B44103D30098401C009002E0921800984D
:102020005B41002803DA0020014605B0F0BD002026
:10203000012109050746864611E064461D46141B2A
:10204000B54106D36546521BB341744607430C4362
:10205000A646CD0740084908284392185B4105462B
:102060000D43EAD11046184313D06046194650403C
:102070007140084306D06046101AB34106D20122CF
:10208000002306E000220123DB0702E00122D24305
:102090005310009874460105381C6141029C039D51
:1020A0000019694100F05BF8BFE70000FD03000084
:1020B0004A0009030123090B1B0519430A4B10B5FC
:1020C000520D9A4202DA0020014610BD064B34330D
:1020D0009A4203DC9A1A00F031F810BD034BD21873
:1020E000FFF7EFFD10BD0000FF030000CDFBFFFF79
:1020F00010B5002904DB0124E40740428C4121464D
:10210000002B04DB1C460123DB075242A34199420A
:1021100000D1904210BD0000064C0125064E05E09E
:10212000E36807CC2B430C3C98471034B442F7D3F8
:10213000FDF7B2FFD86301000864010010B5202A42
:1021400004DB0846203AD040002110BD0B46D340A6
:10215000D0402024A21A91400843194610BD10B562
:10216000002B08DA0024401C614192185B411A439D
:1021700001D14008400010BDF0B51FB482B0054643
:102180000C0003D0084608F06FFC02E008F06CFC7D
:1021900020300246009021462846FFF792FD049B1E
:1021A000059A04460F4618431143084314D01846B5
:1021B00010431BD0009840210A1A18460599FFF7D2
:1021C000BDFF05460E46009A05990498FFF779FD74
:1021D000084305D0012004E02046394607B0F0BD91
:1021E0000020C11705430E432C43374300990E9836
:1021F0006305401A7905E40A00220C43FD0A0A30FF
:1022000002D500200146E9E70105101969410C9C3F
:102210000D9D00196941FFF7A2FFDFE770B58C182B
:102220000578401C6B075B0F01D10378401C2A1115
:1022300006D10278401C03E006780E70401C491C51
:102240005B1EF9D12B0705D40023521E0DD40B7051
:10225000491CFAE70378401CCB1A921C03E01D7856
:102260000D70491C5B1C521EF9D5A142D8D3002029
:1022700070BD000010B5124C2068C0051FD50320AA
:10228000206000200821401C2268C0B20A4322605E
:102290000EE02268920510D4222807D90948026B63
:1022A000002A0AD001210320904706E0401CC0B25A
:1022B0002268D205EDD50028E5D10020206010BDB0
:1022C00080C300403068002070B514460D460646B5
:1022D000FFF7D0FF2D480368196806229143196063
:1022E000316899627168D962B1681963F16859639C
:1022F000296899616968D961A9681962E9685962B0
:1023000059680222914359605D6801210D435D6067
:102310001D680D431D6000E000BF59688907FBD5AB
:102320005968914359609969217001688969090A5E
:10233000617001688969090CA17001688969090ED9
:10234000E1700068C1692171C169090A6171C169DF
:10235000090CA171C169090EE171016A2172016A5A
:10236000090A6172016A090CA172016A090EE1721F
:10237000416A2173416A090A6173416A090CA173B8
:10238000406A000EE073002070BD0000844300200E
:1023900070B50C460546FFF76DFF284802681068C7
:1023A00020218843E907890E084310608034E06CDF
:1023B0001061206D5061E0699061206AD061606AAF
:1023C0001062A06A5062E06A9062206BD062606B1B
:1023D0001063A06B5063E06B9060206CD060D1689C
:1023E000236C1748994204D0026B002A1ED020218A
:1023F00007E0916AE36A994206D0026B002A15D081
:1024000021210320904711E0D169236A994204D029
:10241000026B002A0AD02221F3E71169E36C99428A
:1024200006D0026B002A01D02321EAE7012070BD0B
:102430001068402108431060002070BD84430020D4
:102440003068002070B50C460546FFF713FF28489A
:102450000268106820218843E907890E084310604C
:102460008034606C1061A06C5061E0699061206AFA
:10247000D061606A1062A06A5062E06A9062206B6C
:10248000D062606B1063A06B5063E06B9060206C57
:10249000D060D168236C1748994204D0026B002A9F
:1024A0001ED0102107E0916AE36A994206D0026BC0
:1024B000002A15D011210320904711E0D169236A29
:1024C000994204D0026B002A0AD01221F3E7116965
:1024D000636C994206D0026B002A01D01321EAE70F
:1024E000012070BD1068402108431060002070BDBD
:1024F000844300203068002010B504F0D9FF024961
:1025000003F053FC002010BD0604000008B50028AD
:1025100008D0002906D0002A04D01088002801D055
:10252000002008BD1220694608706A460121034850
:1025300003F037FC6946087808BD0000350C000040
:1025400008B504F01FFA694608706A46012103487D
:1025500003F027FC6946087808BD0000272000002A
:1025600008B504F059FA694608706A460121034823
:1025700003F017FC6946087808BD00001120000030
:1025800008B504F09EFB694608706A4601210348BD
:1025900003F007FC6946087808BD00002920000008
:1025A00008B504F093FB694608706A4601210348A8
:1025B00003F0F7FB6946087808BD00001020000012
:1025C000FEB508AF70CF6F4670C704F0A5FB044698
:1025D000024903F0EAFB2046FEBD00001320000084
:1025E00008B504F055FF694608706A4601210248A3
:1025F00003F0D7FB002008BD0E200000FFB589B016
:1026000016A871C894468E460796159F129A13997C
:1026100004AE31C61498009201910290039762466D
:102620007146099804F096FE0446034903F0BDFB89
:1026300020460DB0F0BD00000D20000038B5044666
:1026400005F007FA694608704C70200A88706A46DF
:102650000321024803F0A5FB002038BD1B20000029
:1026600038B5044605F00DFA694608704C70200A2A
:1026700088706A460321024803F093FB002038BDAE
:102680001A2000000EB500A8013005F042FE694690
:1026900008706A460921024803F083FB00200EBD42
:1026A0001820000008B500A8013005F053F969466C
:1026B00008706A460421034803F073FB69460878F2
:1026C00008BD00000220000038B5044605F088FE71
:1026D000694608704C70200A88706A4603210248D7
:1026E00003F05FFB002038BD212000007FB50446C9
:1026F00008A861C8009002960195204605F088FE62
:10270000694608734C73200A887303AA032103489F
:1027100003F047FB002004B070BD00002020000043
:1027200008B506F017FA694608706A4601210348A1
:1027300003F037FB6946087808BD00002D20000033
:1027400008B506F02DFA694608706A46012103486B
:1027500003F027FB6946087808BD00000A20000046
:10276000F0B585B00AACF0CC03976F4670C706F0A1
:102770008FFA6946087404AA0121034803F011FB8B
:102780006946087C05B0F0BD0620000008B506F0DB
:1027900009FB694608706A460121034803F001FB02
:1027A0006946087808BD00000520000008B506F05D
:1027B00037FB694608706A460121034803F0F1FAC5
:1027C0006946087808BD00002E20000008B506F014
:1027D0003DFB694608706A460121034803F0E1FAAF
:1027E0006946087808BD00000C2000001CB5049C58
:1027F000009406F06DFB6946087101AA01210348A7
:1028000003F0CFFA694608791CBD00000B200000D8
:1028100010B506F08FFB024903F0C7FA002010BD87
:102820001920000010B505F06CF910BD1CB500A80A
:10283000013005F07DFD694608706A4607210348AE
:1028400003F0AFFA694608781CBD000009100000CB
:1028500038B500A90446033105F07AFD69460870D1
:102860004C70200A88706A460421034803F099FAE4
:102870006946087838BD00000514000010B506F060
:10288000C1F810BD0A7802708A7842704A88120A2C
:1028900082700979C170042070470A780270098833
:1028A000090A4170022070470A7802700988090AF3
:1028B00041700220704709780170012070470A7842
:1028C00002700A88120A42708A7882704A88120A54
:1028D000C2704A7902718A7942710889801D80B27A
:1028E000704708888004000C70470A7802700A88D4
:1028F000120A42708A7882704988090AC1700420DD
:1029000070478A78027088780128088804D01221DC
:102910004843401C80B270478000FAE70A78027092
:102920000A88120A42704888801C80B270470A7870
:1029300002700A88120A42708A7882704A88120AE3
:10294000C2708888001D80B270470A7802700A88B9
:10295000120A42708A7882704A88120AC270888885
:10296000001D80B270470A7802700A88120A42700D
:102970008A7882704988090AC170042070470888E3
:1029800070478A780270088849884843401C80B2A2
:10299000704710B50C46097801702188090A41700A
:1029A000A17881706188090AC1702279611D001DBA
:1029B00013F08EF82079001D10BD8A780270088807
:1029C00049884843401C80B27047088870470A789D
:1029D00002700988090A4170022070470888704710
:1029E0000A7802700A88120A42704888801C80B2F5
:1029F00070477FB515460446022901D0102903D13E
:102A0000022B04D0102B02D0002004B070BD9942DC
:102A100002D10A46294607E01029694607D000F08E
:102A20000DF810226946284613F044F8EDE71046E9
:102A300000F004F8102269462046F5E770B50C4610
:102A400005000CD0002C0AD010220649204613F0B5
:102A50003FF82878207368786073012070BD0020EB
:102A600070BD0000F162010008B500220B46009223
:102A70000122024908F0EAFC08BD00008528000098
:102A800038B5054608880C4617280DD303F0F4FD29
:102A90002188884208D3002000902346022203495F
:102AA000284608F08EFC38BD022038BD9B28000067
:102AB00008B50A88172A07D300220B460092032282
:102AC000024908F0C3FC08BD022008BDA928000087
:102AD00008B500220B4600921822024908F071FC4A
:102AE00008BD0000B728000008B500210B461922D8
:102AF000009108F0ABFC08BD38B50C4605460979D5
:102B00000020022901D0022038BDE268002A03D04B
:102B10000721104612F08AFF009023460622024940
:102B2000284608F04EFC38BDBF28000038B50546E1
:102B300008880C4600280DD0606800280AD00121C2
:102B400012F074FF0090234607220349284608F03C
:102B50007DFC38BD022038BDE328000008B5002206
:102B60000B4600920422024908F02BFC08BD00002D
:102B7000EB28000038B5054688780C46012801D0BE
:102B8000022810D1208800280DD0606800280AD0C3
:102B9000022112F04BFF00902346052203492846EC
:102BA00008F054FC38BD022038BD000003290000A5
:102BB000064910B5884202D103F05EFD10BD0EF04B
:102BC000EDF80028FAD1172010BD0000FEFF00002C
:102BD00038B505464A6800200C46002A03D0032178
:102BE000104612F023FF009023461D22024928467A
:102BF00008F0E7FB38BD00001D2900000248002155
:102C00000160416070470000A843002010B504290E
:102C100001D0042010BD0178117083784478190226
:102C200021435180C0781071002010BD0098022B04
:102C300001D00420704751781278090211430180B5
:102C400000207047022901D00420704741780378A2
:102C5000080218431080002070470098012B01D013
:102C6000042070471178017000207047002901D0BE
:102C7000042070470020704770B5049C1E4615461E
:102C8000062B1BD368782978000208432080E87857
:102C9000A978000208436080022020710246291DA5
:102CA000601D12F015FFB01F2081062E03D0AD1D50
:102CB000E560002070BD0020E060FAE7042070BDF0
:102CC0008B0705D1890803D0118050600020704720
:102CD000042070470098042B01D0042070475178DD
:102CE0001378090219430180D178927809021143BF
:102CF00041800020704710B50298022B0FD3517805
:102D00001478090221430180991E4180022B02D0D0
:102D1000921C426001E000214160002010BD0420AF
:102D200010BDF8B584890D46002C2BD08668377805
:102D3000390601D4002010E00D2C23D30C3CA4B2A2
:102D400031190091408823463246012107F0E6FB05
:102D5000002801D0022000E0012079062870C90F68
:102D6000BA066970920EAA70641E2204120CAA8020
:102D700002D0761CAE6001E00022AA60022803D1D6
:102D8000002901D00120F8BD0020F8BD10B502983F
:102D9000042B14D351781478090221430180D1788F
:102DA0009478090221434180191F8180042B02D0AD
:102DB000121D826001E000218160002010BD04200E
:102DC00010BD0098042B01D004207047517813786F
:102DD000090219430180D178927809021143418098
:102DE0000020704710B502981146062B03D0142B13
:102DF00003D0042010BD022200E0102202714A78A4
:102E00000B7812021A430280CA788B7812021A4396
:102E100042800279401D091D12F05AFE002010BDAB
:102E2000F8B515460646002912D03478491E6C8044
:102E3000CFB2022C0CD321463846FEF7DBFE01460A
:102E40006143B94204D12880761C00206E60F8BD31
:102E50000420F8BD0098D90706D1022B04D05908E8
:102E60008180026000207047042070470098022B88
:102E700001D0042070475178127809021143018073
:102E8000002070471180002902D050600020704758
:102E90000020FAE710B5029C022B11D32072617258
:102EA00050781178000208432080981E6080022B21
:102EB00002D0921C626001E000206060002010BD22
:102EC000042010BD002901D0042070470020704765
:102ED00038B5054688680C46002802D0052112F056
:102EE000A5FD0090234616220249284608F069FAFB
:102EF00038BD00002F29000038B5054688680C460B
:102F0000002802D0052112F091FD009023461722DF
:102F10000249284608F09AFA38BD00004B29000003
:102F200008B500220B4600920C22024908F049FA2B
:102F300008BD00006729000038B5054648680C4602
:102F4000002802D0012112F071FD009023460D22CD
:102F50000249284608F07AFA38BD00007F290000AF
:102F600008B50A79022A03D0102A01D0022008BD30
:102F700000220B4600921022014908F022FA08BDF7
:102F80009329000038B5054608880C4600280DD066
:102F9000606800280AD0022112F048FD0090234604
:102FA00011220349284608F051FA38BD022038BDE5
:102FB0008329000008B50A79022A03D0102A01D01B
:102FC000022008BD00220B4600920822014908F0A9
:102FD000F8F908BD9329000038B5054608880C4665
:102FE00000280DD0606800280AD0022112F01EFDD2
:102FF0000090234609220349284608F027FA38BDE5
:10300000022038BDBB29000038B5054648680C468B
:1030100000280AD0012112F009FD009023460F225A
:103020000349284608F012FA38BD022038BD0000D6
:10303000CB29000008B500220B4600920A22024963
:1030400008F0BFF908BD0000CF29000038B50546DB
:103050004A6800200C46002A03D00121104612F0D5
:10306000E5FC009023460B220249284608F0EEF9C1
:1030700038BD0000DD2900000149486070470000AC
:10308000A84300200149086070470000A8430020C1
:1030900070B5054608480C46854205D0172C03D369
:1030A00003F0EAFAA04201D2012070BD2146284671
:1030B0000DF018FF70BD0000FEFF0000F8B50646D9
:1030C000087A12250C46012809D13046FFF770FD19
:1030D00061880F38884201DA0220F8BD9225607AB3
:1030E000012801D1402005436068002802D0032157
:1030F00012F09CFC009023462A460249304608F014
:1031000060F9F8BDE129000008B500210B46132243
:10311000009108F09BF908BD04480349006801606C
:103120000349C16270470000A522080188430020BE
:10313000784E010010B5074C5D202168086506F047
:103140002BF920680021016503484279521C427125
:10315000C17110BD904200208468002070B5002429
:103160002546641C2406240E42D00021C9430020B9
:1031700008F0BFF9002211460346CB40DB07DB0F06
:10318000491CC9B20646CE40F607F60F9E4203D050
:10319000521CD2B2192A29D22029EDD3002102468D
:1031A000CA409206920E21D03F2A1FD0491CC9B2B4
:1031B0001A29F4D9810E1F2918D03E2916D00129C9
:1031C00014D0202912D0104A014690420ED04A1E37
:1031D00011420BD00204C1B2120E8A4210D1020277
:1031E000120E8A420CD1020E8A4209D1294608E009
:1031F000F021102008F08BF904490002084370BD4B
:1032000001210029ADD070BDD6BE898EC700CD6A20
:1032100070B52C49002048602B4800892B4CC0B267
:103220008109022904D0012908D0810916D026E09D
:10323000D020A0800820E080E8201FE0C506ED0E29
:103240002D2029468001FEF7D5FCA0802946782054
:10325000FEF7D0FCE08029461D480DE0C506ED0EC6
:103260002946C020FEF7C6FCA08029460820FEF7AC
:10327000C1FCE0802946E820FEF7BCFC208116490D
:103280001448086016491548086017491548086031
:1032900017491648086018491648184C086018491C
:1032A00020680122D202086180184861012048711B
:1032B00000F062F9607D002802D1124920200860E8
:1032C00070BD00009442002000100040646800209F
:1032D000980D000000C000408C43002000C3004057
:1032E0008443002000C200409042002000D00040F3
:1032F0009043002000C10040884300203068002037
:103300008468002000E100E0F8B556480068816854
:103310000127C9050025544C544E00292EDA816836
:103320003A0291438160207840060CD550485149BB
:103330000068884206D15049886BE0608A6B9042F1
:10334000FAD100E080472078384320706570E0793A
:10335000062803D043495D200968086530680028C5
:103360000AD001690A68406902430A603168086846
:10337000026889680A4302606571A560394B186864
:103380008168890521D581680122520291438160BB
:10339000A0783843A070E57038480068C16A890891
:1033A0008900891CC1620168D20411430160306840
:1033B00000280AD041680A68806802430A603168C0
:1033C000C868026849690A43026018688168890709
:1033D00017D58168022291438160E770A5705D2155
:1033E0000165306800280AD001690A684069024313
:1033F0000A6031680868026889680A43026065717A
:10340000A56018688168C90715D081684908490016
:10341000816025706770306800280AD041680A68AA
:10342000806802430A603168C868026849690A43D3
:1034300002606571A56018688168C90603D5816856
:103440001022914381608168490703D58168042275
:10345000914381608168090703D5816808229143FF
:103460008160F8BD904200208468002098420020CE
:103470008C42002091A000000010004088430020F2
:1034800070B504460068002828D00121000C4903CB
:10349000884223D1A088002820D020460622FF2180
:1034A000163012F0F8FA01281AD0A28800212068FC
:1034B00012F004FC342200212D4812F0FFFB3422CC
:1034C00021462B4812F004FB294806221630002121
:1034D000054612F0E0FA012804D008E0022070BD91
:1034E000032070BD23490622284612F0F1FA204835
:1034F0008189002902D1012149028181827B012138
:10350000002A00D18173C27B002A01D11B22C27321
:10351000027C002A01D105220274427C002A00D1DB
:103520004174817C002901D114218174817F00299B
:1035300001D128218177C17C002908D0827FE17CDC
:1035400092088918C174617F002904D005E0817F49
:1035500089082D31F6E702214177806A002803D0DF
:10356000804703493431488107F086F8002070BD58
:10357000306800200806040010B500F065F803F07C
:10358000E3F905F0A3FEFFF7C7FD0B4C5D202168B2
:10359000086505F0B3FF06F071FD05F077FF05F053
:1035A000FBFE064801214171226800211165C171AD
:1035B000FEF760FE10BD00009042002084680020ED
:1035C00070B50E4B00209989002901D10C499981D1
:1035D0000E210124A4039A8915462540CD405204AA
:1035E000120C0543E8B25604D50BF60F754015438F
:1035F000491EC9B29D810629EDD870BD686A0020B8
:10360000FF7F000070B50E4B00205989002901D1C1
:103610000C49598108214C015A8915462540CD4055
:1036200005435200E8B2550A56097540ED07ED0F03
:103630001543491E09065D81090EEDD170BD0000DC
:10364000686A0020FF0100000A48094900680A6909
:1036500002610A69426149698161C161826801212F
:1036600049030A438260C2680A43C260704700008F
:10367000846800208C43002030B5104A0346517AFC
:10368000FD20842454720E4CA568002D07D0A57B24
:10369000002D04D0A489E51FFF3DFA3D02D05172F0
:1036A000FF2030BD7D24E402A34205D35360A62051
:1036B0001072907A40235840517230BD001800407B
:1036C0003068002010B506490C46483CA1622063D2
:1036D000E17D182001F0A8FBE07D01F03BFE10BD6C
:1036E00024430020F8B500240F4E274613E0F06B6A
:1036F000250128180622FF2112F0E0FAF06B0622BD
:103700002818FF21801D12F0D9FAF06B2818878144
:10371000641C8773E4B2307E8442E8D3002012F048
:10372000ADFB307E7076F8BDDC42002070B50C46F3
:103730000146012080020A1A00252B48130007F0D9
:10374000C2F920111316181A1D1F21232527292B12
:1037500032343648393B3D3F43484848484848485A
:1037600048464148007800E04078207039E0807891
:10377000FBE7C078F9E710221C4910E00079F4E774
:103780004079F2E7006A13E08079EEE7C079ECE770
:10379000007AEAE7407AE8E714491022103120461F
:1037A00012F096F91DE0807ADFE7C07ADDE7406A23
:1037B000206016E0007BD8E7407BD6E7807BD4E72B
:1037C000407CD2E7807CD0E708F0B6FBCDE7807D77
:1037D000CBE7192904D2084601F036F9208000E031
:1037E0000225284670BD0000DC4200203069002020
:1037F00010B5044600F0D4F80248C47508F0D6FCB1
:1038000010BD0000DC420020FFB58FB0064600204E
:103810000C900D901F460CAA304600F0A5FA454DBD
:103820000446287E84425AD2204608F09FFC064671
:10383000042F04D0A879022803D0002002E02878C1
:10384000F9E7012000903B4632462146119808F0E6
:103850004BFB1422002101A812F030FA2046062169
:10386000484300902430C0B201AA102112F064FB3A
:10387000002813D11022FF2101A812F00CF9002812
:103880000CD1009805AA2530C0B2042112F054FBD7
:10389000F107C90F01AA119801F0E0FA7034E0B203
:1038A00006AA182112F048FB002811D106A808F03A
:1038B0006FFC0024A10006A808180188002903D085
:1038C0008278119801F07AFD641CE4B2062CF1D3E1
:1038D000B00706D5E97D119801F05EFD01E0082FE3
:1038E00002D0042F13D021E0A87902281ED1002293
:1038F0003146119808F032FAA86A002816D04368B9
:10390000002B13D000221146119898470EE028781A
:1039100002280BD129791198002900D001216A7859
:10392000002A00D00422114301F05EFA002013B0F7
:10393000F0BD0000DC420020F8B501F0ADF8002831
:103940002BD1164D0026E87C012801D000241CE074
:1039500008F03EFBEE7400202A7EE96B04E00301D0
:103960005B18401C9E73C0B29042F8D310E0E86B25
:1039700027013818807B012805D1204608F03AFB42
:10398000E86B38188673641CE4B2287E8442EED358
:10399000502012F095FA08F009FCF8BDDC42002036
:1039A000F8B5354EFF20F07500273776334CF763B6
:1039B000A07B30214843422112F0A6F8F063002892
:1039C00025D02046807B410040183076002413E04B
:1039D000F06B250128180622FF2112F06FF9F06B19
:1039E00006222818FF21801D12F068F9F06B2818B4
:1039F0008781641C8773E4B2307E8442E8D31F4819
:103A00008068002801D0B77601E08020B076307E53
:103A100070760124776334707770B770F770102276
:103A20000021174812F04AF937717725757137620E
:103A3000B471F7711248377277721022002110307A
:103A400012F03CF9B772F572776237730520707324
:103A50001020B073F77302203074B762F7623763D7
:103A60007774F774347504487475B4750549483033
:103A7000016005494160F8BDDC420020306800204B
:103A800030690020BDC4000085C4000070B500246A
:103A9000054600290BD108491046FEF7ABF8084649
:103AA000294601F055F8040003D00121284601F011
:103AB000FDF9204670BD000040420F0070B5264D54
:103AC0000C4608040FD5E87D12F03CF9050006D03D
:103AD00008F012FC002802D0284612F00BF9012051
:103AE000C003604070BDA0070BD50021084608F058
:103AF00097F802214C40002825D1E87D12F0ACF95E
:103B00001FE0E00721D0686B808808F027FC0121C6
:103B10004C40002817D0A86A00280DD04368002B1D
:103B20000AD0686B002280889847A96A686B0022D7
:103B30004B68808803219847287D12F0DDF908F052
:103B400061F8204670BD0121D7E7600702D5042047
:103B5000484070BD002070BDDC4200207FB50446A7
:103B600080787F4D801F030006F0ADFF0AF4F7F761
:103B7000A41306F0F778B9F7A96A2046002907D000
:103B80000C68002CFBD0437B027B4189C01CA04702
:103B9000E3E060780026002847D1A079C00744D030
:103BA000686B002841D110220021684612F086F887
:103BB0006169002903D006226846103107E0A08819
:103BC0000DF016F80028E3D0811D0622684611F09A
:103BD0007FFF69468889A1794907C90F084369466B
:103BE000888108F0A9F9297E88420BD1A87D002898
:103BF00001D0FFF777FD5B48026B002A02D001215C
:103C00000820904708F098F9297E8842A87E02D1C2
:103C10000121084301E040084000A876214668469B
:103C200007F0FEFF002812D01526A86A002855D0FC
:103C30004368002B52D06278A08801219847002E5B
:103C40004CD0A96AA0884B683246032173E0022158
:103C5000E87D12F001F9002004B070BD60780628FC
:103C600017D1A0880CF0C4FF060012D0287C0128D0
:103C700004D0022808D003280BD114E07179A08861
:103C8000002208F06BF804E0A1883078052201F0EA
:103C90001DF9A86A002860D04368002B5DD06278C7
:103CA000A088022147E0002241201146000100F0D7
:103CB000F7F8E9E7E0780022211D00F055F8297EA9
:103CC00088424AD20621484325302246C0B20C32EF
:103CD000042112F075F9287D12F00EF93DE0287BE1
:103CE000002802D0A088697B28E028780028A088D6
:103CF00023D00CF07DFF06002FD0A07AC0070BD098
:103D00007079002808D0A189890505D46A46B11DBB
:103D100000F02AF8002814D022467179A0880832D1
:103D200008F01CF8A86A002817D04368002B14D0AC
:103D30000022A088114698470FE0052101F0B6F84F
:103D40000BE0A0880321F9E700E003E0A08800F081
:103D500031FA02E0A088FFF7EFFD01207CE70000C8
:103D6000DC42002030680020F0B52E4E85B0347E55
:103D700015460F46002806D0012804D0022811D08D
:103D800003284BD121E0084608F0A8F9317E04460B
:103D9000884243D2002D41D006223946284611F0F0
:103DA00097FE3BE000240BE0F16B20014018062257
:103DB0003946801D11F07EFE002826D1641CE4B235
:103DC000307E8442F0D3C4B21FE0002419E02046C4
:103DD000062148432330C0B26A46102112F0ACF8E5
:103DE00000280CD11022FF21684611F054FE002853
:103DF00005D13946684600F0C5FF002805D0641C8F
:103E0000E4B2307E8442E2D3DDE7307E844205D2E4
:103E1000002D03D02946204608F088F9204605B039
:103E2000F0BD0000DC420020F8B50E46194915250A
:103E3000194F884214D1002409E03246022120465D
:103E400008F094F8002800D00025641CE4B2387E05
:103E50008442F2D3002E1BD010480CF0E7FF17E08D
:103E60000CF0C6FE040012D060790022A11DFFF7FD
:103E70007BFF397E884204D23246022108F076F870
:103E80000025002E04D0204608F0D2F900E01425C9
:103E90002846F8BDFFFF0000DC42002031C20000D0
:103EA000F0B50746012080021546381A89B0002473
:103EB000BC4ABD4E030006F006FE2011181F262D39
:103EC000333A3F464D545B626970757CEFEEEDEC22
:103ED000EBEA89E9E8AAAAF3F6E5E4EB012971D156
:103EE000287802286ED8307059E10129F7D1287856
:103EF0000128F7D8707052E10129F0D12878042800
:103F0000F0D8B0704BE10129E9D128780128E9D82F
:103F1000F07044E11029E2D110222946A348ADE017
:103F20000129DCD128780128DCD8307137E101295A
:103F3000D5D12878707132E10429D0D12868904217
:103F4000D0D830622BE10129C9D128780228C9D8FC
:103F5000B07124E10129C2D128780128C2D8F071BA
:103F60001DE10129BBD128780428BBD8307216E1A5
:103F70000129B4D128780128B4D870720FE1102932
:103F8000ADD18A4810222946103077E00129A6D108
:103F900028780128A6D8B07201E101299FD128789C
:103FA000F072FCE004290DD1286890420AD87062B2
:103FB000F5E0002906D100F06FFD002803D00120B4
:103FC000F074ECE074E008F003F81CE007296FD10E
:103FD0000622691C684611F07BFD2878002269469C
:103FE000FFF7C2FE0546307E854239D200F054FD0F
:103FF000002805D0F26B0120290189188873CEE0D2
:10400000284607F0F7FF502011F05AFF96E00729E5
:104010004ED10622691C07A811F05AFD287800220B
:1040200007A9FFF7A1FE317E88421BD20621484333
:1040300005462135E8B26A461C2111F07DFF0028B3
:104040000ED15B48874201D1012000E0FF20694684
:10405000C876E8B26A461C2111F0B2FF307D4BE011
:1040600002249CE0B07E0028FAD05148874214D147
:104070000120F0764C4807222946403011F028FDF7
:104080008DE05EE07AE00EE00AE075E06FE067E068
:104090007BE04AE041E039E031E00020F0767EE06C
:1040A000002070757BE00027012070753D461BE005
:1040B00066E028460621484306462136F0B26A46A5
:1040C0001C2111F039FF00280CD16846C07EFF2862
:1040D00008D0FF206946C8760127F0B26A461C2145
:1040E00011F06EFF6D1CEDB22F48007E8542E0D3CB
:1040F000002F54D02C48007D11F0FEFE4FE0012926
:104100003ED1287801283BD8307348E0012937D1C7
:104110002878092834D8707341E0012930D12878F3
:10412000C11F09292CD8B07339E0012928D1717C2D
:1041300028787074002932D1012830D108F036F87F
:104140002DE001291CD1B17C2878B074002903D15D
:10415000012801D108F02AF8B07C01F0DCFE1EE055
:1041600001290DD1287803280AD8307417E00129D5
:1041700006D12878307512E00120BDE7012901D071
:1041800018240CE02878B07509E0192F00D367E7F0
:104190000229FCD12988384600F046FE0446204614
:1041A00009B0F0BD3F420F00DC4200203069002022
:1041B0001A040000FEB50646002001900290304629
:1041C0000CF016FD040017D0144FB879022813D054
:1041D000607901AAA11DFFF7C7FD0546387E85421B
:1041E0000BD2284607F0C2FF0246012000900823A8
:1041F0002946304607F078FEFEBDB879002807D082
:104200000128F9D161790022304607F0A7FDFEBDF3
:104210000521304600F04AFEFEBD0000DC420020D1
:10422000F7B516491525164E174688420FD10024BA
:1042300009E03A462046019908F004F8002800D029
:104240000025641CE4B2307E8442F2D313E00CF00B
:10425000CFFC00280ED04379811D00221846FFF7BD
:1042600083FD317E884206D23A46019907F0EAFF83
:10427000002500E014252846FEBD0000FFFF0000D9
:10428000DC42002010B51448007F80080DD0134890
:1042900006F03AFA124CFF28207006D000F066F9BA
:1042A00010480078002802D013E0182010BD0E4AF4
:1042B0001021022011F040FE0C4A1021032011F0C1
:1042C0003BFE04210A4A084611F036FE207800F031
:1042D00053FD002010BD0000306800208D43000019
:1042E0002C4300203A4300206F6900207F690020A2
:1042F000484300203EB5084C6D4624782C70687009
:10430000A970EA700622194601A811F0E1FB68467F
:1043100000F010FB3EBD00002C43002010B503F060
:1043200077FC13480078002801D0FF281DD11148E0
:1043300006F0EAF902F0B2F90F4806F0E5F900F0EC
:104340008FFB0E4806F0E0F901F0D4F90C4806F0B6
:10435000DBF905F063FF0B4806F0D6F9FFF748FAE2
:10436000094806F0D1F900F0F5FDFFF78BFF10BD0D
:1043700034430020E1670000954C000029580000FC
:104380002DA30000BD3A0000D550000070B50C46CA
:1043900008040DD50F48007811F0D4FC050004D0B6
:1043A00008F0C0F9284611F0A5FC0120C0030CE07C
:1043B00060040CD50421084A084611F001FE0748A4
:1043C000007811F099FD01208003604070BD00204D
:1043D00070BD00002C43002048430020F042002024
:1043E0007CB514460D4601F0A3FA002D02D02846F4
:1043F000FFF768F90A48002C00D0446009490978A1
:10440000002901D000207CBD0849074A0091019293
:104410000849074B0A780821007800F00DFA7CBDA6
:104420002C4300203A430020484300207F690020AD
:104430006F6900203943002038B5054B6C461B7866
:1044400023706070A170E270684600F0B7F938BD63
:104450002C43002070B50C460146032000020A1AC6
:1044600000252548130006F02EFB130B0D10171A1C
:104470001E2125292B2D3133393B3D3D35373D005C
:10448000407811E010221D4902E01C491022103131
:10449000204611F01DFB2DE0406920602AE01649FE
:1044A00006221E31F4E7C078207023E0124982789A
:1044B0002431EDE7114902791F39E9E7407AF3E742
:1044C000807AF1E70C4906221831E1E7C07AEBE780
:1044D000007BE9E7C0890AE0008A08E0007AE3E7A8
:1044E0004079E1E7192904D2084600F0ADFA2080AE
:1044F00000E00225284670BD344300206F6900208B
:10450000F8B5164CFF202070002565700320A070C0
:104510000126E670062765611920E781C001208227
:1045200020461F222946243011F0C8FB20460221D4
:10453000243001704670877025711F2200210848C1
:1045400011F0BCFB204606220021183011F0B6FB0A
:104550006571A571FF20E071F8BD000034430020B3
:104560005069002010B501F015FD10BD0449C87157
:104570000878FF2803D0012088710C20487070470C
:104580003443002010B504460CF032FB002805D05F
:1045900000781322214600F099FC10BD122010BDB6
:1045A0003EB50024069D01940095029401F033FC71
:1045B0003EBD0000F8B50E46070048D038880CF024
:1045C00017FB050041D0234AA96BD078022806D0FA
:1045D000012804D0287B082803D1002E01D0122402
:1045E00036E0002901D0112432E01B492C2011F0C3
:1045F0008BFA0446A863200025D02C22002111F05C
:104600005DFB388860801C22391D201D11F060FA86
:10461000022020700F483A880178287B082810D0A3
:104620000020231D05F02FFF0446002E03D0314645
:10463000284610F04FF8002C0AD0284608F0F6F86B
:1046400006E00120EDE7132402E0142400E0022438
:104650002046F8BD9E43002014470000FFB51F48C8
:1046600081B0C0781E4617460D46022818D0012892
:1046700016D0002F30D001980CF0BAFA040029D0DF
:10468000E06A002801D011F093FA1C21384611F09D
:104690002BFAE062011E1BD0207B082803D00DE01E
:1046A000122005B0F0BD002E08D0887E00900B4689
:1046B00012330A8A019810F055FB00E0002021799E
:1046C000002D01D0062200E0042211432171E8E709
:1046D0001320E6E71420E4E70220E2E79E430020EF
:1046E00010B50548C078000701D5044800E0002057
:1046F00008F01AFF10BD00009E430020BC430020BC
:1047000070B51A4C05460121207808F0B5F8184814
:10471000C1780A20014223D02570164808F0FEFE19
:10472000606800281AD1207800281DD000010721D8
:1047300011F0EAF96060002810D021780A01002108
:1047400011F0BCFA0020FF21626803E00301401C65
:10475000D154C0B223789842F8D305E0132070BD3D
:104760000020207008F0DAFE002070BDB043002069
:104770009E4300209069002009490020087048608D
:10478000886009480749016008494160084981601B
:10479000034808490C300160074941607047000038
:1047A000B043002061C60000906900209DD0000049
:1047B000F9CF000041C5000079C5000038B51A4D99
:1047C0000446A868002801D0112038BD17480A21E6
:1047D000C078084225D01649042011F095F9A86048
:1047E00000281CD00422214611F072F9052000F0A7
:1047F0002BF90546062000F027F90246E07800284C
:1048000000D001200B498978002901D0012300E064
:1048100000230090A078294601F09CFB38BD1320AE
:1048200038BD122038BD0000B04300209E43002058
:104830001D470000DC680020F8B50224079F1D46D4
:104840001646042919D004DC012907D0022945D1D4
:104850000BE008291BD00C2940D129E000F05CF9BD
:1048600004003BD100F0B0F938E000F055F9040045
:1048700034D13046FFF744FF30E000F04DF904003A
:104880002CD13A462846069900F080FA20E000F044
:1048900043F9040022D13A462846069900F076FAF8
:1048A0003046FFF72DFFFFF71BFF05F0C9FC15E0B1
:1048B00000F032F9040011D13A462846069900F07A
:1048C00065FA3046FFF71CFFFFF70AFF05F0B8FC5A
:1048D00000F07AF900F060F905F08CFD2046F8BD93
:1048E00070B5104C2168002919D00978814214D183
:1048F0000D4D0221287811F05FFC0C4800264680FF
:104900002878042111F058FC0948467121680320D9
:104910004870002001F003FB70BD032070BD122021
:1049200070BD0000B04200209E430020C443002020
:10493000DC680020F0B504463D488BB0C078000725
:1049400072D53C488068002801D010246DE000F04A
:10495000A3F839490978884264D2384E3068002873
:1049600001D0112461E036490A2011F0CDF8306001
:10497000002854D00A22214611F0AAF83068407865
:10498000002805D00B2000F05FF80A900C2004E00E
:10499000092000F059F80A900A2000F055F8044662
:1049A00028488078002801D0012500E0002510204B
:1049B00000F04AF807460F2000F046F800900D205E
:1049C00000F042F801900E2000F03EF8029008201E
:1049D00000F03AF80890072000F036F809903168A6
:1049E000C878091D07F0F1F80346019A029900986A
:1049F0000491069007970592326809990898161D48
:104A00000096029103900195927821460A9801F050
:104A100021FA040009D0032007F022FF05E0132447
:104A200003E001E0152400E0122420460BB0F0BDA5
:104A30009E430020B043002010450020B4420020D7
:104A40001C470000DC680020192801D30248704789
:104A500002494000085A7047FFFF0000FC68002030
:104A600010B5044600F01CF800F0F4F8FFF784FEDF
:104A7000FFF746FD0649FF23CB7000228A700A71BA
:104A80000448052143700470204601F0F1FE10BD7A
:104A9000DC6800209E43002010B50CF0ABF910BD7F
:104AA0001A4800210170417041608160C16001615C
:104AB000416181611648B422018042800122920343
:104AC0008280A022C28002811022428182815023F2
:104AD000C381038242828282C2827D2302831B01C0
:104AE00043838183C18301840F234384094B8384DF
:104AF0000723C3840285012242857E22D243828518
:104B0000C1850186491E4186704700009C420020F5
:104B1000FC68002080BB000070B50E4605462022D0
:104B20000021094811F0CAF8074C0848E570C67022
:104B300001F026FA002803D000202070122070BD5A
:104B40000121217070BD0000DC6800209E43002020
:104B50007FB504460D4608460CF04AF8002817D0E9
:104B60000C48844212D210220021684611F0A6F8A7
:104B700069460C70200A4870200C8870200EC8709E
:104B80002946684605F090FB04B070BD0220FBE7A3
:104B90001220F9E740420F0010B50848C0784007DE
:104BA00007D5074808F0CCFC00200649C043C88060
:104BB00010BD002008F0C4FC10BD00009E43002082
:104BC000D4430020DC680020F8B51E4C0025606846
:104BD000002802D010F0ECFF6560E068002802D0E9
:104BE00010F0E6FFE560184E0527F078384224D033
:104BF000164808F09FFCF07838421CD01449202059
:104C000010F082FF6060002815D02022002111F0F2
:104C100055F80F492020491E10F076FFE06000286B
:104C200005D02022002111F049F80020F8BD60686D
:104C300010F0BEFF65601320F8BD002008F07AFC7C
:104C4000F3E70000C44300209E4300209C6900203D
:104C5000164700000948FF21017000214180416092
:104C60008160C16007480649016007494160074902
:104C7000816002490648103108607047C443002033
:104C800099CB00009C69002029CC000041D800008D
:104C900009CB0000FEB5354F354D0C4608041FD535
:104CA000387811F04FF8061E17D03078A22806D0B9
:104CB0007D78304608F038FB00280AD102E02C4805
:104CC000C578F6E7FF2D04D03146284611F072F87A
:104CD000E6E7304611F00EF8E2E70120C00341E0BC
:104CE000E0070126234900280AD04868002804D09C
:104CF0004168002901D00020884720467040FEBD51
:104D0000A00709D5C868002804D04168002901D04F
:104D100001208847022025E0600725D56879002812
:104D20001FD0401E0006000E68711AD14869002885
:104D300008D02E71C868002804D04168002901D02D
:104D4000012088476946E86805F0F5F9684608F0EB
:104D5000D5F81120FFF778FE68713878042111F03A
:104D60002BFA04206040FEBD0020FEBD9E430020C3
:104D7000DC6800209C420020014948707047000018
:104D80009E43002010B505F00FFB10BD70B5154C0B
:104D90000E46626121610546E0601022FF21304627
:104DA00010F079FE012806D010220021304610F0C4
:104DB00072FE012803D1102120690FF07DFA102224
:104DC000FF21284610F067FE012806D0102200219E
:104DD000284610F060FE012803D11021E0680FF092
:104DE0006BFA70BDDC6800207FB50C4605460BF001
:104DF000FFFE002814D0826B007B042802D0122012
:104E000004B070BD002A00D0947D684621460FF0A2
:104E1000E5FF044B6A46022128460FF061FFEFE7E9
:104E20001420EDE7CF52010070B50C460546192855
:104E300002D20848844201D1022070BD112D04D154
:104E40003C20604380B201F07DF8034968000C52B9
:104E5000002070BDFFFF0000FC68002070B50E460A
:104E600011491546CB78022B17D0012B15D0002DF8
:104E700017D00BF0BDFE040011D0002E03D0207916
:104E8000022108432071204610222946183010F0D4
:104E90001FFE2869A062002070BD122070BD142082
:104EA00070BD022070BD00009E43002038B50C4646
:104EB00005460BF09DFE002806D068460470694642
:104EC00028460FF0FBFE38BD142038BDF7B5054667
:104ED0001E4812261E4F0C46814208D1B868002891
:104EE00032D00268002A2FD028469047FEBD1748CE
:104EF000401C844219D1B868002806D00268002AF4
:104F000003D028469047002806D02846029906F08C
:104F10004FFE060005D017E07D7002983870002023
:104F2000FEBD7D70029838700EE008460BF060FE02
:104F3000002809D00078A84201D00320FEBD2046F9
:104F4000029900F03AFFFEBD3046FEBDFEFF0000B4
:104F50009C420020F8B5044600F044FE00F046F8FC
:104F6000114F134EFC701149304600F027F81149DB
:104F7000C02010F0C9FD00221346B8619401065309
:104F8000002124180C254D436519AB80491CEB60AA
:104F90000529F7DB521C032AF0DBF8787870064805
:104FA0000BF05CFFF8BD000088440020EA69002097
:104FB000FFFF00000147000099E8000070B50A4CAF
:104FC0000025A04208D1002082008C525218401CBB
:104FD00095700328F8DB70BD09F02FFC0028FAD08B
:104FE0000480857070BD0000FFFF0000F0B51E4911
:104FF00020200870FF2048708870C8700126CE807D
:1050000000200881C86008610B4602241C334861F7
:105010001C70164A5A600A46087124321470144DE6
:10502000556016725081D3601474124F15466F612B
:105030002E766883E9612021545413460E4D591889
:105040005D6208725885D862302154540B4C03239A
:10505000511854630B725087094ACA600249094AC1
:10506000643105C10860F0BD8844002097630100E9
:10507000996301009F630100B7630100A56301000C
:10508000EA69002071F30000F8B50E46074606995C
:1050900000240798002902D00B242046F8BD022BDB
:1050A00001D00D24F9E7517812780D0215432946F5
:1050B000814301D08024F0E73846F16800F042F9DE
:1050C000A842EAD02A463846F16800F0BFF9044603
:1050D000E3E7000070B50D4608041AD50E48C07805
:1050E00010F030FE04000FD02078B02809D12046FF
:1050F00009F06AFD002804D020462179083000F02C
:1051000069FD204610F0F6FD01212846C9034840FC
:1051100070BD002070BD000088440020FFB585B040
:1051200000200F9F0090087A0E9D1C460E46C00678
:105130000BD5079809F07AFB03007DD00A2231468F
:10514000059898470090002816D13078022815D08D
:10515000079809F091FB0028EFD0006884460028EA
:10516000EBD01199109822460097029101902B469E
:10517000314664460598A04709B0F0BD7068292201
:1051800041780078090201431202881A91427CD0CA
:105190000BDC6948081A13D0012811D0022817D057
:1051A0000328D5D1002F53D09BE001287ED00228C0
:1051B0006DD0032877D00428CAD1002F68D090E0A2
:1051C000002F6FD1F068017829800278416884E06F
:1051D000002F67D1F068417800780F020743042060
:1051E0002880F06804A900782070F068407860702A
:1051F000384600F0A3F9060022D06846028A03ABC5
:105200004E493046F76800F0F7F900280AD13378A4
:1052100002214B487268FDF7ECFB002802D1474899
:1052200069468881387802280CD10222201D7968CD
:1052300010F04EFC288800E07CE0801C288001E013
:105240006846878168468089A070000AE0706FE038
:1052500001202880F0680021007820707089401CAF
:1052600080B200F06BF9002813D0298802788918E1
:10527000891C2980817A61704189090AA1700278AC
:105280004168E01C10F024FC52E00CE00EE026E047
:105290003BE028880422001D28800021601C10F0BB
:1052A0000DFD45E01DE0002F27D01AE0F06810F05A
:1052B00096FF80B2B84201D207205DE7874201D154
:1052C000002006E01099C919814201D3C01B00E0FB
:1052D0001098288082B2F068C1192046D2E7002FCA
:1052E00001D00B2048E7F168059800F02BF8022167
:1052F00029802070000A60701AE002202880F0687F
:1053000000782070F0684078F5E70721F068298080
:1053100001782170417861708178A1704188090A13
:10532000E1700179217181796171C088000AA071F1
:10533000009821E70E201FE700280000FFFF000073
:105340009B63010010B509F078FA002800D080783E
:1053500010BD00000149887070470000884400209B
:10536000F8B50C4C0746A07815460E46FF280FD01E
:105370000A2010F0ABFC01000AD0B12008704F8069
:10538000002048700871CE800D81A07810F012FDC9
:10539000F8BD00008844002070B50C46054606495B
:1053A000FFF7D0FF800704D52146284600F0CCFA4D
:1053B00070BD012070BD0000EA6900200EB56B468B
:1053C0001A81FE23002201930092022302AA00F018
:1053D00001F80EBDFFB583B0174602A90D9E0498D3
:1053E00000F0ACF804002AD06846008909F044FABD
:1053F000002822D04568002D1FD00C9801960090FF
:105400003A462146069B0398A847050018D1FE2E70
:1054100016D02078022813D16068417802780802FB
:105420000949104388420BD17878397802020A433F
:1054300004990398FFF794FF02E00E2500E0012590
:10544000284607B0F0BD00000229000070B51446E0
:105450000E46054609F0F1F9002806D13146054807
:1054600009F0EBF9002803D005808470002070BD9E
:10547000112070BDFFFF000010B50178B0290BD1DD
:105480004178002908D10179122906D01B2903D1BE
:105490004088012101F0F6F810BD417C0129F7D0C8
:1054A00010BD0000FFB5002489B01E4615460F460A
:1054B000022A05D0102D03D0022420460DB0F0BDE5
:1054C000002FFAD007A9099808F040FC0400F4D195
:1054D000012069468880801EC8800D7202A82A4675
:1054E0003946013010F0F4FA01A9099808F0C2FB1E
:1054F0000400E2D1034B072201A9009607980AF0A5
:105500007BF8DAE7C12C0000FEB50E4615460746CB
:1055100001A908F01BFC04000CD131463846FDF708
:10552000AFFA040006D1044B0322314600950198DE
:105530000AF062F82046FEBD452C0000F0B5104A86
:10554000536919E09C686589A84214D39E88721932
:10555000824210D900220CE017013F197F8987424F
:1055600005D1002900D00D8010010019F0BD521C9A
:1055700092B2B242F0D31B68002BE3D10020F0BD01
:1055800088440020FFB51B4883B0002345692DE007
:10559000AE68002470890190A888009016E021016F
:1055A00088194289039FBA420ED3049FBA420BD88E
:1055B000069A002A0FD01346715C4068059AFDF7E1
:1055C00018FA002807D10023641CA4B20098844272
:1055D000E5D3002B09D00C98002802D00C99019833
:1055E00008802001801907B0F0BD2D68002DCFD1B3
:1055F0000020F8E788440020FEB5174600256A46DB
:105600009580044640891D4A1E46904208D001AA52
:105610000092401C237880B26268FFF7B3FF054612
:105620002378022116486268FDF7E3F9002807D1C4
:105630002378022113486268FDF7DBF9002801D0C6
:1056400060890EE0237802210F486268FDF7D1F9E6
:1056500000280DD0002D03D068468088B84203D0C2
:10566000384609F0A9FF04E06889401E80B200E0D6
:105670006089002E00D030802846FEBDFFFF00006C
:10568000996301009B6301009F630100FFB583B034
:105690000E461D46174601A9039808F0A1FB040019
:1056A00022D1002F0FD0694608803088FFF746FFCF
:1056B0006946088800F084F90146012203980BF03E
:1056C0006BFA002811D131460398FDF781FA0400E6
:1056D0000AD1FF2D08D0019B1E22194604489B1CAD
:1056E00009F075FF0198C570204607B0F0BD0000B5
:1056F00021F4000010B50446FDF780FA0749FF20A9
:10570000087048700020486088608C700421204632
:1057100001F0AEF800F044F810BD0000C8420020CF
:10572000F8B5184F282138784843174910F0ECF99C
:10573000164E0028706023D00024154D12E028205A
:10574000716860434018058000218170FF22427219
:10575000027281722422115418220C3010F0AEFA19
:10576000641CE4B238788442E9D30A4808F0D8FFD0
:105770000948FDF781FC09480BF070FB0020F8BDDB
:105780001320F8BD1045002006470000D442002039
:10579000FFFF000019DB0000FBDA000041DA000027
:1057A00070B500200D4D0E4B0446FF2206214143EB
:1057B0005D52C918CA708A70401C0C710328F5DB51
:1057C0000120C0431880074808F0B0FF0648FDF7E5
:1057D00059FC06480BF042FB002070BDFFFF0000A3
:1057E000D869002069F400004BF40000A1F3000028
:1057F000F8B51C4615460E4607460BF0F9F9002889
:105800000DD0017B074808292B46324639460094C3
:1058100003D0007808F0FAFAF8BD4078FAE70120E2
:10582000F8BD0000C8420020F0B587B00F4608045C
:1058300070D5394EB07810F085FA040064D0207825
:10584000A0285ED10120694608732046FDF769FA59
:10585000050041D16846807800280BD0142809D073
:10586000152807D01A2805D01C2803D001461F3957
:1058700020290BD8B16800292ED069464978002923
:105880002AD169460874062008751FE0C0070AD0AF
:105890007368002B05D0608803AA694698470546BF
:1058A0001AE0062518E0B368002B06D0608803AA2A
:1058B00069469847050001D10EE006256846407804
:1058C000002809D16946887808740D75002048823F
:1058D000608804A9FDF7C8F86846007B002804D05A
:1058E000A068002801D010F063F9002D05D16846AA
:1058F0008078122805D01B2803D16088012100F090
:10590000C1FE204610F0F6F90120C003784007B030
:10591000F0BDFFE70020FAE7C842002010B508F00C
:10592000B1FE10BD10B51346002208F0C5FE10BD33
:105930000149487070470000C842002001490870C2
:1059400070470000D4420020FEB50E4607460025F1
:105950000223194A194901200095FFF713FE04009C
:1059600027D023200090002304221D21384600F078
:10597000EBF8029000281AD06089694688800420DC
:10598000C880029901200870029833464570029938
:10599000FF20887002990022C87001A93846FFF7DD
:1059A00075FE040006D0029810F002F902E01524FA
:1059B00000E001242046FEBDB7630100FFFF0000A8
:1059C00000B508F0B3F9002801D0807800BD1020A0
:1059D00000BD00B508F0AAF9002800D0008800BD7D
:1059E0007CB50D4604460BF003F929462046FDF729
:1059F0004FFB002812D16846858020460BF0F8F84E
:105A000000280BD0027B01A90748082A009106D084
:105A10007F2300222146007808F0F8F97CBD7F231F
:105A2000002221464078F7E7C842002010B504461E
:105A30000B4688060DD51046FFF7C2FF014601222E
:105A400020460BF0A9F8052801D00F2800D1082026
:105A500010BD882003420CD01046FFF7B1FF01466D
:105A6000180701D5012200E0002220460BF094F82F
:105A700010BD880701D5002010BD032010BD10B552
:105A80000346C8060DD51046FFF79AFF01460122CE
:105A900018460BF081F8052801D00F2800D1082006
:105AA00010BD480705D51046FFF78AFF01460122C1
:105AB00006E0480608D51046FFF782FF014600229F
:105AC00018460BF069F810BDC80701D0002010BDC2
:105AD000022010BD70B51D4603460C4688060DD544
