:020000040000FA
:1000000000800020D519000035110000DF19000024
:1000100000000000000000000000000000000000E0
:10002000000000000000000000000000DF190000D8
:100030000000000000000000E1190000E3190000CA
:10004000E5190000E5190000E5190000E5190000B8
:10005000E5190000E51900008B250000E5190000F6
:10006000E5190000E5190000E5190000E519000098
:10007000E5190000E5190000E5190000E519000088
:10008000E5190000E5190000E5190000E519000078
:100090000348854602F072FB00480047ED0000006F
:1000A0000080002010B52248806A012149020843DF
:1000B0001F4988620121080200F0FAFE0321012095
:1000C000400200F0F5FE01F0D1FB10BD70B5054611
:1000D0000E46002404E0295D16A002F083FB641C98
:1000E000B442F8D315A002F07DFB70BD022000F0F1
:1000F0004FF81021012001F0FCF9052001F084FBEC
:10010000FFF7D0FF0A48403841780DA002F06AFBA3
:1001100010481149086011481149086001F0F6FBC8
:100120000620012181400F4A116000BF00BFFEE799
:100130008010004025303278200000000D0A0000B9
:10014000537461727420404368697049443D25309E
:1001500032580A008000002004400020C000002027
:100160000840002000E100E010B55720FB4908706E
:10017000A82008708820F949403908810020F749F3
:1001800008700A2001F02FFB012001F03DFA10BD9C
:1001900000B5030002F036FB0D081A2C37414C560F
:1001A000606A75808B96A1005721EC4A1170A821D6
:1001B0001170EA492039C97B04229143E74A203A69
:1001C000D173C821E54A403A118187E05721E34ABB
:1001D0001170A8211170E1492039C97B0422114313
:1001E000DE4A203AD173C821DC4A403A118175E0D9
:1001F0005721DA4A1170A82111705121C900D74A3C
:10020000403A11816AE05721D44A1170A821117037
:10021000D349D24A403A118160E05721CF4A117048
:10022000A821117081218900CC4A403A118155E002
:100230005721CA4A1170A82111708821C74A403A33
:1002400011814BE05721C54A1170A821117002217C
:10025000C24A403A118141E05721C04A1170A82199
:1002600011700421BD4A403A118137E05721BB4A41
:100270001170A821117093218900B84A403A118168
:100280002CE05721B54A1170A8211170B4494D31A5
:10029000B24A403A118121E05721B04A1170A82199
:1002A000117095218900AD4A403A118116E057211D
:1002B000AA4A1170A82111704B21C900A74A403ADF
:1002C00011810BE05721A54A1170A8211170A44992
:1002D0005C31A24A403A118100E000BF00BF00211A
:1002E0009E4A117000BD10B59C4840380089C4B2C8
:1002F000C0202040802801D19A4810BDC020204055
:10030000402805D1E106C90E974802F0E1F9F4E76B
:10031000C0202040002805D1E106C90E914802F016
:10032000D7F9EAE77D200002E7E757218B4A1170F1
:10033000A8211170002808D188494039098952152F
:100340009143864A403A118108E08449403909893D
:10035000012252021143814A403A118100217F4A11
:100360001170704757217D4A1170A8211170002823
:1003700008D17A492039C97B04229143774A203A2F
:10038000D17307E075492039C97B04221143734AB0
:10039000203AD1730021714A117070476F4A917BE6
:1003A000FC220A4083079B0F1A43114657226B4BCE
:1003B0001A70A8221A701A46917300221A70704798
:1003C000664A917B8F220A4003011A43D1B2572219
:1003D000624B1A70A8221A701A46917300221A7082
:1003E00070475E4A203A917BFC220A4083079B0FAC
:1003F0001A4311465722594B1A70A8221A70574AAD
:10040000203A917300221A707047544A203A917B27
:100410000A07120F03011A43D1B257224F4B1A7029
:10042000A8221A704D4A203A917300221A70704720
:10043000F0B589B000200290484840380089C4B225
:10044000C0202040802805D1484807900220C043A2
:1004500004903EE0C0202040402816D1E106C90E9D
:10046000434802F01FF9012189034018C00B07908F
:10047000E106C90EE206D20E521E2423DB43981A6F
:1004800002F026F900B2049023E0C02020400028AA
:100490001BD1E106C90E374802F01AF90121890380
:1004A00040180190C017410C01980818C01307901C
:1004B000E106C90EE206D20E521E0223DB43981A51
:1004C00002F006F900B2049003E005200790002036
:1004D000049007980005000D089020482038868970
:1004E00000270020039057201C490870A82008709E
:1004F0000120887400BF572018490870A820087090
:100500001648203886810020087000BF1348807C80
:10051000022108400028F9D01048008A069000BF48
:100520000E48807C022108400028F9D100BF0B480A
:10053000807C022108400028F9D00848008A0690F3
:100540000298401CC0B2029008990698401A05B261
:10055000002D11D1002009B0F0BD00004010004076
:10056000020200000048E80100389C1C1313000040
:1005700000180D8F0068890928467843002832DA70
:100580000398012806D00398401C002802D0039845
:10059000002828D1002F03DA781EC04307B202E0FA
:1005A000681EC04305B2BD4214DD5720FE490870E5
:1005B000A8200870FC492039059888810020FA4954
:1005C00008707D21C90079430846089902F080F837
:1005D00080B2C0E77D21C90069430846089902F04E
:1005E00077F880B2B7E72F4605962846049902F0BF
:1005F0006FF800B203900398301A86B205988642CD
:1006000006D1002D02DD701C86B201E0701E86B29C
:100610000298142800DA6EE7FF209CE7FFB585B04A
:1006200004462646069D002003901FE0701EFF2111
:10063000913102F04DF800290DD0701E642102F0B6
:1006400047F800290AD0771EF817800FC0198010CC
:100650008000381A02D1FF216F3101E0FF216E3195
:100660000398081880B20390701E86B2CF48864265
:10067000DCDC35E0A81E012819D1FF21913120468C
:1006800002F026F800290DD06421204602F020F85F
:10069000002909D02746E017800FC019801080007C
:1006A000201A01D1012000E000201C3012E0A81E19
:1006B000062807DDC007C00F002801D01E2009E072
:1006C0001F2007E0A81EC007C00F002801D01F2070
:1006D00000E01E200399401880B20390681E85B286
:1006E000012DC7DC0798401E0399401880B2039083
:1006F0001821089801F0ECFFE120C00041431E22C0
:100700000E98504309180F9FF80FC0194010081891
:1007100080B202900F98C007C00F002802D00120BD
:10072000C00300E0002001900298049004980104A6
:1007300001980143049157209B490870A820087034
:10074000994940390398486397482038407C802174
:1007500008439549203948749349403904984863BF
:1007600091482038407C402108438F492039487403
:1007700000208D49087009B0F0BDFFB583B0044674
:100780000D4689484038C06B8604B60C8648203830
:10079000408B019084482038008B009001984100E4
:1007A0000122D2030098904201DB012000E00020EA
:1007B000081802907D4820801EE02088FF2191319A
:1007C00001F086FF00290DD02088642101F080FF10
:1007D00000290AD02788F817800FC01980108000E0
:1007E000381A02D1FF206F3001E0FF206E30301A3E
:1007F00086B22088401C20802088FF21913101F0A2
:1008000067FF00290DD02088642101F061FF0029D5
:100810000AD02788F817800FC01980108000381A76
:1008200002D1FF206F3001E0FF206E30B042C4DD06
:100830000020288035E02888012819D12088FF2150
:10084000913101F045FF00290DD02088642101F08D
:100850003FFF002909D02788F817800FC0198010A2
:100860008000381A01D1012000E000201C3013E084
:100870002888062808DD2878C007C00F002801D086
:100880001E2009E01F2007E02878C007C00F0028BD
:1008900001D01F2000E01E20301A86B22888401C9C
:1008A00028802888012819D12088FF21913101F062
:1008B0000FFF00290DD02088642101F009FF0029D5
:1008C00009D02788F817800FC01980108000381AC7
:1008D00001D1012000E000201C3013E02888062808
:1008E00008DD2878C007C00F002801D01E2009E0CD
:1008F0001F2007E02878C007C00F002801D01F2064
:1009000000E01E20B04296DD2888401C2880701C24
:1009100081B205980180E1210901029801F0C2FE2F
:1009200081B206980180E1210901029801F0BAFE26
:100930000F463C21384601F0B5FE0C9908803C2159
:10094000029801F0AFFE0D98018007B0F0BD57216D
:10095000154A1170A8211170134940394863124992
:100960002039497C402211430F4A203A517400211A
:100970000D4A1170704700BF0B494039886B896B75
:100980008142F9D170475721074A1170A82111708F
:1009900005492039497C17229143034A203A517472
:1009A0001146497C102203E040100040E40700009B
:1009B00002431143304A517400212F4A20321170F2
:1009C000704700B50346FFF7D6FFC2182B48824296
:1009D00000D9121A90B2002802D001200004121887
:1009E0005720254920310870A82008702248203857
:1009F00042632148407C202108431F49487400205D
:100A00001D492031087000BD0021002802D120229C
:100A1000114303E0012801D1102211435722164B44
:100A200020331A70A8221A70134A527C8A43124B40
:100A30005A740022104B20331A7070470146002967
:100A400004D10D48007C8022104070470A48007C89
:100A500040221040F9E7002802D0012808D103E025
:100A60002021054A117404E01021034A117400E0AA
:100A700000BF00BF70470000201000400000C0A869
:100A8000F84A002105E013780370521C401C4B1CEF
:100A9000D9B20829F7DB7047F24A002105E0137844
:100AA0000370521C401C4B1CD9B20629F7DB70475F
:100AB00038B504460025E005C00D002801D001200E
:100AC00038BD112100910020E7490870E7490870FE
:100AD0008020E7494872684600781130C1B2009121
:100AE000E44800790007000F0D2802D0012000F033
:100AF0008BFD684600781130C1B20091DD488079E5
:100B00008007800F002801D00220D9E768460078CE
:100B10001130C1B20091D74880798007800F00283A
:100B200006D168460078442802D15720CE49087083
:100B3000684600781130C1B20091CE4880798007B4
:100B4000800F00280AD168460078552806D1C6488B
:100B50000078572802D1A820C44908706846007858
:100B60001130C1B20091C0480078572814D1BF4855
:100B70000078A82810D16846007866280CD1BC48B7
:100B800044607D20C002844203D28820B849487264
:100B900002E08420B6494872684600781130C1B23C
:100BA0000091B148007857280DD1B0480078A828A6
:100BB00009D168460078772805D1A620AC4908728B
:100BC00008464089C5B200200090A7490870A7498F
:100BD00008708020A6494872402D01D003206FE79D
:100BE00000206DE7FEB504460D4626462F46002040
:100BF0000190A007800F002801D00120FEBD112127
:100C00000091002098490870984908708020984900
:100C10004872684600781130C1B200919548007959
:100C20000007000F0D2802D0012000F0EDFC6846FF
:100C300000781130C1B200918E4880798007800F12
:100C4000002801D00220D9E7684600781130C1B2EF
:100C5000009188488079C007C00F002806D16846F7
:100C60000078442802D157207F49087068460078F0
:100C70001130C1B200917F488079C007C00F0028B1
:100C80000AD168460078552806D177480078572859
:100C900002D1A82075490870684600781130C1B2A9
:100CA000009171480078572812D170480078A82820
:100CB0000ED16846007866280AD17D20C0028442A1
:100CC00003D288206A49487202E084206849487249
:100CD000684600781130C1B2009163480078572807
:100CE00011D162480078A8280DD16846007877288D
:100CF00009D15F48466007609A205D49087208463E
:100D00004089C0B2019000200090574908705749AF
:100D100008708020564948720198402801D003206D
:100D20006CE700206AE7F7B584B004460F46254615
:100D3000039700200290A007800F002802D0012016
:100D400007B0F0BD112101910020474908704749C3
:100D50000870802046494872684600791130C1B257
:100D60000191444800790007000F0D2802D00120AE
:100D700000F04AFC684600791130C1B201913D484B
:100D800080798007800F002801D00220D8E76846CC
:100D900000791130C1B2019136488079C007C00F87
:100DA000002806D168460079442802D157202E49F0
:100DB0000870684600791130C1B201912D488079E0
:100DC000C007C00F00280AD168460079552806D10F
:100DD00025480078572802D1A82024490870684681
:100DE00000791130C1B201911F480078572812D103
:100DF0001E480078A8280ED16846007966280AD1D6
:100E00007D20C002844203D288201949487202E042
:100E1000842017494872684600791130C1B20191A7
:100E20001148007857282DD110480078A82829D1DA
:100E300068460079772825D100261FE00C484560D8
:100E4000039800680A4908600398001D03909A20DF
:100E500008722D1D08464089C0B2029002984028B1
:100E60000AD00EE0080604000040002001400020E7
:100E70000018004020100040301D86B206988642BF
:100E8000DCDB00BF002001900649087006490870AD
:100E90008020064948720298402801D003204FE77D
:100EA00000204DE7004000200140002000180040D5
:100EB00000B50B0001F0A6FC050412202E384200FC
:100EC0009B4A526B82439A4B5A631A46126B824377
:100ED0001A631A46126A82431A6230E0944A526BCD
:100EE0008243934B5A631A46126B02431A631A46A3
:100EF000126A82431A6222E08D4A526B02438C4B83
:100F00005A631A46126B82431A631A46126A824364
:100F10001A6214E0864A526B8243854B5A631A4622
:100F2000126A02431A620AE0814A526B0243804B02
:100F30005A631A46126A02431A6200E000BF00BFF9
:100F400000BD00B50B0001F05DFC05041424344025
:100F50004C00774A403252698243754B40335A61A4
:100F60001A46126982431A611A46126882431A604D
:100F700038E06F4A4032526982436D4B40335A61C8
:100F80001A46126902431A611A46126882431A60AD
:100F900028E0674A403252690243654B40335A6148
:100FA0001A46126982431A611A46126882431A600D
:100FB00018E05F4A4032526982435D4B40335A61C8
:100FC0001A46126802431A600CE0594A40325269CC
:100FD0000243574B40335A611A46126802431A6063
:100FE00000E000BF00BF00BD002906D001290ED0DF
:100FF000022916D0032928D11DE04D4A928A824346
:101000004B4B9A821A46D26A0243DA621EE0484A81
:10101000928A8243464B9A821A46926A02439A62A5
:1010200014E0434A928A0243414B9A821A46D26A9A
:101030000243DA620AE03E4A928A02433C4B9A82B9
:101040001A46926A02439A6200E000BF00BF384B22
:1010500098831A46128A02431A827047002906D0E2
:10106000012911D002291CD0032934D126E0304AAD
:10107000D28A82432E4BDA822D4A4032D268024312
:101080002B4B4033DA6027E0294AD28A8243284B2F
:10109000DA82274A403292680243254B40339A60F5
:1010A0001AE0234AD28A0243214BDA82204A403294
:1010B000D26802431E4B4033DA600DE01C4AD28AEC
:1010C00002431B4BDA821A4A403292680243184BA1
:1010D00040339A6000E000BF00BF154BD8831A462A
:1010E000528A02435A827047002807D0104A803A39
:1010F000128B0A430E4B803B1A8306E00C4A803A5F
:10110000128B8A430A4B803B1A837047002807D012
:10111000074A803A528B0A43054B803B5A8306E0CC
:10112000034A803A528B8A43014B803B5A83704773
:10113000801000400020CF49897A08221140002900
:101140000BD15721CB4A40321170A8211170C949E7
:10115000897A08221143C74A91725721C54A403201
:101160001170A82111700521C24A1181C149203195
:101170000988032252029143BE4A20321180BD49A0
:10118000897A10221143BB4A91720021B94A403238
:10119000117017E0B74920318979C907C90F0029B3
:1011A00001D0002000E0401C7D210901884209D9BE
:1011B0005721B04A40321170A8211170012191715C
:1011C00000211170E6E770B5AA482030847BA94859
:1011D0004030857B2846FC210840C51CA5482030AE
:1011E000008BA549884203DD2046FC210840441CB1
:1011F0005720A04940310870A82008709D48C07B46
:10120000082188439B49C87300209A4920310871FE
:1012100008468473974840308573052095490881B6
:101220000020944940310870944800690421084323
:101230009249086130BF00208E494031087001207A
:1012400000F0E2F970BD8B4A2032907B894A40322F
:10125000917BFC220A40D11C864A2032128B864B9D
:101260009A4202DDFC220240501C5722814B40333F
:101270001A70A8221A707F4AD27B08231A437D4B2A
:10128000DA7300227B4B20331A711A469073794A25
:10129000403291730522774B1A810022754B4033FF
:1012A0001A70764A126904231A43744B1A6130BFCC
:1012B0000022704B40331A7057221A70A8221A70FD
:1012C00001226C4B20335A711A710022694B403352
:1012D0001A7000BF00BF5722664B40331A70A82215
:1012E0001A700D22634B20331A710022614B403378
:1012F0001A70704710B55F4B2033997B5D4B4033BC
:101300009A7BFC231340DA1C5A4B20331B8B5A4C1C
:10131000A34202DDFC230B40591C5723554C40349B
:101320002370A8232370564B0343524C2034238050
:101330000023504C4034237057232370A82323707C
:1013400000234C4C2034237123469973494B40337E
:101350009A730523474C23810023464C4034237065
:10136000464B1B6904242343444C236130BF0023B4
:10137000404C4034237057232370A823237001234B
:101380003C4C20346371237100233A4C4034237069
:1013900000BF00BF5723374C40342370A82323706D
:1013A0000D23344C203423710023324C40342370FD
:1013B00010BD10B52F4B2033997B2E4B40339A7BB9
:1013C000FC231340DA1C2B4B20331B8B2A4CA342EB
:1013D00002DDFC230B40591C5723264C403423705C
:1013E000A823237009231B030343224C20342380AA
:1013F0000023204C4034237057232370A8232370EC
:1014000000231C4C2034237123469973194B40331D
:101410009A730523174C23810023164C4034237004
:10142000164B1B6904242343144C236130BF002353
:10143000104C4034237057232370A82323700123BA
:101440000C4C20346371237100230A4C4034237008
:1014500000BF00BF5723074C40342370A8232370DC
:101460000D23044C203423710023024C403423709C
:1014700010BD000000100040FF3F000000ED00E044
:101480000490000010B50446002C11D157209E494D
:101490000870A82008709C48203800880321490261
:1014A00088439949203908800020974908701FE037
:1014B000572095490870A820087093482038008864
:1014C000091508439049203908800A2000F08BF95B
:1014D00057208D490870A82008708B482038008854
:1014E000491508438849203908800020864908703A
:1014F00010BD002823D15722834B1A70A8221A70DE
:1015000080220A40002A07D07F4A403AD27B022339
:101510001A437D4B403BDA737B4A403A927A1C2354
:101520000B409A43784B403B9A72774A203AD27BE1
:101530008B079B0F9A43744B203BDA7322E05722B0
:10154000714B1A70A8221A7080220A40002A07D014
:101550006D4A403AD27B02239A436B4B403BDA738D
:10156000694A403A927A1C230B401A43664B403B2F
:101570009A72654A203AD27B8B079B0F1A43624BC3
:10158000203BDA730022604B1A70704700280CD1A0
:1015900057225D4B1A70A8221A705B4A403AD268F3
:1015A0000A43594B403BDA600BE05722564B1A7006
:1015B000A8221A70544A403AD2688A43524B403BA0
:1015C000DA600022504B1A70704700280CD1572265
:1015D0004D4B1A70A8221A704B4A403A927B8A43AC
:1015E000494B403B9A730BE05722474B1A70A82295
:1015F0001A70454A403A927B0A43434B403B9A73E8
:101600000022414B1A70704710B50446002C0BD1D4
:1016100057203D490870A820087000203A49203919
:101620000871394908701BE0572037490870A82015
:10163000087001203449203948710871002032496E
:101640000870012000F0CFF857202F490870A8201B
:1016500008700D202C492039087100202A49087093
:1016600010BD2A480069042188432849086130BF19
:1016700070475721244A1170A8211170224940391E
:10168000897B08221143204A403A917309210903BA
:101690001D4A203A118000211B4A117000BF1A49CF
:1016A0004039886B896B8142F9D10A3018498842E8
:1016B00000D9401A81B2002902D001210904401842
:1016C0003021114A203A117457210F4A1170A82174
:1016D00011700D49403948632F210B4A203A51744B
:1016E0000021094A117057211170A821117005219C
:1016F000054A403A11810021034A117040BF20BFC2
:1017000020BF00BFFEE700004010004000ED00E0F9
:101710000000C0A80146062904D1464800780822E6
:10172000104070474348407901228A401040F8E752
:10173000572040490870A820087008468079012188
:1017400008433C4988710020087070473A4909688D
:1017500001600021C943384A803211607047364920
:10176000086070473548806970475721314A1170C9
:10177000A8211170002806D11146897904229143CD
:101780002C4A917105E02B49897904221143294A99
:1017900091710021274A117070475721254A117015
:1017A000A8211170002806D111468979022291439F
:1017B000204A917105E01F498979022211431D4A8F
:1017C000917100211B4A1170704757201949087008
:1017D000A8200870084680791021084315498871AF
:1017E00000200870704710B500210AE0022201E0D5
:1017F00000BF00BF1346541EA2B2002BF8D14B1CF1
:1018000099B28142F2DB10BD30B50446002505E0F7
:101810007D20C000FFF7E7FF681C85B2A542F7DB1B
:1018200030BD00BF064AD27A082AFBD0044B18729A
:10183000704700004010004000E100E000E000E0E0
:101840000034004070B50446FEF74DFD0A214843C0
:10185000C6082146304600F025FF05460A21681DCE
:1018600000F020FF054628498D8170BD10B5E120AC
:101870004002FFF7E7FF8720234988700320C870E4
:10188000402048700120887310BD1F498978C0220C
:101890009143820111431C4A9170704700280BD07C
:1018A000194A52780A43184B5A701A46127808237C
:1018B0001A43154B1A7004E0134A52788A43124BAC
:1018C0005A707047802010494870704710B50A461A
:1018D00009E00D4BDB7A082B05D003780A4C237204
:1018E000401C531E9AB2002AF3D110BD01460020BD
:1018F00005E0054A127A0A70491C421C90B2024A5D
:10190000927A002AF5D170470034004000202B491C
:101910000870CC2008734873294800880882294839
:10192000008888822848008808832848008888839F
:1019300002202249203188701220887188728873B1
:101940000220887400201D49C87029200870FF20DB
:1019500088711F48408B802108431D49488381209E
:101960001649487007208870704714492031087163
:10197000897989088900114A2032917170470F498D
:1019800020310872897A890889000C4A20329172C4
:1019900070470A4920310873897B89088900074A02
:1019A000203291737047054920310874897C890879
:1019B0008900024A20329174704700000080004084
:1019C00004400020084000200C400020104000206F
:1019D000001000400448804704480047FEE7FEE747
:1019E000FEE7FEE7FEE7000069010000910000004D
:1019F00000B5030000F006FF10090A131421220BA2
:101A00002E2F3C493D0F4A5D707C00BF00BF002176
:101A1000F74A11706DE00021F54A117069E000BFCE
:101A2000F449897903221143F24A91710121F24A62
:101A300011700221EE4A11705BE000BFED49897917
:101A400003221143EB4A91710121EB4A1170E84ADC
:101A500011704EE000BFE749897903221143E54A3E
:101A600091710121E44A11700221E14A117040E0B4
:101A700000BFE04989790C221143DE4A91710121AE
:101A8000DD4A1170DA4A117033E000BFD949897913
:101A900003221143D74A91710121D74A1170D549C8
:101AA00089790C221143D34A91710221D04A1170D5
:101AB0001FE0D049897903221143CE4A9171012157
:101AC000CD4A1170CB4989790C221143C94A9171D1
:101AD0000221C74A11700CE0C649897903221143DB
:101AE000C44A91710121C44A1170C14A117000E0C9
:101AF00000BF00BF00BDC1480068082802D9082007
:101B0000BE490860BE48BF4908600020B849087057
:101B1000BD490870BD4908707047BD48B9490860A3
:101B2000B6480068242802D92420B449086000205F
:101B3000AF490870B4490870B44908707047B54897
:101B4000807D0002B349C97D08434002AB4908606B
:101B5000B048407C0006AF49897C09040843AD4980
:101B6000C97C09020843AB49097D0843AA490860BA
:101B7000084600684002086000209D490870A2499C
:101B80000870A24908700120A4490870704700B588
:101B9000A048407C3F2811D1984800680C2802D901
:101BA0000C20964908609E4896490860002090499C
:101BB000087095490870954908700EE00020994911
:101BC0000870052090490870202090490870012075
:101BD000874908700F20FFF70BFF00BD864800788B
:101BE000914909780843002831D0834800788E490C
:101BF0000870002080490870702086490870002015
:101C000048708148007888700020C87000218148A1
:101C10000171417181710A207E49C87100200872EA
:101C200000217C4841728172C172784800787949FC
:101C3000087300204873887300217648C1730174CB
:101C40004174704908600020694908702BE06A48B7
:101C500000787549087000206749087070206D4948
:101C60000870002048708870C870002169480171B0
:101C7000417181710A206749C871002008720021F2
:101C8000644841728172C1720020624908734873CE
:101C9000887300215F48C173017441745949086019
:101CA00000205349087070470020604908705D4962
:101CB00008704F49087054490870544908707047BB
:101CC00000204B490870504908705049087070470F
:101CD00070B55048807D00024E49C97D08434002DE
:101CE000464908604B48407C00064A49897C090403
:101CF00008434849C97C090208434649097D08430D
:101D00004549086008460068400208604148C57DB2
:101D1000002407E06102404A1268881800F0AFFC16
:101D2000601CC4B2AC42F5DB002031490870364972
:101D300008703649087070BD00203C490870394968
:101D400008702B4908703049087030490870704796
:101D50000020274908702C4908702C4908707047EA
:101D600000B52C48407C3F2811D124480068102839
:101D700002D91020214908602D482249086000201E
:101D80001B49087020490870204908700EE00020A7
:101D90002449087005201C49087020201B49087040
:101DA0000120134908700F20FFF722FE00BD10B577
:101DB0001848C07B1E285BD00CDC12283AD004DC0B
:101DC00000283DD0032856D140E01A2847D01B28D0
:101DD00051D14AE02A2830D004DC252839D02828DF
:101DE00049D130E02F2837D05A2844D13AE00000BA
:101DF0001F4000202080004022400020144000208E
:101E0000282D00002C4000202040002021400020F0
:101E1000042D000040000020284000202440002025
:101E2000302D00001C400020234000201D400020D9
:101E30003C2D0000FFF771FE2DE0FFF749FF2AE07F
:101E4000FFF732FF27E0FFF77AFE24E0FFF7C6FE38
:101E500021E0FFF750FE1EE0FFF77AFF1BE0FFF7DF
:101E600096FE18E0FFF77CFF15E0FFF765FF12E034
:101E7000FFF726FF0FE00520FA4908702020FA49F5
:101E800008700120F94908700020F94908700E20F7
:101E9000FFF7AEFD00BF00BF10BD10B5F5480078DC
:101EA000552852D1F3484078532847D1F1488078DB
:101EB00042283CD1EF48C078432831D1ED48007A20
:101EC000ED49C870EB48407A8870EA48807A4870DB
:101ED000E848C07A0870E7480079E8490870E548A2
:101EE00040794870E34880798870E248C079C870CA
:101EF000E148006800280DD0DE48007BC1090120C0
:101F00008843DF490870DB48007B80210840C00916
:101F1000D74908700120DB490870FFF748FF1AE035
:101F2000D948807903210843D749887113E0D648FE
:101F3000807903210843D44988710CE0D248807924
:101F400003210843D049887105E0CF4880790321F7
:101F50000843CD49887110BDC649CC4A11600021A3
:101F6000C84A1170C24A11705521C24A11705321DA
:101F70005170422191705321D170C049097811717B
:101F8000BE4949785171BD4989789171BB49C97879
:101F9000D171002111725172B74949789172B649D5
:101FA0000978D172B1490978117300200DE0B74961
:101FB00009680A7801464031B54B5A54B34909685B
:101FC000491CB24A1160411CC8B20D28EFDB0D213B
:101FD000AD4A11711146897989088900917170475C
:101FE00070B5A5480068402806D94024A24800687A
:101FF0004038A149086006E09F48047800209E49C7
:1020000008609B490870A3480078002812D0A04AB5
:1020100040322146A048006800F008FB9E48006856
:1020200000199D49086094480068002814D1994916
:10203000087011E000250DE09448006801782846FA
:102040004030934A115491480068401C8F49086001
:10205000681CC5B2A542EFDB8B480471807980080B
:1020600080008949887170BD70B587482038047A2E
:10207000002505E08648405D88494855681CC5B282
:10208000A542F7D1854A21468348006800F09CFAB2
:102090008148006800198049086077480068001B83
:1020A0007549086008460068002803D17449087023
:1020B000FFF752FF70BDF8B500200090724820383D
:1020C000857902202840002879D06F482038C079CF
:1020D0008006800E202873D004DC002871D00128EF
:1020E00070D1DDE121286ED03028F9D1C2206649B7
:1020F000887065482038047A082C6FD168480168D8
:10210000C8798979000208436649088064480068F4
:10211000407865490870624800680778002400200C
:1021200000905F48006800786021084000282CD0AB
:102130005B48006840785C49087008460078FE28D3
:1021400022D15A485A490860012456480088A042C2
:1021500001DD5448048053480088402801DB4020BA
:1021600001E050480088C4B22246514801685148F5
:1021700000F0C2FA4B480088001B4A4908804C48CE
:10218000006800194A49086026E1474800780300C2
:1021900000F038FB0BF9BCF8F8F89C07F8A6B3F789
:1021A000F8003F480168C8788978000208430012A7
:1021B000012809D002280CD0032832D10FE0BEE15B
:1021C0002BE169E1B4E19DE13B48394908600478BD
:1021D0002AE03A4836490860847825E0FAE0304839
:1021E0000168C878897800020843C0B200280ED080
:1021F000012802D002280FD104E031482C490860A0
:1022000004780CE02F482A490860047807E02E483B
:1022100027490860047802E0FF20009000BF00BF5B
:1022200002E0FF20009000BF00BF1E480088A042CF
:1022300001DD1C4804801B480088402801DB402049
:1022400001E018480088C4B22246194801681448C1
:10225000006800F051FA1648006800191449086037
:10226000B7E0000020400020214000201F40002057
:102270001C40002040000020144000201840002096
:102280001D4000201E400020208000402C400020E7
:10229000C000002024400020284000200000002032
:1022A0000440002032400020314000204C2D00002E
:1022B0003440002080000020B42C0000C62C000018
:1022C000EA2C0000F82C0000E62C0000B148016860
:1022D000C878897800020843C0B2AF49088078E026
:1022E000AE480078AB4909680870AB4800880128FF
:1022F00002DD0120A84908806BE0A6480168C87883
:10230000897800020843A549087062E0A148006886
:102310000078C006C00E02283AD19E48016848796C
:10232000097900020843C0B2012816D081282BD1B8
:102330009B48807943218843801C9949887199483A
:102340000078002801D0FFF707FE974800789749EA
:10235000087000209449087019E0914880798C2118
:1023600088438F4988718F480078002801D0FFF793
:10237000F3FD8D4800788D49087000208A49087067
:1023800005E008E022E012E0FF20009000BF01E03D
:10239000FF2000901DE000207E49096808707E48FB
:1023A0000088012802DD01207B49088011E000201F
:1023B0007849096808707749096848707648008844
:1023C000022802DD02207449088002E0FF2000900C
:1023D00000BF01E0FF2000900098FF2803D1CF202C
:1023E0006F49887018E08020384000280ED06A4875
:1023F0000088402801DD402001E067480088C4B221
:1024000065480088001B6449088000E00024644897
:102410000470C020624988708BE065480078052808
:1024200023D0062830D15C480088402801DB4020BA
:1024300001E059480088C4B222465E480168554808
:10244000006800F059F954480088001B5249088080
:10245000584800680019574908605148047080784E
:10246000402148404E49887014E04D482038C078DB
:102470008021084048490978084349492039C870F3
:1024800002204749887005E0002045490870022075
:10249000887000BF00BF4CE002204149887048E0CE
:1024A0003F482038C07940210840002829D04248C0
:1024B0000078002802D0FFF7D7FD22E03848203806
:1024C000067A002E00D134E0002405E03B48005D90
:1024D0003B490855601CC4B2B442F7D1FFF7DDFC9C
:1024E0003548007800280CD136480078002802D002
:1024F000FFF776FD05E02C480078002801D1FFF7B2
:102500002BFD16E02F480078002802D0FFF768FD69
:102510000DE024480078002802D0FFF71DFD06E0FA
:102520001F48807980088000801C1D49887100E068
:1025300000BF00BF02201A492039887124E0E80753
:10254000C00F002811D0002015492039C870022082
:102550001349887012208871114820388079012130
:1025600008430F49203988710EE0042028400028D4
:1025700007D00B4820384079042009492039887158
:1025800002E0074820388571F8BD10B5FFF793FDCC
:1025900010BD0000044000203240002030400020E8
:1025A000208000401E4000202240002023400020C8
:1025B00031400020344000201D400020C000002099
:1025C000400000201C400020F7B582B015461921BC
:1025D00049030298461800200190B107890F301D69
:1025E000461A2F48864202D9012005B0F0BD0024CA
:1025F00017E0E81C075D3802A91C095D084307467F
:102600003802691C095D084307463802295D084302
:10261000074639463046FEF7E5FA0190361D201D83
:10262000C4B203988442E4DB0198DEE770B5044647
:102630000D4613461920400321181948814201D93B
:10264000012070BD8E07B60F081D811B002212E00D
:102650000878985408880004000E9E187070086866
:102660000002000E9E18B0700868000E9E18F070F0
:10267000091D101DC2B2AA42EADB0020E1E770B5D5
:10268000044600261920400325180548854201D933
:10269000012070BD2846FEF70BFA06463046F8E7E3
:1026A000FFE7030030B50B4601460020202201243D
:1026B00009E00D46D5409D4205D31D469540491B76
:1026C0002546954040191546521E002DF1DC30BDBF
:1026D00070B500242546002801DA01244042002973
:1026E00001DA01254942FFF7DDFFAC4200D040424C
:1026F000002C00D0494270BD03460B439B0703D01A
:1027000009E008C9121F08C0042AFAD203E00B78B6
:102710000370401C491C521EF9D27047F0B51FB41B
:102720000646002082B005464024019100901BE03F
:10273000019922460F46304600F042F8049A059B64
:10274000801A994110D310461946224600F028F805
:10275000361A8F410197224601200021009F00F088
:102760001FF838184D4100902046641E0028DFDC19
:10277000019B00982946324607B0F0BD064C012562
:10278000064E05E0E36807CC2B430C3C9847103419
:10279000B442F7D3FDF780FC502D0000702D0000EF
:1027A00010B5202A04DB0146203A9140002010BDDC
:1027B000914020239C1A0346E3401943904010BDEA
:1027C00010B5202A04DB0846203AD040002110BD75
:1027D0000B46D340D0402024A21A9140084319460A
:1027E00010BD00000FB410B503A9044B044A0298B1
:1027F00000F026F810BC08BC04B0184723180000ED
:102800003840002030B47446641E2578641CAB4206
:1028100004D3635D5B00E31830BC18471D46F8E73E
:1028200002E008C8121F08C1002AFAD17047704799
:10283000002001E001C1121F002AFBD170470000F7
:10284000FFB591B00F460546002606E025280AD0C0
:10285000149A139990476D1C761C28780028F5D19E
:10286000304615B0F0BD002400940121F34A0294D3
:1028700000E004436D1C2B780846203B9840104232
:10288000F7D128782A280ED0022128780246303A3B
:10289000092A15D8009A0A235A43303A80180C4363
:1028A0006D1C0090F1E701CF0090002805DA0120AF
:1028B00040030443009840420090022004436D1CF2
:1028C00028782E2815D10420044368786D1C2A2806
:1028D0000AD101CF6D1C02900BE002990A225143EC
:1028E000303940186D1C029028780146303909298A
:1028F000F3D928786C2810D006DC4C281AD0682828
:102900000ED06A2817D104E0742813D07A2812D187
:1029100010E00120400504430CE00121090501E01D
:10292000032109050C436978814203D10120000588
:1029300024186D1C6D1C287803906E281ED00CDCAA
:10294000632831D004DC00288AD0582811D1B2E0A5
:1029500064287BD069280CD178E073282DD004DC62
:102960006F2870D0702804D1A7E075286CD0782823
:102970006BD0149A13999047761C62E06002400F66
:10298000022807D003280AD0042838680AD0066035
:102990003F1D56E03868F11706604160F8E7386877
:1029A0000680F5E70670F3E738786946087400207A
:1029B000487404A80390012003E0386803900020C5
:1029C000C0433F1D61070FD5002101E00199491C5B
:1029D000029A0191914213DA8142F7DB019A03993D
:1029E000895C0029F2D10BE0002101E00199491C2A
:1029F00001918142FADB019A0399895C0029F5D1A2
:102A000001990098139A401A00902146149B00F0F7
:102A10003BF901998019461807E00398039900785B
:102A2000491C0391149A139990470198401E0190F4
:102A3000401CF2D12146149B139A009800F014F91F
:102A400086196D1C09E741E033E034E00A200021DB
:102A5000049005916002410F022905D001CFC217F1
:102A60009446032905D007E0FF1DFF08FF0003CFB0
:102A700006E000B2C2179446042902D140B2C11741
:102A80008C4600226146944506DA0A4600214042FF
:102A900091418C462D2102E0210504D52B216A4667
:102AA0001176012103E0E10701D02021F7E7019130
:102AB00054E00A200BE0102009E0102004900021CF
:102AC0000420044308200591029003E0082000211F
:102AD000059104906002410F022905D001CF002228
:102AE0009446032906D006E0FF1DFF08FF0003CF30
:102AF0008C4603E080B2042900D1C0B200210191CC
:102B000021072BD50399702906D0049A1021059B23
:102B10004A401A4305D00EE040216A461176012151
:102B200008E06146014306D030216A4611760399D8
:102B3000517602210191049A0821059B4A401A43CB
:102B40000CD16146014301D1610707D530216A46A6
:102B50001176012101910299491E02910399582988
:102B600004D037A103910FA90F910DE039A1F9E726
:102B70006146059B049AFFF7D1FD039B8C469B5C45
:102B80000F9A521E0F92137061460143F0D10F98B5
:102B900007A9081A20300390600704D5012000041B
:102BA0008443029801E0012002900399884201DDEC
:102BB000401A00E00020411802900198091800987E
:102BC000401A0090E00306D42146149B139A009803
:102BD00000F05AF886190020049008E006A9085C65
:102BE000149A139990470498401C761C04900199FC
:102BF0008842F3DBE0030CD52146149B139A00981E
:102C000000F042F8861904E0149A30201399904796
:102C1000761C0299481E02900029F5DC08E00F9806
:102C20000F990078491C0F91149A13999047761CBC
:102C30000399481E03900029F1DCFBE609280100F6
:102C40003031323334353637383961626364656622
:102C500000000000303132333435363738394142E4
:102C60004344454600000000F8B5044600251E46D2
:102C70001746880404D405E039462020B0476D1C6F
:102C8000641EF9D52846F8BDFFB50446002581B07D
:102C90001E46C80301D5302700E02027880404D54C
:102CA00005E038460399B0476D1C641EF9D52846E7
:102CB00005B0F0BD1201100100000040443333356F
:102CC0000001010200010902200001010080320917
:102CD000040000020806500007050102400000073A
:102CE000058102400000040309040E03770063001D
:102CF00068002E0063006E000C034300480035009E
:102D000037007800008002021F0000007763682E01
:102D1000636E2020C7DFBAE3B5E7D7D355C5CCB77C
:102D2000BDB0B800312E3130000000630000020059
:102D30000B00000800000064000002000006000014
:102D4000080000080000006400000200000000000D
:102D5000702D0000004000203C00000020280000F2
:102D6000702D00000000002040010000302800000D
:102D70000000000000000000000000000000000053
:102D80000000000000000000000000000000000043
:102D90000000000000000000000000000000000033
:0C2DA00000000000000000000000000027
:040000050000009166
:00000001FF
