:020000040000FA
:1000000000800020091A000001400020131A00009F
:1000100000000000000000000000000000000000E0
:10002000000000000000000000000000131A0000A3
:100030000000000000000000151A0000171A000060
:10004000191A000073080000191A0000191A00009C
:10005000191A00007926000095060000191A000000
:10006000191A0000191A0000191A0000191A0000C4
:10007000E5260000191A0000191A0000191A0000DC
:10008000191A0000191A0000191A0000191A0000A4
:100090000348854602F008FC00480047AD02000016
:1000A000008000207CB56E4D0C462878090408D5E8
:1000B00014F094FC002801D014F068FC0120C00367
:1000C00024E0E10701D0012020E061070BD5FF21EA
:1000D000F53100910822019000231146688804F050
:1000E000D9FA042012E0A00712D55E480078012852
:1000F00006D15B4B082214330121002001F097F850
:1001000020220221287814F045FE022060407CBDA8
:1001100000207CBD30B585B053480AF0B3FB504D8C
:100120000124287069460C706A4621464F4804F045
:1001300059FC4E482A1D0721401C04F053FC4B4833
:100140002A461C321D21801C04F04CFC484A152113
:10015000002006F065F90020694600900C710872D5
:10016000032008730C746A460421424804F018F80E
:10017000012101AA880204F013F83E4802AA0121D5
:10018000801F04F00DF83B4803AA0121401F04F032
:1001900007F8384804AA0121801E04F001F806205F
:1001A0006946087001216A46084600F050FD01F0DA
:1001B000F1FA29463C310846303801F01AF801219D
:1001C000287814F095FC05B030BD1CB503000AF08A
:1001D0000BFD050D040D0D0E0D00C12069468000BC
:1001E00004F0D0F96946012004F0D4FD1CBD1C4880
:1001F000498941801922D2010421007814F0CAFDF6
:100200001CBDF8B50024079E069D002B04D0012BD1
:1002100015D0022B19D01FE0174B9A420AD10229A0
:1002200008D12B78012B03D00D24002C02D013E031
:100230000024FAE700962B7801F008FB03E02B4638
:10024000009601F023FB044606E00548FF22F53244
:100250000221007814F09EFD2046F8BD7047000092
:10026000204200207A420020A50000000503000083
:10027000024F0100070400004D2A000010B502F0F3
:1002800074F902F0E9F904F095FA00F08BFFFFF73A
:1002900041FF00F0E3F900F08FFB00F0CEFA00F030
:1002A00081FCFF20F53002F0DDF810BD022001F0E6
:1002B000CCFB1021012001F0C1FF01218C1E204642
:1002C00001F0F6FE0121204601F017FF052002F0A3
:1002D000C9F8FFF7D3FF0AF0F3FAFCE7704710B54F
:1002E000ED48FF2100684030C171082002F006F996
:1002F00010BD10B5E949FF22096840318A7002F04B
:10030000F5F810BD70B5E74A0021E54D126805E02B
:1003100053186C5C4033491C1C70C9B28142F7D33E
:1003200002F0DCF870BDFEB5DF4D0026A879DF4C89
:1003300081077DD5E879DE4F8206DE48920EB978D6
:100340000068202A75D006DC13000AF04DFC05FD7C
:10035000FCFBFAF97500232A6CD004DC212A6AD050
:10036000222A69D11DE1242A67D0302AF9D1C2217D
:10037000A170297A08296ED1C179827909021143C5
:10038000B98002914278BA700378009301930021FA
:100390005B069B0F04D0092A01D00A2A5BD1A5E095
:1003A00013000AF021FC0B9B6E8282825E0782643E
:1003B00068948200C278837812021A43130A012BD0
:1003C00006D0022B08D0032B17D0222B1CD108E01B
:1003D000B949B960122118E0B7491231B960292131
:1003E00013E04279037912021A431206120E0BD15E
:1003F000B1493D39B9603D2107E01206120E20D007
:10040000012A23D0022A27D0FF26029A8A4200D945
:10041000B980B988402900D34021C9B20A46009169
:10042000B96802F0FEF9B86800994018B86005E0B4
:10043000DEE06CE0C2E0A7E09EE0CEE0FF2E34D02C
:1004400054E09D494139B9600421DEE79A493B31C6
:10045000B9600E21D9E728E097494931B9600C21EC
:10046000D3E7C178827808021043C0B201E07978FE
:100470002EE0B8803AE0C1788278080210437870A4
:1004800034E00099C906C90E02290ED141790279DA
:1004900008021043C0B27321012814D002280AD0E8
:1004A000BC2181280BD0822801D0CF2057E0A07A30
:1004B0000840801C01E0A07A0840A07216E0A079F4
:1004C0000840801C01E0A0790840A0710EE00021E6
:1004D0000170B888012809D90120CAE700210170FC
:1004E0004170B888022801D90220C2E701980006AD
:1004F00009D5B988402901D9402000E00846C0B29A
:10050000091AB98000E000202070C02027E0684A66
:10051000052992881DD0062902D0002020701DE0F8
:10052000402A00D34022D6B23246B96802F079F9A7
:10053000B888801BB880B8688019B860267004E05D
:1005400042E034E026E018E00BE0A078402148408B
:1005500005E0E878C009C0011043E8700220A070EF
:1005600044E02A7A092941D10078002801D053A01B
:1005700000E058A00AF010FB38E0E879400635D5D5
:10058000287AFFF7BFFE31E0A07980088000801C48
:10059000A0712BE0E879400628D5287AFFF7A9FE5C
:1005A00024E0A07A80088000801CA0721EE0E87918
:1005B00040061BD5287AFFF792FE17E0A07B800843
:1005C0008000801CA07311E0E87940060ED5A07C65
:1005D00080214840A074287A08E0A07C402148404F
:1005E000A074A07C80088000801CA07402200CE015
:1005F000C1070CD00020E8700220A0701220A0716A
:10060000A072A073A87901210843A871FEBD41071B
:10061000FBD568790420F8E770B5254D0C46080431
:100620000AD5287814F0DAF9002801D014F0AEF9D0
:100630000120C003604070BDE007FCD02C4800786A
:10064000002802D10820FFF75DFE40220121287812
:1006500014F0A0FB20460121484070BD10B525488C
:100660000AF010F9124C13492070234808600D4914
:10067000C030086009498030086007498030086050
:1006800001F004FF1D49402008600121207814F08A
:100690002FFA10BD47E60000CC460020C8460020D7
:1006A00034420020C44600200080004020800040EA
:1006B0006C420020C0460020584F01004C6967681A
:1006C00074206F6E204E756D204C6F636B204C450F
:1006D00044210A004C69676874206F6666204E7575
:1006E0006D204C6F636B204C4544210A00000000D4
:1006F0007A42002019060000A469002000E100E011
:1007000070B563487D2502786249CF202D01624C87
:1007100013000AF069FA05040D1A384D0C00087828
:100720004006400E0870087830221043087070BDF3
:100730000A785206520E0A700A7802400A700120A6
:1007400001F090FE01F0E8FD1BE00A785206520E1F
:100750000A700A7802400A70012001F083FE02F05C
:10076000F1F81CE02089800502D4AE2001F06AFE79
:10077000012001F000FA012001F064FE022001F0E6
:1007800064F928463BE00A785206520E0A700A784D
:1007900002400A70012001F065FE02F0D9F8A07A4B
:1007A0004007DFD40421012001F048FDF020DDE7FF
:1007B0000A785206520E0A700A7802400A70012026
:1007C00001F050FE002002F0C9F8A07A400705D4DD
:1007D0000421012001F032FDF02003E02089800592
:1007E00002D4AE2001F02EFE012001F0C4F9012058
:1007F00001F028FE022001F028F9FF20F53001F079
:1008000031FE70BD10B50C46090408D514F0E6F8A9
:10081000002801D014F0BAF80120C0030BE0E00773
:100820000AD0FFF76DFF1A481922520101214078C2
:1008300014F0B0FA0120604010BD10B517480AF05E
:1008400021F8134C01216070022001F056FC0221B6
:10085000084601F09AFC124902200860102101208C
:1008600001F02BFD192292010121607814F092FA17
:1008700010BD094902208031C88305490878401C11
:10088000C0B20870052801D300200870704700002E
:100890007842002000800040001000400508000061
:1008A00000E100E00B4610B500281146184602D0C2
:1008B00001F023FC10BD01F0FBFB10BD002802D0AD
:1008C0004548406802E044484038406A084000D04B
:1008D0000120704700280AD03F48012A03D0C2688F
:1008E0000A43C260704782680A43826070473A4890
:1008F0004038012A03D0C26A0A43C2627047826A42
:100900000A438262704710B50321802001F0F5FB95
:100910000321202001F0CCFB2F484038C16A20225F
:100920001143C1620221104601F0C2FB2B49002095
:1009300008702B4908702B491020087010BD7047B3
:1009400010B508220021284814F004F819220021CB
:10095000264813F0FFFF2048816880221143816000
:1009600020210020FFF7AAFF012807D11B491020F2
:1009700008701B49002008701A49087010BD70B536
:100980000C46090409D514F029F8002801D013F009
:10099000FDFF0120C003604070BDEE2520462840C9
:1009A000FAD0FFF7CDFF12484022EE21007814F074
:1009B000F1F92046684070BD10B50E4809F062FF9D
:1009C0000B4C2070FFF79FFF19229201EE21207837
:1009D00014F0E0F910BD0000C01000407D4200207E
:1009E0007E4200207F42002034420020E46B002041
:1009F0007B4200207F09000010B501200321800305
:100A000001F07BFB10BD6F48826801140A438260CD
:100A100000BF00BF00BFC2680A43C26000BF00BF82
:100A200000BF00BF00BF00BF00BF00BF00BF00BFCE
:100A300000BF00BF00BF00BF00BF00BF00BF7047C6
:100A40006048826801140A43826000BF00BF00BF93
:100A500000BF00BF00BF00BF00BF00BF00BF00BF9E
:100A600000BFC2680A43C26000BF00BF00BF00BF32
:100A700000BF00BF704710B55249CA68081402434E
:100A8000CA60032101F039FB502001F0DBFC10BDEE
:100A900070B514460D4606460023300602D5FFF712
:100AA000CFFF01E0FFF7AFFF70065B1C060EDBB265
:100AB000082BF2D30023280602D5FFF7C1FF01E07F
:100AC000FFF7A1FF68065B1C050EDBB2082BF2D313
:100AD0000023200602D5FFF7B3FF01E0FFF793FFE5
:100AE00060065B1C040EDBB2082BF2D370BD10B5A0
:100AF00000240022FF211046FFF7CAFF641CE4B265
:100B0000182CF6D3FFF7B7FF10BD10B50024002254
:100B10001146FF20FFF7BCFF641CE4B2182CF6D38B
:100B2000FFF7A9FF10BD10B500240021FF220846E1
:100B3000FFF7AEFF641CE4B2182CF6D3FFF79BFF5F
:100B400010BDF8B51E4617468C460546002405E044
:100B5000324661463846FFF79BFF641CAC42F7D330
:100B6000FFF789FFF8BD70B50C46090408D513F0EE
:100B700035FF002801D013F009FF0120C0030FE06A
:100B8000E0070ED0104D1820EB78AA786978FFF7AF
:100B9000D8FFFF2291320121287814F0FBF80120C0
:100BA000604070BD10B5094809F06CFE064C20701D
:100BB000FFF722FF192292010121207814F0EAF8B0
:100BC00010BD0000C01000407C420020670B0000F8
:100BD00010B58F498F4804F04FFD8F4B10221846F7
:100BE0000521503804F01AFF10BD8B49683948615F
:100BF00070473EB504460079C00727D06088844915
:100C000004F0FEFEC00721D0002000906088002381
:100C100001221B2105F00CFB0290002816D07E4813
:100C200069465038408D88800120C8807A480299F2
:100C30006838007808706088002201A905F0DCF8A7
:100C4000002803D01B2101A805F038FB3EBD10B5DC
:100C50000024012802D00224204610BD6E481178DD
:100C60006838417000788842F6D26C480FF0CCFAB0
:100C7000F2E7694B10B50022683B002809D0012833
:100C800009D01833022809D003280AD002221046BE
:100C900010BD187800E058780870F8E75889088087
:100CA000F5E75D48623804780C7140784871588DDA
:100CB0000880588F488001208871E8E770B5564D4C
:100CC000683DA868002800D08047FF24E8682D34DC
:100CD000002800D08047A988A14201D8642070BDB7
:100CE0006888A04201D3002070BD2A69002A02D082
:100CF0002046904770BD091A491C0904201A192280
:100D0000890C50434018401E01F02AFDC0B270BD4E
:100D100010B5FFF7D3FF404968390A78904203D2F3
:100D200008703E480FF070FA002010BD30B53A4808
:100D3000049D6838039C41808280083038C030BDF3
:100D400070B5049800241D461646002801D00B20DB
:100D500070BD4868427803781002314A18439042C7
:100D60000CD1FFF7ABFF2C4968390A78904200D2CA
:100D7000087001202880087830700BE0294A9042E2
:100D800007D1022028800246C968304613F0ECFCE7
:100D900000E00A24204670BD7CB54C681546627898
:100DA000247812022243204C069EE24208D10122FE
:100DB000019200962A4604F0C5FC040003D000E02E
:100DC0000A2420467CBD687829780002084312492D
:100DD000683949690029F4D0002802D001208847E9
:100DE000EFE70220FBE710B504460A48401E8442A4
:100DF0000DD0012907D0022909D1012120460FF089
:100E00006BFA002803D10249204604F035FC10BDDE
:100E1000FE6B0020FFFF0000E8420020F30B000003
:100E2000192A000008290000FED6FFFF10B56E4BFE
:100E3000102213216D4804F0F1FD10BD10B50024FF
:100E40001346002802D00224204610BD67480A46F7
:100E50001946093813F088FCF6E770B50D460024F2
:100E6000030009F0C1FE09060A1014181C202428EA
:100E70002C005E490822093901E05D490D2228460F
:100E800013F072FC1CE05A490E220D31F7E7584965
:100E900012221B31F3E7564912222D31EFE7544954
:100EA00012223F31EBE7524912225131E7E7504914
:100EB0000E226331E3E74D4907221039DFE70224B0
:100EC000204670BDF8B5496894464A7809781702FB
:100ED0000F430698474A11210025079CBE1A091A9C
:100EE000974244D009DC444ABA1813D0012A1DD0D5
:100EF000022A26D0032A08D12FE0012E41D0022E4B
:100F000049D0032E51D0292E5BD0002018800A250D
:100F10002846F8BD082856D20821091AA14200D84F
:100F20000C463249A2B21A80093957E00C284AD23D
:100F30000C21091AA14200D80C46A2B21A802C49F1
:100F40004CE00D283FD20D21091AA14200D80C46D1
:100F50002749A2B21A800D3140E0112833D2A142B4
:100F600000D80C462249A2B21A801B3136E0112863
:100F700029D2A14200D80C461D49A2B21A802D31B7
:100F80002CE011281FD2A14200D80C461849A2B269
:100F90001A803F3122E0112815D2A14200D80C4618
:100FA0001349A2B21A80513118E00E280BD20E213B
:100FB000091AA14200D80C460D49A2B21A80633129
:100FC0000CE0072801D30725A2E70721091AA1424F
:100FD00000D80C460549A2B21A801039091860469B
:100FE00013F0C2FB94E700003844002008430020BF
:100FF000D84F0100272A0000DDD5FFFF70470146CA
:1010000010B5F9480129807904D0022901D113F0E3
:101010001FFF10BDF54A022113F0BCFE10BDFEB546
:10102000064600201746F04C0D4603460A4600903F
:101030001B21208905F0FCF80290002813D0684697
:101040008680C5802A463946029813F08DFB00221F
:1010500001A9208904F0D0FE040005D01B2101A8BD
:1010600005F02CF900E013242046FEBD30B5DE4A21
:101070000446DF4BD068D2791B780BE00579A54296
:1010800005D145798D4202D185799D4205D0521E08
:10109000D2B20830002AF1D1002030BDFFB581B0B6
:1010A00015460E460746FFF7E1FF04001CD0608896
:1010B000694604F087FD002816D0C168CA48008937
:1010C00004F09EFCC0070FD020882946049AFFF741
:1010D000A6FF002808D1C7482A46077046708570C9
:1010E000C01C049913F040FB05B0F0BD70B5BE4EB6
:1010F0000C46B079090408D513F070FC002801D023
:1011000013F044FC0120C00320E0E10707D0B64AF9
:1011100020321146083903F031FC012016E0600747
:101120000AD53078042805D1B078002802D130895A
:1011300003F01EFD042009E0A00709D5FFF7E8FD34
:10114000AA4A0221B07913F025FE0220604070BD4A
:10115000200725D57078082125464D4000281BD052
:1011600030797179884201D1002309E00B21401CBC
:1011700001F0E0FA31710B2041439E480B300B180F
:10118000002B05D09A7859781878DB1CFFF786FF7A
:1011900030797179884201D1284670BD204670BDF2
:1011A000002070BD38B5944809F06CFB8E4C694640
:1011B000A0710120087001466A46904802F0F0FFD5
:1011C0000025ED43284605F081F8284604F00AFA88
:1011D000FFF72CFEFFF7FCFC00F07EFB8848FFF7D2
:1011E00004FD884800F085FB0121A07913F080FC04
:1011F00038BD7D4A1161506170477B4AD160D07122
:10120000704708B53021032004F00EF95021042066
:1012100004F00AF93C21012004F006F90120694696
:10122000087001466A46784803F0DCFB08BDF8B553
:101230000E466D49074608781C46154604281AD004
:10124000022826D000F05BFA002820D020210320BD
:1012500004F0EAF83021042004F0E6F8052101202A
:1012600004F0E2F801206946087001466A466648C3
:1012700003F0B8FB0DE0487800280AD008794979D6
:10128000884206D131463846FFF708FFF8BDFFF720
:10129000B8FF23462A463146384600F03BFAF8BDEF
:1012A00008B551480178042908D000206946087023
:1012B0006A460121544803F095FB08BD008903F0FC
:1012C00057FC08BDF8B50024002802D002242046AF
:1012D000F8BD002901D01824F9E7464F797838780D
:1012E000FFF7C4FE05001CD0BA78F91C0023082AB9
:1012F00009D8002004E00E5C9E4204D1401CC0B21C
:101300009042F8D308E00021F81C13F023FBB978D1
:101310002888FA1CFFF783FE0B220021354813F0C2
:1013200019FB314D2878042802D1288903F020FCCC
:10133000002068712871024601464120000102F038
:101340002FFFC4E7022070470A46014610B5264821
:10135000008902F00BFD10BD10B523490246244B55
:10136000C868C9791B7808E00488944202D184795E
:101370009C4205D0491EC9B208300029F4D1002092
:1013800010BDFEB517464A681D4654781278089875
:1013900024020026099B1443002804D01B4A9442CF
:1013A00001D00B20FEBD194A921C94420AD0174A64
:1013B000293A944206D0154A193A944202D0521C56
:1013C000944228D14889FFF7C7FF002820D0019711
:1013D0000095054A41791269007915680123224672
:1013E000A84706464AE000004C440020983A000016
:1013F000824400200E6C0020ED1000001404000058
:10140000FF0F0000FD0F0000050300004B2A000045
:101410000020288032E0D64A94420ED1D54A128864
:10142000904201D3072629E0121A9A4200DD1A469B
:1014300092B22A80C96809181DE0CD48401E844236
:1014400004D104202880C968024614E0CA4A022058
:1014500094420DD0C64AD21C944205D10120288066
:10146000C8680078387009E0C34A521E944205D11A
:101470002880C9680222384613F076F93046FEBD4E
:10148000FFB583B084460C98002416460F4600280A
:1014900002D00B2007B0F0BD7868417800780D02CB
:1014A0000543B348801C854203D0B14819388542B2
:1014B00011D17889FFF750FF002859D006A901966D
:1014C0000091AE4A417912690079146800232A46D6
:1014D000A04704464CE0A649A8486A46491C006952
:1014E000138B8D420AD1012B41D13178002901D0D3
:1014F000012944D100294AD0012148E09E49891F91
:101500008D422ED101210C9801910090324639462E
:10151000604604F017F904002AD17078317802028D
:101520000A4396497B89C868C97905E047889F4284
:1015300005D0491EC9B208300029F7D10020002883
:1015400016D006A901960091012A08D003238B4AE0
:1015500041791269007916682A46B04708E00223EB
:10156000F5E78349C91C8D4202D1012B02D00D241D
:1015700020468FE73178002903D0012901D080244B
:10158000F6E7FA6811703178002904D00321426827
:1015900008469047ECE70221F9E7F8B5774E0421B9
:1015A000B07913F055FC01213089FFF71CFC0121B3
:1015B000308900F009FA37897148F568874212D0FE
:1015C000F4790EE06888002808D0694604F0FAFA39
:1015D000002803D0C168384604F04EF8641EE4B217
:1015E0000835002CEED100206649707001240C7083
:1015F000B07001460B22644813F0ACF900F07FF89C
:10160000002816D070690079800712D5A021032028
:1016100003F00AFFA021042003F006FF00210120AF
:1016200003F002FF684604706A460121574803F040
:10163000D9F9F8BDF8B50027504D0E4604460428E8
:1016400003D0287804280BD012E0708928816F70AD
:10165000684607706A4601214C4803F0C3F907E069
:10166000FFF79BFFE878042802D1FFF7CAFDEF706F
:101670002869002805D0C268002A02D031462046D9
:1016800090472C70F8BD704710B501203B4C0029E5
:1016900004D0012904D0022909D00EE0A0700CE08A
:1016A0000021A170002A00D16070E27005E0002ADC
:1016B00003D16070208900F031F920796179884286
:1016C00006D06078002803D00821A07913F010FA22
:1016D00010BD38B50D4629490969002905D08C6827
:1016E000002C02D02946A04738BD6946284802F0A0
:1016F0008DF900212846009A02F038FB38BD08B564
:1017000000206946087022480E3002F07FF96946D1
:10171000087808BDFFB581B016460746FFF7EFFF12
:10172000002824D0154C0B216079401C01F002F8F0
:10173000617120790D46814204D10B21401C00F0DB
:10174000F9FF21710B2045430F4832460B304755B6
:101750002818029941708670C01C049913F004F88F
:101760006078002803D00821A07913F0C1F9BBE408
:101770004B2A000078440020082900004C44002037
:10178000FEFF0000824400200E6C002005030000D4
:1017900007040000F8B54B4C4949204603F06CFFA4
:1017A00047492046103103F067FF474B10221A21AA
:1017B000464804F033F900904448C1690220FFF71D
:1017C00058FA42493E4809390F78383807714E783F
:1017D0004671C9314A890280498B41803B490122C7
:1017E0008271C91F0D780573374B4C784473A03B49
:1017F00059890181002141818273077546755B8F8C
:101800000382314B603B5E89468281750577447760
:101810005B8D03832D4C41838177641F03462578BC
:1018200020331D7164785C71274C203C64890484EA
:10183000418401469A7128310320FFF71AFA2049A2
:1018400007203839FFF7D9FC0098F8BD30B5204D96
:1018500000205219039C1F4D13D01B2A04D10229CA
:1018600003D0032908D00A2030BD012B02D12178F2
:10187000297030BD0D2030BD012BFBD12178A9701E
:1018800030BD012BF6D12178697030BD70B5104C98
:10189000012512190F4C0498002A0FD000261B2A8C
:1018A00003D1022903D0032903D01E8004E021784C
:1018B00000E0A17801701D80002070BD6178F9E71B
:1018C000CA6C0020FFFF000030460020904400203A
:1018D000CED5FFFF8444002010B54649464803F0AA
:1018E000CBFE464B102218460621603804F096F8CD
:1018F00010BD4249683908607047022070473F4B6D
:1019000002460020643B002A03D0012A03D00220B3
:1019100070471A8800E05A880A8070473EB504462E
:10192000344904F06DF8C0071ED000252B46012273
:101930001B212046009504F07BFC0290002813D068
:101940002E4869462038408B88800120C880029844
:101950000022057001A9204604F04EFA002803D0A9
:101960001B2101A804F0AAFC3EBD00207047FEB573
:10197000089E00241546002E01D00B20FEBD4F68A6
:101980007A783F7812023A431D4FBA420ED1042BA7
:1019900001D00D2416E0C8681A46294612F0E4FE6C
:1019A000164901206839096888470BE0154CA242A6
:1019B00007D10122019200962A4603F0C3FE044695
:1019C00000E00A242046FEBD10B504460A48401E29
:1019D00084420DD0012907D0022909D101212046D6
:1019E0000EF07AFC002803D10249204603F044FEA1
:1019F00010BD0000EA6C0020FFFF0000B046002090
:101A00004F2A00000229000004488047044800478C
:101A1000FEE7FEE7FEE7FEE7FEE70000251A00000E
:101A20009100000010B5FF4857210170A8210170F6
:101A3000FC4A8821403A1181002101700A2000F0FF
:101A400001FD012000F04BFC10BDF0B5F54EF54D49
:101A500004275722A824203E403DF249030009F004
:101A6000C3F80D080E161B1F24282C32373C4146A4
:101A70002F000A700C70F07BFB22104003E00A700C
:101A80000C70F07B3843F073C820288118E00A708E
:101A90000C705120C000F8E70A700C70E248F4E7BF
:101AA0000A700C7081208000EFE70A700C708820AB
:101AB000EBE70A700C700220E7E70A700C702F81C8
:101AC00000200870F0BD0A700C7093208000DCE7E5
:101AD0000A700C70D4484D30D7E70A700C7095200E
:101AE0008000D2E70A700C704B20C000CDE70A706E
:101AF0000C70CD485C30C8E7CA4810B54038008942
:101B0000C1B20B069A0FC948022A05D0012A04D097
:101B10009A0F06D07D20000210BDC906C90EC44828
:101B200001E0C906C90E00F005FE10BDBD4A5721EF
:101B30001170A8211170BB4940394B150028088944
:101B400004D0184308810020107070479843F9E7CB
:101B5000B44A57211170A8211170B24920390028C8
:101B6000C87B05D004231843C87300201070704749
:101B7000FB231840F8E7AB498A7B80079208920064
:101B8000800F024357200870A82008708A73002035
:101B900008707047A3498A7B8F231A4000010243D3
:101BA00057200870A82008708A73002008707047BA
:101BB0009C4A203A917B800789088900800F014365
:101BC000984857230370A823037091730021017074
:101BD0007047944A203A917B0907090F000101439D
:101BE000904857230370A82303709173002101705C
:101BF0007047FEB58B48002740380089C0B2010607
:101C00008A0F022A4CD00124A403012A4CD0890F48
:101C100056D00524002000902005000D0190814839
:101C20002038848900267F49572230460A70A8222E
:101C30000A7001238B747B4957220A70A8220A700C
:101C4000784A203A948100220A708A7C9207FCD557
:101C50000A8A8A7C9207FCD48A7C9207FCD5098A7E
:101C6000019A7F1C891A0DB2FFB2002D37D0294688
:101C7000714305D5012834D0411C32D0002830D022
:101C80002E4602943046009900F06AFD00B2211AF7
:101C90008CB202998C4249D1002D45DD641C44E090
:101CA0000220644CC043B6E7C506ED0E29466248E3
:101CB00000F040FD0019C40B2320C043401B09E085
:101CC000C506ED0E29465D4800F034FD0019C40B31
:101CD000A81C4042294600F043FD00B29BE70020CB
:101CE000FEBD002E03DA761EF04306B202E06D1E42
:101CF000E84305B2B5420FDD4A4857210170A821DB
:101D00000170484A0299203A9181002101707D209A
:101D1000C0007043019903E07D20C0006843114674
:101D200000F01EFD80B2FEBD641EA4B2142F82D34B
:101D3000FF20FEBDFFB581B00C46074605460026D4
:101D40001AE0FF219131681E00F00AFD00290AD037
:101D50006421681E00F004FD002907D00320A907B4
:101D60008007C14202D1FF206F3001E0FF206E30BA
:101D700080196D1E86B2ADB231488542E1D800258A
:101D8000012C25D9032C05D0A01E062816DDE0075E
:101D900018D115E0FF219131384600F0CBFC002925
:101DA0000AD06421384600F0C5FC002901D0B807EC
:101DB00002D000201C3006E00120FBE7E00701D044
:101DC0001F2000E01E208019641E86B2A4B2D7E74F
:101DD000039818213018401E84B2049800F0AAFC21
:101DE000E120C00041430A981E22504309180B9875
:101DF0004008081881B20B98C00701D00120C00329
:101E00000A040243074957200870A8200870054EAD
:101E1000403E746303482038437C8024234343744A
:101E200072630FE040100040020200000048E80129
:101E300000389C1C1313000000180D8F00688909DE
:101E4000E4070000427C40231A4342740D7005B041
:101E5000F0BDFFB50746934883B0C06B0E468404BF
:101E60009048A40C2030418B008B01224900D20302
:101E7000904201D3012000E00020081800908A4819
:101E8000388010E00199002925D06421284600F00F
:101E900051FC002901D0A8071DD0FF206E30201A68
:101EA0006D1C84B23D803D88FF219131284600F0B1
:101EB00041FC0191002911D06421284600F03AFC30
:101EC000002901D0A80709D0FF206E30A042D9D93F
:101ED0000020308049E0FF206F30E0E7FF206F30C6
:101EE000F4E73588012D04D0062D18D9E8071AD15A
:101EF00017E03888FF219131019000F01BFC002988
:101F00000BD06421019800F015FC002902D0019843
:101F1000800702D000201C3006E00120FBE7E80724
:101F200001D01F2000E01E20201A84B26D1CA8B230
:101F30003080012804D0062817D9C0071AD117E02D
:101F40003888FF210546913100F0F4FB00290AD0C2
:101F50006421284600F0EEFB002901D0A80702D03A
:101F600000201C3007E00120FBE73078C00701D0DB
:101F70001F2000E01E20A042B3D93088641C401C02
:101F800030800598E12104800901009800F0D2FB1F
:101F9000069A108008463C2100F0CCFB0C99088082
:101FA0003C21009800F0C6FB0D98018007B0F0BD01
:101FB0003C49572240310A70A8220A70394A5063BE
:101FC00038482030427C40231A4342740020087075
:101FD00070473449886B8A6B8242FBD17047314A23
:101FE00010B5572140321170A82111702D492031B0
:101FF0004B7CE82423404B744B7C10242043034348
:102000004B740020107010BD00B50346FFF7E1FFD0
:102010002649C018884201D9494240180104090CD8
:1020200002D00121090440181E49572240310A708C
:10203000A8220A701B4A50631A482030427C202391
:102040001A4342740020087000BD0021002802D00D
:10205000012802D002E0202100E01021114857227F
:1020600040300270A82202700E4A2032537C8B430B
:1020700053740021017070470A4920310028087C00
:1020800002D0402108407047C009C001704705498F
:102090002031002804D0012801D110200874704795
:1020A0002020FBE700100040E40700000000C0A86B
:1020B00000B5524A0B0008F097FD050407101619E9
:1020C0001F00516B81430AE0516B81435163116BD7
:1020D00001431163116A81430DE0516B0143516368
:1020E000116B8143F5E7516B814301E0516B014373
:1020F0005163116A0143116200BD404A00B540328C
:102100000B0008F071FD0504071016191F00516936
:1021100081430AE0516981435161116901431161B1
:10212000116881430DE05169014351611169814397
:10213000F5E75169814301E051690143516111683B
:102140000143116000BD2D4A002906D0012907D0A6
:10215000022908D0032913D10CE0918A814304E0BD
:10216000918A814308E0918A01439182D16A0143B7
:10217000D16205E0918A01439182916A01439162A3
:102180009083118A0143118270471C4B1B4A4033D4
:10219000002906D0012907D0022908D0032913D12C
:1021A0000CE0D18A814304E0D18A814308E0D18ADE
:1021B0000143D182D9680143D96005E0D18A014346
:1021C000D182996801439960D083518A0143518239
:1021D00070470A4A803A0028108B01D0084300E07B
:1021E000884310837047054A803A0028508B01D0FD
:1021F000084300E08843508370470000801000408F
:10220000F8B5624D5726614CA827203D002826705E
:10221000277028880ED02115084328800A2000F056
:1022200011F926702770288861150843288000203E
:102230002070F8BD032149028843F7E7F0B5534CFD
:1022400057261C228B07514DA8270A409B0F403C64
:1022500000282E702F7010D0080603D5E07BFD21DA
:102260000840E073A07A1043A07248482038C17B30
:102270001943C17300202870F0BD080603D5E07B28
:1022800002210843E073A07A9043A0723F482038AF
:10229000C17B9943EDE730B53C4C57233B4AA82519
:1022A000403C002813701570E06804D08843E0605B
:1022B0000020107030BD0843F9E730B5334C572388
:1022C000324AA825403C002813701570A07B04D02A
:1022D0000843A0730020107030BD8843F9E7F8B5BB
:1022E0002A4D5726294C0021A827203D002826707A
:1022F00027700ED001206871287100202070012005
:1023000000F0A0F8267027700D20287100202070A2
:10231000F8BD29712170F8BD1D480169042291435F
:10232000016130BF7047194B57241C70A8251D70E0
:1023300016494039887B0822104388730920134EC0
:102340000003203E308000271F70886B8A6B82421A
:10235000FBD1104A0A30904201D95242801802043F
:10236000120C02D0012212048018302232741C7028
:102370001D7048632F2070741F701C701D70052025
:1023800008811F7040BF20BF20BFFEE74010004003
:1023900000ED00E00000C0A83949062805D04979C1
:1023A0000122824011400846704708780821084001
:1023B0007047334857210170A821017081790122AB
:1023C000114381710021017070472E490968016035
:1023D00000202C49C04380310860704729490860BB
:1023E0007047294880697047254957220A70A822FA
:1023F0000A700028887905D00422104388710020D3
:1024000008707047FB221040F8E71D4957220A70F8
:10241000A8220A700028887905D00222104388710A
:10242000002008707047FD221040F8E7144857213B
:102430000170A8210170817910221143817100215E
:102440000170704700220AE0022101E000BF00BFD6
:102450000B46491E89B2002BF8D1521C92B282421F
:10246000F2D3704770B500247D260546F60004E0DF
:102470003046FFF7E7FF641CA4B2AC42F8D370BD4E
:102480004010004000E100E000E000E010B523480B
:1024900000230370CC210173417321490A88028211
:1024A0008A8882820A890283898981831B4902245E
:1024B00020318C7012228A718A728A738C74C37074
:1024C00029210170FF21817116494A8B80231A430B
:1024D0004A83812141700721817010BD0F4920314D
:1024E0000871887980088000887170470B49203115
:1024F0000872887A80088000887270470749203106
:102500000873887B800880008873704703492031F6
:102510000874887C800880008874704700800040C0
:10252000C04600200010004010B5FFF762FB0228F3
:1025300001D9FFF75EFB10BD30B55149CC7E0B7E53
:102540004A7EC87E80252843C8760F200876212041
:102550004876887E012528438876887EC007FCD18E
:10256000888BCC760B764A7630BD30B58DB0122292
:1025700044A1494812F0EAF800283ED040485721CB
:102580000170A821017051213D4AC900403A1181D2
:10259000002101704248414A4261424A0724D369FE
:1025A0001B021B0A45042B43D3618161046101694D
:1025B00002229143016134220021684612F0CAF9D7
:1025C0003948009001204003694688801B20C87369
:1025D000052008740120487414208874FB208002B0
:1025E00002900D2008773148089031480A9008463B
:1025F00001F0C6F8002801D0FEE7FEE70DB030BDBF
:1026000070B50C4609040AD512F0E8F9002801D08B
:1026100012F0BCF901212046C903484070BDE00713
:1026200002D00120604070BD224DA00405D501F00C
:1026300023F90126204A760305E060040AD57D22AD
:10264000D2010126B6033146287812F0A3FB2046BA
:10265000704070BD002070BD10B5184808F012F928
:10266000144C207000F046F862B6134A0121490369
:10267000207812F08FFB10BD10B500F0C5FF10BD23
:102680004010004043483537785F424C455F4C4925
:10269000425F56312E370000B4500100FEFFFF00AC
:1026A00000E000E004ED00E0A4490020E323000086
:1026B00039250000D046002000EE0200012600006F
:1026C0000104090C02D001210904401816495722BF
:1026D0000A70A8220A70144940394863134900203F
:1026E0000860704710493020203908740F490120D4
:1026F000086070471CB50C4857210170A821017073
:1027000009492039CA7B07231A43CA730021017083
:1027100000910B460122019111460548FFF70AFB83
:10272000002008F0E3F91CBD40100040D446002012
:10273000E407000030B50B460146002020220124AA
:1027400009E00D46D5409D4205D31D469540491BE5
:102750002546954040191546521E002DF1DC30BD2E
:1027600070B500242546002801DA012440420029E2
:1027700001DA01254942FFF7DDFFAC4200D04042BB
:10278000002C00D0494270BDF0B51FB486B00020C7
:102790000090019002900698069980B204900798E4
:1027A000090C02040014114307900027089D0998A2
:1027B00006913E463C4603900398A9B20204000CE1
:1027C000039004982D0C154348430021224600F045
:1027D00018F8C719714110340E46402CECDB38460E
:1027E000029A00F00EF8009A019B8018009059415F
:1027F00002980191103002904028CCDB00980BB079
:10280000F0BD10B5202A04DB0146203A914000209B
:1028100010BD914020239C1A0346E3401943904089
:1028200010BD03460B439B0703D009E008C9121FE4
:1028300008C0042AFAD203E00B780370401C491C3C
:10284000521EF9D27047F0B51FB40646002082B080
:1028500005464024019100901BE0019922460F4655
:10286000304600F033F8049A059B801A994110D342
:10287000104619462246FFF7C4FF361A8F410197CA
:10288000224601200021009FFFF7BBFF38184D4171
:1028900000902046641E0028DFDC019B009829463A
:1028A000324607B0F0BD0000064C0125064E05E09B
:1028B000E36807CC2B430C3C98471034B442F7D361
:1028C000FDF7EAFBAC510100DC51010010B5202AF4
:1028D00004DB0846203AD040002110BD0B46D3400F
:1028E000D0402024A21A91400843194610BD70B56B
:1028F0008C180578401C6B075B0F01D10378401CD6
:102900002A1106D10278401C03E006780E70401CA4
:10291000491C5B1EF9D12B0705D40023521E0DD490
:102920000B70491CFAE70378401CCB1A921C03E099
:102930001D780D70491C5B1C521EF9D5A142D8D3DD
:10294000002070BD03B40148019001BD6340002028
:1029500003B40148019001BDB940002003B401480F
:10296000019001BD9541002010B5124C2068C005B2
:102970001FD50320206000200821401C2268C0B21F
:102980000A4322600EE02268920510D4222807D95B
:102990000948026B002A0AD001210320904706E073
:1029A000401CC0B22268D205EDD50028E5D1002038
:1029B000206010BD80C30040186D002070B5144623
:1029C0000D460646FFF7D0FF2D480368196806221A
:1029D00091431960316899627168D962B16819636D
:1029E000F1685963296899616968D961A9681962B0
:1029F000E968596259680222914359605D68012172
:102A00000D435D601D680D431D6000E000BF596807
:102A10008907FBD55968914359609969217001680C
:102A20008969090A617001688969090CA1700168E6
:102A30008969090EE1700068C1692171C169090ADB
:102A40006171C169090CA171C169090EE171016A65
:102A50002172016A090A6172016A090CA172016A94
:102A6000090EE172416A2173416A090A6173416A80
:102A7000090CA173406A000EE073002070BD0000D5
:102A80001C49002070B50C460546FFF76DFF28482D
:102A90000268106820218843E907890E0843106006
:102AA0008034E06C1061206D5061E0699061206AB3
:102AB000D061606A1062A06A5062E06A9062206B26
:102AC000D062606B1063A06B5063E06B9060206C11
:102AD000D060D168236C1748994204D0026B002A59
:102AE0001ED0202107E0916AE36A994206D0026B6A
:102AF000002A15D021210320904711E0D169236AD3
:102B0000994204D0026B002A0AD02221F3E711690E
:102B1000E36C994206D0026B002A01D02321EAE738
:102B2000012070BD1068402108431060002070BD76
:102B30001C490020186D002070B50C460546FFF7B3
:102B400013FF28480268106820218843E907890E8E
:102B5000084310608034606C1061A06C5061E069C3
:102B60009061206AD061606A1062A06A5062E06A77
:102B70009062206BD062606B1063A06B5063E06B5F
:102B80009060206CD060D168236C1748994204D0C3
:102B9000026B002A1ED0102107E0916AE36A994275
:102BA00006D0026B002A15D011210320904711E0B6
:102BB000D169236A994204D0026B002A0AD01221FB
:102BC000F3E71169636C994206D0026B002A01D0C9
:102BD0001321EAE7012070BD10684021084310600E
:102BE000002070BD1C490020186D002010B504F0B5
:102BF000C3FE024903F089FC002010BD060400005A
:102C00000148006E70470000706F002008B5002872
:102C100008D0002906D0002A04D01088002801D04E
:102C2000002008BD1220694608706A460121034849
:102C300003F067FC6946087808BD0000350C000009
:102C400008B504F0BDF9694608706A4601210348D9
:102C500003F057FC6946087808BD000027200000F3
:102C600008B504F0F7F9694608706A46012103487F
:102C700003F047FC6946087808BD000011200000F9
:102C800008B504F02FFB694608706A460121034825
:102C900003F037FC6946087808BD000029200000D1
:102CA00008B504F025FB694608706A46012103480F
:102CB00003F027FC6946087808BD000010200000DA
:102CC000FEB508AF70CF6F4670C704F037FB0446FF
:102CD000024903F01AFC2046FEBD0000132000004C
:102CE00008B504F039FE694608706A4601210248B9
:102CF00003F007FC002008BD0E20000038B5044694
:102D000005F0B5F8694608704C70200A88706A466C
:102D10000321024803F0F5FB002038BD1B20000012
:102D200038B5044605F0BBF8694608704C70200AB7
:102D300088706A460321024803F0E3FB002038BD97
:102D40001A2000000EB500A8013005F0FCFB694612
:102D500008706A460921024803F0D3FB00200EBD2B
:102D60001820000008B500A8013005F001F86946F8
:102D700008706A460421034803F0C3FB69460878DB
:102D800008BD00000220000038B5044605F036FCFE
:102D9000694608704C70200A88706A460321024810
:102DA00003F0AFFB002038BD212000007FB50446B2
:102DB00008A861C8009002960195204605F036FCEF
:102DC000694608734C73200A887303AA03210348D9
:102DD00003F097FB002004B070BD0000202000002D
:102DE00008B505F021FF694608706A4601210348CD
:102DF00003F087FB6946087808BD00002D2000001D
:102E000008B505F0AFFF694608706A46012103481E
:102E100003F077FB6946087808BD00000820000031
:102E200008B505F027FF694608706A460121034886
:102E300003F067FB6946087808BD00000A2000001F
:102E4000F0B585B00AACF0CC03976F4670C705F0BB
:102E5000A9FF6946087404AA0121034803F051FB45
:102E60006946087C05B0F0BD0620000008B506F0F4
:102E700023F8694608706A460121034803F041FBC4
:102E80006946087808BD00000520000008B506F076
:102E900051F8694608706A460121034803F031FB86
:102EA0006946087808BD00002E20000008B506F02D
:102EB00057F8694608706A460121034803F021FB70
:102EC0006946087808BD00000C20000008B506F02F
:102ED00089F8694608706A460121034803F011FB2E
:102EE0006946087808BD00000920000010B506F00A
:102EF000E0F8024903F009FB002010BD1920000092
:102F000010B505F00CF810BD1CB500A8013005F097
:102F100029FB694608706A460721034803F0F1FA65
:102F2000694608781CBD00000910000010B505F0C6
:102F3000D3FD10BD0A7802708A7842704A88120A5E
:102F400082700979C170042070470A78027009887C
:102F5000090A41700220704708888004000C7047FD
:102F60008A78027088780128088804D012214843A2
:102F7000401C80B270478000FAE70A7802700A8825
:102F8000120A42704888801C80B270470A7802702A
:102F90000A88120A42708A7882704A88120AC270BD
:102FA0008888001D80B27047088870478A78027050
:102FB000088849884843401C80B270478A7802706C
:102FC000088849884843401C80B270470888704789
:102FD000088870477FB515460446022901D010299C
:102FE00003D1022B04D0102B02D0002004B070BDFE
:102FF000994202D10A46294607E01029694607D0BE
:1030000000F00EF810226946284611F09FFBEDE70C
:10301000104600F005F8102269462046F5E700004A
:1030200070B50C4605000CD0002C0AD010220649C1
:10303000204611F099FB287820736878607301208E
:1030400070BD002070BD00005C51010008B5002279
:103050000B4600920122024908F060F808BD00000A
:10306000352F000008B50A88172A07D300220B461F
:1030700000920322024908F051F808BD022008BD61
:103080004B2F000008B500210B461922009108F0D3
:1030900045F808BD38B5054608880C4600280DD00F
:1030A000606800280AD0012111F00CFB0090234633
:1030B00007220349284608F031F838BD022038BD00
:1030C000592F000038B5054688780C46012801D0F4
:1030D000022810D1208800280DD0606800280AD06E
:1030E000022111F0EFFA00902346052203492846F9
:1030F00008F014F838BD022038BD0000612F000030
:10310000064910B5884202D103F0D4FD10BD0DF080
:1031100033F80028FAD1172010BD0000FEFF000090
:1031200038B505464A6800200C46002A03D0032122
:10313000104611F0C7FA009023461D220249284686
:1031400007F0A8FF38BD00007B2F000038B505460A
:103150004A6800200C46002A03D00321104611F0D3
:10316000B1FA009023461B220249284607F092FF3D
:1031700038BD00007B2F0000024800210160416043
:1031800070470000404900200098022B01D0042025
:10319000704751781278090211430180002070476E
:1031A0000098012B01D00420704711780170002095
:1031B000704770B5049C1E461546062B1BD36878D5
:1031C0002978000208432080E878A97800020843A3
:1031D0006080022020710246291D601D11F0C4FA92
:1031E000B01F2081062E03D0AD1DE560002070BD0C
:1031F0000020E060FAE7042070BD0098042B01D0A5
:103200000420704751781378090219430180D1785E
:10321000927809021143418000207047F8B58489F3
:103220000D46002C2BD086683778390601D4002053
:1032300010E00D2C23D30C3CA4B23119009140882E
:1032400023463246012107F027FA002801D0022048
:1032500000E0012079062870C90FBA066970920E45
:10326000AA70641E2204120CAA8002D0761CAE60E2
:1032700001E00022AA60022803D1002901D0012028
:10328000F8BD0020F8BD10B50298042B14D3517876
:103290001478090221430180D178947809022143EE
:1032A0004180191F8180042B02D0121D826001E031
:1032B00000218160002010BD042010BD0098042B67
:1032C00001D0042070475178137809021943018016
:1032D000D17892780902114341800020704710B5DF
:1032E00002981146062B03D0142B03D0042010BDE6
:1032F000022200E0102202714A780B7812021A436F
:103300000280CA788B7812021A4342800279401DEB
:10331000091D11F029FA002010BD0098D90706D127
:10332000022B04D0590881800260002070470420DD
:1033300070470098022B01D0042070475178127812
:103340000902114301800020704710B5029C022B36
:1033500011D32072617250781178000208432080E6
:10336000981E6080022B02D0921C626001E0002057
:103370006060002010BD042010BD000038B5054677
:1033800088680C46002802D0052111F09BF90090B6
:10339000234617220249284607F0C0FE38BD000028
:1033A0008D2F000038B5054648680C46002802D02D
:1033B000012111F087F9009023460D220249284689
:1033C00007F0ACFE38BD0000A92F000038B5054657
:1033D00008880C4600280DD0606800280AD0022119
:1033E00011F070F90090234611220349284607F096
:1033F00095FE38BD022038BDAD2F000038B505461A
:1034000008880C4600280DD0606800280AD00221E8
:1034100011F058F90090234609220349284607F085
:103420007DFE38BD022038BDBD2F000038B50546F1
:1034300048680C4600280AD0012111F043F9009099
:1034400023460F220349284607F068FE38BD0220B4
:1034500038BD0000CD2F000038B505464A68002071
:103460000C46002A03D00121104611F02BF90090E0
:1034700023460B220249284607F050FE38BD0000C3
:10348000D12F00000149086070470000404900202A
:1034900070B5054608480C46854205D0172C03D365
:1034A00003F008FCA04201D2012070BD214628464D
:1034B0000CF022FF70BD0000FEFF000008B50021E7
:1034C0000B461322009107F029FE08BD044803496A
:1034D000006801600349C16270470000A52208012D
:1034E00020490020784E010010B5074C5D2021686E
:1034F000086506F00FF8206800210165034842794D
:10350000521C4271C17110BDF84600206C6D002044
:1035100070B52C49002048602B4800892B4CC0B264
:103520008109022904D0012908D0810916D026E09A
:10353000D020A0800820E080E8201FE0C506ED0E26
:103540002D2029468001FFF7F5F8A0802946782034
:10355000FFF7F0F8E08029461D480DE0C506ED0EA6
:103560002946C020FFF7E6F8A08029460820FFF78B
:10357000E1F8E0802946E820FFF7DCF820811649D1
:10358000144808601649154808601749154808602E
:1035900017491648086018491648184C0860184919
:1035A00020680122D2020861801848610120487118
:1035B00000F062F9607D002802D1124920200860E5
:1035C00070BD0000FC460020001000404C6D002043
:1035D000980D000000C000402449002000C30040B6
:1035E0001C49002000C20040F846002000D00040E6
:1035F0002849002000C1004020490020186D00200B
:103600006C6D002000E100E0F8B556480068816864
:103610000127C9050025544C544E00292EDA816833
:103620003A0291438160207840060CD550485149B8
:103630000068884206D15049886BE0608A6B9042EE
:10364000FAD100E080472078384320706570E07937
:10365000062803D043495D200968086530680028C2
:103660000AD001690A68406902430A603168086843
:10367000026889680A4302606571A560394B186861
:103680008168890521D581680122520291438160B8
:10369000A0783843A070E57038480068C16A89088E
:1036A0008900891CC1620168D2041143016030683D
:1036B00000280AD041680A68806802430A603168BD
:1036C000C868026849690A43026018688168890706
:1036D00017D58168022291438160E770A5705D2152
:1036E0000165306800280AD001690A684069024310
:1036F0000A6031680868026889680A430260657177
:10370000A56018688168C90715D081684908490013
:10371000816025706770306800280AD041680A68A7
:10372000806802430A603168C868026849690A43D0
:1037300002606571A56018688168C90603D5816853
:103740001022914381608168490703D58168042272
:10375000914381608168090703D5816808229143FC
:103760008160F8BDF84600206C6D00200047002005
:10377000F44600200DA20000001000402049002067
:1037800070B504460068002828D00121000C4903C8
:10379000884223D1A088002820D020460622FF217D
:1037A000163010F0C4FF01281AD0A288002120682A
:1037B00011F0D0F8342200212D4811F0CBF834223A
:1037C00021462B4810F0D0FF294806221630002150
:1037D000054610F0ACFF012804D008E0022070BDBF
:1037E000032070BD23490622284610F0BDFF204863
:1037F0008189002902D1012149028181827B012135
:10380000002A00D18173C27B002A01D11B22C2731E
:10381000027C002A01D105220274427C002A00D1D8
:103820004174817C002901D114218174817F002998
:1038300001D128218177C17C002908D0827FE17CD9
:1038400092088918C174617F002904D005E0817F46
:1038500089082D31F6E702214177806A002803D0DC
:10386000804703493431488106F0C4FF002070BD11
:10387000186D00200806040010B500F065F803F08C
:1038800081FB05F0E1FDFFF721FE0B4C5D20216877
:10389000086505F0F1FE06F0AFFC05F0B5FE05F099
:1038A00039FE064801214171226800211165C1716C
:1038B000FFF75AF810BD0000F84600206C6D00209C
:1038C00070B50E4B00209989002901D10C499981CE
:1038D0000E210124A4039A8915462540CD405204A7
:1038E000120C0543E8B25604D50BF60F754015438C
:1038F000491EC9B29D810629EDD870BD706F0020A8
:10390000FF7F000070B50E4B00205989002901D1BE
:103910000C49598108214C015A8915462540CD4052
:1039200005435200E8B2550A56097540ED07ED0F00
:103930001543491E09065D81090EEDD170BD0000D9
:10394000706F0020FF0100000A48094900680A69F9
:1039500002610A69426149698161C161826801212C
:1039600049030A438260C2680A43C260704700008C
:103970006C6D00202449002030B5104A0346517A6E
:10398000FD20842454720E4CA568002D07D0A57B21
:10399000002D04D0A489E51FFF3DFA3D02D05172ED
:1039A000FF2030BD7D24E402A34205D35360A6204E
:1039B0001072907A40235840517230BD0018004078
:1039C000186D0020F8B500240F4E274613E0F06B69
:1039D000250128180622FF2110F0BCFFF06B0622FB
:1039E0002818FF21801D10F0B5FFF06B2818878183
:1039F000641C8773E4B2307E8442E8D3002011F067
:103A000089F8307E7076F8BD7848002070B50C4695
:103A10000146012080020A1A00252B48130007F0F6
:103A2000E3F820111316181A1D1F21232527292B0F
:103A300032343648393B3D3F434848484848484877
:103A400048464148007800E04078207039E08078AE
:103A5000FBE7C078F9E710221C4910E00079F4E791
:103A60004079F2E7006A13E08079EEE7C079ECE78D
:103A7000007AEAE7407AE8E714491022103120463C
:103A800010F072FE1DE0807ADFE7C07ADDE7406A61
:103A9000206016E0007BD8E7407BD6E7807BD4E748
:103AA000407CD2E7807CD0E708F0B6F8CDE7807D97
:103AB000CBE7192904D2084601F058FA208000E02B
:103AC0000225284670BD000078480020A46E002022
:103AD00010B5044600F0D4F80248C47508F0D6F9D1
:103AE00010BD000078480020FFB58FB006460020CA
:103AF0000C900D901F460CAA304600F0B5FA454DCB
:103B00000446287E84425AD2204608F09FF9064691
:103B1000042F04D0A879022803D0002002E02878DE
:103B2000F9E7012000903B4632462146119808F003
:103B30004BF81422002101A810F00CFF20460621AA
:103B4000484300902430C0B201AA102111F040F87F
:103B5000002813D11022FF2101A810F0E8FD002851
:103B60000CD1009805AA2530C0B2042111F030F81C
:103B7000F107C90F01AA119801F070FC7034E0B28E
:103B800006AA182111F024F8002811D106A808F07F
:103B90006FF90024A10006A808180188002903D0A5
:103BA0008278119801F09AFF641CE4B2062CF1D3DC
:103BB000B00706D5E97D119801F07EFF01E0082FDE
:103BC00002D0042F13D021E0A87902281ED10022B0
:103BD0003146119807F032FFA86A002816D04368D2
:103BE000002B13D000221146119898470EE0287838
:103BF00002280BD129791198002900D001216A7877
:103C0000002A00D00422114301F0EEFB002013B083
:103C1000F0BD000078480020F8B501F03DFA00281A
:103C20002BD1164D0026E87C012801D000241CE091
:103C300008F03EF8EE7400202A7EE96B04E00301F0
:103C40005B18401C9E73C0B29042F8D310E0E86B42
:103C500027013818807B012805D1204608F03AF862
:103C6000E86B38188673641CE4B2287E8442EED375
:103C7000502010F071FF08F009F9F8BD78480020D5
:103C8000F8B5354EFF20F07500273776334CF763D3
:103C9000A07B30214843422110F082FDF0630028D0
:103CA00025D02046807B410040183076002413E068
:103CB000F06B250128180622FF2110F04BFEF06B57
:103CC00006222818FF21801D10F044FEF06B2818F2
:103CD0008781641C8773E4B2307E8442E8D31F4836
:103CE0008068002801D0B77601E08020B076307E71
:103CF00070760124776334707770B770F770102294
:103D00000021174810F026FE37717725757137624C
:103D1000B471F77112483772777210220021103097
:103D200010F018FEB772F572776237730520707362
:103D30001020B073F77302203074B762F7623763F4
:103D40007774F774347504487475B4750549483050
:103D5000016005494160F8BD78480020186D0020D9
:103D6000A46E00209DC1000065C1000070B5002454
:103D7000054600290BD108491046FEF7DBFC084632
:103D8000294601F0E5F9040003D00121284601F09D
:103D90008DFB204670BD000040420F0010B5064963
:103DA0000C46483CA162E062E17D182001F03CFB3A
:103DB000E07D01F02DFE10BDC048002070B5264DFD
:103DC0000C4608040FD5E87D10F008FE050006D06B
:103DD00008F002F9002802D0284610F0D7FD012093
:103DE000C003604070BDA0070BD50021084607F056
:103DF00087FD02214C40002825D1E87D10F078FE97
:103E00001FE0E00721D0686B808808F017F90121D6
:103E10004C40002817D0A86A00280DD04368002B1A
:103E20000AD0686B002280889847A96A686B0022D4
:103E30004B68808803219847287D10F0A9FE07F081
:103E400051FD204670BD0121D7E7600702D504204F
:103E5000484070BD002070BD784800207FB5044602
:103E600080787F4D801F030006F0BEFE0AF4F7F74E
:103E7000A41306F0F778B9F7A96A2046002907D0FD
:103E80000C68002CFBD0437B027B4189C01CA047FF
:103E9000E3E060780026002847D1A079C00744D02D
:103EA000686B002841D110220021684610F052FDB5
:103EB0006169002903D006226846103107E0A08816
:103EC0000CF084F80028E3D0811D0622684610F02B
:103ED0004BFC69468889A1794907C90F084369469F
:103EE000888107F099FE297E88420BD1A87D0028A1
:103EF00001D0FFF767FD5B48026B002A02D0012169
:103F00000820904707F088FE297E8842A87E02D1CB
:103F10000121084301E040084000A8762146684698
:103F200007F0EEFC002812D01526A86A002855D00C
:103F30004368002B52D06278A08801219847002E58
:103F40004CD0A96AA0884B683246032173E0022155
:103F5000E87D10F0CDFD002004B070BD607806282B
:103F600017D1A0880CF032F8060012D0287C012866
:103F700004D0022808D003280BD114E07179A0885E
:103F8000002207F05BFD04E0A1883078052201F0F3
:103F90009DFAA86A002860D04368002B5DD0627843
:103FA000A088022147E0002241201146000100F0D4
:103FB000F7F8E9E7E0780022211D00F055F8297EA6
:103FC00088424AD20621484325302246C0B20C32EC
:103FD000042110F041FE287D10F0DAFD3DE0287B41
:103FE000002802D0A088697B28E028780028A088D3
:103FF00023D00BF0EBFF06002FD0A07AC0070BD028
:104000007079002808D0A189890505D46A46B11DB8
:1040100000F02AF8002814D022467179A0880832CE
:1040200007F00CFDA86A002817D04368002B14D0B5
:104030000022A088114698470FE0052101F036FACA
:104040000BE0A0880321F9E700E003E0A08800F07E
:1040500031FA02E0A088FFF7DFFD01207CE70000D5
:1040600078480020186D0020F0B52E4E85B0347EC3
:1040700015460F46002806D0012804D0022811D08A
:1040800003284BD121E0084607F098FE317E044614
:10409000884243D2002D41D006223946284610F0EE
:1040A00063FB3BE000240BE0F16B2001401806228B
:1040B0003946801D10F04AFB002826D1641CE4B26A
:1040C000307E8442F0D3C4B21FE0002419E02046C1
:1040D000062148432330C0B26A46102110F078FD13
:1040E00000280CD11022FF21684610F020FB002888
:1040F00005D13946684601F045F9002805D0641C11
:10410000E4B2307E8442E2D3DDE7307E844205D2E1
:10411000002D03D02946204607F078FE204605B042
:10412000F0BD000078480020F8B50E461949152565
:10413000194F884214D1002409E03246022120465A
:1041400007F084FD002800D00025641CE4B2387E0E
:104150008442F2D3002E1BD010480CF055F817E023
:104160000BF034FF040012D060790022A11DFFF78C
:104170007BFF397E884204D23246022107F066FD79
:104180000025002E04D0204607F0C2FE00E01425D2
:104190002846F8BDFFFF00007848002011BF00004E
:1041A000F0B50746012080021546381A89B0002470
:1041B000BC4ABD4E030006F017FD2011181F262D26
:1041C000333A3F464D545B626970757CEFEEEDEC1F
:1041D000EBEA89E9E8AAAAF3F6E5E4EB012971D153
:1041E000287802286ED8307059E10129F7D1287853
:1041F0000128F7D8707052E10129F0D128780428FD
:10420000F0D8B0704BE10129E9D128780128E9D82C
:10421000F07044E11029E2D110222946A348ADE014
:104220000129DCD128780128DCD8307137E1012957
:10423000D5D12878707132E10429D0D12868904214
:10424000D0D830622BE10129C9D128780228C9D8F9
:10425000B07124E10129C2D128780128C2D8F071B7
:104260001DE10129BBD128780428BBD8307216E1A2
:104270000129B4D128780128B4D870720FE110292F
:10428000ADD18A4810222946103077E00129A6D105
:1042900028780128A6D8B07201E101299FD1287899
:1042A000F072FCE004290DD1286890420AD87062AF
:1042B000F5E0002906D100F0EFFE002803D0012030
:1042C000F074ECE074E007F0F3FC1CE007296FD118
:1042D0000622691C684610F047FA287800226946D1
:1042E000FFF7C2FE0546307E854239D200F0D4FE8B
:1042F000002805D0F26B0120290189188873CEE0CF
:10430000284607F0E7FC502010F026FC96E007292D
:104310004ED10622691C07A810F026FA2878002240
:1043200007A9FFF7A1FE317E88421BD20621484330
:1043300005462135E8B26A461C2110F049FC0028E8
:104340000ED15B48874201D1012000E0FF20694681
:10435000C876E8B26A461C2110F07EFC307D4BE046
:1043600002249CE0B07E0028FAD05148874214D144
:104370000120F0764C4807222946403010F0F4F92D
:104380008DE05EE07AE00EE00AE075E06FE067E065
:104390007BE04AE041E039E031E00020F0767EE069
:1043A000002070757BE00027012070753D461BE002
:1043B00066E028460621484306462136F0B26A46A2
:1043C0001C2110F005FC00280CD16846C07EFF2897
:1043D00008D0FF206946C8760127F0B26A461C2142
:1043E00010F03AFC6D1CEDB22F48007E8542E0D300
:1043F000002F54D02C48007D10F0CAFB4FE001295B
:104400003ED1287801283BD8307348E0012937D1C4
:104410002878092834D8707341E0012930D12878F0
:10442000C11F09292CD8B07339E0012928D1717C2A
:1044300028787074002932D1012830D107F026FD88
:104440002DE001291CD1B17C2878B074002903D15A
:10445000012801D107F01AFDB07C02F0E2F81EE05D
:1044600001290DD1287803280AD8307417E00129D2
:1044700006D12878307512E00120BDE7012901D06E
:1044800018240CE02878B07509E0192F00D367E7ED
:104490000229FCD12988384600F0C6FF0446204690
:1044A00009B0F0BD3F420F0078480020A46E002004
:1044B0001A040000FEB50646002001900290304626
:1044C0000BF084FD040017D0144FB879022813D0E4
:1044D000607901AAA11DFFF7C7FD0546387E854218
:1044E0000BD2284607F0B2FC0246012000900823B8
:1044F0002946304607F068FBFEBDB879002807D092
:104500000128F9D161790022304607F097FAFEBD03
:104510000521304600F0CAFFFEBD000078480020AB
:10452000F7B516491525164E174688420FD10024B7
:1045300009E03A462046019907F0F4FC002800D033
:104540000025641CE4B2307E8442F2D313E00BF009
:104550003DFD00280ED04379811D00221846FFF74B
:1045600083FD317E884206D23A46019907F0DAFC93
:10457000002500E014252846FEBD0000FFFF0000D6
:104580007848002070B50C460146032000020A1A44
:1045900000252548130006F027FB130B0D10171AF2
:1045A0001E2125292B2D3133393B3D3D35373D002B
:1045B000407811E010221D4902E01C491022103100
:1045C000204610F0D1F82DE0406920602AE016491D
:1045D00006221E31F4E7C078207023E01249827869
:1045E0002431EDE7114902791F39E9E7407AF3E711
:1045F000807AF1E70C4906221831E1E7C07AEBE74F
:10460000007BE9E7C0890AE0008A08E0007AE3E776
:104610004079E1E7192904D2084600F0A7FC208080
:1046200000E00225284670BDCC480020036F002022
:10463000F8B5164CFF202070002565700320A0708F
:104640000126E670062765611920E781C0012082F6
:1046500020461F222946243010F07CF920460221F2
:10466000243001704670877025711F220021084890
:1046700010F070F9204606220021183010F06AF977
:104680006571A571FF20E071F8BD0000CC480020E5
:10469000E46E0020FFB583B01C4615460E460C9F05
:1046A00003980BF093FC002817D0C189B14207D3BF
:1046B000A94205D8018AA14202D1408AB8420ED04F
:1046C0006846068045808480C78069460D9A0398B5
:1046D00002F0C2FA002007B0F0BD1420FBE718205A
:1046E000F9E7000010B52548007F800744D0244C2E
:1046F0002078FF2840D1234806F0C4F82070FF2816
:104700003AD0214900240C602049214A0C70042130
:10471000117000F031FE102200211E4810F01AF92D
:10472000102200211C4810F015F91C481E49046095
:104730001B48184A04701B480470072008701B4867
:1047400010210470022010F043FA134A10210320B4
:1047500010F03EFA10220F49154810F005F81448E1
:1047600010220D4910300FF0FFFF04210B4A0846BC
:1047700010F02EFA002010BD182010BD186D00207A
:10478000CC48002015480000C8480020D44800202C
:10479000CD480020036F0020136F0020E048002068
:1047A000D5480020D6480020D7480020D84800200F
:1047B000C46E002010B504F033FC104806F062F817
:1047C00002F08AFA0E4806F05DF800F0DBFB0D48B7
:1047D00006F058F801F0D2FA0B4806F053F805F04D
:1047E000DBFD0A4806F04EF8FFF772F9084806F0BC
:1047F00049F800F00DFFFFF775FF10BD1D6E0000BA
:1048000095520000895E0000A9A40000BD3D000093
:1048100091570000FEB54A4C0D46080448D5207853
:1048200010F0DCF8040040D046480078002808D09A
:104830002078454ED02808D0A22802D0912821D037
:1048400014E0204608F04CFD2CE0A07800280DD0A4
:10485000052807D0082809D006280BD00728F0D152
:10486000A0881BE0608919E0007B04E0204608F086
:1048700037FD02E0E0790828E3D12146307810F0D6
:10488000E5F812E060780E28F0D1A0882F49884220
:10489000ECD1A06881784278080210430BF096FBB7
:1048A0000028E1D1204610F071F80120C00345E056
:1048B00068040BD50421264A084610F0CDF9254896
:1048C000007810F065F90120800337E0E80736D062
:1048D00021480078002830D00BF0AEFC1F49097F3A
:1048E0008907890F884203D30320694608700CE0CA
:1048F0001B486946007808701A48062200784870FC
:1049000000A8194902300FF02FFF184869460078B7
:104910000872174800784872207800F04FFB002892
:104920000BD014490620087013490968002904D0E7
:104930000A68002A01D00021904701206840FEBD8E
:10494000CC480020D2480020D348002005140000A5
:10495000E04800208C480020CF480020186D00203F
:10496000D5480020D6480020E4480020D748002041
:10497000D8480020D4480020C84800207CB5144600
:104980000D4601F0FBFA002D02D02846FFF706FA8B
:104990000C480078002801D011207CBD002C01D0EB
:1049A000094804600A48009008490B4801910278C0
:1049B0000A48084B01780A48007800F059FA0020AC
:1049C0007CBD0000D4480020C8480020E0480020FA
:1049D000136F0020036F0020D1480020CD48002035
:1049E000CC480020F8B50C465E49164642181921FD
:1049F0000025C9015C4F130006F0F6F8120A1017E3
:104A0000A81C3E526970778188A8A3A8A88F98A88F
:104A1000102C73D11022314654486CE0102C6DD10B
:104A2000524810223146103065E0042C66D13068BF
:104A3000786190E0012C61D1F97830784A4AF870B9
:104A4000127800290AD0002807D1387A022801D02C
:104A5000052802D1104600F05FFA7CE000287AD0E9
:104A6000387A012803D0032801D0042873D101210A
:104A7000104610F03DF86EE01F2C60D83A481F2217
:104A8000002124300FF066FF37482246314624309B
:104A90000FF06AFE344BBC7024332246012112E031
:104AA0001F2C4CD831481F2200211F380FF052FF15
:104AB0002E48224631461F380FF056FE2B4B3C71D4
:104AC0001F3B22460021387800F044FD48E0012CCD
:104AD00035D13078042832D878723CE0012C2ED1C0
:104AE000307803282BD8B87235E0062C27D11E4821
:104AF0000622314618300FF037FE2CE01FE0012C63
:104B00001DD1307807281AD8F87224E0012C16D16C
:104B10003078032813D838731DE03088022C0ED16A
:104B200006280CD388420AD8F88114E03088022C79
:104B300005D1062803D3884201D838820BE0182516
:104B400009E0012CFBD13078787104E0192801D2FA
:104B5000022C02D002252846F8BD318800F064FC02
:104B60000546F8E7FFFCFFFFCC480020036F00205C
:104B700010B504460BF02AFA002805D0007813225D
:104B8000214600F0A3FC10BD122010BDF8B50E4662
:104B9000070048D038880BF019FA050041D0234AA5
:104BA000A96BD078022806D0012804D0287B0828D9
:104BB00003D1002E01D0122436E0002901D01124A7
:104BC00032E01B492C200FF0EBFD0446A8632000C7
:104BD00025D02C2200210FF0BDFE388860801C22D9
:104BE000391D201D0FF0C0FD022020700F483A88AB
:104BF0000178287B082810D00020231D05F001FD36
:104C00000446002E03D0314628460EF0AFFB002CA0
:104C10000AD0284607F0EEFB06E00120EDE713245A
:104C200002E0142400E002242046F8BD36490020AA
:104C300014470000FFB51F4881B0C0781E461746D4
:104C40000D46022818D0012816D0002F30D0019828
:104C50000BF0BCF9040029D0E06A002801D00FF065
:104C6000F3FD1C2138460FF08BFDE062011E1BD0C6
:104C7000207B082803D00DE0122005B0F0BD002EE7
:104C800008D0887E00900B4612330A8A01980EF0F5
:104C9000B5FE00E000202179002D01D0062200E0C1
:104CA000042211432171E8E71320E6E71420E4E72A
:104CB0000220E2E73649002010B50548C078000719
:104CC00001D5044800E0002008F012FA10BD0000F1
:104CD000364900205449002070B51A4C0546012180
:104CE000207807F0ADFB1848C1780A20014223D094
:104CF0002570164808F0F6F9606800281AD1207867
:104D000000281DD0000107210FF04AFD6060002837
:104D100010D021780A0100210FF01CFE0020FF2195
:104D2000626803E00301401CD154C0B2237898426A
:104D3000F8D305E0132070BD0020207008F0D2F9F0
:104D4000002070BD4849002036490020246F002013
:104D500009490020087048608860094807490160D7
:104D60000849416008498160034808490C300160E6
:104D700007494160704700004849002041C30000D6
:104D8000246F002065CC0000C1CB000021C20000D0
:104D900059C20000F3B5334F0025BE7883B00446F6
:104DA00003282DD83878032802D0102005B0F0BD94
:104DB000012C04D0022C02D0032C29D02DE0049821
:104DC00000280CD00622002168460FF0C3FD062201
:104DD000694604980FF0BAFC002811D104E00621BE
:104DE00068460EF0B5F818E00622FF2168460FF07D
:104DF000B1FD0622694604980FF0A8FC002801D0F6
:104E00000220D3E70622684604990FF0ADFC04E0C7
:104E10006946F86805F04DFA05461348BC700078FD
:104E2000042110F015F800207871002D01D0BE701B
:104E300015E0002C13D0684607F044FE0500F6D1BB
:104E4000032C0CD1112000F091F80006000E7871AF
:104E500005D00548054A007804210FF089FF28464F
:104E6000A4E70000C46D002036490020007701004F
:104E7000F8B50224079F1D461646042919D004DC04
:104E8000012907D0022945D10BE008291BD00C29A4
:104E900040D129E000F040F904003BD100F094F942
:104EA00038E000F039F9040034D13046FFF714FF40
:104EB00030E000F031F904002CD13A46284606993A
:104EC00000F064FA20E000F027F9040022D13A460D
:104ED0002846069900F05AFA3046FFF7FDFEFFF724
:104EE000EBFE05F06BFA15E000F016F9040011D1A5
:104EF0003A462846069900F049FA3046FFF7ECFE9C
:104F0000FFF7DAFE05F05AFA00F05EF900F044F916
:104F100005F02EFB2046F8BD70B5104C2168002925
:104F200019D00978814214D10D4D022128780FF053
:104F30008FFF0C4800264680287804210FF088FF58
:104F400009484671216803204870002001F071FB78
:104F500070BD032070BD122070BD000018470020F6
:104F60003649002030470020C46D0020192801D3A5
:104F70000248704702494000085A7047FFFF00008E
:104F8000E46D002010B5044600F08AF800F062F9E4
:104F9000FFF7DEFEFFF74CFB0649FF23CB70002234
:104FA0008A700A710448052143700470204601F09C
:104FB0007DFF10BDC46D002036490020F3B5304E92
:104FC0000024306883B0002802D0112005B0F0BD65
:104FD0002C4D0521E878084201D11220F6E72A4934
:104FE0004968002905D00978002902D0C00702D0FD
:104FF00008E01020EAE700F04FF807460BF0FEF853
:10500000874207D304980078022803D0032801D0F0
:10501000122432E01D490C200FF0C2FB3060002842
:105020002AD003990170002141700A22801C049942
:105030000FF09AFB164EB078032806D008F0F2FA6B
:1050400004001AD007F0CAF917E007F04FFA6946D2
:1050500005F02FF9684607F035FD01203071112069
:10506000FFF784FF0006000E707106D02878094A09
:1050700004210FF07DFE00E013242046A6E7000087
:10508000184700203649002030470020174700000D
:10509000C46D00200077010010B50BF099F810BD29
:1050A0001A4800210170417041608160C160016156
:1050B000416181611648B42201804280012292033D
:1050C0008280A022C28002811022428182815023EC
:1050D000C381038242828282C2827D2302831B01BA
:1050E00043838183C18301840F234384094B8384D9
:1050F0000723C3840285012242857E22D243828512
:10510000C1850186491E4186704700000447002082
:10511000E46D002080BB000070B50E4605462022DD
:10512000002109480FF016FC074C0848E570C670CE
:1051300001F0AEFA002803D000202070122070BDCC
:105140000121217070BD0000C46D0020364900208F
:105150007FB504460D4608460AF038FF002817D0F0
:105160000C48844212D21022002168460FF0F2FB54
:1051700069460C70200A4870200C8870200EC87098
:105180002946684605F04EF904B070BD0220FBE7E1
:105190001220F9E740420F0010B50848C0784007D8
:1051A00007D5074807F0B0FF00200649C043C88074
:1051B00010BD002007F0A8FF10BD000036490020F8
:1051C00040470020C46D0020F8B51E4C00256068E3
:1051D000002802D00FF038FB6560E068002802D09C
:1051E0000FF032FBE560184E0527F078384224D0E6
:1051F000164807F083FFF07838421CD0144920206D
:105200000FF0CEFA6060002815D0202200210FF0A8
:10521000A1FB0F492020491E0FF0C2FAE0600028D0
:1052200005D0202200210FF095FB0020F8BD60681A
:105230000FF00AFB65601320F8BD002007F05EFF49
:10524000F3E700003047002036490020186E0020A8
:10525000164700000948FF2101700021418041608C
:105260008160C160074806490160074941600749FC
:1052700081600249064810310860704730470020BD
:1052800061C70000186E0020F1C7000025D600009D
:10529000D1C60000FEB5354F354D0C4608041FD56C
:1052A00038780FF09BFB061E17D03078A22806D066
:1052B0007D78304607F01CFE00280AD102E02C4819
:1052C000C578F6E7FF2D04D0314628460FF0BEFB27
:1052D000E6E730460FF05AFBE2E70120C00341E069
:1052E000E0070126234900280AD04868002804D096
:1052F0004168002901D00020884720467040FEBD4B
:10530000A00709D5C868002804D04168002901D049
:1053100001208847022025E0600725D5687900280C
:105320001FD0401E0006000E68711AD1486900287F
:1053300008D02E71C868002804D04168002901D027
:10534000012088476946E86804F0B3FF684607F023
:10535000B9FB1120FFF70AFE6871387804210FF0BD
:1053600077FD04206040FEBD0020FEBD36490020D0
:10537000C46D0020044700200149487070470000B8
:105380003649002010B505F0CDF810BD70B5154CAC
:105390000E46626121610546E0601022FF21304621
:1053A0000FF0C5F9012806D01022002130460FF079
:1053B000BEF9012803D1102120690DF0C9FD10228A
:1053C000FF2128460FF0B3F9012806D01022002152
:1053D00028460FF0ACF9012803D11021E0680DF048
:1053E000B7FD70BDC46D00207FB50C4605460AF0C0
:1053F000EDFD002814D0826B007B042802D012201F
:1054000004B070BD002A00D0947D684621460EF09D
:1054100031FB044B6A46022128460EF0ADFAEFE755
:105420001420EDE7673F010070B50C4605461928CA
:1054300002D20848844201D1022070BD112D04D14E
:105440003C20604380B201F007F9034968000C5228
:10545000002070BDFFFF0000E46D002070B50E4617
:1054600011491546CB78022B17D0012B15D0002DF2
:1054700017D00AF0ABFD040011D0002E03D0207924
:1054800002210843207120461022294618300FF0CF
:105490006BF92869A062002070BD122070BD142035
:1054A00070BD022070BD00003649002038B50C46A2
:1054B00005460AF08BFD002806D068460470694650
:1054C00028460EF047FA38BD142038BDF7B505461A
:1054D0001E4812261E4F0C46814208D1B86800288B
:1054E00032D00268002A2FD028469047FEBD1748C8
:1054F000401C844219D1B868002806D00268002AEE
:1055000003D028469047002806D02846029906F086
:10551000B7F9060005D017E07D70029838700020BA
:10552000FEBD7D70029838700EE008460AF04EFD10
:10553000002809D00078A84201D00320FEBD2046F3
:10554000029900F0EAFFFEBD3046FEBDFEFF0000FE
:105550000447002070B51446024620481E46C07815
:105560000523184224D01E4D00296B68E86802D03C
:10557000002B1DD001E000281AD0202C2CD2002CAA
:1055800001D0002E28D02A70002913D01F2200211C
:10559000581C0FF0DFF9686822463146401C0FF0B6
:1055A000E3F8696820460C70491C01F03EF870BDB4
:1055B000122070BD1F220021401C0FF0CBF9E868BB
:1055C00022463146401C0FF0CFF8E96820460C70A7
:1055D000491C01F049F870BD022070BD3649002019
:1055E0003047002010B5094A014613790020002BEE
:1055F0000BD101231371C90707D013466433184632
:1056000010220421403800F009FA10BD00480020A3
:10561000F8B5044600F070FE00F046F8114F134E46
:10562000FC701149304600F027F81149C0200FF0F6
:10563000B7F800221346B8619401065300212418DC
:105640000C254D436519AB80491CEB600529F7DB40
:10565000521C032AF0DBF878787006480AF008FE3E
:10566000F8BD000000480020666E0020FFFF00002B
:1056700001470000FDDC000070B50A4C0025A04287
:1056800008D1002082008C525218401C95700328CB
:10569000F8DB70BD08F003FB0028FAD004808570A9
:1056A00070BD0000FFFF0000F0B51E49202008700B
:1056B000FF2048708870C8700126CE8000200881C5
:1056C000C86008610B4602241C3348611C70164AEE
:1056D0005A600A46087124321470144D55601672CF
:1056E0005081D3601474124F15466F612E76688313
:1056F000E9612021545413460E4D59185D62087219
:105700005885D862302154540B4C032351185463EC
:105710000B725087094ACA600249094A643105C1BF
:105720000860F0BD004800203251010034510100F2
:105730003A5101005251010040510100666E0020B3
:10574000D5E70000F8B50E460746069900240798ED
:10575000002902D00B242046F8BD022B01D00D24D5
:10576000F9E7517812780D0215432946814301D09B
:105770008024F0E73846F16800F042F9A842EAD008
:105780002A463846F16800F0F1F90446E3E70000E4
:1057900070B50D4608041AD50E48C0780FF01EF9F2
:1057A00004000FD02078B02809D1204608F03EFC34
:1057B000002804D020462179083000F07FFD2046E3
:1057C0000FF0E4F801212846C903484070BD0020CD
:1057D00070BD000000480020FFB585B000200F9F7D
:1057E0000090087A0E9D1C460E46C0060BD5079801
:1057F00008F04EFA03007DD00A22314605989847FA
:105800000090002816D13078022815D0079808F0AB
:1058100065FA0028EFD0006884460028EBD0119983
:10582000109822460097029101902B46314664461B
:105830000598A04709B0F0BD70682922417800782A
:10584000090201431202881A91427CD00BDC69489C
:10585000081A13D0012811D0022817D00328D5D157
:10586000002F53D09BE001287ED002286DD0032862
:1058700077D00428CAD1002F68D090E0002F6FD1D4
:10588000F068017829800278416884E0002F67D1B0
:10589000F068417800780F02074304202880F06800
:1058A00004A900782070F06840786070384600F0F5
:1058B00089F9060022D06846028A03AB4E49304679
:1058C000F76800F0DDF900280AD1337802214B484F
:1058D0007268FDF77FFB002802D14748694688813E
:1058E000387802280CD10222201D79680EF03CFF86
:1058F000288800E07CE0801C288001E068468781E1
:1059000068468089A070000AE0706FE0012028805E
:10591000F0680021007820707089401C80B200F08F
:1059200051F9002813D0298802788918891C298008
:10593000817A61704189090AA17002784168E01C8E
:105940000EF012FF52E00CE00EE026E03BE028886B
:105950000422001D28800021601C0EF0FBFF45E0A2
:105960001DE0002F27D01AE0F0680FF084FA80B213
:10597000B84201D207205DE7874201D1002006E04E
:105980001099C919814201D3C01B00E010982880EA
:1059900082B2F068C1192046D2E7002F01D00B2057
:1059A00048E7F168059800F02BF802212980207063
:1059B000000A60701AE002202880F06800782070E9
:1059C000F0684078F5E70721F068298001782170B8
:1059D000417861708178A1704188090AE17001798C
:1059E000217181796171C088000AA071009821E756
:1059F0000E201FE700280000FFFF000036510100C5
:105A000010B508F04CF9002800D0807810BD0000D7
:105A10000149887070470000004800207CB51E4690
:105A200005001CD0684601808270019500F0ACFA38
:105A300004001FD1002E1DD0688900280FD00E4908
:105A40000C200EF0ADFE002813D000210160698902
:105A500081800A4A86601169002903D107E002208B
:105A60007CBD11460A68002AFBD1086002E0106183
:105A700000E0132420467CBD0547000000480020BC
:105A8000F8B50C4C0746A07815460E46FF280FD0F7
:105A90000A200EF067FF01000AD0B12008704F8085
:105AA000002048700871CE800D81A0780EF0CEFFE6
:105AB000F8BD00000048002070B50C4605460649B8
:105AC000FFF79EFF800704D52146284600F0B8FA6C
:105AD00070BD012070BD0000666E00200EB56B46E3
