:020000040000FA
:100000000080002095230000014000209F23000075
:1000100000000000000000000000000000000000E0
:100020000000000000000000000000009F2300000E
:100030000000000000000000A1230000A323000036
:10004000A52300005F0A0000A5230000A5230000EF
:10005000A5230000D33000004F080000A5230000B6
:10006000A5230000A5230000A5230000A523000070
:1000700079310000A5230000A5230000A52300007E
:10008000A5230000A5230000A5230000A523000050
:100090000348854603F060F900480047B5030000B7
:1000A000008000207CB57B4D0C462878090408D5DB
:1000B00015F0E4F9002801D015F0B8F90120C003CB
:1000C00024E0E10701D0012020E061070BD5FF21EA
:1000D000F53100910822019000231146688805F04F
:1000E00031F8042012E0A00712D56B4800780128EF
:1000F00006D1684B082214330121002001F03AFD9B
:1001000020220221287815F095FB022060407CBD5A
:1001100000207CBD30B585B060480BF00BF95D4D1B
:100120000124287069460C706A4621465C4805F037
:10013000B1F95B482A1D0721401C05F0ABF958486E
:100140002A461C321D21801C05F0A4F9554A1521B0
:10015000002006F0BDFE0020694600900C71087278
:10016000032008730C746A4604214F4804F070FDA4
:10017000012101AA880204F06BFD4B4802AA01216B
:10018000801F04F065FD484803AA0121401F04F0C8
:100190005FFD454804AA0121801E04F059FD062098
:1001A0006946087001216A46084601F0F0F901F03D
:1001B000B7FF29463C310846303801F0BDFC01212B
:1001C000287815F0E5F905B030BD1CB503000BF03B
:1001D00063FA072E05101F121D2F2E00C12069463D
:1001E000800004F027FF6946012005F02BFB2FA0BB
:1001F0001FE032A01DE02748498941801922D20121
:100200000421007815F016FB30A012E033A010E0B6
:100210008878042805D0062805D0052807D136A0FF
:1002200007E03BA005E0897940A00BF00DFA1CBD6A
:1002300045A00BF009FA1CBDF8B50024079E069DE9
:10024000002B04D0012B15D0022B19D01FE0414BFD
:100250009A420AD1022908D12B78012B03D00D2410
:10026000002C02D013E00024FAE700962B7801F06E
:10027000B3FF03E02B46009601F0CEFF044606E0F4
:100280000448FF22F5320221007815F0D3FA204607
:10029000F8BD7047204200207D420020A5000000EC
:1002A00005030000A259010007040000496E6974AB
:1002B00069616C697A65642E2E0A00004164766576
:1002C00072746973696E672E2E0A0000436F6E6E3A
:1002D00065637465642E2E0A00000000436F6E6E25
:1002E0006563746564204164766572746973696ED0
:1002F000672E2E0A000000004164766572746973EF
:10030000696E672074696D656F75742E2E0A000022
:1003100057616974696E6720666F722061647665E3
:1003200072746973696E672E2E0A000044697363E4
:100330006F6E6E65637465642E2E20526561736FF7
:100340006E3A25780A0000004572726F722E2E0AEE
:10035000000000004D2A000010B502F02AFE24A083
:100360000BF072F902F0A5FE25A00BF06DF904F078
:1003700079FF26A00BF068F901F0AFF82AA00BF086
:1003800063F901F0B2FB2CA00BF05EF9FFF7C2FE9F
:100390002DA00BF059F900F03EFA2FA00BF054F904
:1003A00000F0DBFE30A00BF04FF9FF20F53002F03B
:1003B0001FFD10BD022002F00EF81021012002F0F6
:1003C00003FC052002F014FD2B498A6A48150243FC
:1003D0008A62032102F032FB02F037FD274928A090
:1003E0000BF032F9FFF7B8FF0AF0C2FFFCE700009C
:1003F00043483537585F424C45496E69740D0A00D1
:1004000048414C5F496E69740D0A000047415052E3
:100410006F6C655F5065726970686572616C496E7A
:1004200069740D0A000000005753323831325F49B9
:100430006E69740D0A0000004869644465765F497E
:100440006E69740D0A000000486964456D755F4966
:100450006E69740D0A0000005573624869645F4953
:100460006E69740D0A0000006B6579426F617264F9
:100470005F496E69740D0A0080100040585C0100ED
:1004800025730A00704710B5F148FF21006840301D
:10049000C171082002F056FD10BD10B5ED49FF22D4
:1004A000096840318A7002F045FD10BD70B5EB4A15
:1004B0000021E94D126805E053186C5C4033491C7B
:1004C0001C70C9B28142F7D302F02CFD70BDFEB59D
:1004D000E34D0026A879E34C81077DD5E879E24F0A
:1004E0008206E248920EB9780068202A75D006DCB0
:1004F00013000BF0D1F805FDFCFBFAF97500232A77
:100500006CD004DC212A6AD0222A69D11DE1242A78
:1005100067D0302AF9D1C221A170297A08296ED179
:10052000C179827909021143B98002914278BA7087
:1005300003780093019300215B069B0F04D0092AE6
:1005400001D00A2A5BD1A5E013000BF0A5F80B9BA4
:100550006E8282825E07826468948200C2788378A9
:1005600012021A43130A012B06D0022B08D0032BC8
:1005700017D0222B1CD108E0BD49B960122118E028
:10058000BB491231B960732113E042790379120239
:100590001A431206120E0BD1B5493D39B9603D21FF
:1005A00007E01206120E20D0012A23D0022A27D0FB
:1005B000FF26029A8A4200D9B980B988402900D31F
:1005C0004021C9B20A460091B96802F074FEB868C9
:1005D00000994018B86005E0DEE06CE0C2E0A7E0FA
:1005E0009EE0CEE0FF2E34D054E0A1494139B960FD
:1005F0000421DEE79E498531B9600E21D9E728E064
:100600009B499331B9600C21D3E7C1788278080205
:100610001043C0B201E079782EE0B8803AE0C178AA
:10062000827808021043787034E00099C906C90E38
:1006300002290ED14179027908021043C0B2732118
:10064000012814D002280AD0BC2181280BD082288E
:1006500001D0CF2057E0A07A0840801C01E0A07AAA
:100660000840A07216E0A0790840801C01E0A07943
:100670000840A0710EE000210170B888012809D956
:100680000120CAE7002101704170B888022801D911
:100690000220C2E70198000609D5B988402901D98E
:1006A000402000E00846C0B2091AB98000E00020EE
:1006B0002070C02027E06C4A052992881DD00629A9
:1006C00002D0002020701DE0402A00D34022D6B284
:1006D0003246B96802F0EFFDB888801BB880B86870
:1006E0008019B860267004E042E034E026E018E0AB
:1006F0000BE0A0784021484005E0E878C009C0013F
:100700001043E8700220A07044E02A7A092941D100
:100710000078002801D057A000E05CA00AF094FF08
:1007200038E0E879400635D5287AFFF7BFFE31E09A
:10073000A07980088000801CA0712BE0E879400639
:1007400028D5287AFFF7A9FE24E0A07A8008800047
:10075000801CA0721EE0E87940061BD5287AFFF7BE
:1007600092FE17E0A07B80088000801CA07311E03F
:10077000E87940060ED5A07C80214840A074287AF4
:1007800008E0A07C40214840A074A07C8008800044
:10079000801CA07402200CE0C1070CD00020E8707F
:1007A0000220A0701220A071A072A073A87901216C
:1007B0000843A871FEBD4107FBD568790420F8E71E
:1007C00070B50C460A462A4937A09F310AF03CFF13
:1007D000254D20040AD5287814F050FE002801D0B9
:1007E00014F024FE0120C003604070BDE007FCD07F
:1007F00031480078002805D10820FFF757FE08206F
:10080000FFF74BFE40220121287815F013F820460F
:100810000121484070BD10B528480AF08BFD124CEC
:1008200012492070264808600C49C0300860094908
:100830008030086006498030086002F04BFB214997
:10084000402008600121207814F0A2FE10BD3EE691
:10085000EC470020E847002034420020E447002015
:1008600000800040208000406C420020E0470020D3
:10087000F85901004C69676874206F6E204E756DE1
:10088000204C6F636B204C4544210A004C6967681B
:1008900074206F6666204E756D204C6F636B204C24
:1008A0004544210A00000000257320494E2C65763E
:1008B000743D25580A0000007D420020C107000059
:1008C000C46A002000E100E070B56C487D25027824
:1008D0006B49CF202D016B4C13000AF0DDFE05049F
:1008E0000D1D41590C0008784006400E087008782C
:1008F00030221043087070BD0A785206520E0A70FA
:100900000A7802400A7060A00AF09EFE012002F000
:100910006FFA02F0C7F91EE00A785206520E0A700A
:100920000A7802400A705DA00AF08EFE012002F0F3
:100930005FFA02F05FFD22E02089800502D4AE203C
:1009400002F046FA012001F0DCFD012002F040FA3D
:10095000022001F040FD56A00AF076FE284644E051
:100960000A785206520E0A700A7802400A7053A0A2
:100970000AF06AFE012002F03BFA02F041FDA07A83
:100980004007D9D40421012002F01EF9F020D7E756
:100990000A785206520E0A700A7802400A704CA079
:1009A0000AF052FE012002F023FA002002F02EFD90
:1009B000A07A400705D40421012002F005F9F020B7
:1009C00003E02089800502D4AE2002F001FA012064
:1009D00001F097FD012002F0FBF9022001F0FBFC81
:1009E00033A00AF031FEFF20F53002F001FA70BDAD
:1009F00010B50C46090408D514F040FD002801D0BC
:100A000014F014FD0120C0030BE0E0070AD0FFF74B
:100A10005BFF1A48192252010121407814F00AFFA5
:100A20000120604010BD10B52F480AF083FC134C24
:100A300001216070022002F026F80221084602F02F
:100A40006AF82A49022008601021012002F0FBF810
:100A5000192292010121607814F0ECFE10BD0949C1
:100A600002208031C88305490878401CC0B2087054
:100A7000052801D30020087070470000784200204C
:100A8000008000400010004049444C45206D6F64D8
:100A90006520736C656570200A00000048616C7405
:100AA0005F31206D6F646520736C656570200A008E
:100AB00077616B652E2E200A0000000048616C747F
:100AC0005F32206D6F646520736C656570200A006D
:100AD0007368757420646F776E206D6F6465207322
:100AE0006C656570200A0000F109000000E100E07B
:100AF0000B4610B500281146184602D001F0C3FF7E
:100B000010BD01F09BFF10BD002802D0FE484068D8
:100B100002E0FD484038406A084000D0012070479C
:100B200000280AD0F848012A03D0C2680A43C260EC
:100B3000704782680A4382607047F3484038012A50
:100B400003D0C26A0A43C2627047826A0A43826261
:100B50007047F8B5032280210120FFF7C9FF032267
:100B600040210120FFF7C4FF032220210120FFF7CD
:100B7000BFFF032210210120FFF7BAFF0322082143
:100B80000120FFF7B5FF002280210120FFF7C8FFF9
:100B9000002240210120FFF7C3FF00222021012075
:100BA000FFF7BEFF002210210120FFF7B9FF00224E
:100BB00008210120FFF7B4FF0A2002F019F90322EF
:100BC00020210020FFF794FF032240210020FFF79F
:100BD0008FFF032201210020FFF78AFF0322022159
:100BE0000020FFF785FF032204210020FFF780FF8C
:100BF000032208210020FFF77BFF0124E4030322E6
:100C000021460020FFF774FF6510032229460020CB
:100C1000FFF76EFFA610032231460020FFF768FFA2
:100C2000032204210120FFF763FF03220221012098
:100C3000FFF75EFF012103220846FFF759FFA701D6
:100C4000032239460120FFF753FF032261010120EF
:100C5000FFF74EFF0A2002F0CBF8002220211046B9
:100C6000FFF75EFF002240211046FFF759FF0022E8
:100C700001211046FFF754FF002202211046FFF722
:100C80004FFF002204211046FFF74AFF00220821EF
:100C90001046FFF745FF002221461046FFF740FFB0
:100CA000002229461046FFF73BFF0022314610463E
:100CB000FFF736FF002204210120FFF731FF002259
:100CC00002210120FFF72CFF012100220846FFF737
:100CD00027FF002239460120FFF722FF0022610191
:100CE0000120FFF71DFF0A2002F082F802222021D6
:100CF0000020FFF7FDFE022240210020FFF7F8FE52
:100D0000022201210020FFF7F3FE022211460020FB
:100D1000FFF7EEFE022204210020FFF7E9FE022287
:100D200008210020FFF7E4FE022221460020FFF701
:100D3000DFFE022229460020FFF7DAFE02223146BA
:100D40000020FFF7D5FE022204210120FFF7D0FE8C
:100D5000022211460120FFF7CBFE012102220846A4
:100D6000FFF7C6FE022239460120FFF7C1FE02222C
:100D7000D1040120FFF7BCFE012291051046FFF7C8
:100D8000B7FE0A2002F034F8F8BDF8B501210025BD
:100D900089050120FFF7B8FE0127002805D15B482F
:100DA00007715B4847705B484770A8005A4900903C
:100DB0000958594801229438405DFFF7B1FE0024DC
:100DC0000E202E4646435448A200483881583830F9
:100DD000005DFFF799FE012816D04D4800214038EC
:100DE00030180155641CE4B20E2CECD34A4900982B
:100DF0000022095848489438405DFFF791FE6D1C69
:100E0000EDB2052DD1D3F8BD4248404940383018E5
:100E10000755382068430831401880583FA102F038
:100E20005CFA002804D03A48403830180755D9E712
:100E30003648C770D6E7F0B5002085B005460146B4
:100E4000019002240822364814F0D4FA3048462291
:100E50000021403814F0CEFAFFF797FF00200290EF
:100E600001982B490E2250434039039040180090BE
:100E70000299405C012869D12448C078012866D1D4
:100E800022490020C8700198382148431F49083181
:100E90004718029823A18600B85902F01EFA0028CC
:100EA00067D0B85920A102F018FA002863D0B859C9
:100EB0001EA102F012FA00285FD0B8591CA102F05E
:100EC0000CFA00285BD0B8591AA102F006FA0028E3
:100ED00057D0B85918A102F000FA002853D0B859D9
:100EE00016A102F0FAF900284FD0B85914A102F067
:100EF000F4F900284BD0B85912A102F0EEF90028FD
:100F000047D0B85910A123E0C01000407C42002017
:100F1000446D0020476E0020405B0100464E0000FB
:100F20003442002031000000320000003300000095
:100F300034000000350000003600000037000000DB
:100F4000380000003900000031300000B9E02BE02B
:100F500002F0C3F900281ED0B8598AA102F0BDF9E9
:100F600000281AD0B85988A102F0B7F9002816D085
:100F70001AE03A2114E03B2112E03C2110E03D212F
:100F80000EE03E210CE03F210AE0402108E0412133
:100F900006E0422104E0432102E0442100E0452133
:100FA0007A480155641CE4B20198382148437849D5
:100FB0004718029877A18600B85902F08EF90028E8
:100FC00006D1022D45D27149022048556D1CEDB263
:100FD000B85972A102F081F9002806D1022D38D249
:100FE0006A49012048556D1CEDB2B8596DA102F057
:100FF00074F9002806D1022D2BD2644808214155EE
:101000006D1CEDB2B85969A102F067F9002806D14C
:10101000022D1ED25D48042141556D1CEDB2B85918
:1010200064A102F05AF9002816D05948083801790D
:10103000012919D06148039909180298085CFF2812
:1010400005D0F22803D051490855641CE4B2072C9E
:1010500037D9012005B0F0BD022DFAD24B4802214C
:1010600041556D1CEDB2F2E7494800210838017185
:10107000B85953A102F031F900280DD1444908397B
:10108000487008704F480121007814F031FC4E4838
:101090000221007814F02CFCB8594CA102F01DF983
:1010A0000028D4D13A4801210838417001704548E0
:1010B000007814F01DFC44480221007814F018FC5C
:1010C000C5E7012001F084FE0298401CC0B20290E6
:1010D0000E2801D20098CBE60198401CC0B20190C6
:1010E000052800D2BAE60020B4E770B50C46090422
:1010F00009D514F0C3F9002801D014F097F90120A4
:10110000C003604070BDEE2620463040FAD0204D2E
:10111000083D2878FF2806D0A878401CC0B2A870E7
:10112000192803D00EE0FFF786FE0BE06878002850
:1011300010D025480221007814F02AFA0020A87067
:10114000FF2028704022EE21687914F073FB2046BE
:10115000704070BD01211B48EDE710B51C480AF036
:10116000E9F80B4C083C6071FFF7F3FCFF20F53009
:1011700001F03EFE19229201EE21607914F05AFB33
:1011800010BD000031310000313200003442002037
:10119000844200204C536869667400004C437472AA
:1011A0006C0000004C477569000000004C416C74F5
:1011B000000000005253686966740000B15A0100D3
:1011C000310000006C42002020420020320000006C
:1011D000EB10000010B501200321800301F053FC47
:1011E00010BDC548826801140A43826000BF00BF79
:1011F00000BFC2680A43C26000BF00BF00BF00BF9B
:1012000000BF00BF00BF00BF00BF00BF00BF00BFE6
:1012100000BF00BF00BF00BF00BF7047B648826874
:1012200001140A43826000BF00BF00BF00BF00BFBF
:1012300000BF00BF00BF00BF00BF00BF00BFC2684B
:101240000A43C26000BF00BF00BF00BF00BF00BFB5
:10125000704710B5A849CA6808140243CA60032140
:1012600001F011FC502001F0B3FD10BD70B5144623
:101270000D4606460023300602D5FFF7CFFF01E0FA
:10128000FFF7AFFF70065B1C060EDBB2082BF2D334
:101290000023280602D5FFF7C1FF01E0FFF7A1FFF9
:1012A00068065B1C050EDBB2082BF2D30023200678
:1012B00002D5FFF7B3FF01E0FFF793FF60065B1C69
:1012C000040EDBB2082BF2D370BD10B5002400224F
:1012D000FF211046FFF7CAFF641CE4B2182CF6D3B6
:1012E000FFF7B7FF10BD10B5002400221146FF2004
:1012F000FFF7BCFF641CE4B2182CF6D3FFF7A9FF7C
:1013000010BD10B500240021FF220846FFF7AEFFF4
:10131000641CE4B2182CF6D3FFF79BFF10BDF8B5A0
:101320001E4617468C460546002405E032466146B7
:101330003846FFF79BFF641CAC42F7D3FFF789FFE9
:10134000F8BDF8B50646002568002F18BC19A2782C
:101350006178F05DFFF78AFFF05D002801D0801E04
:10136000F0556078002801D0801E6070A0780028B9
:1013700001D0801EA0706D1CBD2DE5D3FFF769FF65
:10138000F8BDF8B55E4E00200D245C4D10233746A5
:10139000BD3F2918097F002907D0315C012904D1FC
:1013A000211A4A008918C9194B70401CC0B20E2876
:1013B000EFD300201B242918097F002908D03118F9
:1013C000897B012904D1211A4A008918C9194B7057
:1013D000401CC0B20E28EED3002108462A18127F06
:1013E000002A0BD03218491C127FC9B2012A05D13C
:1013F0002922521A54001219D2195370401CC0B23B
:101400000E28EBD3002108462A182032927A002AAF
:101410000CD032182032491C927AC9B2012A05D167
:101420003722521A54001219D2195370401CC0B2FC
:101430000E28E9D3002108462A182032127E002AFD
:101440000CD032182032491C127EC9B2012A05D1B3
:101450004022521A54001219D2195370401CC0B2C3
:101460000E28E9D32648BD38FFF76BFFF8BD10B54D
:101470000C46090408D514F001F8002801D013F037
:10148000D5FF0120C00310E0E0070FD01D48007811
:1014900001280CD0002813D0FFF773FF1A488022D0
:1014A0000121007814F0C6F90120604010BD1448F5
:1014B000BD220021BD3813F09DFF0023102207E05C
:1014C0000F48BD220021BD3813F094FF10230022E5
:1014D00000213F20FFF723FFE0E710B50B4809F09C
:1014E00029FF094C2070FFF775FE19229201012196
:1014F000207814F09FF910BDC0100040B15A0100CF
:10150000076E00207C4200209C4300206F140000E6
:1015100010B58F498F4804F007FE8F4B10221846F4
:101520000521503804F0D2FF10BD8B49683948615D
:1015300070473EB504460079C00727D060888449CB
:1015400004F0B6FFC00721D000200090608800237F
:1015500001221B2105F0C4FB0290002816D07E4812
:1015600069465038408D88800120C8807A480299A9
:101570006838007808706088002201A905F094F9A5
:10158000002803D01B2101A805F0F0FB3EBD10B5DB
:101590000024012802D00224204610BD6E48117894
:1015A0006838417000788842F6D26C480FF07CFBB6
:1015B000F2E7694B10B50022683B002809D00128EA
:1015C00009D01833022809D003280AD00222104675
:1015D00010BD187800E058780870F8E7588908803E
:1015E000F5E75D48623804780C7140784871588D91
:1015F0000880588F488001208871E8E770B5564D03
:10160000683DA868002800D08047FF24E8682D3492
:10161000002800D08047A988A14201D8642070BD6D
:101620006888A04201D3002070BD2A69002A02D038
:101630002046904770BD091A491C0904201A192236
:10164000890C50434018401E01F0D4FDC0B270BD5B
:1016500010B5FFF7D3FF404968390A78904203D2AA
:1016600008703E480FF020FB002010BD30B53A480E
:10167000049D6838039C41808280083038C030BDAA
:1016800070B5049800241D461646002801D00B2092
:1016900070BD4868427803781002314A184390427E
:1016A0000CD1FFF7ABFF2C4968390A78904200D281
:1016B000087001202880087830700BE0294A904299
:1016C00007D1022028800246C968304613F09CFDED
:1016D00000E00A24204670BD7CB54C68154662784F
:1016E000247812022243204C069EE24208D10122B5
:1016F000019200962A4604F07DFD040003D000E02C
:101700000A2420467CBD68782978000208431249E3
:10171000683949690029F4D0002802D0012088479F
:10172000EFE70220FBE710B504460A48401E84425A
:101730000DD0012907D0022909D1012120460FF03F
:101740001BFB002803D10249204604F0EDFC10BD2C
:101750004E6E0020FFFF00000844002033150000FB
:10176000192A000008290000FED6FFFF10B56E4BB5
:10177000102213216D4804F0A9FE10BD10B50024FD
:101780001346002802D00224204610BD67480A46AE
:101790001946093813F038FDF6E770B50D460024F8
:1017A000030009F079FF09060A1014181C202428E8
:1017B0002C005E490822093901E05D490D222846C6
:1017C00013F022FD1CE05A490E220D31F7E758496B
:1017D00012221B31F3E7564912222D31EFE754490B
:1017E00012223F31EBE7524912225131E7E75049CB
:1017F0000E226331E3E74D4907221039DFE7022467
:10180000204670BDF8B5496894464A7809781702B1
:101810000F430698474A11210025079CBE1A091A52
:10182000974244D009DC444ABA1813D0012A1DD08B
:10183000022A26D0032A08D12FE0012E41D0022E01
:1018400049D0032E51D0292E5BD0002018800A25C4
:101850002846F8BD082856D20821091AA14200D806
:101860000C463249A2B21A80093957E00C284AD2F4
:101870000C21091AA14200D80C46A2B21A802C49A8
:101880004CE00D283FD20D21091AA14200D80C4688
:101890002749A2B21A800D3140E0112833D2A1426B
:1018A00000D80C462249A2B21A801B3136E011281A
:1018B00029D2A14200D80C461D49A2B21A802D316E
:1018C0002CE011281FD2A14200D80C461849A2B220
:1018D0001A803F3122E0112815D2A14200D80C46CF
:1018E0001349A2B21A80513118E00E280BD20E21F2
:1018F000091AA14200D80C460D49A2B21A806331E0
:101900000CE0072801D30725A2E70721091AA14205
:1019100000D80C460549A2B21A8010390918604651
:1019200013F072FC94E70000584500202844002082
:101930007C5B0100272A0000DDD5FFFF70470146D0
:1019400010B5FA480129807904D0022901D113F099
:10195000CFFF10BDF64A022113F06CFF10BDFEB59B
:10196000064600201746F14C0D4603460A460090F5
:101970001B21208905F0B4F90290002813D0684695
:101980008680C5802A463946029813F03DFC002225
:1019900001A9208904F088FF040005D01B2101A8BB
:1019A00005F0E4F900E013242046FEBD30B5DF4A1F
:1019B0000446E04BD068D2791B780BE00579A5424C
:1019C00005D145798D4202D185799D4205D0521EBF
:1019D000D2B20830002AF1D1002030BDFFB581B06D
:1019E00015460E460746FFF7E1FF04001CD060884D
:1019F000694604F03FFE002816D0C168CB48008934
:101A000004F056FDC0070FD020882946049AFFF73E
:101A1000A6FF002808D1C8482A460770467085707E
:101A2000C01C049913F0F0FB05B0F0BD70B5BF4EBB
:101A30000C46B079090408D513F020FD002801D028
:101A400013F0F4FC0120C00323E0E10707D0B74AFC
:101A500020321146083903F0E9FC012019E0600743
:101A60000DD53078042808D1B4A009F0EDFDB07888
:101A7000002802D1308903F0D3FD042009E0A0073B
:101A800009D5FFF7E5FDAA4A0221B07913F0D2FE8D
:101A90000220604070BD200725D5707808212546BA
:101AA0004D4000281BD030797179884201D1002344
:101AB00009E00B21401C01F087FB31710B204143F1
:101AC0009D480B300B18002B05D09A785978187860
:101AD000DB1CFFF783FF30797179884201D12846FA
:101AE00070BD204670BD002070BD38B5984809F023
:101AF00021FC8E4C6946A0710120087001466A469F
:101B0000944803F0A5F80025ED43284605F036F982
:101B1000284604F0BFFAFFF729FEFFF7F9FC00F0B2
:101B2000A1FB8D48FFF701FD8C4800F0A8FB0121C7
:101B3000A07913F02DFD38BD7C4A116150617047CA
:101B40007A4AD160D071704708B53021032004F083
:101B5000C3F95021042004F0BFF93C21012004F016
:101B6000BBF901206946087001466A467C4803F0CB
:101B700091FC08BDF8B50E466C49074608781C462E
:101B8000154604281AD0022826D000F06BFA002847
:101B900020D02021032004F09FF93021042004F0FC
:101BA0009BF90521012004F097F90120694608708E
:101BB00001466A466A4803F06DFC0DE0487800284B
:101BC0000AD008794979884206D131463846FFF76C
:101BD00005FFF8BDFFF7B8FF23462A4631463846D1
:101BE00000F04BFAF8BD08B550480178042908D038
:101BF0000020694608706A460121594803F04AFCF2
:101C000008BD008903F00CFD08BDF8B500240028CC
:101C100002D002242046F8BD002901D01824F9E79B
:101C2000454F79783878FFF7C1FE05001CD0BA78A7
:101C3000F91C0023082A09D8002004E00E5C9E420B
:101C400004D1401CC0B29042F8D308E00021F81C37
:101C500013F0D0FBB9782888FA1CFFF780FE0B221E
:101C60000021354813F0C6FB304D2878042802D1F6
:101C7000288903F0D5FC00206871287102460146CE
:101C80004120000102F0E4FFC4E7022070470A4649
:101C9000014610B52548008902F0C0FD10BD10B501
:101CA00022490246234BC868C9791B7808E004889A
:101CB000944202D184799C4205D0491EC9B20830B1
:101CC0000029F4D1002010BDFEB517464A681D4614
:101CD00054781278089824020026099B144300289F
:101CE00004D0204A944201D00B20FEBD1D4A921C14
:101CF00094420AD01B4A293A944206D0194A193A0A
:101D0000944202D0521C944231D14889FFF7C7FF58
:101D1000002829D001970095044A41791269007979
:101D2000156801232246A847064653E06C4500206B
:101D3000983A0000A24500205E6E00206869642089
:101D400069646C65206576656E742E2E0A0000004D
:101D50002D1A0000140400003F1900003D19000076
:101D6000050300004B2A00000020288032E0DA4AF8
:101D700094420ED1D94A1288904201D3072629E015
:101D8000121A9A4200DD1A4692B22A80C9680918CE
:101D90001DE0D148401E844204D104202880C96837
:101DA000024614E0CE4A022094420DD0CA4AD21C08
:101DB000944205D101202880C8680078387009E075
:101DC000C74A521E944205D12880C968022238466B
:101DD00013F01AFA3046FEBDFFB583B084460C9866
:101DE000002416460F46002802D00B2007B0F0BD95
:101DF0007868417800780D020543B748801C854219
:101E000003D0B5481938854211D17889FFF747FFCB
:101E1000002859D006A901960091B24A4179126969
:101E20000079146800232A46A04704464CE0AA49DA
:101E3000AC486A46491C0069138B8D420AD1012BBC
:101E400041D13178002901D0012944D100294AD05B
:101E5000012148E0A249891F8D422ED101210C9811
:101E60000191009032463946604604F0C3F90400FF
:101E70002AD17078317802020A439A497B89C8686E
:101E8000C97905E047889F4205D0491EC9B208308C
:101E90000029F7D10020002816D006A9019600914C
:101EA000012A08D003238F4A417912690079166804
:101EB0002A46B04708E00223F5E78749C91C8D424E
:101EC00002D1012B02D00D2420468FE73178002962
:101ED00003D0012901D08024F6E7FA681170317827
:101EE000002904D00321426808469047ECE702210C
:101EF000F9E7F8B57B4E0421B07913F0F9FC012124
:101F00003089FFF710FC0121308900F023FA37896E
:101F10007548F568874212D0F4790EE06888002889
:101F200008D0694604F0A6FB002803D0C1683846F3
:101F300004F0FAF8641EE4B20835002CEED100205B
:101F40006A49707001240C70B07001460B22684819
:101F500013F050FA00F086F8002816D07069007966
:101F6000800712D5A021032003F0B6FFA021042092
:101F700003F0B2FF0021012003F0AEFF68460470B9
:101F80006A4601215B4803F085FAF8BDF8B50027E1
:101F9000544D0E460446042803D0287804280BD05C
:101FA00012E0708928816F70684607706A460121C7
:101FB000504803F06FFA07E0FFF79BFFE87804282A
:101FC00002D1FFF7C1FDEF702869002805D0C26873
:101FD000002A02D03146204690472C70F8BD1346A7
:101FE0000A4610B5014644A009F02EFB10BD10B5FD
:101FF00001203C4C002904D0012904D0022909D039
:102000000EE0A0700CE00021A170002A00D16070E9
:10201000E27005E0002A03D16070208900F044F9E5
:1020200020796179884206D06078002803D00821A1
:10203000A07913F0ADFA10BD38B50D4629490969EC
:10204000002905D08C68002C02D02946A04738BD55
:102050006946324802F032FA00212846009A02F01E
:10206000DDFB38BD08B50020694608702B480E30EE
:1020700002F024FA6946087808BDFFB581B016461B
:102080000746FFF7EFFF002824D0164C0B2160799C
:10209000401C01F099F8617120790D46814204D10C
:1020A0000B21401C01F090F821710B204543104892
:1020B00032460B3047552818029941708670C01C73
:1020C000049913F0A1F86078002803D00821A079C2
:1020D00013F05EFAA8E400004B2A000098450020A7
:1020E000082900006C450020FEFF0000A2450020EA
:1020F0005E6E002005030000557064617465202544
:1021000064202D20496E742030782578202D204CB5
:102110006174656E63792025640A0000070400007D
:10212000F8B54B4C4949204603F0FEFF474920468D
:10213000103103F0F9FF474B10221A21464804F0F2
:10214000C5F900904448C1690220FFF732FA4249BC
:102150003E4809390F78383807714E784671C931D1
:102160004A890280498B41803B4901228271C91F03
:102170000D780573374B4C784473A03B5989018126
:10218000002141818273077546755B8F0382314B55
:10219000603B5E8946828175057744775B8D03835A
:1021A0002D4C41838177641F0346257820331D71B0
:1021B00064785C71274C203C648904844184014626
:1021C0009A7128310320FFF7F4F9204907203839A4
:1021D000FFF7B6FC0098F8BD30B5204D002052192D
:1021E000039C1F4D13D01B2A04D1022903D00329BD
:1021F00008D00A2030BD012B02D12178297030BDD2
:102200000D2030BD012BFBD12178A97030BD012BF1
:10221000F6D12178697030BD70B5104C01251219C6
:102220000F4C0498002A0FD000261B2A03D1022944
:1022300003D0032903D01E8004E0217800E0A178B8
:1022400001701D80002070BD6178F9E71A6F0020D1
:10225000FFFF000050470020B0450020CED5FFFF13
:10226000A445002010B54649464803F05DFF464BA3
:10227000102218460621603804F028F910BD4249A2
:10228000683908607047022070473F4B02460020C3
:10229000643B002A03D0012A03D0022070471A8829
:1022A00000E05A880A8070473EB50446344904F07D
:1022B000FFF8C0071ED000252B4601221B21204617
:1022C000009504F00DFD0290002813D02E486946B9
:1022D0002038408B88800120C88002980022057039
:1022E00001A9204604F0E0FA002803D01B2101A830
:1022F00004F03CFD3EBD00207047FEB5089E002462
:102300001546002E01D00B20FEBD4F687A783F782D
:1023100012023A431D4FBA420ED1042B01D00D24B4
:1023200016E0C8681A46294612F06EFF16490120C9
:102330006839096888470BE0154CA24207D1012291
:10234000019200962A4603F055FF044600E00A2455
:102350002046FEBD10B504460A48401E84420DD0FA
:10236000012907D0022909D1012120460EF004FDE0
:10237000002803D10249204603F0D6FE10BD00001C
:102380003A6F0020FFFF0000D04700204F2A0000D6
:10239000022900000448804704480047FEE7FEE7A2
:1023A000FEE7FEE7FEE70000B12300009100000019
:1023B00010B5FF4857210170A8210170FC4A8821FF
:1023C000403A1181002101700A2000F001FD012036
:1023D00000F04BFC10BDF0B5F54EF54D042757222B
:1023E000A824203E403DF249030009F055F90D08AC
:1023F0000E161B1F24282C32373C41462F000A7032
:102400000C70F07BFB22104003E00A700C70F07B34
:102410003843F073C820288118E00A700C705120EE
:10242000C000F8E70A700C70E248F4E70A700C701C
:1024300081208000EFE70A700C708820EBE70A70BB
:102440000C700220E7E70A700C702F8100200870E2
:10245000F0BD0A700C7093208000DCE70A700C70ED
:10246000D4484D30D7E70A700C7095208000D2E731
:102470000A700C704B20C000CDE70A700C70CD487C
:102480005C30C8E7CA4810B540380089C1B20B06B5
:102490009A0FC948022A05D0012A04D09A0F06D003
:1024A0007D20000210BDC906C90EC44801E0C9065E
:1024B000C90E00F089FE10BDBD4A57211170A82138
:1024C0001170BB4940394B150028088904D01843C6
:1024D00008810020107070479843F9E7B44A5721EB
:1024E0001170A8211170B24920390028C87B05D08D
:1024F00004231843C873002010707047FB23184052
:10250000F8E7AB498A7B800792089200800F02436C
:1025100057200870A82008708A7300200870704740
:10252000A3498A7B8F231A40000102435720087079
:10253000A82008708A730020087070479C4A203ACF
:10254000917B800789088900800F014398485723B1
:102550000370A82303709173002101707047944A9F
:10256000203A917B0907090F000101439048572346
:102570000370A82303709173002101707047FEB5AA
:102580008B48002740380089C0B201068A0F022A12
:102590004CD00124A403012A4CD0890F56D0052425
:1025A000002000902005000D01908148203884898A
:1025B00000267F49572230460A70A8220A7001235C
:1025C0008B747B4957220A70A8220A70784A203AF5
:1025D000948100220A708A7C9207FCD50A8A8A7C40
:1025E0009207FCD48A7C9207FCD5098A019A7F1C49
:1025F000891A0DB2FFB2002D37D02946714305D597
:10260000012834D0411C32D0002830D02E4602940C
:102610003046009900F0EEFD00B2211A8CB202990A
:102620008C4249D1002D45DD641C44E00220644CFD
:10263000C043B6E7C506ED0E2946624800F0C4FD6A
:102640000019C40B2320C043401B09E0C506ED0E52
:1026500029465D4800F0B8FD0019C40BA81C404293
:10266000294600F0C7FD00B29BE70020FEBD002E0A
:1026700003DA761EF04306B202E06D1EE84305B2AF
:10268000B5420FDD4A4857210170A8210170484A20
:102690000299203A9181002101707D20C000704391
:1026A000019903E07D20C0006843114600F0A2FDBF
:1026B00080B2FEBD641EA4B2142F82D3FF20FEBDE3
:1026C000FFB581B00C460746054600261AE0FF21FB
:1026D0009131681E00F08EFD00290AD06421681E29
:1026E00000F088FD002907D00320A9078007C14218
:1026F00002D1FF206F3001E0FF206E3080196D1E87
:1027000086B2ADB231488542E1D80025012C25D9E9
:10271000032C05D0A01E062816DDE00718D115E011
:10272000FF219131384600F04FFD00290AD0642185
:10273000384600F049FD002901D0B80702D000203A
:102740001C3006E00120FBE7E00701D01F2000E07D
:102750001E208019641E86B2A4B2D7E70398182100
:102760003018401E84B2049800F02EFDE120C00015
:1027700041430A981E22504309180B984008081834
:1027800081B20B98C00701D00120C0030A040243A4
:10279000074957200870A8200870054E403E746312
:1027A00003482038437C80242343437472630FE042
:1027B00040100040020200000048E80100389C1C64
:1027C0001313000000180D8F00688909E40700004A
:1027D000427C40231A4342740D7005B0F0BDFFB532
:1027E0000746934883B0C06B0E4684049048A40CFF
:1027F0002030418B008B01224900D203904201D34B
:10280000012000E00020081800908A48388010E07D
:102810000199002925D06421284600F0D5FC002923
:1028200001D0A8071DD0FF206E30201A6D1C84B285
:102830003D803D88FF219131284600F0C5FC019183
:10284000002911D06421284600F0BEFC002901D0E7
:10285000A80709D0FF206E30A042D9D900203080CF
:1028600049E0FF206F30E0E7FF206F30F4E7358864
:10287000012D04D0062D18D9E8071AD117E03888A1
:10288000FF219131019000F09FFC00290BD06421C1
:10289000019800F099FC002902D00198800702D02D
:1028A00000201C3006E00120FBE7E80701D01F20D4
:1028B00000E01E20201A84B26D1CA8B230800128CE
:1028C00004D0062817D9C0071AD117E03888FF218D
:1028D0000546913100F078FC00290AD06421284691
:1028E00000F072FC002901D0A80702D000201C30A3
:1028F00007E00120FBE73078C00701D01F2000E08F
:102900001E20A042B3D93088641C401C308005983A
:10291000E12104800901009800F056FC069A10801D
:1029200008463C2100F050FC0C9908803C2100989E
:1029300000F04AFC0D98018007B0F0BD3C495722D9
:1029400040310A70A8220A70394A50633848203052
:10295000427C40231A434274002008707047344977
:10296000886B8A6B8242FBD17047314A10B5572180
:1029700040321170A82111702D4920314B7CE82480
:1029800023404B744B7C1024204303434B740020A2
:10299000107010BD00B50346FFF7E1FF2649C018CF
:1029A000884201D9494240180104090C02D0012192
:1029B000090440181E49572240310A70A8220A70A3
:1029C0001B4A50631A482030427C20231A43427429
:1029D0000020087000BD0021002802D0012802D08C
:1029E00002E0202100E010211148572240300270FF
:1029F000A82202700E4A2032537C8B43537400216C
:102A0000017070470A4920310028087C02D040211B
:102A100008407047C009C0017047054920310028AF
:102A200004D0012801D11020087470472020FBE752
:102A300000100040E40700000000C0A800B5524AA2
:102A40000B0008F029FE0504071016191F00516B32
:102A500081430AE0516B81435163116B0143116360
:102A6000116A81430DE0516B01435163116B814346
:102A7000F5E7516B814301E0516B01435163116AEA
:102A80000143116200BD404A00B540320B0008F01E
:102A900003FE0504071016191F00516981430AE05F
:102AA0005169814351611169014311611168814389
:102AB0000DE051690143516111698143F5E75169A5
:102AC000814301E051690143516111680143116083
:102AD00000BD2D4A002906D0012907D0022908D0BF
:102AE000032913D10CE0918A814304E0918A814348
:102AF00008E0918A01439182D16A0143D16205E0E5
:102B0000918A01439182916A014391629083118A73
:102B10000143118270471C4B1B4A4033002906D0E9
:102B2000012907D0022908D0032913D10CE0D18A4A
:102B3000814304E0D18A814308E0D18A0143D182F4
:102B4000D9680143D96005E0D18A0143D1829968EF
:102B500001439960D083518A0143518270470A4AE8
:102B6000803A0028108B01D0084300E0884310838E
:102B70007047054A803A0028508B01D0084300E096
:102B8000884350837047000080100040F8B5624DC4
:102B90005726614CA827203D0028267027702888DA
:102BA0000ED02115084328800A2000F011F9267064
:102BB0002770288861150843288000202070F8BD00
:102BC000032149028843F7E7F0B5534C57261C22EE
:102BD0008B07514DA8270A409B0F403C00282E70C0
:102BE0002F7010D0080603D5E07BFD210840E0736C
:102BF000A07A1043A07248482038C17B1943C173A2
:102C000000202870F0BD080603D5E07B02210843B0
:102C1000E073A07A9043A0723F482038C17B99436B
:102C2000EDE730B53C4C57233B4AA825403C0028F3
:102C300013701570E06804D08843E06000201070C5
:102C400030BD0843F9E730B5334C5723324AA82545
:102C5000403C002813701570A07B04D00843A0737B
:102C60000020107030BD8843F9E7F8B52A4D57268B
:102C7000294C0021A827203D0028267027700ED05F
:102C800001206871287100202070012000F0A0F858
:102C9000267027700D20287100202070F8BD297142
:102CA0002170F8BD1D48016904229143016130BFC4
:102CB0007047194B57241C70A8251D7016494039C0
:102CC000887B0822104388730920134E0003203E9E
:102CD000308000271F70886B8A6B8242FBD1104ABC
:102CE0000A30904201D9524280180204120C02D0DC
:102CF000012212048018302232741C701D70486347
:102D00002F2070741F701C701D70052008811F70AB
:102D100040BF20BF20BFFEE74010004000ED00E0B4
:102D20000000C0A83C49062805D04979012282400C
:102D30001140084670470878082108407047364817
:102D400057210170A82101708179012211438171FD
:102D500000210170704731490968016000202F4946
:102D6000C0438031086070472C49086070472C4888
:102D700080697047284957220A70A8220A700028E3
:102D8000887905D0042210438871002008707047AC
:102D9000FB221040F8E7204957220A70A8220A7047
:102DA0000028887905D0022210438871002008701D
:102DB0007047FD221040F8E7174857210170A821FD
:102DC00001708179102211438171002101707047D7
:102DD00000220AE0022101E000BF00BF0B46491EAD
:102DE00089B2002BF8D1521C92B28242F2D37047C2
:102DF00070B500247D260546F60004E03046FFF756
:102E0000E7FF641CA4B2AC42F8D370BD0549CA7A8E
:102E1000082AFCD0087270474010004000E100E032
:102E200000E000E00034004010B50446FFF72AFB44
:102E30000A214843C008214600F0C6F90A21401D76
:102E400000F0C2F92249888110BD10B5E12040028E
:102E5000FFF7EAFF1E48872181700321C1704021DE
:102E600041700121817310BD19498A789206920E32
:102E7000800102438A707047154A0028507806D0B6
:102E80000843507010780821084310707047884339
:102E9000507070470E498020487070470C4A07E018
:102EA000D37A082B04D003781372491E89B2401CD0
:102EB0000029F5D1704701460020054A04E0137A45
:102EC000401C0B7080B2491C937A002BF7D17047DD
:102ED0000034004010B5234800230370CC21017357
:102EE000417321490A8802828A8882820A89028380
:102EF000898981831B49022420318C7012228A71B6
:102F00008A728A738C74C37029210170FF218171C8
:102F100016494A8B80231A434A8381214170072135
:102F2000817010BD0F4920310871887980088000B8
:102F3000887170470B4920310872887A80088000B8
:102F400088727047074920310873887B80088000A9
:102F500088737047034920310874887C800880009A
:102F60008874704700800040E04700200010004057
:102F700010B5FFF704FB022801D9FFF700FB10BDD5
:102F800030B55649CC7E0B7E4A7EC87E80252843CC
:102F9000C8760F20087621204876887E01252843B0
:102FA0008876887EC007FCD1888BCC760B764A76F3
:102FB00030BD30B58DB0122249A14E4812F016F93D
:102FC000002841D0454857210170A82101705121A6
:102FD000424AC900403A1181002101704748464ADF
:102FE0004261474A0724D3691B021B0A45042B434D
:102FF000D36181610461016902229143016134223C
:103000000021684612F0F6F93E4800900120400386
:10301000694688801B20C873052008740120487405
:1030200014208874FB20800202900D200877364817
:10303000089036480A90084601F0FAF8010007D0D7
:1030400033A008F001FBFEE739A008F0FDFAFEE727
:103050000DB030BD70B50C4609040AD512F00EFA59
:10306000002801D012F0E2F901212046C9034840AE
:1030700070BDE00702D00120604070BD314DA0045A
:1030800005D501F051F901262F4A760308E06004C6
:103090000DD52EA008F0D8FA7D22D2010126B60364
:1030A0003146287812F0C6FB2046704070BD0020E3
:1030B00070BD10B5264808F03DF9224C207000F094
:1030C00063F862B6204A01214903207812F0B2FB6E
:1030D00010BD10B500F0F0FF10BD00004010004022
:1030E00043483537785F424C455F4C49425F563123
:1030F0002E370000585C0100FEFFFF0000E000E0FA
:1031000004ED00E0C44A00206F2D0000812F000074
:103110004C494220696E6974206572726F72206337
:103120006F64653A202578202E2E2E0A00000000BC
:10313000686561642066696C65206572726F722EC5
:103140002E2E0A00F047002000EE02002A20000088
:10315000553000000104090C02D001210904401877
:10316000164957220A70A8220A7014494039486348
:103170001349002008607047104930202039087436
:103180000F490120086070471CB50C485721017099
:10319000A821017009492039CA7B07231A43CA7341
:1031A0000021017000910B46012201911146054852
:1031B000FFF786FA002008F0F1F91CBD401000402E
:1031C000F4470020E407000030B50B46014600201C
:1031D0002022012409E00D46D5409D4205D31D461D
:1031E0009540491B2546954040191546521E002D15
:1031F000F1DC30BD70B500242546002801DA012439
:103200004042002901DA01254942FFF7DDFFAC42C7
:1032100000D04042002C00D0494270BDF0B51FB430
:1032200086B000200090019002900698069980B226
:1032300004900798090C020400141143079000271A
:10324000089D099806913E463C4603900398A9B212
:103250000204000C039004982D0C154348430021F0
:10326000224600F018F8C719714110340E46402C60
:10327000ECDB3846029A00F00EF8009A019B8018A9
:103280000090594102980191103002904028CCDB07
:1032900000980BB0F0BD10B5202A04DB0146203A9F
:1032A0009140002010BD914020239C1A0346E3402A
:1032B0001943904010BD03460B439B0703D009E020
:1032C00008C9121F08C0042AFAD203E00B78037061
:1032D000401C491C521EF9D2704710B5002200E074
:1032E000521C835C8C5CA34201D1002BF8D1D8B274
:1032F000E1B2401A10BDF0B51FB40646002082B0FE
:1033000005464024019100901BE0019922460F469A
:10331000304600F033F8049A059B801A994110D387
:10332000104619462246FFF7B6FF361A8F4101971D
:10333000224601200021009FFFF7ADFF38184D41C4
:1033400000902046641E0028DFDC019B009829467F
:10335000324607B0F0BD0000064C0125064E05E0E0
:10336000E36807CC2B430C3C98471034B442F7D3A6
:10337000FCF792FE845E0100B45E010010B5202AC5
:1033800004DB0846203AD040002110BD0B46D34054
:10339000D0402024A21A91400843194610BD70B5B0
:1033A0008C180578401C6B075B0F01D10378401C1B
:1033B0002A1106D10278401C03E006780E70401CEA
:1033C000491C5B1EF9D12B0705D40023521E0DD4D6
:1033D0000B70491CFAE70378401CCB1A921C03E0DF
:1033E0001D780D70491C5B1C521EF9D5A142D8D323
:1033F000002070BD03B40148019001BD634000206E
:1034000003B40148019001BDB940002003B4014854
:10341000019001BD9541002010B5124C2068C005F7
:103420001FD50320206000200821401C2268C0B264
:103430000A4322600EE02268920510D4222807D9A0
:103440000948026B002A0AD001210320904706E0B8
:10345000401CC0B22268D205EDD50028E5D100207D
:10346000206010BD80C30040686F002070B5144616
:103470000D460646FFF7D0FF2D480368196806225F
:1034800091431960316899627168D962B1681963B2
:10349000F1685963296899616968D961A9681962F5
:1034A000E968596259680222914359605D680121B7
:1034B0000D435D601D680D431D6000E000BF59684D
:1034C0008907FBD559689143596099692170016852
:1034D0008969090A617001688969090CA17001682C
:1034E0008969090EE1700068C1692171C169090A21
:1034F0006171C169090CA171C169090EE171016AAB
:103500002172016A090A6172016A090CA172016AD9
:10351000090EE172416A2173416A090A6173416AC5
:10352000090CA173406A000EE073002070BD00001A
:103530003C4A002070B50C460546FFF76DFF284851
:103540000268106820218843E907890E084310604B
:103550008034E06C1061206D5061E0699061206AF8
:10356000D061606A1062A06A5062E06A9062206B6B
:10357000D062606B1063A06B5063E06B9060206C56
:10358000D060D168236C1748994204D0026B002A9E
:103590001ED0202107E0916AE36A994206D0026BAF
:1035A000002A15D021210320904711E0D169236A18
:1035B000994204D0026B002A0AD02221F3E7116954
:1035C000E36C994206D0026B002A01D02321EAE77E
:1035D000012070BD1068402108431060002070BDBC
:1035E0003C4A0020686F002070B50C460546FFF786
:1035F00013FF28480268106820218843E907890ED4
:10360000084310608034606C1061A06C5061E06908
:103610009061206AD061606A1062A06A5062E06ABC
:103620009062206BD062606B1063A06B5063E06BA4
:103630009060206CD060D168236C1748994204D008
:10364000026B002A1ED0102107E0916AE36A9942BA
:1036500006D0026B002A15D011210320904711E0FB
:10366000D169236A994204D0026B002A0AD0122140
:10367000F3E71169636C994206D0026B002A01D00E
:103680001321EAE7012070BD106840210843106053
:10369000002070BD3C4A0020686F002010B504F087
:1036A000C3FE024903F089FC002010BD060400009F
:1036B0000148006E70470000C071002008B5002866
:1036C00008D0002906D0002A04D01088002801D094
:1036D000002008BD1220694608706A46012103488F
:1036E00003F067FC6946087808BD0000350C00004F
:1036F00008B504F0BDF9694608706A46012103481F
:1037000003F057FC6946087808BD00002720000038
:1037100008B504F0F7F9694608706A4601210348C4
:1037200003F047FC6946087808BD0000112000003E
:1037300008B504F02FFB694608706A46012103486A
:1037400003F037FC6946087808BD00002920000016
:1037500008B504F025FB694608706A460121034854
:1037600003F027FC6946087808BD0000102000001F
:10377000FEB508AF70CF6F4670C704F037FB044644
:10378000024903F01AFC2046FEBD00001320000091
:1037900008B504F039FE694608706A4601210248FE
:1037A00003F007FC002008BD0E20000038B50446D9
:1037B00005F0B5F8694608704C70200A88706A46B2
:1037C0000321024803F0F5FB002038BD1B20000058
:1037D00038B5044605F0BBF8694608704C70200AFD
:1037E00088706A460321024803F0E3FB002038BDDD
:1037F0001A2000000EB500A8013005F0FCFB694658
:1038000008706A460921024803F0D3FB00200EBD70
:103810001820000008B500A8013005F001F869463D
:1038200008706A460421034803F0C3FB6946087820
:1038300008BD00000220000038B5044605F036FC43
:10384000694608704C70200A88706A460321024855
:1038500003F0AFFB002038BD212000007FB50446F7
:1038600008A861C8009002960195204605F036FC34
:10387000694608734C73200A887303AA032103481E
:1038800003F097FB002004B070BD00002020000072
:1038900008B505F021FF694608706A460121034812
:1038A00003F087FB6946087808BD00002D20000062
:1038B00008B505F0AFFF694608706A460121034864
:1038C00003F077FB6946087808BD00000820000077
:1038D00008B505F027FF694608706A4601210348CC
:1038E00003F067FB6946087808BD00000A20000065
:1038F000F0B585B00AACF0CC03976F4670C705F001
:10390000A9FF6946087404AA0121034803F051FB8A
:103910006946087C05B0F0BD0620000008B506F039
:1039200023F8694608706A460121034803F041FB09
:103930006946087808BD00000520000008B506F0BB
:1039400051F8694608706A460121034803F031FBCB
:103950006946087808BD00002E20000008B506F072
:1039600057F8694608706A460121034803F021FBB5
:103970006946087808BD00000C20000008B506F074
:1039800089F8694608706A460121034803F011FB73
:103990006946087808BD00000920000010B506F04F
:1039A000E0F8024903F009FB002010BD19200000D7
:1039B00010B505F00CF810BD1CB500A8013005F0DD
:1039C00029FB694608706A460721034803F0F1FAAB
:1039D000694608781CBD00000910000010B505F00C
:1039E000D3FD10BD0A7802708A7842704A88120AA4
:1039F00082700979C170042070470A7802700988C2
:103A0000090A41700220704708888004000C704742
:103A10008A78027088780128088804D012214843E7
:103A2000401C80B270478000FAE70A7802700A886A
:103A3000120A42704888801C80B270470A7802706F
:103A40000A88120A42708A7882704A88120AC27002
:103A50008888001D80B27047088870478A78027095
:103A6000088849884843401C80B270478A780270B1
:103A7000088849884843401C80B2704708887047CE
:103A8000088870477FB515460446022901D01029E1
:103A900003D1022B04D0102B02D0002004B070BD43
:103AA000994202D10A46294607E01029694607D003
:103AB00000F00EF810226946284611F097FBEDE75A
:103AC000104600F005F8102269462046F5E7000090
:103AD00070B50C4605000CD0002C0AD01022064907
:103AE000204611F091FB28782073687860730120DC
:103AF00070BD002070BD0000005D010008B500220F
:103B00000B4600920122024908F060F808BD00004F
:103B1000E539000008B50A88172A07D300220B46AA
:103B200000920322024908F051F808BD022008BDA6
:103B3000FB39000008B500210B461922009108F05E
:103B400045F808BD38B5054608880C4600280DD054
:103B5000606800280AD0012111F004FB0090234680
:103B600007220349284608F031F838BD022038BD45
:103B7000093A000038B5054688780C46012801D07E
:103B8000022810D1208800280DD0606800280AD0B3
:103B9000022111F0E7FA0090234605220349284646
:103BA00008F014F838BD022038BD0000113A0000BA
:103BB000064910B5884202D103F0D4FD10BD0DF0C6
:103BC0002BF80028FAD1172010BD0000FEFF0000DE
:103BD00038B505464A6800200C46002A03D0032168
:103BE000104611F0BFFA009023461D2202492846D4
:103BF00007F0A8FF38BD00002B3A000038B5054695
:103C00004A6800200C46002A03D00321104611F018
:103C1000A9FA009023461B220249284607F092FF8A
:103C200038BD00002B3A00000248002101604160CD
:103C300070470000604A00200098022B01D0042049
:103C400070475178127809021143018000207047B3
:103C50000098012B01D004207047117801700020DA
:103C6000704770B5049C1E461546062B1BD368781A
:103C70002978000208432080E878A97800020843E8
:103C80006080022020710246291D601D11F0BCFADF
:103C9000B01F2081062E03D0AD1DE560002070BD51
:103CA0000020E060FAE7042070BD0098042B01D0EA
:103CB0000420704751781378090219430180D178A4
:103CC000927809021143418000207047F8B5848939
:103CD0000D46002C2BD086683778390601D4002099
:103CE00010E00D2C23D30C3CA4B231190091408874
:103CF00023463246012107F027FA002801D002208E
:103D000000E0012079062870C90FBA066970920E8A
:103D1000AA70641E2204120CAA8002D0761CAE6027
:103D200001E00022AA60022803D1002901D001206D
:103D3000F8BD0020F8BD10B50298042B14D35178BB
:103D40001478090221430180D17894780902214333
:103D50004180191F8180042B02D0121D826001E076
:103D600000218160002010BD042010BD0098042BAC
:103D700001D004207047517813780902194301805B
:103D8000D17892780902114341800020704710B524
:103D900002981146062B03D0142B03D0042010BD2B
:103DA000022200E0102202714A780B7812021A43B4
:103DB0000280CA788B7812021A4342800279401D31
:103DC000091D11F021FA002010BD0098D90706D175
:103DD000022B04D059088180026000207047042023
:103DE00070470098022B01D0042070475178127858
:103DF0000902114301800020704710B5029C022B7C
:103E000011D320726172507811780002084320802B
:103E1000981E6080022B02D0921C626001E000209C
:103E20006060002010BD042010BD000038B50546BC
:103E300088680C46002802D0052111F093F9009003
:103E4000234617220249284607F0C0FE38BD00006D
:103E50003D3A000038B5054648680C46002802D0B7
:103E6000012111F07FF9009023460D2202492846D6
:103E700007F0ACFE38BD0000593A000038B50546E1
:103E800008880C4600280DD0606800280AD002215E
:103E900011F068F90090234611220349284607F0E3
:103EA00095FE38BD022038BD5D3A000038B50546A4
:103EB00008880C4600280DD0606800280AD002212E
:103EC00011F050F90090234609220349284607F0D3
:103ED0007DFE38BD022038BD6D3A000038B505467C
:103EE00048680C4600280AD0012111F03BF90090E7
:103EF00023460F220349284607F068FE38BD0220FA
:103F000038BD00007D3A000038B505464A680020FB
:103F10000C46002A03D00121104611F023F900902D
:103F200023460B220249284607F050FE38BD000008
:103F3000813A00000149086070470000604A002093
:103F400070B5054608480C46854205D0172C03D3AA
:103F500003F008FCA04201D2012070BD2146284692
:103F60000CF01AFF70BD0000FEFF000008B5002134
:103F70000B461322009107F029FE08BD04480349AF
:103F8000006801600349C16270470000A522080172
:103F9000404A0020784E010010B5074C5D20216892
:103FA000086506F00FF82068002101650348427992
:103FB000521C4271C17110BD18480020BC6F002016
:103FC00070B52C49002048602B4800892B4CC0B2AA
:103FD0008109022904D0012908D0810916D026E0E0
:103FE000D020A0800820E080E8201FE0C506ED0E6C
:103FF0002D2029468001FFF7E7F8A0802946782088
:10400000FFF7E2F8E08029461D480DE0C506ED0EF9
:104010002946C020FFF7D8F8A08029460820FFF7DE
:10402000D3F8E0802946E820FFF7CEF82081164932
:104030001448086016491548086017491548086073
:1040400017491648086018491648184C086018495E
:1040500020680122D202086180184861012048715D
:1040600000F062F9607D002802D11249202008602A
:1040700070BD00001C480020001000409C6F002014
:10408000980D000000C00040444A002000C30040DA
:104090003C4A002000C200401848002000D00040E8
:1040A000484A002000C10040404A0020686F0020BC
:1040B000BC6F002000E100E0F8B556480068816858
:1040C0000127C9050025544C544E00292EDA816879
:1040D0003A0291438160207840060CD550485149FE
:1040E0000068884206D15049886BE0608A6B904234
:1040F000FAD100E080472078384320706570E0797D
:10410000062803D043495D20096808653068002807
:104110000AD001690A68406902430A603168086888
:10412000026889680A4302606571A560394B1868A6
:104130008168890521D581680122520291438160FD
:10414000A0783843A070E57038480068C16A8908D3
:104150008900891CC1620168D20411430160306882
:1041600000280AD041680A68806802430A60316802
:10417000C868026849690A4302601868816889074B
:1041800017D58168022291438160E770A5705D2197
:104190000165306800280AD001690A684069024355
:1041A0000A6031680868026889680A4302606571BC
:1041B000A56018688168C90715D081684908490059
:1041C000816025706770306800280AD041680A68ED
:1041D000806802430A603168C868026849690A4316
:1041E00002606571A56018688168C90603D5816899
:1041F0001022914381608168490703D581680422B8
:10420000914381608168090703D581680822914341
:104210008160F8BD18480020BC6F002020480020B5
:1042200014480020BDAC000000100040404A0020AF
:1042300070B504460068002828D00121000C49030D
:10424000884223D1A088002820D020460622FF21C2
:10425000163010F0BCFF01281AD0A2880021206877
:1042600011F0C8F8342200212D4811F0C3F834228F
:1042700021462B4810F0C8FF29480622163000219D
:10428000054610F0A4FF012804D008E0022070BD0C
:10429000032070BD23490622284610F0B5FF2048B0
:1042A0008189002902D1012149028181827B01217A
:1042B000002A00D18173C27B002A01D11B22C27364
:1042C000027C002A01D105220274427C002A00D11E
:1042D0004174817C002901D114218174817F0029DE
:1042E00001D128218177C17C002908D0827FE17C1F
:1042F00092088918C174617F002904D005E0817F8C
:1043000089082D31F6E702214177806A002803D021
:10431000804703493431488106F0C4FF002070BD56
:10432000686F00200806040010B500F065F803F07F
:1043300081FB05F0E1FDFFF721FE0B4C5D202168BC
:10434000086505F0F1FE06F0AFFC05F0B5FE05F0DE
:1043500039FE064801214171226800211165C171B1
:10436000FFF75AF810BD000018480020BC6F00206D
:1043700070B50E4B00209989002901D10C49998113
:104380000E210124A4039A8915462540CD405204EC
:10439000120C0543E8B25604D50BF60F75401543D1
:1043A000491EC9B29D810629EDD870BDC07100209B
:1043B000FF7F000070B50E4B00205989002901D104
:1043C0000C49598108214C015A8915462540CD4098
:1043D00005435200E8B2550A56097540ED07ED0F46
:1043E0001543491E09065D81090EEDD170BD00001F
:1043F000C0710020FF0100000A48094900680A69ED
:1044000002610A69426149698161C1618268012171
:1044100049030A438260C2680A43C26070470000D1
:10442000BC6F0020444A002030B5104A0346517A40
:10443000FD20842454720E4CA568002D07D0A57B66
:10444000002D04D0A489E51FFF3DFA3D02D0517232
:10445000FF2030BD7D24E402A34205D35360A62093
:104460001072907A40235840517230BD00180040BD
:10447000686F0020F8B500240F4E274613E0F06B5C
:10448000250128180622FF2110F0B4FFF06B062248
:104490002818FF21801D10F0ADFFF06B28188781D0
:1044A000641C8773E4B2307E8442E8D3002011F0AC
:1044B00081F8307E7076F8BD9849002070B50C46C2
:1044C0000146012080020A1A00252B48130007F03C
:1044D000E3F820111316181A1D1F21232527292B55
:1044E00032343648393B3D3F4348484848484848BD
:1044F00048464148007800E04078207039E08078F4
:10450000FBE7C078F9E710221C4910E00079F4E7D6
:104510004079F2E7006A13E08079EEE7C079ECE7D2
:10452000007AEAE7407AE8E7144910221031204681
:1045300010F06AFE1DE0807ADFE7C07ADDE7406AAE
:10454000206016E0007BD8E7407BD6E7807BD4E78D
:10455000407CD2E7807CD0E708F0AEF8CDE7807DE4
:10456000CBE7192904D2084601F058FA208000E070
:104570000225284670BD000098490020F4700020F4
:1045800010B5044600F0D4F80248C47508F0CEF91E
:1045900010BD000098490020FFB58FB006460020EE
:1045A0000C900D901F460CAA304600F0B5FA454D10
:1045B0000446287E84425AD2204608F097F90646DF
:1045C000042F04D0A879022803D0002002E0287824
:1045D000F9E7012000903B4632462146119808F049
:1045E00043F81422002101A810F004FF2046062100
:1045F000484300902430C0B201AA102111F038F8CD
:10460000002813D11022FF2101A810F0E0FD00289E
:104610000CD1009805AA2530C0B2042111F028F869
:10462000F107C90F01AA119801F070FC7034E0B2D3
:1046300006AA182111F01CF8002811D106A808F0CC
:1046400067F90024A10006A808180188002903D0F2
:104650008278119801F09AFF641CE4B2062CF1D321
:10466000B00706D5E97D119801F07EFF01E0082F23
:1046700002D0042F13D021E0A87902281ED10022F5
:104680003146119807F02AFFA86A002816D043681F
:10469000002B13D000221146119898470EE028787D
:1046A00002280BD129791198002900D001216A78BC
:1046B000002A00D00422114301F0EEFB002013B0C9
:1046C000F0BD000098490020F8B501F03DFA00283F
:1046D0002BD1164D0026E87C012801D000241CE0D7
:1046E00008F036F8EE7400202A7EE96B04E003013E
:1046F0005B18401C9E73C0B29042F8D310E0E86B88
:1047000027013818807B012805D1204608F032F8AF
:10471000E86B38188673641CE4B2287E8442EED3BA
:10472000502010F069FF08F001F9F8BD9849002009
:10473000F8B5354EFF20F07500273776334CF76318
:10474000A07B30214843422110F07AFDF06300281D
:1047500025D02046807B410040183076002413E0AD
:10476000F06B250128180622FF2110F043FEF06BA4
:1047700006222818FF21801D10F03CFEF06B28183F
:104780008781641C8773E4B2307E8442E8D31F487B
:104790008068002801D0B77601E08020B076307EB6
:1047A00070760124776334707770B770F7701022D9
:1047B0000021174810F01EFE37717725757137629A
:1047C000B471F771124837727772102200211030DD
:1047D00010F010FEB772F5727762377305207073B0
:1047E0001020B073F77302203074B762F76237633A
:1047F0007774F774347504487475B4750549483096
:10480000016005494160F8BD98490020686F0020AB
:10481000F47000203DCC000005CC000070B50024F1
:10482000054600290BD108491046FEF7CDFC084685
:10483000294601F0E5F9040003D00121284601F0E2
:104840008DFB204670BD000040420F0010B50649A8
:104850000C46483CA162E062E17D182001F03CFB7F
:10486000E07D01F02DFE10BDE049002070B5264D21
:104870000C4608040FD5E87D10F000FE050006D0B8
:1048800008F0FAF8002802D0284610F0CFFD0120E9
:10489000C003604070BDA0070BD50021084607F09B
:1048A0007FFD02214C40002825D1E87D10F070FEEC
:1048B0001FE0E00721D0686B808808F00FF9012124
:1048C0004C40002817D0A86A00280DD04368002B60
:1048D0000AD0686B002280889847A96A686B00221A
:1048E0004B68808803219847287D10F0A1FE07F0CF
:1048F00049FD204670BD0121D7E7600702D504209D
:10490000484070BD002070BD984900207FB5044626
:1049100080787F4D801F030006F0BEFE0AF4F7F793
:10492000A41306F0F778B9F7A96A2046002907D042
:104930000C68002CFBD0437B027B4189C01CA04744
:10494000E3E060780026002847D1A079C00744D072
:10495000686B002841D110220021684610F04AFD02
:104960006169002903D006226846103107E0A0885B
:104970000CF07CF80028E3D0811D0622684610F078
:1049800043FC69468889A1794907C90F08436946EC
:10499000888107F091FE297E88420BD1A87D0028EE
:1049A00001D0FFF767FD5B48026B002A02D00121AE
:1049B0000820904707F080FE297E8842A87E02D119
:1049C0000121084301E040084000A87621466846DE
:1049D00007F0E6FC002812D01526A86A002855D05A
:1049E0004368002B52D06278A08801219847002E9E
:1049F0004CD0A96AA0884B683246032173E002219B
:104A0000E87D10F0C5FD002004B070BD6078062878
:104A100017D1A0880CF02AF8060012D0287C0128B3
:104A200004D0022808D003280BD114E07179A088A3
:104A3000002207F053FD04E0A1883078052201F040
:104A40009DFAA86A002860D04368002B5DD0627888
:104A5000A088022147E0002241201146000100F019
:104A6000F7F8E9E7E0780022211D00F055F8297EEB
:104A700088424AD20621484325302246C0B20C3231
:104A8000042110F039FE287D10F0D2FD3DE0287B96
:104A9000002802D0A088697B28E028780028A08818
:104AA00023D00BF0E3FF06002FD0A07AC0070BD075
:104AB0007079002808D0A189890505D46A46B11DFE
:104AC00000F02AF8002814D022467179A088083214
:104AD00007F004FDA86A002817D04368002B14D003
:104AE0000022A088114698470FE0052101F036FA10
:104AF0000BE0A0880321F9E700E003E0A08800F0C4
:104B000031FA02E0A088FFF7DFFD01207CE700001A
:104B100098490020686F0020F0B52E4E85B0347E95
:104B200015460F46002806D0012804D0022811D0CF
:104B300003284BD121E0084607F090FE317E044661
:104B4000884243D2002D41D006223946284610F033
:104B50005BFB3BE000240BE0F16B200140180622D8
:104B60003946801D10F042FB002826D1641CE4B2B7
:104B7000307E8442F0D3C4B21FE0002419E0204606
:104B8000062148432330C0B26A46102110F070FD60
:104B900000280CD11022FF21684610F018FB0028D5
:104BA00005D13946684601F045F9002805D0641C56
:104BB000E4B2307E8442E2D3DDE7307E844205D227
:104BC000002D03D02946204607F070FE204605B090
:104BD000F0BD000098490020F8B50E46194915258A
:104BE000194F884214D1002409E0324602212046A0
:104BF00007F07CFD002800D00025641CE4B2387E5C
:104C00008442F2D3002E1BD010480CF04DF817E070
:104C10000BF02CFF040012D060790022A11DFFF7D9
:104C20007BFF397E884204D23246022107F05EFDC6
:104C30000025002E04D0204607F0BAFE00E014251F
:104C40002846F8BDFFFF000098490020B1C90000C8
:104C5000F0B50746012080021546381A89B00024B5
:104C6000BC4ABD4E030006F017FD2011181F262D6B
:104C7000333A3F464D545B626970757CEFEEEDEC64
:104C8000EBEA89E9E8AAAAF3F6E5E4EB012971D198
:104C9000287802286ED8307059E10129F7D1287898
:104CA0000128F7D8707052E10129F0D12878042842
:104CB000F0D8B0704BE10129E9D128780128E9D872
:104CC000F07044E11029E2D110222946A348ADE05A
:104CD0000129DCD128780128DCD8307137E101299D
:104CE000D5D12878707132E10429D0D1286890425A
:104CF000D0D830622BE10129C9D128780228C9D83F
:104D0000B07124E10129C2D128780128C2D8F071FC
:104D10001DE10129BBD128780428BBD8307216E1E7
:104D20000129B4D128780128B4D870720FE1102974
:104D3000ADD18A4810222946103077E00129A6D14A
:104D400028780128A6D8B07201E101299FD12878DE
:104D5000F072FCE004290DD1286890420AD87062F4
:104D6000F5E0002906D100F0EFFE002803D0012075
:104D7000F074ECE074E007F0EBFC1CE007296FD165
:104D80000622691C684610F03FFA2878002269461E
:104D9000FFF7C2FE0546307E854239D200F0D4FED0
:104DA000002805D0F26B0120290189188873CEE014
:104DB000284607F0DFFC502010F01EFC96E0072983
:104DC0004ED10622691C07A810F01EFA287800228E
:104DD00007A9FFF7A1FE317E88421BD20621484376
:104DE00005462135E8B26A461C2110F041FC002836
:104DF0000ED15B48874201D1012000E0FF206946C7
:104E0000C876E8B26A461C2110F076FC307D4BE093
:104E100002249CE0B07E0028FAD05148874214D189
:104E20000120F0764C4807222946403010F0ECF97A
:104E30008DE05EE07AE00EE00AE075E06FE067E0AA
:104E40007BE04AE041E039E031E00020F0767EE0AE
:104E5000002070757BE00027012070753D461BE047
:104E600066E028460621484306462136F0B26A46E7
:104E70001C2110F0FDFB00280CD16846C07EFF28E5
:104E800008D0FF206946C8760127F0B26A461C2187
:104E900010F032FC6D1CEDB22F48007E8542E0D34D
:104EA000002F54D02C48007D10F0C2FB4FE00129A8
:104EB0003ED1287801283BD8307348E0012937D10A
:104EC0002878092834D8707341E0012930D1287836
:104ED000C11F09292CD8B07339E0012928D1717C70
:104EE00028787074002932D1012830D107F01EFDD6
:104EF0002DE001291CD1B17C2878B074002903D1A0
:104F0000012801D107F012FDB07C02F0E2F81EE0AA
:104F100001290DD1287803280AD8307417E0012917
:104F200006D12878307512E00120BDE7012901D0B3
:104F300018240CE02878B07509E0192F00D367E732
:104F40000229FCD12988384600F0C6FF04462046D5
:104F500009B0F0BD3F420F0098490020F4700020D6
:104F60001A040000FEB5064600200190029030466B
:104F70000BF07CFD040017D0144FB879022813D031
:104F8000607901AAA11DFFF7C7FD0546387E85425D
:104F90000BD2284607F0AAFC024601200090082305
:104FA0002946304607F060FBFEBDB879002807D0DF
:104FB0000128F9D161790022304607F08FFAFEBD51
:104FC0000521304600F0CAFFFEBD000098490020D0
:104FD000F7B516491525164E174688420FD10024FD
:104FE00009E03A462046019907F0ECFC002800D081
:104FF0000025641CE4B2307E8442F2D313E00BF04F
:1050000035FD00280ED04379811D00221846FFF798
:1050100083FD317E884206D23A46019907F0D2FCE0
:10502000002500E014252846FEBD0000FFFF00001B
:105030009849002070B50C460146032000020A1A68
:1050400000252548130006F027FB130B0D10171A37
:105050001E2125292B2D3133393B3D3D35373D0070
:10506000407811E010221D4902E01C491022103145
:10507000204610F0C9F82DE0406920602AE016496A
:1050800006221E31F4E7C078207023E012498278AE
:105090002431EDE7114902791F39E9E7407AF3E756
:1050A000807AF1E70C4906221831E1E7C07AEBE794
:1050B000007BE9E7C0890AE0008A08E0007AE3E7BC
:1050C0004079E1E7192904D2084600F0A7FC2080C6
:1050D00000E00225284670BDEC49002053710020F5
:1050E000F8B5164CFF202070002565700320A070D5
:1050F0000126E670062765611920E781C00120823C
:1051000020461F222946243010F074F9204602213F
:10511000243001704670877025711F2200210848D5
:1051200010F068F9204606220021183010F062F9CC
:105130006571A571FF20E071F8BD0000EC49002009
:1051400034710020FFB583B01C4615460E460C9FF7
:1051500003980BF08BFC002817D0C189B14207D30C
:10516000A94205D8018AA14202D1408AB8420ED094
:105170006846068045808480C78069460D9A0398FA
:1051800002F0C2FA002007B0F0BD1420FBE718209F
:10519000F9E7000010B52548007F800744D0244C73
:1051A0002078FF2840D1234806F0C4F82070FF285B
:1051B0003AD0214900240C602049214A0C70042176
:1051C000117000F031FE102200211E4810F012F97B
:1051D000102200211C4810F00DF91C481E490460E3
:1051E0001B48184A04701B480470072008701B48AD
:1051F00010210470022010F03BFA134A1021032002
:1052000010F036FA10220F4915480FF0FDFF144830
:1052100010220D4910300FF0F7FF04210B4A084609
:1052200010F026FA002010BD182010BD686F002075
:10523000EC490020C5520000E8490020F449002054
:10524000ED4900205371002063710020004A0020C6
:10525000F5490020F6490020F7490020F8490020D0
:105260001471002010B504F033FC104806F062F809
:1052700002F08AFA0E4806F05DF800F0DBFB0D48FC
:1052800006F058F801F0D2FA0B4806F053F805F092
:10529000DBFD0A4806F04EF8FFF772F9084806F001
:1052A00049F800F00DFFFFF775FF10BDCD78000045
:1052B000455D00003969000059AF00006D480000ED
:1052C00041620000FEB54A4C0D46080448D52078DE
:1052D00010F0D4F8040040D046480078002808D0E8
:1052E0002078454ED02808D0A22802D0912821D07D
:1052F00014E0204608F044FD2CE0A07800280DD0F2
:10530000052807D0082809D006280BD00728F0D197
:10531000A0881BE0608919E0007B04E0204608F0CB
:105320002FFD02E0E0790828E3D12146307810F023
:10533000DDF812E060780E28F0D1A0882F4988426D
:10534000ECD1A06881784278080210430BF08EFB04
:105350000028E1D1204610F069F80120C00345E0A3
:1053600068040BD50421264A084610F0C5F92548E3
:10537000007810F05DF90120800337E0E80736D0AF
:1053800021480078002830D00BF0A6FC1F49097F87
:105390008907890F884203D30320694608700CE00F
:1053A0001B486946007808701A4806220078487041
:1053B00000A8194902300FF027FF18486946007805
:1053C0000872174800784872207800F04FFB0028D8
:1053D0000BD014490620087013490968002904D02D
:1053E0000A68002A01D00021904701206840FEBDD4
:1053F000EC490020F2490020F34900200514000088
:10540000004A0020AC490020EF490020686F0020CE
:10541000F5490020F6490020044A0020F749002001
:10542000F8490020F4490020E84900207CB51446E2
:105430000D4601F0FBFA002D02D02846FFF706FAD0
:105440000C480078002801D011207CBD002C01D030
:10545000094804600A48009008490B480191027805
:105460000A48084B01780A48007800F059FA0020F1
:105470007CBD0000F4490020E8490020004A0020DB
:105480006371002053710020F1490020ED49002094
:10549000EC490020F8B50C465E4916464218192121
:1054A0000025C9015C4F130006F0F6F8120A101728
:1054B000A81C3E526970778188A8A3A8A88F98A8D5
:1054C000102C73D11022314654486CE0102C6DD151
:1054D000524810223146103065E0042C66D1306805
:1054E000786190E0012C61D1F97830784A4AF870FF
:1054F000127800290AD0002807D1387A022801D072
:10550000052802D1104600F05FFA7CE000287AD02E
:10551000387A012803D0032801D0042873D101214F
:10552000104610F035F86EE01F2C60D83A481F2264
:10553000002124300FF05EFF3748224631462430E8
:105540000FF062FE344BBC7024332246012112E07E
:105550001F2C4CD831481F2200211F380FF04AFF62
:105560002E48224631461F380FF04EFE2B4B3C7121
:105570001F3B22460021387800F044FD48E0012C12
:1055800035D13078042832D878723CE0012C2ED105
:10559000307803282BD8B87235E0062C27D11E4866
:1055A0000622314618300FF02FFE2CE01FE0012CB0
:1055B0001DD1307807281AD8F87224E0012C16D1B2
:1055C0003078032813D838731DE03088022C0ED1B0
:1055D00006280CD388420AD8F88114E03088022CBF
:1055E00005D1062803D3884201D838820BE018255C
:1055F00009E0012CFBD13078787104E0192801D240
:10560000022C02D002252846F8BD318800F064FC47
:105610000546F8E7FFFCFFFFEC490020537100202E
:1056200010B504460BF022FA002805D000781322AA
:10563000214600F0A3FC10BD122010BDF8B50E46A7
:10564000070048D038880BF011FA050041D0234AF2
:10565000A96BD078022806D0012804D0287B08281E
:1056600003D1002E01D0122436E0002901D01124EC
:1056700032E01B492C200FF0E3FD0446A863200014
:1056800025D02C2200210FF0B5FE388860801C2226
:10569000391D201D0FF0B8FD022020700F483A88F8
:1056A0000178287B082810D00020231D05F001FD7B
:1056B0000446002E03D0314628460EF0A7FB002CEE
:1056C0000AD0284607F0E6FB06E00120EDE71324A8
:1056D00002E0142400E002242046F8BD564A0020CF
:1056E00014470000FFB51F4881B0C0781E4617461A
:1056F0000D46022818D0012816D0002F30D001986E
:105700000BF0B4F9040029D0E06A002801D00FF0B2
:10571000EBFD1C2138460FF083FDE062011E1BD01B
:10572000207B082803D00DE0122005B0F0BD002E2C
:1057300008D0887E00900B4612330A8A01980EF03A
:10574000ADFE00E000202179002D01D0062200E00E
:10575000042211432171E8E71320E6E71420E4E76F
:105760000220E2E7564A002010B50548C07800073D
:1057700001D5044800E0002008F00AFA10BD00003E
:10578000564A0020744A002070B51A4C0546012183
:10579000207807F0A5FB1848C1780A20014223D0E1
:1057A0002570164808F0EEF9606800281AD12078B4
:1057B00000281DD0000107210FF042FD6060002885
:1057C00010D021780A0100210FF014FE0020FF21E3
:1057D000626803E00301401CD154C0B223789842B0
:1057E000F8D305E0132070BD0020207008F0CAF93E
:1057F000002070BD684A0020564A002074710020C5
:10580000094900200870486088600948074901601C
:105810000849416008498160034808490C3001602B
:105820000749416070470000684A0020E1CD000050
:105830007471002005D7000061D60000C1CC0000C3
:10584000F9CC0000F3B5334F0025BE7883B0044691
:1058500003282DD83878032802D0102005B0F0BDD9
:10586000012C04D0022C02D0032C29D02DE0049866
:1058700000280CD00622002168460FF0BBFD06224E
:10588000694604980FF0B2FC002811D104E006210B
:1058900068460EF0ADF818E00622FF2168460FF0CA
:1058A000A9FD0622694604980FF0A0FC002801D04B
:1058B0000220D3E70622684604990FF0A5FC04E015
:1058C0006946F86805F04DFA05461348BC70007843
:1058D000042110F00DF800207871002D01D0BE7069
:1058E00015E0002C13D0684607F03CFE0500F6D109
:1058F000032C0CD1112000F091F80006000E7871F5
:1059000005D00548054A007804210FF081FF28469C
:10591000A4E7000014700020564A00200077010020
:10592000F8B50224079F1D461646042919D004DC49
:10593000012907D0022945D10BE008291BD00C29E9
:1059400040D129E000F040F904003BD100F094F987
:1059500038E000F039F9040034D13046FFF714FF85
:1059600030E000F031F904002CD13A46284606997F
:1059700000F064FA20E000F027F9040022D13A4652
:105980002846069900F05AFA3046FFF7FDFEFFF769
:10599000EBFE05F06BFA15E000F016F9040011D1EA
:1059A0003A462846069900F049FA3046FFF7ECFEE1
:1059B000FFF7DAFE05F05AFA00F05EF900F044F95C
:1059C00005F02EFB2046F8BD70B5104C216800296B
:1059D00019D00978814214D10D4D022128780FF099
:1059E00087FF0C4800264680287804210FF080FFAE
:1059F00009484671216803204870002001F071FBBE
:105A000070BD032070BD122070BD0000384800201A
:105A1000564A00205048002014700020192801D355
:105A20000248704702494000085A7047FFFF0000D3
:105A30003470002010B5044600F08AF800F062F9D6
:105A4000FFF7DEFEFFF74CFB0649FF23CB70002279
:105A50008A700A710448052143700470204601F0E1
:105A60007DFF10BD14700020564A0020F3B5304E63
:105A70000024306883B0002802D0112005B0F0BDAA
:105A80002C4D0521E878084201D11220F6E72A4979
:105A90004968002905D00978002902D0C00702D042
:105AA00008E01020EAE700F04FF807460BF0F6F8A0
:105AB000874207D304980078022803D0032801D036
:105AC000122432E01D490C200FF0BAFB3060002890
:105AD0002AD003990170002141700A22801C049988
