:020000040000FA
:10000000008000202D240000010000203724000083
:1000100000000000000000000000000000000000E0
:100020000000000000000000000000003724000075
:100030000000000000000000392400003B24000004
:100040003D240000670A00003D2400003D2400001C
:100050003D240000C3330000510800003D2400008F
:100060003D2400003D2400003D2400003D2400000C
:10007000693400003D2400003D2400003D240000C0
:100080003D2400003D2400003D2400003D240000EC
:100090000348854603F0D8FA00480047B50300003E
:1000A000008000207CB57B4D0C462878090408D5DB
:1000B00015F090FA002801D015F064FA0120C00371
:1000C00024E0E10701D0012020E061070BD5FF21EA
:1000D000F53100910822019000231146688805F04F
:1000E000A9F9042012E0A00712D56B480078012876
:1000F00006D1684B082214330121002001F086FD4F
:1001000020220221287815F041FC022060407CBDAD
:1001100000207CBD30B585B060480BF083FA5D4DA2
:100120000124287069460C706A4621465C4805F037
:1001300029FB5B482A1D0721401C05F023FB58487A
:100140002A461C321D21801C05F01CFB554A152136
:10015000002007F035F80020694600900C71087205
:10016000032008730C746A4604214F4804F0E8FE2B
:10017000012101AA880204F0E3FE4B4802AA0121F2
:10018000801F04F0DDFE484803AA0121401F04F04F
:10019000D7FE454804AA0121801E04F0D1FE0620A6
:1001A0006946087001216A46084601F03CFA02F0EF
:1001B00003F829463C310846303801F009FD012199
:1001C000287815F091FA05B030BD1CB503000BF08E
:1001D000DBFB072E05101F121D2F2E00C1206946C4
:1001E000800005F09FF86946012005F0A3FC2FA0D0
:1001F0001FE032A01DE02748498941801922D20121
:100200000421007815F0C2FB30A012E033A010E00A
:100210008878042805D0062805D0052807D136A0FF
:1002200007E03BA005E0897940A00BF085FB1CBDF1
:1002300045A00BF081FB1CBDF8B50024079E069D70
:10024000002B04D0012B15D0022B19D01FE0414BFD
:100250009A420AD1022908D12B78012B03D00D2410
:10026000002C02D013E00024FAE700962B7801F06E
:10027000FFFF03E02B46009602F01AF8044606E062
:100280000448FF22F5320221007815F07FFB20465A
:10029000F8BD7047200200207D020020A50000006C
:1002A00005030000FA5A010007040000496E697452
:1002B00069616C697A65642E2E0A00004164766576
:1002C00072746973696E672E2E0A0000436F6E6E3A
:1002D00065637465642E2E0A00000000436F6E6E25
:1002E0006563746564204164766572746973696ED0
:1002F000672E2E0A000000004164766572746973EF
:10030000696E672074696D656F75742E2E0A000022
:1003100057616974696E6720666F722061647665E3
:1003200072746973696E672E2E0A000044697363E4
:100330006F6E6E65637465642E2E20526561736FF7
:100340006E3A25780A0000004572726F722E2E0AEE
:10035000000000004D2A000010B502F0A2FF25A009
:100360000BF0EAFA03F01DF826A00BF0E5FA05F011
:10037000F1F827A00BF0E0FA01F0F8F82BA00BF051
:10038000DBFA01F0FEFB2DA00BF0D6FAFFF7C2FE60
:100390002EA00BF0D1FA00F03FFA30A00BF0CCFA0F
:1003A00000F03FFF31A00BF0C7FAFF20F53002F05C
:1003B0006BFD10BD022002F05AF8012002F0C8F8CF
:1003C0001021012002F04CFC052002F05DFD2B49BC
:1003D0008A6A481502438A62032102F07BFB02F01D
:1003E00080FD274927A00BF0A7FAFFF7B5FF0BF018
:1003F00037F9FCE743483537585F424C45496E6949
:10040000740D0A0048414C5F496E69740D0A000082
:10041000474150526F6C655F5065726970686572D4
:10042000616C496E69740D0A000000005753323840
:1004300031325F496E69740D0A00000048696444F6
:1004400065765F496E69740D0A000000486964456D
:100450006D755F496E69740D0A000000557362483E
:1004600069645F496E69740D0A0000006B6579422A
:100470006F6172645F496E69740D0A0080100040FC
:10048000B05D010025730A00704710B5F249096894
:100490004031C871082002F0A1FD10BD10B5EF4930
:1004A000FF22096840318A7002F090FD10BD70B5DE
:1004B000EC4A0021EA4D126805E053186C5C4033A9
:1004C000491C1C70C9B28142F7D302F077FD70BDA0
:1004D000FEB5E54D0026A879E44C81077ED5E87984
:1004E000E34F8206E348920EB9780068202A76D05E
:1004F00006DC13000BF048FA05FEFDFCFBFA760063
:10050000232A6DD004DC212A6BD0222A6AD11DE176
:10051000242A68D0302AF9D1C221A170297A082969
:1005200073D1C179827909021143B980029142786D
:10053000BA7003780093019300215B069B0F04D0EF
:10054000092A01D00A2A60D1A5E013000BF01CFA99
:100550000B9B6E8282825E07826468948200C278FE
:10056000837812021A43130A012B06D0022B08D0FB
:10057000032B17D0222B1CD108E0BF49B9601221F0
:1005800018E0BD491231B960732113E04279037953
:1005900012021A431206120E0BD1B7493D39B96047
:1005A0003D2107E01206120E20D0012A23D0022A94
:1005B00026D0FF26029A8A4200D9B980B9884029FC
:1005C00000D34021C9B20A460091B96802F0EBFF9E
:1005D000B86800994018B860FF2E05E0DDE06BE0D8
:1005E000C1E0A6E09DE0CDE034D054E0A24941391D
:1005F000B9600421DEE7A0498531B9600E21D9E751
:100600009D499331B9600C21D4E723E0C178827809
:1006100008021043C0B201E079782EE0B8803AE0D9
:10062000C178827808021043787034E00099C906D6
:10063000C90E02290ED14179027908021043C0B2D5
:100640007321012814D002280AD0BC2181280BD0A4
:10065000822801D0CF2057E0A07A0840801C01E01A
:10066000A07A0840A07216E0A0790840801C01E042
:10067000A0790840A0710EE000210170B88801281F
:1006800009D90120CAE7002101704170B888022809
:1006900001D90220C2E70198000609D5B98840298E
:1006A00001D9402000E00846C0B2091AB98000E034
:1006B00000202070C02027E06D4A052992881DD0B7
:1006C000062902D0002020701DE0402A00D34022DD
:1006D000D6B23246B96802F066FFB888801BB8808F
:1006E000B8688019B8602670A07804E041E033E073
:1006F00025E017E00AE04021484005E0E878C0091D
:10070000C0011043E8700220A07044E02A7A092951
:1007100041D10078002801D058A000E05DA00BF086
:100720000BF938E0E879400635D5287AFFF7BFFEA7
:1007300031E0A07980088000801CA0712BE0E8796E
:10074000400628D5287AFFF7A9FE24E0A07A800881
:100750008000801CA0721EE0E87940061BD5287A34
:10076000FFF793FE17E0A07B80088000801CA07339
:1007700011E0E87940060ED5A07C80214840A074A5
:10078000287A08E0A07C40214840A074A07C800822
:100790008000801CA07402200CE0C1070CD0002057
:1007A000E8700220A0701220A071A072A073A87936
:1007B00001210843A871FEBD4107FBD568790420DB
:1007C000F8E770B50C460A462B4939A09F310BF06B
:1007D000B3F8274D20040AD5287814F0FBFE002832
:1007E00001D014F0CFFE0120C003604070BDE007CF
:1007F000FCD033480078002805D10820FFF757FEC9
:100800000820FFF74BFE40220121287815F0BEF8A2
:1008100020460121484070BD10B52A480AF002FF69
:10082000134C14492070284808600E49C0300860F5
:100830000A498030086008498030086002F096FB61
:100840002249402008600121207814F04DFF10BD9E
:100850003EE6C0B219E60000EC070020E8070020E1
:1008600034020020E4070020008000402080004087
:100870006C020020E0070020505B01004C696768B3
:1008800074206F6E204E756D204C6F636B204C454D
:1008900044210A004C69676874206F6666204E75B3
:1008A0006D204C6F636B204C4544210A0000000012
:1008B000257320494E2C6576743D25580A000000AA
:1008C0007D020020C3070000C42A002000E100E0F0
:1008D00070B56C487D2502786B49CF202D016B4C9B
:1008E00013000BF051F805040D1D41590C00087858
:1008F0004006400E0870087830221043087070BD22
:100900000A785206520E0A700A7802400A7060A0F5
:100910000BF012F8012002F0B7FA02F00FFA1EE015
:100920000A785206520E0A700A7802400A705DA0D8
:100930000BF002F8012002F0A7FA02F0D3FE22E049
:100940002089800502D4AE2002F08EFA012001F049
:1009500024FE012002F088FA022001F088FD56A052
:100960000AF0EAFF284644E00A785206520E0A705E
:100970000A7802400A7053A00AF0DEFF012002F05C
:1009800083FA02F0B5FEA07A4007D9D404210120F1
:1009900002F066F9F020D7E70A785206520E0A7084
:1009A0000A7802400A704CA00AF0C6FF012002F04B
:1009B0006BFA002002F0A2FEA07A400705D40421C1
:1009C000012002F04DF9F02003E02089800502D4D7
:1009D000AE2002F049FA012001F0DFFD012002F013
:1009E00043FA022001F043FD33A00AF0A5FFFF20E7
:1009F000F53002F049FA70BD10B50C46090408D56F
:100A000014F0E8FD002801D014F0BCFD0120C00363
:100A10000BE0E0070AD0FFF75BFF1A4819225201EA
:100A20000121407814F0B2FF0120604010BD10B5E4
:100A30002F480AF0F7FD134C01216070022002F0EC
:100A40006EF80221084602F0B2F82A490220086036
:100A50001021012002F043F919229201012160784E
:100A600014F094FF10BD094902208031C883054964
:100A70000878401CC0B20870052801D30020087017
:100A80007047000078020020008000400010004005
:100A900049444C45206D6F646520736C656570201A
:100AA0000A00000048616C745F31206D6F6465203E
:100AB000736C656570200A0077616B652E2E200AC5
:100AC0000000000048616C745F32206D6F64652027
:100AD000736C656570200A007368757420646F77A5
:100AE0006E206D6F646520736C656570200A000070
:100AF000F909000000E100E00B4610B5002811469E
:100B0000184602D002F00BF810BD01F0E3FF10BD53
:100B1000002802D0FE48406802E0FD484038406AA4
:100B2000084000D00120704700280AD0F848012A68
:100B300003D0C2680A43C260704782680A43826079
:100B40007047F3484038012A03D0C26A0A43C262A0
:100B50007047826A0A4382627047F8B50322802197
:100B60000120FFF7C9FF032240210120FFF7C4FF46
:100B7000032220210120FFF7BFFF032210210120C3
:100B8000FFF7BAFF032208210120FFF7B5FF00227B
:100B900080210120FFF7C8FF002240210120FFF73C
:100BA000C3FF002220210120FFF7BEFF00221021F9
:100BB0000120FFF7B9FF002208210120FFF7B4FF51
:100BC0000A2002F061F9032220210020FFF794FFA0
:100BD000032240210020FFF78FFF03220121002084
:100BE000FFF78AFF032202210020FFF785FF03227F
:100BF00004210020FFF780FF032208210020FFF7D7
:100C00007BFF0124E403032221460020FFF774FF49
:100C10006510032229460120FFF76EFFA61003226C
:100C200031460020FFF768FF032204210120FFF76F
:100C300063FF032202210120FFF75EFF012103224F
:100C40000846FFF759FFA701032239460120FFF7A5
:100C500053FF032261010120FFF74EFF0A2002F03B
:100C600013F9002220211046FFF75EFF00224021E9
:100C70001046FFF759FF002201211046FFF754FFED
:100C8000002202211046FFF74FFF002204211046E8
:100C9000FFF74AFF002208211046FFF745FF002218
:100CA00021461046FFF740FF002229460120FFF7AA
:100CB0003BFF002231461046FFF736FF0022042199
:100CC0000120FFF731FF002202210120FFF72CFF56
:100CD000012100220846FFF727FF002239460120A4
:100CE000FFF722FF002261010120FFF71DFF0A200C
:100CF00002F0CAF8022220210020FFF7FDFE0222A6
:100D000040210020FFF7F8FE022201210020FFF71A
:100D1000F3FE022211460020FFF7EEFE022204211C
:100D20000020FFF7E9FE022208210020FFF7E4FE81
:100D3000022221460020FFF7DFFE02222946012081
:100D4000FFF7DAFE022231460020FFF7D5FE02222D
:100D500004210120FFF7D0FE022211460120FFF7F7
:100D6000CBFE012102220846FFF7C6FE02223946C9
:100D70000120FFF7C1FE0222D1040120FFF7BCFED3
:100D8000012291051046FFF7B7FE0A2002F07CF819
:100D9000F8BDFEB50121002589050120FFF7B8FE49
:100DA000002806D15B49012088715B4948705B4986
:100DB0004870A8005A4901900958594801229438AE
:100DC000405DFFF7B1FE00240E202F4647435448F4
:100DD000A600483881593830005DFFF799FE012898
:100DE00001D000212BE04D490120403979180855E8
:100DF0003820294641434748083008180090805958
:100E000048A102F0E2FB002807D0009846A18059D3
:100E100002F0DBFB002804D006E03E4901204871C7
:100E200011E03C490120C870009841A1805902F0AE
:100E3000CCFB002802D13749012008710121364836
:100E4000403838180155641CE4B20E2CBFD3344925
:100E500001980022095832489438405DFFF764FE3B
:100E60006D1CEDB2052DA4D3FEBDF0B5002085B0FC
:100E7000074601460190022408222F4814F066FB21
:100E8000254846220021403814F060FB214900200B
:100E9000C8700871FFF77DFF0020029001981E497D
:100EA0000E22504340390390401800900299405C54
:100EB00001287DD11748407901284DD01548817906
:100EC000012976D001983821484312490831461843
:100ED000029815A18500705902F077FB002869D0AF
:100EE000705916A102F071FB0028F8D0705915A1B5
:100EF00002F06BFB0028F2D0705914A102F065FBE0
:100F00000028ECD070590AA102F05FFB002821E014
:100F1000C01000407C020020442D0020472E0020FD
:100F2000985C0100464E00004C53686966740000EE
:100F30005253686966740000340200204C43747296
:100F40006C0000004C477569000000004C416C7457
:100F500000000000C3D0EBE0BB49002048710198BD
:100F600038214843B849083146180298B7A185008E
:100F7000705902F02AFB002846D07059B4A102F043
:100F800024FB002842D07059B2A102F01EFB0028B9
:100F90003ED07059B0A102F018FB00283AD0705929
:100FA000AEA102F012FB002836D07059ACA102E0CD
:100FB000E4E045E077E002F008FB00282ED070590D
:100FC000A8A102F002FB00282AD07059A6A102F0C5
:100FD000FCFA002826D07059A4A102F0F6FA0028E5
:100FE00022D07059A2A102F0F0FA00281ED0705948
:100FF000A0A102F0EAFA00281AD070599EA102F0CE
:10100000E4FA002816D093E03A2114E03B2112E0E4
:101010003C2110E03D210EE03E210CE03F210AE0A2
:10102000402108E0412106E0422104E0432102E0A2
:10103000442100E0452191480155641CE4B277E069
:101040008148002181710198382148437E49083147
:10105000451802987DA18600A85902F0B6FA00282A
:101060000DD1794800214170017085480121007837
:1010700014F0EAFC83480221007814F0E5FCA8593A
:1010800073A102F0A2FA002852D16F4801214170E9
:1010900001707B48007814F0D7FC7A480221007870
:1010A00014F0D2FC44E07059774902F08EFA00281F
:1010B00006D172480222017811437F1C0170FFB2F1
:1010C00071497059143102F080FA002806D16B483A
:1010D0000122017811437F1C0170FFB26A497059E7
:1010E0001C3102F072FA002806D164480822017807
:1010F00011437F1C0170FFB263497059243102F023
:1011000064FA002806D15D480422017811437F1C4F
:101110000170FFB25C497059083102F056FA00289C
:1011200006D156480222017811437F1C0170FFB29C
:10113000062C23D2554803990D180298285CFF28E5
:101140001CD0F2281AD04048C178012902D0007979
:1011500001280DD10198382148433B4908314118F5
:101160000298800008584AA102F02FFA002810D0F7
:101170000298295C41480155641CE4B2012001F049
:1011800073FE0298401CC0B202900E2803D2009851
:101190008CE63521EEE70198401CC0B2019005288D
:1011A00000D279E6002F02D13449002008700020D7
:1011B00005B0F0BD70B50C46090409D514F00AFA63
:1011C000002801D014F0DEF90120C003604070BD9A
:1011D000EE2620463040FAD01B4D2878FF2806D056
:1011E000A878401CC0B2A870192803D00EE0FFF701
:1011F0003CFE0BE06878002810D0224802210078DD
:1012000014F072FA0020A870FF2028702022EE212E
:10121000E87914F0BBFB2046704070BD01211848EE
:10122000EDE710B51B480AF0FDF9074CE071FFF738
:1012300094FCFF20F53001F027FE19229201EE21E7
:10124000E07914F0A3FB10BD7C0200203100000007
:1012500032000000330000003400000035000000C0
:1012600036000000370000003800000039000000A0
:10127000300000002D0000002B0000003402002090
:101280006C02002020020020280F0000095C0100F1
:1012900045534300B511000010B5BC48017800214A
:1012A0000170012001F0E0FD0124A4030321204688
:1012B00001F010FCB649CA6A2243CA62502001F00C
:1012C000D3FD10BDF8B50E46B0490746087815465F
:1012D0004022104308700024380602D50121AD4891
:1012E00002E0AC480121401C01F00EFF7806641CAE
:1012F000070EE4B2082CEFD30024300602D50121FA
:10130000A44802E0A3480121401C01F0FDFE700644
:10131000641C060EE4B2082CEFD30024280602D584
:1013200001219C4802E09B480121401C01F0ECFE99
:101330006806641C050EE4B2082CEFD3F8BD70B546
:101340000125AD030321284601F0C4FB01F05CFE3A
:10135000002211461046FFF7B5FF8C4C2078002183
:101360002170207821700321284601F0B3FB8849C1
:10137000C86A2843C862502001F076FD20784021D9
:1013800008432070002211461046FFF79BFFFFF72D
:1013900083FF70BDFFB581B01E4617460546002489
:1013A00005E0324638460299FFF78CFF641CAC42D8
:1013B000F7D3FFF771FF05B0F0BDF8B5054600267D
:1013C000700037187C19A2786178E85DFFF77AFF22
:1013D000E85D002805D0242801D8002000E024384A
:1013E000E8556078002805D0242801D8002000E0C6
:1013F00024386070A078002805D0242801D8002067
:1014000000E02438A070761CBD2ED9D3FFF744FF2E
:10141000F8BDF8B5614E00200D245F4DFF2337461F
:10142000BD3F2918097F002907D0315C012904D16B
:10143000211A4A008918C9194B70401CC0B20E28E5
:10144000EFD300201B242918097F002908D0311868
:10145000897B012904D1211A4A008918C9194B70C6
:10146000401CC0B20E28EED3002108462A18127F75
:10147000002A0BD03218491C127FC9B2012A05D1AB
:101480002922521A54001219D2195370401CC0B2AA
:101490000E28EBD3002108462A182032927A002A1F
:1014A0000CD032182032491C927AC9B2012A05D1D7
:1014B0003722521A54001219D2195370401CC0B26C
:1014C0000E28E9D3002108462A182032127E002A6D
:1014D0000CD032182032491C127EC9B2012A05D123
:1014E0004022521A54001219D2195370401CC0B233
:1014F0000E28E9D32948BD38FFF75FFFF8BD10B5C6
:101500000C46090408D514F065F8002801D014F041
:1015100039F80120C00311E0E00710D0204800781E
:1015200001280DD0002814D0FFF773FF194850226E
:10153000401E0121007814F029FA0120604010BDFE
:101540001648BD220021BD3814F000F80023FF2208
:1015500007E01248BD220021BD3813F0F7FFFF233A
:10156000002200213F20FFF715FFDFE710B5FFF74E
:10157000E6FE0C480AF056F806491922491E087082
:101580009201012114F002FA10BD00000040004059
:10159000801000409D030020095C0100072E002000
:1015A0007C020020FF14000010B58F498F4804F022
:1015B00033FF8F4B102218460521503805F0FEF8F6
:1015C00010BD8B496839486170473EB504460079C3
:1015D000C00727D06088844905F0E2F8C00721D011
:1015E000002000906088002301221B2105F0F0FC00
:1015F0000290002816D07E4869465038408D888079
:101600000120C8807A48029968380078087060889C
:10161000002201A905F0C0FA002803D01B2101A86F
:1016200005F01CFD3EBD10B50024012802D00224A7
:10163000204610BD6E4811786838417000788842A5
:10164000F6D26C480FF0DCFBF2E7694B10B50022D4
:10165000683B002809D0012809D01833022809D096
:1016600003280AD00222104610BD187800E05878EE
:101670000870F8E758890880F5E75D486238047813
:101680000C7140784871588D0880588F488001202F
:101690008871E8E770B5564D683DA868002800D00D
:1016A0008047FF24E8682D34002800D08047A988AF
:1016B000A14201D8642070BD6888A04201D30020F7
:1016C00070BD2A69002A02D02046904770BD091AD1
:1016D000491C0904201A1922890C50434018401E45
:1016E00001F000FFC0B270BD10B5FFF7D3FF404955
:1016F00068390A78904203D208703E480FF080FBA8
:10170000002010BD30B53A48049D6838039C4180E4
:101710008280083038C030BD70B5049800241D4662
:101720001646002801D00B2070BD48684278037827
:101730001002314A184390420CD1FFF7ABFF2C49FD
:1017400068390A78904200D2087001202880087811
:1017500030700BE0294A904207D1022028800246CF
:10176000C968304613F0FCFD00E00A24204670BD35
:101770007CB54C6815466278247812022243204CCE
:10178000069EE24208D10122019200962A4604F008
:10179000A9FE040003D000E00A2420467CBD68783E
:1017A0002978000208431249683949690029F4D0B0
:1017B000002802D001208847EFE70220FBE710B5A0
:1017C00004460A48401E84420DD0012907D0022950
:1017D00009D1012120460FF07BFB002803D10249EB
:1017E000204604F019FE10BD4E2E0020FFFF000021
:1017F00008040020CB150000192A00000829000069
:10180000FED6FFFF10B56E4B102213216D4804F079
:10181000D5FF10BD10B500241346002802D00224C5
:10182000204610BD67480A461946093813F098FD4E
:10183000F6E770B50D46002403000AF0A5F8090686
:101840000A1014181C2024282C005E49082209398B
:1018500001E05D490D22284613F082FD1CE05A4943
:101860000E220D31F7E7584912221B31F3E7564992
:1018700012222D31EFE7544912223F31EBE7524952
:1018800012225131E7E750490E226331E3E74D4917
:1018900007221039DFE70224204670BDF8B54968F9
:1018A00094464A78097817020F430698474A11214F
:1018B0000025079CBE1A091A974244D009DC444A05
:1018C000BA1813D0012A1DD0022A26D0032A08D123
:1018D0002FE0012E41D0022E49D0032E51D0292EC7
:1018E0005BD0002018800A252846F8BD082856D26B
:1018F0000821091AA14200D80C463249A2B21A8026
:10190000093957E00C284AD20C21091AA14200D803
:101910000C46A2B21A802C494CE00D283FD20D2172
:10192000091AA14200D80C462749A2B21A800D31EB
:1019300040E0112833D2A14200D80C462249A2B27D
:101940001A801B3136E0112829D2A14200D80C465A
:101950001D49A2B21A802D312CE011281FD2A142BC
:1019600000D80C461849A2B21A803F3122E0112853
:1019700015D2A14200D80C461349A2B21A805131A7
:1019800018E00E280BD20E21091AA14200D80C46ED
:101990000D49A2B21A8063310CE0072801D3072554
:1019A000A2E70721091AA14200D80C460549A2B2B4
:1019B0001A8010390918604613F0D2FC94E7000031
:1019C0005805002028040020D45C0100272A0000CC
:1019D000DDD5FFFF7047014610B5FA48012980792F
:1019E00004D0022901D114F02FF810BDF64A0221CB
:1019F00013F0CCFF10BDFEB5064600201746F14C93
:101A00000D4603460A4600901B21208905F0E0FAA6
:101A10000290002813D068468680C5802A46394641
:101A2000029813F09DFC002201A9208905F0B4F86A
:101A3000040005D01B2101A805F010FB00E01324D1
:101A40002046FEBD30B5DF4A0446E04BD068D2796F
:101A50001B780BE00579A54205D145798D4202D16D
:101A600085799D4205D0521ED2B20830002AF1D1AC
:101A7000002030BDFFB581B015460E460746FFF782
:101A8000E1FF04001CD06088694604F06BFF002869
:101A900016D0C168CB48008904F082FEC0070FD081
:101AA00020882946049AFFF7A6FF002808D1C848D5
:101AB0002A46077046708570C01C049913F050FCCC
:101AC00005B0F0BD70B5BF4E0C46B079090408D51D
:101AD00013F080FD002801D013F054FD0120C00355
:101AE00023E0E10707D0B74A20321146083903F056
:101AF00015FE012019E060070DD53078042808D1C3
:101B0000B4A009F019FFB078002802D1308903F0A1
:101B1000FFFE042009E0A00709D5FFF7E5FDAA4A6A
:101B20000221B07913F032FF0220604070BD20071F
:101B300025D57078082125464D4000281BD03079E6
:101B40007179884201D1002309E00B21401C01F08A
:101B5000B3FC31710B2041439D480B300B18002B17
:101B600005D09A7859781878DB1CFFF783FF307915
:101B70007179884201D1284670BD204670BD002091
:101B800070BD38B5984809F04DFD8E4C6946A0717E
:101B90000120087001466A46944803F0D1F90025F7
:101BA000ED43284605F062FA284604F0EBFBFFF708
:101BB00029FEFFF7F9FC00F0A1FB8D48FFF701FDBE
:101BC0008C4800F0A8FB0121A07913F08DFD38BDF1
:101BD0007C4A1161506170477A4AD160D071704778
:101BE00008B53021032004F0EFFA5021042004F05E
:101BF000EBFA3C21012004F0E7FA01206946087065
:101C000001466A467C4803F0BDFD08BDF8B50E46A6
:101C10006C49074608781C46154604281AD0022845
:101C200026D000F06BFA002820D02021032004F0F9
:101C3000CBFA3021042004F0C7FA0521012004F07A
:101C4000C3FA01206946087001466A466A4803F0F3
:101C500099FD0DE0487800280AD008794979884232
:101C600006D131463846FFF705FFF8BDFFF7B8FF4C
:101C700023462A463146384600F04BFAF8BD08B5EF
:101C800050480178042908D00020694608706A4647
:101C90000121594803F076FD08BD008903F038FEA4
:101CA00008BDF8B50024002802D002242046F8BD63
:101CB000002901D01824F9E7454F79783878FFF7E3
:101CC000C1FE05001CD0BA78F91C0023082A09D8E7
:101CD000002004E00E5C9E4204D1401CC0B2904241
:101CE000F8D308E00021F81C13F030FCB9782888FC
:101CF000FA1CFFF780FE0B220021354813F026FC6A
:101D0000304D2878042802D1288903F001FE0020F4
:101D100068712871024601464120000103F010F964
:101D2000C4E7022070470A46014610B525480089DD
:101D300002F0ECFE10BD10B522490246234BC868E4
:101D4000C9791B7808E00488944202D184799C42C6
:101D500005D0491EC9B208300029F4D1002010BDB9
:101D6000FEB517464A681D46547812780898240232
:101D70000026099B1443002804D0204A944201D035
:101D80000B20FEBD1D4A921C94420AD01B4A293AE0
:101D9000944206D0194A193A944202D0521C9442F5
:101DA00031D14889FFF7C7FF002829D00197009556
:101DB000044A417912690079156801232246A8472F
:101DC000064653E06C050020983A0000A20500206A
:101DD0005E2E00206869642069646C652065766504
:101DE0006E742E2E0A000000C51A000014040000B4
:101DF000D7190000D5190000050300004B2A000088
:101E00000020288032E0DA4A94420ED1D94A128862
:101E1000904201D3072629E0121A9A4200DD1A46A1
:101E200092B22A80C96809181DE0D148401E844238
:101E300004D104202880C968024614E0CE4A02205A
:101E400094420DD0CA4AD21C944205D10120288068
:101E5000C8680078387009E0C74A521E944205D11C
:101E60002880C9680222384613F07AFA3046FEBD4F
:101E7000FFB583B084460C98002416460F46002810
:101E800002D00B2007B0F0BD7868417800780D02D1
:101E90000543B748801C854203D0B54819388542B0
:101EA00011D17889FFF747FF002859D006A901967C
:101EB0000091B24A417912690079146800232A46D8
:101EC000A04704464CE0AA49AC486A46491C006950
:101ED000138B8D420AD1012B41D13178002901D0D9
:101EE000012944D100294AD0012148E0A249891F93
:101EF0008D422ED101210C98019100903246394635
:101F0000604604F0EFFA04002AD1707831780202BA
:101F10000A439A497B89C868C97905E047889F4286
:101F200005D0491EC9B208300029F7D10020002889
:101F300016D006A901960091012A08D003238F4AE2
:101F400041791269007916682A46B04708E00223F1
:101F5000F5E78749C91C8D4202D1012B02D00D241F
:101F600020468FE73178002903D0012901D0802451
:101F7000F6E7FA6811703178002904D0032142682D
:101F800008469047ECE70221F9E7F8B57B4E0421BB
:101F9000B07913F059FD01213089FFF710FC0121C0
:101FA000308900F023FA37897548F568874212D0E6
:101FB000F4790EE06888002808D0694604F0D2FC65
:101FC000002803D0C168384604F026FA641EE4B243
:101FD0000835002CEED100206A49707001240C7085
:101FE000B07001460B22684813F0B0FA00F086F892
:101FF000002816D070690079800712D5A02103202F
:1020000004F0E2F8A021042004F0DEF80021012011
:1020100004F0DAF8684604706A4601215B4803F070
:10202000B1FBF8BDF8B50027544D0E460446042810
:1020300003D0287804280BD012E0708928816F70B3
:10204000684607706A460121504803F09BFB07E091
:10205000FFF79BFFE878042802D1FFF7C1FDEF707E
:102060002869002805D0C268002A02D031462046DF
:1020700090472C70F8BD13460A4610B5014644A09F
:1020800009F05AFC10BD10B501203C4C002904D0C9
:10209000012904D0022909D00EE0A0700CE0002133
:1020A000A170002A00D16070E27005E0002A03D11F
:1020B0006070208900F044F920796179884206D067
:1020C0006078002803D00821A07913F00DFB10BD23
:1020D00038B50D4629490969002905D08C68002CBE
:1020E00002D02946A04738BD6946324802F05EFB5F
:1020F00000212846009A02F009FD38BD08B50020ED
:10210000694608702B480E3002F050FB694608788B
:1021100008BDFFB581B016460746FFF7EFFF002860
:1021200024D0164C0B216079401C01F0C5F9617177
:1021300020790D46814204D10B21401C01F0BCF9ED
:1021400021710B204543104832460B304755281863
:10215000029941708670C01C049913F001F96078EF
:10216000002803D00821A07913F0BEFAA8E40000EB
:102170004B2A000098050020082900006C0500206B
:10218000FEFF0000A20500205E2E002005030000D7
:10219000557064617465202564202D20496E74207B
:1021A00030782578202D204C6174656E6379202568
:1021B000640A000007040000F8B54B4C494920466A
:1021C00004F02AF947492046103104F025F9474B1D
:1021D00010221A21464804F0F1FA00904448C169DF
:1021E0000220FFF732FA42493E4809390F78383861
:1021F00007714E784671C9314A890280498B418006
:102200003B4901228271C91F0D780573374B4C7809
:102210004473A03B59890181002141818273077574
:1022200046755B8F0382314B603B5E8946828175C8
:10223000057744775B8D03832D4C41838177641F41
:102240000346257820331D7164785C71274C203C4F
:1022500064890484418401469A7128310320FFF780
:10226000F4F9204907203839FFF7B6FC0098F8BD8B
:1022700030B5204D00205219039C1F4D13D01B2A4E
:1022800004D1022903D0032908D00A2030BD012B34
:1022900002D12178297030BD0D2030BD012BFBD13A
:1022A0002178A97030BD012BF6D12178697030BD3D
:1022B00070B5104C012512190F4C0498002A0FD04C
:1022C00000261B2A03D1022903D0032903D01E8034
:1022D00004E0217800E0A17801701D80002070BD2D
:1022E0006178F9E71A2F0020FFFF00005007002057
:1022F000B0050020CED5FFFFA405002010B546494B
:10230000464804F089F8464B1022184606216038EA
:1023100004F054FA10BD4249683908607047022041
:1023200070473F4B02460020643B002A03D0012A3D
:1023300003D0022070471A8800E05A880A8070474C
:102340003EB50446344904F02BFAC0071ED00025E0
:102350002B4601221B212046009504F039FE0290F5
:10236000002813D02E4869462038408B88800120F1
:10237000C88002980022057001A9204604F00CFCD8
:10238000002803D01B2101A804F068FE3EBD0020F8
:102390007047FEB5089E00241546002E01D00B2084
:1023A000FEBD4F687A783F7812023A431D4FBA4219
:1023B0000ED1042B01D00D2416E0C8681A46294618
:1023C00012F0CEFF164901206839096888470BE0F2
:1023D000154CA24207D10122019200962A4604F030
:1023E00081F8044600E00A242046FEBD10B50446EC
:1023F0000A48401E84420DD0012907D0022909D184
:10240000012120460EF064FD002803D10249204638
:1024100004F002F810BD00003A2F0020FFFF00007A
:10242000D00700204F2A00000229000004488047FE
:1024300004480047FEE7FEE7FEE7FEE7FEE7000090
:10244000492400009100000010B5FF485721017099
:10245000A8210170FC4A8821403A118100210170B5
:102460000A2000F001FD012000F04BFC10BDF0B58A
:10247000F54EF54D04275722A824203E403DF24951
:10248000030009F081FA0D080E161B1F24282C32B8
:10249000373C41462F000A700C70F07BFB22104045
:1024A00003E00A700C70F07B3843F073C820288179
:1024B00018E00A700C705120C000F8E70A700C7028
:1024C000E248F4E70A700C7081208000EFE70A70A0
:1024D0000C708820EBE70A700C700220E7E70A70A6
:1024E0000C702F8100200870F0BD0A700C709320D2
:1024F0008000DCE70A700C70D4484D30D7E70A70D2
:102500000C7095208000D2E70A700C704B20C00040
:10251000CDE70A700C70CD485C30C8E7CA4810B5EA
:1025200040380089C1B20B069A0FC948022A05D06B
:10253000012A04D09A0F06D07D20000210BDC906E2
:10254000C90EC44801E0C906C90E00F0B5FF10BDB0
:10255000BD4A57211170A8211170BB4940394B1554
:102560000028088904D018430881002010707047A3
:102570009843F9E7B44A57211170A8211170B24964
:1025800020390028C87B05D004231843C8730020D5
:1025900010707047FB231840F8E7AB498A7B80072F
:1025A00092089200800F024357200870A8200870FC
:1025B0008A73002008707047A3498A7B8F231A40D2
:1025C0000001024357200870A82008708A73002079
:1025D000087070479C4A203A917B800789088900DF
:1025E000800F0143984857230370A8230370917309
:1025F000002101707047944A203A917B0907090F26
:1026000000010143904857230370A823037091737E
:10261000002101707047FEB58B48002740380089C3
:10262000C0B201068A0F022A4CD00124A403012A59
:102630004CD0890F56D00524002000902005000DB5
:10264000019081482038848900267F4957223046EE
:102650000A70A8220A7001238B747B4957220A70E2
:10266000A8220A70784A203A948100220A708A7C53
:102670009207FCD50A8A8A7C9207FCD48A7C92074E
:10268000FCD5098A019A7F1C891A0DB2FFB2002D70
:1026900037D02946714305D5012834D0411C32D0AA
:1026A000002830D02E4602943046009900F01AFFE0
:1026B00000B2211A8CB202998C4249D1002D45DD1D
:1026C000641C44E00220644CC043B6E7C506ED0E2E
:1026D0002946624800F0F0FE0019C40B2320C043D5
:1026E000401B09E0C506ED0E29465D4800F0E4FEFA
:1026F0000019C40BA81C4042294600F0F3FE00B2AA
:102700009BE70020FEBD002E03DA761EF04306B2E2
:1027100002E06D1EE84305B2B5420FDD4A4857217D
:102720000170A8210170484A0299203A9181002144
:1027300001707D20C0007043019903E07D20C0003E
:102740006843114600F0CEFE80B2FEBD641EA4B206
:10275000142F82D3FF20FEBDFFB581B00C46074683
:10276000054600261AE0FF219131681E00F0BAFEEE
:1027700000290AD06421681E00F0B4FE002907D0A9
:102780000320A9078007C14202D1FF206F3001E07A
:10279000FF206E3080196D1E86B2ADB23148854281
:1027A000E1D80025012C25D9032C05D0A01E062830
:1027B00016DDE00718D115E0FF219131384600F011
:1027C0007BFE00290AD06421384600F075FE0029FE
:1027D00001D0B80702D000201C3006E00120FBE742
:1027E000E00701D01F2000E01E208019641E86B281
:1027F000A4B2D7E7039818213018401E84B2049879
:1028000000F05AFEE120C00041430A981E225043C6
:1028100009180B984008081881B20B98C00701D01E
:102820000120C0030A040243074957200870A8206A
:102830000870054E403E746303482038437C802472
:102840002343437472630FE0401000400202000013
:102850000048E80100389C1C1313000000180D8F7D
:1028600000688909E4070000427C40231A4342744F
:102870000D7005B0F0BDFFB50746934883B0C06B3F
:102880000E4684049048A40C2030418B008B01221A
:102890004900D203904201D3012000E00020081833
:1028A00000908A48388010E00199002925D06421E1
:1028B000284600F001FE002901D0A8071DD0FF2006
:1028C0006E30201A6D1C84B23D803D88FF2191310D
:1028D000284600F0F1FD0191002911D0642128461D
:1028E00000F0EAFD002901D0A80709D0FF206E30D2
:1028F000A042D9D90020308049E0FF206F30E0E7C6
:10290000FF206F30F4E73588012D04D0062D18D94B
:10291000E8071AD117E03888FF219131019000F0C3
:10292000CBFD00290BD06421019800F0C5FD0029E2
:1029300002D00198800702D000201C3006E0012060
:10294000FBE7E80701D01F2000E01E20201A84B218
:102950006D1CA8B23080012804D0062817D9C00702
:102960001AD117E03888FF210546913100F0A4FD07
:1029700000290AD06421284600F09EFD002901D0DC
:10298000A80702D000201C3007E00120FBE73078C8
:10299000C00701D01F2000E01E20A042B3D930881C
:1029A000641C401C30800598E121048009010098D6
:1029B00000F082FD069A108008463C2100F07CFD64
:1029C0000C9908803C21009800F076FD0D9801805C
:1029D00007B0F0BD3C49572240310A70A8220A7066
:1029E000394A506338482030427C40231A434274AD
:1029F0000020087070473449886B8A6B8242FBD193
:102A00007047314A10B5572140321170A82111701A
:102A10002D4920314B7CE82423404B744B7C1024FF
:102A2000204303434B740020107010BD00B50346D3
:102A3000FFF7E1FF2649C018884201D949424018F2
:102A40000104090C02D00121090440181E49572233
:102A500040310A70A8220A701B4A50631A4820307D
:102A6000427C20231A4342740020087000BD0021DC
:102A7000002802D0012802D002E0202100E010212D
:102A80001148572240300270A82202700E4A2032AC
:102A9000537C8B4353740021017070470A492031E5
:102AA0000028087C02D0402108407047C009C001BE
:102AB000704705492031002804D0012801D1102099
:102AC000087470472020FBE700100040E407000076
:102AD0000000C0A800B5524A0B0008F055FF0504DD
:102AE000071016191F00516B81430AE0516B814397
:102AF0005163116B01431163116A81430DE0516B06
:102B000001435163116B8143F5E7516B814301E050
:102B1000516B01435163116A0143116200BD404A88
:102B200000B540320B0008F02FFF050407101619FE
:102B30001F00516981430AE0516981435161116964
:102B400001431161116881430DE0516901435161F5
:102B500011698143F5E75169814301E051690143FE
:102B6000516111680143116000BD2D4A002906D052
:102B7000012907D0022908D0032913D10CE0918A3A
:102B8000814304E0918A814308E0918A0143918264
:102B9000D16A0143D16205E0918A01439182916A31
:102BA000014391629083118A0143118270471C4B4B
:102BB0001B4A4033002906D0012907D0022908D03A
:102BC000032913D10CE0D18A814304E0D18A8143E7
:102BD00008E0D18A0143D182D9680143D96005E078
:102BE000D18A0143D182996801439960D083518A87
:102BF0000143518270470A4A803A0028108B01D065
:102C0000084300E0884310837047054A803A002853
:102C1000508B01D0084300E0884350837047000088
:102C200080100040F8B5624D5726614CA827203D22
:102C300000282670277028880ED021150843288088
:102C40000A2000F011F926702770288861150843C2
:102C5000288000202070F8BD032149028843F7E74F
:102C6000F0B5534C57261C228B07514DA8270A401C
:102C70009B0F403C00282E702F7010D0080603D503
:102C8000E07BFD210840E073A07A1043A072484821
:102C90002038C17B1943C17300202870F0BD08069D
:102CA00003D5E07B02210843E073A07A9043A07231
:102CB0003F482038C17B9943EDE730B53C4C572362
:102CC0003B4AA825403C002813701570E06804D0EA
:102CD0008843E0600020107030BD0843F9E730B54C
:102CE000334C5723324AA825403C002813701570F6
:102CF000A07B04D00843A0730020107030BD88432F
:102D0000F9E7F8B52A4D5726294C0021A827203D80
:102D10000028267027700ED00120687128710020CD
:102D20002070012000F0A0F8267027700D20287177
:102D300000202070F8BD29712170F8BD1D4801697F
:102D400004229143016130BF7047194B57241C7016
:102D5000A8251D7016494039887B082210438873C6
:102D60000920134E0003203E308000271F70886B1F
:102D70008A6B8242FBD1104A0A30904201D95242FA
:102D800080180204120C02D0012212048018302292
:102D900032741C701D7048632F2070741F701C707B
:102DA0001D70052008811F7040BF20BF20BFFEE7B7
:102DB0004010004000ED00E00000C0A83C4906289B
:102DC00005D04979012282401140084670470878B1
:102DD000082108407047364857210170A82101702A
:102DE00081790122114381710021017070473149BD
:102DF0000968016000202F49C04380310860704796
:102E00002C49086070472C48806970472849572230
:102E10000A70A8220A700028887905D0042210437D
:102E20008871002008707047FB221040F8E72049A5
:102E300057220A70A8220A700028887905D0022239
:102E400010438871002008707047FD221040F8E799
:102E5000174857210170A821017081791022114370
:102E6000817100210170704700220AE0022101E017
:102E700000BF00BF0B46491E89B2002BF8D1521C7F
:102E800092B28242F2D3704770B500247D26054687
:102E9000F60004E03046FFF7E7FF641CA4B2AC4242
:102EA000F8D370BD0549CA7A082AFCD00872704769
:102EB0004010004000E100E000E000E0003400408D
:102EC00010B50446FFF72AFB0A214843C0082146F3
:102ED00000F0F2FA0A21401D00F0EEFA2249888142
:102EE00010BD10B5E1204002FFF7EAFF1E48872120
:102EF00081700321C170402141700121817310BD97
:102F000019498A789206920E800102438A707047AE
:102F1000154A0028507806D00843507010780821D0
:102F20000843107070478843507070470E498020E6
:102F3000487070470C4A07E0D37A082B04D0037816
:102F40001372491E89B2401C0029F5D17047014611
:102F50000020054A04E0137A401C0B7080B2491C23
:102F6000937A002BF7D170470034004010B5234806
:102F700000230370CC210173417321490A88028226
:102F80008A8882820A890283898981831B49022473
:102F900020318C7012228A718A728A738C74C37089
:102FA00029210170FF21817116494A8B80231A4320
:102FB0004A83812141700721817010BD0F49203162
:102FC0000871887980088000887170470B4920312A
:102FD0000872887A8008800088727047074920311B
:102FE0000873887B8008800088737047034920310C
:102FF0000874887C800880008874704700800040D6
:10300000E00700200010004094480421C170022114
:1030100001706021017041781022114341704178A4
:1030200049084900417070478C4902284A7804D009
:10303000BF231A404A70C870704740231A43F9E70B
:1030400010B58649F722202300280ED0DF2401285E
:103050000ED0082202280ED0032805D1087810438C
:10306000087048782040487010BD0878104004E08F
:1030700008781040F4E7087810430870487818433F
:10308000F1E776490A78EF231A400A7008718879C7
:103090004006FCD5704771480178EF22114001705D
:1030A000FF21017181794906FCD50079704710B57F
:1030B0006A4A1378EF24234013709181012393719E
:1030C00007E0D379082B04D203781374491E89B220
:1030D000401C0029F5D1D0790028FCD110BD10B5D5
:1030E0005E4A137810242343137091810123937156
:1030F00007E0D379002B04D0137C491E037089B2FA
:10310000401C0029F5D110BD10B5544A1378EF24A6
:10311000234013701083401890839181092090718F
:1031200050780121084350709079C007FCD0507846
:1031300040084000507010BD10B5484A1378102464
:10314000234313701083401890839181092090715C
:1031500050780121084350709079C007FCD0507816
:1031600040084000507010BD3C4802210170812190
:10317000017041781022114341707047374801783F
:10318000102211430170C1790029FCD0007C7047E6
:1031900032490A78EF231A400A700874C879002867
:1031A000FCD1704710B52D4A1378102423431370B7
:1031B0000123937107E0D379002B04D0137C491EBF
:1031C000037089B2401C0029F5D110BD10B5234A07
:1031D0001378EF24234013700123937107E0D37910
:1031E000082B04D203781374491E89B2401C0029AD
:1031F000F5D1D0790028FCD110BD10B5174A13784D
:103200001024234313701083401890839181092068
:10321000907150780121084350709079C007FCD01C
:10322000507840084000507010BD10B50B4A13781C
:10323000EF2423401370108340189083918109205C
:10324000907150780121084350709079C007FCD0EC
:10325000507840084000507010BD00000040004011
:1032600010B5FFF7D8F9022801D9FFF7D4F910BD3E
:1032700030B55649CC7E0B7E4A7EC87E80252843D9
:10328000C8760F20087621204876887E01252843BD
:103290008876887EC007FCD1888BCC760B764A7600
:1032A00030BD30B58DB0122249A14E4812F04AF817
:1032B000002841D0454857210170A82101705121B3
:1032C000424AC900403A1181002101704748464AEC
:1032D0004261474A0724D3691B021B0A45042B435A
:1032E000D361816104610169022291430161342249
:1032F0000021684612F02AF93E4800900120400360
:10330000694688801B20C873052008740120487412
:1033100014208874FB20800202900D200877364824
:10332000089036480A90084601F0FAF8010007D0E4
:1033300033A008F001FBFEE739A008F0FDFAFEE734
:103340000DB030BD70B50C4609040AD512F042F933
:10335000002801D012F016F901212046C903484087
:1033600070BDE00702D00120604070BD314DA00467
:1033700005D501F051F901262F4A760308E06004D3
:103380000DD52EA008F0D8FA7D22D2010126B60371
:103390003146287812F0FAFA2046704070BD0020BD
:1033A00070BD10B5264808F03DF9224C207000F0A1
:1033B00063F862B6204A01214903207812F0E6FA48
:1033C00010BD10B500F0F0FF10BD0000401000402F
:1033D00043483537785F424C455F4C49425F563130
:1033E0002E370000B05D0100FEFFFF0000E000E0AE
:1033F00004ED00E0C40A0020072E00007132000036
:103400004C494220696E6974206572726F72206344
:103410006F64653A202578202E2E2E0A00000000C9
:10342000686561642066696C65206572726F722ED2
:103430002E2E0A00F007002000EE02002A200000D5
:10344000453300000104090C02D001210904401891
:10345000164957220A70A8220A7014494039486355
:103460001349002008607047104930202039087443
:103470000F490120086070471CB50C4857210170A6
:10348000A821017009492039CA7B07231A43CA734E
:103490000021017000910B4601220191114605485F
:1034A000FFF75AF9002008F0F1F91CBD4010004068
:1034B000F4070020E407000030B50B460146002069
:1034C0002022012409E00D46D5409D4205D31D462A
:1034D0009540491B2546954040191546521E002D22
:1034E000F1DC30BD70B500242546002801DA012446
:1034F0004042002901DA01254942FFF7DDFFAC42D5
:1035000000D04042002C00D0494270BDF0B51FB43D
:1035100086B000200090019002900698069980B233
:1035200004900798090C0204001411430790002727
:10353000089D099806913E463C4603900398A9B21F
:103540000204000C039004982D0C154348430021FD
:10355000224600F018F8C719714110340E46402C6D
:10356000ECDB3846029A00F00EF8009A019B8018B6
:103570000090594102980191103002904028CCDB14
:1035800000980BB0F0BD10B5202A04DB0146203AAC
:103590009140002010BD914020239C1A0346E34037
:1035A0001943904010BD03460B439B0703D009E02D
:1035B00008C9121F08C0042AFAD203E00B7803706E
:1035C000401C491C521EF9D2704710B5002200E081
:1035D000521C835C8C5CA34201D1002BF8D1D8B281
:1035E000E1B2401A10BDF0B51FB40646002082B00B
:1035F00005464024019100901BE0019922460F46A8
:10360000304600F033F8049A059B801A994110D394
:10361000104619462246FFF7B6FF361A8F4101972A
:10362000224601200021009FFFF7ADFF38184D41D1
:1036300000902046641E0028DFDC019B009829468C
:10364000324607B0F0BD0000064C0125064E05E0ED
:10365000E36807CC2B430C3C98471034B442F7D3B3
:10366000FCF71AFDDC5F01000C60010010B5202A98
:1036700004DB0846203AD040002110BD0B46D34061
:10368000D0402024A21A91400843194610BD70B5BD
:103690008C180578401C6B075B0F01D10378401C28
:1036A0002A1106D10278401C03E006780E70401CF7
:1036B000491C5B1EF9D12B0705D40023521E0DD4E3
:1036C0000B70491CFAE70378401CCB1A921C03E0EC
:1036D0001D780D70491C5B1C521EF9D5A142D8D330
:1036E000002070BD03B40148019001BD63000020BB
:1036F00003B40148019001BDB900002003B40148A2
:10370000019001BD9501002010B5124C2068C00544
:103710001FD50320206000200821401C2268C0B271
:103720000A4322600EE02268920510D4222807D9AD
:103730000948026B002A0AD001210320904706E0C5
:10374000401CC0B22268D205EDD50028E5D100208A
:10375000206010BD80C30040682F002070B5144663
:103760000D460646FFF7D0FF2D480368196806226C
:1037700091431960316899627168D962B1681963BF
:10378000F1685963296899616968D961A968196202
:10379000E968596259680222914359605D680121C4
:1037A0000D435D601D680D431D6000E000BF59685A
:1037B0008907FBD55968914359609969217001685F
:1037C0008969090A617001688969090CA170016839
:1037D0008969090EE1700068C1692171C169090A2E
:1037E0006171C169090CA171C169090EE171016AB8
:1037F0002172016A090A6172016A090CA172016AE7
:10380000090EE172416A2173416A090A6173416AD2
:10381000090CA173406A000EE073002070BD000027
:103820003C0A002070B50C460546FFF76DFF28489E
:103830000268106820218843E907890E0843106058
:103840008034E06C1061206D5061E0699061206A05
:10385000D061606A1062A06A5062E06A9062206B78
:10386000D062606B1063A06B5063E06B9060206C63
:10387000D060D168236C1748994204D0026B002AAB
:103880001ED0202107E0916AE36A994206D0026BBC
:10389000002A15D021210320904711E0D169236A25
:1038A000994204D0026B002A0AD02221F3E7116961
:1038B000E36C994206D0026B002A01D02321EAE78B
:1038C000012070BD1068402108431060002070BDC9
:1038D0003C0A0020682F002070B50C460546FFF713
:1038E00013FF28480268106820218843E907890EE1
:1038F000084310608034606C1061A06C5061E06916
:103900009061206AD061606A1062A06A5062E06AC9
:103910009062206BD062606B1063A06B5063E06BB1
:103920009060206CD060D168236C1748994204D015
:10393000026B002A1ED0102107E0916AE36A9942C7
:1039400006D0026B002A15D011210320904711E008
:10395000D169236A994204D0026B002A0AD012214D
:10396000F3E71169636C994206D0026B002A01D01B
:103970001321EAE7012070BD106840210843106060
:10398000002070BD3C0A0020682F002010B504F014
:10399000C3FE024903F089FC002010BD06040000AC
:1039A0000148006E70470000C031002008B50028B3
:1039B00008D0002906D0002A04D01088002801D0A1
:1039C000002008BD1220694608706A46012103489C
:1039D00003F067FC6946087808BD0000350C00005C
:1039E00008B504F0BDF9694608706A46012103482C
:1039F00003F057FC6946087808BD00002720000046
:103A000008B504F0F7F9694608706A4601210348D1
:103A100003F047FC6946087808BD0000112000004B
:103A200008B504F02FFB694608706A460121034877
:103A300003F037FC6946087808BD00002920000023
:103A400008B504F025FB694608706A460121034861
:103A500003F027FC6946087808BD0000102000002C
:103A6000FEB508AF70CF6F4670C704F037FB044651
:103A7000024903F01AFC2046FEBD0000132000009E
:103A800008B504F039FE694608706A46012102480B
:103A900003F007FC002008BD0E20000038B50446E6
:103AA00005F0B5F8694608704C70200A88706A46BF
:103AB0000321024803F0F5FB002038BD1B20000065
:103AC00038B5044605F0BBF8694608704C70200A0A
:103AD00088706A460321024803F0E3FB002038BDEA
:103AE0001A2000000EB500A8013005F0FCFB694665
:103AF00008706A460921024803F0D3FB00200EBD7E
:103B00001820000008B500A8013005F001F869464A
:103B100008706A460421034803F0C3FB694608782D
:103B200008BD00000220000038B5044605F036FC50
:103B3000694608704C70200A88706A460321024862
:103B400003F0AFFB002038BD212000007FB5044604
:103B500008A861C8009002960195204605F036FC41
:103B6000694608734C73200A887303AA032103482B
:103B700003F097FB002004B070BD0000202000007F
:103B800008B505F021FF694608706A46012103481F
:103B900003F087FB6946087808BD00002D2000006F
:103BA00008B505F0AFFF694608706A460121034871
:103BB00003F077FB6946087808BD00000820000084
:103BC00008B505F027FF694608706A4601210348D9
:103BD00003F067FB6946087808BD00000A20000072
:103BE000F0B585B00AACF0CC03976F4670C705F00E
:103BF000A9FF6946087404AA0121034803F051FB98
:103C00006946087C05B0F0BD0620000008B506F046
:103C100023F8694608706A460121034803F041FB16
:103C20006946087808BD00000520000008B506F0C8
:103C300051F8694608706A460121034803F031FBD8
:103C40006946087808BD00002E20000008B506F07F
:103C500057F8694608706A460121034803F021FBC2
:103C60006946087808BD00000C20000008B506F081
:103C700089F8694608706A460121034803F011FB80
:103C80006946087808BD00000920000010B506F05C
:103C9000E0F8024903F009FB002010BD19200000E4
:103CA00010B505F00CF810BD1CB500A8013005F0EA
:103CB00029FB694608706A460721034803F0F1FAB8
:103CC000694608781CBD00000910000010B505F019
:103CD000D3FD10BD0A7802708A7842704A88120AB1
:103CE00082700979C170042070470A7802700988CF
:103CF000090A41700220704708888004000C704750
:103D00008A78027088780128088804D012214843F4
:103D1000401C80B270478000FAE70A7802700A8877
:103D2000120A42704888801C80B270470A7802707C
:103D30000A88120A42708A7882704A88120AC2700F
:103D40008888001D80B27047088870478A780270A2
:103D5000088849884843401C80B270478A780270BE
:103D6000088849884843401C80B2704708887047DB
:103D7000088870477FB515460446022901D01029EE
:103D800003D1022B04D0102B02D0002004B070BD50
:103D9000994202D10A46294607E01029694607D010
:103DA00000F00EF810226946284611F0CBFAEDE734
:103DB000104600F005F8102269462046F5E700009D
:103DC00070B50C4605000CD0002C0AD01022064914
:103DD000204611F0C5FA28782073687860730120B6
:103DE00070BD002070BD0000585E010008B50022C3
:103DF0000B4600920122024907F094FF08BD000023
:103E0000D53C000008B50A88172A07D300220B46C4
:103E100000920322024907F085FF08BD022008BD79
:103E2000EB3C000008B500210B461922009107F079
:103E300079FF08BD38B5054608880C4600280DD026
:103E4000606800280AD0012111F038FA009023465A
:103E500007220349284607F065FF38BD022038BD18
:103E6000F93C000038B5054688780C46012801D099
:103E7000022810D1208800280DD0606800280AD0C0
:103E8000022111F01BFA009023460522034928461F
:103E900007F048FF38BD022038BD0000013D00009A
:103EA000064910B5884202D103F0D4FD10BD0CF0D4
:103EB0005FFF0028FAD1172010BD0000FEFF0000B0
:103EC00038B505464A6800200C46002A03D0032175
:103ED000104611F0F3F9009023461D2202492846AE
:103EE00007F0DCFE38BD00001B3D000038B505467C
:103EF0004A6800200C46002A03D00321104611F026
:103F0000DDF9009023461B220249284607F0C6FE31
:103F100038BD00001B3D00000248002101604160E7
:103F200070470000600A00200098022B01D0042096
:103F300070475178127809021143018000207047C0
:103F40000098012B01D004207047117801700020E7
:103F5000704770B5049C1E461546062B1BD3687827
:103F60002978000208432080E878A97800020843F5
:103F70006080022020710246291D601D11F0F0F9B9
:103F8000B01F2081062E03D0AD1DE560002070BD5E
:103F90000020E060FAE7042070BD0098042B01D0F7
:103FA0000420704751781378090219430180D178B1
:103FB000927809021143418000207047F8B5848946
:103FC0000D46002C2BD086683778390601D40020A6
:103FD00010E00D2C23D30C3CA4B231190091408881
:103FE00023463246012107F027FA002801D002209B
:103FF00000E0012079062870C90FBA066970920E98
:10400000AA70641E2204120CAA8002D0761CAE6034
:1040100001E00022AA60022803D1002901D001207A
:10402000F8BD0020F8BD10B50298042B14D35178C8
:104030001478090221430180D17894780902214340
:104040004180191F8180042B02D0121D826001E083
:1040500000218160002010BD042010BD0098042BB9
:1040600001D0042070475178137809021943018068
:10407000D17892780902114341800020704710B531
:1040800002981146062B03D0142B03D0042010BD38
:10409000022200E0102202714A780B7812021A43C1
:1040A0000280CA788B7812021A4342800279401D3E
:1040B000091D11F055F9002010BD0098D90706D14F
:1040C000022B04D059088180026000207047042030
:1040D00070470098022B01D0042070475178127865
:1040E0000902114301800020704710B5029C022B89
:1040F00011D3207261725078117800020843208039
:10410000981E6080022B02D0921C626001E00020A9
:104110006060002010BD042010BD000038B50546C9
:1041200088680C46002802D0052111F0C7F80090DD
:10413000234617220249284607F0F4FD38BD000047
:104140002D3D000038B5054648680C46002802D0D1
:10415000012111F0B3F8009023460D2202492846B0
:1041600007F0E0FD38BD0000493D000038B50546C8
:1041700008880C4600280DD0606800280AD002216B
:1041800011F09CF80090234611220349284607F0BD
:10419000C9FD38BD022038BD4D3D000038B505468B
:1041A00008880C4600280DD0606800280AD002213B
:1041B00011F084F80090234609220349284607F0AD
:1041C000B1FD38BD022038BD5D3D000038B5054663
:1041D00048680C4600280AD0012111F06FF80090C1
:1041E00023460F220349284607F09CFD38BD0220D4
:1041F00038BD00006D3D000038B505464A68002016
:104200000C46002A03D00121104611F057F8009007
:1042100023460B220249284607F084FD38BD0000E2
:10422000713D00000149086070470000600A0020ED
:1042300070B5054608480C46854205D0172C03D3B7
:1042400003F008FCA04201D2012070BD214628469F
:104250000CF04EFE70BD0000FEFF000008B500210E
:104260000B461322009107F05DFD08BD0448034989
:10427000006801600349C16270470000A52208017F
:10428000400A0020784E010010B5074C5D202168DF
:10429000086506F00FF8206800210165034842799F
:1042A000521C4271C17110BD18080020BC2F0020A3
:1042B00070B52C49002048602B4800892B4CC0B2B7
:1042C0008109022904D0012908D0810916D026E0ED
:1042D000D020A0800820E080E8201FE0C506ED0E79
:1042E0002D2029468001FFF7E7F8A0802946782095
:1042F000FFF7E2F8E08029461D480DE0C506ED0E07
:104300002946C020FFF7D8F8A08029460820FFF7EB
:10431000D3F8E0802946E820FFF7CEF8208116493F
:104320001448086016491548086017491548086080
:1043300017491648086018491648184C086018496B
:1043400020680122D202086180184861012048716A
:1043500000F062F9607D002802D112492020086037
:1043600070BD00001C080020001000409C2F0020A1
:10437000980D000000C00040440A002000C3004027
:104380003C0A002000C200401808002000D0004075
:10439000480A002000C10040400A0020682F002089
:1043A000BC2F002000E100E0F8B5564800688168A5
:1043B0000127C9050025544C544E00292EDA816886
:1043C0003A0291438160207840060CD5504851490B
:1043D0000068884206D15049886BE0608A6B904241
:1043E000FAD100E080472078384320706570E0798A
:1043F000062803D043495D20096808653068002815
:104400000AD001690A68406902430A603168086895
:10441000026889680A4302606571A560394B1868B3
:104420008168890521D5816801225202914381600A
:10443000A0783843A070E57038480068C16A8908E0
:104440008900891CC1620168D2041143016030688F
:1044500000280AD041680A68806802430A6031680F
:10446000C868026849690A43026018688168890758
:1044700017D58168022291438160E770A5705D21A4
:104480000165306800280AD001690A684069024362
:104490000A6031680868026889680A4302606571C9
:1044A000A56018688168C90715D081684908490066
:1044B000816025706770306800280AD041680A68FA
:1044C000806802430A603168C868026849690A4323
:1044D00002606571A56018688168C90603D58168A6
:1044E0001022914381608168490703D581680422C5
:1044F000914381608168090703D58168082291434F
:104500008160F8BD18080020BC2F00202008002082
:1045100014080020ADAF000000100040400A002049
:1045200070B504460068002828D00121000C49031A
:10453000884223D1A088002820D020460622FF21CF
:10454000163010F0F0FE01281AD0A2880021206851
:1045500010F0FCFF342200212D4810F0F7FF342228
:1045600021462B4810F0FCFE294806221630002177
:10457000054610F0D8FE012804D008E0022070BDE6
:10458000032070BD23490622284610F0E9FE20488A
:104590008189002902D1012149028181827B012187
:1045A000002A00D18173C27B002A01D11B22C27371
:1045B000027C002A01D105220274427C002A00D12B
:1045C0004174817C002901D114218174817F0029EB
:1045D00001D128218177C17C002908D0827FE17C2C
:1045E00092088918C174617F002904D005E0817F99
:1045F00089082D31F6E702214177806A002803D02F
:10460000804703493431488106F0C4FF002070BD63
:10461000682F00200806040010B500F065F803F0CC
:1046200081FB05F0E1FDFFF721FE0B4C5D202168C9
:10463000086505F0F1FE06F0AFFC05F0B5FE05F0EB
:1046400039FE064801214171226800211165C171BE
:10465000FFF75AF810BD000018080020BC2F0020FA
:1046600070B50E4B00209989002901D10C49998120
:104670000E210124A4039A8915462540CD405204F9
:10468000120C0543E8B25604D50BF60F75401543DE
:10469000491EC9B29D810629EDD870BDC0310020E8
:1046A000FF7F000070B50E4B00205989002901D111
:1046B0000C49598108214C015A8915462540CD40A5
:1046C00005435200E8B2550A56097540ED07ED0F53
:1046D0001543491E09065D81090EEDD170BD00002C
:1046E000C0310020FF0100000A48094900680A693A
:1046F00002610A69426149698161C161826801217F
:1047000049030A438260C2680A43C26070470000DE
:10471000BC2F0020440A002030B5104A0346517ACD
:10472000FD20842454720E4CA568002D07D0A57B73
:10473000002D04D0A489E51FFF3DFA3D02D051723F
:10474000FF2030BD7D24E402A34205D35360A620A0
:104750001072907A40235840517230BD00180040CA
:10476000682F0020F8B500240F4E274613E0F06BA9
:10477000250128180622FF2110F0E8FEF06B062222
:104780002818FF21801D10F0E1FEF06B28188781AA
:10479000641C8773E4B2307E8442E8D3002010F0BA
:1047A000B5FF307E7076F8BD9809002070B50C46D4
:1047B0000146012080020A1A00252B48130007F049
:1047C000E3F820111316181A1D1F21232527292B62
:1047D00032343648393B3D3F4348484848484848CA
:1047E00048464148007800E04078207039E0807801
:1047F000FBE7C078F9E710221C4910E00079F4E7E4
:104800004079F2E7006A13E08079EEE7C079ECE7DF
:10481000007AEAE7407AE8E714491022103120468E
:1048200010F09EFD1DE0807ADFE7C07ADDE7406A88
:10483000206016E0007BD8E7407BD6E7807BD4E79A
:10484000407CD2E7807CD0E707F0E2FFCDE7807DB7
:10485000CBE7192904D2084601F058FA208000E07D
:104860000225284670BD000098090020F430002081
:1048700010B5044600F0D4F80248C47508F002F9F7
:1048800010BD000098090020FFB58FB0064600203B
:104890000C900D901F460CAA304600F0B5FA454D1D
:1048A0000446287E84425AD2204608F0CBF80646B9
:1048B000042F04D0A879022803D0002002E0287831
:1048C000F9E7012000903B4632462146119807F057
:1048D00077FF1422002101A810F038FE204606219F
:1048E000484300902430C0B201AA102110F06CFFA0
:1048F000002813D11022FF2101A810F014FD002878
:104900000CD1009805AA2530C0B2042110F05CFF3C
:10491000F107C90F01AA119801F070FC7034E0B2E0
:1049200006AA182110F050FF002811D106A808F09F
:104930009BF80024A10006A808180188002903D0CC
:104940008278119801F09AFF641CE4B2062CF1D32E
:10495000B00706D5E97D119801F07EFF01E0082F30
:1049600002D0042F13D021E0A87902281ED1002202
:104970003146119807F05EFEA86A002816D04368F9
:10498000002B13D000221146119898470EE028788A
:1049900002280BD129791198002900D001216A78C9
:1049A000002A00D00422114301F0EEFB002013B0D6
:1049B000F0BD000098090020F8B501F03DFA00288C
:1049C0002BD1164D0026E87C012801D000241CE0E4
:1049D00007F06AFFEE7400202A7EE96B04E0030111
:1049E0005B18401C9E73C0B29042F8D310E0E86B95
:1049F00027013818807B012805D1204607F066FF83
:104A0000E86B38188673641CE4B2287E8442EED3C7
:104A1000502010F09DFE08F035F8F8BD98090020F0
:104A2000F8B5354EFF20F07500273776334CF76325
:104A3000A07B30214843422110F0AEFCF0630028F7
:104A400025D02046807B410040183076002413E0BA
:104A5000F06B250128180622FF2110F077FDF06B7E
:104A600006222818FF21801D10F070FDF06B281819
:104A70008781641C8773E4B2307E8442E8D31F4888
:104A80008068002801D0B77601E08020B076307EC3
:104A900070760124776334707770B770F7701022E6
:104AA0000021174810F052FD377177257571376274
:104AB000B471F771124837727772102200211030EA
:104AC00010F044FDB772F57277623773052070738A
:104AD0001020B073F77302203074B762F762376347
:104AE0007774F774347504487475B47505494830A3
:104AF000016005494160F8BD98090020682F002039
:104B0000F430002095CD00005DCD000070B500248C
:104B1000054600290BD108491046FEF7CDFC084692
:104B2000294601F0E5F9040003D00121284601F0EF
:104B30008DFB204670BD000040420F0010B50649B5
:104B40000C46483CA162E062E17D182001F03CFB8C
:104B5000E07D01F02DFE10BDE009002070B5264D6E
:104B60000C4608040FD5E87D10F034FD050006D092
:104B700008F02EF8002802D0284610F003FD01208E
:104B8000C003604070BDA0070BD50021084607F0A8
:104B9000B3FC02214C40002825D1E87D10F0A4FD93
:104BA0001FE0E00721D0686B808808F043F80121FE
:104BB0004C40002817D0A86A00280DD04368002B6D
:104BC0000AD0686B002280889847A96A686B002227
:104BD0004B68808803219847287D10F0D5FD07F0A9
:104BE0007DFC204670BD0121D7E7600702D5042077
:104BF000484070BD002070BD980900207FB5044674
:104C000080787F4D801F030006F0BEFE0AF4F7F7A0
:104C1000A41306F0F778B9F7A96A2046002907D04F
:104C20000C68002CFBD0437B027B4189C01CA04751
:104C3000E3E060780026002847D1A079C00744D07F
:104C4000686B002841D110220021684610F07EFCDC
:104C50006169002903D006226846103107E0A08868
:104C60000BF0B0FF0028E3D0811D0622684610F04B
:104C700077FB69468889A1794907C90F08436946C6
:104C8000888107F0C5FD297E88420BD1A87D0028C8
:104C900001D0FFF767FD5B48026B002A02D00121BB
:104CA0000820904707F0B4FD297E8842A87E02D1F3
:104CB0000121084301E040084000A87621466846EB
:104CC00007F01AFC002812D01526A86A002855D033
:104CD0004368002B52D06278A08801219847002EAB
:104CE0004CD0A96AA0884B683246032173E00221A8
:104CF000E87D10F0F9FC002004B070BD6078062853
:104D000017D1A0880BF05EFF060012D0287C012886
:104D100004D0022808D003280BD114E07179A088B0
:104D2000002207F087FC04E0A1883078052201F01A
:104D30009DFAA86A002860D04368002B5DD0627895
:104D4000A088022147E0002241201146000100F026
:104D5000F7F8E9E7E0780022211D00F055F8297EF8
:104D600088424AD20621484325302246C0B20C323E
:104D7000042110F06DFD287D10F006FD3DE0287B3C
:104D8000002802D0A088697B28E028780028A08825
:104D900023D00BF017FF06002FD0A07AC0070BD04E
:104DA0007079002808D0A189890505D46A46B11D0B
:104DB00000F02AF8002814D022467179A088083221
:104DC00007F038FCA86A002817D04368002B14D0DD
:104DD0000022A088114698470FE0052101F036FA1D
:104DE0000BE0A0880321F9E700E003E0A08800F0D1
:104DF00031FA02E0A088FFF7DFFD01207CE7000028
:104E000098090020682F0020F0B52E4E85B0347E22
:104E100015460F46002806D0012804D0022811D0DC
:104E200003284BD121E0084607F0C4FD317E04463B
:104E3000884243D2002D41D006223946284610F040
:104E40008FFA3BE000240BE0F16B200140180622B2
:104E50003946801D10F076FA002826D1641CE4B291
:104E6000307E8442F0D3C4B21FE0002419E0204613
:104E7000062148432330C0B26A46102110F0A4FC3A
:104E800000280CD11022FF21684610F04CFA0028AF
:104E900005D13946684601F045F9002805D0641C63
:104EA000E4B2307E8442E2D3DDE7307E844205D234
:104EB000002D03D02946204607F0A4FD204605B06A
:104EC000F0BD000098090020F8B50E4619491525D7
:104ED000194F884214D1002409E0324602212046AD
:104EE00007F0B0FC002800D00025641CE4B2387E36
:104EF0008442F2D3002E1BD010480BF081FF17E044
:104F00000BF060FE040012D060790022A11DFFF7B3
:104F10007BFF397E884204D23246022107F092FCA0
:104F20000025002E04D0204607F0EEFD00E01425F9
:104F30002846F8BDFFFF00009809002009CB0000BB
:104F4000F0B50746012080021546381A89B00024C2
:104F5000BC4ABD4E030006F017FD2011181F262D78
:104F6000333A3F464D545B626970757CEFEEEDEC71
:104F7000EBEA89E9E8AAAAF3F6E5E4EB012971D1A5
:104F8000287802286ED8307059E10129F7D12878A5
:104F90000128F7D8707052E10129F0D1287804284F
:104FA000F0D8B0704BE10129E9D128780128E9D87F
:104FB000F07044E11029E2D110222946A348ADE067
:104FC0000129DCD128780128DCD8307137E10129AA
:104FD000D5D12878707132E10429D0D12868904267
:104FE000D0D830622BE10129C9D128780228C9D84C
:104FF000B07124E10129C2D128780128C2D8F0710A
:105000001DE10129BBD128780428BBD8307216E1F4
:105010000129B4D128780128B4D870720FE1102981
:10502000ADD18A4810222946103077E00129A6D157
:1050300028780128A6D8B07201E101299FD12878EB
:10504000F072FCE004290DD1286890420AD8706201
:10505000F5E0002906D100F0EFFE002803D0012082
:10506000F074ECE074E007F01FFC1CE007296FD13E
:105070000622691C684610F073F9287800226946F8
:10508000FFF7C2FE0546307E854239D200F0D4FEDD
:10509000002805D0F26B0120290189188873CEE021
:1050A000284607F013FC502010F052FB96E0072929
:1050B0004ED10622691C07A810F052F92878002268
:1050C00007A9FFF7A1FE317E88421BD20621484383
:1050D00005462135E8B26A461C2110F075FB002810
:1050E0000ED15B48874201D1012000E0FF206946D4
:1050F000C876E8B26A461C2110F0AAFB307D4BE06E
:1051000002249CE0B07E0028FAD05148874214D196
:105110000120F0764C4807222946403010F020F953
:105120008DE05EE07AE00EE00AE075E06FE067E0B7
:105130007BE04AE041E039E031E00020F0767EE0BB
:10514000002070757BE00027012070753D461BE054
:1051500066E028460621484306462136F0B26A46F4
:105160001C2110F031FB00280CD16846C07EFF28BE
:1051700008D0FF206946C8760127F0B26A461C2194
:1051800010F066FB6D1CEDB22F48007E8542E0D327
:10519000002F54D02C48007D10F0F6FA4FE0012982
:1051A0003ED1287801283BD8307348E0012937D117
:1051B0002878092834D8707341E0012930D1287843
:1051C000C11F09292CD8B07339E0012928D1717C7D
:1051D00028787074002932D1012830D107F052FCB0
:1051E0002DE001291CD1B17C2878B074002903D1AD
:1051F000012801D107F046FCB07C02F0E2F81EE085
:1052000001290DD1287803280AD8307417E0012924
:1052100006D12878307512E00120BDE7012901D0C0
:1052200018240CE02878B07509E0192F00D367E73F
:105230000229FCD12988384600F0C6FF04462046E2
:1052400009B0F0BD3F420F0098090020F430002063
:105250001A040000FEB50646002001900290304678
:105260000BF0B0FC040017D0144FB879022813D00B
:10527000607901AAA11DFFF7C7FD0546387E85426A
:105280000BD2284607F0DEFB0246012000900823DF
:105290002946304607F094FAFEBDB879002807D0B9
:1052A0000128F9D161790022304607F0C3F9FEBD2B
:1052B0000521304600F0CAFFFEBD0000980900201D
:1052C000F7B516491525164E174688420FD100240A
:1052D00009E03A462046019907F020FC002800D05A
:1052E0000025641CE4B2307E8442F2D313E00BF05C
:1052F00069FC00280ED04379811D00221846FFF773
:1053000083FD317E884206D23A46019907F006FCB9
:10531000002500E014252846FEBD0000FFFF000028
:105320009809002070B50C460146032000020A1AB5
:1053300000252548130006F027FB130B0D10171A44
:105340001E2125292B2D3133393B3D3D35373D007D
:10535000407811E010221D4902E01C491022103152
:1053600020460FF0FDFF2DE0406920602AE016493D
:1053700006221E31F4E7C078207023E012498278BB
:105380002431EDE7114902791F39E9E7407AF3E763
:10539000807AF1E70C4906221831E1E7C07AEBE7A1
:1053A000007BE9E7C0890AE0008A08E0007AE3E7C9
:1053B0004079E1E7192904D2084600F0A7FC2080D3
:1053C00000E00225284670BDEC0900205331002082
:1053D000F8B5164CFF202070002565700320A070E2
:1053E0000126E670062765611920E781C001208249
:1053F00020461F222946243010F0A8F8204602211A
:10540000243001704670877025711F2200210848E2
:1054100010F09CF8204606220021183010F096F873
:105420006571A571FF20E071F8BD0000EC09002056
:1054300034310020FFB583B01C4615460E460C9F44
:1054400003980BF0BFFB002817D0C189B14207D3E6
:10545000A94205D8018AA14202D1408AB8420ED0A1
:105460006846068045808480C78069460D9A039807
:1054700002F0C2FA002007B0F0BD1420FBE71820AC
:10548000F9E7000010B52548007F800744D0244C80
:105490002078FF2840D1234806F0C4F82070FF2868
:1054A0003AD0214900240C602049214A0C70042183
:1054B000117000F031FE102200211E4810F046F855
:1054C000102200211C4810F041F81C481E490460BD
:1054D0001B48184A04701B480470072008701B48BA
:1054E00010210470022010F06FF9134A10210320DC
:1054F00010F06AF910220F4915480FF031FF1448D7
:1055000010220D4910300FF02BFF04210B4A0846E2
:1055100010F05AF9002010BD182010BD682F00208F
:10552000EC090020B5550000E8090020F40900202E
:10553000ED0900205331002063310020000A0020D3
:10554000F5090020F6090020F7090020F8090020DD
:105550001431002010B504F033FC104806F062F856
:1055600002F08AFA0E4806F05DF800F0DBFB0D4809
:1055700006F058F801F0D2FA0B4806F053F805F09F
:10558000DBFD0A4806F04EF8FFF772F9084806F00E
:1055900049F800F00DFFFFF775FF10BDBD7B00005F
:1055A00035600000296C000049B200005D4B00002E
:1055B00031650000FEB54A4C0D46080448D52078F8
:1055C00010F008F8040040D046480078002808D0C1
:1055D0002078454ED02808D0A22802D0912821D08A
:1055E00014E0204608F078FC2CE0A07800280DD0CC
:1055F000052807D0082809D006280BD00728F0D1A5
:10560000A0881BE0608919E0007B04E0204608F0D8
:1056100063FC02E0E0790828E3D12146307810F0FD
:1056200011F812E060780E28F0D1A0882F49884246
:10563000ECD1A06881784278080210430BF0C2FADE
:105640000028E1D120460FF09DFF0120C00345E076
:1056500068040BD50421264A084610F0F9F82548BD
:10566000007810F091F80120800337E0E80736D089
:1056700021480078002830D00BF0DAFB1F49097F61
:105680008907890F884203D30320694608700CE01C
:105690001B486946007808701A480622007848704E
:1056A00000A8194902300FF05BFE184869460078DF
:1056B0000872174800784872207800F04FFB0028E5
:1056C0000BD014490620087013490968002904D03A
:1056D0000A68002A01D00021904701206840FEBDE1
:1056E000EC090020F2090020F30900200514000055
:1056F000000A0020AC090020EF090020682F0020DC
:10570000F5090020F6090020040A0020F70900200E
:10571000F8090020F4090020E80900207CB51446AF
:105720000D4601F0FBFA002D02D02846FFF706FADD
:105730000C480078002801D011207CBD002C01D03D
:10574000094804600A48009008490B480191027812
:105750000A48084B01780A48007800F059FA0020FE
:105760007CBD0000F4090020E8090020000A0020A8
:105770006331002053310020F1090020ED090020A1
:10578000EC090020F8B50C465E491646421819216E
:105790000025C9015C4F130006F0F6F8120A101735
:1057A000A81C3E526970778188A8A3A8A88F98A8E2
:1057B000102C73D11022314654486CE0102C6DD15E
:1057C000524810223146103065E0042C66D1306812
:1057D000786190E0012C61D1F97830784A4AF8700C
:1057E000127800290AD0002807D1387A022801D07F
:1057F000052802D1104600F05FFA7CE000287AD03C
:10580000387A012803D0032801D0042873D101215C
:1058100010460FF069FF6EE01F2C60D83A481F2237
:10582000002124300FF092FE3748224631462430C2
:105830000FF096FD344BBC7024332246012112E058
:105840001F2C4CD831481F2200211F380FF07EFE3C
:105850002E48224631461F380FF082FD2B4B3C71FB
:105860001F3B22460021387800F044FD48E0012C1F
:1058700035D13078042832D878723CE0012C2ED112
:10588000307803282BD8B87235E0062C27D11E4873
:105890000622314618300FF063FD2CE01FE0012C8A
:1058A0001DD1307807281AD8F87224E0012C16D1BF
:1058B0003078032813D838731DE03088022C0ED1BD
:1058C00006280CD388420AD8F88114E03088022CCC
:1058D00005D1062803D3884201D838820BE0182569
:1058E00009E0012CFBD13078787104E0192801D24D
:1058F000022C02D002252846F8BD318800F064FC55
:105900000546F8E7FFFCFFFFEC09002053310020BB
:1059100010B504460BF056F9002805D00078132284
:10592000214600F0A3FC10BD122010BDF8B50E46B4
:10593000070048D038880BF045F9050041D0234ACC
:10594000A96BD078022806D0012804D0287B08282B
:1059500003D1002E01D0122436E0002901D01124F9
:1059600032E01B492C200FF017FD0446A8632000ED
:1059700025D02C2200210FF0E9FD388860801C2200
:10598000391D201D0FF0ECFC022020700F483A88D2
:105990000178287B082810D00020231D05F001FD88
:1059A0000446002E03D0314628460EF0DBFA002CC8
:1059B0000AD0284607F01AFB06E00120EDE7132481
:1059C00002E0142400E002242046F8BD560A00201C
:1059D00014470000FFB51F4881B0C0781E46174627
:1059E0000D46022818D0012816D0002F30D001987B
:1059F0000BF0E8F8040029D0E06A002801D00FF08D
:105A00001FFD1C2138460FF0B7FCE062011E1BD0C1
:105A1000207B082803D00DE0122005B0F0BD002E39
:105A200008D0887E00900B4612330A8A01980EF047
:105A3000E1FD00E000202179002D01D0062200E0E8
:105A4000042211432171E8E71320E6E71420E4E77C
:105A50000220E2E7560A002010B50548C07800078A
:105A600001D5044800E0002008F03EF910BD000018
:105A7000560A0020740A002070B51A4C0546012110
:105A8000207807F0D9FA1848C1780A20014223D0BB
:105A90002570164808F022F9606800281AD120788D
:105AA00000281DD0000107210FF076FC606000285F
:105AB00010D021780A0100210FF048FD0020FF21BD
:105AC000626803E00301401CD154C0B223789842BD
:105AD000F8D305E0132070BD0020207008F0FEF818
