:020000040000FA
:1000000000800020510A0000014000205B0A00002F
:1000100000000000000000000000000000000000E0
:100020000000000000000000000000005B0A00006B
:1000300000000000000000005D0A00005F0A0000F0
:10004000610A0000610A0000610A0000610A000004
:10005000610A000005170000610A0000610A000043
:10006000610A0000610A0000610A0000610A0000E4
:10007000AD170000610A0000610A0000610A00007B
:10008000610A0000610A0000610A0000610A0000C4
:100090000348854601F062FC00480047C1050000A6
:1000A000008000207FB5EB4E0C463078090408D55F
:1000B00013F0B2FB002801D013F086FB0120C0032F
:1000C0004DE0E10707D0E34A5C321146443903F0C2
:1000D000A1FC012043E0E04DA10725D519229201A2
:1000E000022113F075FDDDA000680390012268462F
:1000F000C2800020009003AE288800231B2105F059
:1001000079F802906846C2883146029813F04AFA9C
:10011000288801A900F0F7FB002803D01B2101A8C3
:1001200005F0AEF802201AE0CB4A210715880AD55F
:1001300064210A460091019000231421284603F00F
:10014000F5FA08200BE060070CD5284603F096FC72
:100150001922D2010421307813F03AFD04206040C6
:1001600004B070BD0020FBE770B586B0BC4809F054
:100170007BFBB84E012530706846057014218180E4
:10018000642101816A462946B64803F07BFCB548E4
:10019000324628321C21801C03F074FCB1483246E0
:1001A00008320721401C03F06DFCAE4801AA022171
:1001B0000C3003F067FCAB4802AA02210D3003F0BB
:1001C00061FC324644321521002005F00BF9502421
:1001D0002146032004F00AF92146042004F006F920
:1001E00000246846009405710572057304746A461C
:1001F00004219D4803F01AF8012101AA880203F0A6
:1002000015F8994802AA0121801F03F00FF89648BB
:1002100004AA0121401F03F009F8934803AA012111
:10022000801E03F003F8651E284605F031F82846C5
:1002300004F0BAF900F0F4F9284600F0EDFA8BA0CA
:10024000006802908AA0006803908AA00068049069
:1002500089A00068059089A003C80191009002AAB6
:100260000121002000F0F7FA012103AA084600F05E
:10027000F2FA04AA0121022000F0EDFA05AA0121F8
:10028000032000F0E8FA6A460521042000F0E3FAB2
:100290007148A11E018044808480C4801C3800F015
:1002A000D1FA3046103003F0B3F90121307813F061
:1002B0003DFB06B070BD38B5818867480288914221
:1002C00018D10121C9430180002141808180C18072
:1002D000604C0221207813F0D9FC0421207813F01F
:1002E000D5FC01206946087001466A465D4803F066
:1002F000C9FB38BD63A009F041FC38BD10B502460A
:10030000494262A009F03AFC10BD70B514460A4695
:1003100051490D88854207D14A808C80CB800146A7
:1003200060A009F02BFC70BD56A009F027FC70BD41
:1003300010B50C46030009F049FC072705071D13FB
:100340001B3327005DA02CE0A078062806D10846C4
:10035000FFF7B1FFA1795DA009F010FC62A020E0D9
:10036000A078052802D1084600F045F862A018E000
:1003700065A016E0A178042910D0062905D005292A
:1003800009D068A009F0FAFB10BD2046FFF793FFE3
:10039000A1794EA0F6E76078002801D064A000E0C3
:1003A0006AA009F0EBFB10BD38B51446002808D050
:1003B000022805D1684613F0F5F867A009F0DEFBC6
:1003C00038BD684613F0EEF86AA009F0D7FB012C9F
:1003D000F6D103218C04204600F0B7FE6846007871
:1003E0006B49002803D0C8682043C86038BD8868BE
:1003F0002043886038BD70B5174904460A88654BAC
:1004000040899A4205D003F003FC63A009F0B6FBD3
:1004100070BD0880E0894880208A8880608AC88012
:100420000C4D192292010221287813F0D1FB1922D8
:1004300012020821287813F0CBFB1922D2010421E3
:10044000287813F0C5FBE289618958A009F096FB72
:1004500070BD0000204200204042002088000000C3
:10046000A5000000050300000704000001000000D3
:100470000200000003000000040000000102030469
:10048000050000004552522E2E0A000052535349D7
:10049000202D256420644220436F6E6E2020257835
:1004A000200A0000557064617465202578202D2095
:1004B000496E74202578200A00000000496E697496
:1004C00069616C697A65642E2E0A00004469736361
:1004D0006F6E6E65637465642E2E20526561736F56
:1004E0006E3A25780A00000041647665727469737B
:1004F000696E672E2E0A0000436F6E6E6563746529
:10050000642E2E0A00000000436F6E6E65637465F2
:1005100064204164766572746973696E672E2E0A71
:10052000000000004572726F722E2E25780A0000BE
:1005300057616974696E6720666F722061647665C1
:1005400072746973696E672E2E0A00004572726FAD
:10055000722E2E0A0000000070726F66696C6520B2
:100560004368616E676543422043484152332E2EF3
:100570000A00000070726F66696C65204368616EE6
:10058000676543422043484152312E2E200A000025
:10059000C0100040FEFF0000436F6E6E656374691B
:1005A0006F6E206D61782E2E2E0A0000436F6E6EE6
:1005B000202578202D20496E74202578200A0000FF
:1005C000022000F066FA1021012000F05FFE0121F8
:1005D000881E00F095FD01210D4800F0B6FD0D4983
:1005E0008A6A481502438A62032100F089FD00F0FF
:1005F0008EFF094909A009F0C1FA00F0EEFF01F0F1
:1006000071F803F023F9FFF7AFFD09F04BF9FCE7B0
:10061000FFF3FFFF80100040E43D010025730A0056
:1006200010B56E4B102213216D4804F0D9F910BD9E
:1006300010B500241346002802D00224204610BD25
:1006400067480A461946093812F0ACFFF6E770B55C
:100650000D460024030009F0B9FA09060A1014181F
:100660001C2024282C005E490822093901E05D493C
:100670000D22284612F096FF1CE05A490E220D3139
:10068000F7E7584912221B31F3E7564912222D3160
:10069000EFE7544912223F31EBE752491222513120
:1006A000E7E750490E226331E3E74D49072210394D
:1006B000DFE70224204670BDF8B5496894464A78C1
:1006C000097817020F430698474A11210025079C15
:1006D000BE1A091A974244D009DC444ABA1813D00A
:1006E000012A1DD0022A26D0032A08D12FE0012E8C
:1006F00041D0022E49D0032E51D0292E5BD00020AC
:1007000018800A252846F8BD082856D20821091A5B
:10071000A14200D80C463249A2B21A80093957E0EA
:100720000C284AD20C21091AA14200D80C46A2B2C8
:100730001A802C494CE00D283FD20D21091AA14204
:1007400000D80C462749A2B21A800D3140E011288A
:1007500033D2A14200D80C462249A2B21A801B31E2
:1007600036E0112829D2A14200D80C461D49A2B278
:100770001A802D312CE011281FD2A14200D80C463E
:100780001849A2B21A803F3122E0112815D2A142A5
:1007900000D80C461349A2B21A80513118E00E2835
:1007A0000BD20E21091AA14200D80C460D49A2B263
:1007B0001A8063310CE0072801D30725A2E707213F
:1007C000091AA14200D80C460549A2B21A80103974
:1007D0000918604612F0E6FE94E70000CC430020C2
:1007E0009C4200205C3D0100272A0000DDD5FFFF70
:1007F00010B504468E4884420DD0012907D0022945
:1008000009D1012120460EF085FC002803D1894939
:10081000204603F013FF10BD70B505468448002440
:100820008449401C03F00AFF83480EF03FFCE807B0
:1008300006D0824B10221121814804F0D1F80446E1
:10084000204670BD002804D07D4910394860002042
:1008500070471120704770B515460024030009F059
:10086000B5F905040B1219202B0001291BD174487E
:100870000122294610381CE0012914D170480122B8
:1008800029460F3815E001290DD16D48012229466E
:100890000E380EE0012906D16948012229460D389B
:1008A00007E0052901D0182407E0654805222946FC
:1008B000083812F077FE00E00224204670BD70B5C3
:1008C0000D460024030009F081F90504080F1317F1
:1008D0001B005B490122103902E0594901220F39FE
:1008E000284612F05FFE0CE0554901220E39F7E769
:1008F000534901220D39F3E7514905220839EFE741
:100900000224204670BD70B50C460546494904F0E6
:1009100059F8C00709D04A4800228030408F208013
:100920002146284604F04AFA70BD122070BDF8B581
:1009300015460A7A00240698D20601D50820F8BD8B
:10094000002801D00B20F8BD08780026022803D02B
:100950001E8001242046F8BD4868427807781002BE
:10096000384A384380180122002808D0012806D0D0
:10097000032804D0042806D01E800A24EAE71A803F
:10098000C968012203E005201880C968024628468C
:1009900012F008FEDEE7FEB51D4616460B7A00246F
:1009A000089A9B0601D50820FEBD0B78022B01D0CA
:1009B000012432E04B685F781B783F021F43224BD3
:1009C000FB182CD02148181803D002280CD00A2478
:1009D00023E0002A0AD1012D0CD8C8680122314633
:1009E00012F0E0FD00200DE0002A01D00B2414E0FD
:1009F000012D01D90D2410E0C8680122314612F002
:100A0000D1FD02200E4910394968002905D00B6834
:100A1000002B02D02A46314698472046FEBD0123CE
:100A2000019300922B46324603F06EFE0446F4E733
:100A3000FEFF00003C680020F10700000045002098
:100A4000F04300201F00FFFFFED6FFFF2129FFFF1C
:100A50000448804704480047FEE7FEE7FEE7FEE75C
:100A6000FEE700006D0A00009100000010B5FF488D
:100A700057210170A8210170FC4A8821403A118158
:100A8000002101700A2000F005FD012000F04FFC5C
:100A900010BDF0B5F54EF54D04275722A824203E91
:100AA000403DF249030009F091F80D080E161B1F96
:100AB00024282C32373C41462F000A700C70F07B02
:100AC000FB22104003E00A700C70F07B3843F07397
:100AD000C820288118E00A700C705120C000F8E787
:100AE0000A700C70E248F4E70A700C7081208000F4
:100AF000EFE70A700C708820EBE70A700C70022098
:100B0000E7E70A700C702F8100200870F0BD0A70B2
:100B10000C7093208000DCE70A700C70D4484D30D4
:100B2000D7E70A700C7095208000D2E70A700C702D
:100B30004B20C000CDE70A700C70CD485C30C8E790
:100B4000CA4810B540380089C1B20B069A0FC9488F
:100B5000022A05D0012A04D09A0F06D07D20000277
:100B600010BDC906C90EC44801E0C906C90E00F08F
:100B70003BFE10BDBD4A57211170A8211170BB4921
:100B800040394B150028088904D0184308810020FB
:100B9000107070479843F9E7B44A57211170A821A3
:100BA0001170B24920390028C87B05D004231843AE
:100BB000C873002010707047FB231840F8E7AB495A
:100BC0008A7B800792089200800F024357200870AA
:100BD000A82008708A73002008707047A3498A7B98
:100BE0008F231A400001024357200870A820087084
:100BF0008A730020087070479C4A203A917B8007D6
:100C000089088900800F0143984857230370A8235F
:100C100003709173002101707047944A203A917BD0
:100C20000907090F00010143904857230370A823C7
:100C300003709173002101707047FEB58B48002747
:100C400040380089C0B20206910F02294DD07D259F
:100C5000ED016E0001294CD0910F59D005250020DF
:100C600000902805000D01908048203884890026D6
:100C70007E49572330460B70A8250D7001228A74D7
:100C80007A4957220A70A8220A70784A203A948139
:100C900000220A708A7C9207FCD50A8A8A7C920715
:100CA000FCD48A7C9207FCD5098A019A7F1C891A98
:100CB0000DB2FFB2002D3DD02946714305D5012864
:100CC0003AD0411C38D0002836D02E460294304607
:100CD000009900F09FFD00B2211A8CB202998C425B
:100CE0004FD1002D4BDD641C4AE00220634DC04310
:100CF000B6E7C406E40E2146614800F075FD4019D0
:100D0000314600F071FD05462320C043001B0CE076
:100D1000C406E40E21465B4800F066FD40193146EA
:100D200000F062FD0546A01C4042214600F072FD25
:100D300000B295E70020FEBD002E03DA761EF043D8
:100D400006B202E06D1EE84305B2B5420FDD47482A
:100D500057210170A8210170444A0299203A9181DB
:100D6000002101707D20C0007043019903E07D20C7
:100D7000C0006843114600F04DFD80B2FEBD641E08
:100D8000A4B2142F00D27BE7FF20FEBDFFB581B0D7
:100D90000C460746054600261AE0FF219131681EE1
:100DA00000F038FD00290AD06421681E00F032FDF1
:100DB000002907D00320A9078007C14202D1FF20E4
:100DC0006F3001E0FF206E3080196D1E86B2ADB22B
:100DD0002D488542E1D80025012C25D9032C05D0CA
:100DE000A01E062816DDE00718D115E0FF2191317D
:100DF000384600F0F9FC00290AD06421384600F09A
:100E0000F3FC002901D0B80702D000201C3006E016
:100E10000120FBE7E00701D01F2000E01E20801921
:100E2000641E86B2A4B2D7E7039818213018401E7A
:100E300084B2049800F0D8FCE120C00041430A9835
:100E40001E22504309180B984008081881B20B98CD
:100E5000C00701D00120C0030A0402430349572000
:100E60000870A8200870014E403E0FE0401000407E
:100E7000020200000048E80100389C1C88130000B2
:100E800000180D8F00688909E40700007463994811
:100E9000437C8024234343747263427C40231A437F
:100EA00042740D7005B0F0BDFFB50746914883B0A0
:100EB0002038C06B0E4684048E48A40C418B008BF6
:100EC00001224900D203904201D3012000E000201A
:100ED000081800908848388010E00199002925D032
:100EE0006421284600F080FC002901D0A8071DD00D
:100EF000FF206E30201A6D1C84B23D803D88FF219A
:100F00009131284600F070FC0191002911D0642134
:100F1000284600F069FC002901D0A80709D0FF206D
:100F20006E30A042D9D90020308049E0FF206F30D8
:100F3000E0E7FF206F30F4E73588012D04D0062D5F
:100F400018D9E8071AD117E03888FF2191310190AC
:100F500000F04AFC00290BD06421019800F044FC09
:100F6000002902D00198800702D000201C3006E042
:100F70000120FBE7E80701D01F2000E01E20201A17
:100F800084B26D1CA8B23080012804D0062817D97D
:100F9000C0071AD117E03888FF210546913100F0CB
:100FA00023FC00290AD06421284600F01DFC0029FA
:100FB00001D0A80702D000201C3007E00120FBE789
:100FC0003078C00701D01F2000E01E20A042B3D916
:100FD0003088641C401C30800598E12104800901A0
:100FE000009800F001FC069A108008463C2100F0B1
:100FF000FBFB0C9908803C21009800F0F5FB0D9854
:10100000018007B0F0BD3B49572220310A70A82269
:101010000A70384A203A50633648427C40231A43CB
:10102000427400200870704732492039886B8A6BFF
:101030008242FBD170472F4A10B5572120321170E0
:10104000A82111702B494B7CE82423404B744B7C26
:101050001024204303434B740020107010BD00B5D2
:101060000346FFF7E1FF2549C018884201D94942EC
:1010700040180104090C02D00121090440181D493F
:10108000572220310A70A8220A701A4A203A506367
:101090001848427C20231A4342740020087000BD87
:1010A0000021002802D0012802D002E0202100E027
:1010B00010211048572220300270A82202700D4AD9
:1010C000537C8B43537400210170704709490028F9
:1010D000087C02D0402108407047C009C001704719
:1010E0000449002804D0012801D110200874704759
:1010F0002020FBE720100040E40700000000C0A80B
:1011000000B5524A0B0008F061FD050407101619DE
:101110001F00516B81430AE0516B81435163116B96
:1011200001431163116A81430DE0516B0143516327
:10113000116B8143F5E7516B814301E0516B014332
:101140005163116A0143116200BD404A00B540324B
:101150000B0008F03BFD0504071016191F0051692C
:1011600081430AE051698143516111690143116171
:10117000116881430DE05169014351611169814357
:10118000F5E75169814301E05169014351611168FB
:101190000143116000BD2D4A002906D0012907D066
:1011A000022908D0032913D10CE0918A814304E07D
:1011B000918A814308E0918A01439182D16A014377
:1011C000D16205E0918A01439182916A0143916263
:1011D0009083118A0143118270471C4B1B4A403394
:1011E000002906D0012907D0022908D0032913D1EC
:1011F0000CE0D18A814304E0D18A814308E0D18A9E
:101200000143D182D9680143D96005E0D18A014305
:10121000D182996801439960D083518A01435182F8
:1012200070470A4A803A0028108B01D0084300E03A
:10123000884310837047054A803A0028508B01D0BC
:10124000084300E08843508370470000801000404E
:10125000F8B5624D5726614CA827203D002826701E
:10126000277028880ED02115084328800A2000F016
:1012700011F92670277028886115084328800020FE
:101280002070F8BD032149028843F7E7F0B5534CBD
:1012900057261C228B07514DA8270A409B0F403C24
:1012A00000282E702F7010D0080603D5E07BFD219A
:1012B0000840E073A07A1043A07248482038C17BF0
:1012C0001943C17300202870F0BD080603D5E07BE8
:1012D00002210843E073A07A9043A0723F4820386F
:1012E000C17B9943EDE730B53C4C57233B4AA825D9
:1012F000403C002813701570E06804D08843E0601B
:101300000020107030BD0843F9E730B5334C572347
:10131000324AA825403C002813701570A07B04D0E9
:101320000843A0730020107030BD8843F9E7F8B57A
:101330002A4D5726294C0021A827203D0028267039
:1013400027700ED0012068712871002020700120C4
:1013500000F0A0F8267027700D2028710020207062
:10136000F8BD29712170F8BD1D480169042291431F
:10137000016130BF7047194B57241C70A8251D70A0
:1013800016494039887B0822104388730920134E80
:101390000003203E308000271F70886B8A6B8242DA
:1013A000FBD1104A0A30904201D9524280180204FF
:1013B000120C02D0012212048018302232741C70E8
:1013C0001D7048632F2070741F701C701D700520E5
:1013D00008811F7040BF20BF20BFFEE740100040C3
:1013E00000ED00E00000C0A83C49062805D049797E
:1013F00001228240114008467047087808210840C1
:101400007047364857210170A82101708179012267
:1014100011438171002101707047314909680160F1
:1014200000202F49C0438031086070472C49086074
:1014300070472C4880697047284957220A70A822B3
:101440000A700028887905D0042210438871002092
:1014500008707047FB221040F8E7204957220A70B5
:10146000A8220A700028887905D0022210438871CA
:10147000002008707047FD221040F8E717485721F8
:101480000170A8210170817910221143817100211E
:101490000170704700220AE0022101E000BF00BF96
:1014A0000B46491E89B2002BF8D1521C92B28242DF
:1014B000F2D3704770B500247D260546F60004E09F
:1014C0003046FFF7E7FF641CA4B2AC42F8D370BD0E
:1014D0000549CA7A082AFCD00872704740100040BB
:1014E00000E100E000E000E00034004010B50446F8
:1014F000FFF726FB0A214843C008214600F074F993
:101500000A21401D00F070F92249888110BD10B5F4
:10151000E1204002FFF7EAFF1E4887218170032186
:10152000C170402141700121817310BD19498A7831
:101530009206920E800102438A707047154A002875
:10154000507806D008435070107808210843107076
:1015500070478843507070470E498020487070472C
:101560000C4A07E0D37A082B04D003781372491E83
:1015700089B2401C0029F5D1704701460020054A78
:1015800004E0137A401C0B7080B2491C937A002B44
:10159000F7D170470034004010B5FFF74EFB02282A
:1015A00001D9FFF74AFB10BD30B55849CC7E0B7E00
:1015B0004A7EC87E80252843C8760F2008762120E1
:1015C0004876887E012528438876887EC007FCD12E
:1015D000888BCC760B764A7630BD30B58DB0122232
:1015E0004BA1504811F0D0FF002844D04748572164
:1015F0000170A82101705121444AC900403A11816B
:10160000002101704948484A4261494A0724D36988
:101610001B021B0A45042B43D361816104610169EC
:1016200002229143016134220021684612F0B0F891
:1016300040480090012040036A4690801B20D073F0
:10164000052010740120507414219174FB2189022B
:10165000029110750D2010773748089037480A908E
:1016600037480B90104601F0E9F8010007D035A08B
:1016700008F084FAFEE73BA008F080FAFEE70DB020
:1016800030BD70B50C4609040AD512F0C5F8002823
:1016900001D012F099F801212046C903484070BDDD
:1016A000E00702D00120604070BD334DA00407D593
:1016B00001F040F9FFF770FF0126304A760308E099
:1016C00060040DD52EA008F059FA7D22D201012622
:1016D000B6033146287812F07BFA2046704070BD80
:1016E000002070BD10B5274808F0BEF8224C2070CD
:1016F00000F064F862B6214A01214903207812F013
:1017000067FA10BD10B500F0DDFF10BD40100040BD
:1017100043483537785F424C455F4C49425F56310C
:101720002E370000E43D0100FEFFFF0000E000E076
:1017300004ED00E03C48002033140000A91500002F
:10174000991500004C494220696E697420657272D7
:101750006F7220636F64653A202578202E2E2E0A42
:1017600000000000686561642066696C6520657230
:10177000726F722E2E2E0A006B45002000EE0200C2
:101780002A200000831600000104090C02D0012168
:1017900009044018114957220A70A8220A700F49FB
:1017A000403948630E490020086070470B493020DB
:1017B000203908740A490120086070471CB5FFF7FA
:1017C0003CFA002000900346012201901146054892
:1017D000FFF7DCFA002008F07BF91CBD4010004048
:1017E0006C450020E407000030B50B4601460020A0
:1017F0002022012409E00D46D5409D4205D31D4617
:101800009540491B2546954040191546521E002D0E
:10181000F1DC30BD70B500242546002801DA012432
:101820004042002901DA01254942FFF7DDFFAC42C1
:1018300000D04042002C00D0494270BDF0B51FB42A
:1018400086B000200090019002900698069980B220
:1018500004900798090C0204001411430790002714
:10186000089D099806913E463C4603900398A9B20C
:101870000204000C039004982D0C154348430021EA
:10188000224600F018F8C719714110340E46402C5A
:10189000ECDB3846029A00F00EF8009A019B8018A3
:1018A0000090594102980191103002904028CCDB01
:1018B00000980BB0F0BD10B5202A04DB0146203A99
:1018C0009140002010BD914020239C1A0346E34024
:1018D0001943904010BD03460B439B0703D009E01A
:1018E00008C9121F08C0042AFAD203E00B7803705B
:1018F000401C491C521EF9D27047F0B51FB4064671
:10190000002082B005464024019100901BE001991F
:1019100022460F46304600F033F8049A059B801AA1
:10192000994110D3104619462246FFF7C4FF361AD4
:101930008F410197224601200021009FFFF7BBFF46
:1019400038184D4100902046641E0028DFDC019BC2
:1019500000982946324607B0F0BD0000064C01252C
:10196000064E05E0E36807CC2B430C3C9847103447
:10197000B442F7D3FEF790FBDC3E01000C3F0100C0
:1019800010B5202A04DB0846203AD040002110BDC3
:101990000B46D340D0402024A21A91400843194658
:1019A00010BD70B58C180578401C6B075B0F01D11A
:1019B0000378401C2A1106D10278401C03E0067807
:1019C0000E70401C491C5B1EF9D12B0705D4002367
:1019D000521E0DD40B70491CFAE70378401CCB1A39
:1019E000921C03E01D780D70491C5B1C521EF9D53A
:1019F000A142D8D3002070BD10B5124C2068C0059C
:101A00001FD50320206000200821401C2268C0B29E
:101A10000A4322600EE02268920510D4222807D9DA
:101A20000948026B002A0AD001210320904706E0F2
:101A3000401CC0B22268D205EDD50028E5D10020B7
:101A4000206010BD80C300406868002070B5144657
:101A50000D460646FFF7D0FF2D4803681968062299
:101A600091431960316899627168D962B1681963EC
:101A7000F1685963296899616968D961A96819622F
:101A8000E968596259680222914359605D680121F1
:101A90000D435D601D680D431D6000E000BF596887
:101AA0008907FBD55968914359609969217001688C
:101AB0008969090A617001688969090CA170016866
:101AC0008969090EE1700068C1692171C169090A5B
:101AD0006171C169090CA171C169090EE171016AE5
:101AE0002172016A090A6172016A090CA172016A14
:101AF000090EE172416A2173416A090A6173416A00
:101B0000090CA173406A000EE073002070BD000054
:101B1000A447002070B50C460546FFF76DFF284826
:101B20000268106820218843E907890E0843106085
:101B30008034E06C1061206D5061E0699061206A32
:101B4000D061606A1062A06A5062E06A9062206BA5
:101B5000D062606B1063A06B5063E06B9060206C90
:101B6000D060D168236C1748994204D0026B002AD8
:101B70001ED0202107E0916AE36A994206D0026BE9
:101B8000002A15D021210320904711E0D169236A52
:101B9000994204D0026B002A0AD02221F3E711698E
:101BA000E36C994206D0026B002A01D02321EAE7B8
:101BB000012070BD1068402108431060002070BDF6
:101BC000A44700206868002070B50C460546FFF762
:101BD00013FF28480268106820218843E907890E0E
:101BE000084310608034606C1061A06C5061E06943
:101BF0009061206AD061606A1062A06A5062E06AF7
:101C00009062206BD062606B1063A06B5063E06BDE
:101C10009060206CD060D168236C1748994204D042
:101C2000026B002A1ED0102107E0916AE36A9942F4
:101C300006D0026B002A15D011210320904711E035
:101C4000D169236A994204D0026B002A0AD012217A
:101C5000F3E71169636C994206D0026B002A01D048
:101C60001321EAE7012070BD10684021084310608D
:101C7000002070BDA44700206868002010B504F063
:101C800061FE024903F023FC002010BD06040000A1
:101C90000148006E70470000C06A002008B50028A7
:101CA00008D0002906D0002A04D01088002801D0CE
:101CB000002008BD1220694608706A4601210348C9
:101CC00003F001FC6946087808BD0000350C0000EF
:101CD00008B504F05BF9694608706A4601210348BB
:101CE00003F0F1FB6946087808BD000027200000DA
:101CF00008B504F095F9694608706A460121034861
:101D000003F0E1FB6946087808BD000011200000DF
:101D100008B504F0CDFA694608706A460121034807
:101D200003F0D1FB6946087808BD000029200000B7
:101D300008B504F0C3FA694608706A4601210348F1
:101D400003F0C1FB6946087808BD000010200000C0
:101D5000FEB508AF70CF6F4670C704F0D5FA0446E1
:101D6000024903F0B4FB2046FEBD00001320000032
:101D700008B504F0D7FD694608706A46012102489B
:101D800003F0A1FB002008BD0E20000038B504467A
:101D900005F053F8694608704C70200A88706A464E
:101DA0000321024803F08FFB002038BD1B200000F8
:101DB00038B5044605F059F8694608704C70200A99
:101DC00088706A460321024803F07DFB002038BD7D
:101DD0001A2000000EB500A8013005F09AFB6946F4
:101DE00008706A460921024803F06DFB00200EBD11
:101DF0001820000008B500A8013004F09FFF6946D4
:101E000008706A460421034803F05DFB69460878C0
:101E100008BD00000220000038B5044605F0E0FBD4
:101E2000694608704C70200A88706A46032102488F
:101E300003F049FB002038BD212000007FB5044697
:101E400008A861C8009002960195204605F0E0FBC5
:101E5000694608734C73200A887303AA0321034858
:101E600003F031FB002004B070BD00002020000012
:101E700008B505F0CBFE694608706A4601210348A3
:101E800003F021FB6946087808BD00002D20000002
:101E900008B505F059FF694608706A4601210348F4
:101EA00003F011FB6946087808BD00000820000017
:101EB00008B505F0D1FE694608706A46012103485D
:101EC00003F001FB6946087808BD00000A20000005
:101ED000F0B585B00AACF0CC03976F4670C705F03B
:101EE00053FF6946087404AA0121034803F0EBFA82
:101EF0006946087C05B0F0BD0620000008B505F075
:101F0000CDFF694608706A460121034803F0DBFAF9
:101F10006946087808BD00000520000008B505F0F6
:101F2000FBFF694608706A460121034803F0CBFABB
:101F30006946087808BD00002E20000008B506F0AC
:101F400001F8694608706A460121034803F0BBFAAC
:101F50006946087808BD00000C20000008B506F0AE
:101F600033F8694608706A460121034803F0ABFA6A
:101F70006946087808BD00000920000010B506F089
:101F80008AF8024903F0A3FA002010BD19200000CE
:101F900010B504F0AAFF10BD1CB500A8013005F073
:101FA000C7FA694608706A460721034803F08BFAAE
:101FB000694608781CBD00000910000038B500A96A
:101FC0000446033105F0C4FA694608704C70200AD3
:101FD00088706A460421034803F075FA6946087858
:101FE00038BD00000514000010B505F067FD10BDF8
:101FF0000A7802708A7842704A88120A82700979D7
:10200000C170042070470A7802700988090A41707B
:102010000220704708888004000C70478A7802709C
:1020200088780128088804D012214843401C80B2D7
:1020300070478000FAE70A7802700A88120A427034
:102040004888801C80B270470A7802700A88120A99
:1020500042708A7882704A88120AC2708888001D8D
:1020600080B27047088870478A780270088849886B
:102070004843401C80B270478A78027008884988BB
:102080004843401C80B270470888704708887047F2
:102090007FB515460446022901D0102903D1022B31
:1020A00004D0102B02D0002004B070BD994202D1A0
:1020B0000A46294607E01029694607D000F00EF8C5
:1020C00010226946284611F05FFAEDE7104600F04D
:1020D00005F8102269462046F5E7000070B50C4669
:1020E00005000CD0002C0AD010220649204611F021
:1020F00059FA2878207368786073012070BD002039
:1021000070BD00008C3E010008B500220B46009215
:102110000122024907F028FF08BD0000F11F00005E
:1021200008B50A88172A07D300220B46009203221B
:10213000024907F019FF08BD022008BD0720000072
:1021400008B500210B461922009107F00DFF08BDCC
:1021500038B5054608880C4600280DD06068002870
:102160000AD0012111F0CCF900902346072203493F
:10217000284607F0F9FE38BD022038BD15200000C2
:1021800038B5054688780C46012801D0022810D1C0
:10219000208800280DD0606800280AD0022111F0A4
:1021A000AFF90090234605220349284607F0DCFEDC
:1021B00038BD022038BD00001D200000064910B5C2
:1021C000884202D103F05CFD10BD0CF0F3FE002844
:1021D000FAD1172010BD0000FEFF000038B50546FB
:1021E0004A6800200C46002A03D00321104611F053
:1021F00087F9009023461D220249284607F070FE09
:1022000038BD00003720000038B505464A68002078
:102210000C46002A03D00321104611F071F90090FA
:1022200023461B220249284607F05AFE38BD00000B
:102230003720000002480021016041607047000023
:10224000C84700200098022B01D004207047517825
:102250001278090211430180002070470098012B79
:1022600001D004207047117801700020704770B5CC
:10227000049C1E461546062B1BD36878297800025D
:1022800008432080E878A978000208436080022093
:1022900020710246291D601D11F084F9B01F2081B4
:1022A000062E03D0AD1DE560002070BD0020E0606B
:1022B000FAE7042070BD0098042B01D00420704779
:1022C00051781378090219430180D1789278090274
:1022D0001143418000207047F8B584890D46002CD9
:1022E0002BD086683778390601D4002010E00D2CF9
:1022F00023D30C3CA4B231190091408823463246C6
:10230000012107F0BBF9002801D0022000E00120E4
:1023100079062870C90FBA066970920EAA70641EF9
:102320002204120CAA8002D0761CAE6001E00022CA
:10233000AA60022803D1002901D00120F8BD0020A5
:10234000F8BD10B50298042B14D351781478090203
:1023500021430180D1789478090221434180191FDB
:102360008180042B02D0121D826001E00021816077
:10237000002010BD042010BD0098042B01D00420C3
:10238000704751781378090219430180D178927807
:102390000902114341800020704710B50298114690
:1023A000062B03D0142B03D0042010BD022200E022
:1023B000102202714A780B7812021A430280CA78FE
:1023C0008B7812021A4342800279401D091D11F0D8
:1023D000E9F8002010BD0098D90706D1022B04D0DF
:1023E00059088180026000207047042070470098DF
:1023F000022B01D004207047517812780902114352
:1024000001800020704710B5029C022B11D320726E
:10241000617250781178000208432080981E608015
:10242000022B02D0921C626001E00020606000205C
:1024300010BD042010BD000038B5054688680C4664
:10244000002802D0052111F05BF8009023461722E6
:102450000249284607F088FD38BD000049200000E9
:1024600038B5054648680C46002802D0012111F015
:1024700047F8009023460D220249284607F074FDD4
:1024800038BD00006520000038B5054608880C46B8
:1024900000280DD0606800280AD0022111F030F821
:1024A0000090234611220349284607F05DFD38BD00
:1024B000022038BD6920000038B5054608880C4662
:1024C00000280DD0606800280AD0022111F018F809
:1024D0000090234609220349284607F045FD38BDF0
:1024E000022038BD7920000038B5054648680C4602
:1024F00000280AD0012111F003F8009023460F2292
:102500000349284607F030FD38BD022038BD0000E1
:102510008920000038B505464A6800200C46002A8C
:1025200003D00121104610F0EBFF009023460B2250
:102530000249284607F018FD38BD00008D20000034
:102540000149086070470000C847002070B5054683
:1025500008480C46854205D0172C03D303F090FBA6
:10256000A04201D2012070BD214628460CF0E2FDB8
:1025700070BD0000FEFF000008B500210B461322CD
:10258000009107F0F1FC08BD0448034900680160B0
:102590000349C16270470000A5220801A847002036
:1025A000784E010010B5074C5D202168086505F0E4
:1025B000A3FF20680021016503484279521C427143
:1025C000C17110BD90450020BC68002070B52C4939
:1025D000002048602B4800892B4CC0B28109022999
:1025E00004D0012908D0810916D026E0D020A0808F
:1025F0000820E080E8201FE0C506ED0E2D202946CA
:102600008001FFF7F1F8A08029467820FFF7ECF869
:10261000E08029461D480DE0C506ED0E2946C02084
:10262000FFF7E2F8A08029460820FFF7DDF8E080F8
:102630002946E820FFF7D8F8208116491448086099
:102640001649154808601749154808601749164883
:10265000086018491648184C08601849206801227B
:10266000D2020861801848610120487100F062F9C7
:10267000607D002802D112492020086070BD000052
:1026800094450020001000409C680020980D000038
:1026900000C00040AC47002000C30040A447002019
:1026A00000C200409045002000D00040B04700200C
:1026B00000C10040A847002068680020BC680020D6
:1026C00000E100E0F8B55648006881680127C905B7
:1026D0000025544C544E00292EDA81683A02914369
:1026E0008160207840060CD55048514900688842E6
:1026F00006D15049886BE0608A6B9042FAD100E0C5
:1027000080472078384320706570E079062803D030
:1027100043495D2009680865306800280AD00169CE
:102720000A68406902430A6031680868026889687B
:102730000A4302606571A560394B18688168890594
:1027400021D581680122520291438160A0783843EB
:10275000A070E57038480068C16A89088900891C42
:10276000C1620168D20411430160306800280AD0B8
:1027700041680A68806802430A603168C868026874
:1027800049690A43026018688168890717D581681A
:10279000022291438160E770A5705D210165306878
:1027A00000280AD001690A68406902430A6031685A
:1027B0000868026889680A4302606571A560186844
:1027C0008168C90715D08168490849008160257072
:1027D0006770306800280AD041680A688068024340
:1027E0000A603168C868026849690A430260657115
:1027F000A56018688168C90603D5816810229143D5
:1028000081608168490703D5816804229143816012
:102810008168090703D58168082291438160F8BD6A
:1028200090450020BC680020984500208C45002081
:10283000F191000000100040A847002070B5044648
:102840000068002828D00121000C4903884223D1C8
:10285000A088002820D020460622FF21163010F044
:1028600084FE01281AD0A2880021206810F090FF71
:10287000342200212D4810F08BFF342221462B48B2
:1028800010F090FE2948062216300021054610F06F
:102890006CFE012804D008E0022070BD032070BD4A
:1028A00023490622284610F07DFE20488189002910
:1028B00002D1012149028181827B0121002A00D1BC
:1028C0008173C27B002A01D11B22C273027C002AC1
:1028D00001D105220274427C002A00D14174817C1E
:1028E000002901D114218174817F002901D128217F
:1028F0008177C17C002908D0827FE17C9208891809
:10290000C174617F002904D005E0817F89082D31E1
:10291000F6E702214177806A002803D08047034907
:102920003431488106F058FF002070BD68680020EF
:102930000806040010B500F065F803F009FB05F087
:1029400075FDFFF721FE0B4C5D202168086505F041
:1029500085FE06F043FC05F049FE05F0CDFD064876
:1029600001214171226800211165C171FFF744F80E
:1029700010BD000090450020BC68002070B50E4BD3
:1029800000209989002901D10C4999810E21012447
:10299000A4039A8915462540CD405204120C0543E4
:1029A000E8B25604D50BF60F75401543491EC9B25F
:1029B0009D810629EDD870BDC06A0020FF7F000010
:1029C00070B50E4B00205989002901D10C4959815D
:1029D00008214C015A8915462540CD400543520037
:1029E000E8B2550A56097540ED07ED0F1543491E2B
:1029F00009065D81090EEDD170BD0000C06A00209E
:102A0000FF0100000A48094900680A6902610A6971
:102A1000426149698161C1618268012149030A43B8
:102A20008260C2680A43C26070470000BC68002030
:102A3000AC47002030B5104A0346517AFD2084246B
:102A400054720E4CA568002D07D0A57B002D04D034
:102A5000A489E51FFF3DFA3D02D05172FF2030BD31
:102A60007D24E402A34205D35360A6201072907A1D
:102A700040235840517230BD001800406868002063
:102A8000F8B500240F4E274613E0F06B25012818F7
:102A90000622FF2110F07CFEF06B06222818FF2191
:102AA000801D10F075FEF06B28188781641C8773F9
:102AB000E4B2307E8442E8D3002010F049FF307E3B
:102AC0007076F8BDFC46002070B50C46014601202A
:102AD00080020A1A00252B48130007F077F820110E
:102AE0001316181A1D1F21232527292B3234364887
:102AF000393B3D3F43484848484848484846414894
:102B0000007800E04078207039E08078FBE7C078FA
:102B1000F9E710221C4910E00079F4E74079F2E768
:102B2000006A13E08079EEE7C079ECE7007AEAE723
:102B3000407AE8E7144910221031204610F032FDA7
:102B40001DE0807ADFE7C07ADDE7406A206016E0AA
:102B5000007BD8E7407BD6E7807BD4E7407CD2E798
:102B6000807CD0E707F076FFCDE7807DCBE71929A1
:102B700004D2084601F0DCF9208000E00225284656
:102B800070BD0000FC460020E869002010B5044636
:102B900000F0D4F80248C47508F096F810BD0000A3
:102BA000FC460020FFB58FB0064600200C900D902B
:102BB0001F460CAA304600F09DFA454D0446287E7B
:102BC00084425AD2204608F05FF80646042F04D00B
:102BD000A879022803D0002002E02878F9E7012034
:102BE00000903B4632462146119807F00BFF142215
:102BF000002101A810F0CCFD20460621484300909A
:102C00002430C0B201AA102110F000FF002813D117
:102C10001022FF2101A810F0A8FC00280CD1009878
:102C200005AA2530C0B2042110F0F0FEF107C90F4B
:102C300001AA119801F0F4FB7034E0B206AA182141
:102C400010F0E4FE002811D106A808F02FF80024A7
:102C5000A10006A808180188002903D082781198DD
:102C600001F01EFF641CE4B2062CF1D3B00706D5B8
:102C7000E97D119801F002FF01E0082F02D0042F36
:102C800013D021E0A87902281ED1002231461198E4
:102C900007F0F2FDA86A002816D04368002B13D075
:102CA00000221146119898470EE0287802280BD18F
:102CB00029791198002900D001216A78002A00D0D2
:102CC0000422114301F072FB002013B0F0BD00009C
:102CD000FC460020F8B501F0C1F900282BD1164DB3
:102CE0000026E87C012801D000241CE007F0FEFE4D
:102CF000EE7400202A7EE96B04E003015B18401C9F
:102D00009E73C0B29042F8D310E0E86B27013818E8
:102D1000807B012805D1204607F0FAFEE86B3818C1
:102D20008673641CE4B2287E8442EED3502010F0F7
:102D300031FE07F0C9FFF8BDFC460020F8B5354E5E
:102D4000FF20F07500273776334CF763A07B3021E6
:102D50004843422110F042FCF063002825D0204671
:102D6000807B410040183076002413E0F06B250191
:102D700028180622FF2110F00BFDF06B0622281800
:102D8000FF21801D10F004FDF06B28188781641C62
:102D90008773E4B2307E8442E8D31F4880680028FD
:102DA00001D0B77601E08020B076307E70760124C5
:102DB000776334707770B770F7701022002117486E
:102DC00010F0E6FC3771772575713762B471F771D1
:102DD00012483772777210220021103010F0D8FCA0
:102DE000B772F57277623773052070731020B07375
:102DF000F77302203074B762F76237637774F77441
:102E0000347504487475B475054948300160054946
:102E10004160F8BDFC46002068680020E869002099
:102E2000D9AF0000A1AF000010B506490C46483CE0
:102E3000A162E062E17D182001F0D8FAE07D01F0A6
:102E4000C9FD10BD4447002070B5264D0C4608044E
:102E50000FD5E87D10F0E0FC050006D007F0DAFFA2
:102E6000002802D0284610F0AFFC0120C0036040CB
:102E700070BDA0070BD50021084607F05FFC0221BA
:102E80004C40002825D1E87D10F050FD1FE0E00700
:102E900021D0686B808807F0EFFF01214C400028AB
:102EA00017D0A86A00280DD04368002B0AD0686BA1
:102EB000002280889847A96A686B00224B68808846
:102EC00003219847287D10F081FD07F029FC20465A
:102ED00070BD0121D7E7600702D50420484070BDCE
:102EE000002070BDFC4600207FB5044680787F4DF1
:102EF000801F030006F06AFE0AF4F7F7A41306F039
:102F0000F778B9F7A96A2046002907D00C68002C89
:102F1000FBD0437B027B4189C01CA047E3E0607883
:102F20000026002847D1A079C00744D0686B00284C
:102F300041D110220021684610F02AFC6169002965
:102F400003D006226846103107E0A0880BF05CFF32
:102F50000028E3D0811D0622684610F023FB694655
:102F60008889A1794907C90F08436946888107F014
:102F700071FD297E88420BD1A87D002801D0FFF782
:102F80007FFD5B48026B002A02D001210820904798
:102F900007F060FD297E8842A87E02D10121084306
:102FA00001E040084000A8762146684607F0C6FBCD
:102FB000002812D01526A86A002855D04368002B97
:102FC00052D06278A08801219847002E4CD0A96A7F
:102FD000A0884B683246032173E00221E87D10F09F
:102FE000A5FC002004B070BD6078062817D1A08829
:102FF0000BF00AFF060012D0287C012804D002281A
:1030000008D003280BD114E07179A088002207F0C2
:1030100033FC04E0A1883078052201F039FAA86A6F
:10302000002860D04368002B5DD06278A088022120
:1030300047E0002241201146000100F0F7F8E9E7DF
:10304000E0780022211D00F055F8297E88424AD2FE
:103050000621484325302246C0B20C32042110F02C
:1030600019FD287D10F0B2FC3DE0287B002802D03D
:10307000A088697B28E028780028A08823D00BF05E
:10308000C3FE06002FD0A07AC0070BD070790028AD
:1030900008D0A189890505D46A46B11D00F02AF837
:1030A000002814D022467179A088083207F0E4FB8A
:1030B000A86A002817D04368002B14D00022A088EB
:1030C000114698470FE0052101F0D2F90BE0A088E6
:1030D0000321F9E700E003E0A08800F031FA02E004
:1030E000A088FFF7F7FD01207CE70000FC460020E8
:1030F00068680020F0B52E4E85B0347E15460F4628
:10310000002806D0012804D0022811D003284BD172
:1031100021E0084607F070FD317E0446884243D224
:10312000002D41D006223946284610F03BFA3BE0FC
:1031300000240BE0F16B2001401806223946801D67
:1031400010F022FA002826D1641CE4B2307E8442BA
:10315000F0D3C4B21FE0002419E020460621484302
:103160002330C0B26A46102110F050FC00280CD168
:103170001022FF21684610F0F8F9002805D13946E1
:10318000684601F0E1F8002805D0641CE4B2307E06
:103190008442E2D3DDE7307E844205D2002D03D0A5
:1031A0002946204607F050FD204605B0F0BD00003E
:1031B000FC460020F8B50E4619491525194F8842DE
:1031C00014D1002409E032460221204607F05CFCBD
:1031D000002800D00025641CE4B2387E8442F2D37B
:1031E000002E1BD010480BF02DFF17E00BF00CFE4B
:1031F000040012D060790022A11DFFF77BFF397E09
:10320000884204D23246022107F03EFC0025002EFF
:1032100004D0204607F09AFD00E014252846F8BDAA
:10322000FFFF0000FC4600204DAD0000F0B5074652
:10323000012080021546381A89B00024BC4ABD4ED0
:10324000030006F0C3FC2011181F262D333A3F4619
:103250004D545B626970757CEFEEEDECEBEA89E949
:10326000E8AAAAF3F6E5E4EB012971D1287802284F
:103270006ED8307059E10129F7D128780128F7D8A4
:10328000707052E10129F0D128780428F0D8B0708C
:103290004BE10129E9D128780128E9D8F07044E10F
:1032A0001029E2D110222946A348ADE00129DCD142
:1032B00028780128DCD8307137E10129D5D1287868
:1032C000707132E10429D0D128689042D0D83062A0
:1032D0002BE10129C9D128780228C9D8B07124E18D
:1032E0000129C2D128780128C2D8F0711DE1012935
:1032F000BBD128780428BBD8307216E10129B4D19B
:1033000028780128B4D870720FE11029ADD18A480D
:1033100010222946103077E00129A6D1287801280B
:10332000A6D8B07201E101299FD12878F072FCE0A3
:1033300004290DD1286890420AD87062F5E000296E
:1033400006D100F08BFE002803D00120F074ECE0E1
:1033500074E007F0CBFB1CE007296FD10622691C43
:10336000684610F01FF9287800226946FFF7C2FE70
:103370000546307E854239D200F070FE002805D027
:10338000F26B0120290189188873CEE0284607F0E6
:10339000BFFB502010F0FEFA96E007294ED106221E
:1033A000691C07A810F0FEF82878002207A9FFF78B
:1033B000A1FE317E88421BD20621484305462135B5
:1033C000E8B26A461C2110F021FB00280ED15B48B0
:1033D000874201D1012000E0FF206946C876E8B2AB
:1033E0006A461C2110F056FB307D4BE002249CE025
:1033F000B07E0028FAD05148874214D10120F076DF
:103400004C4807222946403010F0CCF88DE05EE0B1
:103410007AE00EE00AE075E06FE067E07BE04AE00A
:1034200041E039E031E00020F0767EE00020707568
:103430007BE00027012070753D461BE066E02846D2
:103440000621484306462136F0B26A461C2110F098
:10345000DDFA00280CD16846C07EFF2808D0FF2086
:103460006946C8760127F0B26A461C2110F012FBAB
:103470006D1CEDB22F48007E8542E0D3002F54D062
:103480002C48007D10F0A2FA4FE001293ED12878A7
:1034900001283BD8307348E0012937D12878092822
:1034A00034D8707341E0012930D12878C11F09292F
:1034B0002CD8B07339E0012928D1717C2878707438
:1034C000002932D1012830D107F0FEFB2DE001297F
:1034D0001CD1B17C2878B074002903D1012801D116
:1034E00007F0F2FBB07C02F07EF81EE001290DD15E
:1034F000287803280AD8307417E0012906D12878E3
:10350000307512E00120BDE7012901D018240CE03C
:103510002878B07509E0192F00D367E70229FCD19C
:103520002988384600F062FF0446204609B0F0BD05
:103530003F420F00FC460020E86900201A0400000A
:10354000FEB5064600200190029030460BF05CFC70
:10355000040017D0144FB879022813D0607901AA5B
:10356000A11DFFF7C7FD0546387E85420BD22846D0
:1035700007F08AFB024601200090082329463046C6
:1035800007F040FAFEBDB879002807D00128F9D12C
:1035900061790022304607F06FF9FEBD0521304603
:1035A00000F066FFFEBD0000FC460020F7B516499E
:1035B0001525164E174688420FD1002409E03A46D9
:1035C0002046019907F0CCFB002800D00025641CA0
:1035D000E4B2307E8442F2D313E00BF015FC0028F5
:1035E0000ED04379811D00221846FFF783FD317EFE
:1035F000884206D23A46019907F0B2FB002500E066
:1036000014252846FEBD0000FFFF0000FC460020F8
:1036100001490860704700005047002070B50C4613
:103620000146032000020A1A00252548130006F06F
:10363000CDFA130B0D10171A1E2125292B2D31330E
:10364000393B3D3D35373D00407811E010221D49A2
:1036500002E01C491022103120460FF0A3FF2DE09C
:10366000406920602AE0164906221E31F4E7C0783E
:10367000207023E0124982782431EDE71149027964
:103680001F39E9E7407AF3E7807AF1E70C4906222F
:103690001831E1E7C07AEBE7007BE9E7C0890AE08F
:1036A000008A08E0007AE3E74079E1E7192904D2CB
:1036B000084600F03DFC208000E00225284670BD51
:1036C00054470020476A0020F8B5164CFF202070B0
:1036D000002565700320A0700126E670062765614D
:1036E0001920E781C001208220461F22294624306C
:1036F00010F04EF820460221243001704670877089
:1037000025711F220021084810F042F820460622A9
:103710000021183010F03CF86571A571FF20E071B0
:10372000F8BD000054470020286A0020FFB583B090
:103730001C4615460E460C9F03980BF065FB0028AF
:1037400017D0C189B14207D3A94205D8018AA14245
:1037500002D1408AB8420ED06846068045808480F7
:10376000C78069460D9A039802F05CFA002007B002
:10377000F0BD1420FBE71820F9E7000010B525483C
:10378000007F800744D0244C2078FF2840D1234874
:1037900006F06AF82070FF283AD0214900240C6016
:1037A0002049214A0C700421117000F0C7FD10223D
:1037B00000211E480FF0ECFF102200211C480FF0E2
:1037C000E7FF1C481E4904601B48184A04701B4848
:1037D0000470072008701B4810210470022010F0AC
:1037E00015F9134A1021032010F010F910220F4987
:1037F00015480FF0D7FE144810220D4910300FF075
:10380000D1FE04210B4A084610F000F9002010BD3B
:10381000182010BD6868002054470020AD38000013
:103820004C4700205C47002055470020476A002095
:10383000576A0020684700205D4700205E4700204F
:103840005F47002060470020086A002010B504F0A0
:10385000D9FB104806F008F802F024FA0E4806F0EA
:1038600003F800F071FB0D4805F0FEFF01F068FA67
:103870000B4805F0F9FF05F081FD0A4805F0F4FF5B
:10388000FFF784F9084805F0EFFF00F0A3FEFFF70B
:1038900075FF10BDE95D0000594200004D4E00006B
:1038A0008D940000492E000055470000FEB54A4C9B
:1038B0000D46080448D520780FF0AEFF040040D034
:1038C00046480078002808D02078454ED02808D0F7
:1038D000A22802D0912821D014E0204608F01EFC36
:1038E0002CE0A07800280DD0052807D0082809D0A2
:1038F00006280BD00728F0D1A0881BE0608919E0CA
:10390000007B04E0204608F009FC02E0E07908288A
:10391000E3D1214630780FF0B7FF12E060780E282F
:10392000F0D1A0882F498842ECD1A06881784278F4
:10393000080210430BF068FA0028E1D120460FF08E
:1039400043FF0120C00345E068040BD50421264A4B
:10395000084610F09FF82548007810F037F801204D
:10396000800337E0E80736D021480078002830D0BF
:103970000BF080FB1F49097F8907890F884203D319
:103980000320694608700CE01B48694600780870FF
:103990001A4806220078487000A8194902300FF032
:1039A00001FE184869460078087217480078487286
:1039B000207800F0E5FA00280BD0144906200870A2
:1039C00013490968002904D00A68002A01D000219F
:1039D000904701206840FEBD544700205A47002010
:1039E0005B470020051400006847002010470020B6
:1039F00057470020686800205D4700205E47002090
:103A00006C4700205F470020604700205C47002093
:103A10004C4700207CB514460D4601F091FA002D6C
:103A200002D02846FFF700FA0C480078002801D0A1
:103A300011207CBD002C01D0094804600A48009088
:103A400008490B48019102780A48084B01780A4856
:103A5000007800F0EFF900207CBD00005C470020FA
:103A60004C47002068470020576A0020476A002022
:103A700059470020554700205447002010B501F059
:103A8000F3FD10BDF8B50C465E49164642181921E3
:103A90000025C9015C4F130006F098F8120A1017B0
:103AA000A81C3E526970778188A8A3A8A88F98A8FF
:103AB000102C73D11022314654486CE0102C6DD17B
:103AC000524810223146103065E0042C66D130682F
:103AD000786190E0012C61D1F97830784A4AF87029
:103AE000127800290AD0002807D1387A022801D09C
:103AF000052802D1104600F0F1F97CE000287AD0C8
:103B0000387A012803D0032801D0042873D1012179
:103B100010460FF00BFF6EE01F2C60D83A481F22B2
:103B2000002124300FF034FE37482246314624303D
:103B30000FF038FD344BBC7024332246012112E0D3
:103B40001F2C4CD831481F2200211F380FF020FEB7
:103B50002E48224631461F380FF024FD2B4B3C7176
:103B60001F3B22460021387800F0D6FC48E0012CAB
:103B700035D13078042832D878723CE0012C2ED12F
:103B8000307803282BD8B87235E0062C27D11E4890
:103B90000622314618300FF005FD2CE01FE0012C05
:103BA0001DD1307807281AD8F87224E0012C16D1DC
:103BB0003078032813D838731DE03088022C0ED1DA
:103BC00006280CD388420AD8F88114E03088022CE9
:103BD00005D1062803D3884201D838820BE0182586
:103BE00009E0012CFBD13078787104E0192801D26A
:103BF000022C02D002252846F8BD318800F0F6FBE1
:103C00000546F8E7FFFCFFFF54470020476A002005
:103C100010B504460BF0F8F8002805D00078132200
:103C2000214600F035FC10BD122010BDF8B50E463F
:103C3000070048D038880BF0E7F8050041D0234A48
:103C4000A96BD078022806D0012804D0287B082848
:103C500003D1002E01D0122436E0002901D0112416
:103C600032E01B492C200FF0B9FC0446A863200069
:103C700025D02C2200210FF08BFD388860801C227B
:103C8000391D201D0FF08EFC022020700F483A884D
:103C90000178287B082810D00020231D05F0A3FC04
:103CA0000446002E03D0314628460EF07DFA002C43
:103CB0000AD0284607F0BCFA06E00120EDE71324FD
:103CC00002E0142400E002242046F8BDBE47002094
:103CD00014470000FFB51F4881B0C0781E46174644
:103CE0000D46022818D0012816D0002F30D0019898
:103CF0000BF08AF8040029D0E06A002801D00FF008
:103D0000C1FC1C2138460FF059FCE062011E1BD09B
:103D1000207B082803D00DE0122005B0F0BD002E56
:103D200008D0887E00900B4612330A8A01980EF064
:103D300083FD00E000202179002D01D0062200E063
:103D4000042211432171E8E71320E6E71420E4E799
:103D50000220E2E7BE47002010B50548C078000702
:103D600001D5044800E0002008F0E0F810BD000094
:103D7000BE470020DC47002070B51A4C05460121E3
:103D8000207807F07BFA1848C1780A20014223D036
:103D90002570164808F0C4F8606800281AD1207809
:103DA00000281DD0000107210FF018FC60600028DA
:103DB00010D021780A0100210FF0EAFC0020FF2139
:103DC000626803E00301401CD154C0B223789842DA
:103DD000F8D305E0132070BD0020207008F0A0F893
:103DE000002070BDD0470020BE470020686A002038
:103DF0000949002008704860886009480749016047
:103E00000849416008498160034808490C30016055
:103E10000749416070470000D04700207DB1000095
:103E2000686A0020A1BA0000FDB900005DB0000082
:103E300095B00000F8B50224079F1D4616460429D8
:103E400019D004DC012907D0022945D10BE008294B
:103E50001BD00C2940D129E000F040F904003BD1EF
:103E600000F094F938E000F039F9040034D130461C
:103E7000FFF782FF30E000F031F904002CD13A4620
:103E80002846069900F064FA20E000F027F90400C3
:103E900022D13A462846069900F05AFA3046FFF7F2
:103EA0006BFFFFF759FF05F07BFA15E000F016F9FC
:103EB000040011D13A462846069900F049FA3046E6
:103EC000FFF75AFFFFF748FF05F06AFA00F05EF9C6
:103ED00000F044F905F03EFB2046F8BD70B5104CEB
:103EE0002168002919D00978814214D10D4D022191
:103EF00028780FF0CBFE0C48002646802878042155
:103F00000FF0C4FE09484671216803204870002064
:103F100001F071FB70BD032070BD122070BD000068
:103F2000B0450020BE470020E4470020146900206F
:103F3000192801D30248704702494000085A7047C7
:103F4000FFFF00003469002010B5044600F08AF835
:103F500000F062F9FFF74CFFFFF7B6FB0649FF23BD
:103F6000CB7000228A700A710448052143700470E6
:103F7000204601F081FF10BD14690020BE470020DB
:103F8000F3B5304E0024306883B0002802D01120F1
:103F900005B0F0BD2C4D0521E878084201D1122072
:103FA000F6E72A494968002905D00978002902D096
:103FB000C00702D008E01020EAE700F04FF80746FB
:103FC0000BF03AF8874207D304980078022803D010
:103FD000032801D0122432E01D490C200FF0FEFA14
:103FE000306000282AD003990170002141700A2214
:103FF000801C04990FF0D6FA164EB078032806D02C
:1040000008F02EFA04001AD007F006F917E007F0BE
:104010008BF9694605F03FF9684607F071FC01200D
:1040200030711120FFF784FF0006000E707106D07A
:104030002878094A04210FF0B9FD00E01324204636
:10404000A6E70000B0450020BE470020E44700205E
:1040500017470000146900200077010010B50AF02E
:10406000D5FF10BD1A480021017041704160816088
:10407000C1600161416181611648B42201804280C2
:10408000012292038280A022C280028110224281FA
:1040900082815023C381038242828282C2827D2335
:1040A00002831B0143838183C18301840F234384E3
:1040B000094B83840723C3840285012242857E2223
:1040C000D2438285C1850186491E41867047000022
:1040D0009C4500203469002080BB000070B50E466E
:1040E00005462022002109480FF052FB074C0848E2
:1040F000E570C67001F0AEFA002803D000202070F1
:10410000122070BD0121217070BD000014690020D3
:10411000BE4700207FB504460D4608460AF074FEEF
:10412000002817D00C48844212D210220021684681
:104130000FF02EFB69460C70200A4870200C887026
:10414000200EC8702946684605F05EF904B070BDBF
:104150000220FBE71220F9E740420F0010B50848A3
:10416000C078400707D5074807F0ECFE0020064955
:10417000C043C88010BD002007F0E4FE10BD000061
:10418000BE470020F447002014690020F8B51E4CFB
:1041900000256068002802D00FF074FA6560E068BE
:1041A000002802D00FF06EFAE560184E0527F0786F
:1041B000384224D0164807F0BFFEF07838421CD0B1
:1041C000144920200FF00AFA6060002815D0202240
:1041D00000210FF0DDFA0F492020491E0FF0FEF9F3
:1041E000E060002805D0202200210FF0D1FA002045
:1041F000F8BD60680FF046FA65601320F8BD002036
:1042000007F09AFEF3E70000E4470020BE470020D5
:10421000746A0020164700000948FF210170002140
:10422000418041608160C1600748064901600749DB
:1042300041600749816002490648103108607047B3
:10424000E44700209DB50000746A00202DB60000F0
:1042500061C400000DB50000FEB5354F354D0C466C
:1042600008041FD538780FF0D7FA061E17D030781B
:10427000A22806D07D78304607F058FD00280AD1E4
:1042800002E02C48C578F6E7FF2D04D031462846D9
:104290000FF0FAFAE6E730460FF096FAE2E701206F
:1042A000C00341E0E0070126234900280AD04868FE
:1042B000002804D04168002901D00020884720460A
:1042C0007040FEBDA00709D5C868002804D0416829
:1042D000002901D001208847022025E0600725D56C
:1042E000687900281FD0401E0006000E68711AD1A0
:1042F0004869002808D02E71C868002804D0416899
:10430000002901D0012088476946E86804F0C3FF0E
:10431000684607F0F5FA1120FFF70AFE6871387851
:1043200004210FF0B3FC04206040FEBD0020FEBD60
:10433000BE470020146900209C45002001494870B8
:1043400070470000BE47002010B505F0DDF810BD35
:1043500070B5154C0E46626121610546E060102281
:10436000FF2130460FF001F9012806D0102200216C
:1043700030460FF0FAF8012803D1102120690DF022
:1043800005FD1022FF2128460FF0EFF8012806D086
:104390001022002128460FF0E8F8012803D110214F
:1043A000E0680DF0F3FC70BD146900207FB50C4689
:1043B00005460AF029FD002814D0826B007B0428F2
:1043C00002D0122004B070BD002A00D0947D68464F
:1043D00021460EF06DFA044B6A46022128460EF083
:1043E000E9F9EFE71420EDE7A32D010070B50C46C5
:1043F0000546192802D20848844201D1022070BD26
:10440000112D04D13C20604380B201F007F903492B
:1044100068000C52002070BDFFFF000034690020CE
:1044200070B50E4611491546CB78022B17D0012BDB
:1044300015D0002D17D00AF0E7FC040011D0002E93
:1044400003D02079022108432071204610222946FA
:1044500018300FF0A7F82869A062002070BD122064
:1044600070BD142070BD022070BD0000BE4700204A
:1044700038B50C4605460AF0C7FC002806D0684649
:104480000470694628460EF083F938BD142038BD03
:10449000F7B505461E4812261E4F0C46814208D12C
:1044A000B868002832D00268002A2FD028469047EA
:1044B000FEBD1748401C844219D1B868002806D0B8
:1044C0000268002A03D028469047002806D02846D4
:1044D000029906F0FBF8060005D017E07D700298FF
:1044E00038700020FEBD7D70029838700EE00846DE
:1044F0000AF08AFC002809D00078A84201D00320E5
:10450000FEBD2046029900F0EAFFFEBD3046FEBD2A
:10451000FEFF00009C45002070B51446024620486E
:104520001E46C0780523184224D01E4D00296B6812
:10453000E86802D0002B1DD001E000281AD0202C02
:104540002CD2002C01D0002E28D02A70002913D0A4
:104550001F220021581C0FF01BF9686822463146C3
:10456000401C0FF01FF8696820460C70491C01F0D0
:104570003EF870BD122070BD1F220021401C0FF0BC
:1045800007F9E86822463146401C0FF00BF8E9684D
:1045900020460C70491C01F049F870BD022070BD26
:1045A000BE470020E447002010B5094A01461379B0
:1045B0000020002B0BD101231371C90707D013462C
:1045C0006433184610220421403800F009FA10BD67
:1045D00084460020F8B5044600F070FE00F046F86E
:1045E000114F134EFC701149304600F027F8114965
:1045F000C0200EF0F3FF00221346B8619401065369
:10460000002124180C254D436519AB80491CEB6033
:104610000529F7DB521C032AF0DBF878787006488E
:104620000AF044FDF8BD000084460020AA6900207D
:10463000FFFF00000147000039CB000070B50A4CB5
:104640000025A04208D1002082008C525218401C44
:1046500095700328F8DB70BD08F03FFA0028FAD007
:104660000480857070BD0000FFFF0000F0B51E499A
:1046700020200870FF2048708870C8700126CE8006
:1046800000200881C86008610B4602241C33486181
:104690001C70164A5A600A46087124321470144D70
:1046A000556016725081D3601474124F15466F61B5
:1046B0002E766883E9612021545413460E4D591813
:1046C0005D6208725885D862302154540B4C032324
:1046D000511854630B725087094ACA600249094A4B
:1046E000643105C10860F0BD84460020623E0100CF
:1046F000643E01006A3E0100823E0100703E0100FE
:10470000AA69002011D60000F8B50E4607460699A2
:1047100000240798002902D00B242046F8BD022B64
:1047200001D00D24F9E7517812780D02154329467E
:10473000814301D08024F0E73846F16800F042F967
:10474000A842EAD02A463846F16800F0F1F904465A
:10475000E3E7000070B50D4608041AD50E48C0788E
:104760000FF05AF804000FD02078B02809D1204665
:1047700008F07AFB002804D020462179083000F0A8
:104780007FFD20460FF020F801212846C90348404C
:1047900070BD002070BD000084460020FFB585B0CC
:1047A00000200F9F0090087A0E9D1C460E46C00602
:1047B0000BD5079808F08AF903007DD00A2231460C
:1047C000059898470090002816D13078022815D017
:1047D000079808F0A1F90028EFD000688446002867
:1047E000EBD01199109822460097029101902B4628
:1047F000314664460598A04709B0F0BD706829228B
:1048000041780078090201431202881A91427CD053
:104810000BDC6948081A13D0012811D0022817D0E0
:104820000328D5D1002F53D09BE001287ED0022849
:104830006DD0032877D00428CAD1002F68D090E02B
:10484000002F6FD1F068017829800278416884E0F8
:10485000002F67D1F068417800780F0207430420E9
:104860002880F06804A900782070F06840786070B3
:10487000384600F089F9060022D06846028A03AB68
:104880004E493046F76800F0DDF900280AD1337848
:1048900002214B487268FDF7FBFB002802D1474814
:1048A00069468881387802280CD10222201D796857
:1048B0000EF078FE288800E07CE0801C288001E073
:1048C0006846878168468089A070000AE0706FE0C2
:1048D00001202880F0680021007820707089401C39
:1048E00080B200F051F9002813D029880278891885
:1048F000891C2980817A61704189090AA170027836
:104900004168E01C0EF04EFE52E00CE00EE026E0A6
:104910003BE028880422001D28800021601C0EF046
:1049200037FF45E01DE0002F27D01AE0F0680FF0B8
:10493000C0F980B2B84201D207205DE7874201D1B9
:10494000002006E01099C919814201D3C01B00E084
:104950001098288082B2F068C1192046D2E7002F53
:1049600001D00B2048E7F168059800F02BF80221F0
:1049700029802070000A60701AE002202880F06808
:1049800000782070F0684078F5E70721F06829800A
:1049900001782170417861708178A1704188090A9D
:1049A000E1700179217181796171C088000AA0717B
:1049B000009821E70E201FE700280000FFFF0000FD
:1049C000663E010010B508F088F8002800D0807815
:1049D00010BD000001498870704700008446002027
:1049E0007CB51E4605001CD068460180827001958A
:1049F00000F0ACFA04001FD1002E1DD068890028F9
:104A00000FD00E490C200EF0E9FD002813D0002134
:104A10000160698981800A4A86601169002903D191
:104A200007E002207CBD11460A68002AFBD108601D
:104A300002E0106100E0132420467CBD0547000021
:104A400084460020F8B50C4C0746A07815460E4663
:104A5000FF280FD00A200EF0A3FE01000AD0B120DB
:104A600008704F80002048700871CE800D81A078BA
:104A70000EF00AFFF8BD00008446002070B50C4619
:104A800005460649FFF79EFF800704D521462846C4
:104A900000F0B8FA70BD012070BD0000AA690020C6
:104AA0000EB56B461A81FE23002201930092022369
:104AB00002AA00F001F80EBDFFB583B0174602A9A7
:104AC0000D9E049800F060F804002AD06846008922
:104AD00008F022F8002822D04568002D1FD00C983D
:104AE000019600903A462146069B0398A847050088
:104AF00018D1FE2E16D02078022813D16068417894
:104B0000027808020949104388420BD17878397835
:104B100002020A4304990398FFF794FF02E00E256E
:104B200000E00125284607B0F0BD00000229000082
:104B300070B514460E46054607F0CFFF002806D193
:104B40003146054807F0C9FF002803D0058084706E
:104B5000002070BD112070BDFFFF000010B501786E
:104B6000B0290BD14178002908D10179122906D04A
:104B70001B2903D14088012101F088F810BD417C38
:104B80000129F7D010BD0000F0B5104A536919E0B3
:104B90009C686589A84214D39E887219824210D9F4
:104BA00000220CE017013F197F89874205D10029B7
:104BB00000D00D8010010019F0BD521C92B2B2421B
:104BC000F0D31B68002BE3D10020F0BD8446002009
:104BD000FFB51B4883B0002345692DE0AE68002473
:104BE00070890190A888009016E0210188194289F7
:104BF000039FBA420ED3049FBA420BD8069A002AEA
:104C00000FD01346715C4068059AFDF741FA002801
:104C100007D10023641CA4B200988442E5D3002B82
:104C200009D00C98002802D00C9901980880200126
:104C3000801907B0F0BD2D68002DCFD10020F8E716
:104C400084460020FEB5174600256A469580044636
:104C500040891D4A1E46904208D001AA0092401C7D
:104C6000237880B26268FFF7B3FF054623780221FC
:104C700016486268FDF70CFA002807D12378022154
:104C800013486268FDF704FA002801D060890EE03D
:104C9000237802210F486268FDF7FAF900280DD049
:104CA000002D03D068468088B84203D0384608F00B
:104CB000D3FD04E06889401E80B200E06089002EC8
:104CC00000D030802846FEBDFFFF0000643E01009A
:104CD000663E01006A3E0100FFB583B00E461D46E8
:104CE000174601A9039807F011FD040022D1002FF7
:104CF0000FD0694608803088FFF746FF694608886C
:104D000000F0BCF90146012203980AF051F800288E
:104D100011D131460398FDF761FA04000AD1FF2D45
:104D200008D0019B1E22194604489B1C08F09FFDD9
:104D30000198C570204607B0F0BD0000C1D6000044
:104D400010B50446FDF776FA0749FF200870487051
:104D50000020486088608C700421204601F08CF8A7
:104D600000F004F810BD00007846002070B5002067
:104D70000D4D0E4B0446FF22062141435D52C918DA
:104D8000CA708A70401C0C710328F5DB0120C043F7
:104D90001880074807F050FE0648FDF7D1FB06488B
:104DA0000AF084F9002070BDFFFF00009869002020
:104DB00009D70000EBD6000041D600007CB51646AE
:104DC0000C460546FCF764FF11490978884201D377
:104DD00016207CBD01A9284607F098FC1728F8D0BA
:104DE000002E10D00020694608802088FFF7CCFEF6
:104DF0006946088800F042F901460122284609F078
:104E0000D7FF0028E5D121462846FDF7FDF97CBDF6
:104E1000F9470020F8B51C4615460E46074609F02E
:104E2000F3FF00280DD0017B074808292B463246A6
:104E30003946009403D0007807F07EFCF8BD407836
:104E4000FAE70120F8BD000078460020F0B587B0F1
:104E50000F46080470D5394EB0780EF0DDFC040022
:104E600064D02078A0285ED10120694608732046CE
:104E7000FDF732FA050041D16846807800280BD052
:104E8000142809D0152807D01A2805D01C2803D0CB
:104E900001461F3920290BD8B16800292ED0694658
:104EA000497800292AD169460874062008751FE050
:104EB000C0070AD07368002B05D0608803AA694632
:104EC000984705461AE0062518E0B368002B06D07F
:104ED000608803AA69469847050001D10EE00625BF
:104EE00068464078002809D16946887808740D75AD
:104EF00000204882608804A9FDF706F96846007B17
:104F0000002804D0A068002801D00EF0BBFB002DC3
:104F100005D168468078122805D01B2803D1608807
:104F2000012100F0B3FE20460EF04EFC0120C0032C
:104F3000784007B0F0BDFFE70020FAE77846002090
:104F400001490870704700007846002070B504469B
:104F50004568008800284AD02B78022125486A68D5
:104F6000FDF796F8002807D12B78022122486A68BD
:104F7000FDF78EF800283AD0A078C01F092834D851
:104F80001E4EF08800282ED021880818012109041F
:104F9000884228D81A490C200EF020FB050020D0AA
:104FA000002207E011016368F0880A315852401C62
:104FB000F080521C20889042F4DC002028600822F7
:104FC0002146281D0EF0EEFA7069002801D105E097
:104FD000084601680029FBD1056000E075610020EA
:104FE00070BD132070BD012070BD182070BD02205F
:104FF00070BD0000643E0100663E01008446002052
:1050000002470000FEB50E46074600250223194A56
:10501000194901200095FFF7DBFD040027D023206C
:105020000090002304221D21384600F0E3F802908E
:1050300000281AD06089694688800420C8800299B7
:10504000012008700298334645700299FF2088704D
:1050500002990022C87001A93846FFF73DFE0400FE
:1050600006D002980EF00EFB02E0152400E00124A9
:105070002046FEBD823E0100FFFF000000B507F0A4
:1050800001FB002801D0807800BD102000BD00B5D4
:1050900007F0F8FA002800D0008800BD7CB50D4666
:1050A000044609F0B1FE29462046FDF74FFA0028D4
:1050B00012D168468580204609F0A6FE00280BD054
:1050C000027B01A90748082A009106D07F2300220D
:1050D0002146007807F030FB7CBD7F23002221466B
:1050E0004078F7E77846002010B504460B4688065E
:1050F0000DD51046FFF7C2FF01460122204609F0F8
:1051000057FE052801D00F2800D1082010BD8820A7
:1051100003420CD01046FFF7B1FF0146180701D536
:10512000012200E00022204609F042FE10BD88075F
:1051300001D5002010BD032010BD10B50346C806E0
:105140000DD51046FFF79AFF01460122184609F0D7
:105150002FFE052801D00F2800D1082010BD4807D8
:1051600005D51046FFF78AFF0146012206E04806F2
:1051700008D51046FFF782FF01460022184609F0C5
:1051800017FE10BDC80701D0002010BD022010BDC1
:1051900070B51D4603460C4688060DD51046FFF730
:1051A0006DFF01460122184609F002FE052801D0D4
:1051B0000F2800D1082070BD8820044214D010466A
:1051C000FFF75CFF0146200701D5012200E0002225
:1051D000184609F0EDFD002808D0697A0029EAD0C8
:1051E000297A002902D170BD880701D5002070BD41
:1051F000032070BDF8B5069F1E461546162928D017
:105200000CDC09291FD004DC05291CD0062911D18A
:105210001BE0112917D012290CD118E01D2916D036
:1052200004DC172915D01B2904D110E052290ED017
:10523000D2290CD00124114A95420CD1FCF7BEFFB3
:10524000001B85B20BE00224F5E70724F3E70324F3
:10525000F1E70524EFE7D22901D10C35ADB2601991
:1052600080B2394600F064FE002805D0002E00D040
:10527000358061420EF044F9F8BD0000FFFF0000E8
:1052800010B507F00FFA002801D00EF0FBF910BDA1
:1052900010B5094A014653790020002B0BD1012398
:1052A0005371C90707D01346A433184610220921A9
:1052B0009038FFF795FB10BDC8450020F0B50021E0
:1052C0003D4C0222A1603D4D227008462954401CED
:1052D00080B21628FAD36270374BE180A27050205A
:1052E0000C331880A0205880184681807D20C00093
:1052F000D880E2700123304823716171143002704C
:105300002F4C4460037241812E4CC46006460274E7
:105310002D4F77613446337671831034143EE66046
:10532000202402550646294F34197762237271856D
:10533000F562302402550546234E6E632C19237204
:105340006987133DE560402402550546204E6E6492
:105350002C19237261810E3DE560502402550546EB
:10536000194E2C196E6523726181123DE56060242F
:1053700002550546174E6E662C1923726181083D51
:10538000E5607024025505460F4E2C196E67237296
:105390006181113DE560802402550F4A80304260F2
:1053A000037241816A1CC2600C48A03210600C4834
:1053B000506010468160F0BDC8450020686900203B
:1053C000643E0100F83D01006A3E0100783E0100A4
:1053D0007A3E0100803E01008A3E010035D900007E
:1053E0007DDA000070B51646214A0D4611460024AC
:1053F0001431030004F0EAFB0A0613383818382188
:1054000028383138152D2AD81622002119480EF0D7
:10541000BFF92A46314617480EF0C4F825E0022DA0
:105420001DD13088D08020E0082D18D110480822E6
:1054300031460C30FCF74FFA17E0012D0FD1CA6945
:105440000B4930783C3105E0012D08D1CA6B084981
:1054500030785C3108F0DAFA07E0012D01D0182429
:1054600003E03078107100E00224204670BD000097
:10547000C8450020686900201148807C01280DD0B3
:1054800003280ED007280FD00F2810D01C2811D0C9
:10549000222811D0322811D0002070471320C04399
:1054A00070470D20C04370470720C043704702205B
:1054B000C0437047012070470220704703207047A7
:1054C00068680020704710B500F0FEF810BD10B5F8
:1054D00000F01AF910BD10B500F02EF910BD10B58E
:1054E000FCF7CCFB10BD10B500F03AF910BD10B5BB
:1054F00000F04EF910BD10B500F064F910BD10B504
:10550000FCF7CCFB002010BD10B5FCF7E1FB10BD93
:1055100010B5FCF7EDFB10BD10B5FCF7F9FB10BDA5
:1055200010B5FCF705FC10BDFEB508AF70CF6F4697
:1055300070C7FCF70DFCFEBDF0B585B084460AA827
:10554000F1C804976F4671C7604600F051F905B085
:10555000F0BD38B5049C009400F08AF938BD10B550
:10556000FCF706FC10BD38B5049C009400F09EF9D1
:1055700038BDFFB587B094468E4610A8F7C8069789
:105580006F4677C762467146079800F0ADF90BB0D9
:10559000F0BD10B500F002FA10BD10B5FCF7F6FB37
:1055A00010BD10B5FCF704FC10BD10B5FCF712FCE3
:1055B00010BD10B5FCF71EFC10BD10B500F00CFAC4
:1055C00010BD10B5FCF728FC10BDFEB508AF70CFBC
:1055D0006F4670C7FCF732FCFEBD38B5049C0094E2
:1055E00000F018FA38BD10B5FCF742FC10BD10B53C
:1055F000FCF74EFC10BD10B5FCF75AFC10BDF0B521
:1056000085B00AACF0CC03976F4670C7FCF760FC1E
:1056100005B0F0BD10B5FCF771FC10BD10B5FCF77E
:105620007DFC10BD10B5FCF789FC10BD10B5FCF772
:1056300095FC10BD70B55478157822022A43FCF70A
:105640009DFC70BD10B5FCF7A3FC10BD10B500F0BB
:10565000FFF910BD10B5FCF79FFC10BD38B5049CD8
:10566000009400F00DFA38BD10B5FCF7A7FC10BD92
:1056700038B5049C009400F0B1FA38BD10B500F0C4
:105680001BFA10BD10B5FCF7AFFC10BD10B5052816
:105690000ED90C4CA0420BD2A14209D2814207D3B1
:1056A000FF20F530824203D2092B01D9A34201D356
:1056B000002010BD521C4A43D8008242F8DA012073
:1056C00010BD0000810C0000F8B5074608461646DC
:1056D0000D460C300EF064F8040011D091202070BB
:1056E0000E206070A5702046A7800C302A463146F7
:1056F000A0600DF057FF0348214600780EF0C4F873
:10570000F8BD0000BE47002070B505460C460620D7
:105710000EF046F801000BD0912008700F20487061
:105720008D700120C87003488C8000780EF0ACF8B2
:1057300070BD0000BE47002010B5044603200EF0E7
:105740002FF8010008D0912008701A2048700348F3
:105750008C7000780EF098F810BD0000BE47002055
:1057600070B5064614460D4608200EF019F80100E3
:105770000AD091200870052048708E708D800348F3
:105780008C7100780EF080F870BD0000BE470020DC
:1057900070B5064614460D4608200EF001F80100CB
:1057A0000CD0922008703E204870082088708D80B0
:1057B0008E710348CC7180780EF066F870BD0000E1
:1057C000BE47002070B505460C4606200DF0E8FFE8
:1057D000010009D091200870302048708D70034876
:1057E0008C8000780EF050F870BD0000BE4700209D
:1057F000FFB5064681B017460D4616200DF0D0FFC6
:1058000004002FD0912020703E2060700120A070F5
:1058100030460026002808D03120E07020460622BD
:10582000002108300DF0B4FF06E0E67020460622A5
:1058300008300A990DF0B6FEA580A7710498E071B2
:105840000B98E0810C9820820D9860820E9820754C
:105850000548214600780EF017F8082D02D20349BA
:1058600068000E5205B0F0BDBE470020806A0020DF
:10587000F8B507461C4615460E460C200DF090FF65
:1058800001000FD0912008703E20487003208870DE
:10589000CF708E80CD800C810698488102480078B8
:1058A0000DF0F2FFF8BD0000BE470020F8B5074636
:1058B0001C4615460E460E200DF072FF01000FD05B
:1058C000912008703E204870072088708F80CE801D
:1058D0000D814C8106988881024800780DF0D4FF34
:1058E000F8BD0000BE470020FFB5064681B0174650
:1058F0000D4622200DF054FF040048D09120207066
:105900003E2060700A20A07030460026002814D087
:105910003120E07020460622002108300DF038FFCB
:105920002046062200210E300DF032FF20460622CE
:10593000002114300DF02CFF12E0E6702046062204
:1059400008300A990DF02EFE204606220E300B99E3
:105950000DF028FE2046062214300C990DF022FE90
:10596000A580A7710498E0710D9860830E98A083BC
:105970000F98E083202110980855064821460078AA
:105980000DF082FF082D02D2034968000E5205B0C7
:10599000F0BD0000BE470020806A0020F8B5064632
:1059A00015460F4610200DF0FBFE040011D092208A
:1059B00020703E2060700520A070A6800822394625
:1059C000A01D0DF0EFFD0348E581807821460DF024
:1059D0005BFFF8BDBE470020F8B5064617460D46EA
:1059E0000E200DF0DDFE040011D0922020703E202C
:1059F00060700420A070E670A58008223946A01DC2
:105A00000DF0D0FD0248214600780DF03DFFF8BDB5
:105A1000BE470020F8B507461C4615460E460E2028
:105A20000DF0BEFE01000FD0912008703E2048709E
:105A3000062088708F80CE800D814C8106988881E9
:105A4000024800780DF020FFF8BD0000BE4700209E
:105A500070B514460D4608200DF0A2FE01000BD0D3
:105A60009020087013204870012088708D800348B2
:105A7000CC8000780DF008FF70BD000000480020C9
:105A8000F8B507461C4615460E460C200DF088FE5C
:105A900001000DD0912008700C2048708F708E800E
:105AA0008D710C8106984881024800780DF0ECFE5B
:105AB000F8BD0000BE470020FFB581B0444E0299FA
:105AC0000025F068174602292CD0B18800297CD027
:105AD0007288CB19121D934271D840183A46049926
