:020000040000FA
:1000000000800020A512000001400020AF12000077
:1000100000000000000000000000000000000000E0
:10002000000000000000000000000000AF1200000F
:100030000000000000000000B1120000B312000038
:10004000B5120000B5120000B5120000B512000094
:10005000B5120000471F0000B5120000B5120000E5
:10006000B5120000B5120000B5120000B512000074
:10007000ED1F0000B5120000B5120000B51200001F
:10008000B5120000B5120000B5120000B512000054
:100090000348854602F08CF80048004779030000C9
:1000A000008000201CB500216A46117051709070CC
:1000B000D17001916B4608220121002000F0E2FC82
:1000C0001CBD7CB57C4D0C462878090408D514F07D
:1000D00023F8002801D013F0F7FF0120C00324E02B
:1000E000E10701D0012020E061070BD5FF21F531A8
:1000F00000910822019000231146688803F03CFF1C
:10010000042012E0A00714D501220223802110460A
:1001100000F073F900280AD00020FFF7C3FF202267
:100120000221287814F0D4F9022060407CBD1E2002
:10013000F3E700207CBD30B585B060480AF014F8C4
:100140005D4D0124287069460C706A4621465C4862
:1001500004F0BAF85A482A1D0721401C04F0B4F8EC
:1001600057482A4614321D21801C04F0ADF8554A28
:100170001521002005F0C6FD0020694600900C7195
:100180000872032008730C746A4604214E4803F079
:1001900079FC012101AA880203F074FC4A4802AAF2
:1001A0000121801F03F06EFC474803AA0121401F74
:1001B00003F068FC444804AA0121801E03F062FC9D
:1001C00006206946087001216A46084600F067F972
:1001D00000F02EFF294634310846283800F034FC60
:1001E0000121287814F022F805B030BD1CB50300B9
:1001F0000AF06CF9072E05101F121D2F2E00C120CA
:100200006946800003F030FE6946012004F034FAAC
:100210002EA01FE031A01DE0274849894180192206
:10022000D2010421007814F053F930A012E033A079
:1002300010E08878042805D0062805D0052807D1C5
:1002400035A007E03AA005E0897940A00AF016F948
:100250001CBD45A00AF012F91CBDF8B50024079E8C
:10026000069D002B04D0012B15D0022B19D01FE0C6
:10027000404B9A420AD1022908D12B78012B03D096
:100280000D24002C02D013E00024FAE700962B780E
:1002900000F02AFF03E02B46009600F045FF0446DD
:1002A00006E00548FF22F5320221007814F010F92B
:1002B0002046F8BD7047000020420020C300000027
:1002C000050300003E46010007040000496E697402
:1002D00069616C697A65642E2E0A00004164766556
:1002E00072746973696E672E2E0A0000436F6E6E1A
:1002F00065637465642E2E0A00000000436F6E6E05
:100300006563746564204164766572746973696EAF
:10031000672E2E0A000000004164766572746973CE
:10032000696E672074696D656F75742E2E0A000002
:1003300057616974696E6720666F722061647665C3
:1003400072746973696E672E2E0A000044697363C4
:100350006F6E6E65637465642E2E20526561736FD7
:100360006E3A25780A0000004572726F722E2E0ACE
:10037000000000004D2A00000121881E01F0E6FA6D
:100380000121124801F007FB0321880401F003FB5F
:1003900000F024F80E498A6A481502438A62032154
:1003A00001F0D4FA01F0D9FC0A490BA00AF066F872
:1003B00001F039FD01F0B7FD03F06EFE00F01DFB0A
:1003C000FFF7B9FE09F0EEFEFCE70000FFF3FFFFC8
:1003D000801000405847010025730A0010B5012124
:1003E000802001F0D8FA0321022001F0D4FA0B4852
:1003F000C16A02221143C16210BD10B5074C4034DE
:10040000002A02D0A2681A43A260C9B2002801D013
:10041000606801E00148406A084010BD801000405B
:1004200010B58F498F4804F099FD8F4B1022184664
:100430000521503804F064FF10BD8B4968394861CC
:1004400070473EB504460079C00727D060888449CC
:1004500004F048FFC00721D00020009060880023EE
:1004600001221B2105F056FB0290002816D07E4881
:1004700069465038408D88800120C8807A480299AA
:100480006838007808706088002201A905F026F914
:10049000002803D01B2101A805F082FB3EBD10B54A
:1004A0000024012802D00224204610BD6E48117895
:1004B0006838417000788842F6D26C480FF042FAF2
:1004C000F2E7694B10B50022683B002809D00128EB
:1004D00009D01833022809D003280AD00222104676
:1004E00010BD187800E058780870F8E7588908803F
:1004F000F5E75D48623804780C7140784871588D92
:100500000880588F488001208871E8E770B5564D03
:10051000683DA868002800D08047FF24E8682D3493
:10052000002800D08047A988A14201D8642070BD6E
:100530006888A04201D3002070BD2A69002A02D039
:100540002046904770BD091A491C0904201A192237
:10055000890C50434018401E01F086FDC0B270BDAA
:1005600010B5FFF7D3FF404968390A78904203D2AB
:1005700008703E480FF0E6F9002010BD30B53A484B
:10058000049D6838039C41808280083038C030BDAB
:1005900070B5049800241D461646002801D00B2093
:1005A00070BD4868427803781002314A184390427F
:1005B0000CD1FFF7ABFF2C4968390A78904200D282
:1005C000087001202880087830700BE0294A90429A
:1005D00007D1022028800246C968304613F062FC29
:1005E00000E00A24204670BD7CB54C681546627850
:1005F000247812022243204C069EE24208D10122B6
:10060000019200962A4604F00FFD040003D000E09A
:100610000A2420467CBD68782978000208431249E4
:10062000683949690029F4D0002802D001208847A0
:10063000EFE70220FBE710B504460A48401E84425B
:100640000DD0012907D0022909D1012120460FF040
:10065000E1F9002803D10249204604F07FFC10BDD7
:1006600074690020FFFF0000CC420020430400001A
:10067000192A000008290000FED6FFFF10B56E4BB6
:10068000102213216D4804F03BFE10BD10B500246C
:100690001346002802D00224204610BD67480A46AF
:1006A0001946093813F0FEFBF6E770B50D46002435
:1006B000030009F00BFF09060A1014181C20242857
:1006C0002C005E490822093901E05D490D222846C7
:1006D00013F0E8FB1CE05A490E220D31F7E75849A8
:1006E00012221B31F3E7564912222D31EFE754490C
:1006F00012223F31EBE7524912225131E7E75049CC
:100700000E226331E3E74D4907221039DFE7022467
:10071000204670BDF8B5496894464A7809781702B2
:100720000F430698474A11210025079CBE1A091A53
:10073000974244D009DC444ABA1813D0012A1DD08C
:10074000022A26D0032A08D12FE0012E41D0022E02
:1007500049D0032E51D0292E5BD0002018800A25C5
:100760002846F8BD082856D20821091AA14200D807
:100770000C463249A2B21A80093957E00C284AD2F5
:100780000C21091AA14200D80C46A2B21A802C49A9
:100790004CE00D283FD20D21091AA14200D80C4689
:1007A0002749A2B21A800D3140E0112833D2A1426C
:1007B00000D80C462249A2B21A801B3136E011281B
:1007C00029D2A14200D80C461D49A2B21A802D316F
:1007D0002CE011281FD2A14200D80C461849A2B221
:1007E0001A803F3122E0112815D2A14200D80C46D0
:1007F0001349A2B21A80513118E00E280BD20E21F3
:10080000091AA14200D80C460D49A2B21A806331E0
:100810000CE0072801D30725A2E70721091AA14206
:1008200000D80C460549A2B21A8010390918604652
:1008300013F038FB94E700001C440020EC42002039
:100840007C460100272A0000DDD5FFFF70470146E6
:1008500010B5FA480129807904D0022901D113F09A
:1008600095FE10BDF64A022113F032FE10BDFEB512
:10087000064600201746F14C0D4603460A460090F6
:100880001B21208905F046F90290002813D0684604
:100890008680C5802A463946029813F003FB002261
:1008A00001A9208904F01AFF040005D01B2101A82A
:1008B00005F076F900E013242046FEBD30B5DF4A8E
:1008C0000446E04BD068D2791B780BE00579A5424D
:1008D00005D145798D4202D185799D4205D0521EC0
:1008E000D2B20830002AF1D1002030BDFFB581B06E
:1008F00015460E460746FFF7E1FF04001CD060884E
:10090000694604F0D1FD002816D0C168CB480089A3
:1009100004F0E8FCC0070FD020882946049AFFF7AE
:10092000A6FF002808D1C8482A460770467085707F
:10093000C01C049913F0B6FA05B0F0BD70B5BF4EF7
:100940000C46B079090408D513F0E6FB002801D065
:1009500013F0BAFB0120C00323E0E10707D0B74A38
:1009600020321146083903F07BFC012019E06007B2
:100970000DD53078042808D1B4A009F07FFDB078F7
:10098000002802D1308903F065FD042009E0A007AA
:1009900009D5FFF7E5FDAA4A0221B07913F098FDC9
:1009A0000220604070BD200725D5707808212546BB
:1009B0004D4000281BD030797179884201D1002345
:1009C00009E00B21401C01F039FB31710B20414340
:1009D0009D480B300B18002B05D09A785978187861
:1009E000DB1CFFF783FF30797179884201D12846FB
:1009F00070BD204670BD002070BD38B5984809F024
:100A0000B3FB8E4C6946A0710120087001466A460E
:100A1000944803F037F80025ED43284605F0C8F860
:100A2000284604F051FAFFF729FEFFF7F9FC00F021
:100A3000A1FB8D48FFF701FD8C4800F0A8FB0121C8
:100A4000A07913F0F3FB38BD7C4A11615061704707
:100A50007A4AD160D071704708B53021032004F084
:100A600055F95021042004F051F93C21012004F0F3
:100A70004DF901206946087001466A467C4803F03A
:100A800023FC08BDF8B50E466C49074608781C469D
:100A9000154604281AD0022826D000F06BFA002848
:100AA00020D02021032004F031F93021042004F06B
:100AB0002DF90521012004F029F90120694608706B
:100AC00001466A466A4803F0FFFB0DE048780028BB
:100AD0000AD008794979884206D131463846FFF76D
:100AE00005FFF8BDFFF7B8FF23462A4631463846D2
:100AF00000F04BFAF8BD08B550480178042908D039
:100B00000020694608706A460121594803F0DCFB61
:100B100008BD008903F09EFC08BDF8B5002400283C
:100B200002D002242046F8BD002901D01824F9E79C
:100B3000454F79783878FFF7C1FE05001CD0BA78A8
:100B4000F91C0023082A09D8002004E00E5C9E420C
:100B500004D1401CC0B29042F8D308E00021F81C38
:100B600013F096FAB9782888FA1CFFF780FE0B225A
:100B70000021354813F08CFA304D2878042802D132
:100B8000288903F067FC002068712871024601463D
:100B90004120000102F076FFC4E7022070470A46B8
:100BA000014610B52548008902F052FD10BD10B570
:100BB00022490246234BC868C9791B7808E004889B
:100BC000944202D184799C4205D0491EC9B20830B2
:100BD0000029F4D1002010BDFEB517464A681D4615
:100BE00054781278089824020026099B14430028A0
:100BF00004D0204A944201D00B20FEBD1D4A921C15
:100C000094420AD01B4A293A944206D0194A193A0A
:100C1000944202D0521C944231D14889FFF7C7FF59
:100C2000002829D001970095044A4179126900797A
:100C3000156801232246A847064653E030440020A9
:100C4000983A0000664400208469002068696420A6
:100C500069646C65206576656E742E2E0A0000004E
:100C60003D090000140400004F0800004D0800007A
:100C7000050300004B2A00000020288032E0DA4AF9
:100C800094420ED1D94A1288904201D3072629E016
:100C9000121A9A4200DD1A4692B22A80C9680918CF
:100CA0001DE0D148401E844204D104202880C96838
:100CB000024614E0CE4A022094420DD0CA4AD21C09
:100CC000944205D101202880C8680078387009E076
:100CD000C74A521E944205D12880C968022238466C
:100CE00013F0E0F83046FEBDFFB583B084460C98A3
:100CF000002416460F46002802D00B2007B0F0BD96
:100D00007868417800780D020543B748801C854219
:100D100003D0B5481938854211D17889FFF747FFCC
:100D2000002859D006A901960091B24A417912696A
:100D30000079146800232A46A04704464CE0AA49DB
:100D4000AC486A46491C0069138B8D420AD1012BBD
:100D500041D13178002901D0012944D100294AD05C
:100D6000012148E0A249891F8D422ED101210C9812
:100D70000191009032463946604604F055F904006E
:100D80002AD17078317802020A439A497B89C8686F
:100D9000C97905E047889F4205D0491EC9B208308D
:100DA0000029F7D10020002816D006A9019600914D
:100DB000012A08D003238F4A417912690079166805
:100DC0002A46B04708E00223F5E78749C91C8D424F
:100DD00002D1012B02D00D2420468FE73178002963
:100DE00003D0012901D08024F6E7FA681170317828
:100DF000002904D00321426808469047ECE702210D
:100E0000F9E7F8B57B4E0421B07913F0BFFB01215F
:100E10003089FFF710FC0121308900F023FA37896F
:100E20007548F568874212D0F4790EE0688800288A
:100E300008D0694604F038FB002803D0C168384662
:100E400004F08CF8641EE4B20835002CEED10020CA
:100E50006A49707001240C70B07001460B2268481A
:100E600013F016F900F086F8002816D070690079A2
:100E7000800712D5A021032003F048FFA021042001
:100E800003F044FF0021012003F040FF6846047096
:100E90006A4601215B4803F017FAF8BDF8B5002750
:100EA000544D0E460446042803D0287804280BD05D
:100EB00012E0708928816F70684607706A460121C8
:100EC000504803F001FA07E0FFF79BFFE878042899
:100ED00002D1FFF7C1FDEF702869002805D0C26874
:100EE000002A02D03146204690472C70F8BD1346A8
:100EF0000A4610B5014644A009F0C0FA10BD10B56D
:100F000001203C4C002904D0012904D0022909D039
:100F10000EE0A0700CE00021A170002A00D16070EA
:100F2000E27005E0002A03D16070208900F044F9E6
:100F300020796179884206D06078002803D00821A2
:100F4000A07913F073F910BD38B50D462949096928
:100F5000002905D08C68002C02D02946A04738BD56
:100F60006946324802F0C4F900212846009A02F08E
:100F70006FFB38BD08B50020694608702B480E305D
:100F800002F0B6F96946087808BDFFB581B016468B
:100F90000746FFF7EFFF002824D0164C0B2160799D
:100FA000401C01F04BF8617120790D46814204D15B
:100FB0000B21401C01F042F821710B2045431048E1
:100FC00032460B3047552818029941708670C01C74
:100FD000049912F067FF6078002803D00821A079F7
:100FE00013F024F9A8E400004B2A00005C44002020
:100FF0000829000030440020FEFF00006644002065
:101000008469002005030000557064617465202523
:1010100064202D20496E742030782578202D204CB6
:101020006174656E63792025640A0000070400007E
:10103000F8B54B4C4949204603F090FF47492046FC
:10104000103103F08BFF474B10221A21464804F061
:1010500057F900904448C1690220FFF732FA42492B
:101060003E4809390F78383807714E784671C931D2
:101070004A890280498B41803B4901228271C91F04
:101080000D780573374B4C784473A03B5989018127
:10109000002141818273077546755B8F0382314B56
:1010A000603B5E8946828175057744775B8D03835B
:1010B0002D4C41838177641F0346257820331D71B1
:1010C00064785C71274C203C648904844184014627
:1010D0009A7128310320FFF7F4F9204907203839A5
:1010E000FFF7B6FC0098F8BD30B5204D002052192E
:1010F000039C1F4D13D01B2A04D1022903D00329BE
:1011000008D00A2030BD012B02D12178297030BDD2
:101110000D2030BD012BFBD12178A97030BD012BF2
:10112000F6D12178697030BD70B5104C01251219C7
:101130000F4C0498002A0FD000261B2A03D1022945
:1011400003D0032903D01E8004E0217800E0A178B9
:1011500001701D80002070BD6178F9E7406A0020B1
:10116000FFFF00001446002074440020CED5FFFF8E
:101170006844002010B54649464803F0EFFE464B50
:10118000102218460621603804F0BAF810BD424912
:10119000683908607047022070473F4B02460020C4
:1011A000643B002A03D0012A03D0022070471A882A
:1011B00000E05A880A8070473EB50446344904F07E
:1011C00091F8C0071ED000252B4601221B21204686
:1011D000009504F09FFC0290002813D02E48694629
:1011E0002038408B88800120C8800298002205703A
:1011F00001A9204604F072FA002803D01B2101A89F
:1012000004F0CEFC3EBD00207047FEB5089E0024D1
:101210001546002E01D00B20FEBD4F687A783F782E
:1012200012023A431D4FBA420ED1042B01D00D24B5
:1012300016E0C8681A46294612F034FE1649012005
:101240006839096888470BE0154CA24207D1012292
:10125000019200962A4603F0E7FE044600E00A24C5
:101260002046FEBD10B504460A48401E84420DD0FB
:10127000012907D0022909D1012120460EF0CAFB1D
:10128000002803D10249204603F068FE10BD00008B
:10129000606A0020FFFF0000944600204F2A0000F3
:1012A000022900000448804704480047FEE7FEE7A3
:1012B000FEE7FEE7FEE70000C1120000910000001B
:1012C00010B5FF4857210170A8210170FC4A882100
:1012D000403A1181002101700A2000F001FD012037
:1012E00000F04BFC10BDF0B5F54EF54D042757222C
:1012F000A824203E403DF249030009F0E7F80D081C
:101300000E161B1F24282C32373C41462F000A7032
:101310000C70F07BFB22104003E00A700C70F07B35
:101320003843F073C820288118E00A700C705120EF
:10133000C000F8E70A700C70E248F4E70A700C701D
:1013400081208000EFE70A700C708820EBE70A70BC
:101350000C700220E7E70A700C702F8100200870E3
:10136000F0BD0A700C7093208000DCE70A700C70EE
:10137000D4484D30D7E70A700C7095208000D2E732
:101380000A700C704B20C000CDE70A700C70CD487D
:101390005C30C8E7CA4810B540380089C1B20B06B6
:1013A0009A0FC948022A05D0012A04D09A0F06D004
:1013B0007D20000210BDC906C90EC44801E0C9065F
:1013C000C90E00F03BFE10BDBD4A57211170A82187
:1013D0001170BB4940394B150028088904D01843C7
:1013E00008810020107070479843F9E7B44A5721EC
:1013F0001170A8211170B24920390028C87B05D08E
:1014000004231843C873002010707047FB23184052
:10141000F8E7AB498A7B800792089200800F02436D
:1014200057200870A82008708A7300200870704741
:10143000A3498A7B8F231A4000010243572008707A
:10144000A82008708A730020087070479C4A203AD0
:10145000917B800789088900800F014398485723B2
:101460000370A82303709173002101707047944AA0
:10147000203A917B0907090F000101439048572347
:101480000370A82303709173002101707047FEB5AB
:101490008B48002740380089C0B201068A0F022A13
:1014A0004CD00124A403012A4CD0890F56D0052426
:1014B000002000902005000D01908148203884898B
:1014C00000267F49572230460A70A8220A7001235D
:1014D0008B747B4957220A70A8220A70784A203AF6
:1014E000948100220A708A7C9207FCD50A8A8A7C41
:1014F0009207FCD48A7C9207FCD5098A019A7F1C4A
:10150000891A0DB2FFB2002D37D02946714305D597
:10151000012834D0411C32D0002830D02E4602940D
:101520003046009900F0A0FD00B2211A8CB2029959
:101530008C4249D1002D45DD641C44E00220644CFE
:10154000C043B6E7C506ED0E2946624800F076FDB9
:101550000019C40B2320C043401B09E0C506ED0E53
:1015600029465D4800F06AFD0019C40BA81C4042E2
:10157000294600F079FD00B29BE70020FEBD002E59
:1015800003DA761EF04306B202E06D1EE84305B2B0
:10159000B5420FDD4A4857210170A8210170484A21
:1015A0000299203A9181002101707D20C000704392
:1015B000019903E07D20C0006843114600F054FD0E
:1015C00080B2FEBD641EA4B2142F82D3FF20FEBDE4
:1015D000FFB581B00C460746054600261AE0FF21FC
:1015E0009131681E00F040FD00290AD06421681E78
:1015F00000F03AFD002907D00320A9078007C14267
:1016000002D1FF206F3001E0FF206E3080196D1E87
:1016100086B2ADB231488542E1D80025012C25D9EA
:10162000032C05D0A01E062816DDE00718D115E012
:10163000FF219131384600F001FD00290AD06421D4
:10164000384600F0FBFC002901D0B80702D000208A
:101650001C3006E00120FBE7E00701D01F2000E07E
:101660001E208019641E86B2A4B2D7E70398182101
:101670003018401E84B2049800F0E0FCE120C00065
:1016800041430A981E22504309180B984008081835
:1016900081B20B98C00701D00120C0030A040243A5
:1016A000074957200870A8200870054E403E746313
:1016B00003482038437C80242343437472630FE043
:1016C00040100040020200000048E80100389C1C65
:1016D0001313000000180D8F00688909E40700004B
:1016E000427C40231A4342740D7005B0F0BDFFB533
:1016F0000746934883B0C06B0E4684049048A40C00
:101700002030418B008B01224900D203904201D34B
:10171000012000E00020081800908A48388010E07E
:101720000199002925D06421284600F087FC002972
:1017300001D0A8071DD0FF206E30201A6D1C84B286
:101740003D803D88FF219131284600F077FC0191D2
:10175000002911D06421284600F070FC002901D036
:10176000A80709D0FF206E30A042D9D900203080D0
:1017700049E0FF206F30E0E7FF206F30F4E7358865
:10178000012D04D0062D18D9E8071AD117E03888A2
:10179000FF219131019000F051FC00290BD0642110
:1017A000019800F04BFC002902D00198800702D07C
:1017B00000201C3006E00120FBE7E80701D01F20D5
:1017C00000E01E20201A84B26D1CA8B230800128CF
:1017D00004D0062817D9C0071AD117E03888FF218E
:1017E0000546913100F02AFC00290AD064212846E0
:1017F00000F024FC002901D0A80702D000201C30F2
:1018000007E00120FBE73078C00701D01F2000E08F
:101810001E20A042B3D93088641C401C308005983B
:10182000E12104800901009800F008FC069A10806C
:1018300008463C2100F002FC0C9908803C210098ED
:1018400000F0FCFB0D98018007B0F0BD3C49572229
:1018500040310A70A8220A70394A50633848203053
:10186000427C40231A434274002008707047344978
:10187000886B8A6B8242FBD17047314A10B5572181
:1018800040321170A82111702D4920314B7CE82481
:1018900023404B744B7C1024204303434B740020A3
:1018A000107010BD00B50346FFF7E1FF2649C018D0
:1018B000884201D9494240180104090C02D0012193
:1018C000090440181E49572240310A70A8220A70A4
:1018D0001B4A50631A482030427C20231A4342742A
:1018E0000020087000BD0021002802D0012802D08D
:1018F00002E0202100E01021114857224030027000
:10190000A82202700E4A2032537C8B43537400216C
:10191000017070470A4920310028087C02D040211C
:1019200008407047C009C0017047054920310028B0
:1019300004D0012801D11020087470472020FBE753
:1019400000100040E40700000000C0A800B5524AA3
:101950000B0008F0BBFD0504071016191F00516BA2
:1019600081430AE0516B81435163116B0143116361
:10197000116A81430DE0516B01435163116B814347
:10198000F5E7516B814301E0516B01435163116AEB
:101990000143116200BD404A00B540320B0008F01F
:1019A00095FD0504071016191F00516981430AE0CF
:1019B000516981435161116901431161116881438A
:1019C0000DE051690143516111698143F5E75169A6
:1019D000814301E051690143516111680143116084
:1019E00000BD2D4A002906D0012907D0022908D0C0
:1019F000032913D10CE0918A814304E0918A814349
:101A000008E0918A01439182D16A0143D16205E0E5
:101A1000918A01439182916A014391629083118A74
:101A20000143118270471C4B1B4A4033002906D0EA
:101A3000012907D0022908D0032913D10CE0D18A4B
:101A4000814304E0D18A814308E0D18A0143D182F5
:101A5000D9680143D96005E0D18A0143D1829968F0
:101A600001439960D083518A0143518270470A4AE9
:101A7000803A0028108B01D0084300E0884310838F
:101A80007047054A803A0028508B01D0084300E097
:101A9000884350837047000080100040F8B5624DC5
:101AA0005726614CA827203D0028267027702888DB
:101AB0000ED02115084328800A2000F011F9267065
:101AC0002770288861150843288000202070F8BD01
:101AD000032149028843F7E7F0B5534C57261C22EF
:101AE0008B07514DA8270A409B0F403C00282E70C1
:101AF0002F7010D0080603D5E07BFD210840E0736D
:101B0000A07A1043A07248482038C17B1943C173A2
:101B100000202870F0BD080603D5E07B02210843B1
:101B2000E073A07A9043A0723F482038C17B99436C
:101B3000EDE730B53C4C57233B4AA825403C0028F4
:101B400013701570E06804D08843E06000201070C6
:101B500030BD0843F9E730B5334C5723324AA82546
:101B6000403C002813701570A07B04D00843A0737C
:101B70000020107030BD8843F9E7F8B52A4D57268C
:101B8000294C0021A827203D0028267027700ED060
:101B900001206871287100202070012000F0A0F859
:101BA000267027700D20287100202070F8BD297143
:101BB0002170F8BD1D48016904229143016130BFC5
:101BC0007047194B57241C70A8251D7016494039C1
:101BD000887B0822104388730920134E0003203E9F
:101BE000308000271F70886B8A6B8242FBD1104ABD
:101BF0000A30904201D9524280180204120C02D0DD
:101C0000012212048018302232741C701D70486347
:101C10002F2070741F701C701D70052008811F70AC
:101C200040BF20BF20BFFEE74010004000ED00E0B5
:101C30000000C0A83C49062805D04979012282400D
:101C40001140084670470878082108407047364818
:101C500057210170A82101708179012211438171FE
:101C600000210170704731490968016000202F4947
:101C7000C0438031086070472C49086070472C4889
:101C800080697047284957220A70A8220A700028E4
:101C9000887905D0042210438871002008707047AD
:101CA000FB221040F8E7204957220A70A8220A7048
:101CB0000028887905D0022210438871002008701E
:101CC0007047FD221040F8E7174857210170A821FE
:101CD00001708179102211438171002101707047D8
:101CE00000220AE0022101E000BF00BF0B46491EAE
:101CF00089B2002BF8D1521C92B28242F2D37047C3
:101D000070B500247D260546F60004E03046FFF756
:101D1000E7FF641CA4B2AC42F8D370BD0549CA7A8F
:101D2000082AFCD0087270474010004000E100E033
:101D300000E000E00034004010B50446FFF72AFB45
:101D40000A214843C008214600F078F90A21401DC5
:101D500000F074F92249888110BD10B5E1204002DD
:101D6000FFF7EAFF1E48872181700321C1704021DF
:101D700041700121817310BD19498A789206920E33
:101D8000800102438A707047154A0028507806D0B7
:101D9000084350701078082108431070704788433A
:101DA000507070470E498020487070470C4A07E019
:101DB000D37A082B04D003781372491E89B2401CD1
:101DC0000029F5D1704701460020054A04E0137A46
:101DD000401C0B7080B2491C937A002BF7D17047DE
:101DE0000034004010B5FFF752FB022801D9FFF77D
:101DF0004EFB10BD30B55649CC7E0B7E4A7EC87E68
:101E000080252843C8760F20087621204876887ED2
:101E1000012528438876887EC007FCD1888BCC7644
:101E20000B764A7630BD30B58DB0122249A14E48AE
:101E300012F02AF8002841D0454857210170A82106
:101E400001705121424AC900403A118100210170BC
:101E50004748464A4261474A0724D3691B021B0A86
:101E600045042B43D36181610461016902229143DE
:101E7000016134220021684612F00AF93E480090C0
:101E800001204003694688801B20C8730520087420
:101E90000120487414208874FB20800202900D20D9
:101EA00008773648089036480A90084601F0DAF874
:101EB000010007D033A008F0E1FAFEE739A008F0EE
:101EC000DDFAFEE70DB030BD70B50C4609040AD549
:101ED00012F022F9002801D012F0F6F80121204674
:101EE000C903484070BDE00702D00120604070BDCA
:101EF000314DA00405D501F031F901262F4A7603B2
:101F000008E060040DD52EA008F0B8FA7D22D201B9
:101F10000126B6033146287812F0DAFA20467040DE
:101F200070BD002070BD10B5264808F01DF9224C88
:101F3000207000F063F862B6204A0121490320783E
:101F400012F0C6FA10BD10B500F0D0FF10BD0000B1
:101F50004010004043483537785F424C455F4C495C
:101F6000425F56312E37000058470100FEFFFF0048
:101F700000E000E004ED00E0744900207F1C000058
:101F8000F51D00004C494220696E6974206572722B
:101F90006F7220636F64653A202578202E2E2E0AFA
:101FA00000000000686561642066696C65206572E8
:101FB000726F722E2E2E0A00A146002000EE020043
:101FC0002A200000C91E00000104090C02D00121D2
:101FD00009044018164957220A70A8220A701449A9
:101FE0004039486313490020086070471049302089
:101FF000203908740F490120086070471CB50C484F
:1020000057210170A821017009492039CA7B072393
:102010001A43CA730021017000910B4601220191FD
:1020200011460548FFF7D4FA002008F0D1F91CBD8D
:1020300040100040A4460020E407000030B50B46E5
:10204000014600202022012409E00D46D5409D4292
:1020500005D31D469540491B254695404019154618
:10206000521E002DF1DC30BD70B50024254600283D
:1020700001DA01244042002901DA01254942FFF733
:10208000DDFFAC4200D04042002C00D0494270BD80
:10209000F0B51FB486B00020009001900290069821
:1020A000069980B204900798090C020400141143A9
:1020B00007900027089D099806913E463C460390EC
:1020C0000398A9B20204000C039004982D0C154348
:1020D00048430021224600F018F8C7197141103416
:1020E0000E46402CECDB3846029A00F00EF8009ABF
:1020F000019B801800905941029801911030029084
:102100004028CCDB00980BB0F0BD10B5202A04DBD2
:102110000146203A9140002010BD914020239C1A96
:102120000346E3401943904010BD03460B439B0711
:1021300003D009E008C9121F08C0042AFAD203E03C
:102140000B780370401C491C521EF9D27047F0B541
:102150001FB40646002082B005464024019100903D
:102160001BE0019922460F46304600F033F8049AEE
:10217000059B801A994110D3104619462246FFF755
:10218000C4FF361A8F410197224601200021009F8B
:10219000FFF7BBFF38184D4100902046641E002811
:1021A000DFDC019B00982946324607B0F0BD0000F5
:1021B000064C0125064E05E0E36807CC2B430C3C9A
:1021C00098471034B442F7D3FDF766FF504801003A
:1021D0008048010010B5202A04DB0846203AD04090
:1021E000002110BD0B46D340D0402024A21A9140BC
:1021F0000843194610BD70B58C180578401C6B0754
:102200005B0F01D10378401C2A1106D10278401CD3
:1022100003E006780E70401C491C5B1EF9D12B07A9
:1022200005D40023521E0DD40B70491CFAE7037825
:10223000401CCB1A921C03E01D780D70491C5B1CDE
:10224000521EF9D5A142D8D3002070BD10B5124C52
:102250002068C0051FD50320206000200821401CF5
:102260002268C0B20A4322600EE02268920510D4B0
:10227000222807D90948026B002A0AD0012103202D
:10228000904706E0401CC0B22268D205EDD5002878
:10229000E5D10020206010BD80C300408C6A002082
:1022A00070B514460D460646FFF7D0FF2D4803686B
:1022B0001968062291431960316899627168D96280
:1022C000B1681963F1685963296899616968D961CE
:1022D000A9681962E96859625968022291435960F4
:1022E0005D6801210D435D601D680D431D6000E0C8
:1022F00000BF59688907FBD55968914359609969AE
:10230000217001688969090A617001688969090C8D
:10231000A17001688969090EE1700068C1692171C5
:10232000C169090A6171C169090CA171C169090E0C
:10233000E171016A2172016A090A6172016A090C7C
:10234000A172016A090EE172416A2173416A090AA8
:102350006173416A090CA173406A000EE0730020AA
:1023600070BD0000EC48002070B50C460546FFF734
:102370006DFF28480268106820218843E907890E0C
:10238000084310608034E06C1061206D5061E0699A
:102390009061206AD061606A1062A06A5062E06A4F
:1023A0009062206BD062606B1063A06B5063E06B37
:1023B0009060206CD060D168236C1748994204D09B
:1023C000026B002A1ED0202107E0916AE36A99423D
:1023D00006D0026B002A15D021210320904711E07E
:1023E000D169236A994204D0026B002A0AD02221C3
:1023F000F3E71169E36C994206D0026B002A01D021
:102400002321EAE7012070BD1068402108431060D5
:10241000002070BDEC4800208C6A002070B50C468E
:102420000546FFF713FF28480268106820218843FB
:10243000E907890E084310608034606C1061A06C5D
:102440005061E0699061206AD061606A1062A06AA0
:102450005062E06A9062206BD062606B1063A06B88
:102460005063E06B9060206CD060D168236C17489B
:10247000994204D0026B002A1ED0102107E0916A15
:10248000E36A994206D0026B002A15D0112103207D
:10249000904711E0D169236A994204D0026B002A67
:1024A0000AD01221F3E71169636C994206D0026BDE
:1024B000002A01D01321EAE7012070BD10684021F5
:1024C00008431060002070BDEC4800208C6A00209A
:1024D00010B504F0C3FE024903F089FC002010BDD2
:1024E000060400000148006E70470000E46C002004
:1024F00008B5002808D0002906D0002A04D010888A
:10250000002801D0002008BD1220694608706A46E4
:102510000121034803F067FC6946087808BD000004
:10252000350C000008B504F0BDF9694608706A462C
:102530000121034803F057FC6946087808BD0000F4
:102540002720000008B504F0F7F9694608706A46CC
:102550000121034803F047FC6946087808BD0000E4
:102560001120000008B504F02FFB694608706A4688
:102570000121034803F037FC6946087808BD0000D4
:102580002920000008B504F025FB694608706A465A
:102590000121034803F027FC6946087808BD0000C4
:1025A00010200000FEB508AF70CF6F4670C704F072
:1025B00037FB0446024903F01AFC2046FEBD00002A
:1025C0001320000008B504F039FE694608706A4619
:1025D0000121024803F007FC002008BD0E20000086
:1025E00038B5044605F0B5F8694608704C70200A05
:1025F00088706A460321024803F0F5FB002038BDCD
:102600001B20000038B5044605F0BBF86946087089
:102610004C70200A88706A460321024803F0E3FBED
:10262000002038BD1A2000000EB500A8013005F0CA
:10263000FCFB694608706A460921024803F0D3FB97
:1026400000200EBD1820000008B500A8013005F0DC
:1026500001F8694608706A460421034803F0C3FB89
:102660006946087808BD00000220000038B504461D
:1026700005F036FC694608704C70200A88706A467E
:102680000321024803F0AFFB002038BD21200000E9
:102690007FB5044608A861C80090029601952046BF
:1026A00005F036FC694608734C73200A887303AA48
:1026B0000321034803F097FB002004B070BD000025
:1026C0002020000008B505F021FF694608706A4621
:1026D0000121034803F087FB6946087808BD000024
:1026E0002D20000008B505F0AFFF694608706A4666
:1026F0000121034803F077FB6946087808BD000014
:102700000820000008B505F027FF694608706A46F2
:102710000121034803F067FB6946087808BD000003
:102720000A200000F0B585B00AACF0CC03976F46E4
:1027300070C705F0A9FF6946087404AA012103487F
:1027400003F051FB6946087C05B0F0BD062000008F
:1027500008B506F023F8694608706A460121034867
:1027600003F041FB6946087808BD00000520000021
:1027700008B506F051F8694608706A460121034819
:1027800003F031FB6946087808BD00002E200000E8
:1027900008B506F057F8694608706A4601210348F3
:1027A00003F021FB6946087808BD00000C200000FA
:1027B00008B506F089F8694608706A4601210348A1
:1027C00003F011FB6946087808BD000009200000ED
:1027D00010B506F0E0F8024903F009FB002010BD37
:1027E0001920000010B505F00CF810BD1CB500A8AC
:1027F000013005F029FB694608706A460721034845
:1028000003F0F1FA694608781CBD000009100000C9
:1028100010B505F0D3FD10BD0A7802708A784270B9
:102820004A88120A82700979C170042070470A78B8
:1028300002700988090A41700220704708888004E4
:10284000000C70478A78027088780128088804D0C4
:1028500012214843401C80B270478000FAE70A7892
:1028600002700A88120A42704888801C80B2704741
:102870000A7802700A88120A42708A7882704A883E
:10288000120AC2708888001D80B27047088870479D
:102890008A780270088849884843401C80B2704793
:1028A0008A780270088849884843401C80B2704783
:1028B00008887047088870477FB515460446022986
:1028C00001D0102903D1022B04D0102B02D00020FC
:1028D00004B070BD994202D10A46294607E010298A
:1028E000694607D000F00EF810226946284611F01C
:1028F000CBFAEDE7104600F005F8102269462046B5
:10290000F5E7000070B50C4605000CD0002C0AD08D
:1029100010220649204611F0C5FA287820736878FD
:102920006073012070BD002070BD000000480100F0
:1029300008B500220B4600920122024907F094FFDD
:1029400008BD00001928000008B50A88172A07D317
:1029500000220B4600920322024907F085FF08BDC2
:10296000022008BD2F28000008B500210B461922BF
:10297000009107F079FF08BD38B5054608880C4678
:1029800000280DD0606800280AD0012111F038FA23
:102990000090234607220349284607F065FF38BD0B
:1029A000022038BD3D28000038B5054688780C4621
:1029B000012801D0022810D1208800280DD060689D
:1029C00000280AD0022111F01BFA009023460522AC
:1029D0000349284607F048FF38BD022038BD0000F3
:1029E00045280000064910B5884202D103F0D4FD05
:1029F00010BD0CF05FFF0028FAD1172010BD0000B9
:102A0000FEFF000038B505464A6800200C46002A43
:102A100003D00321104611F0F3F9009023461D2244
:102A20000249284607F0DCFE38BD00005F280000A0
:102A300038B505464A6800200C46002A03D0032119
:102A4000104611F0DDF9009023461B22024928466A
:102A500007F0C6FE38BD00005F28000002480021D4
:102A60000160416070470000104900200098022B6F
:102A700001D0042070475178127809021143018077
:102A8000002070470098012B01D004207047117876
:102A900001700020704770B5049C1E461546062B39
:102AA0001BD368782978000208432080E878A97849
:102AB000000208436080022020710246291D601D2B
:102AC00011F0F0F9B01F2081062E03D0AD1DE56096
:102AD000002070BD0020E060FAE7042070BD00987F
:102AE000042B01D004207047517813780902194350
:102AF0000180D1789278090211434180002070470B
:102B0000F8B584890D46002C2BD0866837783906B5
:102B100001D4002010E00D2C23D30C3CA4B23119B9
:102B20000091408823463246012107F027FA002809
:102B300001D0022000E0012079062870C90FBA06F2
:102B40006970920EAA70641E2204120CAA8002D030
:102B5000761CAE6001E00022AA60022803D10029A1
:102B600001D00120F8BD0020F8BD10B50298042B5B
:102B700014D351781478090221430180D1789478D4
:102B8000090221434180191F8180042B02D0121DAC
:102B9000826001E000218160002010BD042010BD92
:102BA0000098042B01D00420704751781378090253
:102BB00019430180D17892780902114341800020A5
:102BC000704710B502981146062B03D0142B03D082
:102BD000042010BD022200E0102202714A780B7816
:102BE00012021A430280CA788B7812021A4342807A
:102BF0000279401D091D11F055F9002010BD009803
:102C0000D90706D1022B04D0590881800260002028
:102C10007047042070470098022B01D004207047B1
:102C2000517812780902114301800020704710B5D5
:102C3000029C022B11D3207261725078117800022D
:102C400008432080981E6080022B02D0921C626094
:102C500001E000206060002010BD042010BD0000D5
:102C600038B5054688680C46002802D0052111F0C9
:102C7000C7F80090234617220249284607F0F4FDC2
:102C800038BD00007128000038B5054648680C467C
:102C9000002802D0012111F0B3F8009023460D2244
:102CA0000249284607F0E0FD38BD00008D280000ED
:102CB00038B5054608880C4600280DD06068002805
:102CC0000AD0022111F09CF80090234611220349FA
:102CD000284607F0C9FD38BD022038BD9128000004
:102CE00038B5054608880C4600280DD060680028D5
:102CF0000AD0022111F084F80090234609220349EA
:102D0000284607F0B1FD38BD022038BDA1280000DB
:102D100038B5054648680C4600280AD0012111F054
:102D20006FF8009023460F220349284607F09CFDC8
:102D300038BD022038BD0000B128000038B5054676
:102D40004A6800200C46002A03D00121104611F0E9
:102D500057F8009023460B220249284607F084FDCD
:102D600038BD0000B5280000014908607047000028
:102D70001049002070B5054608480C46854205D02C
:102D8000172C03D303F008FCA04201D2012070BD30
:102D9000214628460CF04EFE70BD0000FEFF0000EC
:102DA00008B500210B461322009107F05DFD08BD18
:102DB00004480349006801600349C162704700008C
:102DC000A5220801F0480020784E010010B5074CFC
:102DD0005D202168086506F00FF820680021016574
:102DE00003484279521C4271C17110BDC84600208F
:102DF000E06A002070B52C49002048602B4800890B
:102E00002B4CC0B28109022904D0012908D08109C4
:102E100016D026E0D020A0800820E080E8201FE027
:102E2000C506ED0E2D2029468001FFF707F9A08089
:102E300029467820FFF702F9E08029461D480DE079
:102E4000C506ED0E2946C020FFF7F8F8A0802946F8
:102E50000820FFF7F3F8E0802946E820FFF7EEF8B6
:102E6000208116491448086016491548086017491A
:102E70001548086017491648086018491648184C44
:102E80000860184920680122D20208618018486150
:102E90000120487100F062F9607D002802D11249DA
:102EA0002020086070BD0000CC46002000100040CB
:102EB000C06A0020980D000000C00040F4480020C7
:102EC00000C30040EC48002000C20040C84600207B
:102ED00000D00040F848002000C10040F048002029
:102EE0008C6A0020E06A002000E100E0F8B5564856
:102EF000006881680127C9050025544C544E0029FB
:102F00002EDA81683A0291438160207840060CD520
:102F1000504851490068884206D15049886BE060AA
:102F20008A6B9042FAD100E08047207838432070C5
:102F30006570E079062803D043495D20096808657B
:102F4000306800280AD001690A68406902430A60B3
:102F500031680868026889680A4302606571A56083
:102F6000394B18688168890521D581680122520290
:102F700091438160A0783843A070E57038480068BC
:102F8000C16A89088900891CC1620168D2041143A1
:102F90000160306800280AD041680A6880680243EE
:102FA0000A603168C868026849690A4302601868A3
:102FB0008168890717D58168022291438160E77093
:102FC000A5705D210165306800280AD001690A6892
:102FD000406902430A6031680868026889680A43E8
:102FE00002606571A56018688168C90715D081689D
:102FF00049084900816025706770306800280AD050
:1030000041680A68806802430A603168C8680268DB
:1030100049690A4302606571A56018688168C9063C
:1030200003D581681022914381608168490703D5E7
:1030300081680422914381608168090703D5816812
:10304000082291438160F8BDC8460020E06A002054
:10305000D0460020C4460020F19A00000010004035
:10306000F048002070B504460068002828D00121EF
:10307000000C4903884223D1A088002820D0204694
:103080000622FF21163010F0F0FE01281AD0A28887
:103090000021206810F0FCFF342200212D4810F0A0
:1030A000F7FF342221462B4810F0FCFE2948062267
:1030B00016300021054610F0D8FE012804D008E0A3
:1030C000022070BD032070BD23490622284610F05F
:1030D000E9FE20488189002902D10121490281812C
:1030E000827B0121002A00D18173C27B002A01D199
:1030F0001B22C273027C002A01D105220274427C89
:10310000002A00D14174817C002901D114218174ED
:10311000817F002901D128218177C17C002908D035
:10312000827FE17C92088918C174617F002904D0F4
:1031300005E0817F89082D31F6E702214177806A19
:10314000002803D0804703493431488106F0C4FF8A
:10315000002070BD8C6A00200806040010B500F045
:1031600065F803F081FB05F0E1FDFFF721FE0B4C54
:103170005D202168086505F0F1FE06F0AFFC05F062
:10318000B5FE05F039FE0648012141712268002193
:103190001165C171FFF75AF810BD0000C846002044
:1031A000E06A002070B50E4B00209989002901D1FA
:1031B0000C4999810E210124A4039A8915462540C2
:1031C000CD405204120C0543E8B25604D50BF60F5D
:1031D00075401543491EC9B29D810629EDD870BDC1
:1031E000E46C0020FF7F000070B50E4B0020598971
:1031F000002901D10C49598108214C015A891546F1
:103200002540CD4005435200E8B2550A56097540A5
:10321000ED07ED0F1543491E09065D81090EEDD13D
:1032200070BD0000E46C0020FF0100000A4809495D
:1032300000680A6902610A69426149698161C16184
:103240008268012149030A438260C2680A43C2605E
:1032500070470000E06A0020F448002030B5104AB2
:103260000346517AFD20842454720E4CA568002D2B
:1032700007D0A57B002D04D0A489E51FFF3DFA3DB2
:1032800002D05172FF2030BD7D24E402A34205D359
:103290005360A6201072907A40235840517230BD7E
:1032A000001800408C6A0020F8B500240F4E274615
:1032B00013E0F06B250128180622FF2110F0E8FE2C
:1032C000F06B06222818FF21801D10F0E1FEF06B44
:1032D00028188781641C8773E4B2307E8442E8D367
:1032E000002010F0B5FF307E7076F8BD4848002011
:1032F00070B50C460146012080020A1A00252B48B1
:10330000130007F0E3F820111316181A1D1F2123CC
:103310002527292B32343648393B3D3F434848481E
:103320004848484848464148007800E040782070C6
:1033300039E08078FBE7C078F9E710221C4910E0FB
:103340000079F4E74079F2E7006A13E08079EEE76C
:10335000C079ECE7007AEAE7407AE8E714491022FE
:103360001031204610F09EFD1DE0807ADFE7C07A24
:10337000DDE7406A206016E0007BD8E7407BD6E7B7
:10338000807BD4E7407CD2E7807CD0E707F0E2FF87
:10339000CDE7807DCBE7192904D2084601F058FA21
:1033A000208000E00225284670BD0000484800202B
:1033B000186C002010B5044600F0D4F80248C4751B
:1033C00008F002F910BD000048480020FFB58FB09A
:1033D000064600200C900D901F460CAA304600F0C7
:1033E000B5FA454D0446287E84425AD2204608F05C
:1033F000CBF80646042F04D0A879022803D0002079
:1034000002E02878F9E7012000903B463246214649
:10341000119807F077FF1422002101A810F038FE60
:1034200020460621484300902430C0B201AA102152
:1034300010F06CFF002813D11022FF2101A810F01A
:1034400014FD00280CD1009805AA2530C0B2042133
:1034500010F05CFFF107C90F01AA119801F070FC90
:103460007034E0B206AA182110F050FF002811D1E4
:1034700006A808F09BF80024A10006A808180188F7
:10348000002903D08278119801F09AFF641CE4B2FD
:10349000062CF1D3B00706D5E97D119801F07EFF27
:1034A00001E0082F02D0042F13D021E0A8790228D0
:1034B0001ED100223146119807F05EFEA86A00284E
:1034C00016D04368002B13D000221146119898475C
:1034D0000EE0287802280BD129791198002900D014
:1034E00001216A78002A00D00422114301F0EEFB8A
:1034F000002013B0F0BD000048480020F8B501F0EE
:103500003DFA00282BD1164D0026E87C012801D079
:1035100000241CE007F06AFFEE7400202A7EE96BAD
:1035200004E003015B18401C9E73C0B29042F8D3C4
:1035300010E0E86B27013818807B012805D1204670
:1035400007F066FFE86B38188673641CE4B2287EC7
:103550008442EED3502010F09DFE08F035F8F8BDFF
:1035600048480020F8B5354EFF20F0750027377623
:10357000334CF763A07B30214843422110F0AEFC6E
:10358000F063002825D02046807B4100401830762B
:10359000002413E0F06B250128180622FF2110F00B
:1035A00077FDF06B06222818FF21801D10F070FDBA
:1035B000F06B28188781641C8773E4B2307E8442E4
:1035C000E8D31F488068002801D0B77601E080204A
:1035D000B076307E70760124776334707770B77080
:1035E000F77010220021174810F052FD377177252F
:1035F00075713762B471F7711248377277721022A1
:103600000021103010F044FDB772F5727762377305
:10361000052070731020B073F77302203074B76206
:10362000F76237637774F774347504487475B4754A
:1036300005494830016005494160F8BD484800200F
:103640008C6A0020186C0020D9B80000A1B80000D6
:1036500070B50024054600290BD108491046FEF735
:10366000EDFC0846294601F0E5F9040003D00121EC
:10367000284601F08DFB204670BD000040420F003F
:1036800010B506490C46483CA162E062E17D182075
:1036900001F03CFBE07D01F02DFE10BD90480020C4
:1036A00070B5264D0C4608040FD5E87D10F034FDAA
:1036B000050006D008F02EF8002802D0284610F0A9
:1036C00003FD0120C003604070BDA0070BD50021A1
:1036D000084607F0B3FC02214C40002825D1E87DC4
:1036E00010F0A4FD1FE0E00721D0686B808808F08F
:1036F00043F801214C40002817D0A86A00280DD0BB
:103700004368002B0AD0686B002280889847A96A1A
:10371000686B00224B68808803219847287D10F051
:10372000D5FD07F07DFC204670BD0121D7E760077D
:1037300002D50420484070BD002070BD48480020DC
:103740007FB5044680787F4D801F030006F0BEFEE3
:103750000AF4F7F7A41306F0F778B9F7A96A204638
:10376000002907D00C68002CFBD0437B027B4189E9
:10377000C01CA047E3E060780026002847D1A0796C
:10378000C00744D0686B002841D110220021684650
:1037900010F07EFC6169002903D0062268461031D2
:1037A00007E0A0880BF0B0FF0028E3D0811D0622BF
:1037B000684610F077FB69468889A1794907C90FE7
:1037C00008436946888107F0C5FD297E88420BD1F0
:1037D000A87D002801D0FFF767FD5B48026B002A37
:1037E00002D001210820904707F0B4FD297E8842CD
:1037F000A87E02D10121084301E040084000A876DC
:103800002146684607F01AFC002812D01526A86A3F
:10381000002855D04368002B52D06278A08801213F
:103820009847002E4CD0A96AA0884B6832460321E5
:1038300073E00221E87D10F0F9FC002004B070BDB7
:103840006078062817D1A0880BF05EFF060012D022
:10385000287C012804D0022808D003280BD114E0CA
:103860007179A088002207F087FC04E0A1883078F5
:10387000052201F09DFAA86A002860D04368002B59
:103880005DD06278A088022147E0002241201146E5
:10389000000100F0F7F8E9E7E0780022211D00F0D0
:1038A00055F8297E88424AD20621484325302246CF
:1038B000C0B20C32042110F06DFD287D10F006FD21
:1038C0003DE0287B002802D0A088697B28E028788A
:1038D0000028A08823D00BF017FF06002FD0A07A75
:1038E000C0070BD07079002808D0A189890505D4BC
:1038F0006A46B11D00F02AF8002814D022467179DA
:10390000A088083207F038FCA86A002817D043685E
:10391000002B14D00022A088114698470FE0052103
:1039200001F036FA0BE0A0880321F9E700E003E09C
:10393000A08800F031FA02E0A088FFF7DFFD012047
:103940007CE70000484800208C6A0020F0B52E4E2D
:1039500085B0347E15460F46002806D0012804D0D5
:10396000022811D003284BD121E0084607F0C4FDFE
:10397000317E0446884243D2002D41D0062239468A
:10398000284610F08FFA3BE000240BE0F16B200199
:10399000401806223946801D10F076FA002826D1FC
:1039A000641CE4B2307E8442F0D3C4B21FE0002431
:1039B00019E02046062148432330C0B26A46102150
:1039C00010F0A4FC00280CD11022FF21684610F052
:1039D0004CFA002805D13946684601F045F900281F
:1039E00005D0641CE4B2307E8442E2D3DDE7307E51
:1039F000844205D2002D03D02946204607F0A4FDBD
:103A0000204605B0F0BD000048480020F8B50E463D
:103A100019491525194F884214D1002409E032466E
:103A20000221204607F0B0FC002800D00025641CCD
:103A3000E4B2387E8442F2D3002E1BD010480BF043
:103A400081FF17E00BF060FE040012D060790022C5
:103A5000A11DFFF77BFF397E884204D23246022146
:103A600007F092FC0025002E04D0204607F0EEFD62
:103A700000E014252846F8BDFFFF0000484800205C
:103A80004DB60000F0B50746012080021546381AF1
:103A900089B00024BC4ABD4E030006F017FD20117A
:103AA000181F262D333A3F464D545B626970757C72
:103AB000EFEEEDECEBEA89E9E8AAAAF3F6E5E4EB30
:103AC000012971D1287802286ED8307059E1012976
:103AD000F7D128780128F7D8707052E10129F0D188
:103AE00028780428F0D8B0704BE10129E9D1287872
:103AF0000128E9D8F07044E11029E2D110222946CA
:103B0000A348ADE00129DCD128780128DCD8307148
:103B100037E10129D5D12878707132E10429D0D15B
:103B200028689042D0D830622BE10129C9D1287889
:103B30000228C9D8B07124E10129C2D1287801280E
:103B4000C2D8F0711DE10129BBD128780428BBD867
:103B5000307216E10129B4D128780128B4D87072E6
:103B60000FE11029ADD18A4810222946103077E0A4
:103B70000129A6D128780128A6D8B07201E101292F
:103B80009FD12878F072FCE004290DD1286890427A
:103B90000AD87062F5E0002906D100F0EFFE002897
:103BA00003D00120F074ECE074E007F01FFC1CE08F
:103BB00007296FD10622691C684610F073F928782E
:103BC00000226946FFF7C2FE0546307E854239D2A3
:103BD00000F0D4FE002805D0F26B012029018918DD
:103BE0008873CEE0284607F013FC502010F052FBFB
:103BF00096E007294ED10622691C07A810F052F959
:103C00002878002207A9FFF7A1FE317E88421BD247
:103C10000621484305462135E8B26A461C2110F0CA
:103C200075FB00280ED15B48874201D1012000E0DE
:103C3000FF206946C876E8B26A461C2110F0AAFB4C
:103C4000307D4BE002249CE0B07E0028FAD0514841
:103C5000874214D10120F0764C4807222946403093
:103C600010F020F98DE05EE07AE00EE00AE075E009
:103C70006FE067E07BE04AE041E039E031E00020BE
:103C8000F0767EE0002070757BE0002701207075E3
:103C90003D461BE066E0284606214843064621369D
:103CA000F0B26A461C2110F031FB00280CD16846A6
:103CB000C07EFF2808D0FF206946C8760127F0B2F1
:103CC0006A461C2110F066FB6D1CEDB22F48007E89
:103CD0008542E0D3002F54D02C48007D10F0F6FA36
:103CE0004FE001293ED1287801283BD8307348E0C5
:103CF000012937D12878092834D8707341E0012987
:103D000030D12878C11F09292CD8B07339E0012996
:103D100028D1717C28787074002932D1012830D1E3
:103D200007F052FC2DE001291CD1B17C2878B07439
:103D3000002903D1012801D107F046FCB07C02F034
:103D4000E2F81EE001290DD1287803280AD8307442
:103D500017E0012906D12878307512E00120BDE76F
:103D6000012901D018240CE02878B07509E0192F3A
:103D700000D367E70229FCD12988384600F0C6FF46
:103D80000446204609B0F0BD3F420F0048480020DD
:103D9000186C00201A040000FEB5064600200190B1
:103DA000029030460BF0B0FC040017D0144FB879E5
:103DB000022813D0607901AAA11DFFF7C7FD0546AF
:103DC000387E85420BD2284607F0DEFB02460120F2
:103DD000009008232946304607F094FAFEBDB879D2
:103DE000002807D00128F9D161790022304607F078
:103DF000C3F9FEBD0521304600F0CAFFFEBD00003C
:103E000048480020F7B516491525164E1746884232
:103E10000FD1002409E03A462046019907F020FC22
:103E2000002800D00025641CE4B2307E8442F2D326
:103E300013E00BF069FC00280ED04379811D0022AD
:103E40001846FFF783FD317E884206D23A46019933
:103E500007F006FC002500E014252846FEBD000002
:103E6000FFFF00004848002070B50C4601460320C3
:103E700000020A1A00252548130006F027FB130B41
:103E80000D10171A1E2125292B2D3133393B3D3DAD
:103E900035373D00407811E010221D4902E01C49F1
:103EA0001022103120460FF0FDFF2DE04069206008
:103EB0002AE0164906221E31F4E7C078207023E07C
:103EC000124982782431EDE7114902791F39E9E777
:103ED000407AF3E7807AF1E70C4906221831E1E7EE
:103EE000C07AEBE7007BE9E7C0890AE0008A08E0D6
:103EF000007AE3E74079E1E7192904D2084600F0A7
:103F0000A7FC208000E00225284670BD9C480020C8
:103F1000776C0020F8B5164CFF20207000256570E6
:103F20000320A0700126E670062765611920E7814D
:103F3000C001208220461F222946243010F0A8F814
:103F400020460221243001704670877025711F229F
:103F50000021084810F09CF8204606220021183065
:103F600010F096F86571A571FF20E071F8BD0000B2
:103F70009C480020586C0020FFB583B01C461546B5
:103F80000E460C9F03980BF0BFFB002817D0C18989
:103F9000B14207D3A94205D8018AA14202D1408A81
:103FA000B8420ED06846068045808480C780694646
:103FB0000D9A039802F0C2FA002007B0F0BD142059
:103FC000FBE71820F9E7000010B52548007F8007BF
:103FD00044D0244C2078FF2840D1234806F0C4F870
:103FE0002070FF283AD0214900240C602049214A42
:103FF0000C700421117000F031FE102200211E48C7
:1040000010F046F8102200211C4810F041F81C481E
:104010001E4904601B48184A04701B48047007209E
:1040200008701B4810210470022010F06FF9134A29
:104030001021032010F06AF910220F4915480FF0E3
:1040400031FF144810220D4910300FF02BFF0421CE
:104050000B4A084610F05AF9002010BD182010BD78
:104060008C6A00209C480020F940000098480020FD
:10407000A44800209D480020776C0020876C002019
:10408000B0480020A5480020A6480020A7480020EE
:10409000A8480020386C002010B504F033FC10480C
:1040A00006F062F802F08AFA0E4806F05DF800F0B9
:1040B000DBFB0D4806F058F801F0D2FA0B4806F089
:1040C00053F805F0DBFD0A4806F04EF8FFF772F9E9
:1040D000084806F049F800F00DFFFFF775FF10BD26
:1040E00001670000794B00006D5700008D9D0000B6
:1040F000A136000075500000FEB54A4C0D4608047C
:1041000048D5207810F008F8040040D046480078E0
:10411000002808D02078454ED02808D0A22802D008
:10412000912821D014E0204608F078FC2CE0A078FB
:1041300000280DD0052807D0082809D006280BD064
:104140000728F0D1A0881BE0608919E0007B04E01B
:10415000204608F063FC02E0E0790828E3D121461C
:10416000307810F011F812E060780E28F0D1A088B5
:104170002F498842ECD1A068817842780802104328
:104180000BF0C2FA0028E1D120460FF09DFF01207C
:10419000C00345E068040BD50421264A084610F008
:1041A000F9F82548007810F091F80120800337E0F5
:1041B000E80736D021480078002830D00BF0DAFB31
:1041C0001F49097F8907890F884203D30320694665
:1041D00008700CE01B486946007808701A480622EF
:1041E0000078487000A8194902300FF05BFE1848AB
:1041F000694600780872174800784872207800F005
:104200004FFB00280BD01449062008701349096899
:10421000002904D00A68002A01D00021904701201B
:104220006840FEBD9C480020A2480020A348002012
:1042300005140000B04800205C4800209F48002082
:104240008C6A0020A5480020A6480020B448002021
:10425000A7480020A8480020A44800209848002033
:104260007CB514460D4601F0FBFA002D02D028461D
:10427000FFF706FA0C480078002801D011207CBD19
:10428000002C01D0094804600A48009008490B48F6
:10429000019102780A48084B01780A48007800F03A
:1042A00059FA00207CBD0000A44800209848002056
:1042B000B0480020876C0020776C0020A1480020C7
:1042C0009D4800209C480020F8B50C465E491646E3
:1042D000421819210025C9015C4F130006F0F6F8B9
:1042E000120A1017A81C3E526970778188A8A3A8EB
:1042F000A88F98A8102C73D11022314654486CE036
:10430000102C6DD1524810223146103065E0042C3B
:1043100066D13068786190E0012C61D1F97830780D
:104320004A4AF870127800290AD0002807D1387A52
:10433000022801D0052802D1104600F05FFA7CE087
:1043400000287AD0387A012803D0032801D0042825
:1043500073D1012110460FF069FF6EE01F2C60D869
:104360003A481F22002124300FF092FE374822469F
:10437000314624300FF096FD344BBC702433224676
:10438000012112E01F2C4CD831481F2200211F3878
:104390000FF07EFE2E48224631461F380FF082FD78
:1043A0002B4B3C711F3B22460021387800F044FD26
:1043B00048E0012C35D13078042832D878723CE0BE
:1043C000012C2ED1307803282BD8B87235E0062C7A
:1043D00027D11E480622314618300FF063FD2CE02D
:1043E0001FE0012C1DD1307807281AD8F87224E07C
:1043F000012C16D13078032813D838731DE030888B
:10440000022C0ED106280CD388420AD8F88114E079
:104410003088022C05D1062803D3884201D838827F
:104420000BE0182509E0012CFBD13078787104E00D
:10443000192801D2022C02D002252846F8BD318865
:1044400000F064FC0546F8E7FFFCFFFF9C480020F5
:10445000776C002010B504460BF056F9002805D003
:1044600000781322214600F0A3FC10BD122010BDDD
:10447000F8B50E46070048D038880BF045F905001E
:1044800041D0234AA96BD078022806D0012804D055
:10449000287B082803D1002E01D0122436E0002901
:1044A00001D0112432E01B492C200FF017FD0446E7
:1044B000A863200025D02C2200210FF0E9FD3888C8
:1044C00060801C22391D201D0FF0ECFC02202070A2
:1044D0000F483A880178287B082810D00020231D37
:1044E00005F001FD0446002E03D0314628460EF0AB
:1044F000DBFA002C0AD0284607F01AFB06E0012060
:10450000EDE7132402E0142400E002242046F8BD65
:104510000649002014470000FFB51F4881B0C0784D
:104520001E4617460D46022818D0012816D0002F27
:1045300030D001980BF0E8F8040029D0E06A002898
:1045400001D00FF01FFD1C2138460FF0B7FCE062D0
:10455000011E1BD0207B082803D00DE0122005B0DF
:10456000F0BD002E08D0887E00900B4612330A8AD8
:1045700001980EF0E1FD00E000202179002D01D02E
:10458000062200E0042211432171E8E71320E6E748
:104590001420E4E70220E2E70649002010B50548B0
:1045A000C078000701D5044800E0002008F03EF97B
:1045B00010BD0000064900202449002070B51A4CA7
:1045C00005460121207807F0D9FA1848C1780A2059
:1045D000014223D02570164808F022F960680028AF
:1045E0001AD1207800281DD0000107210FF076FC99
:1045F0006060002810D021780A0100210FF048FDEA
:104600000020FF21626803E00301401CD154C0B2C6
:1046100023789842F8D305E0132070BD0020207065
:1046200008F0FEF8002070BD18490020064900205F
:10463000986C00200949002008704860886009488B
:1046400007490160084941600849816003480849F9
:104650000C30016007494160704700001849002094
:104660007DBA0000986C0020A1C30000FDC20000CC
:104670005DB9000095B90000F3B5334F0025BE7851
:1046800083B0044603282DD83878032802D01020A0
:1046900005B0F0BD012C04D0022C02D0032C29D08F
:1046A0002DE0049800280CD00622002168460FF067
:1046B000EFFC0622694604980FF0E6FB002811D1B2
:1046C00004E0062168460DF0E1FF18E00622FF2114
:1046D00068460FF0DDFC0622694604980FF0D4FB13
:1046E000002801D00220D3E70622684604990FF083
:1046F000D9FB04E06946F86805F04DFA0546134811
:10470000BC70007804210FF041FF00207871002D6B
:1047100001D0BE7015E0002C13D0684607F070FD84
:104720000500F6D1032C0CD1112000F091F8000601
:10473000000E787105D00548054A007804210FF075
:10474000B5FE2846A4E70000386B0020064900208B
:1047500000770100F8B50224079F1D46164604297C
:1047600019D004DC012907D0022945D10BE0082922
:104770001BD00C2940D129E000F040F904003BD1C6
:1047800000F094F938E000F039F9040034D13046F3
:10479000FFF714FF30E000F031F904002CD13A4665
:1047A0002846069900F064FA20E000F027F904009A
:1047B00022D13A462846069900F05AFA3046FFF7C9
:1047C000FDFEFFF7EBFE05F06BFA15E000F016F9C1
:1047D000040011D13A462846069900F049FA3046BD
:1047E000FFF7ECFEFFF7DAFE05F05AFA00F05EF98B
:1047F00000F044F905F02EFB2046F8BD70B5104CD2
:104800002168002919D00978814214D10D4D022167
:1048100028780FF0BBFE0C4800264680287804213B
:104820000FF0B4FE0948467121680320487000204B
:1048300001F071FB70BD032070BD122070BD00003F
:10484000E84600200649002000470020386B002081
:10485000192801D30248704702494000085A70479E
:10486000FFFF0000586B002010B5044600F08AF8E6
:1048700000F062F9FFF7DEFEFFF74CFB0649FF236D
:10488000CB7000228A700A710448052143700470BD
:10489000204601F07DFF10BD386B00200649002046
:1048A000F3B5304E0024306883B0002802D01120C8
:1048B00005B0F0BD2C4D0521E878084201D1122049
:1048C000F6E72A494968002905D00978002902D06D
:1048D000C00702D008E01020EAE700F04FF80746D2
:1048E0000BF02AF8874207D304980078022803D0F7
:1048F000032801D0122432E01D490C200FF0EEFAFB
:10490000306000282AD003990170002141700A22EA
:10491000801C04990FF0C6FA164EB078032806D012
:1049200008F01EFA04001AD007F0F6F817E007F0B6
:104930007BF9694605F02FF9684607F061FC012014
:1049400030711120FFF784FF0006000E707106D051
:104950002878094A04210FF0A9FD00E0132420461D
:10496000A6E70000E8460020064900200047002096
:1049700017470000386B00200077010010B50AF0DF
:10498000C5FF10BD1A48002101704170416081606F
:10499000C1600161416181611648B4220180428099
:1049A000012292038280A022C280028110224281D1
:1049B00082815023C381038242828282C2827D230C
:1049C00002831B0143838183C18301840F234384BA
:1049D000094B83840723C3840285012242857E22FA
:1049E000D2438285C1850186491E418670470000F9
:1049F000D4460020586B002080BB000070B50E46E6
:104A000005462022002109480FF042FB074C0848C8
:104A1000E570C67001F0AEFA002803D000202070C7
:104A2000122070BD0121217070BD0000386B002084
:104A3000064900207FB504460D4608460AF064FE8C
:104A4000002817D00C48844212D210220021684658
:104A50000FF01EFB69460C70200A4870200C88700D
:104A6000200EC8702946684605F04EF904B070BDA6
:104A70000220FBE71220F9E740420F0010B508487A
:104A8000C078400707D5074807F0DCFE002006493C
:104A9000C043C88010BD002007F0D4FE10BD000048
:104AA0000649002010470020386B0020F8B51E4C46
:104AB00000256068002802D00FF064FA6560E068A5
:104AC000002802D00FF05EFAE560184E0527F07856
:104AD000384224D0164807F0AFFEF07838421CD098
:104AE000144920200FF0FAF96060002815D0202228
:104AF00000210FF0CDFA0F492020491E0FF0EEF9EA
:104B0000E060002805D0202200210FF0C1FA00202B
:104B1000F8BD60680FF036FA65601320F8BD00201C
:104B200007F08AFEF3E70000004700200649002056
:104B30008C6B0020164700000948FF2101700021FE
:104B4000418041608160C1600748064901600749B2
:104B5000416007498160024906481031086070478A
:104B6000004700209DBE00008C6B00202DBF000080
:104B700061CD00000DBE0000FEB5354F354D0C4631
:104B800008041FD538780FF0C7FA061E17D0307802
:104B9000A22806D07D78304607F048FD00280AD1CB
:104BA00002E02C48C578F6E7FF2D04D031462846B0
:104BB0000FF0EAFAE6E730460FF086FAE2E7012066
:104BC000C00341E0E0070126234900280AD04868D5
:104BD000002804D04168002901D0002088472046E1
:104BE0007040FEBDA00709D5C868002804D0416800
:104BF000002901D001208847022025E0600725D543
:104C0000687900281FD0401E0006000E68711AD176
:104C10004869002808D02E71C868002804D041686F
:104C2000002901D0012088476946E86804F0B3FFF5
:104C3000684607F0E5FA1120FFF70AFE6871387838
:104C400004210FF0A3FC04206040FEBD0020FEBD47
:104C500006490020386B0020D446002001494870E6
:104C6000704700000649002010B505F0CDF810BDD2
:104C700070B5154C0E46626121610546E060102258
:104C8000FF2130460FF0F1F8012806D01022002154
:104C900030460FF0EAF8012803D1102120690DF009
:104CA000F5FC1022FF2128460FF0DFF8012806D07E
:104CB0001022002128460FF0D8F8012803D1102136
:104CC000E0680DF0E3FC70BD386B00207FB50C464A
:104CD00005460AF019FD002814D0826B007B0428D9
:104CE00002D0122004B070BD002A00D0947D684626
:104CF00021460EF05DFA044B6A46022128460EF06A
:104D0000D9F9EFE71420EDE7A336010070B50C46A2
:104D10000546192802D20848844201D1022070BDFC
:104D2000112D04D13C20604380B201F007F9034902
:104D300068000C52002070BDFFFF0000586B00207F
:104D400070B50E4611491546CB78022B17D0012BB2
:104D500015D0002D17D00AF0D7FC040011D0002E7A
:104D600003D02079022108432071204610222946D1
:104D700018300FF097F82869A062002070BD12204B
:104D800070BD142070BD022070BD000006490020D7
:104D900038B50C4605460AF0B7FC002806D0684630
:104DA0000470694628460EF073F938BD142038BDEA
:104DB000F7B505461E4812261E4F0C46814208D103
:104DC000B868002832D00268002A2FD028469047C1
:104DD000FEBD1748401C844219D1B868002806D08F
:104DE0000268002A03D028469047002806D02846AB
:104DF000029906F0EBF8060005D017E07D700298E6
:104E000038700020FEBD7D70029838700EE00846B4
:104E10000AF07AFC002809D00078A84201D00320CB
:104E2000FEBD2046029900F0EAFFFEBD3046FEBD01
:104E3000FEFF0000D446002070B51446024620480C
:104E40001E46C0780523184224D01E4D00296B68E9
:104E5000E86802D0002B1DD001E000281AD0202CD9
:104E60002CD2002C01D0002E28D02A70002913D07B
:104E70001F220021581C0FF00BF9686822463146AA
:104E8000401C0FF00FF8696820460C70491C01F0B7
:104E90003EF870BD122070BD1F220021401C0FF093
:104EA000F7F8E86822463146401C0EF0FBFFE9683F
:104EB00020460C70491C01F049F870BD022070BDFD
:104EC000064900200047002010B5094A0146137921
:104ED0000020002B0BD101231371C90707D0134603
:104EE0006433184610220421403800F009FA10BD3E
:104EF000D0470020F8B5044600F070FE00F046F8F8
:104F0000114F134EFC701149304600F027F811493B
:104F1000C0200EF0E3FF00221346B861940106534F
:104F2000002124180C254D436519AB80491CEB600A
:104F30000529F7DB521C032AF0DBF8787870064865
:104F40000AF034FDF8BD0000D0470020DA6B0020E5
:104F5000FFFF00000147000039D4000070B50A4C83
:104F60000025A04208D1002082008C525218401C1B
:104F700095700328F8DB70BD08F02FFA0028FAD0EE
:104F80000480857070BD0000FFFF0000F0B51E4971
:104F900020200870FF2048708870C8700126CE80DD
:104FA00000200881C86008610B4602241C33486158
:104FB0001C70164A5A600A46087124321470144D47
:104FC000556016725081D3601474124F15466F618C
:104FD0002E766883E9612021545413460E4D5918EA
:104FE0005D6208725885D862302154540B4C0323FB
:104FF000511854630B725087094ACA600249094A22
:10500000643105C10860F0BDD0470020D6470100DB
:10501000D8470100DE470100F6470100E4470100E0
:10502000DA6B002011DF0000F8B50E46074606993E
:1050300000240798002902D00B242046F8BD022B3B
:1050400001D00D24F9E7517812780D021543294655
:10505000814301D08024F0E73846F16800F042F93E
:10506000A842EAD02A463846F16800F0F1F9044631
:10507000E3E7000070B50D4608041AD50E48C07865
:105080000FF04AF804000FD02078B02809D120464C
:1050900008F06AFB002804D020462179083000F08F
:1050A0007FFD20460FF010F801212846C903484033
:1050B00070BD002070BD0000D0470020FFB585B056
:1050C00000200F9F0090087A0E9D1C460E46C006D9
:1050D0000BD5079808F07AF903007DD00A223146F3
:1050E000059898470090002816D13078022815D0EE
:1050F000079808F091F90028EFD00068844600284E
:10510000EBD01199109822460097029101902B46FE
:10511000314664460598A04709B0F0BD7068292261
:1051200041780078090201431202881A91427CD02A
:105130000BDC6948081A13D0012811D0022817D0B7
:105140000328D5D1002F53D09BE001287ED0022820
:105150006DD0032877D00428CAD1002F68D090E002
:10516000002F6FD1F068017829800278416884E0CF
:10517000002F67D1F068417800780F0207430420C0
:105180002880F06804A900782070F068407860708A
:10519000384600F089F9060022D06846028A03AB3F
:1051A0004E493046F76800F0DDF900280AD133781F
:1051B00002214B487268FDF77FFB002802D1474867
:1051C00069468881387802280CD10222201D79682E
:1051D0000EF068FE288800E07CE0801C288001E05A
:1051E0006846878168468089A070000AE0706FE099
:1051F00001202880F0680021007820707089401C10
:1052000080B200F051F9002813D02988027889185B
:10521000891C2980817A61704189090AA17002780C
:105220004168E01C0EF03EFE52E00CE00EE026E08D
:105230003BE028880422001D28800021601C0EF01D
:1052400027FF45E01DE0002F27D01AE0F0680FF09F
:10525000B0F980B2B84201D207205DE7874201D1A0
:10526000002006E01099C919814201D3C01B00E05B
:105270001098288082B2F068C1192046D2E7002F2A
:1052800001D00B2048E7F168059800F02BF80221C7
:1052900029802070000A60701AE002202880F068DF
:1052A00000782070F0684078F5E70721F0682980E1
:1052B00001782170417861708178A1704188090A74
:1052C000E1700179217181796171C088000AA07152
:1052D000009821E70E201FE700280000FFFF0000D4
:1052E000DA47010010B508F078F8002800D080787F
:1052F00010BD00000149887070470000D0470020B1
:105300007CB51E4605001CD0684601808270019560
:1053100000F0ACFA04001FD1002E1DD068890028CF
:105320000FD00E490C200EF0D9FD002813D000211B
:105330000160698981800A4A86601169002903D168
:1053400007E002207CBD11460A68002AFBD10860F4
:1053500002E0106100E0132420467CBD05470000F8
:10536000D0470020F8B50C4C0746A07815460E46ED
:10537000FF280FD00A200EF093FE01000AD0B120C2
:1053800008704F80002048700871CE800D81A07891
:105390000EF0FAFEF8BD0000D047002070B50C46B4
:1053A00005460649FFF79EFF800704D5214628469B
:1053B00000F0B8FA70BD012070BD0000DA6B00206B
:1053C0000EB56B461A81FE23002201930092022340
:1053D00002AA00F001F80EBDFFB583B0174602A97E
:1053E0000D9E049800F060F804002AD068460089F9
:1053F00008F012F8002822D04568002D1FD00C9824
:10540000019600903A462146069B0398A84705005E
:1054100018D1FE2E16D02078022813D1606841786A
:10542000027808020949104388420BD1787839780C
:1054300002020A4304990398FFF794FF02E00E2545
:1054400000E00125284607B0F0BD00000229000059
:1054500070B514460E46054607F0BFFF002806D17A
:105460003146054807F0B9FF002803D00580847055
:10547000002070BD112070BDFFFF000010B5017845
:10548000B0290BD14178002908D10179122906D021
:105490001B2903D14088012101F084F810BD417C13
:1054A0000129F7D010BD0000F0B5104A536919E08A
:1054B0009C686589A84214D39E887219824210D9CB
:1054C00000220CE017013F197F89874205D100298E
:1054D00000D00D8010010019F0BD521C92B2B242F2
:1054E000F0D31B68002BE3D10020F0BDD047002093
:1054F000FFB51B4883B0002345692DE0AE6800244A
:1055000070890190A888009016E0210188194289CD
:10551000039FBA420ED3049FBA420BD8069A002AC0
:105520000FD01346715C4068059AFDF7C5F9002855
:1055300007D10023641CA4B200988442E5D3002B59
:1055400009D00C98002802D00C99019808802001FD
:10555000801907B0F0BD2D68002DCFD10020F8E7ED
:10556000D0470020FEB5174600256A4695800446C0
:1055700040891D4A1E46904208D001AA0092401C54
:10558000237880B26268FFF7B3FF054623780221D3
:1055900016486268FDF790F9002807D123780221A8
:1055A00013486268FDF788F9002801D060890EE091
:1055B000237802210F486268FDF77EF900280DD09C
:1055C000002D03D068468088B84203D0384608F0E2
:1055D000C3FD04E06889401E80B200E06089002EAF
:1055E00000D030802846FEBDFFFF0000D8470100F4
:1055F000DA470100DE470100FFB583B00E461D46C5
:10560000174601A9039807F001FD040022D1002FDD
:105610000FD0694608803088FFF746FF6946088842
:1056200000F0BCF90146012203980AF041F8002875
:1056300011D131460398FDF7E5F904000AD1FF2D99
:1056400008D0019B1E22194604489B1C08F08FFDC0
:105650000198C570204607B0F0BD0000C1DF000012
:1056600010B50446FDF7FAF90749FF2008704870A5
:105670000020486088608C700421204601F088F882
:1056800000F004F810BD0000C447002070B50020F1
:105690000D4D0E4B0446FF22062141435D52C918B1
:1056A000CA708A70401C0C710328F5DB0120C043CE
:1056B0001880074807F040FE0648FDF755FB0648EE
:1056C0000AF074F9002070BDFFFF0000C86B0020D5
:1056D00009E00000EBDF000041DF00007CB516466A
:1056E0000C460546FCF7FEFE11490978884201D3B5
:1056F00016207CBD01A9284607F088FC1728F8D0A1
:10570000002E10D00020694608802088FFF7CCFECC
:105710006946088800F042F901460122284609F04E
:10572000C7FF0028E5D121462846FDF781F97CBD59
:105730002D490020F8B51C4615460E46074609F0CF
:10574000E3FF00280DD0017B074808292B4632468D
:105750003946009403D0007807F06EFCF8BD40781D
:10576000FAE70120F8BD0000C4470020F0B587B07B
:105770000F46080470D5394EB0780EF0CDFC040009
:1057800064D02078A0285ED10120694608732046A5
:10579000FDF7B6F9050041D16846807800280BD0A6
:1057A000142809D0152807D01A2805D01C2803D0A2
:1057B00001461F3920290BD8B16800292ED069462F
:1057C000497800292AD169460874062008751FE027
:1057D000C0070AD07368002B05D0608803AA694609
:1057E000984705461AE0062518E0B368002B06D056
:1057F000608803AA69469847050001D10EE0062596
:1058000068464078002809D16946887808740D7583
:1058100000204882608804A9FDF78AF86846007B6A
:10582000002804D0A068002801D00EF0ABFB002DAA
:1058300005D168468078122805D01B2803D16088DE
:10584000012100F0AFFE20460EF03EFC0120C00317
:10585000784007B0F0BDFFE70020FAE7C44700201A
:105860000149087070470000C447002070B5044625
:105870004568008800284AD02B78022125486A68AC
:10588000FDF71AF8002807D12B78022122486A6810
:10589000FDF712F800283AD0A078C01F092834D8A4
:1058A0001E4EF08800282ED02188081801210904F6
:1058B000884228D81A490C200EF010FB050020D091
:1058C000002207E011016368F0880A315852401C39
:1058D000F080521C20889042F4DC002028600822CE
:1058E0002146281D0EF0DEFA7069002801D105E07E
:1058F000084601680029FBD1056000E075610020C1
:1059000070BD132070BD012070BD182070BD022035
:1059100070BD0000D8470100DA470100D0470020E1
:1059200002470000FEB50E46074600250223194A2D
:10593000194901200095FFF7DBFD040027D0232043
:105940000090002304221D21384600F0E3F8029065
:1059500000281AD06089694688800420C88002998E
:10596000012008700298334645700299FF20887024
:1059700002990022C87001A93846FFF73DFE0400D5
:1059800006D002980EF0FEFA02E0152400E0012491
:105990002046FEBDF6470100FFFF000000B507F0FE
:1059A000F1FA002801D0807800BD102000BD00B5BC
:1059B00007F0E8FA002800D0008800BD7CB50D464D
:1059C000044609F0A1FE29462046FDF7D3F9002838
:1059D00012D168468580204609F096FE00280BD03B
:1059E000027B01A90748082A009106D07F230022E4
:1059F0002146007807F020FB7CBD7F230022214652
:105A00004078F7E7C447002010B504460B468806E7
:105A10000DD51046FFF7C2FF01460122204609F0CE
:105A200047FE052801D00F2800D1082010BD88208E
:105A300003420CD01046FFF7B1FF0146180701D50D
:105A4000012200E00022204609F032FE10BD880746
:105A500001D5002010BD032010BD10B50346C806B7
:105A60000DD51046FFF79AFF01460122184609F0AE
:105A70001FFE052801D00F2800D1082010BD4807BF
:105A800005D51046FFF78AFF0146012206E04806C9
:105A900008D51046FFF782FF01460022184609F09C
:105AA00007FE10BDC80701D0002010BD022010BDA8
:105AB00070B51D4603460C4688060DD51046FFF707
:105AC0006DFF01460122184609F0F2FD052801D0BC
:105AD0000F2800D1082070BD8820044214D0104641
