:020000040000FA
:10F0000000800020B9F20000C1F20000C3F200004D
:10F0100000000000000000000000000000000000F0
:10F02000000000000000000000000000C3F200002B
:10F030000000000000000000C5F20000C7F2000060
:10F04000C9F20000C9F20000C9F20000C9F20000D4
:10F05000C9F20000C9F20000C9F20000C9F20000C4
:10F06000C9F20000C9F20000C9F20000C9F20000B4
:10F07000C9F20000C9F20000C9F20000C9F20000A4
:10F08000C9F20000C9F20000C9F20000C9F2000094
:10F090000018011800280128022803280029012946
:10F0A0000229032904290529062907290829002AF4
:10F0B000012A022A032A042A052AA62A42790200E2
:10F0C000C9740200ED6F0200CF6F0200B578020034
:10F0D0000D7202000970020015750200996F02009E
:10F0E000B977020079780200BD6F02000573020053
:10F0F00045720200957202001D72020005A6010011
:10F1000039A501004DA40100FDA4010051510100E9
:10F11000C16E010041540100595E0100BD5C010057
:10F12000496001008D55010001790100E1090100EC
:10F1300081080100250602008D060200AD050200CF
:10F14000C5FF0000E5FF000007FE0000513A010086
:10F15000913D01004D380100BD390100A53B010082
:10F160001938010059370100B5370100093901008C
:10F1700035370100A9370100F93601002D3D0100A6
:10F18000793D01003D3D0100453D01005141010037
:10F19000AD3F01003341010049410100693E0100DA
:10F1A000253D0100353D010025410100414101009F
:10F1B0008541010011420100F9340100A93001002C
:10F1C00051310100DD3401005536010021320100CA
:10F1D000C14301004D42010021420100F12E010016
:10F1E0002D2A0100552601004D2E01001930010085
:10F1F00091140100E10C01002D1001007D2201009D
:10F20000991C0100192401005D2201003524010030
:10F2100059190100711A0100951D01005D1E0100C0
:10F220008D1E0100451D01002D200100F52101006A
:10F230000D1F0100611B0100251C01007D1C010048
:10F24000B11A0100391B010029990100ED8E01005E
:10F25000459901005D9B0100259B0100417901005A
:10F26000F97B0100651A0100F5750200150B01001C
:10F27000E10A0100250B0100A5F90000D9FB0000FF
:10F280009DFB0000D5300100F99A01005992010060
:10F29000A99201003D900100B18E0100050B010013
:10F2A0000448854600F0B2F800480047995402002F
:10F2B000C046C046008000200448804704480047FC
:10F2C000FEE7FEE7FEE7FEE7FEE70000DDA3010044
:10F2D000A1F2000030B50B46014600202022012497
:10F2E00009E00D46D5409D4205D31D469540491B7A
:10F2F0002546954040191546521E002DF1DC30BDC3
:10F3000070B500242546002801DA01244042002976
:10F3100001DA01254942FFF7DDFFAC4200D040424F
:10F32000002C00D0494270BDF0B51FB486B000205B
:10F330000090019002900698069980B20490079878
:10F34000090C02040014114307900027089D099836
:10F3500006913E463C4603900398A9B20204000C75
:10F36000039004982D0C154348430021224600F0D9
:10F3700018F8C719714110340E46402CECDB3846A2
:10F38000029A00F00EF8009A019B801800905941F3
:10F3900002980191103002904028CCDB00980BB00D
:10F3A000F0BD10B5202A04DB0146203A9140002030
:10F3B00010BD914020239C1A0346E340194390401E
:10F3C00010BD03460B439B0703D009E008C9121F79
:10F3D00008C0042AFAD203E00B780370401C491CD1
:10F3E000521EF9D270470321001D401E03781202FD
:10F3F0001A43491EF9D51046704703460322087088
:10F40000000A491C521EFAD518467047064C0125C1
:10F41000064E05E0E36807CC2B430C3C98471034BC
:10F42000B442F7D3FFF740FF507A0200707A02002F
:10F4300070B58C180578401C6B075B0F01D1037801
:10F44000401C2A1106D10278401C03E006780E7099
:10F45000401C491C5B1EF9D12B0705D40023521E0A
:10F460000DD40B70491CFAE70378401CCB1A921C90
:10F4700003E01D780D70491C5B1C521EF9D5A1429A
:10F48000D8D3002070BD000010B5124C2068C00514
:10F490001FD50320206000200821401C2268C0B234
:10F4A0000A4322600EE02268920510D4222807D970
:10F4B0000948026B002A0AD001210320904706E088
:10F4C000401CC0B22268D205EDD50028E5D100204D
:10F4D000206010BD80C300402844002070B5144651
:10F4E0000D460646FFF7D0FF2D480368196806222F
:10F4F0009143891C1960316899627168D962B16859
:10F500001963F1685963296899616968D961A968C3
:10F510001962E968596259680222914359605D682D
:10F5200001210D435D601D680D431D6000E000BFBB
:10F5300059688907FBD55968914359609969090E43
:10F54000E17001688969090CA17001688969090A7B
:10F5500061700168896921700068C1692171C169A0
:10F56000090A6171C169090CA171C169090EE171D2
:10F57000016A2172016A090A6172016A090CA172A9
:10F58000016A090EE172416A2173416A090A6173D5
:10F59000416A090CA173406A000EE073002070BD3F
:10F5A0003841002070B514460D460646FFF76CFF43
:10F5B0002D480368196806229143196031689962E1
:10F5C0007168D962B1681963F168596329689961F2
:10F5D0006968D961A9681962E968596259680222A3
:10F5E000914359605D6801210D435D601D680D43C5
:10F5F0001D6000E000BF59688907FBD55968914339
:10F6000059609969217001688969090A6170016806
:10F610008969090CA17001688969090EE1700068A7
:10F62000C1692171C169090A6171C169090CA171BE
:10F63000C169090EE171016A2172016A090A6172E8
:10F64000016A090CA172016A090EE172416A217313
:10F65000416A090A6173416A090CA173406A000E8C
:10F66000E073002070BD00003841002070B50C46EA
:10F670000546FFF709FF28480268106820218843E3
:10F68000E907890E084310608034E06C1061206D3A
:10F690005061E0699061206AD061606A1062A06A7E
:10F6A0005062E06A9062206BD062606B1063A06B66
:10F6B0005063E06B9060206CD060D168236C174879
:10F6C000994204D0026B002A1ED0202107E0916AE3
:10F6D000E36A994206D0026B002A15D0212103204B
:10F6E000904711E0D169236A994204D0026B002A45
:10F6F0000AD02221F3E71169E36C994206D0026B2C
:10F70000002A01D02321EAE7012070BD10684021C2
:10F7100008431060002070BD3841002028440020BC
:10F7200070B50C460546FFF7AFFE28480268106822
:10F7300020218843E907890E084310608034606CFB
:10F740001061A06C5061E0699061206AD061606ACC
:10F750001062A06A5062E06A9062206BD062606BB7
:10F760001063A06B5063E06B9060206CD060D16838
:10F77000236C1748994204D0026B002A1ED0102136
:10F7800007E0916AE36A994206D0026B002A15D01D
:10F7900011210320904711E0D169236A994204D0D6
:10F7A000026B002A0AD01221F3E71169636C9942B7
:10F7B00006D0026B002A01D01321EAE7012070BDB8
:10F7C0001068402108431060002070BD38410020BF
:10F7D0002844002010B506F0D2FA024904F065FE74
:10F7E000002010BD0604000008B5002808D000293C
:10F7F00006D0002A04D01088002801D0002008BDBF
:10F800001220694608706A460121034804F049FE47
:10F810006946087808BD0000350C000008B505F001
:10F820004DFC694608706A460121034804F039FE20
:10F830006946087808BD00002720000008B505F0DB
:10F8400087FC694608706A460121034804F029FED6
:10F850006946087808BD00001120000008B505F0D1
:10F86000EAFD694608706A460121034804F019FE62
:10F870006946087808BD00002920000008B505F099
:10F88000DFFD694608706A460121034804F009FE5D
:10F890006946087808BD000010200000FEB508AFDA
:10F8A00070CF6F4670C705F0F1FD0446024904F0C1
:10F8B000FCFD2046FEBD00001320000008B506F048
:10F8C000EDF9694608706A460121024804F0E9FD35
:10F8D000002008BD0E200000FFB589B016A871C831
:10F8E00094468E460796159F129A139904AE31C618
:10F8F000149800920191029003976246714609980C
:10F9000006F02AF90446034904F0CFFD20460DB065
:10F91000F0BD00000D20000038B5044606F02FFDB4
:10F92000694608704C70200A88706A4603210248B4
:10F9300004F0B7FD002038BD1B20000038B5044698
:10F9400006F036FD694608704C70200A88706A46D9
:10F950000321024804F0A5FD002038BD1A20000054
:10F960000EB500A8013007F0ABF9694608706A4689
:10F970000921024804F095FD00200EBD182000006A
:10F9800008B500A8013006F07DFC694608706A469B
:10F990000421034804F085FD6946087808BD00008D
:10F9A0000220000008B50A4900220A81087107F008
:10F9B000B1F9694608706A460121064804F071FDF4
:10F9C00005480121C078090317F0A4FD002008BDF7
:10F9D000D44400201D2000005C44002038B50446BB
:10F9E00007F0D4F9694608704C70200A88706A469E
:10F9F0000321024804F055FD002038BD21200000FD
:10FA00007FB5044608A861C800900296019520467B
:10FA100007F0D4F9694608734C73200A887303AA67
:10FA20000321034804F03DFD002004B070BD000038
:10FA30002020000008B507F053FD694608706A46AB
:10FA40000121034804F02DFD6946087808BD000037
:10FA50002D20000008B507F0D3FD694608706A46FE
:10FA60000121034804F01DFD6946087808BD000027
:10FA70000820000008B507F059FD694608706A467D
:10FA80000121034804F00DFD6946087808BD000017
:10FA90000A200000F0B585B00AACF0CC03976F46A1
:10FAA00070C707F0CDFD6946087404AA0121034818
:10FAB00004F0F7FC6946087C05B0F0BD06200000A4
:10FAC00038B5044607F006FE694608704C70200AF7
:10FAD00088706A460321024804F0E3FC002038BD28
:10FAE0002220000008B507F033FE694608706A4618
:10FAF0000121034804F0D5FC6946087808BD0000E0
:10FB00000520000008B507F061FE694608706A46E6
:10FB10000121034804F0C5FC6946087808BD0000CF
:10FB20002E20000008B507F067FE694608706A4697
:10FB30000121034804F0B5FC6946087808BD0000BF
:10FB40000C2000001CB5049C009407F097FE694649
:10FB5000087101AA0121034804F0A3FC6946087951
:10FB60001CBD00000B20000008B507F0ABFE694685
:10FB700008706A460121034804F093FC694608783E
:10FB800008BD00000920000010B507F078FF024909
:10FB900004F08BFC002010BD1920000038B500A82F
:10FBA000013008F029F8694608706A4603210848C0
:10FBB00004F077FC074C0121E078090317F05CFEA4
:10FBC0000121E078490317F057FE002038BD0000FE
:10FBD0001F2000005C44002038B50025134C252967
:10FBE000258120716171A271E37101D8012208E0C1
:10FBF000732901D8022204E0C12901D8032200E0C0
:10FC000004220B480121C078490317F0C3FDE379B2
:10FC1000A2796179207908F03BF8694608706A4654
:10FC20000121044804F03DFC002038BDD4440020EC
:10FC30005C4400201E20000010B506F0F9FB10BD4A
:10FC40001CB500A8013007F049F8694608706A46FB
:10FC50000721034804F025FC694608781CBD000014
:10FC60000910000038B500A90446033107F046F832
:10FC7000694608704C70200A88706A46042103485F
:10FC800004F00FFC6946087838BD00000514000038
:10FC90000A7802708A7842704A88120A827009795A
:10FCA000C170042070470A7802700988090A4170FF
:10FCB000022070470A7802700988090A4170022000
:10FCC000704709780170012070470A7802700A882D
:10FCD000120A42708A7882704A88120AC2704A797F
:10FCE00002718A7942710889801D80B27047088844
:10FCF0008004000C70470A7802700A88120A427069
:10FD00008A7882704988090AC170042070478A780D
:10FD1000027088780128088804D012214843401CCA
:10FD200080B270478000FAE70A7802700A88120AE7
:10FD300042704888801C80B270470A7802700A8836
:10FD4000120A42708A7882704A88120AC2708888C1
:10FD5000001D80B270470A7802700A88120A427049
:10FD60008A7882704A88120AC2708888001D80B220
:10FD700070470A7802700A88120A42708A78827084
:10FD80004988090AC17004207047088870478A783A
:10FD90000270088849884843401C80B2704710B5FB
:10FDA0000C46097801702188090A4170A178817098
:10FDB0006188090AC1702279611D001D17F024F9BC
:10FDC0002079001D10BD8A78027008884988484350
:10FDD000401C80B2704788884004000C7047088837
:10FDE00070470A7802700988090A4170022070473A
:10FDF000088870470A7802700A88120A4270488898
:10FE0000801C80B270477FB515460446022901D098
:10FE1000102903D1022B04D0102B02D0002004B0F3
:10FE200070BD994202D10A46294607E01029694669
:10FE300007D000F00DF810226946284617F0D6F8D2
:10FE4000EDE7104600F004F8102269462046F5E779
:10FE500070B50C4605000CD0002C0AD010220649C3
:10FE6000204617F0D1F82878207368786073012055
:10FE700070BD002070BD00007E79020008B5002230
:10FE80000B460092012202490AF08EFC08BD0000D8
:10FE900091FC000038B5054608880C4617280DD39C
:10FEA00004F07EFF2188884208D30020009023467A
:10FEB0000222034928460AF033FC38BD022038BD2F
:10FEC000A7FC000008B50A88172A07D300220B46B2
:10FED0000092032202490AF067FC08BD022008BD17
:10FEE000B5FC000008B500220B460092182202491A
:10FEF0000AF016FC08BD0000C3FC000008B5002194
:10FF00000B46192200910AF04FFC08BD38B50C468B
:10FF1000054609790020022901D0022038BDE26897
:10FF2000002A03D00721104617F01CF80090234642
:10FF30000622024928460AF0F3FB38BDCBFC00003C
:10FF400038B5054608880C4600280DD060680028A2
:10FF50000AD0012117F006F8009023460722034932
:10FF600028460AF021FC38BD022038BDEFFC000015
:10FF700008B500220B460092042202490AF0D0FB89
:10FF800008BD0000F7FC000038B5054688780C462F
:10FF9000012801D0022810D1208800280DD06068E7
:10FFA00000280AD0022116F0DDFF0090234605222A
:10FFB000034928460AF0F8FB38BD022038BD00008E
:10FFC0000FFD0000064910B5884202D104F0E8FE9A
:10FFD00010BD10F09DFA0028FAD1172010BD0000C6
:10FFE000FEFF000070B50546002100F00DF804008A
:10FFF00006D104484268002A02D01E2128469047B4
:020000040001F9
:10000000204670BD8C41002008B500210B461E2201
:1000100000910AF085FB08BD38B505464A68002006
:100020000C46002A03D00321104616F09BFF0090D7
:1000300023461D22024928460AF072FB38BD000003
:1000400029FD000038B505464A6800200C46002A04
:1000500003D00321104616F085FF009023461B2293
:10006000024928460AF05CFB38BD000029FD00006B
:100070000248002101604160704700008C4100206F
:1000800010B5042901D0042010BD017811708378C7
:100090004478190221435180C0781071002010BDAE
:1000A0000098022B01D00420704751781278090281
:1000B0001143018000207047022901D004207047BD
:1000C0004178037808021843108000207047009898
:1000D000012B01D004207047117801700020704777
:1000E000002901D0042070470020704770B5049C9F
:1000F0001E461546062B1BD3687829780002084354
:100100002080E878A97800020843608002202071EE
:100110000246291D601D16F077FFB01F2081062EB4
:1001200003D0AD1DE560002070BD0020E060FAE75F
:10013000042070BD8B0705D1890803D01180506061
:1001400000207047042070470098042B01D0042041
:10015000704751781378090219430180D178927859
:100160000902114341800020704770B515460646CC
:10017000002918D03478491E8AB2012C02D0022CF2
:1001800003D010E09008910703E012211046FFF71A
:10019000A1F8002907D1002805D0AC702880761C72
:1001A00000206E6070BD042070BD10B50298022B57
:1001B0000FD351781478090221430180991E4180A0
:1001C000022B02D0921C426001E00021416000201D
:1001D00010BD042010BDF8B5C4880D46002C2BD0EE
:1001E00086683778390601D4002010E00D2C23D31F
:1001F0000C3CA4B2311900914088234632460121BB
:100200000AF040F8002801D0022000E00120790621
:100210002870C90FBA066970920EAA70641E220473
:10022000120CAA8002D0761CAE6001E00022AA6007
:10023000022803D1002901D00120F8BD0020F8BD1B
:1002400010B50298042B14D3517814780902214375
:100250000180D1789478090221434180191F81805F
:10026000042B02D0121D826001E000218160002079
:1002700010BD042010BD10B5042914D343780478B0
:100280001B0223431380C37884781B02091F234376
:1002900089B253809180002901D0001D00E0002028
:1002A0009060002010BD042010BD0098042B01D0E8
:1002B0000420704751781378090219430180D178DE
:1002C0009278090211434180002070471180002973
:1002D00002D05060002070470020FAE7F8B50646CB
:1002E0000478481E154687B2002909D0042C07D38C
:1002F00021463846FEF7EEFF01466143B94201D080
:100300000420F8BD2880761C6C8000206E60F8BD4B
:1003100010B502981146062B03D0142B03D00420ED
:1003200010BD022200E0102202714A780B781202FE
:100330001A430280CA788B7812021A4342800279EB
:10034000401D091D16F060FE002010BDF8B51546D1
:100350000646002912D03478491E6C80CFB2022C98
:100360000CD321463846FEF7B5FF01466143B9423A
:1003700004D12880761C00206E60F8BD0420F8BDF2
:100380000098D90706D1022B04D059088180026059
:1003900000207047042070471180002902D050606F
:1003A000002070470020FAE70098022B01D00420BB
:1003B000704751781278090211430180002070477C
:1003C0001180002902D05060002070470020FAE719
:1003D00010B5029C022B11D32072617250781178F3
:1003E000000208432080981E6080022B02D0921CDD
:1003F000626001E000206060002010BD042010BD9C
:10040000002901D0042070470020704738B5054608
:1004100088680C46002802D0052116F0A3FD009044
:1004200023461622024928460AF07AF938BD000010
:100430003BFD000038B5054688680C46002802D010
:10044000052116F08FFD0090234617220249284609
:100450000AF0AAF938BD000057FD000008B50022D7
:100460000B4600920C2202490AF05AF908BD00001E
:1004700073FD000038B5054648680C46002802D0D8
:10048000012116F06FFD009023460D2202492846F7
:100490000AF08AF938BD00008BFD000008B50A7922
:1004A000022A03D0102A01D0022008BD00220B46E8
:1004B0000092102201490AF033F908BD9FFD0000A7
:1004C00038B5054608880C4600280DD0606800281D
:1004D0000AD0022116F046FD00902346112203495E
:1004E00028460AF061F938BD022038BD8FFD0000B2
:1004F00008B50A79022A03D0102A01D0022008BDCB
:1005000000220B460092082201490AF009F908BDB1
:100510009FFD000038B5054608880C4600280DD020
:10052000606800280AD0022116F01CFD00902346C6
:100530000922034928460AF037F938BD022038BDA0
:10054000C7FD000038B5054688880C4602280DD343
:10055000206800280AD0012116F004FD00902346EF
:100560000E22034928460AF0DBF838BD022038BDC8
:10057000D7FD000038B5054648680C4600280AD06B
:10058000012116F0EFFC009023460F220349284674
:100590000AF00AF938BD022038BD0000DFFD000076
:1005A00008B500220B4600920A2202490AF0B8F868
:1005B00008BD0000E3FD000038B505464A6800208C
:1005C0000C46002A03D00121104616F0CBFC009007
:1005D00023460B22024928460AF0E6F838BD0000FF
:1005E000F1FD000001494860704700008C41002087
:1005F00001490860704700008C41002070B5054635
:1006000008480C46854205D0172C03D304F0C8FBDC
:10061000A04201D2012070BD2146284610F046F8C4
:1006200070BD0000FEFF0000F8B50646087A1225EE
:100630000C46012809D13046FFF7C4FC61880F3809
:10064000884201DA0220F8BD9225607A012801D1A2
:10065000402005436068002802D0032116F082FC88
:10066000009023462A46024930460AF059F8F8BD60
:10067000F5FD000008B500210B46132200910AF099
:1006800093F808BD04480349006801600349C1624A
:1006900070470000A52208013C410020784E01006F
:1006A00010B5094C5D202168086507F0ADFC216894
:1006B00000200865054AD079401CD07113F072F90A
:1006C0000120907110BD0000444100207C440020B6
:1006D00070B500242546641C2406240E44D0002155
:1006E000C94300200AF0B3F8400840000022114638
:1006F0000346CB40DB07DB0F491CC9B20646CE40A0
:10070000F607F60F9E4203D0521CD2B2192A29D204
:100710002029EDD300210246CA409206920E21D034
:100720003F2A1FD0491CC9B21A29F4D9810E1F29AA
:1007300018D03E2916D0012914D0202912D0104AF1
:10074000014690420ED04A1E11420BD00204C1B2A3
:10075000120E8A4210D10202120E8A420CD1020EEF
:100760008A4209D1294608E0F02110200AF07DF8DC
:1007700004490002084370BD01210029ABD070BDBF
:10078000D6BE898EC600CD6A70B52C49002048605F
:100790002B4800892B4CC0B28109022904D00129C1
:1007A00008D0810916D026E0C820A0801020E08063
:1007B000E8201FE0C506ED0E2D2029468001FEF73A
:1007C00089FDA08029467820FEF784FDE080294637
:1007D0001D480DE0C506ED0E2946C020FEF77AFD46
:1007E000A08029460820FEF775FDE0802946E82014
:1007F000FEF770FD20811649144808601649154817
:1008000008601749154808601749164808601849D4
:100810001648184C0860184920680122D202086165
:10082000801848610120C871887100F07BF9607DF3
:10083000002802D111492020086070BD58410020D5
:10084000001000405C440020980D000000C00040F3
:100850004041002000C300403841002000C2004059
:100860004441002000D000405041002000C1004021
:100870003C410020284400207C44002000E100E0AE
:10088000F8B55248006881680127C9050025504C19
:10089000504E002925DA81683A0291438160207820
:1008A000400603D54C4800688047E0602078384314
:1008B00020706570A079072803D044495D2009683D
:1008C0000865306800280AD001690A684069024357
:1008D0000A6031680868026889680A430260E57145
:1008E00025723A4A10688168890521D581680123FB
:1008F0005B0299438160A0783843A070E570374867
:100900000068C16A89088900891CC1620168DB042A
:1009100019430160306800280AD041680B6880687C
:1009200003430B603168C868036849690B4303607F
:1009300010688168890717D581680223994381600F
:10094000E770A5705D210165306800280AD0016953
:100950000B68406903430B60316808680368896865
:100960000B430360E571257210688168C90715D0D3
:1009700081684908490081602570677030680028E7
:100980000AD041680B68806803430B603068C16817
:100990000B68406903430B60E5712572106881683C
:1009A000C90603D581681022914381608168490797
:1009B00003D581680422914381608168090703D5CA
:1009C0008168082291438160F8BD00004441002005
:1009D0007C4400205C410020344100203C41002048
:1009E00070B504460068002829D00121000C490395
:1009F000884224D1A088002821D020460622FF2149
:100A0000163016F0E4FA01281BD0DF22D2000021B4
:100A1000304816F0FBFB342200212F4816F0F6FB7D
:100A2000342221462C4816F0EFFA2B4806221630C5
:100A30000021054616F0CBFA012804D008E0022078
:100A400070BD032070BD25490622284616F0DCFA49
:100A500021488189002902D1012149028181827BBB
:100A60000121002A00D18173C27B002A01D11B22FF
:100A7000C273027C002A01D105220274427C002A42
:100A800000D14174817C002901D114218174817FBE
:100A9000002901D128218177C17C002908D0827FDB
:100AA000E17C92088918C174617F002904D005E0B7
:100AB000817F89082D31F6E702214177806A00287D
:100AC00003D0804704493431488109F0C5FC002037
:100AD00070BD0000084100202844002008060400E2
:100AE000074A002850600AD041680B6840690343F8
:100AF0000B60506801690A68806802430A607047A9
:100B00005841002002490020085E00220A807047F8
:100B10005841002002480068006B001340B2704743
:100B20003C41002070B5114CA07900281DD000F088
:100B300065F804F0A7FA07F0FFF9FFF7A3FD0C4DE5
:100B40005D202968086507F07DFB08F043F907F090
:100B5000EBFA07F059FA0122E271296800200865D2
:100B600012F020FFA271FEF78FFC70BD7C440020C4
:100B70004441002070B50E4B00209989002901D115
:100B80000C4999810E210124A4039A891546254018
:100B9000CD405204120C0543E8B25604D50BF60FB3
:100BA00075401543491EC9B29D810629EDD870BD17
:100BB000D4440020FF7F000070B50E4B00205989FF
:100BC000002901D10C49598108214C015A89154647
:100BD0002540CD4005435200E8B2550A56097540FC
:100BE000ED07ED0F1543491E09065D81090EEDD194
:100BF00070BD0000D4440020FF0100000A480949EC
:100C000000680A6902610A69426149698161C161DA
:100C10008268012149030A438260C2680A43C260B4
:100C2000704700007C4400204041002030B5104A4D
:100C30000346517AFD20842454720E4CA568002D81
:100C400007D0A57B002D04D0A489E51FFF3DFA3D08
:100C500002D05172FF2030BD7D24E402A34205D3AF
:100C60005360A6201072907A40235840517230BDD4
:100C7000001800402844002010B506490C46483CA6
:100C8000A1622063E17D182002F032F9E07D02F0DC
:100C90002DFC10BDAC430020F8B500240F4E2746B4
:100CA00013E0F06B250128180622FF2116F0AEFA9A
:100CB000F06B06222818FF21801D16F0A7FAF06BB2
:100CC00028188781641C8773E4B2307E8442E8D39D
:100CD000002016F031FC307E7076F8BD64430020B1
:100CE00070B50C460146012080020A1A00252B48E7
:100CF000130009F0F9FC20111316181A1D1F2123E7
:100D00002527292B32343648393B3D3F4348484854
:100D10004848484848464148007800E040782070FC
:100D200039E08078FBE7C078F9E710221C4910E031
:100D30000079F4E74079F2E7006A13E08079EEE7A2
:100D4000C079ECE7007AEAE7407AE8E71449102234
:100D50001031204616F058F91DE0807ADFE7C07A9E
:100D6000DDE7406A206016E0007BD8E7407BD6E7ED
:100D7000807BD4E7407CD2E7807CD0E70AF086FA1B
:100D8000CDE7807DCBE7192904D2084601F04EFE5D
:100D9000208000E00225284670BD0000644300204A
:100DA0007C46002010B5044600F0CAF80248C4751D
:100DB0000AF0A6FB10BD000064430020FFB58FB011
:100DC000064600200C900D901F460CAA304600F0FD
:100DD000C3FA404D0446287E84425AD220460AF087
:100DE0006FFB0646042F04D0A879022803D0002008
:100DF00002E02878F9E7012000903B463246214680
:100E000011980AF01BFA1422002101A816F0FEF92D
:100E100020460621484300902430C0B201AA102188
:100E200016F0E8FB002813D11022FF2101A816F0CC
:100E3000CEF800280CD1009805AA2530C0B20421B4
:100E400016F0D8FBF107C90F01AA119802F068F853
:100E50007034E0B206AA182116F0CCFB002811D19C
:100E600006A80AF03FFB0024A10006A80818018884
:100E7000002903D08278119802F0A4FB641CE4B22C
:100E8000062CF1D3B00706D5E97D119802F086FB58
:100E900001E0082F02D0042F13D018E0A87902280F
:100EA00015D10022314611980AF002F9A86A0028EB
:100EB0000DD04368002B0AD00022114611989847A4
:100EC00005E02878022802D1119800F0C7F8002028
:100ED00013B0F0BD64430020F8B501F043FE0028D4
:100EE0002BD1164D0026E87C012801D000241CE0FF
:100EF0000AF018FAEE7400202A7EE96B04E0030180
:100F00005B18401C9E73C0B29042F8D310E0E86BAF
:100F100027013818807B012805D120460AF014FAF1
:100F2000E86B38188673641CE4B2287E8442EED3E2
:100F3000502016F023FB0AF0E3FAF8BD64430020CA
:100F4000F8B5354EFF20F07500273776334CF76340
:100F5000A07B30214843422116F07CF8F063002842
:100F600025D02046807B410040183076002413E0D5
:100F7000F06B250128180622FF2116F047F9F06BC7
:100F800006222818FF21801D16F040F9F06B281862
:100F90008781641C8773E4B2307E8442E8D31F48A3
:100FA0008068002801D0B77601E08020B076307EDE
:100FB00070760124776334707770B770F770102201
:100FC0000021174816F022F93771772575713762BD
:100FD000B471F77112483772777210220021103005
:100FE00016F014F9B772F5727762377305207073D3
:100FF0001020B073F77302203074B762F762376362
:101000007774F774347504487475B47505494830BD
:10101000016005494160F8BD644300202844002078
:101020007C46002011B80100D9B7010070B500243A
:10103000054600290BD108491046FEF74BF9084632
:10104000294601F0EBFD040003D00121284601F000
:101050008FFF204670BD000040420F0010B50849C8
:1010600080230A781A430A700A79002A00D00122E4
:101070004978002900D00421114301F019FF10BD67
:101080006443002010B506490C46483CA162E0626A
:10109000E17D182001F02CFFE07D02F027FA10BD61
:1010A000AC43002070B5264D0C4608040FD5E87DF2
:1010B00016F0F0F8050006D00AF0C8FA002802D0B1
:1010C000284616F0BFF80120C003604070BDA0079D
:1010D0000BD50021084609F04DFF02214C400028A5
:1010E00025D1E87D16F016FA1FE0E00721D0686BE5
:1010F00080880AF0DDFA01214C40002817D0A86A48
:1011000000280DD04368002B0AD0686B002280882D
:101110009847A96A686B00224B688088032198472A
:10112000287D16F047FA09F017FF204670BD01210F
:10113000D7E7600702D50420484070BD002070BD8D
:10114000644300207FB504468078814D801F0300F2
:1011500009F0CAFA0AF5FCFCA41306F1FC78B9FC04
:10116000A96A2046002907D00C68002CFBD0437BDD
:10117000027B4189C01CA047E8E060780026002877
:1011800047D1A079C00744D0686B002841D1102214
:101190000021684616F03AF86169002903D006225A
:1011A0006846103107E0A0880FF09AF80028E3D0D5
:1011B000811D0622684615F027FF69468889A179B6
:1011C0004907C90F0843694688810AF05FF8297EFC
:1011D00088420BD1A87D002801D0FFF75DFD5D4856
:1011E000026B002A02D00121082090470AF04EF835
:1011F000297E8842A87E02D10121084301E04008EF
:101200004000A8762146684609F0B4FE002812D0B6
:101210001526A86A002855D04368002B52D0627862
:10122000A08801219847002E4CD0A96AA0884B685D
:101230003246032174E00221E87D16F06BF90020AC
:1012400004B070BD6078062817D1A0880FF048F868
:10125000060012D0287C012804D0022808D00328D8
:101260000BD114E07179A088002209F021FF04E07D
:10127000A1883078052201F08BFEA86A002865D08D
:101280004368002B62D06278A088022148E00022E7
:1012900041201146000100F0FBF8E9E7E078002268
:1012A000211D00F059F8297E88424FD2062148437B
:1012B00025302246C0B20C32042116F0DFF9287D19
:1012C00016F078F942E0287B002802D0A088697BDC
:1012D00029E028780028A08824D00FF001F8060023
:1012E00034D0A07AC0070CD07079002809D0A0892A
:1012F000800506D470796A46B11D00F02DF80028EB
:1013000014D022467179A088083209F0D1FEA86A6B
:1013100000281BD04368002B18D00022A08811465B
:10132000984713E0052101F023FE0FE0A088032178
:10133000F9E700E003E0A08800F070FA06E0A0887A
:10134000FFF7CAFD28784006400E2870012077E795
:101350006443002028440020F0B52E4E85B0347E32
:1013600015460F46002806D0012804D0022811D0C7
:1013700003284BD121E008460AF05AF8317E044692
:10138000884243D2002D41D006223946284615F026
:101390003BFE3BE000240BE0F16B200140180622ED
:1013A0003946801D15F022FE002826D1641CE4B2C7
:1013B000307E8442F0D3C4B21FE0002419E02046FE
:1013C000062148432330C0B26A46102116F012F9B4
:1013D00000280CD11022FF21684615F0F8FD0028E6
:1013E00005D13946684601F031FD002805D0641C5E
:1013F000E4B2307E8442E2D3DDE7307E844205D21F
:10140000002D03D0294620460AF03AF8204605B0C0
:10141000F0BD000064430020F8B50E4619491525BB
:10142000194F884214D1002409E032460221204697
:1014300009F046FF002800D00025641CE4B2387E85
:101440008442F2D3002E1BD010480FF0AFF817E003
:101450000EF046FF040012D060790022A11DFFF7B4
:101460007BFF397E884204D23246022109F028FFF0
:101470000025002E04D020460AF084F800E0142550
:101480002846F8BDFFFF00006443002085B5010039
:10149000F0B50746012080021546381A89B00024AD
:1014A000DA4ADB4E030009F01FF921121920272E1A
:1014B000343B40474E555C636A71767DF3F2F1F040
:1014C000EFEE8AEDECADADEBEAE9E8E7EF000129DC
:1014D00071D1287802286ED8307093E10129F7D1B4
:1014E00028780128F7D870708CE10129F0D128788C
:1014F0000428F0D8B07085E10129E9D128780128C5
:10150000E9D8F0707EE11029E2D110222946C148C5
:10151000AFE00129DCD128780128DCD8307171E1F5
:101520000129D5D1287870716CE10429D0D12868BF
:101530009042D0D8306265E10129C9D128780228CB
:10154000C9D8B0715EE10129C2D128780128C2D87A
:10155000F07157E10129BBD128780428BBD830723B
:1015600050E10129B4D128780128B4D8707249E13A
:101570001029ADD1A74810222946103079E0012961
:10158000A6D128780128A6D8B0723BE101299FD1C5
:101590002878F07236E104299AD1286890429AD8C6
:1015A00070622FE1002906D101F0DCFA002803D097
:1015B0000120F07426E129E009F0B4FE1EE00729BD
:1015C00024D10622691C684615F01EFD287802AA5F
:1015D0006946FFF7C1FE0546307E854270D202A8FB
:1015E0000EF09AFE002806D0F26B2901012089181E
:1015F0008873162406E1284609F0A6FE502015F04F
:10160000BDFFA1E0072902D0012945D0C3E0062291
:10161000691C07A815F0F8FC2878002207A9FFF735
:101620009BFE317E884216D206214843054621356D
:10163000E8B26A461C2115F0DDFF002840D176484B
:10164000874201D1012000E0FF206946C876E8B258
:101650006A461C21C5E0B07E002831D06E48874222
:10166000F07E16D101210843F07669480722294609
:10167000403015F0C9FCC5E08BE068E084E01AE07A
:1016800016E07FE079E071E0B3E054E04BE043E046
:101690003BE04008400009E05D485F49C07E8F4262
:1016A00002D10221084301E0FD210840F076A9E0C3
:1016B00000207075A6E00027012070753D461BE0F4
:1016C00095E028460621484306462136F0B26A4690
:1016D0001C2115F08FFF00280CD16846C07EFF2822
:1016E00008D0FF206946C8760127F0B26A461C215F
:1016F00015F0C4FF6D1CEDB24548007E8542E0D375
:10170000002F7FD04248007D6EE0012943D1287828
:10171000012840D8307375E001293CD12878092888
:1017200039D870736EE0012935D12878C11F092995
:1017300031D8B07366E001292DD1717C287870749E
:1017400000295FD101285DD109F0DAFE5AE00129B4
:1017500021D1B17C2878B074002903D1012801D1AE
:1017600009F0CEFEB07C02F056FF4BE0012912D109
:10177000287803280FD8307444E001290BD1287849
:1017800030753FE001202FE0012904D12878B075A1
:1017900038E0242901D0182434E068780022A91CFC
:1017A000FFF7DAFD317E88422CD2297808290BD048
:1017B000062148432130C7B26A461C21384615F03D
:1017C00019FF002804D012E0062148432230F2E736
:1017D00029461B220831684615F016FC6A461C2172
:1017E000384615F04BFF307D15F0E4FE0AE0022488
:1017F00008E0192FFBD20229F9D12988384601F0D7
:1018000077FB0446204609B0F0BD00003F420F00C0
:10181000644300207C4600201A040000FEB5064602
:1018200000200190029030460EF05AFD040017D0BF
:10183000144FB879022813D0607901AAA11DFFF7CF
:101840008BFD0546387E85420BD2284609F038FECE
:1018500002460120009008232946304609F0EEFC9C
:10186000FEBDB879002807D00128F9D1617900229E
:10187000304609F01DFCFEBD0521304601F078FB25
:10188000FEBD000064430020F7B516491525164E2D
:10189000174688420FD1002409E03A4620460199B4
:1018A00009F07AFE002800D00025641CE4B2307EE6
:1018B0008442F2D313E00EF013FD00280ED04379DA
:1018C000811D00221846FFF747FD317E884206D26F
:1018D0003A46019909F060FE002500E014252846EB
:1018E000FEBD0000FFFF00006443002010B5114C56
:1018F0002078FF281BD1104808F000FE2070FF2838
:1019000015D00E4A002111600D4A0E4B11700122B4
:101910001A700D4B03221A700C4A0D4B11700722DE
:101920001A700C4A117001F08BFA002010BD1820BB
:1019300010BD0000C8430020B9190100B8430020C1
:10194000D0430020C9430020D1430020D2430020CF
:10195000D3430020D443002010B503F001FD10480C
:1019600008F0CCFD03F02EFA0E4808F0C7FD01F098
:1019700069F80D4808F0C2FD02F054F80B4808F071
:10198000BDFD08F0FFFA0A4808F0B8FDFFF70AFAB3
:10199000084808F0B3FD01F0C3FBFFF7A7FF10BD37
:1019A0000D4F0100612D0100313C010095A00100A7
:1019B000A51001006D3201003EB5214D0C46080412
:1019C00011D5287815F066FC050009D00178912919
:1019D00003D0D02901D10AF05DFF284615F032FC72
:1019E0000120C0032AE0E00729D01648007800282B
:1019F00023D01548694600780870144806220078FC
:101A0000487000A81249023015F0FEFA11486946E4
:101A100000780872104800784872287801F02EF893
:101A200000280AD00D49062008700D4909680029D0
:101A300003D00968002900D08847012060403EBDDE
:101A4000C8430020CB430020D1430020D2430020D4
:101A5000E0430020D3430020D4430020D0430020A3
:101A6000B84300200149086070470000B8430020D7
:101A70001CB50B490978002901D011201CBD002894
:101A800001D00849086000200090034602460190FA
:101A9000054801780548007800F0B2FE00201CBD22
:101AA000D0430020B8430020C9430020C843002091
:101AB00010B50248007800F03BFE10BDBC4300208A
:101AC00010B51548007F800810D0144808F016FDA6
:101AD000134CFF28207009D0124A0821117000F021
:101AE000C1FB11480078002802D013E0182010BD77
:101AF0000E4A1021022015F07DFD0D4A1021032011
:101B000015F078FD04210B4A084615F073FD207886
:101B100001F096F9002010BD28440020D11B0100DF
:101B2000BC430020C9430020CE430020DB460020F8
:101B3000EB460020DC4300203EB5084C6D4624787F
:101B40002C706870A970EA700622194601A815F079
:101B50005BFA684600F0D2FE3EBD0000BC430020A8
:101B600010B504F0FDFC13480078002801D0FF28D0
:101B70001DD1114808F0C2FC03F024F90F4808F009
:101B8000BDFC00F05FFF0E4808F0B8FC01F04AFF12
:101B90000C4808F0B3FC08F0F5F90B4808F0AEFC6F
:101BA000FFF700F9094808F0A9FC01F0B9FAFFF7BE
:101BB00087FF10BDC84300200D4F0100612D0100BB
:101BC000313C010095A00100A51001006D3201001B
:101BD00070B50C4608040DD50F48007815F05AFB77
:101BE000050004D009F060FF284615F02BFB01200A
:101BF000C0030CE060040CD50421084A084615F027
:101C00003DFD0748007815F0D5FC012080036040B9
:101C100070BD002070BD0000BC430020DC430020EC
:101C2000784300207CB514460D4602F0ABF8002D39
:101C300002D02846FFF720F80A48002C00D0446064
:101C400009490978002901D000207CBD0849074ACC
:101C5000009101920849074B0A780821007800F0AA
:101C6000CFFD7CBDBC430020CE430020DC430020E0
:101C7000EB460020DB460020CD43002038B5054B65
:101C80006C461B7823706070A170E270684600F0AB
:101C90006BFD38BDBC43002070B50C4601460320E7
:101CA00000020A1A00252548130008F01DFD130B39
:101CB0000D10171A1E2125292B2D3133393B3D3D9F
:101CC00035373D00407811E010221D4902E01C49E3
:101CD00010221031204615F097F92DE04069206060
:101CE0002AE0164906221E31F4E7C078207023E06E
:101CF000124982782431EDE7114902791F39E9E769
:101D0000407AF3E7807AF1E70C4906221831E1E7DF
:101D1000C07AEBE7007BE9E7C0890AE0008A08E0C7
:101D2000007AE3E74079E1E7192904D2084600F098
:101D30007DFE208000E00225284670BDC8430020BB
:101D4000DB46002010B50248007800F0F1FC10BD21
:101D5000C843002010B50B4C2078FF280FD10A484B
:101D600008F0CCFB2070FF2809D0084A0021116040
:101D7000074A0221117001F063F8002010BD1820FD
:101D800010BD0000C8430020F51D0100C443002021
:101D9000C943002010B505F0B1FA104808F0AEFBB9
:101DA00003F010F80E4808F0A9FB00F04BFE0D48B8
:101DB00008F0A4FB01F036FE0B4808F09FFB08F08A
:101DC000E1F80A4808F09AFBFEF7ECFF084808F033
:101DD00095FB01F0A5F9FFF7BDFF10BD0D4F010008
:101DE000612D0100313C010095A00100A51001000A
:101DF0006D32010070B50D46080426D514480078F0
:101E000015F048FA06001CD00178912916D0D02987
:101E100014D1B0783446002807D17078002804D156
:101E20000622F11C0B4815F0EFF80B48006800285B
:101E300004D00168002901D020468847304615F0BB
:101E400001FA0120C003684070BD002070BD000091
:101E5000C8430020E6430020C44300201CB50028EE
:101E600001D0074908600020009003460190054812
:101E7000022102780448007800F0C2FC1CBD00007A
:101E8000C4430020CD430020C843002038B5054B93
:101E90006C461B7823706070A170E270684600F099
:101EA00063FC38BDC8430020F8B5164CFF202070F5
:101EB000002565700320A0700126E6700627656185
:101EC0001920E781C001208220461F2229462430A4
:101ED00015F09CF92046022124300170467087706D
:101EE00025711F220021084815F090F9204606228E
:101EF0000021183015F08AF96571A571FF20E07195
:101F0000F8BD0000C8430020BC460020FFB583B0E8
:101F10001C4615460E460C9F03980EF0E1F900286A
:101F200017D0C189B14207D3A94205D8018AA1427D
:101F300002D1408AB8420ED068460680458084802F
:101F4000C78069460D9A039802F0FCFE002007B096
:101F5000F0BD1420FBE71820F9E7000010B5254874
:101F6000007F800744D0244C2078FF2840D12348AC
:101F700008F0C4FA2070FF283AD0214900240C60F0
:101F80002049214A0C700421117000F059FF1022E1
:101F900000211E4815F03AF9102200211C4815F0C6
:101FA00035F91C481E4904601B48184A04701B4838
:101FB0000470072008701B4810210470022015F0DF
:101FC00019FB134A1021032015F014FB10220F49AE
:101FD000154815F019F8144810220D49103015F065
:101FE00013F804210B4A084615F004FB002010BD2D
:101FF000182010BD28440020C84300208D20010077
:10200000B4430020D0430020C9430020DB46002019
:10201000EB460020DC430020D1430020D2430020C7
:10202000D3430020D44300209C46002010B505F087
:10203000DDFC104808F062FA02F0C4FE0E4808F019
:102040005DFA00F0FFFC0D4808F058FA01F0EAFCD8
:102050000B4808F053FA07F095FF0A4808F04EFACB
:10206000FEF7A0FE084808F049FA01F059F8FFF71A
:1020700075FF10BD0D4F0100612D0100313C0100C5
:1020800095A00100A51001006D320100FEB54A4C7B
:102090000D46080448D5207815F0FCF8040040D01F
:1020A00046480078002808D02078454ED02808D02F
:1020B000A22802D0912821D014E020460AF034FD55
:1020C0002CE0A07800280DD0052807D0082809D0DA
:1020D00006280BD00728F0D1A0881BE0608919E002
:1020E000007B04E020460AF01FFD02E0E0790828AA
:1020F000E3D12146307815F005F912E060780E281A
:10210000F0D1A0882F498842ECD1A068817842782C
:10211000080210430EF0E4F80028E1D1204615F043
:1021200091F80120C00345E068040BD50421264A3C
:10213000084615F0A3FA2548007815F03BFA01206F
:10214000800337E0E80736D021480078002830D0F7
:102150000EF048FA1F49097F8907890F884203D387
:102160000320694608700CE01B4869460078087037
:102170001A4806220078487000A81949023014F065
:1021800043FF18486946007808721748007848727B
:10219000207800F073FC00280BD01449062008704A
:1021A00013490968002904D00A68002A01D00021D7
:1021B000904701206840FEBDC8430020CE43002068
:1021C000CF43002005140000DC43002078430020AA
:1021D000CB43002028440020D1430020D2430020DC
:1021E000E0430020D3430020D4430020D04300200C
:1021F000B44300207CB514460D4601F0CFFD002D00
:1022000002D02846FEF73EFF0C480078002801D097
:1022100011207CBD002C01D0094804600A480090C0
:1022200008490B48019102780A48084B01780A488E
:10223000007800F0E5FA00207CBD0000D0430020CB
:10224000B4430020DC430020EB460020DB460020A6
:10225000CD430020C9430020C843002010B502F040
:1022600021FA10BD0449C8710878FF2803D0012065
:1022700088710C2048707047C8430020F8B50C46A0
:1022800062491646421819210025C901604F130002
:1022900008F02AFA120A1017B01C3E56717880898D
:1022A00090B0ABB0B097A0B0102C72D110223146D4
:1022B000584875E0102C6CD1564810223146103029
:1022C0006EE0042C65D13068786198E0012C60D113
:1022D000F97830784E4AF870127800290AD0002830
:1022E00007D1387A022801D0052802D1104600F023
:1022F000DBFA84E000280AD0387A012803D00328CA
:1023000001D004287BD10121104615F003F976E0B5
:102310001F2C68D8002C66D0002E64D03C481F22A9
:102320000021243014F072FF39482246314624300F
:1023300014F06AFE364BBC7024332246012116E0AD
:102340001F2C50D8002C4ED0002E4CD031481F22CC
:1023500000211F3814F05AFF2E48224631461F38FC
:1023600014F052FE2B4B3C711F3B22460021387863
:1023700000F052FE43E0012C35D13078042832D8E9
:1023800078723CE0012C2ED1307803282BD8B8721B
:1023900035E028E0062C26D11D48062231461830AB
:1023A00014F032FE2BE0012C1DD1307807281AD80A
:1023B000F87224E0012C16D13078032813D8387332
:1023C0001DE03088022C0ED106280CD388420AD892
:1023D000F88114E03088022C05D1062803D3884206
:1023E00001D838820BE0182509E0012CFBD13078A8
:1023F000787104E0192801D2022C02D00225284667
:10240000F8BD318800F074FD0546F8E7FFFCFFFFDA
:10241000C8430020DB46002010B504460DF060FFE5
:10242000002805D000781322214600F0B1FD10BD30
:10243000122010BD3EB50024069D01940095029423
:1024400002F069F83EBD0000F8B50E46070048D01E
:1024500038880DF045FF050041D0234AA96BD0789C
:10246000022806D0012804D0287B082803D1002E9A
:1024700001D0122436E0002901D0112432E01B499A
:102480002C2014F0E7FD0446A863200025D02C2260
:10249000002114F0BBFE388860801C22391D201DED
:1024A00014F0B2FD022020700F483A880178287B92
:1024B000082810D00020231D07F099FE0446002EA6
:1024C00003D03146284613F089FB002C0AD0284659
:1024D00009F06EFB06E00120EDE7132402E014246E
:1024E00000E002242046F8BD84410020144700008B
:1024F000FFB51F4881B0C0781E4617460D4602281A
:1025000018D0012816D0002F30D001980DF0E8FE29
:10251000040029D0E06A002801D014F0D7FD1C2166
:10252000384614F087FDE062011E1BD0207B08288E
:1025300003D00DE0122005B0F0BD002E08D0887E3B
:1025400000900B4612330A8A019813F0A7FE00E0B0
:1025500000202179002D01D0062200E00422114341
:102560002171E8E71320E6E71420E4E70220E2E720
:102570008441002010B50548C078000701D5044803
:1025800000E000200AF074F910BD00008441002032
:10259000CC41002070B51A4C05460121207809F085
:1025A0002DFB1848C1780A20014223D02570164817
:1025B0000AF058F9606800281AD1207800281DD048
:1025C0000001124914F046FD6060002810D0217807
:1025D0000A01002114F01AFE0020FF21626803E0C6
:1025E0000301401CD154C0B223789842F8D305E0CF
:1025F000132070BD002020700AF034F9002070BD57
:10260000C041002084410020D44500201B47000029
:10261000094900200870486088600948074901603E
:102620000849416008498160034808490C3001604D
:102630000749416070470000C0410020E5B9010032
:10264000D4450020C9C5010025C5010095B8010089
:10265000CDB80100F3B5334F0025BE7883B00446F2
:1026600003282DD83878032802D0102005B0F0BDFB
:10267000012C04D0022C02D0032C29D02DE0049888
:1026800000280CD006220021684614F0BFFD062267
:102690006946049814F0AAFC002811D104E0062130
:1026A000684613F08DF818E00622FF21684614F002
:1026B000ADFD06226946049814F098FC002801D06C
:1026C0000220D3E706226846049914F09DFC04E03A
:1026D0006946F86807F0E3FB05461348BC700078CC
:1026E000042115F0C9F800207871002D01D0BE70CA
:1026F00015E0002C13D0684609F0A0FE0500F6D1C5
:10270000032C0CD1112000F091F90006000E787115
:1027100005D00548054A0078042115F03BF8284605
:10272000A4E70000804500208441002000770100DC
:1027300010B50B498968002910D0097881420BD166
:1027400008480121007815F097F830200AF038FA8F
:1027500000200AF05FFB10BD032010BD122010BD49
:10276000C0410020844100207CB5204D0446A8686B
:10277000002801D011207CBD1D480A21C0780842E4
:1027800031D01C49042014F065FCA860002828D032
:102790000422214614F038FC052000F047F90646D3
:1027A000062000F043F9054601A91348FEF798FA00
:1027B0006846017911480029807805D0002801D0A9
:1027C000032306E0022304E0002801D0012300E0F7
:1027D0000023E0780090A0782A46314601F03EFFC1
:1027E0007CBD13207CBD12207CBD0000C0410020B8
:1027F000844100201D4700001F0400008045002088
:10280000F8B50224079F1D461646042919D004DC9A
:10281000012907D0022945D10BE008291BD00C293A
:1028200040D129E000F0DEF904003BD100F032FA9B
:1028300038E000F0D7F9040034D13046FFF7AAFEA3
:1028400030E000F0CFF904002CD13A462846069932
:1028500000F000FB20E000F0C5F9040022D13A4668
:102860002846069900F0F6FA3046FFF793FEFFF788
:1028700081FE07F099FB15E000F0B4F9040011D1D6
:102880003A462846069900F0E5FA3046FFF782FE00
:10289000FFF770FE07F088FB00F0FCF900F0E2F9AA
:1028A00007F05CFC2046F8BD70B5104C216800298B
:1028B00019D00978814214D10D4D0221287814F0E5
:1028C000DBFF0C48002646802878042114F0D4FF52
:1028D00009484671216803204870002001F0A3FEDA
:1028E00070BD032070BD122070BD0000A841002003
:1028F00084410020D441002080450020F0B5454DA2
:102900000446E8788DB000077FD5434880680028EA
:1029100001D010247AE000F025F92979884272D29A
:102920003E4E3068002801D011246FE03C490A2057
:1029300014F090FB3060002863D00A22214614F086
:1029400063FB30684078002805D00B2000F06EF85B
:102950000B900C2004E0092000F068F80B900A208E
:1029600000F064F8054608A92E48FEF7B9F908A852
:1029700001782D480029807805D0002801D0032453
:1029800006E0022404E0002801D0012400E0002435
:10299000102000F04BF800900F2000F047F8019055
:1029A0000D2000F043F807460E2000F03FF802909B
:1029B000082000F03BF80990072000F037F80A9053
:1029C0003168C878091D08F0AAFA0346684607C8A6
:1029D000059704920691079032680A990998161D86
:1029E0000194029103900096927829460B9801F089
:1029F000B1FD04000AD0032009F0F4F806E004E079
:102A000001E0132402E0152400E0122420460DB05A
:102A1000F0BD000084410020C0410020AC410020F6
:102A20001C4700001F04000080450020192801D326
:102A30000248704702494000085A7047FFFF0000F3
:102A4000A045002010B5044600F090F800F068F9A9
:102A5000FFF7DEFDFFF728FA0649FF23CB700022BF
:102A60008A700A710448052143700470204602F000
:102A700095FA10BD8045002084410020F3B5334E07
:102A80000024306883B0002802D0112005B0F0BDCA
:102A90002F4D0521E878084201D11220F6E72D4993
:102AA0004968002905D00978002902D0C00702D062
:102AB00008E01020EAE700F055F807460DF070FD39
:102AC000874207D304980078022803D0032801D056
:102AD000122439E020490C2014F0BCFA30600028A0
:102AE00031D003990170002141700A22801C0499A1
:102AF00014F08AFA02A91948FEF7F2F86846007A3B
:102B0000002803D116488078032806D00AF0AEF9D1
:102B1000040019D009F040F816E009F0C5F869463C
:102B200007F0BDF9684609F089FC1120FFF77EFF28
:102B3000002809D019218901484302462878042138
:102B400014F03AFE00E0132420469FE7A84100203D
:102B500084410020D4410020174700001F040000DA
:102B60008045002010B50DF001FD10BD1A48002170
:102B70000170417041608160C160016141618161AA
:102B80001648B42201804280012292038280A02252
:102B9000C28002811022428182815023C38103823C
:102BA00042828282C2827D2302831B01438381830E
:102BB000C183E12301849B004384094B8384072361
:102BC000C3840285012242857E22D2438285C1854B
:102BD0000186491E4186704794410020A04500208F
:102BE00080BB000070B50E46054620220021094832
:102BF00014F00CFB074C0848E570C67001F048FD66
:102C0000002803D000202070122070BD0121217007
:102C100070BD000080450020844100207FB504463F
:102C20000D4608460DF05CFB002817D00C48844286
:102C300012D210220021684614F0E8FA69460C709E
:102C4000200A4870200C8870200EC87029466846FB
:102C500007F0DEF904B070BD0220FBE71220F9E7AF
:102C600040420F0010B50848C078400707D5074814
:102C700009F00AFE00200649C043C88010BD0020AC
:102C800009F002FE10BD000084410020E441002054
:102C900080450020F8B51E4C00256068002802D051
:102CA00014F014FA6560E068002802D014F00EFAFF
:102CB000E560184E0527F078384224D0164809F010
:102CC000DDFDF07838421CD01449202014F0C2F900
:102CD0006060002815D02022002114F097FA0F49D7
:102CE0002020491E14F0B6F9E060002805D020220B
:102CF000002114F08BFA0020F8BD606814F0E6F9AA
:102D000065601320F8BD002009F0B8FDF3E700006E
:102D1000D441002084410020E045002016470000F7
:102D20000948FF2101700021418041608160C1603C
:102D30000748064901600749416007498160024927
:102D40000648103108607047D44100201DBF0100C3
:102D5000E045002061C101006DCE01008DBE010083
:102D6000FEB5344F344D0C4608041FD5387814F0A6
:102D700091FA061E17D03078A22806D07D7830460A
:102D800009F084FC00280AD102E02B48C578F6E758
:102D9000FF2D04D03146284614F0B4FAE6E7304659
:102DA00014F050FAE2E70120C0033EE0E1070126FB
:102DB000224800290AD04068002804D04168002930
:102DC00001D00020884720467040FEBDA10709D5EC
:102DD000C068002804D04168002901D0012088473C
:102DE000022022E0610722D54169002908D02E7116
:102DF000C068002804D04168002901D0012088471C
:102E00006946E86807F04BF8684609F017FB11209F
:102E1000FFF70CFE002807D019218901484302461C
:102E20003878042114F0C8FC04206040FEBD002066
:102E3000FEBD000084410020804500209441002018
:102E400001494870704700008441002010B507F028
:102E50005FF910BD70B5154C0E46626121610546E3
:102E6000E0601022FF21304614F0B1F8012806D0AE
:102E700010220021304614F0AAF8012803D11021B5
:102E8000206912F09DFC1022FF21284614F09FF8C3
:102E9000012806D010220021284614F098F80128B5
:102EA00003D11021E06812F08BFC70BD804500203A
:102EB0007FB50C4605460DF013FA002814D0826B3E
:102EC000007B042802D0122004B070BD002A00D07C
:102ED000947D6846214613F01DFA044B6A46022190
:102EE000284613F099F9EFE71420EDE7096802008E
:102EF00070B504460D46192802D20748854201D113
:102F0000022070BD112C02D1084601F09FFB03493D
:102F100060000D52002070BDFFFF0000A0450020A2
:102F200070B50E4611491546CB78022B17D0012BF0
:102F300015D0002D17D00DF0D3F9040011D0002EBC
:102F400003D020790221084320712046102229460F
:102F5000183014F059F82869A062002070BD1220C2
:102F600070BD142070BD022070BD0000844100209F
:102F700038B50C4605460DF0B3F9002806D0684672
:102F800004706946284613F035F938BD142038BD61
:102F9000F7B505461E4812261E4F0C46814208D141
:102FA000B868002832D00268002A2FD028469047FF
:102FB000FEBD1748401C844219D1B868002806D0CD
:102FC0000268002A03D028469047002806D02846E9
:102FD000029907F097FF060005D017E07D70029870
:102FE00038700020FEBD7D70029838700EE00846F3
:102FF0000DF076F9002809D00078A84201D003200E
:10300000FEBD2046029901F058FAFEBD3046FEBDD5
:10301000FEFF00009441002070B51446024620488F
:103020001E46C0780523184224D01E4D00296B6827
:10303000E86802D0002B1DD001E000281AD0202C17
:103040002CD2002C01D0002E28D02A70002913D0B9
:103050001F220021581C14F0D9F868682246314616
:10306000401C13F0D1FF696820460C70491C01F028
:10307000D6FA70BD122070BD1F220021401C14F032
:10308000C5F8E86822463146401C13F0BDFFE968E8
:1030900020460C70491C01F0E7FA70BD022070BD9B
:1030A00084410020D441002010B5094A014613791B
:1030B0000020002B0BD101231371C90707D0134641
:1030C0006C33184610220421403800F015FA10BD68
:1030D000AC4200207CB50D46104904460869002228
:1030E000002805D08388A34204D002460068F7E791
:1030F00001207CBD002A02D00168116001E0026855
:103100000A6113F0E3FF6946204600F0CFFA002879
:10311000EFD1002DEDD0019929607CBDAC4200209B
:1031200070B5054601F0B8F800F02EF8054C0648D9
:10313000E570216A00F00CF8E078607003480DF04B
:1031400071FA70BDAC420020FFFF000049DF0100B2
:1031500070B50B4C0025A0420BD10020094B04E0B8
:1031600082008C5252189570401C5A798242F7DCCA
:1031700070BD0AF0ADFE0028FAD00480857070BDE5
:10318000FFFF000084410020F0B51E492020087098
:10319000FF2048708870C8700126CE80002008810A
:1031A000C86008610B460224243348611C70164A2B
:1031B0005A600A4608712C321470144D556016720C
:1031C0005081D3601474124F15466F612E76688358
:1031D000E9612021545413460E4D59185D6208725E
:1031E0005885D862302154540B4C03235118546332
:1031F0000B7250870C3ACA6011464C31074A05C120
:103200000860F0BDAC420020237A0200257A02005B
:103210002B7A0200437A0200317A020001EA0100AF
:10322000F8B50E460746069900240798002902D0F3
:103230000B242046F8BD022B01D00D24F9E751786C
:1032400012780D0215432946814301D08024F0E70E
:103250003846F16800F042F9A842EAD02A463846DA
:10326000F16800F0F7F90446E3E7000070B50D4699
:1032700008041AD50E48C07814F00CF804000FD0DA
:103280002078B02809D120460AF0F6FF002804D0A3
:1032900020462179083000F0BBFF204613F0D2FF12
:1032A00001212846C903484070BD002070BD0000C0
:1032B000AC420020FFB585B000200F9F0090087A37
:1032C0000E9D1C460E46C0060BD507980AF0F8FD69
:1032D00003007DD00A2231460598984700900028C7
:1032E00016D13078022815D007980AF01DFE002864
:1032F000EFD0006884460028EBD011991098224640
:103300000097029101902B46314664460598A047EC
:1033100009B0F0BD706829224178007809020143A4
:103320001202881A91427CD00BDC6948081A13D02B
:10333000012811D0022817D00328D5D1002F53D04F
:103340009BE001287ED002286DD0032877D0042886
:10335000CAD1002F68D090E0002F6FD1F0680178BB
:1033600029800278416884E0002F67D1F0684178B5
:1033700000780F02074304202880F06804A9007831
:103380002070F06840786070384600F05FFA060000
:1033900022D06846028A03AB4E493046F76800F0F7
:1033A000C3FA00280AD1337802214B487268FCF72F
:1033B0002AFD002802D147486946888138780228CA
:1033C0000CD10222201D796813F01EFE288800E02F
:1033D0007CE0801C288001E06846878168468089FF
:1033E000A070000AE0706FE001202880F0680021E2
:1033F000007820707089401C80B200F027FA002805
:1034000013D0298802788918891C2980817A6170F3
:103410004189090AA17002784168E01C13F0F4FDAB
:1034200052E00CE00EE026E03BE028880422001D7C
:1034300028800021601C13F0E9FE45E01DE0002F0C
:1034400027D01AE0F06814F035FA80B2B84201D201
:1034500007205DE7874201D1002006E01099C919D5
:10346000814201D3C01B00E01098288082B2F0682E
:10347000C1192046D2E7002F01D00B2048E7F168A0
:10348000059800F02BF8022129802070000A607056
:103490001AE002202880F06800782070F0684078F8
:1034A000F5E70721F0682980017821704178617083
:1034B0008178A1704188090AE170017921718179CF
:1034C0006171C088000AA071009821E70E201FE7F3
:1034D00000280000FFFF0000277A020010B50AF064
:1034E000F7FC002800D0807810BD000001498870EA
:1034F00070470000AC420020FEB51F46060020D0F9
:10350000684601808270019600F04EFC050023D1D0
:10351000002F21D07089002813D010490C2013F0FF
:1035200099FD040017D00C22002113F06FFE00203B
:1035300020607089A0800A49A7600869002803D12B
:1035400007E00220FEBD084601680029FBD10460A7
:1035500002E00C6100E013252846FEBD054700008F
:10356000AC420020F8B50C4C0746A07815460E4634
:10357000FF280FD00A2013F051FE01000AD0B1201D
:1035800008704F80002048700871CE800D81A078AF
:1035900013F0B8FEF8BD0000AC42002070B505463F
:1035A00007480C46016A2846FFF798FF800704D5B4
:1035B0002146284600F0AEFC70BD012070BD000021
:1035C000AC4200200EB56B461A81FE230022019307
:1035D0000092022302AA00F001F80EBDFFB583B0ED
:1035E000174602A90D9E049800F030F904002AD075
:1035F000684600890AF098FC002822D04568002D12
:103600001FD00C98019600903A462146069B0398DD
:10361000A847050018D1FE2E16D02078022813D115
:1036200060684178027808020949104388420BD14A
:103630007878397802020A4304990398FFF792FFD9
:1036400002E00E2500E00125284607B0F0BD00008D
:103650000229000070B514460E4605460AF038FCF3
:10366000002806D1314605480AF032FC002803D074
:1036700005808470002070BD112070BDFFFF000028
:1036800010B50178B0290BD14178002908D1017912
:10369000122906D01B2903D14088012101F086FBA5
:1036A00010BD417C0129F7D010BD000070B5114A52
:1036B0000B46014654690020002C06D0A5686D8990
:1036C0008D4204D020462468F6E7012070BD002812
:1036D00002D02168016001E020685061002B04D015
:1036E0000822211D184613F08FFC204613F0EEFC33
:1036F000002070BDAC420020FEB5064668468180C1
:10370000C2801D4602A9304609F050FE04000CD1CB
:1037100001A93046FCF72CFC040006D1044B05221D
:1037200001A9009502980BF0AFFA2046FEBD0000FB
:103730006B01010010B586B06C46218062800221C9
:103740002171032161712821A171002269460AF0CB
:10375000E3FA06B010BD000070B588B00D4606460D
:10376000012069468880801EC880022008720020DF
:1037700048722820887207A9304609F017FE040015
:103780000CD101A93046FCF789FE040006D1054B97
:10379000112201A9009507980BF076FA204608B08F
:1037A00070BD0000DD02010010B5134601220AF0D1
:1037B000B3FA10BDFFB5002489B01E4615460F466A
:1037C000022A05D0102D03D0022420460DB0F0BDF2
:1037D000002FFAD007A9099809F0E8FD0400F4D1F8
:1037E000012069468880801EC8800D7202A82A4682
:1037F0003946013013F008FC01A9099809F062FD6F
:103800000400E2D1034B072201A9009607980BF0B0
:103810003BFADAE735010100FEB50E4615460746CC
:1038200001A909F0C3FD04000CD131463846FCF76C
:1038300031FB040006D1044B032231460095019868
:103840000BF022FA2046FEBDB9000100F0B5104A87
:10385000536919E09C686589A84214D39E8872193F
:10386000824210D900220CE017013F197F8987425C
:1038700005D1002900D00D8010010019F0BD521CA7
:1038800092B2B242F0D31B68002BE3D10020F0BD0E
:10389000AC420020FFB51B4883B0002345692DE0F2
:1038A000AE68002470890190A888009016E021017C
:1038B00088194289039FBA420ED3049FBA420BD89B
:1038C000069A002A0FD01346715C4068059AFCF7EF
:1038D0009AFA002807D10023641CA4B200988442FD
:1038E000E5D3002B09D00C98002802D00C99019840
:1038F00008802001801907B0F0BD2D68002DCFD1C0
:103900000020F8E7AC42002010B586B06C4621805C
:1039100062800221217161712821A1710022694612
:103920000AF0FAF906B010BDFEB5174600256A4642
:103930009580044640891D4A1E46904208D001AA3F
:103940000092401C237880B26268FFF7A3FF05460F
:103950002378022116486268FCF755FA002807D13F
:103960002378022113486268FCF74DFA002801D041
:1039700060890EE0237802210F486268FCF743FA61
:1039800000280DD0002D03D068468088B84203D0AF
:1039900038460BF059F904E06889401E80B200E017
:1039A0006089002E00D030802846FEBDFFFF000059
:1039B000257A0200277A02002B7A0200FFB583B035
:1039C0000E461D46174601A9039809F039FD04006B
:1039D00022D1002F0FD0694608803088FFF736FFCC
:1039E0006946088800F0D2FA0146012203980CF0DB
:1039F0004BFC002811D131460398FCF70DFB040065
:103A00000AD1FF2D08D0019B1E22194604489B1C99
:103A10000BF025F90198C570204607B0F0BD0000F5
:103A2000B1EA010010B50446FCF722FB0749FF206C
:103A3000087048700020486088608C70042120461F
:103A400001F0ACFA00F04CF810BD000098420020E4
:103A5000F8B51C4F2821387948431B4913F0FAFA6E
:103A60001A4E282170603A794A43002113F0CEFBA8
:103A70007068002823D00024154D12E028207168BA
:103A800060434018058000218170FF22427202725B
:103A900081722422115418220C3013F0B7FB641CDD
:103AA000E4B23879A042E9D80A480AF083F90A4812
:103AB000FCF798FD09480CF0B5FD0020F8BD132077
:103AC000F8BD00008441002006470000A442002009
:103AD000FFFF000045D1010027D101006DD001009A
:103AE000F8B5294D0024AC61EC61284E2C62707948
:103AF00000283DD04A214843254913F0ABFAA8617C
:103B000072794A214A43002113F080FB28460021A4
:103B1000204F82690CE08B01D75200209B180C25A6
:103B200045435D19AC80401CEC600528F7DB491C5F
:103B300070798842EFDC0006800C134B811800205E
:103B4000D961FF2308E0062502466A438F525218C6
:103B5000D37093701471401C72798242F3DC01229D
:103B6000D2430A807279062307485A4351180162EA
:103B700009480AF025F90948FCF73AFD08480CF015
:103B800051FD0020F8BD0000AC420020844100201F
:103B900001470000FFFF0000F9EA0100DBEA010035
:103BA00031EA01007CB505461248164600780C46FD
:103BB000012801D816207CBD01A9284609F040FC47
:103BC0001728F8D0002E10D00020694608802088E1
:103BD000FFF73CFE6946088800F0D8F9014601224B
:103BE00028460CF051FB0028E5D121462846FCF779
:103BF00029FA7CBD25430020F8B51C4615460E4623
:103C000007460CF06DFB00280DD0017B0748082902
:103C10002B4632463946009403D0007809F026FC42
:103C2000F8BD4078FAE70120F8BD00009842002076
:103C3000F0B587B00F46080470D5394EB07813F050
:103C400029FB040064D02078A0285ED101206946B9
:103C500008732046FCF7BFFA050041D1684680781A
:103C600000280BD0142809D0152807D01A2805D011
:103C70001C2803D001461F3920290BD8B168002920
:103C80002ED06946497800292AD169460874062051
:103C900008751FE0C0070AD07368002B05D0608844
:103CA00003AA6946984705461AE0062518E0B36856
:103CB000002B06D0608803AA69469847050001D109
:103CC0000EE0062568464078002809D169468878C4
:103CD00008740D7500204882608804A9FCF7CEF8AE
:103CE0006846007B002804D0A068002801D013F0AB
:103CF000EDF9002D05D168468078122805D01B28E3
:103D000003D16088012101F051F8204613F09AFA9E
:103D10000120C003784007B0F0BDFFE70020FAE7BC
:103D20009842002010B509F0DDFF10BD10B509F074
:103D3000D9FF10BD10B50AF023F810BD10B50AF078
:103D40001FF810BDFEB50E461546074601A909F03D
:103D50002DFB04000CD131463846FCF7F3FB040080
:103D600006D1044B0F220021009501980AF08CFF28
:103D70002046FEBD9903010010B51346002209F04C
:103D8000CBFF10BD014948707047000098420020E9
:103D90000149087070470000A442002001490870E2
:103DA000704700009842002070B5044645680088BE
:103DB00000284ED02B78022127486A68FCF723F8A8
:103DC000002807D12B78022124486A68FCF71BF8E9
:103DD00000283ED0A078C01F092838D8204EF0888F
:103DE000002832D0218808180121090488422CD8E3
:103DF0001C490C2013F02EF9050024D00C220021C0
:103E000013F004FA002207E011016368F0880A3118
:103E10005852401CF080521C20889042F4DC002054
:103E2000286008222146281D13F0EEF8706900284A
:103E300001D105E0084601680029FBD1056000E0DA
:103E40007561002070BD132070BD012070BD182069
:103E500070BD022070BD0000257A0200277A0200A2
:103E6000AC42002002470000FFB585B015460C00AB
:103E70000FD0002D0DD00598FCF7A4F80022411FAB
:103E80000C20504300198088884204DD1B2009B0B3
:103E9000F0BD0220FBE7521CD2B2AA42F0D304A923
:103EA000059809F083FA060019D128460C214843E9
:103EB0000646164913F0CEF8070012D032462146C6
:103EC00013F0A2F8A0680090A38862882188059862
:103ED00009F0F9FA060006D0384613F0F7F8304634
:103EE000D5E71320D3E701206946087102970D73C7
:103EF00000204873089888730E980090044B17228E
:103F000001A904980AF0C0FEE9E70000014700009B
:103F100077020100FEB50E46074600250223194A26
:103F2000194901200095FFF7B5FC040027D0232094
:103F30000090002304221D21384600F023F902904E
:103F400000281AD06089694688800420C8800299B8
:103F5000012008700298334645700299FF2088704E
:103F600002990022C87001A93846FFF727FD040016
:103F700006D0029813F0AAF802E0152400E001240C
:103F80002046FEBD437A0200FFFF000000B509F0A5
:103F9000FDF9002801D0807800BD102000BD00B5DB
:103FA00009F0F4F9002800D0008800BD38B50C46AF
:103FB0000546694609F0FAF9172806D00120607213
:103FC000207221462846FCF72FFB38BD7CB50D46F4
:103FD00004460CF085F929462046FCF70FFB002823
:103FE00012D16846858020460CF07AF900280BD063
:103FF000027B01A90748082A009106D07F230022EE
:104000002146007809F032FA7CBD7F230022214648
:104010004078F7E79842002010B504460B46880622
:104020000DD51046FFF7B2FF0146012220460CF0E5
:104030002BF9052801D00F2800D1082010BD8820B9
:1040400003420CD01046FFF7A1FF0146180701D527
:10405000012200E0002220460CF016F910BD88076E
:1040600001D5002010BD032010BD10B50346C806C1
:104070000DD51046FFF78AFF0146012218460CF0C5
:1040800003F9052801D00F2800D1082010BD4807EA
:1040900005D51046FFF77AFF0146012206E04806E3
:1040A00008D51046FFF772FF0146002218460CF0B3
:1040B000EBF810BDC80701D0002010BD022010BDD4
:1040C00070B51D4603460C4688060DD51046FFF711
:1040D0005DFF0146012218460CF0D6F8052801D0F4
:1040E0000F2800D1082070BD8820044214D010464B
:1040F000FFF74CFF0146200701D5012200E0002216
:1041000018460CF0C1F8002808D0697A0029EAD0D6
:10411000297A002902D170BD880701D5002070BD21
:10412000032070BD10B500234B720B720AF0CCFD5A
:1041300010BD10B500234B720B720AF0C5FD10BD07
:1041400010B50AF0E5FD10BD10B50AF0E1FD10BD97
:1041500038B505460A480C460078012801D81620D3
:1041600038BD6946284609F021F91728F8D0012002
:1041700060720020207221462846FCF755FA38BDAF
:1041800025430020F8B5069F1E461546162928D05F
:104190000CDC09291FD004DC05291CD0062911D10B
:1041A0001BE0112917D012290CD118E01D2916D0B7
:1041B00004DC172915D01B2904D110E052290ED098
:1041C000D2290CD00124114A95420CD1FBF7FAFEFA
:1041D000001B85B20BE00224F5E70724F3E7032474
:1041E000F1E70524EFE7D22901D10C35ADB2601912
:1041F00080B2394600F036FF002805D0002E00D0EE
:104200003580614212F0AEFEF8BD0000FFFF0000F5
:1042100010B509F0E1F8002801D012F057FF10BDE9
:1042200010B5094A014653790020002B0BD1012318
:104230005371C90707D01346A43318461022092129
:104240009038FFF759F910BDE841002010B500245F
:104250000B46002809D00E4901280CD004280DD0A7
:10426000092812D00224204610BD152209491846FB
:1042700012F0CAFEF7E7C8881880F4E7044908225C
:104280000C311846FBF79DF8EDE708791870EAE75E
:10429000E8410020EC450020F0B500213D4C022211
:1042A000A1603D4D227008462954401C80B216285A
:1042B000FAD36270374BE180A27050200C33188023
:1042C000A0205880184681807D20C000D880E270F0
:1042D0000123304823716171143002702F4C446007
:1042E000037241812E4CC460064602742D4F7761E3
:1042F0003446337671831034143EE6602024025530
:104300000646294F3419776223727185F56230248D
:1043100002550546234E6E632C1923726987133D9F
:10432000E560402402550546204E6E642C19237228
:1043300061810E3DE560502402550546194E2C1949
:104340006E6523726181123DE56060240255054669
:10435000174E6E662C1923726181083DE56070244A
:10436000025505460F4E2C196E6723726181113D6F
:10437000E560802402550F4A80304260037241811B
:104380006A1CC2600C48A03210600C485060104695
:104390008160F0BDE8410020EC450020257A020054
:1043A000907902002B7A0200397A02003B7A0200EF
:1043B000417A02004B7A020011EE010059EF010030
:1043C00070B51646214A0D461146002414310300EB
:1043D00006F08AF90A061338381838212838313897
:1043E000152D2AD816220021194812F00FFF2A464F
:1043F0003146174812F008FE25E0022D1DD1308805
:10440000D08020E0082D18D11048082231460C3009
:10441000FAF7D7FF17E0012D0FD1CA690B493078A1
:104420003C3105E0012D08D1CA6B084930785C3178
:104430000AF05AFD07E0012D01D0182403E030787E
:10444000107100E00224204670BD0000E841002009
:10445000EC4500201148807C01280DD003280ED0A7
:1044600007280FD00F2810D01C2811D0222811D0D7
:10447000322811D0002070471320C04370470D2010
:10448000C04370470720C04370470220C0437047B5
:104490000120704702207047032070472844002005
:1044A000704710B500F032F910BD10B500F04EF9AC
:1044B00010BD10B500F062F910BD10B5FBF78AF918
:1044C00010BD10B500F06EF910BD10B500F082F906
:1044D00010BD10B500F098F910BD10B5FBF784F9C8
:1044E000002010BD10B5FBF799F910BD10B5FBF712
:1044F000A5F910BD7CB5069C079DC0B2019500943E
:1045000000F09AF97CBD10B5FBF7A8F910BD10B505
:10451000FBF7B4F910BDFEB508AF70CF6F4670C79A
:10452000FBF7BCF9FEBDF0B585B084460AA8F1C81A
:1045300004976F4671C7604600F0AEF905B0F0BD54
:1045400038B5049C009400F0DFF938BD10B5FBF7D6
:10455000B5F910BDFFB589B016A871C894468E464E
:104560000796159F129A139904AE31C614980092BB
:10457000019102900397624671460998FBF7ACF9E6
:104580000DB0F0BD38B5049C009400F0DBF938BDE7
:104590007CB5069C079DC0B20195009400F0F0F92F
:1045A0007CBDFFB587B094468E4610A8F7C8069725
:1045B0006F4677C762467146079800F017FA0BB04E
:1045C000F0BD10B500F064FA10BD10B5FBF7A4F90A
:1045D00010BD10B5FBF7B2F910BD10B5FBF7C0F96F
:1045E00010BD10B5FBF7CCF910BD10B500F06EFA98
:1045F00010BD10B5FBF7F2F910BDFEB508AF70CFD6
:104600006F4670C7FBF7FCF9FEBD38B5049C0094FB
:1046100000F07AFA38BD10B5FBF70CFA10BD10B5F2
:10462000FBF718FA10BD10B5FBF724FA10BDF0B572
:1046300085B00AACF0CC03976F4670C7FBF72AFA37
:1046400005B0F0BD10B5FBF74DFA10BD10B5FBF786
:1046500059FA10BD10B5FBF765FA10BD38B5049CCA
:104660000094FBF76FFA38BD10B5FBF77DFA10BD6B
:1046700070B55478157822022A43FBF785FA70BD8D
:1046800010B5FBF7D9FA10BD10B500F05BFA10BDFC
:1046900010B5FBF7D5FA10BD38B5049C009400F0B6
:1046A00069FA38BD10B5FBF7DDFA10BD38B5049CCA
:1046B000009400F023FB38BD10B500F077FA10BD70
:1046C00010B502F075FE10BD10B5FBF7F9F910BD7D
:1046D00010B505280ED90C4CA0420BD2A14209D22C
:1046E000814207D3FF20F530824203D2092B01D942
:1046F000A34201D3002010BD521C4A43D80082427D
:10470000F8DA012010BD0000810C0000F8B5074662
:10471000084616460D460C3012F080FD040011D0FC
:10472000912020700E206070A5702046A7800C306C
:104730002A463146A06012F067FC03482146007803
:1047400012F0E0FDF8BD00008441002070B5054680
:104750000C46062012F062FD01000BD0912008707B
:104760000F2048708D700120C87003488C8000783D
:1047700012F0C8FD70BD00008441002010B5044651
:10478000032012F04BFD010008D0912008701A2080
:10479000487003488C70007812F0B4FD10BD000022
:1047A0008441002070B5064614460D46082012F0DC
:1047B00035FD01000AD091200870052048708E70E8
:1047C0008D8003488C71007812F09CFD70BD000054
:1047D0008441002070B5064614460D46082012F0AC
:1047E0001DFD01000CD0922008703E20487008206A
:1047F00088708D808E710348CC71807812F082FDB4
:1048000070BD00008441002070B505460C460820AC
:1048100012F004FD01000BD0922008703E20487079
:10482000302088708C8003488D71807812F06AFD8A
:1048300070BD000084410020FFB581B01E460F46C8
:10484000312012F0EBFC040022D0912020703E2099
:1048500060700220A0700120E070204608300546FC
:104860006060019828706F700622A81C039912F0EE
:10487000CBFB2E722846324609300A9912F0C4FB4F
:1048800020350B98287203482146007812F03AFD33
:1048900005B0F0BD84410020FFB5074681B01D463C
:1048A0001646162012F0BAFC040029D09120207080
:1048B0003E2060700120A070002F08D03120E070F1
:1048C000204606220021083012F0A0FC07E000205C
:1048D000E0702046062208300A9912F095FB0298F3
:1048E000A080A671E5710B98E0810C9820820D984C
:1048F00060820E98207503482146007812F002FD70
:1049000005B0F0BD84410020F8B507461C461546A9
:104910000E460C2012F082FC01000FD0912008708E
:104920003E20487003208870CF708E80CD800C812F
:10493000069848810248007812F0E4FCF8BD0000B7
:1049400084410020F8B507461C4615460E460E2049
:1049500012F064FC01000FD0912008703E204870D6
:10496000072088708F80CE800D814C8106988881C9
:104970000248007812F0C6FCF8BD00008441002017
:10498000FFB581B01F46182012F048FC050028D062
:10499000912028703E2068700B20A87001202C46C2
:1049A0000834E87000266C600198207002986070EE
:1049B0000622A01C039912F027FB2772204606222C
:1049C00009300A9912F020FB0B98E073761CE87806
:1049D000F6B21034B042E7D803482946007812F006
:1049E00091FC05B0F0BD000084410020FFB581B00E
:1049F0001D4616460F46222012F010FC040042D03D
:104A0000912020703E2060700A20A070019800283C
:104A100014D03120E070204606220021083012F028
:104A2000F5FB2046062200210E3012F0EFFB204657
:104A300006220021143012F0E9FB13E00020E070A0
:104A40002046062208300A9912F0DEFA2046062295
:104A50000E300B9912F0D8FA2046062214300C9929
:104A600012F0D2FAA780A671E5710D9860830E98B6
:104A7000A0830F98E0832021109808550348214611
:104A8000007812F03FFC05B0F0BD0000844100202A
:104A9000F8B5064615460F46102012F0BFFB04007D
:104AA00011D0922020703E2060700520A070A6805A
:104AB00008223946A01D12F0A7FA0348E581807844
:104AC000214612F01FFCF8BD84410020F8B50646CF
